:020000040800F2
:10000000A83F0720D90200086DAE030891990308A4
:1000100049AE03083D4C0308DFE803080000000078
:1000200000000000000000000000000015020008B1
:100030007D5503080000000071020008A5BE0308FA
:10004000F3020008F3020008F3020008F3020008BC
:10005000F3020008F3020008F3020008F3020008AC
:10006000F3020008F3020008F3020008F30200089C
:10007000F3020008F3020008F3020008F30200088C
:10008000F3020008F3020008F3020008F30200087C
:10009000F3020008F3020008F3020008F30200086C
:1000A000F3020008F3020008F3020008F30200085C
:1000B000F3020008E5BF0308F3020008F30200089A
:1000C000F3020008F3020008F3020008F30200083C
:1000D000F3020008ADC60308F3020008F3020008AB
:1000E000F3020008F3020008F3020008F30200081C
:1000F000F3020008F3020008F3020008F30200080C
:10010000F3020008F3020008F3020008F3020008FB
:10011000F3020008F3020008F3020008F3020008EB
:10012000F3020008F30200087D540308F3020008FC
:10013000F3020008F3020008F3020008F3020008CB
:10014000F3020008F3020008F302000871AE03088E
:10015000F3020008F302000889540308F3020008C0
:10016000F3020008F3020008F3020008F30200089B
:10017000F3020008F3020008F30200080000000088
:10018000F3020008F3020008F3020008F30200087B
:10019000F3020008F3020008F3020008F30200086B
:1001A0003DA50308F3020008F3020008F30200086B
:1001B000F3020008F3020008F3020008F30200084B
:1001C000F3020008F302000800000000F302000838
:1001D000F3020008F3020008F3020008F30200082B
:1001E000F3020008F3020008F3020008F30200081B
:1001F000F3020008F3020008DFF80CD000F0BCFAAC
:100200000048004719680408A83F072072B67047E5
:1002100062B670472D4B19680868B0E8F04F80F35C
:100220000988BFF36F8F4FF0000080F3118870478B
:100230000000000008480068006880F308884FF05C
:10024000000080F3148862B661B6BFF34F8FBFF32E
:100250006F8F00DF00BF00BF08ED00E0DFF80C008B
:10026000016841F470010160704700BF88ED00E053
:10027000EFF30980BFF36F8F144B1A681EF0100F55
:1002800008BF20ED108A20E9F04F106009B44FF04C
:10029000500072B680F31188BFF34F8FBFF36F8F9A
:1002A00062B651F0B3FE4FF0000080F3118809BC34
:1002B00019680868B0E8F04F1EF0100F08BFB0ECE6
:1002C000108A80F30988BFF36F8F7047D000022037
:1002D000EFF3058070470000064880470648004756
:1002E000FEE7FEE7FEE7FEE7FEE7FEE7FEE7FEE7E6
:1002F000FEE7FEE791BF0308F90100082DE9F05F72
:100300000546002092469B46884606468146402484
:100310001BE0284641464746224600F0D6F85346A1
:100320005A46C01A914110D311461846224600F091
:10033000BDF82D1A67EB01084F4622460120002127
:1003400000F0B4F817EB00094E41201EA4F101049F
:10035000DFDC484631462A464346BDE8F09F10B5EB
:10036000441A0346944209D28418114403E011F858
:10037000013D04F8013D521EF9D210BD40EA0104CE
:10038000A40703D009E010C9121F10C3042AFAD22F
:1003900003E011F8014B03F8014B521EF9D210BDD6
:1003A000D2B201E000F8012B491EFBD270470022B7
:1003B000F6E710B513460A4604461946FFF7F0FF64
:1003C000204610BD421E12F8013F002BFBD111F850
:1003D000013B02F8013B002BF9D1704730B50546CF
:1003E0002A460B4612F8010B13F8014B08B1A04244
:1003F000F8D01CB1002802D06D1CF1E7284630BDB2
:1004000010B5044604E00B7800F8013B03B1491C29
:10041000521EF8D2204610BD421C10F8011B0029C4
:10042000FBD1801A704710B5002200E0521C835C9B
:100430008C5CA34201D1002BF8D1D8B2E1B2401AB2
:1004400010BD30B504460020034600E05B1C93421B
:1004500003D2E05CCD5C401BF8D030BD034611F800
:10046000012B00F8012B002AF9D118467047A0E8AB
:10047000004FF0C040F804DB01B5AFF30080BDE8E9
:10048000024001C10020704700F12C080C4658F8CA
:10049000040DAFF3008058F8040D8546200008BF16
:1004A000012038E9F00018E9004F7047202A04DBEA
:1004B000203A00FA02F1002070479140C2F1200377
:1004C00020FA03F3194390407047202A04DB203AB6
:1004D00021FA02F00021704721FA02F3D040C2F164
:1004E0002002914008431946704700000FB40023D2
:1004F00000B589B00CA900910B996FF00042CB6058
:100500001E4B06931E4B07930423CDE901321D4A6F
:10051000089202466B46002000F0DAF909B05DF857
:1005200014FB70B586B006464FF0FF300091CDE960
:100530000101002015460C4604903246694604A885
:10054000FFF7D4FF02460498211825B108B10846E8
:1005500000E020462860049800280DD0002A02DD23
:100560000098884208D0081B0094CDE90104324667
:10057000694604A8FFF7BAFF06B070BD090B000872
:10058000270B00089D0700082DE9FE4F81EA0304B0
:1005900004F0004421F0004100944FF0000B23F0E0
:1005A000004350EA01045ED052EA03045BD0C3F377
:1005B0000A54C1F30A552C44A4F2F3340194A0FB6D
:1005C0000254C1F3130141F48011C3F3130343F444
:1005D000801301FB024400FB034E840A970A44EA9D
:1005E000815447EA8357A4FB076802958D0A05FBEF
:1005F00007854FEA932C04FB0C542705029D4FEA14
:10060000065847EA1637B5EB08056EEB070C870E60
:10061000920E47EA811742EA8312A7FB0201B6EB6A
:100620000B0164EB00042B0D43EA0C335E1844EB22
:100630001C50DA465146E7FB0201C5F313044FEAAA
:100640000B3343EA14534FEA0432019C43EA060396
:10065000A4F10C040294009CCDE900B400F083FAEC
:1006600003B0BDE8F08F00200146F9E72DE9F04D19
:1006700081EA030404F0004B21F0004514464FF0DA
:10068000000A23F0004150EA050220D054EA01029A
:100690001DD0C5F30A570246C5F31303C1F3130077
:1006A000C1F30A5640F4801543F48013A7EB060803
:1006B000101BD64608F2FD3873EB050002D308F193
:1006C000010801E092185B41B8F1000F03DA002045
:1006D0000146BDE8F08D00204FF4801106468446A7
:1006E0000EE0171B73EB050705D3121B63EB050325
:1006F00006434CEA010C49084FEA300092185B416E
:1007000050EA0107EDD152EA030012D082EA040058
:1007100083EA0501084305D0101BAB4106D2012234
:10072000002306E000224FF0004302E06FF00102D8
:1007300053101AEB06004CEB085110EB0A0041EB8A
:100740000B01BDE8F04D00F0FFB970B521F000439A
:1007500003430CD0C1F30A550024D5EB040564EB28
:100760000403D617AD1AB34102DB0020014670BD69
:10077000201841EB025170BD064C074D06E0E068C1
:1007800040F0010394E8070098471034AC42F6D3D8
:10079000FFF736FD90BB0808B0BB0808C0B24FF4A5
:1007A000F05100F02FBA00002DE9FF4F087883B018
:1007B0009946FF2805D0491C2D2804D0002400208C
:1007C00008E000200BE00124F9E700EB800003EBD8
:1007D0004000491C0B78FF2BF7D104B140420023A5
:1007E0000293147819461D462D2C01D02B2C04D1D0
:1007F000521C2D2C13D000240294AA461478FF2CEE
:100800000FD00A25A3FB057801FB05814FF0000CF2
:1008100003FB0C11521CE3194AEB0101EEE7012422
:10082000EAE7814453EA010002D019F5C87F06DAED
:1008300003980021C0E9001107B0BDE8F08F002542
:10084000AE4E2F46DFF8B882184600F0EFF9CDE93A
:100850000001B9F1000002DAC9F1000400E0044629
:100860000023A74A1AEB030B42EB045A12E0E007FD
:1008700007D02A46334638464146FFF785FE0746ED
:1008800088462A46334610461946FFF77DFE054640
:100890000E466410002CEAD1DDE90001B9F1000F29
:1008A0005A46534606DAFFF7E1FE3A464346FFF75B
:1008B000DDFE05E0FFF768FE3A464346FFF764FEBB
:1008C000029A0AB181F00041039AC2E90001B3E73C
:1008D0002DE9FF4F1F468DB0D7E901464FF0FF3895
:1008E0002E2045464FF000090B90B9696D1C0E98FB
:1008F0008847396A824688470028F6D1BAF1FF3F17
:100900000AD024F4D064002E11DDBAF12B0F08D0E8
:10091000BAF12D0F0BD102E0404611B08DE744F43F
:100920008064B9696D1C0E9888478246761E6946B8
:10093000600501D52D2000E02B208DF8000001F18D
:10094000010B0DF1200809E0B9696D1C0E9888476C
:1009500082460F9844F40074761E0560002E02DD76
:10096000BAF1300FF0D00B998A453ED144F08004A3
:1009700006E00F99681CA9F1010944F400740860AD
:10098000B9696D1C761E0E98884782463028F0D0D3
:100990002BE00B998A4505D1200603D444F080044E
:1009A000761E18E050463FF0E5FF08B30DF1130145
:1009B000761E44F400748B4508D2AAF130000BF87F
:1009C000010B200607D5A9F1010003E0200602D49F
:1009D00009F101008146A00502D50F99681C086045
:1009E000B9696D1C0E9888478246002ED1DC53E011
:1009F000002E51DDBAF1650F02D0BAF1450F4BD18F
:100A0000A00549D5B9696D1C24F44074761E0E9872
:100A100088478246002E0CDD2B2804D0BAF12D0F1A
:100A200007D144F48074B9696D1C0E9888478246DA
:100A3000761EE00501D52D2100E02B2108F8011BD1
:100A4000CDF82C8021E00DF12901761E44F40074CC
:100A500088450CD2AAF1300010F0FF0088F80000A1
:100A600002D10B99884509D908F1010806E0E00593
:100A700001D5244801E042F20F708146B9696D1C2E
:100A80000E98884782460F980560002E04DD504678
:100A90003FF070FF0028D6D1F9690E988847FF20F3
:100AA0008BF8000088F800000020069007904B4665
:100AB0006A4608A906A8FFF777FEA00502D46FF0E2
:100AC00001002AE714F0240F0AD0E00714D1DDE971
:100AD00006123868031D3B600068C0E900120BE095
:100AE000DDE9060100F0AEF80146E00704D1386800
:100AF000021D3A600068016028460EE700001440BD
:100B00000000F03FF1D8FFFF426842B1016811F8E0
:100B1000013B23B1521EC0E9001218467047012163
:100B2000C160881E704742685AB1C368016843B902
:100B300083688B4205D0491E521CC0E90012002078
:100B400070474FF0FF30704710B5141E73F100046A
:100B500008DA401C41F1000192185B411A4301D1AF
:100B600020F0010010BD2DE9F04D92469B4611B1D9
:100B7000B1FA81F202E0B0FA80F220329046FFF73B
:100B800095FC04460F4640EA0A0041EA0B01534631
:100B90005A46084313D0114653EA010019D0C8F150
:100BA00040025046FFF791FC05460E465046594616
:100BB0004246FFF77BFC084305D0012004E02046B5
:100BC0003946BDE8F08D0020054346EAE0762C4327
:100BD00037430A986305E40AA0EB08000022FD0AE7
:100BE00044EA47540A3002D500200146E9E70105EE
:100BF00010196941DDE9084500196941BDE8F04D6A
:100C0000A2E700007F2801D9002208E0064A02EB93
:100C10005002C007127800D1120902F00F02012021
:100C20009040084070470000203508080EB540F29B
:100C3000334202920022CDE900221346FFF793FFD0
:100C400003B000BD01F0004330B421F0004150EA90
:100C5000010206D00A0DA2F56072C1F31301002A49
:100C600002DC30BC00207047440F44EAC104C100DC
:100C7000E01830BC00EBC250AFF300800029A8BFE1
:100C80007047401C490008BF20F00100704710B4B5
:100C9000B0FA80FC00FA0CF050EA010404BF10BC6A
:100CA000704749B1CCF1200421FA04F411FA0CF197
:100CB00018BF012121430843A3EB0C01CB1D4FEAD0
:100CC00000614FEA102042BF002010BC704700EBCB
:100CD000C35010440029A4BF10BC7047401C4900F9
:100CE00008BF20F0010010BC704770B58D1810F8D7
:100CF000014B14F0030201D110F8012B231106D18E
:100D000010F8013B03E010F8016B01F8016B521E73
:100D1000F9D1ABB110F8012B04F00C048A1A0C2C99
:100D200003D0A2EB84129B1C08E010F8014BA2EB4D
:100D30000422F8E712F8014B01F8014B5B1EF9D5CC
:100D4000A942D4D3002070BD70B5456882B0044676
:100D50000146284617F0B8FB68B123680F2B59D01D
:100D60000BDD282B45D0B3F5107F3CD0112B49D09B
:100D7000204618F0E1F802B070BD0B2B20D00E2BEE
:100D8000F6D1E3681A6859680D2A53D0202A31D168
:100D9000002928464FF480717DDD17F085FC284638
:100DA00003F060F802AB846A43F8040D184603F0C0
:100DB000BDF9A207DFD52846012119F071FFDAE756
:100DC000284602AD03F04EF803466830019302F066
:100DD0000FFE55F8040D03216C3002F02FFE28465B
:100DE00003F0A4F9C4E7324B214628461B68984714
:100DF000C1E7E368002BBBD128464FF4807117F0A0
:100E000041FBB5E72B4B1B68002BB4D0214628468D
:100E10009847B0E7284603F025F8034602A840F8B3
:100E2000043D5B6E1C6803F081F9002CA3D02846BA
:100E3000A047A0E70029DDDD4FF48071284617F0B8
:100E400033FC02AC284603F00DF8866A44F8040D22
:100E5000204603F06BF9B10703D50121284619F0AC
:100E60001FFF4FF48071284617F00CFB284602F054
:100E7000F9FF034620461E8E9C6A019303F056F943
:100E800030460CF003FFA3077FF575AF284602211B
:100E900019F006FF6FE717F0F5FA284602F0E2FFB7
:100EA000034602A89C6A1E8E40F8043DE6E700BF98
:100EB0006C100220C0FC06202DE9F04F87B0804660
:100EC00089469246129E9B46109F4C251A4C08F06C
:100ED0000BFA01965B4600975246494640460395F9
:100EE000029417F02DFF064600B302F0BBFF10225C
:100EF0001199124F059017F0F3FC0DF1180E3D1DDE
:100F00005EF804CD0FCD0CF134040FC40FCD0FC427
:100F100095E80F0084E80F007B6B7046CCF86430D6
:100F200003F004F97B6B30465B6898470DF0F2FCE8
:100F3000304607B0BDE8F08F490D00086C10022064
:100F40002DE9F04F87B0804689469246119E9B4618
:100F5000109F4C251A4C08F0C7F901965B46009784
:100F60005246494640460395029417F0E9FE06466C
:100F700000B302F077FF10221399124F059017F07B
:100F8000AFFC0DF1180E3D1D5EF804CD0FCD0CF138
:100F900034040FC40FCD0FC495E80F0084E80F0090
:100FA0007B6B7046CCF8643003F0C0F87B6B304646
:100FB0005B6898470DF0AEFC304607B0BDE8F08F97
:100FC000490D00086C1002202DE9F04FB0F90A60BD
:100FD00087B0B0F90C708B4685691644B0F90E8065
:100FE0001F44B0F910A00446B0F908904C3508F041
:100FF0007BF9DFF8CCC04FF0000E4246CDF800B0D0
:101000003946304603955346CDF808C0CDF804E084
:1010100017F096FE804628B90DF07CFC404607B0DC
:10102000BDE8F08F02F01EFF244F49460DF118096C
:10103000102205903E1D17F053FC59F804ED0FCE19
:101040000EF134050FC50FCE0FC596E80F0085E8E9
:101050000F007B6B4846CEF8643003F067F87B6B7B
:1010600040465B6898470DF055FC656808F03CF910
:10107000404602F0F7FE034604A89C6E04930594D4
:1010800003F054F8294648460FF088F80028C3D0EA
:10109000059B9C4209D0404602F0E4FE059A0346B7
:1010A00004A89A66049303F041F8404619F0BAF98F
:1010B0000DF030FC404607B0BDE8F08F6C10022008
:1010C000490D0008974A816843682DE9F0410446BC
:1010D00088B052F82160122B40D8DFE803F0B03F0F
:1010E0003F3F3F0A973F3F3F3F3F3F3F3F3F3F3FED
:1010F0004300F569002D40F0B580371F57F8040F05
:101100000CF0C0FB04F1140120690EC928445B1BDC
:10111000521B2944013505F0F3F8022DEED1626926
:101120003169E3690191911CF76813442069A26950
:101130005B1028440097521B04F0B2FFE16962691A
:10114000B0698B1E1144A26901904910206976692B
:10115000521B01312844009604F0A2FF002008B081
:10116000BDE8F081006802F07DFE876E0490002FDC
:1011700000F0D080A368B0F95C80002B00F0C8803C
:10118000032B14BF0023022300EB8303406D08AC44
:101190001D6C0CF0A7FB28460CF074FB06A806F0AB
:1011A00007F8B28BBDF8181006A8BDF81C30114422
:1011B000BDF81A509A1ABDF81E30ADF81810023555
:1011C00054F8101D023BADF81C20B1F96020B1F9B4
:1011D0005E10ADF81E30ADF81A5009F089FC2046BB
:1011E00008AC02F0A3FF02200CF038FD384602F0F4
:1011F00039FE06A9424644F80C0D04F06BFC20466B
:1012000002F094FF002008B0BDE8F081006802F011
:1012100029FE049020681BF057F9B8B9049B5D6F54
:1012200005B9DD6E04A802F081FF0023284621687D
:101230001A4604F0F9FA002008B0BDE8F081006811
:101240001AF05CF8002008B0BDE8F081A368002B1C
:1012500064D1049A136F002B14BF6C2368231344CA
:101260005D68DFE7B268B046C36900270392716822
:101270008269029158F8040900956169019020691A
:101280000EF040FA58F8040F0CF0FCFAF369A2696A
:1012900021696069D21A1944384404F0DBFFF3690C
:1012A000A2692169E069D21A1944C01B04F0D2FF77
:1012B000F369E26961692069D21A1944384405F07A
:1012C00067F8A069F369E269C01B61690137D21A46
:1012D000194405F05DF8022FD4D1B0680CF0D2FAB1
:1012E000F16922696569901CE3690A445B1A294423
:1012F000013A05F0C1F8F169A0696569E369821EE8
:10130000401A5B1A2944013005F0B6F8F56906E782
:10131000012339E704A802F009FF1FE7049BDD6EF3
:1013200080E700BF148D080870B5164604460D46C8
:10133000049A3046194604F02BFA29460246204604
:10134000BDE8704000F070B8054B064A064910B47D
:101350005C6A1160586220465DF8044B704700BF1C
:1013600070100220A0100220A410022000B97047C3
:1013700030B5044683B00D4607F0B6FF204602F0B4
:1013800071FD02AB456543F8040D184602F0CEFE30
:10139000204619F047F80DF0BDFA03B030BD00BF8C
:1013A00038B51346002204460D461846114604F08F
:1013B00019FA294602462046BDE8384000F034B804
:1013C00070B582B018B90125284602B070BD044638
:1013D0000D4607F089FF204602F044FD0346866E65
:1013E00068468DE8480002F0A1FE294601A80EF0EB
:1013F000D5FE00280CBF012500250FD0019B9E4281
:1014000009D0204602F02EFD019A034668469A66EE
:10141000009302F08BFE204619F004F80DF07AFAE2
:10142000284602B070BD00BF00B9704770B50546D0
:1014300082B00C46164607F057FF284602F012FD10
:10144000022C019006D901A802F070FE0DF062FA9C
:1014500002B070BD1A34A4002044043002F0C8FA6F
:10146000019B28461C44666018F0DCFFEBE700BFD8
:10147000F0B5274F83B005463A68538CD46C116D94
:101480001C44938CA4B20B4421B29384013C51843C
:10149000ADF8001005F066FE064628460EF0B6FCD4
:1014A0003B683444B3F924602044ADF80260013E47
:1014B000ADF8040005F0B0FE06446846ADF80660DD
:1014C0001AF00CFC80B90A2D1DD0BDF804303A6822
:1014D00001331BB25384918CD46C106D1B1B091A01
:1014E0005384918403B0F0BD284601F0FDFE1AF04C
:1014F00087FA0028E7D0284601F0F6FE1AF080FAB5
:101500000028F1D1DFE73A68B2F92230E3E700BF03
:10151000301002202DE9F0430F4685B0064607F053
:10152000E3FE112F49D0132F40D0304604AC02F017
:1015300099FC0346C06B44F80C3D02F0D5FE814691
:10154000204602F0F3FDA7F14103192B98BF203785
:10155000B9F1000F2CDD00250DF10C08304602F02A
:1015600081FC03462946C06B039302F0D1FE04467A
:10157000404602F0DBFD204684B102F073FC0346D6
:1015800002A8029353B11C78A4F14103192B98BF10
:10159000203402F0CBFDE4B2BC4248D00135A9456D
:1015A000DCD10DF0B7F905B0BDE8F083002E5AD1BB
:1015B0000DF0B0F905B0BDE8F083002EF8D007F0CB
:1015C00093FE0DF11008304602F04CFCB0F93440A7
:1015D00048F8040D404602F0A9FD0DF09BF904B156
:1015E000013C07F081FE304602F03CFC0346C06B34
:1015F000039302F079FE00B101388442039BA8BF37
:101600000446B3F93420A24229D09C86404602F019
:101610008DFD304618F006FF3046042119F040FBDE
:101620000DF078F90DF076F905B0BDE8F083002EE5
:10163000BED007F059FE304602F014FC0346C06BE2
:10164000039302F051FE00B101388542039BA8BF0D
:101650000546B3F93420AA4201D09D86D6E740461C
:1016600002F064FDDCE70DF1100807F03DFE3046A6
:1016700002F0F8FBB0F9344048F8040D404602F09F
:1016800055FD01340DF046F907F02EFE304602F00C
:10169000E9FB0346C06B039302F026FE00B101385C
:1016A000A042039BA8BF2046B3F934208242D6D083
:1016B0009886ABE7F8B1F1B170B5044682B00D463B
:1016C00007F012FE204602F0CDFB02ABC66B43F8DA
:1016D000040D184602F02AFD2846FEF79DFE294615
:1016E000421C304602F04AFD204618F09BFE0DF0E9
:1016F00011F902B070BD704770B5456882B00446FC
:10170000284602F0AFFB02ABD0F8886043F8080D22
:10171000184602F00BFD2146284616F0D5FE60B3B0
:101720002368112B5ED01DDC0E2B28D00F2B65D02B
:101730000B2B1FD1284602AD02F094FB0346C06B71
:10174000019302F06DFD019BD3F8880017F040FC77
:1017500055F8043DD3F8940002F020F9284602F031
:10176000E5FC07E0262B24D0B3F5107F00F09D8028
:10177000212B54D0204617F0DFFB02B070BDE36888
:101780005A68002AF6DD1968A1F10903192B00F245
:101790009980012280489A4010400028EAD1120224
:1017A00026D4002B40F08E8017F06AFF8642E1D1EC
:1017B00014E0E1680A2900F08C800B2900F08D808C
:1017C0000129D7D1304611F01BFF0028D2DB30466B
:1017D00011F016FF0646002D40F09B80284619F0B8
:1017E000A1FCC7E7002EC5D1E3681B7A002BC1D04E
:1017F000002DBFD0284600F095FABBE7284602F03E
:1018000031FB034602A840F8043DD3F884301E683B
:1018100002F08CFC002EADD02846B047AAE7E36862
:101820005A68002AA6DD1B680D2BA3D1304611F0A3
:10183000E7FE002863DB304611F0E2FE0646002D8D
:10184000CCD007F051FD284602F00CFB0346C06BDC
:10185000019302F049FD00B101388642019A3346F6
:1018600001AEA8BF0346B2F93410994200F08F8050
:101870009386304602F05AFC284618F0D3FD042126
:10188000284619F00DFA0DF045F807F02DFD284611
:1018900002F0E8FAD0F888300190002B6CD1304685
:1018A00002F044FC0DF036F898E7E36863B31B7A66
:1018B00028461BB1012119F0F3F95EE7022119F066
:1018C000EFF95AE7002D3FF458AF2846FFF722FE04
:1018D00053E7284619F0E4F94CE7002D3FF44AAFEE
:1018E00007F002FD284602F0BDFAD0F888300190DA
:1018F0008BBB01A802F01AFC0DF00CF83AE7002DA2
:101900003FF46CAF01AEC0E72846032119F0C8F9D7
:1019100033E707F0E9FC284602F0A4FA0346C06B5F
:10192000019302F0E1FC08B30138B042019BA8BF6B
:101930003046B3F9342090421AD0988601A802F0BC
:10194000F5FB284618F06EFD0421284619F0A8F989
:101950000CF0E0FF42E7184617F03AFB019B00222B
:101960002846C3F8882018F05DFDC2E70020DCE7B8
:1019700001A802F0DBFBEBE7184617F029FB019BFF
:1019800000222846C3F8882018F04CFD87E730462F
:1019900002F0CCFB77E700BF020004032DE9F04F13
:1019A0008B46B0F90C1089B0B0F90A70856901EB6B
:1019B0000308B0F910301744B0F90EA000260593C3
:1019C0006C35B0F81290B0F9084007F08DFC384B38
:1019D0005246CDF800B041460293384603954FF089
:1019E000FF33019617F0ACF9824628B90CF092FF4C
:1019F000504609B0BDE8F08F2E4F02F033FA214671
:101A0000102206903D4616F06BFFDDF818E00FCD72
:101A10000EF14C048EF88C900FC40FCD0FC40FCD77
:101A20000FC495E80300BB6B84E80300CEF8843054
:101A300050468EF89060BDF81430AEF8363002F0A3
:101A400011FAB0F93810079061B30346DA6A184604
:101A5000B3F98040136803EB44040C441AF02EF9E8
:101A6000054607A802F062FB22462946504619F0B7
:101A7000FFFC06A802F05AFB02F0CEFB04465046DB
:101A800002F0F0F9034606A8DC63069302F04EFB71
:101A9000BB6B50465B6898470CF03CFF504609B062
:101AA000BDE8F08FC06C05F02DFC079B0146CDE72B
:101AB000F9160008301102202DE9F04188B00446E3
:101AC000006802F0CFF9034608A8D3F8886040F810
:101AD000103D5F8E02F02AFB20681AF0F5FC26B953
:101AE000FB0740F1A7808C4D00E08C4D6368122B02
:101AF00000F29C80DFE813F009019A00E1009A00EF
:101B00009A0013009A009A009A009A009A009A008C
:101B10009A009A009A009A009A009A00A500AA6872
:101B20002F1FE369002603926968A2690291286861
:101B300061690190D4F810E0A86A009070460DF039
:101B4000E1FD57F8040F0BF09DFEAB6AA269216915
:101B50006069D21A1944304404F07CFBAB6AA26974
:101B60002169E069D21A1944801B04F073FBAB6A47
:101B7000E26961692069D21A1944304404F008FC12
:101B8000A069AB6AE269801B61690136D21A194407
:101B900004F0FEFB022ED4D1A86A022819DDA86841
:101BA0000BF070FEA96A22696669901CE3690A4419
:101BB0005B1A3144013A04F05FFCA96AA069E36949
:101BC000821E6669401A5B1A3144013004F054FCED
:101BD000A86A62692969E3690191911C2769134424
:101BE000EE68A2695B100096121A384404F058FAA5
:101BF000E1696269AE698B1E1144A86AA269491045
:101C000001962769121A6E6901313844009604F072
:101C100047FA686A0BF036FEE3696169A0691A1F2A
:101C20005B1A0431C01A013004F0B2FB002008B086
:101C3000BDE8F0813A4BA3F12C05002808BF1D46F2
:101C400054E7206802F00EF9034608A8B3F9806053
:101C500040F80C3DD3F84C80B3F9827002F066FA7C
:101C6000B4F814E0B2B2A36920690EEB03010EF1DF
:101C7000020E10440339ADF81AE0B4F81CE0861CDB
:101C80008B1A0220AEF10202ADF81860CEEB03030E
:101C9000ADF81E20ADF81C300BF0E0FF40460BF015
:101CA00021FE286A0BF0EEFD206A3A4606A903F0F1
:101CB00011FF002008B0BDE8F08104F11401E869CB
:101CC0000EC95C1AA4F10806651C7610A2EB650526
:101CD00006F1FF380BF0D6FDC8EB0404B8F1000F95
:101CE0004FEA6404A2DBAF1B4544264401373F1B87
:101CF0003919204601342A4604F0ACFA013DA642C7
:101D0000F6D1002008B0BDE8F081206819F0F6FA9D
:101D1000002008B0BDE8F081F0120220C4120220B9
:101D2000481302202DE9F04F07469BB007F0DCFA7C
:101D300038460FAC02F096F80D90384617F03EFF8B
:101D40000D9B0690DD6B93F89020284693F88C80CD
:101D5000B3F936900B92B3F934A002F0C5FA0D9B9B
:101D600006461A6DB3F88EB011925A6E05925A6DEE
:101D700012929A6D1392DA6D14921A6E1592059A58
:101D800016921A6F17925A6F18929A6F1992B3F9A6
:101D9000822093E803000792DA6CD3F8943008921B
:101DA000059384E803000DA802F0C0F9384617F047
:101DB000F3FD02F057F81AABB0F90010B0F90220A9
:101DC00043F8380D18460A91099202F0AFF9099AC2
:101DD00020460A995242494208F08AFE18F0020F42
:101DE00077D0BDF83E30C9EB03031BB23846ADF8DF
:101DF0003E30022417F0D0FD014606980294009070
:101E00000020BDF93E30BDF93C20CDF8049011F022
:101E100085FB18F0010F04465ED16EB14FF000084B
:101E20004146284608F1010802F072FA01462046B0
:101E300010F04AFF4645F3D1002611AD55F8262093
:101E400031460136204611F021FE032EF6D1002640
:101E500014AD55F8262031460136204612F076F8AA
:101E6000032EF6D1002617AD55F82620314601364F
:101E7000204611F0EFFE032EF6D1059BA3BB594679
:101E8000204611F0ABFE0899204611F023FE079979
:101E9000204612F041F8204619F044F93946204610
:101EA00011F0B8FE5146204611F04EFF0121384690
:101EB00018F0F6FE384601F0D5FF03460DA8C3F82A
:101EC00088400D9302F032F90CF024FD1BB0BDE800
:101ED000F08FBDF9423089E70B9911F0FFFE012127
:101EE000204611F09DFD98E7184601F0BBFF0688DB
:101EF00005460E9096B14FF0000805EBD80308F0A8
:101F00000702414608F101089B78204643FA02F295
:101F100002F0010211F0FCFDB045EED10EA802F076
:101F200005F9ACE700B9704730B5044683B00D46FB
:101F300007F0DAF9204601F095FF90F88C2003466F
:101F4000019002F0FE046DB994420FD0D3F888508E
:101F500001A883F88C4002F0E9F875B90CF0DAFCBE
:101F600003B030BD44F001049442EFD101A802F067
:101F7000DDF80CF0CFFC03B030BD04F001012846C1
:101F800011F04EFDEAE700BF00B9704730B50446D6
:101F900083B00D4607F0A8F9204601F063FF034621
:101FA000C06B019302F0A0F9B0B9A842019BA8BF91
:101FB0002846B3F93420824210D0988601A802F056
:101FC000B5F8204618F02EFA2046042118F068FED5
:101FD0000CF0A0FC03B030BD0138E6E701A802F028
:101FE000A5F80CF097FC03B030BD00BF00B97047F6
:101FF00070B5044682B00D4607F076F9204601F030
:1020000031FF02AB058743F8080D184602F08EF841
:10201000204601F027FFB0F938100190D1B10346F6
:10202000DA6A1846B3F98050136803EB45050D448E
:1020300019F044FE064601A802F078F82A46314617
:10204000204619F015FA204618F0ECF90CF062FC65
:1020500002B070BDC06C05F055F9019B0146DFE789
:1020600030B583B00C4601F0FDFE02AD214645F8C7
:10207000040DC06B02F04CF90446284602F056F8F5
:1020800020460CB101F0EEFE03B030BD2DE9F04367
:1020900004468BB018B920460BB0BDE8F083164655
:1020A0000D461F4600F0D6FC8046204600F0B6FCE8
:1020B000814607F019F905A9204600F0CBFEEA0792
:1020C00019D4AB07BDF920004CBF40F20223022314
:1020D000304442460293494643468DE89000FEF75D
:1020E000EBFE0446002116F00BFB0CF013FC20461F
:1020F0000BB0BDE8F083BDF9242008F1FF30822346
:10210000101A801BE5E700BF10B50523FFF7BEFFDF
:102110000446054A0021FFF743F92046034918F019
:1021200063FF204610BD00BF31290208694803083B
:1021300010B50723FFF7AAFF0446054A0021FFF761
:102140002FF92046034918F04FFF204610BD00BF6D
:10215000892A02088148030810B50823FFF796FF73
:102160000446054A0021FFF71BF92046034918F0F1
:102170003BFF204610BD00BFF12C0208C1480308F8
:102180002DE9F047466886B00546304601F06AFE04
:10219000C36D0090D0F88840D0F88070D0F8688087
:1021A000B0F87C90002B64D0D3F800A0684601F012
:1021B000BDFF14B909E024683CB16368284698471C
:1021C0000028F8D006B0BDE8F0872B68172B00F088
:1021D000A5801DDC0F2B00F08D807DDC0B2B00F02B
:1021E000BF800D2B0AD119F0080F07D1EB68DB680F
:1021F00023B11B7A13B1304618F094FF30462946BC
:1022000016F062F90028DDD0284616F095FED9E7D1
:10221000262B75D02FDC1E2B00F0AE80202BEDD1AD
:10222000EC68002CEAD0314660681AF033F90028D7
:1022300000F0C080304601F015FEB0F87C30024658
:102240000190180740F12D8101A801F06FFF314680
:1022500060681AF00DF90028D0D0304601F002FE77
:102260006268034601A80193C3F8802001F05EFF75
:10227000C4E79A469AE72A2B65D0B3F5107FBDD103
:1022800006AC3046D5F80C8001F0ECFDB0F87C705F
:1022900044F8140D204601F049FFEB68002B91D063
:1022A00098F80830002B00F0AB80380740F1B78079
:1022B000304616F089FC07F48873B3F5887F81D126
:1022C00007F080039BB2002B7FF47CAF4146304681
:1022D000052218F0CDFE75E7112B22D0142B8DD1DD
:1022E000304601A900F0B6FD02ABEA6803CB1060EE
:1022F000516067E7BAF1000F80D03046D0477DE7E4
:10230000EB68022B7FF45EAF272206A9A86841F88C
:10231000142D039604931AF043FA53E7C5F80C8082
:1023200050E7EC68304601F09DFD01902389012BB8
:1023300005D1B0F87C3043F48073A0F87C3001A85C
:1023400001F0F4FE5AE7304601F08CFDEB68009096
:10235000002B68D0C0F88430684601F0E7FE31E712
:10236000304601F07FFD03467030009301F040FBE2
:10237000684601F0DBFE41E7EC68012C57D0002EE7
:102380003FF420AF06F0B0FF304601F06BFDB0F82F
:102390007C30024601901C0706D523F00803304626
:1023A000A2F87C3018F03EF801A801F0BFFE0CF056
:1023B000B1FA07E7304601F055FDB0F87C3002462F
:1023C0000190190706D523F008033046A2F87C30A7
:1023D00018F028F801A801F0A9FE314620681AF08B
:1023E00047F800283FF40AAF304601F03BFD226871
:1023F000034601A80193C3F8802001F097FEFDE693
:10240000304601F02FFD03462046B3F87C200193AF
:1024100022F48072A3F87C2001F088FED2E63046D8
:1024200018F080FE44E7D0F88430EB6094E738463B
:1024300018F018FB20B3384618F074FE384617F031
:102440009FFEB0B926B9002F7FF4BCAEEF60B9E6AD
:1024500006F04AFF304601F005FDB0F87C30024638
:102460000190190725D501A801F060FE0CF052FA81
:10247000E9E72146384616F017F9002EE3D0E7E7E2
:10248000404618F0BBFE0746304601F0EBFC034621
:102490006846C3F88070009301F048FE002ED2D049
:1024A000D6E743F008033046A2F87C3017F0BAFFB5
:1024B000CAE643F008033046A2F87C3017F0B2FFBA
:1024C000D1E700BF2DE9F04F0F46B0F90C108FB0E7
:1024D000B0F90A6001EB030BB0F9083085691644C6
:1024E000049343686035B0F90E80B0F91090B0F8ED
:1024F00012A0059306F0F8FE4B4C4FF4805E039556
:102500005946009730464B4642460294CDF804E0C7
:1025100016F016FC054628B90CF0FCF928460FB059
:10252000BDE8F08FDFF808910EAE01F09BFC049936
:102530003022069016F0D4F956F8207DCE464FF0A2
:10254000000807F13404BEE80F000FC4BEE80F0016
:102550000FC49EE80300189B84E803007B663046A6
:10256000D9F8283041F28274A7F87CA0FB65C7F83F
:102570008080C7F86C80C7F8888001F0D7FD09A972
:1025800028462A4F00F066FCBDF92AE0BDF9281064
:10259000BDF92C20BDF92E300846521A0194CEEB1D
:1025A000030371460132CDF80C8001330095029788
:1025B00016F0C6FBD9F82830044628465B689847D1
:1025C000284601F04FFC034630469C66069301F016
:1025D000ADFD284616F022FE06F086FE284601F0E4
:1025E00041FC034607A81A6F0793089201F09EFD6D
:1025F000059908A80DF0D2FD38B90CF08BF90CF054
:1026000089F928460FB0BDE8F08F284601F02AFC72
:10261000089A034607A81A67079301F087FD284622
:1026200017F000FFE9E700BF81210008ED31000845
:102630006C1102202DE9F041044690B0006800F0D2
:10264000D5F9B04B6668A3F12C05002808BF1D46DC
:102650001C2E00F2F780DFE816F02200F500F500EE
:10266000F500F5003500F500F500F500F500F50082
:102670005100F500F500FA00F500F500F5000E0137
:10268000F500F50048014A014C014E01F500F50046
:10269000F5001D006E69304610B0BDE8F08120687D
:1026A00001F0E0FB034610A8B3F85A2040F82C3D97
:1026B00042F00C02A3F85A2001F038FD206818F00F
:1026C0001DFEE8E72A690026B4F910300192B4F93A
:1026D00014701846EA68B4F918503946B4F91C4029
:1026E000ADF81C30009223462A46ADF81E70ADF8B6
:1026F0002050ADF8224003F0D3FCCCE723681C2225
:1027000018460892079301F0ADFB034607A805930E
:102710001B6D9847064605A801F008FD012E40F301
:102720002781A9683346626902916868A1690190AE
:102730002F68206900970CF0E1FE2769A3693744F0
:10274000C6EB030828680BF09DF8424639466069DD
:1027500003F080FD68680BF095F8606942463946E1
:10276000013003F077FD6B6A022B00F3F4802A6AD4
:10277000964217DA6769012E206907F1020840F3D3
:102780002A810244374430444146013A3B4603F033
:1027900073FEA069821B3B46EF694146C01B0130B6
:1027A00003F06AFE012E40F3138163691E44E7695A
:1027B0002868013F0BF066F8314620693A4603F07D
:1027C000E7FD3A463146A06903F0E2FDE769686833
:1027D0000BF058F8023F206931463A46013003F0C9
:1027E000D7FDA0693A463146013803F0D1FDEB69C7
:1027F000022B40F38280AB6AE769022BA868CCBF4A
:10280000FF1A023F0BF03EF8EA69022A00F39A80B1
:102810002B6A022B00F38C8028680BF033F8A26936
:102820002169E06903F016FD68680BF02BF8A269D6
:102830002169E069013A0131013803F00BFDAF6A0B
:10284000022F61DC0026304610B0BDE8F08104F1B3
:1028500014012769A8680026ADF81C700EC9ADF8F0
:102860001E10ADF82020ADF822300BF00BF807A8B1
:1028700003F02EFE0FE7298B2269A3690A446569DC
:102880005B1AE1692068ADF82030ADF81C20ADF886
:102890001E50ADF8221001F0E5FA036F0590FBB170
:1028A00002200BF0DBF9059AB2F87C30C3F3C003C9
:1028B0000E3302EB830398680AF0E4FF059B586B24
:1028C0000BF010F8059B186F01F0CCFA059B07A9D7
:1028D0000690B3F95A2003F0FDF806A801F026FC93
:1028E00005A8002601F022FCD5E6AE6AD3E6EE6923
:1028F000D1E62E6ACFE66E6ACDE62B6A022B8BDD1F
:1029000079E700BFB4130220D4F81C800026A26926
:102910002169A868951E8C1C0AF0B4FFC7EB08015A
:102920002A462046A8F10203013103F0A5FDB2E6D4
:10293000A0693B46EF693146821EC01B013003F09F
:102940009BFD69E720693B46314602440230013A6B
:1029500003F092FD5CE7A8680AF094FF63693846CB
:102960006F6A991C42463B44013B03F085FD19E721
:1029700028680AF087FF2269EB69114660691A44EA
:10298000013A03F067FCA369E9691A466069591ABC
:10299000013103F05FFC676920690137394603F0B4
:1029A00085FC3946A06903F081FC68680AF06AFF7B
:1029B00020693946013003F079FCA06939460138B5
:1029C00003F074FC2769A3690237A3F10208B9E692
:1029D00066690236EBE60244434602304146013A5C
:1029E000474603F049FDA069821ED4E610B50446AF
:1029F00082B080B106F078FC204601F033FA02ABD9
:102A0000B0F87C4043F8040D1846C4F3C00401F04C
:102A10008DFB0BF07FFF204602B010BD30B50446A1
:102A200083B0A0B106F060FC204601F01BFA02ADB5
:102A3000C26D03460021204645F8043D93681B689B
:102A400098470446284601F071FB0BF063FF2046CF
:102A500003B030BD10B5044686B010B9204606B0AC
:102A600010BD06F041FC204601A900F0F3F9204614
:102A700001F0F8F906ABB0F9544043F8180D1846C8
:102A800001F054FB0CB9BDF904400BF043FF2046A4
:102A900006B010BD00B970472DE9F043054685B07A
:102AA00006F022FC284601F0DDF9019028462FF0BF
:102AB0008BFD019BB3F87C20120634D4986901F099
:102AC000D1F983690290B0F90060B0F90270002B6F
:102AD0004AD0B0F90480B0F9069002A801F026FBB4
:102AE000019B03F17402DC6993E8030082E80300B0
:102AF000B3F87C2042F08002A3F87C2034B91AE0BD
:102B0000039B03A81C6A01F011FBA4B1204601F04D
:102B1000A9F90390204616F0D3FD0728F0D12046EE
:102B200017F080FCECE701A801F000FB0BF0F2FECF
:102B300005B0BDE8F08301A801F0F8FA3A46314645
:102B4000284617F0E9FFC7EB0902C6EB0801284643
:102B50000132013118F08CFC284600F009FB0BF023
:102B6000D9FE05B0BDE8F0830FF034FA0FFA80F813
:102B70000FF076FA0FFA80F9AFE700BF00B970479F
:102B8000F0B5054683B006F0AFFB284601F06AF9C0
:102B9000009028462FF0D0FC009BB3F87C20520612
:102BA00006D5684601F0C2FA0BF0B4FE03B0F0BDE2
:102BB000B3F906201846B3F90260961B00F0D4F969
:102BC000009B0136D96A03F174020F6800EB4707D6
:102BD00093E80300023782E80300986E17F0DEFAEC
:102BE000009BD86E17F0DAFA009BB3F87C20DC6902
:102BF00042F04002A3F87C2034B912E0019B01A806
:102C00001C6A01F093FA64B1204601F02BF901909F
:102C1000204616F055FD0828F0D1204617F002FC9A
:102C2000ECE7684601F082FABA1B0021284618F04A
:102C3000A7F8284600F09CFA0BF06CFE03B0F0BD3C
:102C400000B9704710B5044606F04EFB20462FF041
:102C5000BBFC20462FF070FCBDE810400BF05ABEC4
:102C60002DE9F041044684B00E4606F03DFB24B940
:102C70000BF050FE04B0BDE8F081204601F0F2F800
:102C8000458EC36D05F0200503909F68ADB245B138
:102C9000B0F954502DB9406B04F036FB039B851CF2
:102CA00000E003465E6303A801F040FA3B6801219F
:102CB000204698473B6806460321204698473B68D4
:102CC00080460021204698470746204600F050FAEB
:102CD0004346324629462046009700F0CBF920466D
:102CE00017F0A0FB0BF016FE04B0BDE8F08100BFAA
:102CF00000B9704730B5044683B00D4606F0F4FACB
:102D0000204601F0AFF80346026F68460093019237
:102D100001F00CFA294601A80DF040FA18B90BF0A1
:102D2000F9FD03B030BD204601F09CF8019A03463E
:102D300068461A67009301F0F9F9204617F072FB14
:102D40000BF0E8FD03B030BD00B9704730B5044664
:102D500083B00D4606F0C8FA204601F083F8B0F9BA
:102D60005A300190AB4204D0A0F85A50204617F0D8
:102D700059FB01A801F0DAF90BF0CCFD03B030BD2E
:102D800000B9704730B5044683B00D4606F0ACFA82
:102D9000204601F067F802AB056443F8040D456472
:102DA000184601F0C3F9204617F03CFB0BF0B2FDCA
:102DB00003B030BD2DE9F04385B020B90546284663
:102DC00005B0BDE8F08304460E4606F08DFA2046B5
:102DD00001F048F8B0F954500390B5422AD0418E22
:102DE00001F0200189B219B16DB303462F4601E00D
:102DF00003460F46DA6D0121A3F854602046966819
:102E000033689847336880460321204698473368E3
:102E100000218146204698470646204600F0A8F942
:102E2000204600964B464246394600F023F920469C
:102E300017F0F8FA03A801F079F90BF06BFD2846BA
:102E400005B0BDE8F083406B04F05EFA039B871C7D
:102E5000D0E700BF2DE9F04F89B007460D4601F0DD
:102E600001F8034601213846DA6D0593946823681A
:102E700098472368032180463846984723680221F3
:102E8000834638469847236800218246384698474B
:102E90008146059818F012FF0646059818F016FFAF
:102EA00003460598448E04F02004A4B2B4B1B0F9EE
:102EB0005420B0F95840002A4AD091B2C06E0C4458
:102EC000A4B280B103910292019316F095FE019B8A
:102ED0000FFA80FC029A80B2039905E0214622464F
:102EE000C06E0028EED184461FFA89FE013E013BE8
:102EF0000FFA88F8CBEB060674440EF1FF3ECAEBDE
:102F0000030336B2044471446B812A8005A8A5F8F6
:102F100002C0EC8069822E812E82A5F80480A5F87B
:102F20000C80A5F80E9001F001F908AAB5F910403F
:102F30003846B5F90C3006A942F8044D069300F066
:102F40004BF8069A079BAA812B8209B0BDE8F08F47
:102F5000406B019304F0D8F9821C019B059891B253
:102F600012B20C44A4B2BBE708B5438E03F02003B1
:102F70009BB24BB10246B0F9540000B108BD506B92
:102F800004F0C2F9023008BD184608BD70B58AB019
:102F90000C46064600F066FF0AABC26D43F8280DEA
:102FA0001846956801F0C2F80196032C05D8DFE8B1
:102FB00004F00F0C0902172302936B6801A89847CD
:102FC0000AB070BD15230293F7E716230293F4E7C6
:102FD00018230293F1E700BF2DE9F04383B0884640
:102FE0000446914600F03EFF034602A8DA6D40F821
:102FF000083D9568B3F90070B3F9026001F096F8E6
:103000002B682046002198470546204616F02AFBEB
:1030100068B3044607E001A801F088F8204616F0DE
:10302000ADFC044618B3204600F01CFFB0F9023096
:1030300001909B1B9D42EED1836A1B060BD5B0F914
:103040000030D9F80020DB1B934203F1FF33E2DCB0
:10305000C9F80030DFE7B0F90430D8F80020DB1BF6
:10306000934203F10103A8BFC8F80030D3E703B0CF
:10307000BDE8F0832DE9F04F83B088469A460546B7
:10308000914600F0EFFEC26D02AED2F808B046F8ED
:10309000080DFFF769FF0446304601F047F8DBF8FA
:1030A0000030012128469847DBF80030032106460E
:1030B00028469847DBF80030074600212846984705
:1030C0004445834609D14E4507D1574505D10C9B50
:1030D000984202D103B0BDE8F08F2846C8EB040443
:1030E00016F0C0FA05460028F4D04FF000080C9BFB
:1030F000C9EB0606C7EB0A07C3EB0B0BC1460BE097
:10310000B3F5007F11D001A801F010F8284616F0A1
:1031100035FC05460028DDD0284600F0A3FE836A72
:10312000019003F42073802BEAD1CCB9836A1A068C
:103130000BD49B05E7D508F1010308FB04615A464F
:103140002846984617F050FDDDE709FB14715A46F2
:10315000284609F1010917F047FD019B9B6AE8E742
:1031600028462246214617F00BFE0198DEE700BFF5
:1031700070B586B0064600F075FE034606A89C6E44
:1031800040F8183DDD6E00F0D1FF14B90DB906B05E
:1031900070BD304601A9FFF75DFE6CB9002DF6D079
:1031A000BDF90A202846BDF90630BDF90810D21A2B
:1031B00017F074FC06B070BDBDF90A202046BDF9B9
:1031C000081017F06BFCBDF90E20BDF90A6020460F
:1031D000BDF90C30BDF90810921B591A01320131AA
:1031E00018F046F9002DD2D0DAE700BF2DE9F04300
:1031F000456887B00446284616F0CEFB074600F027
:1032000031FE034606A85E6E40F8143DD3F84880B0
:10321000D3F8809000F08AFF23680E3B232B3FD821
:10322000DFE803F035463E3E3E3E12123E123E3E81
:103230003E3E3E3E18243E3E2B3E3E3E3E3E3E3E01
:103240003E3E3E3E3E3E3E30204615F075FE07B007
:10325000BDE8F083E368002BF9D0B9F1000F3BD053
:103260004D4539D0484617F05DFFF0E72146384616
:1032700015F02AF907B0BDE8F083C4F80C8007B058
:10328000BDE8F0830023E36007B0BDE8F083E368A6
:103290005A68002A04DD1B68092B1DD00A2B1FD099
:1032A000002ED1D020466760B04707B0BDE8F0835C
:1032B0006FF07043984504D040460FF0D9F901F003
:1032C00087FF002EC3D002AF94E80F0087E80F00FD
:1032D00038460395B047BAE7284617F08FFFB6E7A0
:1032E000284617F0D3FFB2E70A2838B514D00D28C6
:1032F000044610D005F0F8FF114B20461B68DB692F
:103300001B6898470F4B1B680BB120469847BDE8D8
:1033100038400BF0FFBA38BD094C05F0E5FF05F069
:10332000E3FF2368DB695D7E0BF0F4FA23689A8C77
:10333000198C2A4459849A84BDE838400BF0EABAC3
:103340003010022090FF0620204B70B51E6805F05B
:10335000CBFF1F4C002530460FF08AF90BF0DAFA4C
:103360001C4B1E6805F0C0FF30460FF0BBF90BF098
:10337000D1FA05F0B9FF012223681A760BF0CAFAD8
:1033800005F0B2FF23689D850BF0C4FA05F0ACFF91
:1033900023685D850BF0BEFA05F0A6FF28460FF006
:1033A000D3F90BF0B7FA0C4B1D6805F09DFF2368AD
:1033B00005B1DD610BF0AEFA05F096FF236800223F
:1033C0009A76BDE870400BF0A5BA00BF38F9062028
:1033D000301002202C10022028100220014B83E81C
:1033E00003007047A8F80620014B83E803007047EC
:1033F000B0F80620014B83E803007047B8F80620B8
:10340000014B83E803007047C8F806202DE9F04F10
:103410005C4E8DB03368DA69B3F92250D469B4F8E0
:103420000CB0834500F29780E1898142C0F093801F
:103430002168CBEB000B08914FF0FF310A91BBF1F3
:10344000FF3F00F0828092F81880A27CB3F92A1026
:10345000B3F9249018FB02F3084607911F4694F82D
:1034600010A00FF071F9D6F800E008994346DEF895
:1034700038C05246099007FB0B10DEF81CE00B9792
:10348000012704904946CDF814C0284694F812C08C
:103490000297CDF80CC09EF81BC0DFF8E8B0CDF85D
:1034A00004C09EF81AE0CDF800E00EF011FA0A9F71
:1034B0007B1C25D0079941F002000FF045F9DBF89D
:1034C00000100B9A43460898D1F838C002FB070059
:1034D000D1F81CE00127CDF814C00490524694F8AE
:1034E00012C0494602972846CDF80CC09EF81BC072
:1034F000CDF804C09EF81AE0CDF800E00EF0E8F92F
:103500003368DFF88080DB695A7E1B7E9A4215D9CA
:10351000079B022B12D083F004000FF015F9D8F8A6
:1035200000302846DB691F7ED97E9A7E5B7E07FBD2
:1035300001910AFB02524B440EF0D2FB9DF824008D
:103540000FF002F93368B3F92250627C15445D84B0
:103550000DB0BDE8F08FA1680029F6D00F88B84201
:10356000F3D3B1F802E08645EFD3C01B4968676822
:1035700080B2089701EB800731F920B0B7F902104B
:103580000A915CE730100220044B1B68DB69DB69A1
:1035900009B11A7C0A60587C704700BF30100220C5
:1035A00002230B80704700BFC3699A898A4202D800
:1035B000DA898A4211D2986818B10388994201D2F7
:1035C0000020704742888A42FAD3C91A436833F808
:1035D0002100C043C0F3C03070470120704700BFD6
:1035E0002DE9F04F3A4D89B02B68DA69B3F92A908A
:1035F000D36943B11A88904202D35988814205D2D7
:103600009B68002BF6D109B0BDE8F08F841AD3F87F
:103610000480484608EBC40696F802B00FF094F810
:103620008246286818F834204FF0010EC769D0F898
:1036300038C0B0F92410B0F922003B7E0790CDF8D5
:1036400014C07068CDF80CB00490CDF808E097F87D
:103650001BE00798CDF804E0BF7E00970EF038F924
:103660002B68DA69537E177EBB4223D9B9F1020F6A
:1036700007931FD092F81BB003F09EFD814603F024
:1036800065FD0AF0FFF8124B18F834E01868079B44
:10369000C169B0F92240CA7EB0F9241020460EFB61
:1036A00002420BFB03130BFB07110EF019FB4846FC
:1036B0000AF0E8F850460FF047F82B687178D8699F
:1036C0005A8C807E00FB01225A8409B0BDE8F08F3D
:1036D00030100220114B1B6870B4DD69EB6943B1F7
:1036E0001A88904202D35C88844205D29B68002BE2
:1036F000F6D1184670BC7047821A5E68AC7E06EB45
:10370000C2035B7813FB04F00029F3D016F83230C3
:1037100014FB03F370BC0B60704700BF3010022035
:1037200001230B80704700BFC06950B103888B42F2
:1037300002D843888B4203D280680028F6D17047B4
:10374000012070472DE9F047244F3D68002D3FDDF3
:10375000234EC5EB4515DFF88C804FF0000A346826
:10376000D8F8009004EB85050C340C35A4F108035F
:10377000742249461846FCF7F2FD221F2063A0631D
:1037800044F80CAC6263E4607C34A542EED10024C2
:10379000254603E082B13A68954213DA32F014FC10
:1037A000336801351A5919197C349042F2D1043129
:1037B000C8F80010BDE8F08708600431C8F80010B0
:1037C000BDE8F08719460431C8F80010BDE8F0875D
:1037D000034BDFF810801968E9E700BF50100220A2
:1037E00048FC062030100220F8B5184F184B384618
:1037F000184E40F80C3F0CF0BDFC3468C4EB441488
:10380000A400204600F04CF9134B224600211B680F
:10381000386098474FF0FF33736032F0DBFB33685A
:10382000002B0FDD0024254603E062B133689D4282
:1038300008DA32F0C9FB3B6801351A5923447C345D
:103840009042F2D1F8BD1860F8BD00BF48FC0620D8
:103850007DFD020850100220A412022009B908467A
:1038600070472DE9F0410E46054605F03DFD05F097
:103870003BFD304619F0A6FE04460BF04BF824B38E
:10388000174FFA697B6B013203EBC401FA6113F83D
:103890003420013203F83420D1F8048008F1080004
:1038A000C5B1104B324629461B689847D8F800101E
:1038B0007A6B0B4D12F83130012B03D9E86908B14E
:1038C0000138E861013B02F831300BF023F8204663
:1038D000BDE8F081044B324629461B689847E5E76E
:1038E00098FE0620A0120220A412022000B9704700
:1038F00010B5044605F0F8FC204619F063FE0446B6
:103900000BF008F8204610BDF8B5054605F0ECFCB4
:1039100025B900240AF0FEFF2046F8BD05F0E4FCBE
:10392000284619F04FFE04460AF0F4FF002CF0D0B0
:10393000144E2A46144F0021F069736B013003EBDB
:10394000C405F06113F83400013003F834006D68E9
:103950003B6805F1080098472968726B12F831300E
:10396000012B01D9F06930B9013B02F831300AF07E
:10397000D1FF2046F8BD0138013BF06102F831303B
:10398000F5E700BF98FE0620A412022021F00301F3
:10399000014B83E803007047D0F8062000B9704758
:1039A00070B50D4C054605F09FFCEE00636B33448B
:1039B0005968486819F024F86368626B0021606AEE
:1039C000013316446360706002F835106562BDE82B
:1039D00070400AF09FBF00BF98FE062028B1034A3E
:1039E000D36B036003B15860D063704798FE062024
:1039F000F8B5054605F078FC2C68B4B10E4E05F01C
:103A000073FCE700736B3B445968486818F0F8FF93
:103A10007368726B0020716A0133174473607960B8
:103A200002F8340074620AF075FF00232B60BDE8D1
:103A3000F8400AF06FBF00BF98FE062000292BDD7A
:103A40002DE9F04700258A46041F144FA94605F0CA
:103A50004BFC54F8046F0135B6B105F045FC7B6BA7
:103A60004FEAC60843445968486818F0C9FF7B68A4
:103A7000796B7A6A013388447B60C8F8042001F8C6
:103A800036907E620AF046FFC4F800900AF042FFCA
:103A9000AA45DCD1BDE8F087704700BF98FE06203C
:103AA000F8B58B4E044696F82830002B2FD00334FF
:103AB000356CF26B24F003040434A54238BF25466C
:103AC00062B152F8043C14469D4204D114E054F80B
:103AD000043C9D4210D02468002CF8D1F368B46BEC
:103AE0001C4454F8041C611A0B68002B68D14B6805
:103AF0009D426FDD002408E023680BB161685960C6
:103B0000616801B10B60A24256D02046F8BD714BEE
:103B100001219A6886F8281058680AB982089A60C4
:103B20005A27102220254FF0400E3762802732643A
:103B30004FF48072B5644FF400751968C6F850E010
:103B40004FF4806EB7654FF4006732664FF48052D1
:103B5000B5664FF40055A1F11403C6F870E0B767DD
:103B60004FF4804EC6F880204FF40047C6F88850C6
:103B70004FF480324FF400350344C6F890E04FF420
:103B8000802EC6F898704FF40027C6F8A0200222B5
:103B9000C6F8A8500125B1637363C6F8B0E032617E
:103BA000F060C6F8B8705D607562756018F028FF47
:103BB00026F014FD35637AE723682046F363F8BDE9
:103BC00000202EF0E1FB54F8041C611A0B68002B56
:103BD00090D18CE7581BD6F8B8703D4A041DBB4203
:103BE0000C4472D2D2F8B070BB426CD2D2F8A8703A
:103BF000BB4266D2D2F8A070BB4260D2D2F89870B5
:103C00009F425AD9D2F89070BB4254D2D2F88870F1
:103C1000BB424ED2D2F88070BB4248D2926F9342E0
:103C200043D2376F2A4ABB423DD2976EBB4238D24D
:103C3000176EBB4233D2976DBB422ED2176DBB427B
:103C400029D2976CBB4224D2126C93420CD2F268F8
:103C50007369521B2B44F260736110B944F8045C21
:103C600053E718F0CDFEF9E700223768D1F808E0F5
:103C7000FF1ACB683760BEF1000F01D0CEF80430D8
:103C800013B1C3F800E0E2E706EBC202C2F844E079
:103C9000DDE70122E9E70222E7E70322E5E7042264
:103CA000E3E70522E1E70622DFE70722DDE7082256
:103CB000DBE70922D9E70A22D7E70B22D5E70C2256
:103CC000D3E70D22D1E70E22CFE70F22CDE700BFC9
:103CD00098FE0620D0F80620F8B54A4C94F8283013
:103CE000002B3DD0D4F8BC30464A3BBBD2F8B430B0
:103CF00023BBD2F8AC300BBBD2F8A430F3B9D2F866
:103D00009C30DBB9D2F89430C3B9D2F88C30ABB95F
:103D1000D2F8843093B9D36F83B9536F73B9E36E1C
:103D200063B9536E53B9D36D43B9536D33B9D36C83
:103D300023B9536C13B96FF00B00F8BD9B68002BCF
:103D4000F9D0002201E09B6843B1596810469142C6
:103D500001D90A4608469B68002BF4D10C38F8BDFF
:103D6000294B01219A6884F8281058680AB98208FA
:103D70009A605A2610222025402726628026226437
:103D80004FF48072A5644FF40075196827654FF4ED
:103D90008067A6654FF4006622664FF48052A566E0
:103DA0004FF40055A1F114032767A6674FF480472D
:103DB000C4F880204FF40046C4F888504FF4803295
:103DC0004FF400350344C4F890704FF48027C4F8D2
:103DD00098604FF40026C4F8A0200222C4F8A8502E
:103DE0000125A16363632261E060C4F8B070C4F888
:103DF000B8605D606562656018F002FE26F0EEFB5B
:103E000025636FE798FE0620D0F8062090B10A4A95
:103E10001368D16870B45569A3F10C049668CB1A85
:103E200024EAE4724C1905610460466183604260D3
:103E3000C16070BC704700BF98FE062030B1044BD3
:103E40005B6B03EBC000436858680C38704700BFD9
:103E500098FE0620024A936901339361704700BFC0
:103E600098FE0620084AD169536B013110B4D16124
:103E700003EBC00413F83020013203F830206068EF
:103E80005DF8044B0830704798FE062009B90846D3
:103E900070472DE9F8438846064605F025FA404666
:103EA00019F090FB05460AF035FD002D66D0002E76
:103EB00064D0344CF700636B3B445B685B68A3F1F0
:103EC0000C008045A8BF804605F00EFA636BE169DF
:103ED000424613F8350003EBC508023103EB070C2B
:103EE0000130DFF8A4E003F83500D8F80480E16180
:103EF00013F8361008F10800013103F83610DCF829
:103F00000490DEF8003009F108019847D8F8001055
:103F1000636B13F83120012A03D9E06908B1013835
:103F2000E061013A03F83120D9F8001013F831208C
:103F3000012A06D9E069DFF84CE010B10138CEF86B
:103F40001C00013A03F8312005F0CEF9636B3B44C5
:103F50005968486818F054FD6368626B0020616A14
:103F6000013317446360796002F8360066620AF034
:103F7000D1FC0AF0CFFC2846BDE8F8832846BDE80E
:103F8000F88300BF98FE0620A0120220F8B5584C16
:103F900005F0AAF994F82830002B57D0D4F8BC309B
:103FA000534A9BBBD2F8B43083BBD2F8AC306BBB66
:103FB000D2F8A43053BBD2F89C303BBBD2F894303B
:103FC00023BBD2F88C300BBBD2F88430F3B9D36F5B
:103FD000E3B9536FD3B9E36EC3B9536EB3B9D36DBD
:103FE000A3B9536D93B9D36C83B9536C73B96FF0A4
:103FF0000B034049DA1781FB0313C2EB6313246AF6
:1040000004FB03F40AF086FC2046F8BD9B68002BF5
:10401000F5D0002201E09B6843B1596810469142F7
:1040200001D90A4608469B68002BF4D10C38B0F53C
:10403000800F0346DDD8226A2E4B02FB00F0A3FB63
:1040400000235C090AF066FC2046F8BD2A4B0121DA
:104050009A6884F8281058680AB982089A605A2623
:104060001022202540272662802622644FF4807289
:10407000A5644FF40075196827654FF48067A6653D
:104080004FF4006622664FF48052A5664FF4005547
:10409000A1F114032767A6674FF48047C4F8802076
:1040A0004FF40046C4F888504FF480324FF4003586
:1040B0000344C4F890704FF48027C4F898604FF41C
:1040C0000026C4F8A0200222C4F8A8500125A1634C
:1040D00063632261E060C4F8B070C4F8B8605D60EA
:1040E0006562656018F08CFC26F078FA256355E768
:1040F00098FE06201F85EB51D0F80620102807D91E
:10410000054B5A685208904228BF10469860704785
:104110001020014B98607047D0F80620024A93693E
:10412000013B9361704700BF98FE062003680B4A6D
:1041300030B4044653F8085C506B10F83530012B4E
:1041400003D9D16909B10139D1610022013B00F8DD
:1041500035301046226030BC704700BF98FE062004
:10416000034B5B6B03EBC00040680830704700BF37
:1041700098FE062050F8080C704700BFA8B32DE940
:10418000F041044682B0084682BB154602AE204686
:10419000FFF768FE0346078846F8080D3046D3F857
:1041A0000480FFF7C3FF791C40468900FFF76EFECD
:1041B000804660B3FFF756FE034602A840F8043D70
:1041C00043F82750FFF7B2FF2046FFF74BFE0346A8
:1041D00030461A88C3F80480013200931A80FFF732
:1041E000A5FF002002B0BDE8F08170471146FFF73F
:1041F00035FB05460028C9D12046FFF733FE02AB48
:1042000043F8080D1846FFF791FF0120EAE728461A
:10421000FFF7C4FB0120E5E70820FFF775BB00BFEF
:1042200000B9704730B583B00546FFF71BFE436801
:1042300000903BB96846FFF779FF2846FFF7AEFBD1
:1042400003B030BD1846FFF70DFE009B01901B88A0
:104250005BB1002400E0019800EB84000134FFF71B
:10426000C7FB009B1B88A342F5DC01A8FFF75EFF9C
:1042700000980430FFF7BCFB009B00221A80D9E7AE
:1042800030B583B00C46FFF7EDFD03880090A342E4
:1042900001D9456825B96846FFF748FF03B030BD2E
:1042A00005F022F82846A500FFF7DCFD0190284420
:1042B000FFF79EFB009B1A88013A92B2A2421A8035
:1042C00007DD019B121B291D920058191944FCF7A8
:1042D00046F801A8FFF72AFF0AF01CFB6846FFF723
:1042E00025FF03B030BD00BF10B582B018B9044639
:1042F000204602B010BDFFF7B5FD02AB048843F8BD
:10430000040D1846FFF712FF204602B010BD00BF93
:1043100010B582B018B90446204602B010BD0C4654
:10432000FFF7A0FD038800909C4206D30024684656
:10433000FFF7FCFE204602B010BD406808B90446F5
:10434000F5E7FFF78FFD02AB50F8244043F8040D6A
:104350001846FFF7EBFEEAE710B582B008B30C464B
:10436000FFF780FD038800909C4206D30024684636
:10437000FFF7DCFE204602B010BD40680028F5D0F3
:10438000FFF770FD02AB50F8244043F8040D1846C7
:10439000FFF7CCFE002CE9D02046FFF763FD044672
:1043A000E5E70446204602B010BD00BF70B584B0FA
:1043B0000446104615460E46FFF7A6FA039068B36A
:1043C000204604ACFFF74EFD3146009000F02CF87B
:1043D00001900398FFF746FD124B54F80C1D2A4636
:1043E0001B68029098472046FFF7A0FE02A8FFF73F
:1043F0009DFE3146039A009800F034F848B90398BE
:10440000FFF730FD04466846FFF790FE204604B0F3
:1044100070BD03A80024FFF7EBFAF4E7044620463A
:1044200004B070BDA01202200388994201D300207D
:10443000704740680028FBD010B582B00C46FFF7EB
:1044400011FD02AB50F8244043F8040D1846FFF765
:104450006DFE24B12046FFF705FD02B010BD00201F
:10446000FBE700BF03888B4201D9406808B90120EF
:104470007047F0B583B00C461546FFF7F3FC02AE6B
:10448000074600EB840046F8047DFFF7B1FA47F8D1
:1044900024503046FFF74AFE002003B0F0BD00BFB5
:1044A00070B50D46044604F06DFF00222B46C1B2E4
:1044B0002046BDE8704000F001B800BFB0F1004FE9
:1044C0002DE9F04346D0002851DB00254D1B4FF06D
:1044D000000EEDB20AB1013DEDB275B36C1EAA42F9
:1044E000274F4FF03108DFF89CC0E4B21ED057F8D8
:1044F000246090FBF6F1C9B20A2901F1010906FB1B
:1045000011001AD824B9BEF1000F01D05FFA89F169
:104510000A2901F1300115D01D686E1C1E6029703A
:104520005CB125466C1EAA42E4B2E0D119684E1C6B
:104530001E609CF800600E70D9E71B6800221A709C
:10454000BDE8F08319682C464D1C1D60254681F896
:104550000080E7E71C684FF0010E4D1E2D2104EB93
:104560000E066FF00040EDB21E602170B2E71C68CD
:1045700001252D26404267191F602670A6E700BF5F
:10458000B04708085CFF062010B584B00C46064B07
:10459000114601AA009020460193CDF80CD01CF0E2
:1045A000DFFF04B010BD00BFD54C00082DE9F04F6F
:1045B000BC4DA5B00E469A462D6824AC0DF1700C8A
:1045C0000DF16C0EE96B1546B74F1AAA0B6819A9C5
:1045D00044F8300D21A806930DF15E03CDF804C018
:1045E000CDF800E023942197DDF8B8B000F07AFB15
:1045F00040B10120AB4B069A1B68DB6B1A6025B0FB
:10460000BDE8F08F04F070FE02F0D6FDA54A199BBC
:10461000116803FB0AF31A9ACC6C02FB0AF2096DCB
:1046200034190A9069181FA807940891ADF87E10F4
:104630000139ADF87C40B3FBFBF3B2FBFBF2234442
:104640000A44013BADF88220ADF8803017F046FBFC
:1046500000286FD0BBF1000F5B464FF00004B8BFDD
:104660000BF101035B10099319E014DB022B12DC40
:104670001B9921A800F05EFC1C981A9C019021A8AF
:104680000094199B089ACDF80CB00799CDF808A0B2
:1046900021F002FE044617F0B3F900284BD01C9B12
:1046A000002BE2D1BDF85E30013B1F2BF3D801A2F5
:1046B00052F823F09B4A00089746000897460008E6
:1046C0009B4A00089746000897460008974600084E
:1046D0009B4A00089746000897460008974600083E
:1046E0009746000897460008974600089746000836
:1046F0007D4900089746000897460008974600083D
:104700009746000897460008974600089746000815
:104710005B4800089746000897460008974600083F
:1047200097460008974600089746000897460008F5
:104730004547000804460A9809F0A4F80AF0EAF888
:10474000204657E71A9B0022199903FB0AF30C91A4
:104750001E9293FBFBF39342109340F33C82013B88
:104760000B934FF0FF330E930B4643F31A03DDF820
:104770002480D9469E00D0440024C1450AD9D044A3
:104780000134C845FBD305E000F0BCFB013C002828
:1047900040F0B081631C1EAA4FF00003314621A8EF
:1047A000F2D1D9440123C14500F24182D9440133F9
:1047B000C845FBD20E9A119302FB03F212921E9A85
:1047C00010460E9A013200F01B82089B0B9A13448C
:1047D00019460F93119B5D4613960646013B099CB3
:1047E0000C9A0B441593079B0D930023511C02E078
:1047F0000133994225D05444D71AAC42F8D33178CA
:104800000133B2785D44707806EB8306A54242EA34
:10481000014343EA002000F20E8201225D4401328E
:10482000AC42FBD214920DF05DFF149A0D98159BCB
:1048300002440F990D92013A0DF052FA7A1E002FA0
:10484000D3D10B9B129A10991344139E8B420B9356
:1048500080F29481002B8EDA90E11A9B0022199944
:1048600003FB0AF30C911E9293FBFBF3934210930C
:1048700040F3A981013B0B934FF0FF330E930B469E
:1048800003EB4303DDF82480D946DB001F335B11C3
:104890009E00D0440024C8450ED2D0440134C845FF
:1048A000FBD309E030100220D54C000800F02AFBB1
:1048B000013C002840F01E81002C4FF000031EAA8E
:1048C000314621A8F2DAD9440123C14500F2AB8177
:1048D000D9440133C845FBD20E9A119302FB03F26F
:1048E00012921E9A10460E9A013200F08181089BA6
:1048F0000B9A134419460F93119B5D461396064677
:10490000013B099C0C9A0B441593079B0D930023C4
:10491000511C01E0994226D05444D71A0133AC42CD
:10492000F8D332785D44B17803EB43037078AC423E
:1049300041EA02421E4442EA0020C0F09C8101226A
:104940005D440132AC42FBD214920DF0CBFE149ABE
:104950000D98159B02440F990D92013A0DF0C0F984
:104960007A1E002FD3D10B9B129A139E9B180B9388
:1049700000F10481109A93428BDBFFE01A9B002226
:10498000199903FB0AF30C911E9293FBFBF39342DC
:10499000109340F31081013B0B934FF0FF330E93C4
:1049A0000B461B01DDF82480D9461F335B119E00A6
:1049B000D0440024C1450AD9D0440134C845FBD3B2
:1049C00005E000F09FFA013C002840F09380621C53
:1049D0004FF000031EAA314621A8F2D1D944012389
:1049E000C845C0F01C81D9440133C845FBD20E9A9A
:1049F000119302FB03F214920E9A01321E9900F0F9
:104A00000781089B0B9A13440F9324AA119B099CBE
:104A10005D461046013B0F9A13440C9A1593079B71
:104A20000D93034643F81C1D12930023511C02E012
:104A30000133994228D05444D71AAC42F8D3129883
:104A40005D4413930BF07AFB0DF03EFC1D9A139B13
:104A5000AC42014602EB43031D93C0F0F9800122F2
:104A60005D440132AC42FBD2084613920DF03AFE8F
:104A7000139A0D98159B02440F990D92013A0DF06F
:104A80002FF97A1E002FD0D10B9B149A9B180B93F1
:104A900074D4109A93428BDB70E01B9921A800F02C
:104AA00049FA1A9B0022199903FB0AF30C91BDF8ED
:104AB0005E101E920B9193FBFBF8904573DD4FF057
:104AC000FF3308F1FF390D930B46013B1F2B68D8CC
:104AD000DFE803F06167675B67676756676767676B
:104AE0006767671267676767676767126767676700
:104AF000676767120124CEE50C9BDF001F377F112B
:104B0000BF00099D5E4655440024AE4209D9554474
:104B10000134B542FBD304E000F0F4F9013C002875
:104B2000E8D1611C4FF000031EAA394621A8F3D139
:104B30005E44AE4200F2998001235E440133AE42EE
:104B4000FBD90D9A194602FB03FE01321E984AD08A
:104B5000089B03EB09020B9B0124F144029104938F
:104B6000CDF804B00C9BCDF800A00799039424F075
:104B700011FEC14502DAB9F1000FC4DA00248AE55A
:104B80000C9BDF1C27F00307BBE70C9B9F001F3724
:104B90007F11BF00B5E70C9B03F11F077F11BF001A
:104BA000AFE70027ADE7A5D00123C8F10008914683
:104BB0000D930B4689E79DD05B420B921093012326
:104BC0000E930B46EDE695D05B420B9210930123BA
:104BD0000E930B4654E68DD05B420B92109301234B
:104BE0000E930B46C1E5089A4A44D31A5A1CB2E701
:104BF0000B99089A0A44D31A01330F9319467BE69E
:104C00000B99089A0A44D31A01330F931946E1E528
:104C1000089A0B980244D31A01330F93F5E60E9AC3
:104C200011931492E9E60E9A1193129259E60E9A94
:104C300011931292C3E50DF055FD119B012B27D165
:104C40000F990D980CF0F2FF0D9B01330D93F5E5D4
:104C50000DF048FD119B012B1CD10F990D980CF004
:104C6000E5FF0D9B01330D930BE70121DDF834E0E7
:104C70000B46724669E70DF035FD119B012B0BD1F8
:104C80000F990D980CF0D2FF0D9B01330D9367E641
:104C90000122CBE50122ECE6012259E600B583B002
:104CA00000F1120302A840F8043D0BF04DFA03B0E6
:104CB0005DF804FB00B583B000F1160302A840F8CC
:104CC000043D0BF041FA0028B8BF404203B05DF844
:104CD00004FB00BF10B40468104623445DF8044B85
:104CE0000B6070472DE9F043044683B000208946ED
:104CF00090461E466060034625686946A0683622D5
:104D0000A847362803D0012003B0BDE8F0836368CC
:104D10006846363363600BF011FA009B054668461F
:104D20000C3300930BF010FA074668460BF00CFAB0
:104D3000C9F8000068460BF007FA009BC8F80000AD
:104D40006846023300930BF0F9F9308068460BF0A7
:104D5000FBF9009B0B9A0C331060684600930BF034
:104D6000F3F93388013B1F2BCDD801A252F823F071
:104D70003B4E0008074D0008074D0008334E000861
:104D8000074D0008074D0008074D0008F14D0008C9
:104D9000074D0008074D0008074D0008074D0008A3
:104DA000074D0008074D0008074D0008434E000856
:104DB000074D0008074D0008074D0008074D000883
:104DC000074D0008074D0008074D0008434E000836
:104DD000074D0008074D0008074D0008074D000863
:104DE000074D0008074D0008074D0008434E000816
:104DF0004FF480730A9A136008B10A9B18600B9BEA
:104E00001B68032B21D060682838384460600A9BF7
:104E10001B68B3F5807F3FF776AF44F642539D425F
:104E20007FF471AF0B9B1868032894BF002001200A
:104E30006AE710230A9A1360DEE702230A9A1360D6
:104E4000DAE700230A9A1360D9E72668102263681C
:104E500001A9A068B047102805D06368A3F1380005
:104E600038446060D3E7636801A8254E103363605F
:104E70000BF06AF9306001A80BF066F9706001A8C8
:104E80000BF062F900223368F260DA07B06007D4F1
:104E900001225B081146013213F0010FF9D0F160D5
:104EA00001225B089646013213F00101F9D17368C3
:104EB000C6F818E0DA07316107D401225B08114611
:104EC000013213F0010FF9D0316101225B089646DF
:104ED000013213F00101F9D1C307C6F81CE071617A
:104EE00006D4012340081A460133C107FAD572617E
:104EF000012340081A460133C107FAD43262ACE7F5
:104F0000DCF8062070B504460D464BB943681146DF
:104F100026682A46A068B047854205D0012070BDAA
:104F200000210B464160F2E7636800201D44656084
:104F300070BD00BF00292DDD2DE9F0410F4682B084
:104F400004460025DFF8508013E06368019A0433BB
:104F5000D8F800606360537811781B02907843EAB8
:104F6000014318430CF06CFC46F825000135AF42B4
:104F70000CD00422266863680DEB0201A068B047DC
:104F80000428E2D0012002B0BDE8F081002002B088
:104F9000BDE8F08100207047A01F072010B504462F
:104FA00004F0A2F9044804EB840400EB8404247A9E
:104FB00009F0B0FC204610BDD4FC06202DE9F04FCE
:104FC0000E4683B0804604F08FF9B400304602F0FC
:104FD000FFF8DFF81891A3198246D9F8002009EBF1
:104FE00083035F68002A32D0BAF1000F3BD1A519C4
:104FF000012309EB85056869C5F804802B72002838
:1050000064D1B8F1000F1CD034444FF0010AD8F835
:105010000820334609EB8404D8F80410D8F80000BF
:10502000CDF800A02569AA1AE568691A08F0B0FA57
:105030006061304602F0CCF800284CD1237A002B76
:105040003BD109F067FC384603B0BDE8F08F264A33
:105050004846012340F82C2FC9F800300BF08AF89D
:10506000BAF1000FC3D05046344408F023FB834606
:105070004FF07F4009EB840408F0F8FB012500F0B5
:10508000A7F80022D8F80000114600F04FFED8F82B
:10509000003050465A88198808F062FC5846C4F817
:1050A0000480257208F006FB304602F091F80028D3
:1050B000C4D0294608F064FCC3E7606908F034FAFC
:1050C00009F028FC384603B0BDE8F08F07F0CAFEAF
:1050D000C5F814A095E7514608F052FC09F01AFCF7
:1050E000384603B0BDE8F08F75FE0208D4FC0620F8
:1050F0002DE9F04114460646884604F0F5F82046AE
:1051000002F066F8E8B9A7001B4D3B1905EB8303D5
:10511000DA68B24206D11B69434503D1BDE8F041CC
:1051200009F0F8BB3B1905EB83035869D0B93C443F
:1051300005EB8404E660C4F81080BDE8F04109F096
:10514000E9BB0D4B04EB840403EB840463689A68A9
:105150005968C2EB0802711A08F0F2FBBDE8F04191
:1051600009F0D8BB5B689A685968C2EB0802711AEB
:1051700007F0A8FEDBE700BFD4FC0620C3B2CAB22A
:105180009A1A92B210B414B2002C1EDBC1F307229B
:10519000C0F307239B1A9BB21AB2002A12DB090C38
:1051A00002FB02F2C1EB104104FB042089B20CB2F5
:1051B000002C01DA49420CB2A1B25DF8044B01FBAC
:1051C000010070475B421AB2E9E7524214B2DDE7D0
:1051D00000212DE9F041084682B002F0ABF8184FEB
:1051E00004F082F804200DF0AFFA164B43F6FF7678
:1051F0003D46DB68804634466846DA6C1B6D1744D2
:1052000016441D441C44ADF80070ADF80460ADF8C0
:105210000250ADF8064016F061FD48B12346324613
:10522000294638460CF05CFD16F0EAFB0028F5D163
:1052300040460DF089FA09F06DFB02B0BDE8F0813F
:1052400001C0FFFF241002202DE9F04182B0164674
:105250001C4607460D4604F047F804200DF074FA8A
:10526000134B80466846DB68DA6C1B6D17441644A6
:105270001D441C44ADF80070ADF80460ADF8025058
:10528000ADF8064016F02AFD48B1234632462946BD
:1052900038460CF025FD16F0B3FB0028F5D140464A
:1052A0000DF052FA09F036FB02B0BDE8F08100BF04
:1052B000241002202DE9F04182B0B0F90070B0F95D
:1052C0000260B0F90450B0F9064004F00DF8042073
:1052D0000DF03AFA134B80466846DB68DA6C1B6DBA
:1052E000174415441E441C44ADF80070ADF804503A
:1052F000ADF80260ADF8064016F0F0FC48B1234668
:105300002A46314638460CF0EBFC16F079FB0028B3
:10531000F5D140460DF018FA09F0FCFA02B0BDE8EC
:10532000F08100BF241002202DE9F047044682B02E
:105330000D461646002B37D09A46009651460B9BD9
:10534000204626680A9AB047074618B9384602B080
:10535000BDE8F08714F000F9618A8046384613F002
:10536000A3F9013D384616F01DF9404616F01AF92A
:10537000002D1DDD4FF0000903E016F013F9013D8B
:1053800016D054F81C6F0023CDF8009041462046FB
:105390001A46B04706460028EFD1384613F018FEEB
:1053A000304602B0BDE8F08714F0E4F88246C4E766
:1053B00040461D2115F0EAFDBAF1FF3FC6D003F0CB
:1053C00093FF14F05DF960B9BA4502D0384615F084
:1053D00015FF09F09FFA384602B0BDE8F0870028B3
:1053E000F4D0FEF7BDFE80698742F8D1F1E700BF37
:1053F00080B582B000AF7860054B1B68002B03D0EE
:10540000034B1B687868984700BF0837BD4680BDCE
:1054100058FF0620012B17DC2DE9F04107461C2020
:1054200090460D461E46FEF73BFB0446D0B16DB1DB
:10543000056100232046A661A4F81480E76023607C
:105440006360A360BDE8F08100207047074B53F80C
:1054500026200AB9EDE71A461368002BFBD1136921
:105460002361E6E70020BDE8F08100BF7CFF062055
:10547000012B3BDC2DE9F84381461C2090460F466A
:105480001E46FEF70DFB054600287FD0414A002F3F
:1054900031D00023DFF804E152F8264003609EF883
:1054A000001007618E428661A0F81480C0F80C904D
:1054B0004360836002DB731C8EF80030002C5DD0EB
:1054C00021464C68002CFBD1D9F80000CB681B6842
:1054D00083422CDD09680029F8D148B92E4B1636D5
:1054E00028461A6842F82650BDE8F8830020704725
:1054F0002846BDE8F88352F82610002930D0084627
:1055000000E018460368002BFBD10069DFF88CE04F
:105510002B6028619EF80000AE618642A5F81480D9
:10552000C5F80C906B60AB60CBDB0C46C3E70AD0D0
:105530004B6843B31D606B608D4214BF0B46002364
:105540004D602B60C9E7B8F1010FF1D104E0DC68D0
:10555000194623688342EBDB0B68002BF7D1E7E7A2
:10556000DFF838E001609EF8003086619E42A0F8C6
:105570001480C0F80C9041608160D6DA42F8265061
:10558000D9F80000A9E742F82650D5E70020BDE889
:10559000F88300BF7CFF06203010022074FF062035
:1055A000FEF71CBA00283DD070B48469012C03DDDD
:1055B0000123184670BC70471F4B1A78944221DAB9
:1055C0001E4D55F824300BB932E013465A68002AB4
:1055D000FBD1C268116802E01B68002BE8D0DA68D2
:1055E00012689142F8DB10D05A68F2B11060426044
:1055F000984214BF1A4600225860002302601846E1
:1056000070BC7047621C1A70DAE7828A012AEBD1FB
:1056100004E0D668134632689142E5DC1A68002A35
:10562000F7D1E1E701231846704745F82400DFE78A
:1056300045F82400BDE700BF74FF06207CFF06206C
:1056400000284DD02DE9F041DFF89CE0254F9EF871
:105650000060BC4601E028463DB384690568012C22
:10566000F9DCB44201DB661CF6B257F824300BB902
:1056700033E013465A68002AFBD1C268116802E081
:105680001B68002BE7D0DA6812688A42F8DC10D079
:105690005A68A2B110604260984214BF1A460022B4
:1056A000586002602846002DD7D18EF80060BDE812
:1056B000F081828A012A0CD05A68002AEAD147F880
:1056C0002400E9E7D2F80C801346D8F800208A427B
:1056D000DEDB1A68002AF5D1DAE74CF82400BAE7D5
:1056E000704700BF7CFF062074FF06200F4A8169C7
:1056F00052F8213098420AD042680AB10368136018
:10570000036803B15A600023036043607047036875
:1057100042F821302BB100225A604268002AEED1B3
:10572000F0E74268002AEAD1EDE700BF7CFF0620DF
:1057300000207047012810DC094B53F8200068B1A5
:10574000C3681B68994204D109E0C3681B688B4297
:1057500004D000680028F8D17047002070477047D7
:105760007CFF062001280EDC084B53F8200058B1BE
:10577000C3681B681BB908E0C3681B6823B10068D5
:105780000028F9D170470020704770477CFF062041
:10579000F0B583B0F8B104460C2016460F46FEF76C
:1057A000B3F8054610B9284603B0F0BD03F09CFDE0
:1057B0002846FEF757FB0A4A034602A85C6040F8F9
:1057C000043D1F815E811A60FEF7B0FC09F0A2F86B
:1057D000284603B0F0BD0546284603B0F0BD00BF23
:1057E000B4B10808F0B5074683B00C200E46154644
:1057F000FEF78AF8044688B103F076FD2046FEF7EE
:1058000031FB084A034602A85F6040F8043D1E8150
:105810005D811A60FEF78AFC09F07CF8204603B02F
:10582000F0BD00BF80BB080800B970472DE9F0410A
:1058300082B01E4615460C460746FEF713FB02AB28
:10584000026843F8040D1846D2F80080FEF76EFC9B
:1058500033462A4621463846C04702B0BDE8F081AB
:1058600000B9704730B583B00446FEF7FBFA026812
:1058700002AB556843F8040D1846FEF757FC204666
:10588000A84703B030BD00BF00B9704730B583B042
:105890000446FEF7E7FA026802AB956843F8040D88
:1058A0001846FEF743FC2046A84703B030BD00BFB2
:1058B0002DE9F843074630F089FBDFF86C90074488
:1058C00030F084FBDFF864803E1A002E22DD00F009
:1058D000A5FDD9F800309E42A8BF1E4603F004FD86
:1058E000D8F80040FEF7B6FAB4B1254609F012F830
:1058F000013DFBD1304630F065FB03F0F5FC013C87
:10590000FBD1FEF70BFC09F005F830F05FFB3E1A07
:10591000002EDCDCBDE8F883304630F053FBFEF7A8
:10592000FDFB08F0F7FFF0E7581002204CFC0620C2
:1059300070B50D461446064603F0D6FC054B3046BE
:105940001B685D849C84FBF793FDBDE8704008F004
:10595000E1BF00BF3010022038B54C1E0AD4054606
:10596000013C03F0C1FC2846FBF782FD08F0D2FFA2
:10597000631CF5D138BD00BF2DE9F04F4A4D83B00F
:10598000044603F0B1FC01F039FC2B680646B3F97C
:10599000228001F093FC2B681FFA80F99A8CC9EBE6
:1059A000020212B29A84217800294FD0B6B22F4653
:1059B00047F6FF7120460AF0E7F901468346204684
:1059C0000AF0A2F929688B8D03F00303012B5AD04A
:1059D000022B5CD01FFA80FA4FF0000E4B8C0AF1BC
:1059E000FF3CB1F92420CEEB0303ADF80220013ACD
:1059F0009BB2B0186A460FFA83FE6344ADF8060006
:105A00002046A1F822E05946ADF800E0ADF8043098
:105A100009F0CAF92B682046BDF8022059469A843D
:105A200008F04EFE235C04440A2B1BD00D2B19D02A
:105A3000BDF800003B688244A3F822A022781AB186
:105A400062780134002AB3D1B3F92420998D9144AE
:105A500021F00302A3F824909A8508F05BFF03B0BD
:105A6000BDE8F08F2B689A8D02F00302013A012AFB
:105A700016D8A3F8228022780A2AE0D19A8C3244E0
:105A80009A842278DBE71FFA80FEF246A6E7002818
:105A900003461FFA80FAB8BF431CC3F34F0E9DE7BD
:105AA0001A8C5A84E7E700BF3010022070B50E460A
:105AB0001546044603F018FC054B1B685E849D8464
:105AC00014B12046FFF758FFBDE8704008F022BF30
:105AD0003010022020B3F0B50C4683B005461646C0
