:020000040800F2
:10000000782E0720D9020008D90E030835FC020813
:10001000B50E0308E1AE0208AF4803080000000077
:1000200000000000000000000000000015020008B1
:1000300021B802080000000071020008751E0308C4
:10004000F3020008F3020008F3020008F3020008BC
:10005000F3020008F3020008F3020008F3020008AC
:10006000F3020008F3020008F3020008F30200089C
:10007000F3020008F3020008F3020008F30200088C
:10008000F3020008F3020008F3020008F30200087C
:10009000F3020008F3020008F3020008F30200086C
:1000A000F3020008F3020008F3020008F30200085C
:1000B000F3020008B51F0308F3020008F30200086A
:1000C000F3020008F3020008F3020008F30200083C
:1000D000F30200087D260308F3020008F30200087B
:1000E000F3020008F3020008F3020008F30200081C
:1000F000F3020008F3020008F3020008F30200080C
:10010000F3020008F3020008F3020008F3020008FB
:10011000F3020008F3020008F3020008F3020008EB
:10012000F3020008F302000821B70208F3020008F6
:10013000F3020008F3020008F3020008F3020008CB
:10014000F3020008F3020008F3020008DD0E0308C2
:10015000F3020008F30200082DB70208F3020008BA
:10016000F3020008F3020008F3020008F30200089B
:10017000F3020008F3020008F30200080000000088
:10018000F3020008F3020008F3020008F30200087B
:10019000F3020008F3020008F3020008F30200086B
:1001A000A9050308F3020008F3020008F30200089F
:1001B000F3020008F3020008F3020008F30200084B
:1001C000F3020008F302000800000000F302000838
:1001D000F3020008F3020008F3020008F30200082B
:1001E000F3020008F3020008F3020008F30200081B
:1001F000F3020008F3020008DFF80CD000F0BCFAAC
:10020000004800478DBB0308782E072072B6704760
:1002100062B670472D4B19680868B0E8F04F80F35C
:100220000988BFF36F8F4FF0000080F3118870478B
:100230000000000008480068006880F308884FF05C
:10024000000080F3148862B661B6BFF34F8FBFF32E
:100250006F8F00DF00BF00BF08ED00E0DFF80C008B
:10026000016841F470010160704700BF88ED00E053
:10027000EFF30980BFF36F8F144B1A681EF0100F55
:1002800008BF20ED108A20E9F04F106009B44FF04C
:10029000500072B680F31188BFF34F8FBFF36F8F9A
:1002A00062B647F067F94FF0000080F3118809BC8F
:1002B00019680868B0E8F04F1EF0100F08BFB0ECE6
:1002C000108A80F30988BFF36F8F7047A400022063
:1002D000EFF3058070470000064880470648004756
:1002E000FEE7FEE7FEE7FEE7FEE7FEE7FEE7FEE7E6
:1002F000FEE7FEE7611F0308F90100082DE9F05F42
:100300000546002092469B46884606468146402484
:100310001BE0284641464746224600F0D6F85346A1
:100320005A46C01A914110D311461846224600F091
:10033000BDF82D1A67EB01084F4622460120002127
:1003400000F0B4F817EB00094E41201EA4F101049F
:10035000DFDC484631462A464346BDE8F09F10B5EB
:10036000441A0346944209D28418114403E011F858
:10037000013D04F8013D521EF9D210BD40EA0104CE
:10038000A40703D009E010C9121F10C3042AFAD22F
:1003900003E011F8014B03F8014B521EF9D210BDD6
:1003A000D2B201E000F8012B491EFBD270470022B7
:1003B000F6E710B513460A4604461946FFF7F0FF64
:1003C000204610BD421E12F8013F002BFBD111F850
:1003D000013B02F8013B002BF9D1704730B50546CF
:1003E0002A460B4612F8010B13F8014B08B1A04244
:1003F000F8D01CB1002802D06D1CF1E7284630BDB2
:1004000010B5044604E00B7800F8013B03B1491C29
:10041000521EF8D2204610BD421C10F8011B0029C4
:10042000FBD1801A704710B5002200E0521C835C9B
:100430008C5CA34201D1002BF8D1D8B2E1B2401AB2
:1004400010BD30B504460020034600E05B1C93421B
:1004500003D2E05CCD5C401BF8D030BD034611F800
:10046000012B00F8012B002AF9D118467047A0E8AB
:10047000004FF0C040F804DB01B5AFF30080BDE8E9
:10048000024001C10020704700F12C080C4658F8CA
:10049000040DAFF3008058F8040D8546200008BF16
:1004A000012038E9F00018E9004F7047202A04DBEA
:1004B000203A00FA02F1002070479140C2F1200377
:1004C00020FA03F3194390407047202A04DB203AB6
:1004D00021FA02F00021704721FA02F3D040C2F164
:1004E0002002914008431946704700000FB40023D2
:1004F00000B589B00CA900910B996FF00042CB6058
:100500001E4B06931E4B07930423CDE901321D4A6F
:10051000089202466B46002000F0DAF909B05DF857
:1005200014FB70B586B006464FF0FF300091CDE960
:100530000101002015460C4604903246694604A885
:10054000FFF7D4FF02460498211825B108B10846E8
:1005500000E020462860049800280DD0002A02DD23
:100560000098884208D0081B0094CDE90104324667
:10057000694604A8FFF7BAFF06B070BD090B000872
:10058000270B00089D0700082DE9FE4F81EA0304B0
:1005900004F0004421F0004100944FF0000B23F0E0
:1005A000004350EA01045ED052EA03045BD0C3F377
:1005B0000A54C1F30A552C44A4F2F3340194A0FB6D
:1005C0000254C1F3130141F48011C3F3130343F444
:1005D000801301FB024400FB034E840A970A44EA9D
:1005E000815447EA8357A4FB076802958D0A05FBEF
:1005F00007854FEA932C04FB0C542705029D4FEA14
:10060000065847EA1637B5EB08056EEB070C870E60
:10061000920E47EA811742EA8312A7FB0201B6EB6A
:100620000B0164EB00042B0D43EA0C335E1844EB22
:100630001C50DA465146E7FB0201C5F313044FEAAA
:100640000B3343EA14534FEA0432019C43EA060396
:10065000A4F10C040294009CCDE900B400F083FAEC
:1006600003B0BDE8F08F00200146F9E72DE9F04D19
:1006700081EA030404F0004B21F0004514464FF0DA
:10068000000A23F0004150EA050220D054EA01029A
:100690001DD0C5F30A570246C5F31303C1F3130077
:1006A000C1F30A5640F4801543F48013A7EB060803
:1006B000101BD64608F2FD3873EB050002D308F193
:1006C000010801E092185B41B8F1000F03DA002045
:1006D0000146BDE8F08D00204FF4801106468446A7
:1006E0000EE0171B73EB050705D3121B63EB050325
:1006F00006434CEA010C49084FEA300092185B416E
:1007000050EA0107EDD152EA030012D082EA040058
:1007100083EA0501084305D0101BAB4106D2012234
:10072000002306E000224FF0004302E06FF00102D8
:1007300053101AEB06004CEB085110EB0A0041EB8A
:100740000B01BDE8F04D00F0FFB970B521F000439A
:1007500003430CD0C1F30A550024D5EB040564EB28
:100760000403D617AD1AB34102DB0020014670BD69
:10077000201841EB025170BD064C074D06E0E068C1
:1007800040F0010394E8070098471034AC42F6D3D8
:10079000FFF736FD0868070828680708C0B24FF45D
:1007A000F05100F02FBA00002DE9FF4F087883B018
:1007B0009946FF2805D0491C2D2804D0002400208C
:1007C00008E000200BE00124F9E700EB800003EBD8
:1007D0004000491C0B78FF2BF7D104B140420023A5
:1007E0000293147819461D462D2C01D02B2C04D1D0
:1007F000521C2D2C13D000240294AA461478FF2CEE
:100800000FD00A25A3FB057801FB05814FF0000CF2
:1008100003FB0C11521CE3194AEB0101EEE7012422
:10082000EAE7814453EA010002D019F5C87F06DAED
:1008300003980021C0E9001107B0BDE8F08F002542
:10084000AE4E2F46DFF8B882184600F0EFF9CDE93A
:100850000001B9F1000002DAC9F1000400E0044629
:100860000023A74A1AEB030B42EB045A12E0E007FD
:1008700007D02A46334638464146FFF785FE0746ED
:1008800088462A46334610461946FFF77DFE054640
:100890000E466410002CEAD1DDE90001B9F1000F29
:1008A0005A46534606DAFFF7E1FE3A464346FFF75B
:1008B000DDFE05E0FFF768FE3A464346FFF764FEBB
:1008C000029A0AB181F00041039AC2E90001B3E73C
:1008D0002DE9FF4F1F468DB0D7E901464FF0FF3895
:1008E0002E2045464FF000090B90B9696D1C0E98FB
:1008F0008847396A824688470028F6D1BAF1FF3F17
:100900000AD024F4D064002E11DDBAF12B0F08D0E8
:10091000BAF12D0F0BD102E0404611B08DE744F43F
:100920008064B9696D1C0E9888478246761E6946B8
:10093000600501D52D2000E02B208DF8000001F18D
:10094000010B0DF1200809E0B9696D1C0E9888476C
:1009500082460F9844F40074761E0560002E02DD76
:10096000BAF1300FF0D00B998A453ED144F08004A3
:1009700006E00F99681CA9F1010944F400740860AD
:10098000B9696D1C761E0E98884782463028F0D0D3
:100990002BE00B998A4505D1200603D444F080044E
:1009A000761E18E0504635F0F7FC08B30DF1130140
:1009B000761E44F400748B4508D2AAF130000BF87F
:1009C000010B200607D5A9F1010003E0200602D49F
:1009D00009F101008146A00502D50F99681C086045
:1009E000B9696D1C0E9888478246002ED1DC53E011
:1009F000002E51DDBAF1650F02D0BAF1450F4BD18F
:100A0000A00549D5B9696D1C24F44074761E0E9872
:100A100088478246002E0CDD2B2804D0BAF12D0F1A
:100A200007D144F48074B9696D1C0E9888478246DA
:100A3000761EE00501D52D2100E02B2108F8011BD1
:100A4000CDF82C8021E00DF12901761E44F40074CC
:100A500088450CD2AAF1300010F0FF0088F80000A1
:100A600002D10B99884509D908F1010806E0E00593
:100A700001D5244801E042F20F708146B9696D1C2E
:100A80000E98884782460F980560002E04DD504678
:100A900035F082FC0028D6D1F9690E988847FF20EE
:100AA0008BF8000088F800000020069007904B4665
:100AB0006A4608A906A8FFF777FEA00502D46FF0E2
:100AC00001002AE714F0240F0AD0E00714D1DDE971
:100AD00006123868031D3B600068C0E900120BE095
:100AE000DDE9060100F0AEF80146E00704D1386800
:100AF000021D3A600068016028460EE700001440BD
:100B00000000F03FF1D8FFFF426842B1016811F8E0
:100B1000013B23B1521EC0E9001218467047012163
:100B2000C160881E704742685AB1C368016843B902
:100B300083688B4205D0491E521CC0E90012002078
:100B400070474FF0FF30704710B5141E73F100046A
:100B500008DA401C41F1000192185B411A4301D1AF
:100B600020F0010010BD2DE9F04D92469B4611B1D9
:100B7000B1FA81F202E0B0FA80F220329046FFF73B
:100B800095FC04460F4640EA0A0041EA0B01534631
:100B90005A46084313D0114653EA010019D0C8F150
:100BA00040025046FFF791FC05460E465046594616
:100BB0004246FFF77BFC084305D0012004E02046B5
:100BC0003946BDE8F08D0020054346EAE0762C4327
:100BD00037430A986305E40AA0EB08000022FD0AE7
:100BE00044EA47540A3002D500200146E9E70105EE
:100BF00010196941DDE9084500196941BDE8F04D6A
:100C0000A2E700007F2801D9002208E0064A02EB93
:100C10005002C007127800D1120902F00F02012021
:100C2000904008407047000050FD06080EB540F2A5
:100C3000334202920022CDE900221346FFF793FFD0
:100C400003B000BD01F0004330B421F0004150EA90
:100C5000010206D00A0DA2F56072C1F31301002A49
:100C600002DC30BC00207047440F44EAC104C100DC
:100C7000E01830BC00EBC250AFF300800029A8BFE1
:100C80007047401C490008BF20F00100704710B4B5
:100C9000B0FA80FC00FA0CF050EA010404BF10BC6A
:100CA000704749B1CCF1200421FA04F411FA0CF197
:100CB00018BF012121430843A3EB0C01CB1D4FEAD0
:100CC00000614FEA102042BF002010BC704700EBCB
:100CD000C35010440029A4BF10BC7047401C4900F9
:100CE00008BF20F0010010BC704770B58C1810F8D8
:100CF000015B15F0070301D110F8013B2A1106D161
:100D000010F8012B03E010F8016B01F8016B5B1E7A
:100D1000F9D12B0705D40023521E0DD401F8013B55
:100D2000FAE710F8013BCB1A921C03E013F8015BC1
:100D300001F8015B521EF9D5A142D8D3002070BD45
:100D400070B5456882B004460146284612F0D0F8D6
:100D500068B123680F2B59D00BDD282B45D0B3F594
:100D6000107F3CD0112B49D0204612F0D5FD02B0A7
:100D700070BD0B2B20D00E2BF6D1E3681A68596892
:100D80000D2A53D0202A31D1002928464FF48071F2
:100D90007DDD12F09DF9284602F064F902AB846A09
:100DA00043F8040D184602F0C1FAA207DFD5284621
:100DB000012114F053FCDAE7284602AD02F052F9A3
:100DC00003466830019301F02BFF55F8040D032111
:100DD0006C3001F04BFF284602F0A8FAC4E7324B12
:100DE000214628461B689847C1E7E368002BBBD122
:100DF00028464FF4807112F059F8B5E72B4B1B6869
:100E0000002BB4D0214628469847B0E7284602F088
:100E100029F9034602A840F8043D5B6E1C6802F005
:100E200085FA002CA3D02846A047A0E70029DDDDE5
:100E30004FF48071284612F04BF902AC284602F0BC
:100E400011F9866A44F8040D204602F06FFAB107E2
:100E500003D50121284614F001FC4FF48071284687
:100E600012F024F8284602F0FDF8034620461E8EB4
:100E70009C6A019302F05AFA304609F097FEA307E4
:100E80007FF575AF2846022114F0E8FB6FE712F0FA
:100E90000DF8284602F0E6F8034602A89C6A1E8E6A
:100EA00040F8043DE6E700BF1803022030EB0620BF
:100EB0002DE9F04F87B0804689469246129E9B46A8
:100EC000109F4C251A4C07F041FA01965B4600979B
:100ED0005246494640460395029412F021FC0646CC
:100EE00000B302F0BFF810221199124F059012F0D2
:100EF000E7F90DF1180E3D1D5EF804CD0FCD0CF194
:100F000034040FC40FCD0FC495E80F0084E80F0020
:100F10007B6B7046CCF8643002F008FA7B6B30468D
:100F20005B6898470AF00AFC304607B0BDE8F08FCE
:100F3000410D0008180302202DE9F04FB0F90A60B6
:100F400087B0B0F90C708B4685691644B0F90E80F5
:100F50001F44B0F910A00446B0F908904C3507F0D2
:100F6000F5F9DFF8CCC04FF0000E4246CDF800B0E6
:100F70003946304603955346CDF808C0CDF804E015
:100F800012F0CEFB804628B90AF0D8FB404607B0E5
:100F9000BDE8F08F02F066F8244F49460DF11809BC
:100FA000102205903E1D12F08BF959F804ED0FCE7A
:100FB0000EF134050FC50FCE0FC596E80F0085E87A
:100FC0000F007B6B4846CEF8643002F0AFF97B6BC4
:100FD00040465B6898470AF0B1FB656807F0B6F9D0
:100FE000404602F03FF8034604A89C6E0493059423
:100FF00002F09CF9294648460BF08EFF0028C3D02A
:10100000059B9C4209D0404602F02CF8059A034605
:1010100004A89A66049302F089F9404613F0E0FEB2
:101020000AF08CFB404607B0BDE8F08F18030220A1
:10103000410D0008974A816843682DE9F041044654
:1010400088B052F82160122B40D8DFE803F0B03F9F
:101050003F3F3F0A973F3F3F3F3F3F3F3F3F3F3F7D
:101060004300F569002D40F0B580371F57F8040F95
:1010700009F098FB04F1140120690EC928445B1B98
:10108000521B2944013504F06DF9022DEED162693D
:101090003169E3690191911CF76813442069A269E1
:1010A0005B1028440097521B04F02CF8E169626938
:1010B000B0698B1E1144A2690190491020697669BC
:1010C000521B01312844009604F01CF8002008B09F
:1010D000BDE8F081006801F0C5FF876E0490002F25
:1010E00000F0D080A368B0F95C80002B00F0C880CD
:1010F000032B14BF0023022300EB8303406D08ACD5
:101100001D6C09F07FFB284609F04CFB06A805F092
:1011100081F8B28BBDF8181006A8BDF81C30114438
:10112000BDF81A509A1ABDF81E30ADF818100235E5
:1011300054F8101D023BADF81C20B1F96020B1F944
:101140005E10ADF81E30ADF81A5008F003FD2046D1
:1011500008AC02F0EBF8022009F010FD384601F06F
:1011600081FF06A9424644F80C0D03F06BFD2046B2
:1011700002F0DCF8002008B0BDE8F081006801F062
:1011800071FF0490206815F0EFFDB8B9049B5D6F06
:1011900005B9DD6E04A802F0C9F8002328462168CD
:1011A0001A4603F01DFC002008B0BDE8F08100687D
:1011B00014F04CFD002008B0BDE8F081A368002BBE
:1011C00064D1049A136F002B14BF6C23682313445B
:1011D0005D68DFE7B268B046C369002703927168B3
:1011E0008269029158F804090095616901902069AB
:1011F0000BF09CF958F8040F09F0D4FAF369A269CE
:1012000021696069D21A1944384404F055F8F36929
:10121000A2692169E069D21A1944C01B04F04CF894
:10122000F369E26961692069D21A1944384404F00B
:10123000E1F8A069F369E269C01B61690137D21A5C
:10124000194404F0D7F8022FD4D1B06809F0AAFAF3
:10125000F16922696569901CE3690A445B1A2944B3
:10126000013A04F03BF9F169A0696569E369821EFE
:10127000401A5B1A2944013004F030F9F56906E799
:10128000012339E704A802F051F81FE7049BDD6E43
:1012900080E700BF1C5E070870B5164604460D4681
:1012A000049A3046194603F04FFB29460246204671
:1012B000BDE8704000F05EB800B9704730B5044634
:1012C00083B00D4607F042F8204601F0CBFE02AB9A
:1012D000456543F8040D184602F028F8204613F03F
:1012E0007FFD0AF02BFA03B030BD00BF38B51346BE
:1012F000002204460D461846114603F04FFB2946CE
:1013000002462046BDE8384000F034B870B582B0DF
:1013100018B90125284602B070BD04460D4607F0F5
:1013200015F8204601F09EFE0346866E68468DE85D
:10133000480001F0FBFF294601A80BF0EDFD002855
:101340000CBF012500250FD0019B9E4209D02046ED
:1013500001F088FE019A034668469A66009301F000
:10136000E5FF204613F03CFD0AF0E8F9284602B0FC
:1013700070BD00BF00B9704770B5054682B00C461D
:10138000164606F0E3FF284601F06CFE022C0190A1
:1013900006D901A801F0CAFF0AF0D0F902B070BD69
:1013A0001A34A4002044043001F03AFC019B284682
:1013B0001C44666013F014FDEBE700BF2DE9F04319
:1013C00004468BB018B920460BB0BDE8F083164632
:1013D0000D461F4600F0D6FC8046204600F0B6FCC5
:1013E000814606F0B3FF05A9204600F07BFEEA0720
:1013F00019D4AB07BDF920004CBF40F202230223F1
:10140000304442460293494643468DE89000FFF738
:101410004FFD0446002111F087FE0AF08FF92046A7
:101420000BB0BDE8F083BDF9242008F1FF30822322
:10143000101A801BE5E700BF10B50523FFF7BEFFBC
:101440000446054A0021FFF751FF2046034914F0E6
:1014500073FA204610BD00BF35C101080DAB02086C
:1014600010B50723FFF7AAFF0446054A0021FFF73E
:101470003DFF2046034914F05FFA204610BD00BF2F
:101480008DC2010825AB020810B50823FFF796FFAF
:101490000446054A0021FFF729FF2046034914F0BE
:1014A0004BFA204610BD00BFF5C4010865AB020829
:1014B0002DE9F047466886B00546304601F0D2FD7A
:1014C000C36D0090D0F88840D0F88070D0F8688064
:1014D000B0F87C90002B64D0D3F800A0684601F0EF
:1014E00025FF14B909E024683CB163682846984791
:1014F0000028F8D006B0BDE8F0872B68172B00F065
:10150000A5801DDC0F2B00F08D807DDC0B2B00F007
:10151000BF800D2B0AD119F0080F07D1EB68DB68EB
:1015200023B11B7A13B1304614F0A4FA3046294691
:1015300011F0DEFC0028DDD0284612F0EDF9D9E7E5
:10154000262B75D02FDC1E2B00F0AE80202BEDD18A
:10155000EC68002CEAD03146606815F0EBFB0028FF
:1015600000F0C080304601F07DFDB0F87C300246CE
:101570000190180740F12D8101A801F0D7FE3146F6
:10158000606815F0C5FB0028D0D0304601F06AFD38
:101590006268034601A80193C3F8802001F0C6FEEB
:1015A000C4E79A469AE72A2B65D0B3F5107FBDD1E0
:1015B00006AC3046D5F80C8001F054FDB0F87C70D4
:1015C00044F8140D204601F0B1FEEB68002B91D0D9
:1015D00098F80830002B00F0AB80380740F1B78056
:1015E000304611F0E1FF07F48873B3F5887F81D1AD
:1015F00007F080039BB2002B7FF47CAF414630465E
:10160000052214F0DDF975E7112B22D0142B8DD1B2
:10161000304601A900F066FD02ABEA6803CB10601A
:10162000516067E7BAF1000F80D03046D0477DE7C0
:10163000EB68022B7FF45EAF272206A9A86841F869
:10164000142D0396049315F0FBFC53E7C5F80C80AA
:1016500050E7EC68304601F005FD01902389012B2D
:1016600005D1B0F87C3043F48073A0F87C3001A839
:1016700001F05CFE5AE7304601F0F4FCEB680090A4
:10168000002B68D0C0F88430684601F04FFE31E787
:10169000304601F0E7FC03467030009301F0C0FAD9
:1016A000684601F043FE41E7EC68012C57D0002E5C
:1016B0003FF420AF06F04AFE304601F0D3FCB0F80C
:1016C0007C30024601901C0706D523F00803304603
:1016D000A2F87C3013F084FB01A801F027FE0AF089
:1016E0002DF807E7304601F0BDFCB0F87C3002462B
:1016F0000190190706D523F008033046A2F87C3084
:1017000013F06EFB01A801F011FE3146206815F0C0
:10171000FFFA00283FF40AAF304601F0A3FC22682C
:10172000034601A80193C3F8802001F0FFFDFDE608
:10173000304601F097FC03462046B3F87C20019325
:1017400022F48072A3F87C2001F0F0FDD2E630464E
:1017500014F090F944E7D0F88430EB6094E7384611
:1017600013F05EFE20B3384614F084F9384613F0C7
:10177000E5F9B0B926B9002F7FF4BCAEEF60B9E649
:1017800006F0E4FD304601F06DFCB0F87C30024616
:101790000190190725D501A801F0C8FD09F0CEFF79
:1017A000E9E72146384611F093FC002EE3D0E7E745
:1017B000404614F0CBF90746304601F053FC03468F
:1017C0006846C3F88070009301F0B0FD002ED2D0BF
:1017D000D6E743F008033046A2F87C3013F000FB54
:1017E000CAE643F008033046A2F87C3013F0F8FA5A
:1017F000D1E700BF2DE9F04F0F46B0F90C108FB0C4
:10180000B0F90A6001EB030BB0F9083085691644A2
:10181000049343686035B0F90E80B0F91090B0F8C9
:1018200012A0059306F092FD4B4C4FF4805E039599
:101830005946009730464B4642460294CDF804E0A4
:1018400011F06EFF054628B909F078FF28460FB061
:10185000BDE8F08FDFF808910EAE01F003FC0499AB
:101860003022069011F02CFD56F8207DCE464FF028
:10187000000807F13404BEE80F000FC4BEE80F00F3
:101880000FC49EE80300189B84E803007B66304683
:10189000D9F8283041F28274A7F87CA0FB65C7F81C
:1018A0008080C7F86C80C7F8888001F03FFD09A9E7
:1018B00028462A4F00F016FCBDF92AE0BDF9281091
:1018C000BDF92C20BDF92E300846521A0194CEEBFA
:1018D000030371460132CDF80C8001330095029765
:1018E00011F01EFFD9F82830044628465B68984757
:1018F000284601F0B7FB034630469C66069301F08C
:1019000015FD284612F07AF906F020FD284601F070
:10191000A9FB034607A81A6F0793089201F006FD7A
:10192000059908A80BF0F8FA38B909F007FF09F093
:1019300005FF28460FB0BDE8F08F284601F092FB66
:10194000089A034607A81A67079301F0EFFC284698
:1019500013F046FAE9E700BFB11400087D2400083F
:10196000500302202DE9F041044690B0006800F0D9
:10197000D5F9B04B6668A3F12C05002808BF1D46B9
:101980001C2E00F2F780DFE816F02200F500F500CB
:10199000F500F5003500F500F500F500F500F5005F
:1019A0005100F500F500FA00F500F500F5000E0114
:1019B000F500F50048014A014C014E01F500F50023
:1019C000F5001D006E69304610B0BDE8F08120685A
:1019D00001F048FB034610A8B3F85A2040F82C3D0C
:1019E00042F00C02A3F85A2001F0A0FC206814F089
:1019F0002DF9E8E72A690026B4F910300192B4F90C
:101A000014701846EA68B4F918503946B4F91C4005
:101A1000ADF81C30009223462A46ADF81E70ADF892
:101A20002050ADF8224003F06DFBCCE723681C2268
:101A300018460892079301F015FB034607A8059383
:101A40001B6D9847064605A801F070FC012E40F377
:101A50002781A9683346626902916868A16901908B
:101A60002F68206900970AF05DFC2769A369374455
:101A7000C6EB0308286808F095FE424639466069BF
:101A800003F01AFC686808F08DFE6069424639462A
:101A9000013003F011FC6B6A022B00F3F4802A6A18
:101AA000964217DA6769012E206907F1020840F3B0
:101AB0002A810244374430444146013A3B4603F010
:101AC0000DFDA069821B3B46EF694146C01B0130FA
:101AD00003F004FD012E40F3138163691E44E7699E
:101AE0002868013F08F05EFE314620693A4603F05F
:101AF00081FC3A463146A06903F07CFCE7696868DE
:101B000008F050FE023F206931463A46013003F0AA
:101B100071FCA0693A463146013803F06BFCEB6971
:101B2000022B40F38280AB6AE769022BA868CCBF26
:101B3000FF1A023F08F036FEEA69022A00F39A8093
:101B40002B6A022B00F38C80286808F02BFEA26918
:101B50002169E06903F0B0FB686808F023FEA26920
:101B60002169E069013A0131013803F0A5FBAF6A50
:101B7000022F61DC0026304610B0BDE8F08104F190
:101B800014012769A8680026ADF81C700EC9ADF8CD
:101B90001E10ADF82020ADF8223008F003FE07A893
:101BA00003F0C8FC0FE7298B2269A3690A44656921
:101BB0005B1AE1692068ADF82030ADF81C20ADF863
:101BC0001E50ADF8221001F04DFA036F0590FBB1E5
:101BD000022008F0D3FF059AB2F87C30C3F3C003AB
:101BE0000E3302EB8303986808F0DCFD059B586B0D
:101BF00008F008FE059B186F01F034FA059B07A951
:101C00000690B3F95A2003F01DF806A801F08EFBE8
:101C100005A8002601F08AFBD5E6AE6AD3E6EE6998
:101C2000D1E62E6ACFE66E6ACDE62B6A022B8BDDFB
:101C300079E700BF60050220D4F81C800026A26965
:101C40002169A868951E8C1C08F0ACFDC7EB080143
:101C50002A462046A8F10203013103F03FFCB2E618
:101C6000A0693B46EF693146821EC01B013003F07C
:101C700035FC69E720693B46314602440230013AAF
:101C800003F02CFC5CE7A86808F08CFD636938461B
:101C90006F6A991C42463B44013B03F01FFC19E765
:101CA000286808F07FFD2269EB69114660691A44D3
:101CB000013A03F001FBA369E9691A466069591A00
:101CC000013103F0F9FA676920690137394603F0F9
:101CD0001FFB3946A06903F01BFB686808F062FD32
:101CE00020693946013003F013FBA06939460138F9
:101CF00003F00EFB2769A3690237A3F10208B9E6D6
:101D000066690236EBE60244434602304146013A38
:101D1000474603F0E3FBA069821ED4E610B50446F3
:101D200082B080B106F012FB204601F09BF902ABB5
:101D3000B0F87C4043F8040D1846C4F3C00401F029
:101D4000F5FA09F0FBFC204602B010BD30B50446A0
:101D500083B0A0B106F0FAFA204601F083F902AD93
:101D6000C26D03460021204645F8043D93681B6878
:101D700098470446284601F0D9FA09F0DFFC2046CE
:101D800003B030BD10B5044686B010B9204606B089
:101D900010BD06F0DBFA204601A900F0A3F92046A9
:101DA00001F060F906ABB0F9544043F8180D18463D
:101DB00001F0BCFA0CB9BDF9044009F0BFFC2046A3
:101DC00006B010BD00B970472DE9F043054685B057
:101DD00006F0BCFA284601F045F90190284627F0A4
:101DE0006BF9019BB3F87C20120634D4986901F09A
:101DF00039F983690290B0F90060B0F90270002BE4
:101E00004AD0B0F90480B0F9069002A801F08EFA29
:101E1000019B03F17402DC6993E8030082E803008C
:101E2000B3F87C2042F08002A3F87C2034B91AE099
:101E3000039B03A81C6A01F079FAA4B1204601F0C3
:101E400011F90390204612F02BF90728F0D1204613
:101E500012F0C6FFECE701A801F068FA09F06EFC89
:101E600005B0BDE8F08301A801F060FA3A463146BA
:101E7000284613F02FFBC7EB0902C6EB08012846E2
:101E80000132013113F09CFF284600F0B9FA09F045
:101E900055FC05B0BDE8F0830CF05AFF0FFA80F84E
:101EA0000CF09CFF0FFA80F9AFE700BF00B9704754
:101EB000F0B5054683B006F049FA284601F0D2F89D
:101EC0000090284627F0B0F8009BB3F87C2052061B
:101ED00006D5684601F02AFA09F030FC03B0F0BDDF
:101EE000B3F906201846B3F90260961B00F084F996
:101EF000009B0136D96A03F174020F6800EB4707B3
:101F000093E80300023782E80300986E12F024FE83
:101F1000009BD86E12F020FE009BB3F87C20DC6999
:101F200042F04002A3F87C2034B912E0019B01A8E2
:101F30001C6A01F0FBF964B1204601F093F80190AE
:101F4000204612F0ADF80828F0D1204612F048FFE4
:101F5000ECE7684601F0EAF9BA1B0021284613F0C5
:101F6000EDFB284600F04CFA09F0E8FB03B0F0BDA9
:101F700000B9704710B5044606F0E8F9204627F08E
:101F80009BF8204627F050F8BDE8104009F0D6BB7A
:101F90002DE9F041044684B00E4606F0D7F924B985
:101FA00009F0CCFB04B0BDE8F081204601F05AF8FE
:101FB000458EC36D05F0200503909F68ADB245B115
:101FC000B0F954502DB9406B04F0D0F9039B851C37
:101FD00000E003465E6303A801F0A8F93B68012115
:101FE000204698473B6806460321204698473B68B1
:101FF00080460021204698470746204600F000FA18
:102000004346324629462046009700F07BF9204699
:1020100012F0E6FE09F092FB04B0BDE8F08100BFCB
:1020200000B9704730B5044683B00D4606F08EF90E
:10203000204601F017F80346026F684600930192AC
:1020400001F074F9294601A80AF066FF18B909F0F1
:1020500075FB03B030BD204601F004F8019A034639
:1020600068461A67009301F061F9204612F0B8FE45
:1020700009F064FB03B030BD00B9704730B50446C9
:1020800083B00D4606F062F9204600F0EBFFB0F990
:102090005A300190AB4204D0A0F85A50204612F0BA
:1020A0009FFE01A801F042F909F048FB03B030BDE2
:1020B00000B9704730B5044683B00D4606F046F9C6
:1020C000204600F0CFFF02AB056443F8040D4564E1
:1020D000184601F02BF9204612F082FE09F02EFB83
:1020E00003B030BD2DE9F04F89B007460D4600F032
:1020F000B9FF034601213846DA6D059394682368D9
:102100009847236803218046384698472368022170
:1021100083463846984723680021824638469847C8
:102120008146059814F01AFA0646059814F01EFA2E
:1021300003460598448E04F02004A4B2B4B1B0F96B
:102140005420B0F95840002A4AD091B2C06E0C44D5
:10215000A4B280B103910292019312F02BFA019B79
:102160000FFA80FC029A80B2039905E021462246CC
:10217000C06E0028EED184461FFA89FE013E013B65
:102180000FFA88F8CBEB060674440EF1FF3ECAEB5B
:10219000030336B2044471446B812A8005A8A5F874
:1021A00002C0EC8069822E812E82A5F80480A5F8F9
:1021B0000C80A5F80E9001F0B9F808AAB5F9104006
:1021C0003846B5F90C3006A942F8044D069300F0E4
:1021D0004BF8069A079BAA812B8209B0BDE8F08FC5
:1021E000406B019304F0C2F8821C019B059891B2E8
:1021F00012B20C44A4B2BBE708B5438E03F020032F
:102200009BB24BB10246B0F9540000B108BD506B0F
:1022100004F0ACF8023008BD184608BD70B58AB0AD
:102220000C46064600F01EFF0AABC26D43F8280DAF
:102230001846956801F07AF80196032C05D8DFE876
:1022400004F00F0C0902172302936B6801A898474A
:102250000AB070BD15230293F7E716230293F4E743
:1022600018230293F1E700BF2DE9F04383B08846BD
:102270000446914600F0F6FE034602A8DA6D40F8E7
:10228000083D9568B3F90070B3F9026001F04EF8AB
:102290002B682046002198470546204611F0D2FEC3
:1022A00068B3044607E001A801F040F8204612F0A8
:1022B00043F8044618B3204600F0D4FEB0F90230CB
:1022C00001909B1B9D42EED1836A1B060BD5B0F992
:1022D0000030D9F80020DB1B934203F1FF33E2DC2E
:1022E000C9F80030DFE7B0F90430D8F80020DB1B74
:1022F000934203F10103A8BFC8F80030D3E703B04D
:10230000BDE8F0832DE9F04F83B088469A46054634
:10231000914600F0A7FEC26D02AED2F808B046F8B2
:10232000080DFFF769FF0446304600F0FFFFDBF8B9
:102330000030012128469847DBF80030032106468B
:1023400028469847DBF80030074600212846984782
:102350004445834609D14E4507D1574505D10C9BCD
:10236000984202D103B0BDE8F08F2846C8EB0404C0
:1023700011F068FE05460028F4D04FF000080C9BD1
:10238000C9EB0606C7EB0A07C3EB0B0BC1460BE014
:10239000B3F5007F11D001A800F0C8FF284611F066
:1023A000CBFF05460028DDD0284600F05BFE836A9F
:1023B000019003F42073802BEAD1CCB9836A1A060A
:1023C0000BD49B05E7D508F1010308FB04615A46CD
:1023D0002846984613F0E6F8DDE709FB14715A46E3
:1023E000284609F1010913F0DDF8019B9B6AE8E733
:1023F00028462246214613F0A1F90198DEE700BFE6
:1024000070B586B0064600F02DFE034606A89C6E09
:1024100040F8183DDD6E00F089FF14B90DB906B023
:1024200070BD304601A9FFF75DFE6CB9002DF6D0F6
:10243000BDF90A202846BDF90630BDF90810D21AA8
:1024400013F00AF806B070BDBDF90A202046BDF9A8
:10245000081013F001F8BDF90E20BDF90A602046FE
:10246000BDF90C30BDF90810921B591A0132013127
:1024700013F0A6FC002DD2D0DAE700BF2DE9F0431F
:10248000456887B00446284611F064FF074600F00F
:10249000E9FD034606A85E6E40F8143DD3F8488077
:1024A000D3F8809000F042FF23680E3B232B3FD8E7
:1024B000DFE803F035463E3E3E3E12123E123E3EFF
:1024C0003E3E3E3E18243E3E2B3E3E3E3E3E3E3E7F
:1024D0003E3E3E3E3E3E3E30204611F01DFA07B0E5
:1024E000BDE8F083E368002BF9D0B9F1000F3BD0D1
:1024F0004D4539D0484613F0BDFAF0E7214638463D
:1025000010F0F6FC07B0BDE8F083C4F80C8007B00B
:10251000BDE8F0830023E36007B0BDE8F083E36823
:102520005A68002A04DD1B68092B1DD00A2B1FD016
:10253000002ED1D020466760B04707B0BDE8F083D9
:102540006FF07043984504D040460CF04FFF01F007
:102550001BFF002EC3D002AF94E80F0087E80F00E6
:1025600038460395B047BAE7284613F0EFFAB6E7C6
:10257000284613F033FBB2E7204B70B51E6805F018
:10258000E5FE1F4C002530460CF030FF09F0D6F870
:102590001C4B1E6805F0DAFE30460CF061FF09F0B6
:1025A000CDF805F0D3FE012223681A7609F0C6F8AB
:1025B00005F0CCFE23689D8509F0C0F805F0C6FE45
:1025C00023685D8509F0BAF805F0C0FE28460CF0D6
:1025D00079FF09F0B3F80C4B1D6805F0B7FE2368CE
:1025E00005B1DD6109F0AAF805F0B0FE236800220C
:1025F0009A76BDE8704009F0A1B800BFB0E80620A7
:10260000E4020220E0020220DC020220014B83E807
:102610000300704720E80620014B83E80300704761
:1026200028E80620014B83E80300704730E80620C5
:10263000014B83E80300704740E806202DE9F04F86
:102640005C4E8DB03368DA69B3F92250D469B4F8BE
:102650000CB0834500F29780E1898142C0F09380FD
:102660002168CBEB000B08914FF0FF310A91BBF1D1
:10267000FF3F00F0828092F81880A27CB3F92A1004
:10268000B3F9249018FB02F3084607911F4694F80B
:1026900010A00CF017FFD6F800E008994346DEF8CA
:1026A00038C05246099007FB0B10DEF81CE00B9770
:1026B000012704904946CDF814C0284694F812C06A
:1026C0000297CDF80CC09EF81BC0DFF8E8B0CDF83B
:1026D00004C09EF81AE0CDF800E00BF0B7FF0A9FA7
:1026E0007B1C25D0079941F002000CF0EBFEDBF8D3
:1026F00000100B9A43460898D1F838C002FB070037
:10270000D1F81CE00127CDF814C00490524694F88B
:1027100012C0494602972846CDF80CC09EF81BC04F
:10272000CDF804C09EF81AE0CDF800E00BF08EFF63
:102730003368DFF88080DB695A7E1B7E9A4215D9A8
:10274000079B022B12D083F004000CF0BBFED8F8DC
:1027500000302846DB691F7ED97E9A7E5B7E07FBB0
:1027600001910AFB02524B440CF078F99DF82400C9
:102770000CF0A8FE3368B3F92250627C15445D84E6
:102780000DB0BDE8F08FA1680029F6D00F88B842DF
:10279000F3D3B1F802E08645EFD3C01B4968676800
:1027A00080B2089701EB800731F920B0B7F9021029
:1027B0000A915CE7E4020220044B1B68DB69DB69D9
:1027C00009B11A7C0A60587C704700BFE4020220FD
:1027D00002230B80704700BFC3699A898A4202D8DE
:1027E000DA898A4211D2986818B10388994201D2D5
:1027F0000020704742888A42FAD3C91A436833F8E6
:102800002100C043C0F3C03070470120704700BFB3
:102810002DE9F04F3A4D89B02B68DA69B3F92A9067
:10282000D36943B11A88904202D35988814205D2B4
:102830009B68002BF6D109B0BDE8F08F841AD3F85D
:102840000480484608EBC40696F802B00CF03AFE45
:102850008246286818F834204FF0010EC769D0F876
:1028600038C0B0F92410B0F922003B7E0790CDF8B3
:1028700014C07068CDF80CB00490CDF808E097F85B
:102880001BE00798CDF804E0BF7E00970BF0DEFE5A
:102890002B68DA69537E177EBB4223D9B9F1020F48
:1028A00007931FD092F81BB003F0B8FC814603F0E9
:1028B0007FFC07F077FF124B18F834E01868079B8D
:1028C000C169B0F92240CA7EB0F9241020460EFB3F
:1028D00002420BFB03130BFB07110CF0BFF8484639
:1028E00007F060FF50460CF0EDFD2B687178D86959
:1028F0005A8C807E00FB01225A8409B0BDE8F08F1B
:10290000E4020220114B1B6870B4DD69EB6943B12E
:102910001A88904202D35C88844205D29B68002BBF
:10292000F6D1184670BC7047821A5E68AC7E06EB22
:10293000C2035B7813FB04F00029F3D016F83230A1
:1029400014FB03F370BC0B60704700BFE40202206D
:1029500001230B80704700BFC06950B103888B42D0
:1029600002D843888B4203D280680028F6D1704792
:10297000012070472DE9F047244F3D68002D3FDDD1
:10298000234EC5EB4515DFF88C804FF0000A346804
:10299000D8F8009004EB85050C340C35A4F108033D
:1029A000742249461846FDF7DAFC221F2063A06313
:1029B00044F80CAC6263E4607C34A542EED10024A0
:1029C000254603E082B13A68954213DA29F04EFCBD
:1029D000336801351A5919197C349042F2D1043107
:1029E000C8F80010BDE8F08708600431C8F800108E
:1029F000BDE8F08719460431C8F80010BDE8F0873B
:102A0000034BDFF810801968E9E700BFFC020220E1
:102A1000B8EA0620E4020220F8B5184F184B3846F1
:102A2000184E40F80C3F0AF063FA3468C4EB4414C3
:102A3000A400204600F04CF9134B224600211B68ED
:102A4000386098474FF0FF33736029F015FC336806
:102A5000002B0FDD0024254603E062B133689D4260
:102A600008DA29F003FC3B6801351A5923447C3409
:102A70009042F2D1F8BD1860F8BD00BFB8EA062058
:102A8000597D0208FC0202208004022009B9084690
:102A900070472DE9F0410E46054605F057FC05F05C
:102AA00055FC304614F0AAFD044608F047FE24B356
:102AB000174FFA697B6B013203EBC401FA6113F81B
:102AC0003420013203F83420D1F8048008F10800E2
:102AD000C5B1104B324629461B689847D8F80010FC
:102AE0007A6B0B4D12F83130012B03D9E86908B12C
:102AF0000138E861013B02F8313008F01FFE204642
:102B0000BDE8F081044B324629461B689847E5E74B
:102B100068ED06207C0402208004022000B9704782
:102B200010B5044605F012FC204614F067FD04467B
:102B300008F004FE204610BDF8B5054605F006FC79
:102B400025B9002408F0FAFD2046F8BD05F0FEFB8B
:102B5000284614F053FD044608F0F0FD002CF0D098
:102B6000144E2A46144F0021F069736B013003EBB9
:102B7000C405F06113F83400013003F834006D68C7
:102B80003B6805F1080098472968726B12F83130EC
:102B9000012B01D9F06930B9013B02F8313008F05E
:102BA000CDFD2046F8BD0138013BF06102F831301F
:102BB000F5E700BF68ED06208004022021F0030144
:102BC000014B83E80300704748E8062000B97047CE
:102BD00070B50D4C054605F0B9FBEE00636B334450
:102BE0005968486814F05CFB6368626B0021606A96
:102BF000013316446360706002F835106562BDE809
:102C0000704008F09BBD00BF68ED062028B1034A64
:102C1000D36B036003B15860D063704768ED062042
:102C2000F8B5054605F092FB2C68B4B10E4E05F0E0
:102C30008DFBE700736B3B445968486814F030FB28
:102C40007368726B0020716A013317447360796096
:102C500002F83400746208F071FD00232B60BDE8B7
:102C6000F84008F06BBD00BF68ED062000292BDDA1
:102C70002DE9F04700258A46041F144FA94605F0A8
:102C800065FB54F8046F0135B6B105F05FFB7B6B53
:102C90004FEAC60843445968486814F001FB7B6852
:102CA000796B7A6A013388447B60C8F8042001F8A4
:102CB00036907E6208F042FDC4F8009008F03EFDB8
:102CC000AA45DCD1BDE8F087704700BF68ED06205B
:102CD000F8B58B4E044696F82830002B2FD00334DD
:102CE000356CF26B24F003040434A54238BF25464A
:102CF00062B152F8043C14469D4204D114E054F8E9
:102D0000043C9D4210D02468002CF8D1F368B46BC9
:102D10001C4454F8041C611A0B68002B68D14B68E2
:102D20009D426FDD002408E023680BB161685960A3
:102D3000616801B10B60A24256D02046F8BD714BCC
:102D400001219A6886F8281058680AB982089A60A2
:102D50005A27102220254FF0400E37628027326418
:102D60004FF48072B5644FF400751968C6F850E0EE
:102D70004FF4806EB7654FF4006732664FF48052AF
:102D8000B5664FF40055A1F11403C6F870E0B767BB
:102D90004FF4804EC6F880204FF40047C6F88850A4
:102DA0004FF480324FF400350344C6F890E04FF4FE
:102DB000802EC6F898704FF40027C6F8A020022293
:102DC000C6F8A8500125B1637363C6F8B0E032615C
:102DD000F060C6F8B8705D607562756014F060FAF6
:102DE00020F0B8FD35637AE723682046F363F8BD29
:102DF000002026F041F854F8041C611A0B68002BDF
:102E000090D18CE7581BD6F8B8703D4A041DBB42E0
:102E10000C4472D2D2F8B070BB426CD2D2F8A87017
:102E2000BB4266D2D2F8A070BB4260D2D2F8987092
:102E30009F425AD9D2F89070BB4254D2D2F88870CF
:102E4000BB424ED2D2F88070BB4248D2926F9342BE
:102E500043D2376F2A4ABB423DD2976EBB4238D22B
:102E6000176EBB4233D2976DBB422ED2176DBB4259
:102E700029D2976CBB4224D2126C93420CD2F268D6
:102E80007369521B2B44F260736110B944F8045CFF
:102E900053E714F005FAF9E700223768D1F808E0A3
:102EA000FF1ACB683760BEF1000F01D0CEF80430B6
:102EB00013B1C3F800E0E2E706EBC202C2F844E057
:102EC000DDE70122E9E70222E7E70322E5E7042242
:102ED000E3E70522E1E70622DFE70722DDE7082234
:102EE000DBE70922D9E70A22D7E70B22D5E70C2234
:102EF000D3E70D22D1E70E22CFE70F22CDE700BFA7
:102F000068ED062048E80620F8B54A4C94F82830C9
:102F1000002B3DD0D4F8BC30464A3BBBD2F8B4308D
:102F200023BBD2F8AC300BBBD2F8A430F3B9D2F843
:102F30009C30DBB9D2F89430C3B9D2F88C30ABB93D
:102F4000D2F8843093B9D36F83B9536F73B9E36EFA
:102F500063B9536E53B9D36D43B9536D33B9D36C61
:102F600023B9536C13B96FF00B00F8BD9B68002BAD
:102F7000F9D0002201E09B6843B1596810469142A4
:102F800001D90A4608469B68002BF4D10C38F8BDDD
:102F9000294B01219A6884F8281058680AB98208D8
:102FA0009A605A2610222025402726628026226415
:102FB0004FF48072A5644FF40075196827654FF4CB
:102FC0008067A6654FF4006622664FF48052A566BE
:102FD0004FF40055A1F114032767A6674FF480470B
:102FE000C4F880204FF40046C4F888504FF4803273
:102FF0004FF400350344C4F890704FF48027C4F8B0
:1030000098604FF40026C4F8A0200222C4F8A8500B
:103010000125A16363632261E060C4F8B070C4F865
:10302000B8605D606562656014F03AF920F092FC6A
:1030300025636FE768ED062048E8062030B1044BB1
:103040005B6B03EBC000436858680C38704700BFE7
:1030500068ED0620024A936901339361704700BF0F
:1030600068ED0620084AD169536B013110B4D16173
:1030700003EBC00413F83020013203F830206068FD
:103080005DF8044B0830704768ED062009B9084622
:1030900070472DE9F8438846064605F057F9404643
:1030A00014F0ACFA054608F049FB002D66D0002E5E
:1030B00064D0344CF700636B3B445B685B68A3F1FE
:1030C0000C008045A8BF804605F040F9636BE169BC
:1030D000424613F8350003EBC508023103EB070C39
:1030E0000130DFF8A4E003F83500D8F80480E1618E
:1030F00013F8361008F10800013103F83610DCF837
:103100000490DEF8003009F108019847D8F8001063
:10311000636B13F83120012A03D9E06908B1013843
:10312000E061013A03F83120D9F8001013F831209A
:10313000012A06D9E069DFF84CE010B10138CEF879
:103140001C00013A03F8312005F000F9636B3B44A1
:103150005968486814F0A4F86368626B0020616ADB
:10316000013317446360796002F83600666208F044
:10317000E5FA08F0E3FA2846BDE8F8832846BDE8FA
:10318000F88300BF68ED06207C040220F8B5584C97
:1031900005F0DCF894F82830002B57D0D4F8BC3078
:1031A000534A9BBBD2F8B43083BBD2F8AC306BBB74
:1031B000D2F8A43053BBD2F89C303BBBD2F8943049
:1031C00023BBD2F88C300BBBD2F88430F3B9D36F69
:1031D000E3B9536FD3B9E36EC3B9536EB3B9D36DCB
:1031E000A3B9536D93B9D36C83B9536C73B96FF0B2
:1031F0000B034049DA1781FB0313C2EB6313246A04
:1032000004FB03F408F09AFA2046F8BD9B68002BF3
:10321000F5D0002201E09B6843B159681046914205
:1032200001D90A4608469B68002BF4D10C38B0F54A
:10323000800F0346DDD8226A2E4B02FB00F0A3FB71
:1032400000235C0908F07AFA2046F8BD2A4B0121D8
:103250009A6884F8281058680AB982089A605A2631
:103260001022202540272662802622644FF4807297
:10327000A5644FF40075196827654FF48067A6654B
:103280004FF4006622664FF48052A5664FF4005555
:10329000A1F114032767A6674FF48047C4F8802084
:1032A0004FF40046C4F888504FF480324FF4003594
:1032B0000344C4F890704FF48027C4F898604FF42A
:1032C0000026C4F8A0200222C4F8A8500125A1635A
:1032D00063632261E060C4F8B070C4F8B8605D60F8
:1032E0006562656013F0DCFF20F034FB256355E771
:1032F00068ED06201F85EB5148E80620102807D905
:10330000054B5A685208904228BF10469860704793
:103310001020014B9860704748E80620024A9369E4
:10332000013B9361704700BF68ED062003680B4ABC
:1033300030B4044653F8085C506B10F83530012B5C
:1033400003D9D16909B10139D1610022013B00F8EB
:1033500035301046226030BC704700BF68ED062053
:10336000034B5B6B03EBC00040680830704700BF45
:1033700068ED062050F8080C704700BFA8B32DE98F
:10338000F041044682B0084682BB154602AE204694
:10339000FFF768FE0346078846F8080D3046D3F865
:1033A0000480FFF7C3FF791C40468900FFF76EFEDB
:1033B000804660B3FFF756FE034602A840F8043D7E
:1033C00043F82750FFF7B2FF2046FFF74BFE0346B6
:1033D00030461A88C3F80480013200931A80FFF740
:1033E000A5FF002002B0BDE8F08170471146FFF74D
:1033F0004DFB05460028C9D12046FFF733FE02AB3E
:1034000043F8080D1846FFF791FF0120EAE7284628
:10341000FFF7DCFB0120E5E70820FFF78DBB00BFCD
:1034200000B9704730B583B00546FFF71BFE43680F
:1034300000903BB96846FFF779FF2846FFF7C6FBC7
:1034400003B030BD1846FFF70DFE009B01901B88AE
:103450005BB1002400E0019800EB84000134FFF729
:10346000DFFB009B1B88A342F5DC01A8FFF75EFF92
:1034700000980430FFF7D4FB009B00221A80D9E7A4
:1034800030B583B00C46FFF7EDFD03880090A342F2
:1034900001D9456825B96846FFF748FF03B030BD3C
:1034A00004F054FF2846A500FFF7DCFD01902844F6
:1034B000FFF7B6FB009B1A88013A92B2A2421A802B
:1034C00007DD019B121B291D920058191944FCF7B6
:1034D00046FF01A8FFF72AFF08F030F96846FFF71A
:1034E00025FF03B030BD00BF10B582B018B9044647
:1034F000204602B010BDFFF7B5FD02AB048843F8CB
:10350000040D1846FFF712FF204602B010BD00BFA1
:1035100010B582B008B30C46FFF7A4FD03880090F5
:103520009C4206D300246846FFF700FF204602B005
:1035300010BD40680028F5D0FFF794FD02AB50F8AD
:10354000244043F8040D1846FFF7F0FE002CE9D0A4
:103550002046FFF787FD0446E5E70446204602B013
:1035600010BD00BF70B584B00446104615460E4627
:10357000FFF7E2FA039068B3204604ACFFF772FD50
:103580003146009000F02CF801900398FFF76AFD97
:10359000124B54F80C1D2A461B680290984720468F
:1035A000FFF7C4FE02A8FFF7C1FE3146039A009858
:1035B00000F034F848B90398FFF754FD0446684614
:1035C000FFF7B4FE204604B070BD03A80024FFF747
:1035D00027FBF4E70446204604B070BD7C040220BB
:1035E0000388994201D30020704740680028FBD02F
:1035F00010B582B00C46FFF735FD02AB50F8244001
:1036000043F8040D1846FFF791FE24B12046FFF75A
:1036100029FD02B010BD0020FBE700BF03888B42EC
:1036200001D9406808B901207047F0B583B00C4655
:103630001546FFF717FD02AE074600EB840046F87B
:10364000047DFFF7EDFA47F824503046FFF76EFE91
:10365000002003B0F0BD00BF70B50D46044604F075
:10366000C3FE00222B46C1B22046BDE8704000F0E8
:1036700001B800BFB0F1004F2DE9F04346D000285B
:1036800051DB00254D1B4FF0000EEDB20AB1013D9C
:10369000EDB275B36C1EAA42274F4FF03108DFF828
:1036A0009CC0E4B21ED057F8246090FBF6F1C9B27A
:1036B0000A2901F1010906FB11001AD824B9BEF14B
:1036C000000F01D05FFA89F10A2901F1300115D00C
:1036D0001D686E1C1E6029705CB125466C1EAA42D6
:1036E000E4B2E0D119684E1C1E609CF800600E70B8
:1036F000D9E71B6800221A70BDE8F08319682C46D0
:103700004D1C1D60254681F80080E7E71C684FF0DE
:10371000010E4D1E2D2104EB0E066FF00040EDB2A0
:103720001E602170B2E71C6801252D2640426719F2
:103730001F602670A6E700BFE40007082CEE0620F5
:1037400010B584B00C46064B114601AA00902046E5
:103750000193CDF80CD017F005FB04B010BD00BFED
:103760008D3E00082DE9F04FBC4DA5B00E469A469F
:103770002D6824AC0DF1700C0DF16C0EE96B154643
:10378000B74F1AAA0B6819A944F8300D21A806935F
:103790000DF15E03CDF804C0CDF800E0239421972D
:1037A000DDF8B8B000F07AFB40B10120AB4B069ACF
:1037B0001B68DB6B1A6025B0BDE8F08F04F0C6FD16
:1037C00002F02CFDA54A199B116803FB0AF31A9A13
:1037D000CC6C02FB0AF2096D34190A9069181FA813
:1037E00007940891ADF87E100139ADF87C40B3FB29
:1037F000FBF3B2FBFBF223440A44013BADF8822009
:10380000ADF8803012F0BAFE00286FD0BBF1000F87
:103810005B464FF00004B8BF0BF101035B10099346
:1038200019E014DB022B12DC1B9921A800F05EFCCE
:103830001C981A9C019021A80094199B089ACDF815
:103840000CB00799CDF808A01CF028F9044612F036
:1038500027FD00284BD01C9B002BE2D1BDF85E3029
:10386000013B1F2BF3D801A252F823F0533C000870
:103870004F3800084F380008533C00084F38000804
:103880004F3800084F380008533C00084F380008F4
:103890004F3800084F3800084F3800084F380008EC
:1038A0004F3800084F380008353B00084F380008F3
:1038B0004F3800084F3800084F3800084F380008CC
:1038C0004F3800084F380008133A00084F380008F6
:1038D0004F3800084F3800084F3800084F380008AC
:1038E0004F3800084F380008FD38000804460A9891
:1038F00006F058FF07F022FF204657E71A9B0022E8
:10390000199903FB0AF30C911E9293FBFBF393426C
:10391000109340F33C82013B0B934FF0FF330E9327
:103920000B4643F31A03DDF82480D9469E00D044A9
:103930000024C1450AD9D0440134C845FBD305E071
:1039400000F0BCFB013C002840F0B081631C1EAAC3
:103950004FF00003314621A8F2D1D9440123C145DB
:1039600000F24182D9440133C845FBD20E9A11932B
:1039700002FB03F212921E9A10460E9A013200F0D8
:103980001B82089B0B9A134419460F93119B5D46AB
:1039900013960646013B099C0C9A0B441593079B12
:1039A0000D930023511C02E00133994225D0544469
:1039B000D71AAC42F8D331780133B2785D447078CD
:1039C00006EB8306A54242EA014343EA002000F2E7
:1039D0000E8201225D440132AC42FBD214920BF004
:1039E0003FFD149A0D98159B02440F990D92013AD0
:1039F0000BF034F87A1E002FD3D10B9B129A10993A
:103A00001344139E8B420B9380F29481002B8EDA29
:103A100090E11A9B0022199903FB0AF30C911E9264
:103A200093FBFBF39342109340F3A981013B0B936B
:103A30004FF0FF330E930B4603EB4303DDF8248076
:103A4000D946DB001F335B119E00D0440024C845DB
:103A50000ED2D0440134C845FBD309E0E402022071
:103A60008D3E000800F02AFB013C002840F01E813A
:103A7000002C4FF000031EAA314621A8F2DAD944E7
:103A80000123C14500F2AB81D9440133C845FBD2C3
:103A90000E9A119302FB03F212921E9A10460E9A8E
:103AA000013200F08181089B0B9A134419460F9351
:103AB000119B5D4613960646013B099C0C9A0B44EC
:103AC0001593079B0D930023511C01E0994226D0CA
:103AD0005444D71A0133AC42F8D332785D44B178FC
:103AE00003EB43037078AC4241EA02421E4442EACF
:103AF0000020C0F09C8101225D440132AC42FBD227
:103B000014920BF0ADFC149A0D98159B02440F997A
:103B10000D92013A0AF0A2FF7A1E002FD3D10B9B1F
:103B2000129A139E9B180B9300F10481109A9342F2
:103B30008BDBFFE01A9B0022199903FB0AF30C911F
:103B40001E9293FBFBF39342109340F31081013BD1
:103B50000B934FF0FF330E930B461B01DDF82480CF
:103B6000D9461F335B119E00D0440024C1450AD9B9
:103B7000D0440134C845FBD305E000F09FFA013C76
:103B8000002840F09380621C4FF000031EAA3146CB
:103B900021A8F2D1D9440123C845C0F01C81D944E1
:103BA0000133C845FBD20E9A119302FB03F2149223
:103BB0000E9A01321E9900F00781089B0B9A13445C
:103BC0000F9324AA119B099C5D461046013B0F9A56
:103BD00013440C9A1593079B0D93034643F81C1D41
:103BE00012930023511C02E00133994228D054441F
:103BF000D71AAC42F8D312985D44139309F05CF9DC
:103C00000BF020FA1D9A139BAC42014602EB4303D2
:103C10001D93C0F0F98001225D440132AC42FBD219
:103C2000084613920BF01CFC139A0D98159B024446
:103C30000F990D92013A0AF011FF7A1E002FD0D190
:103C40000B9B149A9B180B9374D4109A93428BDBA2
:103C500070E01B9921A800F049FA1A9B00221999DB
:103C600003FB0AF30C91BDF85E101E920B9193FBBF
:103C7000FBF8904573DD4FF0FF3308F1FF390D93EA
:103C80000B46013B1F2B68D8DFE803F06167675BD9
:103C9000676767566767676767676712676767671A
:103CA0006767671267676767676767120124CEE512
:103CB0000C9BDF001F377F11BF00099D5E465544F6
:103CC0000024AE4209D955440134B542FBD304E087
:103CD00000F0F4F9013C0028E8D1611C4FF000032A
:103CE0001EAA394621A8F3D15E44AE4200F2998063
:103CF00001235E440133AE42FBD90D9A194602FB03
:103D000003FE01321E984AD0089B03EB09020B9B6D
:103D10000124F14402910493CDF804B00C9BCDF83A
:103D200000A0079903941FF037F9C14502DAB9F1F1
:103D3000000FC4DA00248AE50C9BDF1C27F0030780
:103D4000BBE70C9B9F001F377F11BF00B5E70C9BA3
:103D500003F11F077F11BF00AFE70027ADE7A5D034
:103D60000123C8F1000891460D930B4689E79DD0C9
:103D70005B420B92109301230E930B46EDE695D018
:103D80005B420B92109301230E930B4654E68DD0A9
:103D90005B420B92109301230E930B46C1E5089AE8
:103DA0004A44D31A5A1CB2E70B99089A0A44D31A08
:103DB00001330F9319467BE60B99089A0A44D31AEC
:103DC00001330F931946E1E5089A0B980244D31A80
:103DD00001330F93F5E60E9A11931492E9E60E9AC9
:103DE0001193129259E60E9A11931292C3E50BF0B9
:103DF00037FB119B012B27D10F990D980AF0D4FDA9
:103E00000D9B01330D93F5E50BF02AFB119B012B64
:103E10001CD10F990D980AF0C7FD0D9B01330D932E
:103E20000BE70121DDF834E00B46724669E70BF041
:103E300017FB119B012B0BD10F990D980AF0B4FDC4
:103E40000D9B01330D9367E60122CBE50122ECE6E1
:103E5000012259E600B583B000F1120302A840F830
:103E6000043D09F02FF803B05DF804FB00B583B002
:103E700000F1160302A840F8043D09F023F80028D9
:103E8000B8BF404203B05DF804FB00BF10B4046843
:103E9000104623445DF8044B0B6070472DE9F04356
:103EA000044683B00020894690461E466060034663
:103EB00025686946A0683622A847362803D0012025
:103EC00003B0BDE8F083636868463633636008F08A
:103ED000F3FF009B054668460C33009308F0F2FFA1
:103EE0000746684608F0EEFFC9F80000684608F08B
:103EF000E9FF009BC8F8000068460233009308F011
:103F0000DBFF3080684608F0DDFF009B0B9A0C3326
:103F100010606846009308F0D5FF3388013B1F2BE3
:103F2000CDD801A252F823F0F33F0008BF3E0008AD
:103F3000BF3E0008EB3F0008BF3E0008BF3E000840
:103F4000BF3E0008A93F0008BF3E0008BF3E000872
:103F5000BF3E0008BF3E0008BF3E0008BF3E00084D
:103F6000BF3E0008FB3F0008BF3E0008BF3E000800
:103F7000BF3E0008BF3E0008BF3E0008BF3E00082D
:103F8000BF3E0008FB3F0008BF3E0008BF3E0008E0
:103F9000BF3E0008BF3E0008BF3E0008BF3E00080D
:103FA000BF3E0008FB3F00084FF480730A9A13607D
:103FB00008B10A9B18600B9B1B68032B21D060681B
:103FC0002838384460600A9B1B68B3F5807F3FF750
:103FD00076AF44F642539D427FF471AF0B9B186855
:103FE000032894BF002001206AE710230A9A136077
:103FF000DEE702230A9A1360DAE700230A9A1360C5
:10400000D9E726681022636801A9A068B047102884
:1040100005D06368A3F1380038446060D3E7636873
:1040200001A8254E1033636008F04CFF306001A8F2
:1040300008F048FF706001A808F044FF00223368D0
:10404000F260DA07B06007D401225B081146013242
:1040500013F0010FF9D0F16001225B08964601329E
:1040600013F00101F9D17368C6F818E0DA0731617D
:1040700007D401225B081146013213F0010FF9D079
:10408000316101225B089646013213F00101F9D13A
:10409000C307C6F81CE0716106D4012340081A4624
:1040A0000133C107FAD57261012340081A46013372
:1040B000C107FAD43262ACE754E8062070B5044672
:1040C0000D464BB94368114626682A46A068B0479A
:1040D000854205D0012070BD00210B464160F2E70A
:1040E000636800201D44656070BD00BF00292DDDA0
:1040F0002DE9F0410F4682B004460025DFF85080DC
:1041000013E06368019A0433D8F800606360537861
:1041100011781B02907843EA014318430AF04EFAE3
:1041200046F825000135AF420CD0042226686368AA
:104130000DEB0201A068B0470428E2D0012002B0D4
:10414000BDE8F081002002B0BDE8F081002070479A
:10415000700E072010B5044604F0F8F8044804EB8C
:10416000840400EB8404247A07F0E8FA204610BDAA
:1041700044EB06202DE9F04F0E4683B0804604F054
:10418000E5F8B400304602F055F8DFF81891A319AD
:104190008246D9F8002009EB83035F68002A32D0F9
:1041A000BAF1000F3BD1A519012309EB8505686918
:1041B000C5F804802B72002864D1B8F1000F1CD020
:1041C00034444FF0010AD8F80820334609EB840440
:1041D000D8F80410D8F80000CDF800A02569AA1A74
:1041E000E568691A06F094F96061304602F022F839
:1041F00000284CD1237A002B3BD107F09FFA384698
:1042000003B0BDE8F08F264A4846012340F82C2F22
:10421000C9F8003008F06CFEBAF1000FC3D0504668
:10422000344406F007FA83464FF07F4009EB8404DC
:1042300006F0ACFA012500F0A7F80022D8F800003B
:10424000114600F001FED8F8003050465A8819880F
:1042500006F016FB5846C4F80480257206F0EAF909
:10426000304601F0E7FF0028C4D0294606F018FBCD
:10427000C3E7606906F018F907F060FA384603B042
:10428000BDE8F08F05F0AEFDC5F814A095E75146E6
:1042900006F006FB07F052FA384603B0BDE8F08F8F
:1042A000517E020844EB06202DE9F04114460646F3
:1042B000884604F04BF8204601F0BCFFE8B9A7009F
:1042C0001B4D3B1905EB8303DA68B24206D11B692B
:1042D000434503D1BDE8F04107F030BA3B1905EB87
:1042E00083035869D0B93C4405EB8404E660C4F804
:1042F0001080BDE8F04107F021BA0D4B04EB8404B7
:1043000003EB840463689A685968C2EB0802711A67
:1043100006F0A6FABDE8F04107F010BA5B689A68AB
:104320005968C2EB0802711A05F08CFDDBE700BF8B
:1043300044EB0620C3B2CAB29A1A92B210B414B2B5
:10434000002C1EDBC1F30722C0F307239B1A9BB28C
:104350001AB2002A12DB090C02FB02F2C1EB104177
:1043600004FB042089B20CB2002C01DA49420CB2E1
:10437000A1B25DF8044B01FB010070475B421AB229
:10438000E9E7524214B2DDE700212DE9F041084689
:1043900082B002F001F8184F03F0D8FF04200BF0B0
:1043A00091F8164B43F6FF763D46DB68804634466F
:1043B0006846DA6C1B6D174416441D441C44ADF866
:1043C0000070ADF80460ADF80250ADF8064012F090
:1043D000D5F848B123463246294638460AF03EFB16
:1043E00011F05EFF0028F5D140460BF06BF807F0A6
:1043F000A5F902B0BDE8F08101C0FFFFD80202209C
:104400002DE9F04182B016461C4607460D4603F0E2
:104410009DFF04200BF056F8134B80466846DB687E
:10442000DA6C1B6D174416441D441C44ADF8007033
:10443000ADF80460ADF80250ADF8064012F09EF8F9
:1044400048B123463246294638460AF007FB11F0A8
:1044500027FF0028F5D140460BF034F807F06EF93D
:1044600002B0BDE8F08100BFD80202202DE9F04182
:1044700082B0B0F90070B0F90260B0F90450B0F940
:10448000064003F063FF04200BF01CF8134B80463A
:104490006846DB68DA6C1B6D174415441E441C44E7
:1044A000ADF80070ADF80450ADF80260ADF806400C
:1044B00012F064F848B123462A46314638460AF0DD
:1044C000CDFA11F0EDFE0028F5D140460AF0FAFFD2
:1044D00007F034F902B0BDE8F08100BFD802022035
:1044E0002DE9F047044682B00D461646002B37D022
:1044F0009A46009651460B9B204626680A9AB0477A
:10450000074618B9384602B0BDE8F0870FF014FD31
:10451000618A804638460EF0DBFD013D384611F0D9
:1045200091FC404611F08EFC002D1DDD4FF000097E
:1045300003E011F087FC013D16D054F81C6F0023F6
:10454000CDF80090414620461A46B047064600285E
:10455000EFD138460FF02CFA304602B0BDE8F087B4
:104560000FF0F8FC8246C4E740461D2111F0B6F971
:10457000BAF1FF3FC6D003F0E9FE0FF071FD60B95C
:10458000BA4502D0384611F0E1FA07F0D7F83846BC
:1045900002B0BDE8F0870028F4D0FEF7E1FE8069A4
:1045A0008742F8D1F1E700BF80B582B000AF7860F4
:1045B000054B1B68002B03D0034B1B68786898479A
:1045C00000BF0837BD4680BD28EE0620012B17DC52
:1045D0002DE9F04107461C2090460D461E46FEF789
:1045E00077FB0446D0B16DB1056100232046A6617A
:1045F000A4F81480E76023606360A360BDE8F081E5
:1046000000207047074B53F826200AB9EDE71A46F9
:104610001368002BFBD113692361E6E70020BDE896
:10462000F08100BF48EE0620012B3BDC2DE9F8436A
:1046300081461C2090460F461E46FEF749FB054664
:1046400000287FD0414A002F31D00023DFF804E159
:1046500052F8264003609EF8001007618E42866182
:10466000A0F81480C0F80C904360836002DB731CD8
:104670008EF80030002C5DD021464C68002CFBD118
:10468000D9F80000CB681B6883422CDD096800293B
:10469000F8D148B92E4B163628461A6842F82650EB
:1046A000BDE8F883002070472846BDE8F88352F83B
:1046B0002610002930D0084600E018460368002B79
:1046C000FBD10069DFF88CE02B6028619EF80000C8
:1046D000AE618642A5F81480C5F80C906B60AB60A3
:1046E000CBDB0C46C3E70AD04B6843B31D606B605D
:1046F0008D4214BF0B4600234D602B60C9E7B8F113
:10470000010FF1D104E0DC68194623688342EBDB3A
:104710000B68002BF7D1E7E7DFF838E001609EF87F
:10472000003086619E42A0F81480C0F80C90416071
:104730008160D6DA42F82650D9F80000A9E742F89D
:104740002650D5E70020BDE8F88300BF48EE0620DC
:10475000E402022040EE0620FEF758BA00283DD0C1
:1047600070B48469012C03DD0123184670BC7047C6
:104770001F4B1A78944221DA1E4D55F824300BB99C
:1047800032E013465A68002AFBD1C268116802E081
:104790001B68002BE8D0DA6812689142F8DB10D071
:1047A0005A68F2B110604260984214BF1A46002263
:1047B000586000230260184670BC7047621C1A7073
:1047C000DAE7828A012AEBD104E0D6681346326820
:1047D0009142E5DC1A68002AF7D1E1E70123184687
:1047E000704745F82400DFE745F82400BDE700BF27
:1047F00040EE062048EE062000284DD02DE9F0417D
:10480000DFF89CE0254F9EF80060BC4601E028469A
:104810003DB384690568012CF9DCB44201DB661CF8
:10482000F6B257F824300BB933E013465A68002A21
:10483000FBD1C268116802E01B68002BE7D0DA6880
:1048400012688A42F8DC10D05A68A2B11060426047
:10485000984214BF1A460022586002602846002D74
:10486000D7D18EF80060BDE8F081828A012A0CD091
:104870005A68002AEAD147F82400E9E7D2F80C8008
:104880001346D8F800208A42DEDB1A68002AF5D1E8
:10489000DAE74CF82400BAE7704700BF48EE06207C
:1048A00040EE06200F4A816952F8213098420AD022
:1048B00042680AB103681360036803B15A600023B9
:1048C000036043607047036842F821302BB1002237
:1048D0005A604268002AEED1F0E74268002AEAD125
:1048E000EDE700BF48EE062000207047012810DCED
:1048F000094B53F8200068B1C3681B68994204D182
:1049000009E0C3681B688B4204D000680028F8D116
:10491000704700207047704748EE062001280EDCE3
:10492000084B53F8200058B1C3681B681BB908E056
:10493000C3681B6823B100680028F9D170470020C4
:104940007047704748EE0620F0B583B0F8B10446D2
:104950000C2016460F46FEF7EFF8054610B928461C
:1049600003B0F0BD03F0F2FC2846FEF77BFB0A4AD9
:10497000034602A85C6040F8043D1F815E811A6016
:10498000FEF7D4FC06F0DAFE284603B0F0BD05467B
:10499000284603B0F0BD00BF2C5E0708F0B50746FF
:1049A00083B00C200E461546FEF7C6F8044688B1C3
:1049B00003F0CCFC2046FEF755FB084A034602A84C
:1049C0005F6040F8043D1E815D811A60FEF7AEFC19
:1049D00006F0B4FE204603B0F0BD00BFDC67070858
:1049E00000B970472DE9F04182B01E4615460C46CD
:1049F0000746FEF737FB02AB026843F8040D184682
:104A0000D2F80080FEF792FC33462A46214638460B
:104A1000C04702B0BDE8F08100B9704730B583B03F
:104A20000446FEF71FFB026802AB556843F8040D0D
:104A30001846FEF77BFC2046A84703B030BD00BFF8
:104A400000B9704730B583B00446FEF70BFB02682F
:104A500002AB956843F8040D1846FEF767FC204644
:104A6000A84703B030BD00BF2DE9F843074627F043
:104A7000FFFBDFF86C90074427F0FAFBDFF8648057
:104A80003E1A002E22DD00F0FBFCD9F800309E42D9
:104A9000A8BF1E4603F05AFCD8F80040FEF7DAFA29
:104AA000B4B1254606F04AFE013DFBD1304627F061
:104AB000DBFB03F04BFC013CFBD1FEF72FFC06F0C7
:104AC0003DFE27F0D5FB3E1A002EDCDCBDE8F88366
:104AD000304627F0C9FBFEF721FC06F02FFEF0E779
:104AE00004030220BCEA06202DE9F04F4A4D83B0B2
:104AF000044603F02BFC01F0B3FB2B680646B3F928
:104B0000228001F00DFC2B681FFA80F99A8CC9EB0A
:104B1000020212B29A84217800294FD0B6B22F46F1
:104B200047F6FF71204608F02BF8014683462046E1
:104B300007F0E6FF29688B8D03F00303012B5AD0A1
:104B4000022B5CD01FFA80FA4FF0000E4B8C0AF15A
:104B5000FF3CB1F92420CEEB0303ADF80220013A6B
:104B60009BB2B0186A460FFA83FE6344ADF80600A4
:104B70002046A1F822E05946ADF800E0ADF8043037
:104B800007F026F82B682046BDF8022059469A8483
:104B900006F0AAFC235C04440A2B1BD00D2B19D071
:104BA000BDF800003B688244A3F822A022781AB125
:104BB00062780134002AB3D1B3F92420998D91444D
:104BC00021F00302A3F824909A8506F0B7FD03B004
:104BD000BDE8F08F2B689A8D02F00302013A012A9A
:104BE00016D8A3F8228022780A2AE0D19A8C32447F
:104BF0009A842278DBE71FFA80FEF246A6E70028B7
:104C000003461FFA80FAB8BF431CC3F34F0E9DE75B
:104C10001A8C5A84E7E700BFE402022070B50E4602
:104C20001546044603F092FB054B1B685E849D8489
:104C300014B12046FFF758FFBDE8704006F07EBD76
:104C4000E402022020B3F0B50C4683B005461646B8
:104C500003F07CFBD4B1204611F0E4F8074638B1EC
:104C600002462146684608F003F8684611F0DAF873
:104C70003246214647F6FF73284607F00BF83846C0
:104C800011F0D0F806F05AFD03B0F0BD2746EFE76B
:104C9000704700BF08B100F001B870472DE9F04F30
:104CA00089468BB01546044603921F4603F04EFB1F
:104CB000B9F90030B9F904100193CE1AB9F90630E8
:104CC0000291B9F902B00136059301F0C9FA15F065
:104CD0000C0A049076D11FFA80FA484611F0A2F827
:104CE00002460490A8B10199002506A82B4661F35D
:104CF0000F0502996BF31F4561F30F0305990695A4
:104D000061F31F434946079307F0B2FF06A811F06D
:104D100089F8039B1FFA8BF503F003080AF1FF33B0
:104D200003934346B0461E4615E0022E34D01EB90A
:104D3000B9F80030ADF820302046594608AA55444D
:104D400006F046FF20463A46414608F051F9044431
:104D5000ADB2237873B33A464146204608F0AAF92B
:104D6000BDF80420039B8346ADF820202046EB18B5
:104D7000BDF808205946ADF82250ADF82420ADF812
:104D8000263007F0BDFE012ECFD1B9F80430013333
:104D9000181AADF82000CFE7B9F90010B9F90430BE
:104DA0005B1A181A013048BF013001EB6000ADF802
:104DB0002000C1E7049811F035F806F0BFFC0BB0F5
:104DC000BDE8F08F254603F0C1FA3A463146284641
:104DD0004FF0000808F00CF948B105443A46314656
:104DE00008F10108284608F003F90028F5D106F07B
:104DF000A5FCBAF1080F08D0BAF10C0F10D0BAF127
:104E0000040F02D0BDF810A067E7BDF810A0059B05
:104E100018FB0AF85D1CC8EB05050FFA85FB5CE77B
:104E2000059B049ACBEB0303BDF810A0013308FBEC
:104E30001238B8F1000FB8BF08F101080BEB680594
:104E40000FFA85FB49E700BF2DE9F04FDFF8F89036
:104E500089B0044690460F4603F078FAD9F800303E
:104E600006A82588DA6C1E6D013D63881744B0449E
:104E7000013B7A19ADF818704344ADF81A80ADF8CB
:104E80001C20ADF81E3011F079FB002851D0CB4624
:104E9000DFF8B8A01BE040F0020005F0A7FC26698F
:104EA0002EB3E0680122D4F808E0414663880392FB
:104EB0000292228801903846CDF800E03668B0476B
:104EC000284605F093FC11F0EBF9002831D0E66894
:104ED000002005F08BFC054616B13379002BDAD1A2
:104EE00025F0020005F082FC2669002ED9D1D9F800
:104EF00000202146DAF80030527CE0689847E188CB
:104F0000E0B16388012622880590A068029141469D
:104F100004903846B4F804E00196CDF80CE0009611
:104F200009F094FB284605F061FC11F0B9F900285E
:104F3000CDD106F003FC09B0BDE8F08F0129E0D126
:104F4000DBF80030986BDCE7E4020220D802022094
:104F50002DE9F04F91B080461E460F46914603F072
:104F6000F5F9674B0EA81C68E56C246D05EB08038A
:104F700005EB0902E1193444029301920791089468
:104F8000ADF83830ADF83C20ADF83A10ADF83E4001
:104F900011F0F4FA002800F09780019B029A1A9908
:104FA000C2EB030B9DF86820C1F307241B99BBF1EA
:104FB000000F5B46C1F307271A99B8BF0BF1010335
:104FC0000BFB02FEC1F307401B995B109DF86CC000
:104FD000C1F307461A9903EB0E05090E0A950BFB60
:104FE00004353C1B03940BFB0034301A0BFB0133DC
:104FF0005E460B950D931B9B0C94C1EB13630490C1
:105000000593C2EB0C03069301F008F91A9B1B9A57
:10501000099093426AD0002E52D0029D019A954287
:105020005CDC0AAF86464FF0010B97E8800706E08C
:105030000BF1010B0135019BA646AB422FDB7046FD
:105040009AFBF6F499FBF6F197FBF6F398FBF6FC66
:105050002206059C43EA0C23A24442EA0144049A36
:105060001C43029B9144069AAB421744039A904416
:10507000E0DA7445DCD00AF0F3F9BBF1010FCBEBB9
:105080000500089B05F1FF32079922D009F0E6FCE4
:105090000135019B4FF0010BA646AB42CFDA20460B
:1050A0000AF0DEF9BBF1010F1AD0019A089BCBEB95
:1050B00002000799013009F0D1FC09980AF0D0F9F3
:1050C00011F0EEF800289FD106F038FB11B0BDE8D2
:1050D000F08F1A46681E09F099FCABE70AF0C0F998
:1050E000089A0799019809F091FCE6E718460AF03A
:1050F000B7F9089B019A0799029809F0AFFCDCE721
:10510000E40202202DE9F04F91B080461E460F4682
:10511000914603F01BF9674B0EA81C68E56C246DE3
:1051200005EB080305EB0902E119344407930892E3
:1051300002910194ADF83830ADF83C20ADF83A104A
:10514000ADF83E4011F01AFA002800F09780019B5C
:10515000029A1A99C2EB030B9DF86820C1F3072449
:105160001B99BBF1000F5B46C1F307271A99B8BF23
:105170000BF101030BFB02FEC1F307401B995B100F
:105180009DF86CC0C1F307461A9903EB0E05090E92
:105190000A950BFB04353C1B03940BFB0034301ABF
:1051A0000BFB01335E460B950D931B9B0C94C1EBDF
:1051B000136304900593C2EB0C03069301F02EF8E1
:1051C0001A9B1B9A0990934269D0002E52D0029DDF
:1051D000019A95425BDC0AAF86464FF0010B97E8D7
:1051E000800706E00BF1010B0135019BA646AB429F
:1051F0002FDB70469AFBF6F499FBF6F197FBF6F37A
:1052000098FBF6FC2206059C43EA0C23A24442EAE2
:105210000144049A1C43029B9144069AAB421744F2
:10522000039A9044E0DA7445DCD00AF019F9BBF136
:10523000010FCBEB050105F1FF33089A079822D047
:1052400009F00CFC0135019B4FF0010BA646AB4267
:10525000CFDA20460AF004F9BBF1010F19D0019B07
:10526000089ACBEB03010798013109F0F7FB099885
:105270000AF0F6F811F014F800289FD106F05EFA53
:1052800011B0BDE8F08F691E09F066FBACE70AF0CB
:10529000E7F8089A0199079809F05EFBE7E71846D6
:1052A0000AF0DEF8019B089A0299079809F0D6FBEC
:1052B000DDE700BFE4020220F0B5144F83B00646DC
:1052C0000D46144603F042F83B686846196DDA6CE7
:1052D0000E441544144433B2ADF80050ADF8044008
:1052E000ADF80230ADF8063011F048F950B13B6826
:1052F0002246314628465B6E1B68984710F0D0FF67
:105300000028F4D106F01AFA03B0F0BDE40202203E
:1053100070B5134E82B005460C4603F017F833689B
:105320006846DA6C1B6D15441C442AB223B2ADF8F2
:105330000420ADF80020ADF80630ADF8023011F0D1
:105340001DF948B13368214628465B6E5B68984773
:1053500010F0A6FF0028F5D106F0F0F902B070BDFC
:10536000E40202202DE9F04782B0044689469246C5
:10537000984602F0EBFF1E4B68461F683E7EFD6CB0
:10538000013E3F6D2C445544B2B2B944B844A61A0C
:105390005119C2EB09034244ADF80060ADF80410A6
:1053A000ADF80230ADF8062011F0E8F8D8B109F1F7
:1053B000010708F1FF362A464946204609F0CCFA93
:1053C0002A464146204609F0C7FA32463946204669
:1053D00009F01CFB32463946284609F017FB10F04D
:1053E0005FFF0028E7D106F0A9F902B0BDE8F08719
:1053F000E402022070B582B0064614460D4602F063
:10540000A5FF104B68461A68D36C126D1E441544F4
:10541000144433B2ADF80250ADF80640ADF8003098
:10542000ADF8043011F0AAF840B1224629463046C2
:1054300009F0ECFA10F034FF0028F6D106F07EF9FE
:1054400002B070BDE402022030B585B000232A22EC
:105450000D4669460193029304460393009210F0AF
:105460002DFA039B13B1012283E8240002F06EFFA2
:10547000204610F003FE06F061F905B030BD00BF14
:105480002DE9F0410025124F124EDFF84C803C68A8
:105490001CB1A047041C18BF01240EF0C3FB3368E5
:1054A000002818BF01244BB1984738B1D8F8003014
:1054B00013B1012498473CB10125E8E7D8F8003042
:1054C000002BF7D1002CF7D12846BDE8F08100BFB2
:1054D00064EE062068EE062060EE0620F0B583B08C
:1054E000074616461C460D4602F030FF104B684634
:1054F0001B68DA6C1B6D174416441D441C44ADF840
:105500000070ADF80460ADF80250ADF8064011F03F
:1055100035F848B1234632462946384609F09EFA06
:1055200010F0BEFE0028F5D106F008F903B0F0BD7A
:10553000E4020220F0B583B0B0F90070B0F9026067
:10554000B0F90450B0F9064002F000FF104B684675
:105550001B68DA6C1B6D174415441E441C44ADF8DF
:105560000070ADF80450ADF80260ADF8064011F0DF
:1055700005F848B123462A463146384609F06EFA06
:1055800010F08EFE0028F5D106F0D8F803B0F0BD7B
:10559000E40202202DE9F04F9DB005460F469146EA
:1055A0001C4602F0D3FE44F20810FDF7C5FA30B9EC
:1055B000012706F0C3F838461DB0BDE8F08F8046DD
:1055C000FDF750FD00220646856016A9134632619C
:1055D0003846F76006220996A84706280CD001270E
:1055E00009A8FDF7A3FE4046FDF7F0FA06F0A6F87D
:1055F00038461DB0BDE8F08F3369169A0633336123
:1056000011784729EBD151784929E8D19178462979
:10561000E5D1D1783829E2D11179372901D039295A
:10562000DDD15279612ADAD1B568042216A9F06871
:10563000A8470428D3D1336916A80433336107F08F
:105640003BFC054616A807F037FCB5F5FA6F064691
:10565000C5DCB0F5FA6FD4BF00270127002FBED1FB
:1056600009F044FA8B4B05900FA81B68DA6C1B6D90
:105670004A44E318114606921C460793013AADF8D6
:105680003C10631EADF83E4015441E44ADF840503A
:10569000ADF8426010F072FF002800F09A803D469D
:1056A00004970AE03B2A00F08E80212A7FD0012750
:1056B00010F0F6FD002800F08D80099C4FF0FF36B9
:1056C0009DF810701BAB0BAA20460AA98DF8237019
:1056D00016951795189519951A951B95119512956C
:1056E0001395149515950C9620F0E0F90028DED15D
:1056F000814620690346A66801220DA9E068B047EB
:105700000128D4D123690D9A0133236112782C2A00
:10571000C8D1A66809220DA9E068B0470928C6D1FA
:1057200023690DA80933236107F0C6FB16900DA865
:1057300007F0C2FB17900DA807F0BEFB18900DA84C
:1057400007F0BAFB0D9B19901B781A061A9345D4E3
:10575000269B013B4B4569D0269B4B456FD0A668E5
:10576000012223690DA9E068B04701289FD1236970
:105770000EAE0133B2462361A76801225146E068AC
:10578000B8470128206902D009F10109B2E70E9A51
:10579000013051462061034617783A46002FF3D076
:1057A000E068A668B04787420FD02069ECE7269BE7
:1057B0004B4537D0002213460CA9204622F0B2FFF9
:1057C000002896D073E7002772E723693B442361E2
:1057D000D2E70127059809F049FE01E703F0070227
:1057E000022143F6045A236901FA02F20EAEA244E2
:1057F00002F6417B1B9204EB8B0B0BE023690E99A5
:10580000033323610A88897842EA01424AF8042F67
:10581000D3459DD0A76803223146E068B8470328E6
:10582000ECD044E711AA0DF12303C5E7169A179BA4
:1058300011921293189A199B139214938CE79DF866
:10584000230002281BD00C9E16A901902046079B1E
:105850000395069A029500961CF04CFC074600281A
:105860007FF425AF0DA9A66823690122E068B0473F
:1058700001287FF41CAF23690133236118E70698E0
:1058800011AB019516AA0095079925F063FA9DF8CA
:105890002300D8E7E40202202DE9F04F8BB08246C6
:1058A000894614461D46159FDDF8588002F04EFDCE
:1058B00044F20810FDF740F930B9012605F03EFF2B
:1058C00030460BB0BDE8F08F8346FDF7CBFB0A21D5
:1058D00008AA0123C0F80C90C0F808A0079000F0B7
:1058E00095FB089B08A80633089307F0E5FA814664
:1058F00008A807F0E1FA064609F0F8F8224A07FB83
:1059000006F3126807FB09F1059008A8D66C126D22
:1059100034441544661EADF820406A1EADF822508E
:10592000B1FBF8F1B3FBF8F331441344ADF82410A4
:10593000ADF8263010F022FEB0B1DFF850A0DFF84D
:10594000509007982A46149B2146CDF80CA0CDF81C
:105950000890CDF80480009700F02EF9064610F06C
:105960009FFC0028EDD100E00126059809F07EFD9E
:1059700007A8FDF7DBFC5846FDF728F905F0DEFE29
:1059800030460BB0BDE8F08FE4020220B57F01087D
:105990007D2502082DE9F04784B006460D46914664
:1059A0001F4602F0D3FC44F20810FDF7C5F830B9E9
:1059B000012505F0C3FE284604B0BDE8F087804607
:1059C000FDF750FB002201AB86600446C56011461E
:1059D000009020F06BF8A0B9824620690346A568C4
:1059E000012202A9E068A84701280AD12369029A86
:1059F0000133236112782C2A1FD03B2A1BD0212A85
:105A00000CD001256846FDF791FC4046FDF7DEF815
:105A100005F094FE284604B0BDE8F0870023204638
:105A200057450CBF4A461A46194622F07BFE00280D
:105A3000E7D12069D2E70025E4E7574522D0204688
:105A400024F004FB2369A568012203A9E068A847A4
:105A50000128206902D00AF1010ABFE7039A013048
:105A600003A92061034615782A46002DF3D0E0688B
:105A7000A668B047854201D02069ECE723692B4432
:105A80002361E0E70822A568E0680DEB0201A84762
:105A90000828B6D1236902A800250833236107F03E
:105AA0000BFAC9F8000002A807F006FAC9F80000CE
:105AB00002A807F001FAC9F8080002A807F0FCF9EB
:105AC000C9F80C009EE700BF2DE9F04184B00646FE
:105AD0000D46904602F03AFC44F20810FDF72CF80F
