:020000040800F2
:10000000D8400720E102000845DD0308BDC703080A
:1000100021DD030895770308371804080000000065
:100020000000000000000000000000001D020008A9
:10003000318103080000000079020008FDED03088B
:10004000FB020008FB020008FB0200083DE2030877
:10005000FB020008FB020008FB020008FB0200088C
:10006000FB020008FB020008FB020008FB0200087C
:10007000FB020008FB020008FB020008FB0200086C
:10008000FB020008FB020008FB020008FB0200085C
:10009000FB020008FB020008FB020008FB0200084C
:1000A000FB020008FB020008FB020008FB0200083C
:1000B000FB0200083DEF0308FB020008FB020008FA
:1000C000FB020008FB020008FB020008FB0200081C
:1000D000FB02000805F60308FB020008FB0200080B
:1000E000FB020008E9E00308FB020008FB0200082D
:1000F000FB020008FB020008FB020008FB020008EC
:10010000FB020008FB020008FB020008FB020008DB
:10011000FB020008FB020008FB020008FB020008CB
:10012000FB020008FB02000831800308FB02000804
:10013000FB020008FB020008FB020008FB020008AB
:10014000FB020008FB020008FB02000849DD03086F
:10015000FB020008FB0200083D800308FB020008C8
:10016000FB020008FB020008FB020008FB0200087B
:10017000FB020008FB020008FB0200080000000070
:10018000FB020008FB020008FB020008FB0200085B
:10019000FB020008FB020008FB020008FB0200084B
:1001A00069D30308FB020008FB020008FB020008F9
:1001B000FB020008FB020008FB020008FB0200082B
:1001C000FB020008FB02000800000000FB02000820
:1001D000FB020008FB020008FB020008FB0200080B
:1001E000FB020008FB020008FB020008FB020008FB
:1001F000FB020008FB020008DFF80CD000F0C0FA98
:1002000000480047A99A0408D840072030BF72B6BA
:10021000704762B6704780F3088870472D4B1968A5
:100220000868B0E8F04F80F30988BFF36F8F4FF094
:10023000000080F311887047000000000848006843
:10024000006880F308884FF0000080F3148862B6DD
:1002500061B6BFF34F8FBFF36F8F00DF00BF00BFEA
:1002600008ED00E0DFF80C00016841F47001016066
:10027000704700BF88ED00E0EFF30980BFF36F8F98
:10028000144B1A681EF0100F08BF20ED108A20E9E9
:10029000F04F106009B44FF0500072B680F311882F
:1002A000BFF34F8FBFF36F8F62B655F083F94FF0F6
:1002B000000080F3118809BC19680868B0E8F04FA5
:1002C0001EF0100F08BFB0EC108A80F30988BFF34E
:1002D0006F8F7047D0000220EFF305807047000059
:1002E0000648804706480047FEE7FEE7FEE7FEE7D0
:1002F000FEE7FEE7FEE7FEE7FEE7FEE7E9EE0308BE
:10030000F90100082DE9F05F0546002092469B4662
:1003100088460646814640241BE02846414647461B
:10032000224600F0D6F853465A46C01A914110D3DF
:1003300011461846224600F0BDF82D1A67EB010859
:100340004F4622460120002100F0B4F817EB0009C7
:100350004E41201EA4F10104DFDC484631462A4606
:100360004346BDE8F09F10B5441A0346944209D2B3
:100370008418114403E011F8013D04F8013D521EB8
:10038000F9D210BD40EA0104A40703D009E010C966
:10039000121F10C3042AFAD203E011F8014B03F82C
:1003A000014B521EF9D210BDD2B201E000F8012B70
:1003B000491EFBD270470022F6E710B513460A46E5
:1003C00004461946FFF7F0FF204610BD421E12F802
:1003D000013F002BFBD111F8013B02F8013B002B40
:1003E000F9D1704730B505462A460B4612F8010B85
:1003F00013F8014B08B1A042F8D01CB1002802D07C
:100400006D1CF1E7284630BD10B5044604E00B78BA
:1004100000F8013B03B1491C521EF8D2204610BD22
:10042000421C10F8011B0029FBD1801A704710B53F
:10043000002200E0521C835C8C5CA34201D1002BA3
:10044000F8D1D8B2E1B2401A10BD30B50446002050
:10045000034600E05B1C934203D2E05CCD5C401B92
:10046000F8D030BD034611F8012B00F8012B002A0B
:10047000F9D118467047A0E8004FF0C040F804DBFF
:1004800001B5AFF30080BDE8024001C10020704714
:1004900000F12C080C4658F8040DAFF3008058F812
:1004A000040D8546200008BF012038E9F00018E956
:1004B000004F7047202A04DB203A00FA02F10020A6
:1004C00070479140C2F1200320FA03F31943904092
:1004D0007047202A04DB203A21FA02F000217047FD
:1004E00021FA02F3D040C2F120029140084319469C
:1004F000704700000FB4002300B589B00CA900912B
:100500000B996FF00042CB601E4B06931E4B079376
:100510000423CDE901321D4A089202466B460020B1
:1005200000F0DAF909B05DF814FB70B586B0064644
:100530004FF0FF300091CDE90101002015460C4637
:1005400004903246694604A8FFF7D4FF0246049897
:10055000211825B108B1084600E02046286004981B
:1005600000280DD0002A02DD0098884208D0081B20
:100570000094CDE901043246694604A8FFF7BAFFAA
:1005800006B070BD110B00082F0B0008A50700086E
:100590002DE9FE4F81EA030404F0004421F00041FC
:1005A00000944FF0000B23F0004350EA01045ED0AA
:1005B00052EA03045BD0C3F30A54C1F30A552C4436
:1005C000A4F2F3340194A0FB0254C1F3130141F4EB
:1005D0008011C3F3130343F4801301FB024400FBB7
:1005E000034E840A970A44EA815447EA8357A4FBDE
:1005F000076802958D0A05FB07854FEA932C04FBDB
:100600000C542705029D4FEA065847EA1637B5EB0A
:1006100008056EEB070C870E920E47EA811742EA37
:100620008312A7FB0201B6EB0B0164EB00042B0D58
:1006300043EA0C335E1844EB1C50DA465146E7FBA4
:100640000201C5F313044FEA0B3343EA14534FEA94
:100650000432019C43EA0603A4F10C040294009CBA
:10066000CDE900B400F083FA03B0BDE8F08F0020BC
:100670000146F9E72DE9F04D81EA030404F0004B4F
:1006800021F0004514464FF0000A23F0004150EAE3
:10069000050220D054EA01021DD0C5F30A570246D4
:1006A000C5F31303C1F31300C1F30A5640F48015D8
:1006B00043F48013A7EB0608101BD64608F2FD385A
:1006C00073EB050002D308F1010801E092185B41C9
:1006D000B8F1000F03DA00200146BDE8F08D0020DC
:1006E0004FF48011064684460EE0171B73EB050796
:1006F00005D3121B63EB050306434CEA010C4908C2
:100700004FEA300092185B4150EA0107EDD152EAFE
:10071000030012D082EA040083EA0501084305D0F1
:10072000101BAB4106D20122002306E000224FF04D
:10073000004302E06FF0010253101AEB06004CEB8D
:10074000085110EB0A0041EB0B01BDE8F04D00F041
:10075000FFB970B521F0004303430CD0C1F30A5533
:100760000024D5EB040564EB0403D617AD1AB3419E
:1007700002DB0020014670BD201841EB025170BD24
:10078000064C074D06E0E06840F0010394E80700DE
:1007900098471034AC42F6D3FFF732FDFC3109081C
:1007A0001C320908C0B24FF4F05100F02FBA00001B
:1007B0002DE9FF4F087883B09946FF2805D0491CE2
:1007C0002D2804D00024002008E000200BE00124A4
:1007D000F9E700EB800003EB4000491C0B78FF2B8E
:1007E000F7D104B1404200230293147819461D4604
:1007F0002D2C01D02B2C04D1521C2D2C13D00024D5
:100800000294AA461478FF2C0FD00A25A3FB057882
:1008100001FB05814FF0000C03FB0C11521CE31986
:100820004AEB0101EEE70124EAE7814453EA0100C3
:1008300002D019F5C87F06DA03980021C0E900113B
:1008400007B0BDE8F08F0025AE4E2F46DFF8B88226
:10085000184600F0EFF9CDE90001B9F1000002DA25
:10086000C9F1000400E004460023A74A1AEB030B79
:1008700042EB045A12E0E00707D02A4633463846D6
:100880004146FFF785FE074688462A46334610460E
:100890001946FFF77DFE05460E466410002CEAD18E
:1008A000DDE90001B9F1000F5A46534606DAFFF7B9
:1008B000E1FE3A464346FFF7DDFE05E0FFF768FE3E
:1008C0003A464346FFF764FE029A0AB181F00041BE
:1008D000039AC2E90001B3E72DE9FF4F1F468DB02F
:1008E000D7E901464FF0FF382E2045464FF000096A
:1008F0000B90B9696D1C0E988847396A8246884703
:100900000028F6D1BAF1FF3F0AD024F4D064002EBB
:1009100011DDBAF12B0F08D0BAF12D0F0BD102E087
:10092000404611B08DE744F48064B9696D1C0E989F
:1009300088478246761E6946600501D52D2000E075
:100940002B208DF8000001F1010B0DF1200809E0CA
:10095000B9696D1C0E98884782460F9844F400745C
:10096000761E0560002E02DDBAF1300FF0D00B9933
:100970008A453ED144F0800406E00F99681CA9F135
:10098000010944F400740860B9696D1C761E0E9864
:10099000884782463028F0D02BE00B998A4505D154
:1009A000200603D444F08004761E18E0504642F03E
:1009B0009DFF08B30DF11301761E44F400748B45BE
:1009C00008D2AAF130000BF8010B200607D5A9F1D7
:1009D000010003E0200602D409F101008146A005D0
:1009E00002D50F99681C0860B9696D1C0E9888477C
:1009F0008246002ED1DC53E0002E51DDBAF1650FA6
:100A000002D0BAF1450F4BD1A00549D5B9696D1C8B
:100A100024F44074761E0E9888478246002E0CDD22
:100A20002B2804D0BAF12D0F07D144F48074B96992
:100A30006D1C0E9888478246761EE00501D52D2153
:100A400000E02B2108F8011BCDF82C8021E00DF1EE
:100A50002901761E44F4007488450CD2AAF13000B6
:100A600010F0FF0088F8000002D10B99884509D9E1
:100A700008F1010806E0E00501D5244801E042F252
:100A80000F708146B9696D1C0E98884782460F9891
:100A90000560002E04DD504642F028FF0028D6D124
:100AA000F9690E988847FF208BF8000088F800004D
:100AB0000020069007904B466A4608A906A8FFF753
:100AC00077FEA00502D46FF001002AE714F0240F8E
:100AD0000AD0E00714D1DDE906123868031D3B6037
:100AE0000068C0E900120BE0DDE9060100F0AEF895
:100AF0000146E00704D13868021D3A6000680160D1
:100B000028460EE7000014400000F03FF1D8FFFF38
:100B1000426842B1016811F8013B23B1521EC0E99D
:100B20000012184670470121C160881E7047426854
:100B30005AB1C368016843B983688B4205D0491E26
:100B4000521CC0E90012002070474FF0FF30704780
:100B500010B5141E73F1000408DA401C41F10001C5
:100B600092185B411A4301D120F0010010BD2DE91C
:100B7000F04D92469B4611B1B1FA81F202E0B0FA13
:100B800080F220329046FFF795FC04460F4640EA7B
:100B90000A0041EA0B0153465A46084313D0114656
:100BA00053EA010019D0C8F140025046FFF791FC0A
:100BB00005460E46504659464246FFF77BFC084321
:100BC00005D0012004E020463946BDE8F08D002024
:100BD000054346EAE0762C4337430A986305E40A66
:100BE000A0EB08000022FD0A44EA47540A3002D56F
:100BF00000200146E9E7010510196941DDE90845D2
:100C000000196941BDE8F04DA2E700007F2801D935
:100C1000002208E0064A02EB5002C007127800D119
:100C2000120902F00F0201209040084070470000B6
:100C300050AB08080EB540F2334202920022CDE9D3
:100C400000221346FFF793FF03B000BD01F00043FD
:100C500030B421F0004150EA010206D00A0DA2F59D
:100C60006072C1F31301002A02DC30BC002070471F
:100C7000440F44EAC104C100E01830BC00EBC2508C
:100C8000AFF300800029A8BF7047401C490008BF8F
:100C900020F00100704710B4B0FA80FC00FA0CF0AC
:100CA00050EA010404BF10BC704749B1CCF12004E4
:100CB00021FA04F411FA0CF118BF01212143084371
:100CC000A3EB0C01CB1D4FEA00614FEA102042BF9D
:100CD000002010BC704700EBC35010440029A4BF93
:100CE00010BC7047401C490008BF20F0010010BC38
:100CF000704770B58D1810F8014B14F0030201D144
:100D000010F8012B231106D110F8013B03E010F875
:100D1000016B01F8016B521EF9D1ABB110F8012B38
:100D200004F00C048A1A0C2C03D0A2EB84129B1C36
:100D300008E010F8014BA2EB0422F8E712F8014B8F
:100D400001F8014B5B1EF9D5A942D4D3002070BD38
:100D500070B5456882B004460146284619F05AFA33
:100D600068B123680F2B59D00BDD282B45D0B3F584
:100D7000107F3CD0112B49D020461AF017F802B052
:100D800070BD0B2B20D00E2BF6D1E3681A68596882
:100D90000D2A53D0202A31D1002928464FF48071E2
:100DA0007DDD19F027FB284603F000FF02AB846AC3
:100DB00043F8040D184604F05DF8A207DFD5284675
:100DC00001211BF0A7FEDAE7284602AD03F0EEFE94
:100DD00003466830019303F0AFFC55F8040D03217E
:100DE0006C3003F0CFFC284604F044F8C4E7324BE3
:100DF000214628461B689847C1E7E368002BBBD112
:100E000028464FF4807119F0A3F9B5E72B4B1B6806
:100E1000002BB4D0214628469847B0E7284603F077
:100E2000C5FE034602A840F8043D5B6E1C6804F052
:100E300021F8002CA3D02846A047A0E70029DDDD3B
:100E40004FF48071284619F0D5FA02AC284603F019
:100E5000ADFE866A44F8040D204604F00BF8B10795
:100E600003D5012128461BF055FE4FF4807128461A
:100E700019F06EF9284603F099FE034620461E8EAF
:100E80009C6A019303F0F6FF30460DF0B1FDA30715
:100E90007FF575AF284602211BF03CFE6FE719F085
:100EA00057F9284603F082FE034602A89C6A1E8E6C
:100EB00040F8043DE6E700BF80100220F0FD062068
:100EC0002DE9F04F87B0804689469246129E9B4698
:100ED000109F4C251A4C09F0B9F801965B46009713
:100EE0005246494640460395029419F063FE064671
:100EF00000B303F05BFE10221199124F059019F018
:100F000029FC0DF1180E3D1D5EF804CD0FCD0CF13E
:100F100034040FC40FCD0FC495E80F0084E80F0010
:100F20007B6B7046CCF8643003F0A4FF7B6B3046DB
:100F30005B6898470EF0A0FB304607B0BDE8F08F25
:100F4000510D0008801002202DE9F04F87B0804637
:100F500089469246119E9B46109F4C251A4C09F0DB
:100F600075F801965B460097524649464046039500
:100F7000029419F01FFE064600B303F017FE10227C
:100F80001399124F059019F0E5FB0DF1180E3D1D58
:100F90005EF804CD0FCD0CF134040FC40FCD0FC497
:100FA00095E80F0084E80F007B6B7046CCF8643046
:100FB00003F060FF7B6B30465B6898470EF05CFB8C
:100FC000304607B0BDE8F08F510D000880100220B8
:100FD0002DE9F04FB0F90A6087B0B0F90C708B467C
:100FE00085691644B0F90E801F44B0F910A004467C
:100FF000B0F908904C3509F029F8DFF8CCC04FF073
:10100000000E4246CDF800B03946304603955346AF
:10101000CDF808C0CDF804E019F0CCFD804628B921
:101020000EF02AFB404607B0BDE8F08F03F0BEFD8E
:10103000244F49460DF11809102205903E1D19F064
:1010400089FB59F804ED0FCE0EF134050FC50FCE14
:101050000FC596E80F0085E80F007B6B4846CEF879
:10106000643003F007FF7B6B40465B6898470EF0E7
:1010700003FB656808F0EAFF404603F097FD03466E
:1010800004A89C6E0493059403F0F4FE2946484698
:101090000FF094FF0028C3D0059B9C4209D0404626
:1010A00003F084FD059A034604A89A66049303F0AE
:1010B000E1FE40461BF0F0F80EF0DEFA404607B0C5
:1010C000BDE8F08F80100220510D0008974A81681A
:1010D00043682DE9F041044688B052F82160122B94
:1010E00040D8DFE803F0B03F3F3F3F0A973F3F3F24
:1010F0003F3F3F3F3F3F3F3F4300F569002D40F0FA
:10110000B580371F57F8040F0DF06EFA04F1140183
:1011100020690EC928445B1B521B2944013505F088
:10112000A1FF022DEED162693169E3690191911C41
:10113000F76813442069A2695B1028440097521B8A
:1011400005F060FEE1696269B0698B1E1144A26915
:101150000190491020697669521B0131284400969C
:1011600005F050FE002008B0BDE8F081006803F0F3
:101170001DFD876E0490002F00F0D080A368B0F9A9
:101180005C80002B00F0C880032B14BF00230223D7
:1011900000EB8303406D08AC1D6C0DF055FA28463A
:1011A0000DF022FA06A806F0B5FEB28BBDF81810B5
:1011B00006A8BDF81C301144BDF81A509A1ABDF8A3
:1011C0001E30ADF81810023554F8101D023BADF872
:1011D0001C20B1F96020B1F95E10ADF81E30ADF8F9
:1011E0001A500AF037FB204608AC03F043FE0220F9
:1011F0000DF0E6FB384603F0D9FC06A9424644F858
:101200000C0D05F019FB204603F034FE002008B059
:10121000BDE8F081006803F0C9FC049020681DF06F
:10122000B9F8B8B9049B5D6F05B9DD6E04A803F089
:1012300021FE0023284621681A4605F0A7F9002060
:1012400008B0BDE8F08100681BF0BEFF002008B0C8
:10125000BDE8F081A368002B64D1049A136F002BC2
:1012600014BF6C23682313445D68DFE7B268B0469F
:10127000C3690027039271688269029158F80409D2
:1012800000956169019020690FF042F958F8040F48
:101290000DF0AAF9F369A26921696069D21A1944AB
:1012A000384405F089FEF369A2692169E069D21A20
:1012B0001944C01B05F080FEF369E2696169206989
:1012C000D21A1944384405F015FFA069F369E269A0
:1012D000C01B61690137D21A194405F00BFF022FB8
:1012E000D4D1B0680DF080F9F16922696569901C6C
:1012F000E3690A445B1A2944013A05F06FFFF1697A
:10130000A0696569E369821E401A5B1A29440130AD
:1013100005F064FFF56906E7012339E704A803F047
:10132000A9FD1FE7049BDD6E80E700BF5403090899
:1013300070B5164604460D46049A3046194605F027
:10134000D9F8294602462046BDE8704000F070B842
:10135000054B064A064910B45C6A11605862204683
:101360005DF8044B704700BF84100220B4100220C7
:10137000B810022000B9704730B5044683B00D465E
:1013800008F064FE204603F011FC02AB456543F80B
:10139000040D184603F06EFD20461AF07DFF0EF096
:1013A0006BF903B030BD00BF38B5134600220446C8
:1013B0000D461846114605F0C7F829460246204654
:1013C000BDE8384000F034B870B582B018B90125D6
:1013D000284602B070BD04460D4608F037FE204690
:1013E00003F0E4FB0346866E68468DE8480003F090
:1013F00041FD294601A80FF0E1FD00280CBF0125A1
:1014000000250FD0019B9E4209D0204603F0CEFB61
:10141000019A034668469A66009303F02BFD204626
:101420001AF03AFF0EF028F9284602B070BD00BF4E
:1014300000B9704770B5054682B00C46164608F0F4
:1014400005FE284603F0B2FB022C019006D901A844
:1014500003F010FD0EF010F902B070BD1A34A400B4
:101460002044043003F068F9019B28461C44666060
:101470001AF012FFEBE700BFF0B5274F83B0054627
:101480003A68538CD46C116D1C44938CA4B20B44F9
:1014900021B29384013C5184ADF8001006F014FD94
:1014A000064628460FF0C2FB3B683444B3F924607B
:1014B0002044ADF80260013EADF8040006F05EFD88
:1014C00006446846ADF806601CF06EFB80B90A2D34
:1014D0001DD0BDF804303A6801331BB25384918C9F
:1014E000D46C106D1B1B091A5384918403B0F0BD9A
:1014F000284602F09DFD1CF0E9F90028E7D02846B7
:1015000002F096FD1CF0E2F90028F1D1DFE73A681D
:10151000B2F92230E3E700BF441002202DE9F04386
:101520000F4685B0064608F091FD112F49D0132FC4
:1015300040D0304604AC03F039FB0346C06B44F89E
:101540000C3D03F075FD8146204603F093FCA7F1A6
:101550004103192B98BF2037B9F1000F2CDD00256E
:101560000DF10C08304603F021FB03462946C06B01
:10157000039303F071FD0446404603F07BFC2046D4
:1015800084B103F013FB034602A8029353B11C7805
:10159000A4F14103192B98BF203403F06BFCE4B293
:1015A000BC4248D00135A945DCD10EF065F805B044
:1015B000BDE8F083002E5AD10EF05EF805B0BDE80C
:1015C000F083002EF8D008F041FD0DF110083046F0
:1015D00003F0ECFAB0F9344048F8040D404603F04B
:1015E00049FC0EF049F804B1013C08F02FFD3046EB
:1015F00003F0DCFA0346C06B039303F019FD00B15E
:1016000001388442039BA8BF0446B3F93420A242A8
:1016100029D09C86404603F02DFC30461AF03CFE53
:10162000304604211BF076FA0EF026F80EF024F86E
:1016300005B0BDE8F083002EBED008F007FD3046AF
:1016400003F0B4FA0346C06B039303F0F1FC00B15E
:1016500001388542039BA8BF0546B3F93420AA424E
:1016600001D09D86D6E7404603F004FCDCE70DF18F
:10167000100808F0EBFC304603F098FAB0F934405B
:1016800048F8040D404603F0F5FB01340DF0F4FF7B
:1016900008F0DCFC304603F089FA0346C06B039384
:1016A00003F0C6FC00B10138A042039BA8BF20464E
:1016B000B3F934208242D6D09886ABE7F8B1F1B1C5
:1016C00070B5044682B00D4608F0C0FC204603F019
:1016D0006DFA02ABC66B43F8040D184603F0CAFB63
:1016E0002846FEF79DFE2946421C304603F0EAFBE1
:1016F00020461AF0D1FD0DF0BFFF02B070BD70475B
:1017000070B5456882B00446284603F04FFA02AB34
:10171000D0F8886043F8080D184603F0ABFB21466B
:10172000284618F077FD60B32368112B5ED01DDCCE
:101730000E2B28D00F2B65D00B2B1FD1284602ADC6
:1017400003F034FA0346C06B019303F00DFC019BD8
:10175000D3F8880019F076FB55F8043DD3F89400CF
:1017600002F0C0FF284603F085FB07E0262B24D0BB
:10177000B3F5107F00F09D80212B54D0204619F046
:1017800015FB02B070BDE3685A68002AF6DD1968DF
:10179000A1F10903192B00F29980012280489A4097
:1017A00010400028EAD1120226D4002B40F08E808F
:1017B00019F0A0FE8642E1D114E0E1680A2900F0A8
:1017C0008C800B2900F08D800129D7D1304612F092
:1017D00027FE0028D2DB304612F022FE0646002DFE
:1017E00040F09B8028461BF003FCC7E7002EC5D1C4
:1017F000E3681B7A002BC1D0002DBFD0284600F033
:1018000095FABBE7284603F0D1F9034602A840F851
:10181000043DD3F884301E6803F02CFB002EADD0BD
:101820002846B047AAE7E3685A68002AA6DD1B6885
:101830000D2BA3D1304612F0F3FD002863DB3046B8
:1018400012F0EEFD0646002DCCD008F0FFFB284636
:1018500003F0ACF90346C06B019303F0E9FB00B160
:1018600001388642019A334601AEA8BF0346B2F959
:101870003410994200F08F809386304603F0FAFAD4
:1018800028461AF009FD042128461BF043F90DF003
:10189000F3FE08F0DBFB284603F088F9D0F8883027
:1018A0000190002B6CD1304603F0E4FA0DF0E4FE19
:1018B00098E7E36863B31B7A28461BB101211BF04C
:1018C00029F95EE702211BF025F95AE7002D3FF4C4
:1018D00058AF2846FFF722FE53E728461BF01AF9B7
:1018E0004CE7002D3FF44AAF08F0B0FB284603F068
:1018F0005DF9D0F8883001908BBB01A803F0BAFAEB
:101900000DF0BAFE3AE7002D3FF46CAF01AEC0E730
:10191000284603211BF0FEF833E708F097FB284622
:1019200003F044F90346C06B019303F081FB08B355
:101930000138B042019BA8BF3046B3F93420904231
:101940001AD0988601A803F095FA28461AF0A4FC4C
:10195000042128461BF0DEF80DF08EFE42E7184603
:1019600019F070FA019B00222846C3F888201AF06B
:1019700093FCC2E70020DCE701A803F07BFAEBE769
:10198000184619F05FFA019B00222846C3F8882008
:101990001AF082FC87E7304603F06CFA77E700BF65
:1019A000020004032DE9F04F8B46B0F90C1089B00A
:1019B000B0F90A70856901EB0308B0F910301744DB
:1019C000B0F90EA0002605936C35B0F81290B0F96E
:1019D000084008F03BFB384B5246CDF800B041467A
:1019E0000293384603954FF0FF33019619F0E2F861
:1019F000824628B90DF040FE504609B0BDE8F08F90
:101A00002E4F03F0D3F82146102206903D4618F0E1
:101A1000A1FEDDF818E00FCD0EF14C048EF88C908D
:101A20000FC40FCD0FC40FCD0FC495E80300BB6BDF
:101A300084E80300CEF8843050468EF89060BDF8FC
:101A40001430AEF8363003F0B1F8B0F93810079022
:101A500061B30346DA6A1846B3F98040136803EBB2
:101A600044040C441CF090F8054607A803F002FA61
:101A70002246294650461BF061FC06A803F0FAF9FD
:101A800003F06EFA0446504603F090F8034606A8A9
:101A9000DC63069303F0EEF9BB6B50465B68984736
:101AA0000DF0EAFD504609B0BDE8F08FC06C06F0BD
:101AB000DBFA079B0146CDE701170008441102201D
:101AC0002DE9F04188B00446006803F06FF8034642
:101AD00008A8D3F8886040F8103D5F8E03F0CAF97B
:101AE00020681CF057FC26B9FB0740F1A7808C4DFD
:101AF00000E08C4D6368122B00F29C80DFE813F04D
:101B000009019A00E1009A009A0013009A009A00D5
:101B10009A009A009A009A009A009A009A009A00F5
:101B20009A009A00A500AA682F1FE3690026039275
:101B30006968A2690291286861690190D4F810E08F
:101B4000A86A009070460EF0E3FC57F8040F0CF002
:101B50004BFDAB6AA26921696069D21A194430440D
:101B600005F02AFAAB6AA2692169E069D21A194420
:101B7000801B05F021FAAB6AE26961692069D21A1B
:101B80001944304405F0B6FAA069AB6AE269801BDB
:101B900061690136D21A194405F0ACFA022ED4D18B
:101BA000A86A022819DDA8680CF01EFDA96A22693E
:101BB0006669901CE3690A445B1A3144013A05F0F6
:101BC0000DFBA96AA069E369821E6669401A5B1A67
:101BD0003144013005F002FBA86A62692969E369B2
:101BE0000191911C27691344EE68A2695B1000966D
:101BF000121A384405F006F9E1696269AE698B1E74
:101C00001144A86AA269491001962769121A6E69DF
:101C100001313844009605F0F5F8686A0CF0E4FCF0
:101C2000E3696169A0691A1F5B1A0431C01A0130A7
:101C300005F060FA002008B0BDE8F0813A4BA3F14E
:101C40002C05002808BF1D4654E7206802F0AEFFAF
:101C5000034608A8B3F9806040F80C3DD3F84C80E7
:101C6000B3F9827003F006F9B4F814E0B2B2A369D4
:101C700020690EEB03010EF1020E10440339ADF89A
:101C80001AE0B4F81CE0861C8B1A0220AEF10202A6
:101C9000ADF81860CEEB0303ADF81E20ADF81C3094
:101CA0000CF08EFE40460CF0CFFC286A0CF09CFC39
:101CB000206A3A4606A904F0BFFD002008B0BDE83E
:101CC000F08104F11401E8690EC95C1AA4F1080658
:101CD000651C7610A2EB650506F1FF380CF084FC5C
:101CE000C8EB0404B8F1000F4FEA6404A2DBAF1B99
:101CF0004544264401373F1B3919204601342A4602
:101D000005F05AF9013DA642F6D1002008B0BDE821
:101D1000F08120681BF058FA002008B0BDE8F0817F
:101D2000681302203C130220C01302202DE9F04F5B
:101D300007469BB008F08AF938460FAC02F036FF30
:101D40000D90384619F074FE0D9B0690DD6B93F8EC
:101D50009020284693F88C80B3F936900B92B3F913
:101D600034A003F065F90D9B06461A6DB3F88EB0EA
:101D700011925A6E05925A6D12929A6D1392DA6D03
:101D800014921A6E1592059A16921A6F17925A6F3C
:101D900018929A6F1992B3F9822093E80300079280
:101DA000DA6CD3F894300892059384E803000DA808
:101DB00003F060F8384619F029FD02F0F7FE1AAB7F
:101DC000B0F90010B0F9022043F8380D18460A9116
:101DD000099203F04FF8099A20460A995242494263
:101DE00009F038FD18F0020F77D0BDF83E30C9EB8E
:101DF00003031BB23846ADF83E30022419F006FD4D
:101E000001460698029400900020BDF93E30BDF9CD
:101E10003C20CDF8049012F091FA18F0010F04461E
:101E20005ED16EB14FF000084146284608F1010826
:101E300003F012F90146204611F056FE4645F3D153
:101E4000002611AD55F8262031460136204612F005
:101E50002DFD032EF6D1002614AD55F8262031466F
:101E60000136204612F082FF032EF6D1002617AD70
:101E700055F8262031460136204612F0FBFD032E90
:101E8000F6D1059BA3BB5946204612F0B7FD089931
:101E9000204612F02FFD0799204612F04DFF2046F4
:101EA0001BF0A6F83946204612F0C4FD51462046E4
:101EB00012F05AFE012138461AF02CFE384602F084
:101EC00075FE03460DA8C3F888400D9302F0D2FFBB
:101ED0000DF0D2FB1BB0BDE8F08FBDF9423089E7B1
:101EE0000B9912F00BFE0121204612F0A9FC98E795
:101EF000184602F05BFE068805460E9096B14FF03C
:101F0000000805EBD80308F00702414608F1010874
:101F10009B78204643FA02F202F0010212F008FD1B
:101F2000B045EED10EA802F0A5FFACE700B97047AE
:101F300030B5044683B00D4608F088F8204602F01C
:101F400035FE90F88C200346019002F0FE046DB936
:101F500094420FD0D3F8885001A883F88C4002F047
:101F600089FF75B90DF088FB03B030BD44F0010462
:101F70009442EFD101A802F07DFF0DF07DFB03B08C
:101F800030BD04F00101284612F05AFCEAE700BF18
:101F900000B9704730B5044683B00D4608F056F8D6
:101FA000204602F003FE0346C06B019303F040F8A5
:101FB000B0B9A842019BA8BF2846B3F93420824299
:101FC00010D0988601A802F055FF20461AF064F957
:101FD000204604211AF09EFD0DF04EFB03B030BDEB
:101FE0000138E6E701A802F045FF0DF045FB03B01C
:101FF00030BD00BF00B9704770B5044682B00D46D1
:1020000008F024F8204602F0D1FD02AB058743F822
:10201000080D184602F02EFF204602F0C7FDB0F969
:1020200038100190D1B10346DA6A1846B3F98050EE
:10203000136803EB45050D441BF0A6FD064601A8F9
:1020400002F018FF2A46314620461BF077F9204659
:102050001AF022F90DF010FB02B070BDC06C06F052
:1020600003F8019B0146DFE730B583B00C4602F070
:102070009DFD02AD214645F8040DC06B02F0ECFF5A
:102080000446284602F0F6FE20460CB102F08EFD12
:1020900003B030BD2DE9F04F446805468BB02046B3
:1020A0001CF078F929460646204618F0B3F80028B7
:1020B00038D02B680F2B60D037DC0B2B4AD00E2B7F
:1020C00055D1002E53D0EB685A68002A4FDDD3F863
:1020D0000080A8F10903192B06D80121C34A01FA8F
:1020E00003F31A40002A42D1E4B107F0AFFF0AAE71
:1020F000204602F05BFD0346876D46F8180D30461A
:1021000093F854A0D3F83490DD6C02F0B3FE002FA6
:1021100000F0E28041462046B84720461AF0BCF85D
:102120000DF0AAFA0BB0BDE8F08F40F21312934203
:1021300028D0B3F5107F1AD1EB68002B00F09A80FD
:102140001A7A002A52D0002C41D1204601211AF0DF
:10215000E1FC0CE020460AAC02F028FD03463430D6
:1021600044F8043D02F0E8FA204602F083FE2846D7
:1021700018F01CFE0BB0BDE8F08F2046012130F0B6
:102180009FFACFE720460AAE1AF0F4FD204602F08F
:102190000DFD034646F8040D304693F8562082F0B4
:1021A000040283F8562002F065FE0021204630F03C
:1021B00087FA204602F0FAFC03460021D0F884009A
:1021C00009931AF0A3FD304602F054FECFE71E68D3
:1021D00007F03CFF204602F0E9FC436B079053B93F
:1021E00007A802F047FE0DF047FAAEE720460221AD
:1021F0001AF090FCBBE7184602F0D8FC079B06904B
:10220000986E0CF021FA8046204619F011FC074622
:10221000069805F0EDFE079A8146136E03F003035E
:10222000012B00F0E781022B40F0DD813B1A0133E6
:1022300048BF0133A6EB630606980EF0DDFC002EC6
:102240000746C0F2F881B14519DA204602F0AEFC2B
:10225000436B0890002B40F0D38108A802F00AFEDF
:1022600006A802F007FE40460CF0EEF920461AF0F0
:1022700013F8B5E7204603211AF04CFC77E7024635
:10228000314606980EF038FC0646204602F08EFCD9
:10229000436B0890002BE0D0184626EAE67602F061
:1022A00085FC09900EF0A8FC0899B1F9383091F836
:1022B0005470CA6C002F18BF013BB342A8BF33460D
:1022C0009842A8BF1846824200D0C864002309A8DB
:1022D0000B6502F0CFFDC0E7A8F10803162B00F252
:1022E000E680DFE813F0A000E400E400E400E4008E
:1022F000E400E400E400BC00850076004800E4004F
:10230000E400E400E400E400E400E400E400E400AD
:1023100038001700204602F049FC03460AA85D6B0E
:1023200040F8083DDF6C02F0A5FD002D3FF4F5AE4E
:10233000284602F03BFC3946064609900DF072F83B
:1023400005463046FEF76CF88542C0F0E28109A8E8
:1023500002F090FDE1E6204602F028FCBAF1010F00
:102360000346049040F08781002280F854203046D4
:1023700002F080FDD1E6B9F1000F3FF4CEAE484641
:1023800002F014FC0646294609900DF04BF806446D
:1023900030460CF0F3FF002305468DF82230ADF8EF
:1023A0002030013D0DF00AF80746ADB228460DF089
:1023B00005F88742CBD1294608A80CF0CDFF08A923
:1023C0003A463046FDF7CFFF052120461AF0A2FB22
:1023D000BDE7204602F0EAFB436B0890002B40F07B
:1023E000A88108A802F046FD97E600BF1300040389
:1023F000B9F1000F3FF491AE484602F0D7FB064614
:10240000294609900DF00EF8064430460CF0B6FF50
:10241000002305468DF82230ADF8203001350CF050
:10242000CDFF0746C1E7002D3FF477AE204602F00E
:10243000BDFB436B0890002B40F0948108A802F08C
:1024400019FD204602F0B2FB034608A85D6BDF6C65
:10245000089302F00FFD002D3FF45FAE68E72046C1
:1024600002F0A4FB436B0890002BBAD0184602F090
:102470009DFB09900EF0C0FB089A6B1EB2F9381054
:1024800023EAE37392F85460D56C002E18BF01392B
:102490008B42A8BF0B469842A8BF1846002385422E
:1024A000136518BFD06409A802F0E4FC99E7B8F1FD
:1024B0001F0F7FF732AEBAF1000F40F008812046BF
:1024C00002F074FBB0F9383081460590002B07DD2F
:1024D000406B002840F06B8107469F4280F2638189
:1024E0001FFA88F30DF128091E46019359F8143D8F
:1024F000DB6C4846039302F0BDFC30460CF05EFFF7
:102500008346204602F052FB436B0690002B40F0BE
:102510008F811E460AA80BEB060350F8102D0133DD
:10252000568F9E1B02F0A6FC002E40F37E812046B3
:10253000103602F03BFB0346B0F83A800AAFD3F8FE
:1025400034A0B04447F8080D384602F093FC4146E9
:10255000504602F03FFB029000283FF4DEADBAF196
:10256000000F00F0548109AE204602F01FFB029AD2
:10257000034638460893A3F83A805A6302F07AFC7F
:10258000204602F013FB03464846D3F834800593F7
:1025900002F070FC404602F009FB80460399099066
:1025A0000CF040FF80444046FDF73AFF4146421C94
:1025B00008EB0B00FDF7D7FE019940460CF0CCFE6E
:1025C000304602F057FC052120461AF0A3FA2046B7
:1025D00002F0ECFA436B0890002B40F0F68038468E
:1025E00002F048FC99E5536ED16A5A1C0B681344FB
:1025F000F61A21E6536E3F1A0133FB1AF61A1BE650
:10260000184627EAE77702F0D1FA09900EF0F4FABB
:102610000899B1F9383091F85460CA6C002E18BF8F
:10262000013BBB42A8BF3B469842A8BF1846824226
:102630007FF44BAE4AE6204602F0B8FA436B0890AE
:10264000002B3FF40AAE184602F0B0FA09900EF0E3
:10265000D3FA0899B1F9383091F85460CA6C002E59
:1026600018BF013B03EAE3739842A8BF18468242B1
:102670007FF42BAE2AE60122204683F8542002F094
:1026800095FA436B0890F3B1184625EAE57502F018
:102690008DFA09900EF0B0FA089AB2F9383092F833
:1026A0005470D16C002F18BF013BAB42A8BF2B4622
:1026B0009842A8BF184600238142136518BFD06412
:1026C00009A802F0D7FB08A802F0D4FB4FE60AAF36
:1026D000204602F06BFA466B034647F8080D384671
:1026E000D3F84C9002F0C6FB002E3FF4E8AE304623
:1026F00002F05CFA4946074609900CF093FE064644
:102700003846FDF78DFE86421CD309A802F0B2FBC5
:10271000D5E6354428460CF041FE29182846FDF739
:10272000A1FE09A802F0A6FB052120461AF0F2F945
:10273000F3E4184602F03AFA09900EF05DFA089AAE
:102740006B1C9BE63E4430460CF028FE31183046A8
:10275000FDF788FE09A802F08DFB052120461AF03E
:10276000D9F9ACE6184602F021FA09900EF044FAC5
:10277000089A6B1EB2F9381092F8546023EAE3739A
:10278000D56C002E18BF01398B42A8BF0B4698426A
:10279000A8BF184600238542136518BFD06409A856
:1027A00002F068FB4AE605A802F064FBB5E40AAE55
:1027B00002F0FCF946F8040D0EF01EFA074630460A
:1027C00002F058FBB9F9383087E6184602F0EEF906
:1027D00009900EF011FA08996B1C91F854E0B1F9C8
:1027E000385023EAE373CA6CBEF1000F18BF013DF5
:1027F000AB42A8BF2B469842A8BF18460023904280
:102800000B6518BFC864304602F034FBE7E602F0FF
:10281000CDF90AAE0D4B514646F8040D42461B68F1
:102820009847304602F026FB9EE609AE08AFA7E6C1
:1028300018460AAF02F0BAF947F80C0DFDF7F0FDA3
:102840000646384602F016FB64E600BF1C13022061
:102850002DE9F04F89B0804689469246139C9B46ED
:10286000129E602744F48054404D07F0EFFB009621
:102870005B4601945246494640460397029518F03C
:1028800099F9064628B90CF0F7FE304609B0BDE8C4
:10289000F08F02F08BF910221599059017F05AFF6E
:1028A000334D4FF0010E059F0FCD07F160040FC4AB
:1028B0000FCDD5F800C0169D0FC40135169BC4F886
:1028C00000C018BF0125002B87F855E087F8885015
:1028D00048DDBDF9583003EB0E0400223B8705A804
:1028E0000DF120087A877A6302F0C4FA304602F0CC
:1028F0005DF90346428F5D6B144448F8080D40466D
:1029000002F0B8FA2146284602F064F90746F8B109
:102910007DB1304602F04AF9034640465C875F636A
:10292000069302F0A7FA0CF0A7FE304609B0BDE806
:10293000F08F02F03BF90DF120090E4B294649F8C2
:10294000040D22461B689847484602F093FAE0E7D8
:1029500030463E4618F076FA0CF08EFE304609B04E
:10296000BDE8F08F09240823B7E700BF95200008D1
:10297000EC1302201C130220014B9868704700BF23
:10298000EC13022010B5044682B068B107F05EFB7C
:10299000204602F00BF902AB846C43F8040D184694
:1029A00002F068FA0CF068FE204602B010BD00BFCD
:1029B00000B9704770B5044682B016460D4607F060
:1029C00045FB204602F0F2F80346019008B1022DC3
:1029D00006D901A802F04EFA0CF04EFE02B070BD0E
:1029E00005F11E01204643F8216019F055FCF0E77F
:1029F00070B5044682B00D4607F028FB1CB90CF0F8
:102A00003BFE02B070BD204602F0D0F8436B009050
:102A1000F3B1184602F0CAF801900EF0EDF8009AF2
:102A200025EAE57392F85460B2F93850D16C002E63
:102A300018BF013D9D42A8BF1D460023A842136553
:102A4000A8BF2846814218BFD06401A802F012FA3C
:102A5000684602F00FFA204619F01EFC0CF00CFE3E
:102A600002B070BD2DE9F047064682B08A46144692
:102A70001D469DF82C8007F0E9FA26B90CF0FCFD04
:102A800002B0BDE8F087304602AF02F08FF803468F
:102A90004FF001094448002244499DF828E0C3F85A
:102AA00048A093F888A0986547F8043D3846DC6351
:102AB0001D6483F844E083F85680D965DA6483F8AE
:102AC000549002F0D7F9BAF1000F2DD0002D61DB40
:102AD000092D48460BDD364A82FB0513ED17013000
:102AE000C5EBA305092DF7DCB9F1FF3F3ED0002C63
:102AF00049DB092C55DD012529462D4A82FB04E3DB
:102B0000E4170131C4EBA304092CF7DC013524D010
:102B10000A9B3BBB18F0010F18BF01308142B8BFC0
:102B20000146304600F048F8304634F055F830465B
:102B300002F03CF8019000F001F91E4B1B78834233
:102B40001AD0384602F096F9304619F0A5FB0CF081
:102B500093FD02B0BDE8F08702214B1E0A9A9A420B
:102B6000D6D1013101310130D4E70220431E0A9A47
:102B70009A4208BF0130BAE7019B3046D96C013157
:102B800000F0FAF8DDE76442092CE5DD4FF0FF358F
:102B90000221B2E76D42092DE7DD4FF0FF39022037
:102BA00099E70121B4E700BF91F40108D96B03084C
:102BB000676666668C00072000B970472DE9F04F04
:102BC000054685B00C4607F041FA284601F0EEFFB5
:102BD000B0F938300090A3423DD0468F02DD406B03
:102BE00000283AD16846A61B02F044F9284601F0B5
:102BF000DDFF01360346428F04AFE846D3F8349038
:102C0000164447F8080D384602F034F93146484674
:102C100001F0E0FF824668B1B9F1000F28D02846E4
:102C200001F0C4FF034638465E87C3F834A0029320
:102C300002F020F9284601F0B9FF034628461C8718
:102C4000009319F029FB404602F014F90CF014FD32
:102C500005B0BDE8F08FE846F5E701F0A7FF019069
:102C60000DF0CAFF844212DB01A802F003F9B9E7B4
:102C700001F09CFF0DF1100B094B49464BF8040D78
:102C800032461B689847584602F0F4F8C7E72146D9
:102C900001980CF0C7FB019B00221A54E4E700BF27
:102CA0001C13022000B9704770B5044682B0164666
:102CB0000D4607F0CBF9204601F078FF019008B1EE
:102CC000022D06D901A802F0D5F80CF0D5FC02B00F
:102CD00070BD00EB85012046CE6619F0DDFAF1E704
:102CE00000B9704730B5044683B00D4607F0AEF921
:102CF000204601F05BFFC36B016CAB42826C01901C
:102D0000B8BF2B469942A8BF19468A4212D0C36D5C
:102D100081640BB120469847204619F0BDFA01A8FE
:102D200002F0A8F82046052119F0F4FE0CF0A4FCEE
:102D300003B030BD01A802F09DF8F7E7436B70B512
:102D400082B01BB91C46204602B070BD044618462E
:102D500001F02CFF02AD0646E16C45F8040D0CF0C5
:102D600061FB30440CF00AFB0446284602F082F86E
:102D7000204602B070BD00BF30B583B00C4601F0F4
:102D800015FF436B0090FBB1184601F00FFF019057
:102D90000DF032FF009A24EAE473B2F9381092F889
:102DA0005440D56C002C0CBF0C464C1E9C42A8BF56
:102DB0001C460023A0421365A8BF2046854218BFC9
:102DC000D06401A802F056F8684602F053F803B048
:102DD00030BD00BF2DE9F04304468BB018B9204642
:102DE0000BB0BDE8F08316460D461F4600F0D6FC3A
:102DF0008046204600F0B6FC814607F027F905A979
:102E0000204600F0CBFEEA0719D4AB07BDF920003D
:102E10004CBF40F20223022330444246029349460B
:102E200043468DE89000FEF74BF80446002117F06A
:102E30000DFB0CF021FC20460BB0BDE8F083BDF982
:102E4000242008F1FF308223101A801BE5E700BF21
:102E500010B50523FFF7BEFF0446054A0021FEF723
:102E6000A3FA2046034919F0F9FF204610BD00BF20
:102E70008D4A0208C173030810B50723FFF7AAFFA4
:102E80000446054A0021FEF78FFA2046034919F04F
:102E9000E5FF204610BD00BFE54B0208D9730308CB
:102EA00010B50823FFF796FF0446054A0021FEF7F8
:102EB0007BFA2046034919F0D1FF204610BD00BF20
:102EC0004D4E0208197403082DE9F047466886B094
:102ED0000546304601F06AFEC36D0090D0F8884088
:102EE000D0F88070D0F86880B0F87C90002B64D067
:102EF000D3F800A0684601F0BDFF14B909E02468CA
:102F00003CB16368284698470028F8D006B0BDE871
:102F1000F0872B68172B00F0A5801DDC0F2B00F02D
:102F20008D807DDC0B2B00F0BF800D2B0AD119F0BA
:102F3000080F07D1EB68DB6823B11B7A13B1304669
:102F40001AF056F83046294617F064F90028DDD00B
:102F5000284617F02BFFD9E7262B75D02FDC1E2B28
:102F600000F0AE80202BEDD1EC68002CEAD0314689
:102F700060681BF0F5F9002800F0C080304601F0D1
:102F800015FEB0F87C3002460190180740F12D8103
:102F900001A801F06FFF314660681BF0CFF90028EF
:102FA000D0D0304601F002FE6268034601A80193CA
:102FB000C3F8802001F05EFFC4E79A469AE72A2B07
:102FC00065D0B3F5107FBDD106AC3046D5F80C8086
:102FD00001F0ECFDB0F87C7044F8140D204601F0CF
:102FE00049FFEB68002B91D098F80830002B00F0D7
:102FF000AB80380740F1B780304617F01FFD07F46B
:103000008873B3F5887F81D107F080039BB2002BD2
:103010007FF47CAF41463046052219F063FF75E727
:10302000112B22D0142B8DD1304601A900F0B6FD12
:1030300002ABEA6803CB1060516067E7BAF1000F9A
:1030400080D03046D0477DE7EB68022B7FF45EAF3F
:10305000272206A9A86841F8142D039604931BF0B3
:1030600005FB53E7C5F80C8050E7EC68304601F0EB
:103070009DFD01902389012B05D1B0F87C3043F4EC
:103080008073A0F87C3001A801F0F4FE5AE73046C6
:1030900001F08CFDEB680090002B68D0C0F8843004
:1030A000684601F0E7FE31E7304601F07FFD034658
:1030B0007030009301F040FB684601F0DBFE41E711
:1030C000EC68012C57D0002E3FF420AF06F0BEFF75
:1030D000304601F06BFDB0F87C30024601901C07D1
:1030E00006D523F008033046A2F87C3019F0D4F856
:1030F00001A801F0BFFE0CF0BFFA07E7304601F06F
:1031000055FDB0F87C3002460190190706D523F032
:1031100008033046A2F87C3019F0BEF801A801F08F
:10312000A9FE314620681BF009F900283FF40AAFD8
:10313000304601F03BFD2268034601A80193C3F825
:10314000802001F097FEFDE6304601F02FFD03469A
:103150002046B3F87C20019322F48072A3F87C20EF
:1031600001F088FED2E6304619F042FF44E7D0F87D
:103170008430EB6094E7384619F0AEFB20B3384654
:1031800019F036FF384618F035FFB0B926B9002FD0
:103190007FF4BCAEEF60B9E606F058FF304601F0B0
:1031A00005FDB0F87C3002460190190725D501A82D
:1031B00001F060FE0CF060FAE9E72146384617F0AE
:1031C00019F9002EE3D0E7E7404619F07DFF0746E6
:1031D000304601F0EBFC03466846C3F8807000936C
:1031E00001F048FE002ED2D0D6E743F00803304667
:1031F000A2F87C3019F050F8CAE643F008033046D4
:10320000A2F87C3019F048F8D1E700BF2DE9F04F63
:103210000F46B0F90C108FB0B0F90A6001EB030B48
:10322000B0F9083085691644049343686035B0F9F5
:103230000E80B0F91090B0F812A0059306F006FFCA
:103240004B4C4FF4805E03955946009730464B46F1
:1032500042460294CDF804E017F0ACFC054628B9CC
:103260000CF00AFA28460FB0BDE8F08FDFF808919D
:103270000EAE01F09BFC04993022069017F06AFA1A
:1032800056F8207DCE464FF0000807F13404BEE822
:103290000F000FC4BEE80F000FC49EE80300189B88
:1032A00084E803007B663046D9F8283041F2827406
:1032B000A7F87CA0FB65C7F88080C7F86C80C7F8CA
:1032C000888001F0D7FD09A928462A4F00F066FC46
:1032D000BDF92AE0BDF92810BDF92C20BDF92E302A
:1032E0000846521A0194CEEB030371460132CDF821
:1032F0000C8001330095029717F05CFCD9F8283058
:10330000044628465B689847284601F04FFC034670
:1033100030469C66069301F0ADFD284617F0B8FED6
:1033200006F094FE284601F041FC034607A81A6FF8
:103330000793089201F09EFD059908A80DF03EFE46
:1033400038B90CF099F90CF097F928460FB0BDE8A0
:10335000F08F284601F02AFC089A034607A81A674E
:10336000079301F087FD284618F096FFE9E700BFB4
:10337000C92E0008353F0008801102202DE9F041D8
:10338000044690B0006800F0D5F9B04B6668A3F130
:103390002C05002808BF1D461C2E00F2F780DFE830
:1033A00016F02200F500F500F500F5003500F500F7
:1033B000F500F500F500F5005100F500F500FA0004
:1033C000F500F500F5000E01F500F50048014A0191
:1033D0004C014E01F500F500F5001D006E69304608
:1033E00010B0BDE8F081206801F0E0FB034610A8B2
:1033F000B3F85A2040F82C3D42F00C02A3F85A20B2
:1034000001F038FD206819F0DFFEE8E72A690026A0
:10341000B4F910300192B4F914701846EA68B4F99E
:1034200018503946B4F91C40ADF81C3000922346C0
:103430002A46ADF81E70ADF82050ADF8224003F0DA
:10344000E1FCCCE723681C2218460892079301F0A0
:10345000ADFB034607A805931B6D9847064605A8D4
:1034600001F008FD012E40F32781A9683346626907
:1034700002916868A16901902F68206900970CF09B
:1034800043FF2769A3693744C6EB030828680BF09C
:10349000ABF842463946606903F08EFD68680BF070
:1034A000A3F8606942463946013003F085FD6B6A36
:1034B000022B00F3F4802A6A964217DA6769012E1C
:1034C000206907F1020840F32A810244374430445E
:1034D0004146013A3B4603F081FEA069821B3B4610
:1034E000EF694146C01B013003F078FE012E40F326
:1034F000138163691E44E7692868013F0BF074F883
:10350000314620693A4603F0F5FD3A463146A06956
:1035100003F0F0FDE76968680BF066F8023F206988
:1035200031463A46013003F0E5FDA0693A4631469E
:10353000013803F0DFFDEB69022B40F38280AB6AB8
:10354000E769022BA868CCBFFF1A023F0BF04CF8CA
:10355000EA69022A00F39A802B6A022B00F38C801E
:1035600028680BF041F8A2692169E06903F024FDA5
:1035700068680BF039F8A2692169E069013A013104
:10358000013803F019FDAF6A022F61DC00263046D6
:1035900010B0BDE8F08104F114012769A868002685
:1035A000ADF81C700EC9ADF81E10ADF82020ADF8B6
:1035B00022300BF019F807A803F03CFE0FE7298B27
:1035C0002269A3690A4465695B1AE1692068ADF85C
:1035D0002030ADF81C20ADF81E50ADF8221001F0DF
:1035E000E5FA036F0590FBB102200BF0E9F9059AAB
:1035F000B2F87C30C3F3C0030E3302EB8303986848
:103600000AF0F2FF059B586B0BF01EF8059B186F34
:1036100001F0CCFA059B07A90690B3F95A2003F0F4
:103620000BF906A801F026FC05A8002601F022FCF3
:10363000D5E6AE6AD3E6EE69D1E62E6ACFE66E6ACB
:10364000CDE62B6A022B8BDD79E700BF50140220F8
:10365000D4F81C800026A2692169A868951E8C1CDC
:103660000AF0C2FFC7EB08012A462046A8F1020370
:10367000013103F0B3FDB2E6A0693B46EF69314684
:10368000821EC01B013003F0A9FD69E720693B469B
:10369000314602440230013A03F0A0FD5CE7A8681D
:1036A0000AF0A2FF636938466F6A991C42463B44A0
:1036B000013B03F093FD19E728680AF095FF2269A2
:1036C000EB69114660691A44013A03F075FCA3697D
:1036D000E9691A466069591A013103F06DFC67699E
:1036E00020690137394603F093FC3946A06903F09D
:1036F0008FFC68680AF078FF20693946013003F0D2
:1037000087FCA0693946013803F082FC2769A36968
:103710000237A3F10208B9E666690236EBE6024415
:10372000434602304146013A474603F057FDA0693F
:10373000821ED4E610B5044682B080B106F086FC45
:10374000204601F033FA02ABB0F87C4043F8040D98
:103750001846C4F3C00401F08DFB0BF08DFF20462A
:1037600002B010BD30B5044683B0A0B106F06EFCC7
:10377000204601F01BFA02ADC26D0346002120462F
:1037800045F8043D93681B6898470446284601F0B5
:1037900071FB0BF071FF204603B030BD10B504463D
:1037A00086B010B9204606B010BD06F04FFC20468A
:1037B00001A900F0F3F9204601F0F8F906ABB0F9E1
:1037C000544043F8180D184601F054FB0CB9BDF9EC
:1037D00004400BF051FF204606B010BD00B9704701
:1037E0002DE9F043054685B006F030FC284601F08F
:1037F000DDF90190284631F00DFC019BB3F87C20E7
:10380000120634D4986901F0D1F983690290B0F9B5
:103810000060B0F90270002B4AD0B0F90480B0F912
:10382000069002A801F026FB019B03F17402DC69FB
:1038300093E8030082E80300B3F87C2042F08002A2
:10384000A3F87C2034B91AE0039B03A81C6A01F09A
:1038500011FBA4B1204601F0A9F90390204617F00E
:1038600069FE0728F0D1204618F016FDECE701A804
:1038700001F000FB0BF000FF05B0BDE8F08301A8EC
:1038800001F0F8FA3A463146284619F07FF8C7EBBE
:103890000902C6EB080128460132013119F04EFD3C
:1038A000284600F009FB0BF0E7FE05B0BDE8F08309
:1038B0000FF0A0FA0FFA80F80FF0E2FA0FFA80F991
:1038C000AFE700BF00B97047F0B5054683B006F01A
:1038D000BDFB284601F06AF90090284631F052FB02
:1038E000009BB3F87C20520606D5684601F0C2FA68
:1038F0000BF0C2FE03B0F0BDB3F906201846B3F9D1
:103900000260961B00F0D4F9009B0136D96A03F1DE
:1039100074020F6800EB470793E80300023782E860
:103920000300986E18F074FB009BD86E18F070FBC3
:10393000009BB3F87C20DC6942F04002A3F87C20B5
:1039400034B912E0019B01A81C6A01F093FA64B13A
:10395000204601F02BF90190204617F0EBFD0828D6
:10396000F0D1204618F098FCECE7684601F082FAA6
:10397000BA1B0021284619F03DF9284600F09CFAB0
:103980000BF07AFE03B0F0BD00B9704710B50446E5
:1039900006F05CFB204631F03DFB204631F0F2FAA8
:1039A000BDE810400BF068BE2DE9F041044684B03C
:1039B0000E4606F04BFB24B90BF05EFE04B0BDE8EA
:1039C000F081204601F0F2F8458EC36D05F0200528
:1039D00003909F68ADB245B1B0F954502DB9406B1A
:1039E00004F044FB039B851C00E003465E6303A8D0
:1039F00001F040FA3B680121204698473B680646A3
:103A00000321204698473B6880460021204698477E
:103A10000746204600F050FA4346324629462046E3
:103A2000009700F0CBF9204618F036FC0BF024FE8E
:103A300004B0BDE8F08100BF00B9704730B504465E
:103A400083B00D4606F002FB204601F0AFF80346B6
:103A5000026F68460093019201F00CFA294601A812
:103A60000DF0ACFA18B90BF007FE03B030BD2046DC
:103A700001F09CF8019A034668461A67009301F02A
:103A8000F9F9204618F008FC0BF0F6FD03B030BD44
:103A900000B9704730B5044683B00D4606F0D6FA3B
:103AA000204601F083F8B0F95A300190AB4204D0BF
:103AB000A0F85A50204618F0EFFB01A801F0DAF9FF
:103AC0000BF0DAFD03B030BD00B9704730B50446E5
:103AD00083B00D4606F0BAFA204601F067F802AB53
:103AE000056443F8040D4564184601F0C3F9204607
:103AF00018F0D2FB0BF0C0FD03B030BD2DE9F04350
:103B000085B020B90546284605B0BDE8F0830446D7
:103B10000E4606F09BFA204601F048F8B0F95450E2
:103B20000390B5422AD0418E01F0200189B219B12B
:103B30006DB303462F4601E003460F46DA6D0121BF
:103B4000A3F85460204696683368984733688046E7
:103B50000321204698473368002181462046984734
:103B60000646204600F0A8F9204600964B464246FD
:103B7000394600F023F9204618F08EFB03A801F027
:103B800079F90BF079FD284605B0BDE8F083406B6C
:103B900004F06CFA039B871CD0E700BF2DE9F04FBF
:103BA00089B007460D4601F001F803460121384669
:103BB000DA6D05939468236898472368032180464B
:103BC0003846984723680221834638469847236839
:103BD00000218246384698478146059819F0D4FF5F
:103BE0000646059819F0D8FF03460598448E04F060
:103BF0002004A4B2B4B1B0F95420B0F95840002A5E
:103C00004AD091B2C06E0C44A4B280B1039102922A
:103C1000019317F02BFF019B0FFA80FC029A80B2F0
:103C2000039905E021462246C06E0028EED1844665
:103C30001FFA89FE013E013B0FFA88F8CBEB06061E
:103C400074440EF1FF3ECAEB030336B204447144E0
:103C50006B812A8005A8A5F802C0EC8069822E81BC
:103C60002E82A5F80480A5F80C80A5F80E9001F02E
:103C700001F908AAB5F910403846B5F90C3006A983
:103C800042F8044D069300F04BF8069A079BAA8170
:103C90002B8209B0BDE8F08F406B019304F0E6F988
:103CA000821C019B059891B212B20C44A4B2BBE7EE
:103CB00008B5438E03F020039BB24BB10246B0F926
:103CC000540000B108BD506B04F0D0F9023008BDBB
:103CD000184608BD70B58AB00C46064600F066FF6F
:103CE0000AABC26D43F8280D1846956801F0C2F87A
:103CF0000196032C05D8DFE804F00F0C0902172306
:103D000002936B6801A898470AB070BD152302930F
:103D1000F7E716230293F4E718230293F1E700BFB5
:103D20002DE9F04383B088460446914600F03EFFFB
:103D3000034602A8DA6D40F8083D9568B3F90070B3
:103D4000B3F9026001F096F82B68204600219847ED
:103D50000546204617F0C0FB68B3044607E001A8FB
:103D600001F088F8204617F043FD044618B32046BA
:103D700000F01CFFB0F9023001909B1B9D42EED178
:103D8000836A1B060BD5B0F90030D9F80020DB1B85
:103D9000934203F1FF33E2DCC9F80030DFE7B0F90A
:103DA0000430D8F80020DB1B934203F10103A8BFC5
:103DB000C8F80030D3E703B0BDE8F0832DE9F04F39
:103DC00083B088469A460546914600F0EFFEC26DE4
:103DD00002AED2F808B046F8080DFFF769FF0446B6
:103DE000304601F047F8DBF80030012128469847BB
:103DF000DBF800300321064628469847DBF8003000
:103E000007460021284698474445834609D14E4538
:103E100007D1574505D10C9B984202D103B0BDE8AC
:103E2000F08F2846C8EB040417F056FB054600281F
:103E3000F4D04FF000080C9BC9EB0606C7EB0A074D
:103E4000C3EB0B0BC1460BE0B3F5007F11D001A80B
:103E500001F010F8284617F0CBFC05460028DDD00D
:103E6000284600F0A3FE836A019003F42073802BA0
:103E7000EAD1CCB9836A1A060BD49B05E7D508F1C1
:103E8000010308FB04615A462846984618F0E6FDEF
:103E9000DDE709FB14715A46284609F1010918F0BB
:103EA000DDFD019B9B6AE8E728462246214618F083
:103EB000A1FE0198DEE700BF70B586B0064600F0AF
:103EC00075FE034606A89C6E40F8183DDD6E00F0B6
:103ED000D1FF14B90DB906B070BD304601A9FFF786
:103EE0005DFE6CB9002DF6D0BDF90A202846BDF95B
:103EF0000630BDF90810D21A18F00AFD06B070BDE0
:103F0000BDF90A202046BDF9081018F001FDBDF9E1
:103F10000E20BDF90A602046BDF90C30BDF908102D
:103F2000921B591A0132013119F008FA002DD2D032
:103F3000DAE700BF2DE9F043456887B0044628461C
:103F400017F064FC074600F031FE034606A85E6EDB
:103F500040F8143DD3F84880D3F8809000F08AFFF1
:103F600023680E3B232B3FD8DFE803F035463E3E67
:103F70003E3E12123E123E3E3E3E3E3E18243E3E25
:103F80002B3E3E3E3E3E3E3E3E3E3E3E3E3E3E3072
:103F9000204616F00BFF07B0BDE8F083E368002B66
:103FA000F9D0B9F1000F3BD04D4539D0484619F052
:103FB0001FF8F0E72146384616F02CF907B0BDE8A7
:103FC000F083C4F80C8007B0BDE8F0830023E36001
:103FD00007B0BDE8F083E3685A68002A04DD1B6877
:103FE000092B1DD00A2B1FD0002ED1D02046676090
:103FF000B04707B0BDE8F0836FF07043984504D038
:1040000040460FF045FA01F095FF002EC3D002AFF5
:1040100094E80F0087E80F0038460395B047BAE7E9
:10402000284619F051F8B6E7284619F095F8B2E796
:104030000A2838B514D00D28044610D006F006F82A
:10404000114B20461B68DB691B6898470F4B1B68A8
:104050000BB120469847BDE838400BF00DBB38BD8A
:10406000094C05F0F3FF05F0F1FF2368DB695D7E85
:104070000BF002FB23689A8C198C2A4459849A8489
:10408000BDE838400BF0F8BA44100220C000072009
:10409000204B70B51E6805F0D9FF1F4C0025304637
:1040A0000FF0F6F90BF0E8FA1C4B1E6805F0CEFF96
:1040B00030460FF027FA0BF0DFFA05F0C7FF0122B8
:1040C00023681A760BF0D8FA05F0C0FF23689D85A7
:1040D0000BF0D2FA05F0BAFF23685D850BF0CCFA3D
:1040E00005F0B4FF28460FF03FFA0BF0C5FA0C4B71
:1040F0001D6805F0ABFF236805B1DD610BF0BCFA6C
:1041000005F0A4FF236800229A76BDE870400BF00A
:10411000B3BA00BF68FA0620441002204010022003
:104120003C100220014B83E803007047D8F90620B9
:10413000014B83E803007047E0F90620014B83E858
:1041400003007047E8F90620014B83E8030070473D
:10415000F8F906202DE9F04F5C4E8DB03368DA692E
:10416000B3F92250D469B4F80CB0834500F29780BB
:10417000E1898142C0F093802168CBEB000B08916C
:104180004FF0FF310A91BBF1FF3F00F0828092F8BF
:104190001880A27CB3F92A10B3F9249018FB02F31B
:1041A000084607911F4694F810A00FF0DDF9D6F8E5
:1041B00000E008994346DEF838C05246099007FBF4
:1041C0000B10DEF81CE00B97012704904946CDF850
:1041D00014C0284694F812C00297CDF80CC09EF87F
:1041E0001BC0DFF8E8B0CDF804C09EF81AE0CDF8A7
:1041F00000E00EF07DFA0A9F7B1C25D0079941F064
:1042000002000FF0B1F9DBF800100B9A4346089852
:10421000D1F838C002FB0700D1F81CE00127CDF827
:1042200014C00490524694F812C04946029728469A
:10423000CDF80CC09EF81BC0CDF804C09EF81AE063
:10424000CDF800E00EF054FA3368DFF88080DB69C7
:104250005A7E1B7E9A4215D9079B022B12D083F0FF
:1042600004000FF081F9D8F800302846DB691F7E82
:10427000D97E9A7E5B7E07FB01910AFB02524B447A
:104280000EF03EFC9DF824000FF06EF93368B3F990
:104290002250627C15445D840DB0BDE8F08FA168AA
:1042A0000029F6D00F88B842F3D3B1F802E0864572
:1042B000EFD3C01B4968676880B2089701EB80079D
:1042C00031F920B0B7F902100A915CE744100220DE
:1042D000044B1B68DB69DB6909B11A7C0A60587CF6
:1042E000704700BF4410022002230B80704700BFBC
:1042F000C3699A898A4202D8DA898A4211D29868B7
:1043000018B10388994201D20020704742888A423E
:10431000FAD3C91A436833F82100C043C0F3C03050
:1043200070470120704700BF2DE9F04F3A4D89B02A
:104330002B68DA69B3F92A90D36943B11A8890429D
:1043400002D35988814205D29B68002BF6D109B06F
:10435000BDE8F08F841AD3F80480484608EBC40601
:1043600096F802B00FF000F98246286818F8342059
:104370004FF0010EC769D0F838C0B0F92410B0F979
:1043800022003B7E0790CDF814C07068CDF80CB0C9
:104390000490CDF808E097F81BE00798CDF804E00A
:1043A000BF7E00970EF0A4F92B68DA69537E177E62
:1043B000BB4223D9B9F1020F07931FD092F81BB06B
:1043C00003F0ACFD814603F073FD0AF00DF9124BCA
:1043D00018F834E01868079BC169B0F92240CA7E1A
:1043E000B0F9241020460EFB02420BFB03130BFB1B
:1043F00007110EF085FB48460AF0F6F850460FF01C
:10440000B3F82B687178D8695A8C807E00FB012242
:104410005A8409B0BDE8F08F44100220114B1B688C
:1044200070B4DD69EB6943B11A88904202D35C88AD
:10443000844205D29B68002BF6D1184670BC7047A9
:10444000821A5E68AC7E06EBC2035B7813FB04F055
:104450000029F3D016F8323014FB03F370BC0B6064
:10446000704700BF4410022001230B80704700BF3B
:10447000C06950B103888B4202D843888B4203D273
:1044800080680028F6D17047012070472DE9F04779
:10449000244F3D68002D3FDD234EC5EB4515DFF869
:1044A0008C804FF0000A3468D8F8009004EB850542
:1044B0000C340C35A4F10803742249461846FBF766
:1044C00052FF221F2063A06344F80CAC6263E460D7
:1044D0007C34A542EED10024254603E082B13A683F
:1044E000954213DA34F0A2FB336801351A591919D1
:1044F0007C349042F2D10431C8F80010BDE8F08756
:1045000008600431C8F80010BDE8F087194604318E
:10451000C8F80010BDE8F087034BDFF81080196879
:10452000E9E700BF6410022078FD06204410022055
:10453000F8B5184F184B3846184E40F80C3F0CF0A1
:1045400029FD3468C4EB4414A400204600F04CF963
:10455000134B224600211B68386098474FF0FF3309
:10456000736034F069FB3368002B0FDD00242546AF
:1045700003E062B133689D4208DA34F057FB3B68D0
:1045800001351A5923447C349042F2D1F8BD1860A9
:10459000F8BD00BF78FD0620A123030864100220A7
:1045A0001C13022009B9084670472DE9F0410E4658
:1045B000054605F04BFD05F049FD30461BF094F82B
:1045C00004460BF059F824B3174FFA697B6B01329C
:1045D00003EBC401FA6113F83420013203F83420EC
:1045E000D1F8048008F10800C5B1104B32462946C5
:1045F0001B689847D8F800107A6B0B4D12F83130D1
:10460000012B03D9E86908B10138E861013B02F8E0
:1046100031300BF031F82046BDE8F081044B3246D2
:1046200029461B689847E5E7C8FF062018130220B3
:104630001C13022000B9704710B5044605F006FDB2
:1046400020461BF051F804460BF016F8204610BD2A
:10465000F8B5054605F0FAFC25B900240BF00CF876
:104660002046F8BD05F0F2FC28461BF03DF8044654
:104670000BF002F8002CF0D0144E2A46144F002103
:10468000F069736B013003EBC405F06113F834007B
:10469000013003F834006D683B6805F10800984765
:1046A0002968726B12F83130012B01D9F06930B9E9
:1046B000013B02F831300AF0DFFF2046F8BD013837
:1046C000013BF06102F83130F5E700BFC8FF06207A
:1046D0001C13022021F00301014B83E80300704703
:1046E00000FA062000B9704770B50D4C054605F07C
:1046F000ADFCEE00636B3344596848681AF0E6F885
:104700006368626B0021606A013316446360706005
:1047100002F835106562BDE870400AF0ADBF00BF19
:10472000C8FF062028B1034AD36B036003B1586069
:10473000D0637047C8FF0620F8B5054605F086FC33
:104740002C68B4B10E4E05F081FCE700736B3B445E
:10475000596848681AF0BAF87368726B0020716A79
:10476000013317447360796002F8340074620AF010
:1047700083FF00232B60BDE8F8400AF07DBF00BF37
:10478000C8FF062000292BDD2DE9F04700258A46C9
:10479000041F144FA94605F059FC54F8046F013565
:1047A000B6B105F053FC7B6B4FEAC6084344596829
:1047B00048681AF08BF87B68796B7A6A0133884411
:1047C0007B60C8F8042001F836907E620AF054FF3E
:1047D000C4F800900AF050FFAA45DCD1BDE8F0878C
:1047E000704700BFC8FF0620F8B58B4E044696F808
:1047F0002830002B2FD00334356CF26B24F00304E7
:104800000434A54238BF254662B152F8043C144630
:104810009D4204D114E054F8043C9D4210D0246819
:10482000002CF8D1F368B46B1C4454F8041C611AD2
:104830000B68002B68D14B689D426FDD002408E0B7
:1048400023680BB161685960616801B10B60A242D5
:1048500056D02046F8BD714B01219A6886F8281081
:1048600058680AB982089A605A27102220254FF00A
:10487000400E3762802732644FF48072B5644FF483
:1048800000751968C6F850E04FF4806EB7654FF4B4
:10489000006732664FF48052B5664FF40055A1F1BF
:1048A0001403C6F870E0B7674FF4804EC6F8802056
:1048B0004FF40047C6F888504FF480324FF400356B
:1048C0000344C6F890E04FF4802EC6F898704FF479
:1048D0000027C6F8A0200222C6F8A8500125B1631F
:1048E0007363C6F8B0E03261F060C6F8B8705D601E
:1048F0007562756019F0EAFF28F094F835637AE77D
:1049000023682046F363F8BD002030F063FA54F8C2
:10491000041C611A0B68002B90D18CE7581BD6F849
:10492000B8703D4A041DBB420C4472D2D2F8B0703C
:10493000BB426CD2D2F8A870BB4266D2D2F8A0704B
:10494000BB4260D2D2F898709F425AD9D2F8907088
:10495000BB4254D2D2F88870BB424ED2D2F880709B
:10496000BB4248D2926F934243D2376F2A4ABB422E
:104970003DD2976EBB4238D2176EBB4233D2976D91
:10498000BB422ED2176DBB4229D2976CBB4224D2B8
:10499000126C93420CD2F2687369521B2B44F26082
:1049A000736110B944F8045C53E719F08FFFF9E71D
:1049B00000223768D1F808E0FF1ACB683760BEF1F3
:1049C000000F01D0CEF8043013B1C3F800E0E2E7E5
:1049D00006EBC202C2F844E0DDE70122E9E7022269
:1049E000E7E70322E5E70422E3E70522E1E7062201
:1049F000DFE70722DDE70822DBE70922D9E70A2201
:104A0000D7E70B22D5E70C22D3E70D22D1E70E2200
:104A1000CFE70F22CDE700BFC8FF062000FA06202F
:104A2000F8B54A4C94F82830002B3DD0D4F8BC306F
:104A3000464A3BBBD2F8B43023BBD2F8AC300BBBF8
:104A4000D2F8A430F3B9D2F89C30DBB9D2F8943064
:104A5000C3B9D2F88C30ABB9D2F8843093B9D36FE4
:104A600083B9536F73B9E36E63B9536E53B9D36DA2
:104A700043B9536D33B9D36C23B9536C13B96FF089
:104A80000B00F8BD9B68002BF9D0002201E09B6869
:104A900043B159681046914201D90A4608469B68BD
:104AA000002BF4D10C38F8BD294B01219A6884F809
:104AB000281058680AB982089A605A2610222025C0
:104AC00040272662802622644FF48072A5644FF44A
:104AD0000075196827654FF48067A6654FF4006676
:104AE00022664FF48052A5664FF40055A1F11403DD
:104AF0002767A6674FF48047C4F880204FF400462C
:104B0000C4F888504FF480324FF400350344C4F8A1
:104B100090704FF48027C4F898604FF40026C4F8D2
:104B2000A0200222C4F8A8500125A163636322617A
:104B3000E060C4F8B070C4F8B8605D60656265603C
:104B400019F0C4FE27F06EFF25636FE7C8FF06204B
:104B500000FA062090B10A4A1368D16870B455690A
:104B6000A3F10C049668CB1A24EAE4724C1905618F
:104B70000460466183604260C16070BC704700BFE2
:104B8000C8FF062030B1044B5B6B03EBC0004368E9
:104B900058680C38704700BFC8FF0620024A936966
:104BA00001339361704700BFC8FF0620084AD169EE
:104BB000536B013110B4D16103EBC00413F8302002
:104BC000013203F8302060685DF8044B083070470C
:104BD000C8FF062009B9084670472DE9F843884602
:104BE000064605F033FA40461AF07EFD05460AF007
:104BF00043FD002D66D0002E64D0344CF700636B6B
:104C00003B445B685B68A3F10C008045A8BF80460D
:104C100005F01CFA636BE169424613F8350003EBBB
:104C2000C508023103EB070C0130DFF8A4E003F8FC
:104C30003500D8F80480E16113F8361008F1080057
:104C4000013103F83610DCF80490DEF8003009F189
:104C500008019847D8F80010636B13F83120012A37
:104C600003D9E06908B10138E061013A03F8312065
:104C7000D9F8001013F83120012A06D9E069DFF8CD
:104C80004CE010B10138CEF81C00013A03F8312095
:104C900005F0DCF9636B3B445968486819F016FE6F
:104CA0006368626B0020616A013317446360796056
:104CB00002F8360066620AF0DFFC0AF0DDFC2846E6
:104CC000BDE8F8832846BDE8F88300BFC8FF06208A
:104CD00018130220F8B5584C05F0B8F994F82830AC
:104CE000002B57D0D4F8BC30534A9BBBD2F8B43019
:104CF00083BBD2F8AC306BBBD2F8A43053BBD2F834
:104D00009C303BBBD2F8943023BBD2F88C300BBB29
:104D1000D2F88430F3B9D36FE3B9536FD3B9E36EEC
:104D2000C3B9536EB3B9D36DA3B9536D93B9D36CF3
:104D300083B9536C73B96FF00B034049DA1781FBE9
:104D40000313C2EB6313246A04FB03F40AF094FC1C
:104D50002046F8BD9B68002BF5D0002201E09B683F
:104D600043B159681046914201D90A4608469B68EA
:104D7000002BF4D10C38B0F5800F0346DDD8226A41
:104D80002E4B02FB00F0A3FB00235C090AF074FC2D
:104D90002046F8BD2A4B01219A6884F828105868EB
:104DA0000AB982089A605A261022202540272662D6
:104DB000802622644FF48072A5644FF40075196850
:104DC00027654FF48067A6654FF4006622664FF4AE
:104DD0008052A5664FF40055A1F114032767A6671A
:104DE0004FF48047C4F880204FF40046C4F8885040
:104DF0004FF480324FF400350344C4F890704FF400
:104E00008027C4F898604FF40026C4F8A02002223E
:104E1000C4F8A8500125A16363632261E060C4F86F
:104E2000B070C4F8B8605D606562656019F04EFDF1
:104E300027F0F8FD256355E7C8FF06201F85EB51D5
:104E400000FA0620102807D9054B5A6852089042EC
:104E500028BF1046986070471020014B986070473B
:104E600000FA0620024A9369013B9361704700BF34
:104E7000C8FF062003680B4A30B4044653F8085CA8
:104E8000506B10F83530012B03D9D16909B10139C4
:104E9000D1610022013B00F835301046226030BC61
:104EA000704700BFC8FF0620034B5B6B03EBC000DD
:104EB00040680830704700BFC8FF062050F8080C53
:104EC000704700BFA8B32DE9F041044682B0084600
:104ED00082BB154602AE2046FFF768FE03460788F0
:104EE00046F8080D3046D3F80480FFF7C3FF791C5D
:104EF00040468900FFF76EFE804660B3FFF756FE1E
:104F0000034602A840F8043D43F82750FFF7B2FFDC
:104F10002046FFF74BFE034630461A88C3F804804C
:104F2000013200931A80FFF7A5FF002002B0BDE810
:104F3000F08170471146FFF735FB05460028C9D1BF
:104F40002046FFF733FE02AB43F8080D1846FFF783
:104F500091FF0120EAE72846FFF7C4FB0120E5E7BF
:104F60000820FFF775BB00BF00B9704730B583B0AC
:104F70000546FFF71BFE436800903BB96846FFF704
:104F800079FF2846FFF7AEFB03B030BD1846FFF7A8
:104F90000DFE009B01901B885BB1002400E001988E
:104FA00000EB84000134FFF7C7FB009B1B88A34282
:104FB000F5DC01A8FFF75EFF00980430FFF7BCFBAB
:104FC000009B00221A80D9E730B583B00C46FFF76A
:104FD000EDFD03880090A34201D9456825B96846D4
:104FE000FFF748FF03B030BD05F030F82846A500B4
:104FF000FFF7DCFD01902844FFF79EFB009B1A8819
:10500000013A92B2A2421A8007DD019B121B291DB0
:10501000920058191944FBF7A6F901A8FFF72AFFD7
:105020000AF02AFB6846FFF725FF03B030BD00BF3A
:1050300010B582B018B90446204602B010BDFFF783
:10504000B5FD02AB048843F8040D1846FFF712FFC4
:10505000204602B010BD00BF10B582B018B904469A
:10506000204602B010BD0C46FFF7A0FD038800905B
:105070009C4206D300246846FFF7FCFE204602B09F
:1050800010BD406808B90446F5E7FFF78FFD02AB95
:1050900050F8244043F8040D1846FFF7EBFEEAE70A
:1050A00010B582B008B30C46FFF780FD038800906E
:1050B0009C4206D300246846FFF7DCFE204602B07F
:1050C00010BD40680028F5D0FFF770FD02AB50F826
:1050D000244043F8040D1846FFF7CCFE002CE9D01D
:1050E0002046FFF763FD0446E5E70446204602B08C
:1050F00010BD00BF70B584B00446104615460E467C
:10510000FFF7A6FA039068B3204604ACFFF74EFD04
:105110003146009000F02CF801900398FFF746FD0F
:10512000124B54F80C1D2A461B68029098472046E3
:10513000FFF7A0FE02A8FFF79DFE3146039A0098F4
:1051400000F034F848B90398FFF730FD044668468C
:10515000FFF790FE204604B070BD03A80024FFF7BF
:10516000EBFAF4E70446204604B070BD18130220A1
:105170000388994201D30020704740680028FBD083
:1051800010B582B00C46FFF711FD02AB50F8244079
:1051900043F8040D1846FFF76DFE24B12046FFF7D3
:1051A00005FD02B010BD0020FBE700BF03888B4265
:1051B00001D9406808B901207047F0B583B00C46AA
:1051C0001546FFF7F3FC02AE074600EB840046F8F5
:1051D000047DFFF7B1FA47F824503046FFF74AFE46
:1051E000002003B0F0BD00BF70B50D46044604F0CA
:1051F0007BFF00222B46C1B22046BDE8704000F084
:1052000001B800BFB0F1004F2DE9F04346D00028AF
:1052100051DB00254D1B4FF0000EEDB20AB1013DF0
:10522000EDB275B36C1EAA42274F4FF03108DFF87C
:105230009CC0E4B21ED057F8246090FBF6F1C9B2CE
:105240000A2901F1010906FB11001AD824B9BEF19F
:10525000000F01D05FFA89F10A2901F1300115D060
:105260001D686E1C1E6029705CB125466C1EAA422A
:10527000E4B2E0D119684E1C1E609CF800600E700C
:10528000D9E71B6800221A70BDE8F08319682C4624
:105290004D1C1D60254681F80080E7E71C684FF033
:1052A000010E4D1E2D2104EB0E066FF00040EDB2F5
:1052B0001E602170B2E71C6801252D264042671947
:1052C0001F602670A6E700BFF0BD08088C0007200D
:1052D000002809DD0B68002230B45D1C2B240D6012
:1052E0001C700B681A7030BC704700BF10B584B0DA
:1052F0000C46064B114601AA009020460193CDF8BA
:105300000CD01EF0DBF904B010BD00BF395A000804
:105310002DE9F04FBC4DA5B00E469A462D6824AC41
:105320000DF1700C0DF16C0EE96B1546B74F1AAA12
:105330000B6819A944F8300D21A806930DF15E03FE
:10534000CDF804C0CDF800E023942197DDF8B8B083
:1053500000F07AFB40B10120AB4B069A1B68DB6B77
:105360001A6025B0BDE8F08F04F070FE02F0D6FDA3
:10537000A54A199B116803FB0AF31A9ACC6C02FB2D
:105380000AF2096D34190A9069181FA80794089148
:10539000ADF87E100139ADF87C40B3FBFBF3B2FBF6
:1053A000FBF223440A44013BADF88220ADF8803083
:1053B00018F0FAFB00286FD0BBF1000F5B464FF0EE
:1053C0000004B8BF0BF101035B10099319E014DB73
:1053D000022B12DC1B9921A800F05EFC1C981A9C81
:1053E000019021A80094199B089ACDF80CB0079958
:1053F000CDF808A023F07AF8044618F067FA0028E0
:105400004BD01C9B002BE2D1BDF85E30013B1F2B23
:10541000F3D801A252F823F0FF570008FB5300080D
:10542000FB530008FF570008FB530008FB5300081C
:10543000FB530008FF570008FB530008FB5300080C
:10544000FB530008FB530008FB530008FB53000804
:10545000FB530008E1560008FB530008FB5300080B
:10546000FB530008FB530008FB530008FB530008E4
:10547000FB530008BF550008FB530008FB5300080E
:10548000FB530008FB530008FB530008FB530008C4
:10549000FB530008A954000804460A9809F0A4F830
:1054A0000AF0EAF8204657E71A9B0022199903FBF5
:1054B0000AF30C911E9293FBFBF39342109340F37B
:1054C0003C82013B0B934FF0FF330E930B4643F3AB
:1054D0001A03DDF82480D9469E00D0440024C1453B
:1054E0000AD9D0440134C845FBD305E000F0BCFB29
:1054F000013C002840F0B081631C1EAA4FF000035D
:10550000314621A8F2D1D9440123C14500F241829C
:10551000D9440133C845FBD20E9A119302FB03F222
:1055200012921E9A10460E9A013200F01B82089BBE
:105530000B9A134419460F93119B5D46139606462A
:10554000013B099C0C9A0B441593079B0D93002378
:10555000511C02E00133994225D05444D71AAC4281
:10556000F8D331780133B2785D44707806EB830666
:10557000A54242EA014343EA002000F20E820122E2
:105580005D440132AC42FBD214920DF0BBFF149A81
:105590000D98159B02440F990D92013A0DF0B0FA47
:1055A0007A1E002FD3D10B9B129A10991344139E8D
:1055B0008B420B9380F29481002B8EDA90E11A9B40
:1055C0000022199903FB0AF30C911E9293FBFBF343
:1055D0009342109340F3A981013B0B934FF0FF33AB
:1055E0000E930B4603EB4303DDF82480D946DB0022
:1055F0001F335B119E00D0440024C8450ED2D04416
:105600000134C845FBD309E044100220395A000890
:1056100000F02AFB013C002840F01E81002C4FF0D6
:1056200000031EAA314621A8F2DAD9440123C1455C
:1056300000F2AB81D9440133C845FBD20E9A1193D5
:1056400002FB03F212921E9A10460E9A013200F0EB
:105650008181089B0B9A134419460F93119B5D4659
:1056600013960646013B099C0C9A0B441593079B25
:105670000D930023511C01E0994226D05444D71ABF
:105680000133AC42F8D332785D44B17803EB430385
:105690007078AC4241EA02421E4442EA0020C0F067
:1056A0009C8101225D440132AC42FBD214920DF088
:1056B00029FF149A0D98159B02440F990D92013AF7
:1056C0000DF01EFA7A1E002FD3D10B9B129A139E57
:1056D0009B180B9300F10481109A93428BDBFFE03F
:1056E0001A9B0022199903FB0AF30C911E9293FB5B
:1056F000FBF39342109340F31081013B0B934FF067
:10570000FF330E930B461B01DDF82480D9461F336F
:105710005B119E00D0440024C1450AD9D044013415
:10572000C845FBD305E000F09FFA013C002840F09B
:105730009380621C4FF000031EAA314621A8F2D1CB
:10574000D9440123C845C0F01C81D9440133C84560
:10575000FBD20E9A119302FB03F214920E9A0132BD
:105760001E9900F00781089B0B9A13440F9324AAFB
:10577000119B099C5D461046013B0F9A13440C9AFD
:105780001593079B0D93034643F81C1D12930023AA
:10579000511C02E00133994228D05444D71AAC423C
:1057A000F8D312985D4413930BF0D8FB0DF09CFCDA
:1057B0001D9A139BAC42014602EB43031D93C0F0BC
:1057C000F98001225D440132AC42FBD208461392BB
:1057D0000DF098FE139A0D98159B02440F990D92A7
:1057E000013A0DF08DF97A1E002FD0D10B9B149A3F
:1057F0009B180B9374D4109A93428BDB70E01B9927
:1058000021A800F049FA1A9B0022199903FB0AF318
:105810000C91BDF85E101E920B9193FBFBF8904526
:1058200073DD4FF0FF3308F1FF390D930B46013B59
:105830001F2B68D8DFE803F06167675B676767560F
:105840006767676767676712676767676767671292
:1058500067676767676767120124CEE50C9BDF0007
:105860001F377F11BF00099D5E4655440024AE429C
:1058700009D955440134B542FBD304E000F0F4F9F2
:10588000013C0028E8D1611C4FF000031EAA3946F4
:1058900021A8F3D15E44AE4200F2998001235E4418
:1058A0000133AE42FBD90D9A194602FB03FE0132C9
:1058B0001E984AD0089B03EB09020B9B0124F1447C
:1058C00002910493CDF804B00C9BCDF800A0079989
:1058D000039426F047F9C14502DAB9F1000FC4DAA2
:1058E00000248AE50C9BDF1C27F00307BBE70C9B19
:1058F0009F001F377F11BF00B5E70C9B03F11F0707
:105900007F11BF00AFE70027ADE7A5D00123C8F1A5
:10591000000891460D930B4689E79DD05B420B92A0
:10592000109301230E930B46EDE695D05B420B924C
:10593000109301230E930B4654E68DD05B420B92DD
:10594000109301230E930B46C1E5089A4A44D31ADB
:105950005A1CB2E70B99089A0A44D31A01330F93E1
:1059600019467BE60B99089A0A44D31A01330F9320
:105970001946E1E5089A0B980244D31A01330F93B4
:10598000F5E60E9A11931492E9E60E9A119312928B
:1059900059E60E9A11931292C3E50DF0B3FD119BD7
:1059A000012B27D10F990D980DF050F80D9B013365
:1059B0000D93F5E50DF0A6FD119B012B1CD10F9960
:1059C0000D980DF043F80D9B01330D930BE701216A
:1059D000DDF834E00B46724669E70DF093FD119B4C
:1059E000012B0BD10F990D980DF030F80D9B013361
:1059F0000D9367E60122CBE50122ECE6012259E690
:105A000000B583B000F1120302A840F8043D0BF08A
:105A1000ABFA03B05DF804FB00B583B000F11603E8
:105A200002A840F8043D0BF09FFA0028B8BF40429E
:105A300003B05DF804FB00BF10B4046810462344B3
:105A40005DF8044B0B6070472DE9F043044683B0CA
:105A50000020894690461E466060034625686946D8
:105A6000A0683622A847362803D0012003B0BDE83D
:105A7000F08363686846363363600BF06FFA009B0F
:105A8000054668460C3300930BF06EFA07466846ED
:105A90000BF06AFAC9F8000068460BF065FA009B43
:105AA000C8F800006846023300930BF057FA3080C4
:105AB00068460BF059FA009B0B9A0C33106068464D
:105AC00000930BF051FA3388013B1F2BCDD801A274
:105AD00052F823F09F5B00086B5A00086B5A0008CD
