:020000040800F2
:10000000103F0720D9020008B57C0308A96803083F
:10001000917C0308551B03088BB603080000000001
:1000200000000000000000000000000015020008B1
:10003000952403080000000071020008518C030899
:10004000F3020008F3020008F3020008F3020008BC
:10005000F3020008F3020008F3020008F3020008AC
:10006000F3020008F3020008F3020008F30200089C
:10007000F3020008F3020008F3020008F30200088C
:10008000F3020008F3020008F3020008F30200087C
:10009000F3020008F3020008F3020008F30200086C
:1000A000F3020008F3020008F3020008F30200085C
:1000B000F3020008918D0308F3020008F302000820
:1000C000F3020008F3020008F3020008F30200083C
:1000D000F302000859940308F3020008F302000831
:1000E000F3020008F3020008F3020008F30200081C
:1000F000F3020008F3020008F3020008F30200080C
:10010000F3020008F3020008F3020008F3020008FB
:10011000F3020008F3020008F3020008F3020008EB
:10012000F3020008F302000895230308F302000815
:10013000F3020008F3020008F3020008F3020008CB
:10014000F3020008F3020008F3020008B97C030878
:10015000F3020008F3020008A1230308F3020008D9
:10016000F3020008F3020008F3020008F30200089B
:10017000F3020008F3020008F30200080000000088
:10018000F3020008F3020008F3020008F30200087B
:10019000F3020008F3020008F3020008F30200086B
:1001A00085730308F3020008F3020008F302000855
:1001B000F3020008F3020008F3020008F30200084B
:1001C000F3020008F302000800000000F302000838
:1001D000F3020008F3020008F3020008F30200082B
:1001E000F3020008F3020008F3020008F30200081B
:1001F000F3020008F3020008DFF80CD000F0BCFAAC
:1002000000480047293B0408103F072072B670479A
:1002100062B670472D4B19680868B0E8F04F80F35C
:100220000988BFF36F8F4FF0000080F3118870478B
:100230000000000008480068006880F308884FF05C
:10024000000080F3148862B661B6BFF34F8FBFF32E
:100250006F8F00DF00BF00BF08ED00E0DFF80C008B
:10026000016841F470010160704700BF88ED00E053
:10027000EFF30980BFF36F8F144B1A681EF0100F55
:1002800008BF20ED108A20E9F04F106009B44FF04C
:10029000500072B680F31188BFF34F8FBFF36F8F9A
:1002A00062B64FF0B3F94FF0000080F3118809BC3B
:1002B00019680868B0E8F04F1EF0100F08BFB0ECE6
:1002C000108A80F30988BFF36F8F7047D000022037
:1002D000EFF3058070470000064880470648004756
:1002E000FEE7FEE7FEE7FEE7FEE7FEE7FEE7FEE7E6
:1002F000FEE7FEE73D8D0308F90100082DE9F05FF8
:100300000546002092469B46884606468146402484
:100310001BE0284641464746224600F0D6F85346A1
:100320005A46C01A914110D311461846224600F091
:10033000BDF82D1A67EB01084F4622460120002127
:1003400000F0B4F817EB00094E41201EA4F101049F
:10035000DFDC484631462A464346BDE8F09F10B5EB
:10036000441A0346944209D28418114403E011F858
:10037000013D04F8013D521EF9D210BD40EA0104CE
:10038000A40703D009E010C9121F10C3042AFAD22F
:1003900003E011F8014B03F8014B521EF9D210BDD6
:1003A000D2B201E000F8012B491EFBD270470022B7
:1003B000F6E710B513460A4604461946FFF7F0FF64
:1003C000204610BD421E12F8013F002BFBD111F850
:1003D000013B02F8013B002BF9D1704730B50546CF
:1003E0002A460B4612F8010B13F8014B08B1A04244
:1003F000F8D01CB1002802D06D1CF1E7284630BDB2
:1004000010B5044604E00B7800F8013B03B1491C29
:10041000521EF8D2204610BD421C10F8011B0029C4
:10042000FBD1801A704710B5002200E0521C835C9B
:100430008C5CA34201D1002BF8D1D8B2E1B2401AB2
:1004400010BD30B504460020034600E05B1C93421B
:1004500003D2E05CCD5C401BF8D030BD034611F800
:10046000012B00F8012B002AF9D118467047A0E8AB
:10047000004FF0C040F804DB01B5AFF30080BDE8E9
:10048000024001C10020704700F12C080C4658F8CA
:10049000040DAFF3008058F8040D8546200008BF16
:1004A000012038E9F00018E9004F7047202A04DBEA
:1004B000203A00FA02F1002070479140C2F1200377
:1004C00020FA03F3194390407047202A04DB203AB6
:1004D00021FA02F00021704721FA02F3D040C2F164
:1004E0002002914008431946704700000FB40023D2
:1004F00000B589B00CA900910B996FF00042CB6058
:100500001E4B06931E4B07930423CDE901321D4A6F
:10051000089202466B46002000F0DAF909B05DF857
:1005200014FB70B586B006464FF0FF300091CDE960
:100530000101002015460C4604903246694604A885
:10054000FFF7D4FF02460498211825B108B10846E8
:1005500000E020462860049800280DD0002A02DD23
:100560000098884208D0081B0094CDE90104324667
:10057000694604A8FFF7BAFF06B070BD090B000872
:10058000270B00089D0700082DE9FE4F81EA0304B0
:1005900004F0004421F0004100944FF0000B23F0E0
:1005A000004350EA01045ED052EA03045BD0C3F377
:1005B0000A54C1F30A552C44A4F2F3340194A0FB6D
:1005C0000254C1F3130141F48011C3F3130343F444
:1005D000801301FB024400FB034E840A970A44EA9D
:1005E000815447EA8357A4FB076802958D0A05FBEF
:1005F00007854FEA932C04FB0C542705029D4FEA14
:10060000065847EA1637B5EB08056EEB070C870E60
:10061000920E47EA811742EA8312A7FB0201B6EB6A
:100620000B0164EB00042B0D43EA0C335E1844EB22
:100630001C50DA465146E7FB0201C5F313044FEAAA
:100640000B3343EA14534FEA0432019C43EA060396
:10065000A4F10C040294009CCDE900B400F083FAEC
:1006600003B0BDE8F08F00200146F9E72DE9F04D19
:1006700081EA030404F0004B21F0004514464FF0DA
:10068000000A23F0004150EA050220D054EA01029A
:100690001DD0C5F30A570246C5F31303C1F3130077
:1006A000C1F30A5640F4801543F48013A7EB060803
:1006B000101BD64608F2FD3873EB050002D308F193
:1006C000010801E092185B41B8F1000F03DA002045
:1006D0000146BDE8F08D00204FF4801106468446A7
:1006E0000EE0171B73EB050705D3121B63EB050325
:1006F00006434CEA010C49084FEA300092185B416E
:1007000050EA0107EDD152EA030012D082EA040058
:1007100083EA0501084305D0101BAB4106D2012234
:10072000002306E000224FF0004302E06FF00102D8
:1007300053101AEB06004CEB085110EB0A0041EB8A
:100740000B01BDE8F04D00F0FFB970B521F000439A
:1007500003430CD0C1F30A550024D5EB040564EB28
:100760000403D617AD1AB34102DB0020014670BD69
:10077000201841EB025170BD064C074D06E0E068C1
:1007800040F0010394E8070098471034AC42F6D3D8
:10079000FFF736FD246D0808446D0808C0B24FF419
:1007A000F05100F02FBA00002DE9FF4F087883B018
:1007B0009946FF2805D0491C2D2804D0002400208C
:1007C00008E000200BE00124F9E700EB800003EBD8
:1007D0004000491C0B78FF2BF7D104B140420023A5
:1007E0000293147819461D462D2C01D02B2C04D1D0
:1007F000521C2D2C13D000240294AA461478FF2CEE
:100800000FD00A25A3FB057801FB05814FF0000CF2
:1008100003FB0C11521CE3194AEB0101EEE7012422
:10082000EAE7814453EA010002D019F5C87F06DAED
:1008300003980021C0E9001107B0BDE8F08F002542
:10084000AE4E2F46DFF8B882184600F0EFF9CDE93A
:100850000001B9F1000002DAC9F1000400E0044629
:100860000023A74A1AEB030B42EB045A12E0E007FD
:1008700007D02A46334638464146FFF785FE0746ED
:1008800088462A46334610461946FFF77DFE054640
:100890000E466410002CEAD1DDE90001B9F1000F29
:1008A0005A46534606DAFFF7E1FE3A464346FFF75B
:1008B000DDFE05E0FFF768FE3A464346FFF764FEBB
:1008C000029A0AB181F00041039AC2E90001B3E73C
:1008D0002DE9FF4F1F468DB0D7E901464FF0FF3895
:1008E0002E2045464FF000090B90B9696D1C0E98FB
:1008F0008847396A824688470028F6D1BAF1FF3F17
:100900000AD024F4D064002E11DDBAF12B0F08D0E8
:10091000BAF12D0F0BD102E0404611B08DE744F43F
:100920008064B9696D1C0E9888478246761E6946B8
:10093000600501D52D2000E02B208DF8000001F18D
:10094000010B0DF1200809E0B9696D1C0E9888476C
:1009500082460F9844F40074761E0560002E02DD76
:10096000BAF1300FF0D00B998A453ED144F08004A3
:1009700006E00F99681CA9F1010944F400740860AD
:10098000B9696D1C761E0E98884782463028F0D0D3
:100990002BE00B998A4505D1200603D444F080044E
:1009A000761E18E050463DF016F808B30DF113011D
:1009B000761E44F400748B4508D2AAF130000BF87F
:1009C000010B200607D5A9F1010003E0200602D49F
:1009D00009F101008146A00502D50F99681C086045
:1009E000B9696D1C0E9888478246002ED1DC53E011
:1009F000002E51DDBAF1650F02D0BAF1450F4BD18F
:100A0000A00549D5B9696D1C24F44074761E0E9872
:100A100088478246002E0CDD2B2804D0BAF12D0F1A
:100A200007D144F48074B9696D1C0E9888478246DA
:100A3000761EE00501D52D2100E02B2108F8011BD1
:100A4000CDF82C8021E00DF12901761E44F40074CC
:100A500088450CD2AAF1300010F0FF0088F80000A1
:100A600002D10B99884509D908F1010806E0E00593
:100A700001D5244801E042F20F708146B9696D1C2E
:100A80000E98884782460F980560002E04DD504678
:100A90003CF0A1FF0028D6D1F9690E988847FF20C5
:100AA0008BF8000088F800000020069007904B4665
:100AB0006A4608A906A8FFF777FEA00502D46FF0E2
:100AC00001002AE714F0240F0AD0E00714D1DDE971
:100AD00006123868031D3B600068C0E900120BE095
:100AE000DDE9060100F0AEF80146E00704D1386800
:100AF000021D3A600068016028460EE700001440BD
:100B00000000F03FF1D8FFFF426842B1016811F8E0
:100B1000013B23B1521EC0E9001218467047012163
:100B2000C160881E704742685AB1C368016843B902
:100B300083688B4205D0491E521CC0E90012002078
:100B400070474FF0FF30704710B5141E73F100046A
:100B500008DA401C41F1000192185B411A4301D1AF
:100B600020F0010010BD2DE9F04D92469B4611B1D9
:100B7000B1FA81F202E0B0FA80F220329046FFF73B
:100B800095FC04460F4640EA0A0041EA0B01534631
:100B90005A46084313D0114653EA010019D0C8F150
:100BA00040025046FFF791FC05460E465046594616
:100BB0004246FFF77BFC084305D0012004E02046B5
:100BC0003946BDE8F08D0020054346EAE0762C4327
:100BD00037430A986305E40AA0EB08000022FD0AE7
:100BE00044EA47540A3002D500200146E9E70105EE
:100BF00010196941DDE9084500196941BDE8F04D6A
:100C0000A2E700007F2801D9002208E0064A02EB93
:100C10005002C007127800D1120902F00F02012021
:100C2000904008407047000050E207080EB540F2BF
:100C3000334202920022CDE900221346FFF793FFD0
:100C400003B000BD01F0004330B421F0004150EA90
:100C5000010206D00A0DA2F56072C1F31301002A49
:100C600002DC30BC00207047440F44EAC104C100DC
:100C7000E01830BC00EBC250AFF300800029A8BFE1
:100C80007047401C490008BF20F00100704710B4B5
:100C9000B0FA80FC00FA0CF050EA010404BF10BC6A
:100CA000704749B1CCF1200421FA04F411FA0CF197
:100CB00018BF012121430843A3EB0C01CB1D4FEAD0
:100CC00000614FEA102042BF002010BC704700EBCB
:100CD000C35010440029A4BF10BC7047401C4900F9
:100CE00008BF20F0010010BC704770B58D1810F8D7
:100CF000014B14F0030201D110F8012B231106D18E
:100D000010F8013B03E010F8016B01F8016B521E73
:100D1000F9D1ABB110F8012B04F00C048A1A0C2C99
:100D200003D0A2EB84129B1C08E010F8014BA2EB4D
:100D30000422F8E712F8014B01F8014B5B1EF9D5CC
:100D4000A942D4D3002070BD70B5456882B0044676
:100D50000146284616F0CCF968B123680F2B59D00C
:100D60000BDD282B45D0B3F5107F3CD0112B49D09B
:100D7000204616F0F5FE02B070BD0B2B20D00E2BD6
:100D8000F6D1E3681A6859680D2A53D0202A31D168
:100D9000002928464FF480717DDD16F099FA284627
:100DA00003F04AF902AB846A43F8040D184603F0D5
:100DB000A7FAA207DFD52846012118F093FDDAE74C
:100DC000284602AD03F038F903466830019302F07B
:100DD00011FF55F8040D03216C3002F031FF284655
:100DE00003F08EFAC4E7324B214628461B68984729
:100DF000C1E7E368002BBBD128464FF4807116F0A1
:100E000055F9B5E72B4B1B68002BB4D0214628467B
:100E10009847B0E7284603F00FF9034602A840F8C8
:100E2000043D5B6E1C6803F06BFA002CA3D02846CF
:100E3000A047A0E70029DDDD4FF48071284616F0B9
:100E400047FA02AC284603F0F7F8866A44F8040D26
:100E5000204603F055FAB10703D50121284618F0C2
:100E600041FD4FF48071284616F020F9284603F022
:100E7000E3F8034620461E8E9C6A019303F040FA75
:100E800030460BF097FBA3077FF575AF284602218C
:100E900018F028FD6FE716F009F9284603F0CCF8A2
:100EA000034602A89C6A1E8E40F8043DE6E700BF98
:100EB0007010022028FC06202DE9F04F87B08046F4
:100EC00089469246129E9B46109F4C251A4C08F06C
:100ED00087FD01965B46009752464946404603957A
:100EE000029416F041FD064600B303F0A5F8102267
:100EF0001199124F059016F007FB0DF1180E3D1DCC
:100F00005EF804CD0FCD0CF134040FC40FCD0FC427
:100F100095E80F0084E80F007B6B7046CCF86430D6
:100F200003F0EEF97B6B30465B6898470CF0B8F93C
:100F3000304607B0BDE8F08F490D00087010022060
:100F40002DE9F04F87B0804689469246119E9B4618
:100F5000109F4C251A4C08F043FD01965B46009704
:100F60005246494640460395029416F0FDFC06465B
:100F700000B303F061F810221399124F059016F098
:100F8000C3FA0DF1180E3D1D5EF804CD0FCD0CF126
:100F900034040FC40FCD0FC495E80F0084E80F0090
:100FA0007B6B7046CCF8643003F0AAF97B6B30465B
:100FB0005B6898470CF074F9304607B0BDE8F08FD5
:100FC000490D0008701002202DE9F04FB0F90A60B9
:100FD00087B0B0F90C708B4685691644B0F90E8065
:100FE0001F44B0F910A00446B0F908904C3508F041
:100FF000F7FCDFF8CCC04FF0000E4246CDF800B051
:101000003946304603955346CDF808C0CDF804E084
:1010100016F0AAFC804628B90CF042F9404607B009
:10102000BDE8F08F03F008F8244F49460DF1180988
:10103000102205903E1D16F067FA59F804ED0FCE08
:101040000EF134050FC50FCE0FC596E80F0085E8E9
:101050000F007B6B4846CEF8643003F051F97B6B90
:1010600040465B6898470CF01BF9656808F0B8FCCF
:10107000404602F0E1FF034604A89C6E04930594E9
:1010800003F03EF9294648460DF0DCFD0028C3D0A8
:10109000059B9C4209D0404602F0CEFF059A0346CC
:1010A00004A89A66049303F02BF9404617F0DCFF7E
:1010B0000CF0F6F8404607B0BDE8F08F7010022043
:1010C000490D0008974A816843682DE9F0410446BC
:1010D00088B052F82160122B40D8DFE803F0B03F0F
:1010E0003F3F3F0A973F3F3F3F3F3F3F3F3F3F3FED
:1010F0004300F569002D40F0B580371F57F8040F05
:101100000BF054F804F1140120690EC928445B1B4C
:10111000521B2944013505F0A9FA022DEED162696E
:101120003169E3690191911CF76813442069A26950
:101130005B1028440097521B05F068F9E169626969
:10114000B0698B1E1144A26901904910206976692B
:10115000521B01312844009605F058F9002008B0D0
:10116000BDE8F081006802F067FF876E0490002FF1
:1011700000F0D080A368B0F95C80002B00F0C8803C
:10118000032B14BF0023022300EB8303406D08AC44
:101190001D6C0BF03BF828460BF008F806A806F08B
:1011A00083FBB28BBDF8181006A8BDF81C301144A3
:1011B000BDF81A509A1ABDF81E30ADF81810023555
:1011C00054F8101D023BADF81C20B1F96020B1F9B4
:1011D0005E10ADF81E30ADF81A500AF0BFF9204687
:1011E00008AC03F08DF802200BF0CCF9384602F081
:1011F00023FF06A9424644F80C0D04F055FD204695
:1012000003F07EF8002008B0BDE8F081006802F02D
:1012100013FF0490206819F095FFB8B9049B5D6F27
:1012200005B9DD6E04A803F06BF800232846216899
:101230001A4604F0E3FB002008B0BDE8F081006826
:1012400018F09AFE002008B0BDE8F081A368002BDA
:1012500064D1049A136F002B14BF6C2368231344CA
:101260005D68DFE7B268B046C36900270392716822
:101270008269029158F8040900956169019020691A
:101280000CF094FF58F8040F0AF090FFF369A2697C
:1012900021696069D21A1944384405F091F9F3695B
:1012A000A2692169E069D21A1944C01B05F088F9C6
:1012B000F369E26961692069D21A1944384405F07A
:1012C000C1FBA069F369E269C01B61690137D21AE9
:1012D000194405F0B7FB022FD4D1B0680AF066FFBD
:1012E000F16922696569901CE3690A445B1A294423
:1012F000013A05F03DFCF169A0696569E369821E68
:10130000401A5B1A2944013005F032FCF56906E702
:10131000012339E704A802F0F3FF1FE7049BDD6E09
:1013200080E700BFC83D080810B5044682B078B118
:1013300008F056FB204602F07FFE02AB448E43F8D5
:10134000040D1846C4F3002402F0DAFF0BF0A8FFE6
:10135000204602B010BD00BF70B5164604460D46CB
:10136000049A3046194604F0FDFA29460246204602
:10137000BDE8704000F070B8054B064A064910B44D
:101380005C6A1160586220465DF8044B704700BFEC
:1013900074100220A4100220A810022000B9704787
:1013A00030B5044683B00D4608F01AFB204602F023
:1013B00043FE02AB456543F8040D184602F0A0FF5A
:1013C000204617F051FE0BF06BFF03B030BD00BF9D
:1013D00038B51346002204460D461846114604F05F
:1013E000EBFA294602462046BDE8384000F034B802
:1013F00070B582B018B90125284602B070BD044608
:101400000D4608F0EDFA204602F016FE0346866E01
:1014100068468DE8480002F073FF294601A80DF0E8
:1014200011FC00280CBF012500250FD0019B9E4216
:1014300009D0204602F000FE019A034668469A66EB
:10144000009302F05DFF204617F00EFE0BF028FF20
:10145000284602B070BD00BF00B9704770B50546A0
:1014600082B00C46164608F0BBFA284602F0E4FDAE
:10147000022C019006D901A802F042FF0BF010FFE8
:1014800002B070BD1A34A4002044043002F0B2FB54
:10149000019B28461C44666017F0E6FDEBE700BFA1
:1014A000F0B5274F83B005463A68538CD46C116D64
:1014B0001C44938CA4B20B4421B29384013C51840C
:1014C000ADF8001006F0CAF9064628460DF0F2F90C
:1014D0003B683444B3F924602044ADF80260013E17
:1014E000ADF8040006F014FA06446846ADF806604C
:1014F00019F032FA80B90A2D1DD0BDF804303A68CF
:1015000001331BB25384918CD46C106D1B1B091AD0
:101510005384918403B0F0BD284601F0E7FF19F031
:10152000ADF80028E7D0284601F0E0FF19F0A6F852
:101530000028F1D1DFE73A68B2F92230E3E700BFD3
:10154000341002202DE9F0430F4685B0064608F01E
:1015500047FA112F49D0132F40D0304604AC02F087
:101560006BFD0346C06B44F80C3D02F0A7FF8146BB
:10157000204602F0C5FEA7F14103192B98BF203782
:10158000B9F1000F2CDD00250DF10C08304602F0FA
:1015900053FD03462946C06B039302F0A3FF0446A4
:1015A000404602F0ADFE204684B102F045FD034600
:1015B00002A8029353B11C78A4F14103192B98BFE0
:1015C000203402F09DFEE4B2BC4248D00135A9456A
:1015D000DCD10BF065FE05B0BDE8F083002E5AD1DA
:1015E0000BF05EFE05B0BDE8F083002EF8D008F0E9
:1015F000F7F90DF11008304602F01EFDB0F9344045
:1016000048F8040D404602F07BFE0BF049FE04B1A1
:10161000013C08F0E5F9304602F00EFD0346C06BD0
:10162000039302F04BFF00B101388442039BA8BF33
:101630000446B3F93420A24229D09C86404602F0E9
:101640005FFE304617F010FD3046042118F04AF9CD
:101650000BF026FE0BF024FE05B0BDE8F083002E53
:10166000BED008F0BDF9304602F0E6FC0346C06B80
:10167000039302F023FF00B101388542039BA8BF0A
:101680000546B3F93420AA4201D09D86D6E74046EC
:1016900002F036FEDCE70DF1100808F0A1F9304643
:1016A00002F0CAFCB0F9344048F8040D404602F09C
:1016B00027FE01340BF0F4FD08F092F9304602F0F9
:1016C000BBFC0346C06B039302F0F8FE00B1013887
:1016D000A042039BA8BF2046B3F934208242D6D053
:1016E0009886ABE7F8B1F1B170B5044682B00D460B
:1016F00008F076F9204602F09FFC02ABC66B43F877
:10170000040D184602F0FCFD2846FEF785FE29462A
:10171000421C304602F01CFE204617F0A5FC0BF0E0
:10172000BFFD02B070BD704770B5456882B0044619
:10173000284602F081FC02ABD0F8886043F8080D1F
:10174000184602F0DDFD2146284615F0D1FC60B3B5
:101750002368112B5ED01DDC0E2B28D00F2B65D0FB
:101760000B2B1FD1284602AD02F066FC0346C06B6E
:10177000019302F03FFE019BD3F8880016F03CFA7B
:1017800055F8043DD3F8940002F00AFA284602F016
:10179000B7FD07E0262B24D0B3F5107F00F09D8025
:1017A000212B54D0204616F0DBF902B070BDE3685F
:1017B0005A68002AF6DD1968A1F10903192B00F215
:1017C0009980012280489A4010400028EAD11202F4
:1017D00026D4002B40F08E8016F066FD8642E1D1C3
:1017E00014E0E1680A2900F08C800B2900F08D805C
:1017F0000129D7D1304610F0ADFC0028D2DB3046AD
:1018000010F0A8FC0646002D40F09B80284618F0FA
:10181000C7FAC7E7002EC5D1E3681B7A002BC1D0F9
:10182000002DBFD0284600F095FABBE7284602F00D
:1018300003FC034602A840F8043DD3F884301E6838
:1018400002F05EFD002EADD02846B047AAE7E3685F
:101850005A68002AA6DD1B680D2BA3D1304610F074
:1018600079FC002863DB304610F074FC0646002D3E
:10187000CCD008F0B5F8284602F0DEFB0346C06B7A
:10188000019302F01BFE00B101388642019A3346F3
:1018900001AEA8BF0346B2F93410994200F08F8020
:1018A0009386304602F02CFD284617F0DDFB04211C
:1018B000284618F017F80BF0F3FC08F091F82846CA
:1018C00002F0BAFBD0F888300190002B6CD1304682
:1018D00002F016FD0BF0E4FC98E7E36863B31B7AB3
:1018E00028461BB1012117F0FDFF5EE7022117F02A
:1018F000F9FF5AE7002D3FF458AF2846FFF722FEC4
:1019000053E7284617F0EEFF4CE7002D3FF44AAFAF
:1019100008F066F8284602F08FFBD0F88830019076
:101920008BBB01A802F0ECFC0BF0BAFC3AE7002DEF
:101930003FF46CAF01AEC0E72846032117F0D2FF99
:1019400033E708F04DF8284602F076FB0346C06BFB
:10195000019302F0B3FD08B30138B042019BA8BF68
:101960003046B3F9342090421AD0988601A802F08C
:10197000C7FC284617F078FB0421284617F0B2FF71
:101980000BF08EFC42E7184616F036F9019B002258
:101990002846C3F8882017F067FBC2E70020DCE781
:1019A00001A802F0ADFCEBE7184616F025F9019B03
:1019B00000222846C3F8882017F056FB87E73046F8
:1019C00002F09EFC77E700BF020004032DE9F04F10
:1019D0008B46B0F90C1089B0B0F90A70856901EB3B
:1019E0000308B0F910301744B0F90EA00026059393
:1019F0006C35B0F81290B0F9084007F0F1FF384BA1
:101A00005246CDF800B041460293384603954FF058
:101A1000FF33019615F0A8FF824628B90BF040FC71
:101A2000504609B0BDE8F08F2E4F02F005FB21466D
:101A3000102206903D4615F067FDDDF818E00FCD49
:101A40000EF14C048EF88C900FC40FCD0FC40FCD47
:101A50000FC495E80300BB6B84E80300CEF8843024
:101A600050468EF89060BDF81430AEF8363002F073
:101A7000E3FAB0F93810079061B30346DA6A184602
:101A8000B3F98040136803EB44040C4418F054FF8E
:101A9000054607A802F034FC22462946504618F0B5
:101AA00025FB06A802F02CFC02F0A0FC04465046E0
:101AB00002F0C2FA034606A8DC63069302F020FC9B
:101AC000BB6B50465B6898470BF0EAFB504609B089
:101AD000BDE8F08FC06C05F091FF079B0146CDE794
:101AE00029170008341102202DE9F04188B004467E
:101AF000006802F0A1FA034608A8D3F8886040F80D
:101B0000103D5F8E02F0FCFB206819F01BFB26B92C
:101B1000FB0740F1A7808C4D00E08C4D6368122BD1
:101B200000F29C80DFE813F009019A00E1009A00BE
:101B30009A0013009A009A009A009A009A009A005C
:101B40009A009A009A009A009A009A00A500AA6842
:101B50002F1FE369002603926968A2690291286831
:101B600061690190D4F810E0A86A009070460CF00A
:101B70001DFB57F8040F0AF019FBAB6AA269216933
:101B80006069D21A1944304404F01AFDAB6AA269A4
:101B90002169E069D21A1944801B04F011FDAB6A77
:101BA000E26961692069D21A1944304404F04AFF9D
:101BB000A069AB6AE269801B61690136D21A1944D7
:101BC00004F040FF022ED4D1A86A022819DDA868CB
:101BD0000AF0ECFAA96A22696669901CE3690A4472
:101BE0005B1A3144013A04F0C3FFA96AA069E369B2
:101BF000821E6669401A5B1A3144013004F0B8FF56
:101C0000A86A62692969E3690191911C27691344F3
:101C1000EE68A2695B100096121A384404F0F6FBD5
:101C2000E1696269AE698B1E1144A86AA269491014
:101C300001962769121A6E6901313844009604F042
:101C4000E5FB686A0AF0B2FAE3696169A0691A1FE4
:101C50005B1A0431C01A013004F0F4FE002008B011
:101C6000BDE8F0813A4BA3F12C05002808BF1D46C2
:101C700054E7206802F0E0F9034608A8B3F9806051
:101C800040F80C3DD3F84C80B3F9827002F038FB79
:101C9000B4F814E0B2B2A36920690EEB03010EF1AF
:101CA000020E10440339ADF81AE0B4F81CE0861CAB
:101CB0008B1A0220AEF10202ADF81860CEEB0303DE
:101CC000ADF81E20ADF81C300AF05CFC40460AF06E
:101CD0009DFA286A0AF06AFA206A3A4606A903F0D1
:101CE000E3FF002008B0BDE8F08104F11401E869C9
:101CF0000EC95C1AA4F10806651C7610A2EB6505F6
:101D000006F1FF380AF052FAC8EB0404B8F1000FEC
:101D10004FEA6404A2DBAF1B4544264401373F1B56
:101D20003919204601342A4604F04AFC013DA642F6
:101D3000F6D1002008B0BDE8F081206818F01CF949
:101D4000002008B0BDE8F0817C130220501302206F
:101D5000D41302202DE9F04F07469BB007F040FE58
:101D600038460FAC02F068F90D90384616F048FD81
:101D70000D9B0690DD6B93F89020284693F88C809D
:101D8000B3F936900B92B3F934A002F097FB0D9B98
:101D900006461A6DB3F88EB011925A6E05925A6DBE
:101DA00012929A6D1392DA6D14921A6E1592059A28
:101DB00016921A6F17925A6F18929A6F1992B3F976
:101DC000822093E803000792DA6CD3F894300892EB
:101DD000059384E803000DA802F092FA384616F045
:101DE000EFFB02F029F91AABB0F90010B0F90220AC
:101DF00043F8380D18460A91099202F081FA099ABF
:101E000020460A995242494209F0A8FB18F0020FF5
:101E100077D0BDF83E30C9EB03031BB23846ADF8AE
:101E20003E30022416F0CCFB014606980294009046
:101E30000020BDF93E30BDF93C20CDF8049010F0F3
:101E400017F918F0010F04465ED16EB14FF000088B
:101E50004146284608F1010802F044FB01462046AD
:101E60000FF0DCFC4645F3D1002611AD55F82620D5
:101E700031460136204610F0B3FB032EF6D1002682
:101E800014AD55F8262031460136204610F008FEE4
:101E9000032EF6D1002617AD55F82620314601361F
:101EA000204610F081FC032EF6D1059BA3BB5946BA
:101EB000204610F03DFC0899204610F0B5FB07992C
:101EC000204610F0D3FD204617F06AFF3946204621
:101ED00010F04AFC5146204610F0E0FC0121384643
:101EE00017F000FD384602F0A7F803460DA8C3F826
:101EF00088400D9302F004FA0BF0D2F91BB0BDE854
:101F0000F08FBDF9423089E70B9910F091FC012167
:101F1000204610F02FFB98E7184602F08DF806884F
:101F200005460E9096B14FF0000805EBD80308F077
:101F30000702414608F101089B78204643FA02F265
:101F400002F0010210F08EFBB045EED10EA802F0B7
:101F5000D7F9ACE700B9704730B5044683B00D46F9
:101F600007F03EFD204602F067F890F88C2003460B
:101F7000019002F0FE046DB994420FD0D3F888505E
:101F800001A883F88C4002F0BBF975B90BF088F911
:101F900003B030BD44F001049442EFD101A802F037
:101FA000AFF90BF07DF903B030BD04F00101284614
:101FB00010F0E0FAEAE700BF00B9704730B5044618
:101FC00083B00D4607F00CFD204602F035F80346BD
:101FD000C06B019302F072FAB0B9A842019BA8BF8E
:101FE0002846B3F93420824210D0988601A802F026
:101FF00087F9204617F038F82046042117F072FCC4
:102000000BF04EF903B030BD0138E6E701A802F04D
:1020100077F90BF045F903B030BD00BF00B9704748
:1020200070B5044682B00D4607F0DAFC204602F097
:1020300003F802AB058743F8080D184602F060F973
:10204000204601F0F9FFB0F938100190D1B10346F4
:10205000DA6A1846B3F98050136803EB45050D445E
:1020600018F06AFC064601A802F04AF92A463146F1
:10207000204618F03BF8204616F0F6FF0BF010F95A
:1020800002B070BDC06C05F0B9FC019B0146DFE7F2
:1020900030B583B00C4601F0CFFF02AD214645F8C4
:1020A000040DC06B02F01EFA0446284602F028F91F
:1020B00020460CB101F0C0FF03B030BD2DE9F04364
:1020C00004468BB018B920460BB0BDE8F083164625
:1020D0000D461F4600F086FD8046204600F066FD56
:1020E000814607F07DFC05A9204600F0B5FFEA0710
:1020F00019D4AB07BDF920004CBF40F202230223E4
:10210000304442460293494643468DE89000FEF72C
:10211000D3FE0446002115F007F90BF0C1F8204664
:102120000BB0BDE8F083BDF9242008F1FF30822315
:10213000101A801BE5E700BF10B50523FFF7BEFFAF
:102140000446054A0021FFF743F92046034917F0EA
:102150006DFD204610BD00BFD11202088117030893
:1021600010B50723FFF7AAFF0446054A0021FFF731
:102170002FF92046034917F059FD204610BD00BF36
:10218000291402089917030810B50823FFF796FFD2
:102190000446054A0021FFF71BF92046034917F0C2
:1021A00045FD204610BD00BF91160208D91703084F
:1021B0002DE9F047466886B00546304601F03CFF01
:1021C000C36D0090D0F88840D0F88070D0F8688057
:1021D000B0F87C90002B64D0D3F800A0684602F0E1
:1021E0008FF814B909E024683CB163682846984721
:1021F0000028F8D006B0BDE8F0872B68172B00F058
:10220000A5801DDC0F2B00F08D807DDC0B2B00F0FA
:10221000BF800D2B0AD119F0080F07D1EB68DB68DE
:1022200023B11B7A13B1304617F0BAFD3046294668
:1022300014F05EFF0028DDD0284615F091FCD9E7A8
:10224000262B75D02FDC1E2B00F0AE80202BEDD17D
:10225000EC68002CEAD03146606818F059FF00287D
:1022600000F0C080304601F0E7FEB0F87C30024656
:102270000190180740F12D8101A802F041F8314684
:10228000606818F033FF0028D0D0304601F0D4FE4B
:102290006268034601A80193C3F8802002F030F879
:1022A000C4E79A469AE72A2B65D0B3F5107FBDD1D3
:1022B00006AC3046D5F80C8001F0BEFEB0F87C705C
:1022C00044F8140D204602F01BF8EB68002B91D067
:1022D00098F80830002B00F0AB80380740F1B78049
:1022E000304615F085FA07F48873B3F5887F81D1FD
:1022F00007F080039BB2002B7FF47CAF4146304651
:10230000052217F0D7FC75E7112B22D0142B8DD1A5
:10231000304601A900F0A0FE02ABEA6803CB1060D2
:10232000516067E7BAF1000F80D03046D0477DE7B3
:10233000EB68022B7FF45EAF272206A9A86841F85C
:10234000142D0396049319F069F853E7C5F80C802F
:1023500050E7EC68304601F06FFE01902389012BB5
:1023600005D1B0F87C3043F48073A0F87C3001A82C
:1023700001F0C6FF5AE7304601F05EFEEB680090C0
:10238000002B68D0C0F88430684601F0B9FF31E70F
:10239000304601F051FE03467030009301F02AFCF4
:1023A000684601F0ADFF41E7EC68012C57D0002EE4
:1023B0003FF420AF07F014FB304601F03DFEB0F8CB
:1023C0007C30024601901C0706D523F008033046F6
:1023D000A2F87C3016F048FE01A801F091FF0AF047
:1023E0005FFF07E7304601F027FEB0F87C30024679
:1023F0000190190706D523F008033046A2F87C3077
:1024000016F032FE01A801F07BFF3146206818F07B
:102410006DFE00283FF40AAF304601F00DFE226841
:10242000034601A80193C3F8802001F069FFFDE68F
:10243000304601F001FE03462046B3F87C200193AC
:1024400022F48072A3F87C2001F05AFFD2E63046D5
:1024500017F0A6FC44E7D0F88430EB6094E73846E8
:1024600017F022F920B3384617F09AFC384616F0D8
:10247000A9FCB0B926B9002F7FF4BCAEEF60B9E675
:1024800007F0AEFA304601F0D7FDB0F87C300246D6
:102490000190190725D501A801F032FF0AF000FFCD
:1024A000E9E72146384614F013FF002EE3D0E7E7B2
:1024B000404617F0E1FC0746304601F0BDFD0346FB
:1024C0006846C3F88070009301F01AFF002ED2D046
:1024D000D6E743F008033046A2F87C3016F0C4FD7E
:1024E000CAE643F008033046A2F87C3016F0BCFD83
:1024F000D1E700BF2DE9F04F8DB0074689469246DF
:10250000169C9B46DDF85C80602507F069FA009414
:1025100048F480564C4C5B46524601964946384634
:102520000395029415F020FA064628B90AF0B8FE81
:1025300030460DB0BDE8F08FDFF814B10DF1300971
:1025400001F07AFD302219995D46049014F0DCFF09
:1025500059F8207D4FF0000A0FCD07F134040FC465
:102560000FCD0FC495E803001B9B384D84E8030092
:102570007B664846BDF8603041F28274C7F880A09F
:10258000A7F87C30DBF82830C7F86CA0FB65C7F8EB
:1025900088A001F0B5FE07A9304600F05DFDBDF949
:1025A0002010BDF92270BDF924200846BDF926305F
:1025B000521A0194DB1B39460132CDF80CA00133CD
:1025C0000096029515F0D0F9DBF828300446304625
:1025D0005B689847304601F02FFD034648469C66ED
:1025E000049301F08DFE42F2040308EA0303C3B131
:1025F00007F0F6F9304601F01FFD0346026F05A80B
:102600000593069201F07CFE1A9906A80CF01AFBBD
:1026100058B90AF045FE0AF043FE30460DB0BDE859
:10262000F08F304615F00EFCE2E7304601F004FD75
:10263000069A034605A81A67059301F061FE304625
:1026400016F012FDE5E700BFB1210008F1330008E4
:10265000701102202DE9F04F0F46B0F90C108FB029
:10266000B0F90A6001EB030BB0F908308569164434
:10267000049343686035B0F90E80B0F91090B0F85B
:1026800012A0059307F0ACF94B4C4FF4805E039514
:102690005946009730464B4642460294CDF804E036
:1026A00015F062F9054628B90AF0FAFD28460FB080
:1026B000BDE8F08FDFF808910EAE01F0BDFC049983
:1026C0003022069014F020FF56F8207DCE464FF0C1
:1026D000000807F13404BEE80F000FC4BEE80F0085
:1026E0000FC49EE80300189B84E803007B66304615
:1026F000D9F8283041F28274A7F87CA0FB65C7F8AE
:102700008080C7F86C80C7F8888001F0F9FD09A9BE
:1027100028462A4F00F0A0FCBDF92AE0BDF9281098
:10272000BDF92C20BDF92E300846521A0194CEEB8B
:10273000030371460132CDF80C80013300950297F6
:1027400015F012F9D9F82830044628465B689847F6
:10275000284601F071FC034630469C66069301F062
:10276000CFFD284615F06EFB07F03AF9284601F038
:1027700063FC034607A81A6F0793089201F0C0FD97
:10278000059908A80CF05EFA38B90AF089FD0AF03C
:1027900087FD28460FB0BDE8F08F284601F04CFCBD
:1027A000089A034607A81A67079301F0A9FD28466F
:1027B00016F05AFCE9E700BFB1210008F133000828
:1027C000701102202DE9F041044690B0006800F03D
:1027D000D5F9B04B6668A3F12C05002808BF1D464B
:1027E0001C2E00F2F780DFE816F02200F500F5005D
:1027F000F500F5003500F500F500F500F500F500F1
:102800005100F500F500FA00F500F500F5000E01A5
:10281000F500F50048014A014C014E01F500F500B4
:10282000F5001D006E69304610B0BDE8F0812068EB
:1028300001F002FC034610A8B3F85A2040F82C3DE2
:1028400042F00C02A3F85A2001F05AFD206817F05C
:1028500093FBE8E72A690026B4F910300192B4F935
:1028600014701846EA68B4F918503946B4F91C4097
:10287000ADF81C30009223462A46ADF81E70ADF824
:102880002050ADF8224003F0C1FDCCE723681C22A4
:1028900018460892079301F0CFFB034607A805935B
:1028A0001B6D9847064605A801F02AFD012E40F34E
:1028B0002781A9683346626902916868A16901901D
:1028C0002F68206900970BF06DFB2769A3693744D7
:1028D000C6EB0308286809F069FC4246394660697E
:1028E00003F06EFE686809F061FC60694246394693
:1028F000013003F065FE6B6A022B00F3F4802A6A54
:10290000964217DA6769012E206907F1020840F341
:102910002A810244374430444146013A3B4604F0A0
:1029200027F9A069821B3B46EF694146C01B013075
:1029300004F01EF9012E40F3138163691E44E76918
:102940002868013F09F032FC314620693A4604F01C
:1029500079F83A463146A06904F074F8E769686886
:1029600009F024FC023F206931463A46013004F068
:1029700069F8A0693A463146013804F063F8EB691A
:10298000022B40F38280AB6AE769022BA868CCBFB8
:10299000FF1A023F09F00AFCEA69022A00F39A8052
:1029A0002B6A022B00F38C80286809F0FFFBA269D8
:1029B0002169E06903F004FE686809F0F7FBA26989
:1029C0002169E069013A0131013803F0F9FDAF6A8C
:1029D000022F61DC0026304610B0BDE8F08104F122
:1029E00014012769A8680026ADF81C700EC9ADF85F
:1029F0001E10ADF82020ADF8223009F0D7FB07A853
:102A000004F0E2F80FE7298B2269A3690A4465699B
:102A10005B1AE1692068ADF82030ADF81C20ADF8F4
:102A20001E50ADF8221001F007FB036F0590FBB1BB
:102A3000022009F0A7FD059AB2F87C30C3F3C00369
:102A40000E3302EB8303986809F0B0FB059B586BCB
:102A500009F0DCFB059B186F01F0EEFA059B07A956
:102A60000690B3F95A2003F01FF906A801F048FCBC
:102A700005A8002601F044FCD5E6AE6AD3E6EE696F
:102A8000D1E62E6ACFE66E6ACDE62B6A022B8BDD8D
:102A900079E700BFDC110220D4F81C800026A2696F
:102AA0002169A868951E8C1C09F080FBC7EB080102
:102AB0002A462046A8F10203013104F059F8B2E693
:102AC000A0693B46EF693146821EC01B013004F00D
:102AD0004FF869E720693B46314602440230013A2B
:102AE00004F046F85CE7A86809F060FB63693846C3
:102AF0006F6A991C42463B44013B04F039F819E7E0
:102B0000286809F053FB2269EB69114660691A4491
:102B1000013A03F055FDA369E9691A466069591A3B
:102B2000013103F04DFD676920690137394603F033
:102B300073FD3946A06903F06FFD686809F036FB44
:102B400020693946013003F067FDA0693946013834
:102B500003F062FD2769A3690237A3F10208B9E611
:102B600066690236EBE60244434602304146013ACA
:102B7000474603F0FDFFA069821ED4E610B5044667
:102B800082B080B106F02CFF204601F055FA02AB6E
:102B9000B0F87C4043F8040D1846C4F3C00401F0BB
:102BA000AFFB0AF07DFB204602B010BD30B50446F5
:102BB00083B0A0B106F014FF204601F03DFA02AD4B
:102BC000C26D03460021204645F8043D93681B680A
:102BD00098470446284601F093FB0AF061FB204623
:102BE00003B030BD10B5044686B010B9204606B01B
:102BF00010BD06F0F5FE204601A900F02DFA204692
:102C000001F01AFA06ABB0F9544043F8180D184613
:102C100001F076FB0CB9BDF904400AF041FB2046F7
:102C200006B010BD00B970472DE9F043054685B0E8
:102C300006F0D6FE284601F0FFF9019028462CF058
:102C40004FFC019BB3F87C20120634D4986901F044
:102C5000F3F983690290B0F90060B0F90270002BBB
:102C60004AD0B0F90480B0F9069002A801F048FB00
:102C7000019B03F17402DC6993E8030082E803001E
:102C8000B3F87C2042F08002A3F87C2034B91AE02B
:102C9000039B03A81C6A01F033FBA4B1204601F09A
:102CA000CBF90390204615F01FFB0728F0D12046F2
:102CB00016F0DAF9ECE701A801F022FB0AF0F0FACD
:102CC00005B0BDE8F08301A801F01AFB3A46314691
:102CD000284616F043FDC7EB0902C6EB080128465B
:102CE0000132013117F002FA284600F043FB0AF0E6
:102CF000D7FA05B0BDE8F0830DF016FF0FFA80F8A3
:102D00000DF058FF0FFA80F9AFE700BF00B9704728
:102D1000F0B5054683B006F063FE284601F08CF955
:102D2000009028462CF094FB009BB3F87C205206C0
:102D300006D5684601F0E4FA0AF0B2FA03B0F0BD35
:102D4000B3F906201846B3F90260961B00F00EFA9C
:102D5000009B0136D96A03F174020F6800EB470744
:102D600093E80300023782E80300986E16F038F803
:102D7000009BD86E16F034F8009BB3F87C20DC6919
:102D800042F04002A3F87C2034B912E0019B01A874
:102D90001C6A01F0B5FA64B1204601F04DF90190CA
:102DA000204615F0A1FA0828F0D1204616F05CF96B
:102DB000ECE7684601F0A4FABA1B0021284616F099
:102DC00001FE284600F0D6FA0AF06AFA03B0F0BD18
:102DD00000B9704710B5044606F002FE20462CF0FC
:102DE0007FFB20462CF034FBBDE810400AF058BAB7
:102DF00000B9704730B5044683B00D4606F0F0FDCB
:102E0000204601F019F9836C0190AB4203D0856430
:102E1000806E16F029F901A801F072FA0AF040FA62
:102E200003B030BD084B10B403F10C01074C18611E
:102E3000074804F11802E469036003C982E803004B
:102E400020465DF8044B70479C110220701102204F
:102E500098110220024BB3F92620D88410467047FF
:102E6000701102202DE9F041044684B00E4606F0B0
:102E7000B7FD24B90AF014FA04B0BDE8F081204689
:102E800001F0DAF8458EC36D05F0200503909F68C8
:102E9000ADB245B1B0F954502DB9406B04F0B0FD5E
:102EA000039B851C00E003465E6303A801F028FA3B
:102EB0003B680121204698473B680646032120468F
:102EC00098473B68804600212046984707462046A1
:102ED00000F050FA4346324629462046009700F05B
:102EE000CBF9204616F0C0F80AF0DAF904B0BDE8D4
:102EF000F08100BF00B9704730B5044683B00D467D
:102F000006F06EFD204601F097F80346026F684612
:102F10000093019201F0F4F9294601A80BF092FE0A
:102F200018B90AF0BDF903B030BD204601F084F8AD
:102F3000019A034668461A67009301F0E1F92046BA
:102F400016F092F80AF0ACF903B030BD00B9704742
:102F500030B5044683B00D4606F042FD204601F030
:102F60006BF8B0F95A300190AB4204D0A0F85A5037
:102F7000204616F079F801A801F0C2F90AF090F99C
:102F800003B030BD00B9704730B5044683B00D467C
:102F900006F026FD204601F04FF802AB056443F829
:102FA000040D4564184601F0ABF9204616F05CF8B4
:102FB0000AF076F903B030BD2DE9F04385B020B9B1
:102FC0000546284605B0BDE8F08304460E4606F0E7
:102FD00007FD204601F030F8B0F954500390B54297
:102FE0002AD0418E01F0200189B219B16DB3034698
:102FF0002F4601E003460F46DA6D0121A3F8546025
:1030000020469668336898473368804603212046F7
:103010009847336800218146204698470646204657
:1030200000F0A8F9204600964B464246394600F08B
:1030300023F9204616F018F803A801F061F90AF008
:103040002FF9284605B0BDE8F083406B04F0D8FCAA
:10305000039B871CD0E700BF2DE9F04F89B00746DE
:103060000D4600F0E9FF034601213846DA6D05936D
:103070009468236898472368032180463846984718
:1030800023680221834638469847236800218246F8
:10309000384698478146059817F04EFC0646059835
:1030A00017F052FC03460598448E04F02004A4B2A5
:1030B000B4B1B0F95420B0F95840002A4AD091B2C6
:1030C000C06E0C44A4B280B103910292019315F03A
:1030D000B5FB019B0FFA80FC029A80B2039905E0D0
:1030E00021462246C06E0028EED184461FFA89FE92
:1030F000013E013B0FFA88F8CBEB060674440EF153
:10310000FF3ECAEB030336B2044471446B812A804C
:1031100005A8A5F802C0EC8069822E812E82A5F850
:103120000480A5F80C80A5F80E9001F0E9F808AA33
:10313000B5F910403846B5F90C3006A942F8044DEF
:10314000069300F04BF8069A079BAA812B8209B0E0
:10315000BDE8F08F406B019304F052FC821C019B90
:10316000059891B212B20C44A4B2BBE708B5438EE5
:1031700003F020039BB24BB10246B0F9540000B1FA
:1031800008BD506B04F03CFC023008BD184608BD79
:1031900070B58AB00C46064600F04EFF0AABC26D11
:1031A00043F8280D1846956801F0AAF80196032CFB
:1031B00005D8DFE804F00F0C0902172302936B68AF
:1031C00001A898470AB070BD15230293F7E71623AC
:1031D0000293F4E718230293F1E700BF2DE9F043CF
:1031E00083B088460446914600F026FF034602A8B5
:1031F000DA6D40F8083D9568B3F90070B3F90260E4
:1032000001F07EF82B6820460021984705462046AD
:1032100015F03CF868B3044607E001A801F070F827
:10322000204615F0BFF9044618B3204600F004FF0D
:10323000B0F9023001909B1B9D42EED1836A1B06C0
:103240000BD5B0F90030D9F80020DB1B934203F115
:10325000FF33E2DCC9F80030DFE7B0F90430D8F81A
:103260000020DB1B934203F10103A8BFC8F8003024
:10327000D3E703B0BDE8F0832DE9F04F83B0884673
:103280009A460546914600F0D7FEC26D02AED2F8CE
:1032900008B046F8080DFFF769FF0446304601F014
:1032A0002FF8DBF80030012128469847DBF8003082
:1032B0000321064628469847DBF8003007460021E0
:1032C000284698474445834609D14E4507D157457E
:1032D00005D10C9B984202D103B0BDE8F08F28467F
:1032E000C8EB040414F0D2FF05460028F4D04FF0D8
:1032F00000080C9BC9EB0606C7EB0A07C3EB0B0BD8
:10330000C1460BE0B3F5007F11D001A800F0F8FF33
:10331000284615F047F905460028DDD0284600F07C
:103320008BFE836A019003F42073802BEAD1CCB921
:10333000836A1A060BD49B05E7D508F1010308FB45
:1033400004615A462846984616F070FADDE709FBF4
:1033500014715A46284609F1010916F067FA019BD3
:103360009B6AE8E728462246214616F02BFB019887
:10337000DEE700BF70B586B0064600F05DFE03468E
:1033800006A89C6E40F8183DDD6E00F0B9FF14B938
:103390000DB906B070BD304601A9FFF75DFE6CB9EE
:1033A000002DF6D0BDF90A202846BDF90630BDF93A
:1033B0000810D21A16F094F906B070BDBDF90A20B3
:1033C0002046BDF9081016F08BF9BDF90E20BDF9A5
:1033D0000A602046BDF90C30BDF90810921B591A3D
:1033E0000132013116F082FE002DD2D0DAE700BFA3
:1033F0002DE9F043456887B00446284615F0E0F80B
:10340000074600F019FE034606A85E6E40F8143D1C
:10341000D3F84880D3F8809000F072FF23680E3B09
:10342000232B3FD8DFE803F035463E3E3E3E1212E6
:103430003E123E3E3E3E3E3E18243E3E2B3E3E3E2B
:103440003E3E3E3E3E3E3E3E3E3E3E30204614F038
:1034500087FB07B0BDE8F083E368002BF9D0B9F132
:10346000000F3BD04D4539D0484616F099FCF0E7A7
:103470002146384613F03CFE07B0BDE8F083C4F89F
:103480000C8007B0BDE8F0830023E36007B0BDE81F
:10349000F083E3685A68002A04DD1B68092B1DD0FD
:1034A0000A2B1FD0002ED1D020466760B04707B04E
:1034B000BDE8F0836FF07043984504D040460DF0AE
:1034C00081FE01F06FFF002EC3D002AF94E80F0021
:1034D00087E80F0038460395B047BAE7284616F04C
:1034E000CBFCB6E7284616F00FFDB2E70A2838B540
:1034F00014D00D28044610D006F072FA114B204665
:103500001B68DB691B6898470F4B1B680BB1204693
:103510009847BDE8384009F0C3BE38BD094C06F0F5
:103520005FFA06F05DFA2368DB695D7E09F0B8FE9C
:1035300023689A8C198C2A4459849A84BDE83840AF
:1035400009F0AEBE34100220F8FE0620204B70B504
:103550001E6806F045FA1F4C002530460DF032FE7D
:1035600009F09EFE1C4B1E6806F03AFA30460DF03C
:1035700063FE09F095FE06F033FA012223681A76FD
:1035800009F08EFE06F02CFA23689D8509F088FE6E
:1035900006F026FA23685D8509F082FE06F020FA1F
:1035A00028460DF07BFE09F07BFE0C4B1D6806F0F3
:1035B00017FA236805B1DD6109F072FE06F010FA12
:1035C000236800229A76BDE8704009F069BE00BF0A
:1035D00048F9062034100220301002202C1002205E
:1035E000014B83E803007047B8F80620014B83E8DD
:1035F00003007047C0F80620014B83E803007047C2
:10360000C8F80620014B83E803007047D8F806206D
:103610002DE9F04F5C4E8DB03368DA69B3F9225072
:10362000D469B4F80CB0834500F29780E1898142F7
:10363000C0F093802168CBEB000B08914FF0FF3175
:103640000A91BBF1FF3F00F0828092F81880A27CC3
:10365000B3F92A10B3F9249018FB02F30846079136
:103660001F4694F810A00DF019FED6F800E0089956
:103670004346DEF838C05246099007FB0B10DEF8CF
:103680001CE00B97012704904946CDF814C028464A
:1036900094F812C00297CDF80CC09EF81BC0DFF85A
:1036A000E8B0CDF804C09EF81AE0CDF800E00CF0C8
:1036B000B9FE0A9F7B1C25D0079941F002000DF04E
:1036C000EDFDDBF800100B9A43460898D1F838C09E
:1036D00002FB0700D1F81CE00127CDF814C00490CC
:1036E000524694F812C0494602972846CDF80CC0BD
:1036F0009EF81BC0CDF804C09EF81AE0CDF800E09B
:103700000CF090FE3368DFF88080DB695A7E1B7E08
:103710009A4215D9079B022B12D083F004000DF0BA
:10372000BDFDD8F800302846DB691F7ED97E9A7E21
:103730005B7E07FB01910AFB02524B440DF07AF8C5
:103740009DF824000DF0AAFD3368B3F92250627C85
:1037500015445D840DB0BDE8F08FA1680029F6D056
:103760000F88B842F3D3B1F802E08645EFD3C01B0F
:103770004968676880B2089701EB800731F920B08B
:10378000B7F902100A915CE734100220044B1B6861
:10379000DB69DB6909B11A7C0A60587C704700BF9D
:1037A0003410022002230B80704700BFC3699A893E
:1037B0008A4202D8DA898A4211D2986818B10388FD
:1037C000994201D20020704742888A42FAD3C91A2E
:1037D000436833F82100C043C0F3C0307047012074
:1037E000704700BF2DE9F04F3A4D89B02B68DA6978
:1037F000B3F92A90D36943B11A88904202D3598809
:10380000814205D29B68002BF6D109B0BDE8F08F4C
:10381000841AD3F80480484608EBC40696F802B030
:103820000DF03CFD8246286818F834204FF0010E58
:10383000C769D0F838C0B0F92410B0F922003B7E37
:103840000790CDF814C07068CDF80CB00490CDF896
:1038500008E097F81BE00798CDF804E0BF7E0097DA
:103860000CF0E0FD2B68DA69537E177EBB4223D94A
:10387000B9F1020F07931FD092F81BB004F018F8AB
:10388000814603F0DFFF08F091FC124B18F834E09A
:103890001868079BC169B0F92240CA7EB0F92410AC
:1038A00020460EFB02420BFB03130BFB07110CF02F
:1038B000C1FF484608F07AFC50460DF0EFFC2B683B
:1038C0007178D8695A8C807E00FB01225A8409B035
:1038D000BDE8F08F34100220114B1B6870B4DD6915
:1038E000EB6943B11A88904202D35C88844205D2C6
:1038F0009B68002BF6D1184670BC7047821A5E6830
:10390000AC7E06EBC2035B7813FB04F00029F3D016
:1039100016F8323014FB03F370BC0B60704700BF25
:103920003410022001230B80704700BFC06950B1E2
:1039300003888B4202D843888B4203D280680028D8
:10394000F6D17047012070472DE9F047244F3D68BC
:10395000002D3FDD234EC5EB4515DFF88C804FF081
:10396000000A3468D8F8009004EB85050C340C3557
:10397000A4F10803742249461846FCF7F0FC221F04
:103980002063A06344F80CAC6263E4607C34A5421D
:10399000EED10024254603E082B13A68954213DA5D
:1039A0002FF09FFA336801351A5919197C34904267
:1039B000F2D10431C8F80010BDE8F0870860043186
:1039C000C8F80010BDE8F08719460431C8F80010A7
:1039D000BDE8F087034BDFF810801968E9E700BF06
:1039E00054100220B0FB062034100220F8B5184F06
:1039F000184B3846184E40F80C3F0BF00FF934685E
:103A0000C4EB4414A400204600F04CF9134B2246AA
:103A100000211B68386098474FF0FF3373602FF028
:103A200065FA3368002B0FDD0024254603E062B100
:103A300033689D4208DA2FF054FA3B6801351A5971
:103A400023447C349042F2D1F8BD1860F8BD00BF29
:103A5000B0FB062011E102085410022018130220C6
:103A600009B9084670472DE9F0410E46054605F0B4
:103A7000B7FF05F0B5FF304618F0E2FB044609F049
:103A80000FFC24B3174FFA697B6B013203EBC401BF
:103A9000FA6113F83420013203F83420D1F804809D
:103AA00008F10800C5B1104B324629461B689847FB
:103AB000D8F800107A6B0B4D12F83130012B03D976
:103AC000E86908B10138E861013B02F8313009F0DA
:103AD000E7FB2046BDE8F081044B324629461B68CF
:103AE0009847E5E700FE0620141302201813022071
:103AF00000B9704710B5044605F072FF204618F073
:103B00009FFB044609F0CCFB204610BDF8B50546E6
:103B100005F066FF25B9002409F0C2FB2046F8BD78
:103B200005F05EFF284618F08BFB044609F0B8FB51
:103B3000002CF0D0144E2A46144F0021F069736B0C
:103B4000013003EBC405F06113F83400013003F8D1
:103B500034006D683B6805F1080098472968726B6E
:103B600012F83130012B01D9F06930B9013B02F86C
:103B7000313009F095FB2046F8BD0138013BF0617A
:103B800002F83130F5E700BF00FE062018130220CE
:103B900021F00301014B83E803007047E0F80620A1
:103BA00000B9704770B50D4C054605F019FFEE00E1
:103BB000636B33445968486817F060FD6368626B53
:103BC0000021606A013316446360706002F83510AA
:103BD0006562BDE8704009F063BB00BF00FE0620CF
:103BE00028B1034AD36B036003B15860D0637047B8
:103BF00000FE0620F8B5054605F0F2FE2C68B4B1CB
:103C00000E4E05F0EDFEE700736B3B4459684868C3
:103C100017F034FD7368726B0020716A013317442A
:103C20007360796002F83400746209F039FB002394
:103C30002B60BDE8F84009F033BB00BF00FE062052
:103C400000292BDD2DE9F04700258A46041F144F7B
:103C5000A94605F0C5FE54F8046F0135B6B105F06C
:103C6000BFFE7B6B4FEAC60843445968486817F0AB
:103C700005FD7B68796B7A6A013388447B60C8F8FC
:103C8000042001F836907E6209F00AFBC4F8009027
:103C900009F006FBAA45DCD1BDE8F087704700BFFC
:103CA00000FE0620F8B58B4E044696F82830002B0F
:103CB0002FD00334356CF26B24F003040434A54296
:103CC00038BF254662B152F8043C14469D4204D1E7
:103CD00014E054F8043C9D4210D02468002CF8D124
:103CE000F368B46B1C4454F8041C611A0B68002B75
:103CF00068D14B689D426FDD002408E023680BB15A
:103D000061685960616801B10B60A24256D02046DB
:103D1000F8BD714B01219A6886F8281058680AB9D5
:103D200082089A605A27102220254FF0400E3762F1
:103D3000802732644FF48072B5644FF400751968BF
:103D4000C6F850E04FF4806EB7654FF400673266F6
:103D50004FF48052B5664FF40055A1F11403C6F834
:103D600070E0B7674FF4804EC6F880204FF40047EC
:103D7000C6F888504FF480324FF400350344C6F83B
:103D800090E04FF4802EC6F898704FF40027C6F8E4
:103D9000A0200222C6F8A8500125B1637363C6F8BB
:103DA000B0E03261F060C6F8B8705D607562756051
:103DB00017F064FC24F09CFE35637AE72368204604
:103DC000F363F8BD00202BF06BFA54F8041C611A61
:103DD0000B68002B90D18CE7581BD6F8B8703D4A81
:103DE000041DBB420C4472D2D2F8B070BB426CD2FC
:103DF000D2F8A870BB4266D2D2F8A070BB4260D2A3
:103E0000D2F898709F425AD9D2F89070BB4254D2DF
:103E1000D2F88870BB424ED2D2F88070BB4248D2F2
:103E2000926F934243D2376F2A4ABB423DD2976E7C
:103E3000BB4238D2176EBB4233D2976DBB422ED2F3
:103E4000176DBB4229D2976CBB4224D2126C9342AD
:103E50000CD2F2687369521B2B44F260736110B983
:103E600044F8045C53E717F009FCF9E700223768CF
:103E7000D1F808E0FF1ACB683760BEF1000F01D01F
:103E8000CEF8043013B1C3F800E0E2E706EBC2025B
:103E9000C2F844E0DDE70122E9E70222E7E7032276
:103EA000E5E70422E3E70522E1E70622DFE7072250
:103EB000DDE70822DBE70922D9E70A22D7E70B2250
:103EC000D5E70C22D3E70D22D1E70E22CFE70F2250
:103ED000CDE700BF00FE0620E0F80620F8B54A4C0A
:103EE00094F82830002B3DD0D4F8BC30464A3BBB78
:103EF000D2F8B43023BBD2F8AC300BBBD2F8A4302C
:103F0000F3B9D2F89C30DBB9D2F89430C3B9D2F807
:103F10008C30ABB9D2F8843093B9D36F83B9536F77
:103F200073B9E36E63B9536E53B9D36D43B9536D2F
:103F300033B9D36C23B9536C13B96FF00B00F8BDD0
:103F40009B68002BF9D0002201E09B6843B15968BF
:103F50001046914201D90A4608469B68002BF4D1CD
:103F60000C38F8BD294B01219A6884F8281058684C
:103F70000AB982089A605A26102220254027266214
:103F8000802622644FF48072A5644FF4007519688E
:103F900027654FF48067A6654FF4006622664FF4EC
:103FA0008052A5664FF40055A1F114032767A66758
:103FB0004FF48047C4F880204FF40046C4F888507E
:103FC0004FF480324FF400350344C4F890704FF43E
:103FD0008027C4F898604FF40026C4F8A02002227D
:103FE000C4F8A8500125A16363632261E060C4F8AE
:103FF000B070C4F8B8605D606562656017F03EFB44
:1040000024F076FD25636FE700FE0620E0F8062029
:1040100030B1044B5B6B03EBC000436858680C384D
:10402000704700BF00FE0620024A93690133936186
:10403000704700BF00FE0620084AD169536B01316A
:1040400010B4D16103EBC00413F83020013203F83F
:10405000302060685DF8044B0830704700FE062091
:1040600009B9084670472DE9F8438846064605F029
:10407000B7FC404618F0E4F8054609F011F9002DA8
:1040800066D0002E64D0344CF700636B3B445B6811
:104090005B68A3F10C008045A8BF804605F0A0FC3A
:1040A000636BE169424613F8350003EBC508023142
:1040B00003EB070C0130DFF8A4E003F83500D8F873
:1040C0000480E16113F8361008F10800013103F8AB
:1040D0003610DCF80490DEF8003009F1080198474A
:1040E000D8F80010636B13F83120012A03D9E06976
:1040F00008B10138E061013A03F83120D9F8001025
:1041000013F83120012A06D9E069DFF84CE010B13C
:104110000138CEF81C00013A03F8312005F060FCAC
:10412000636B3B445968486817F0A8FA6368626B90
:104130000020616A013317446360796002F8360039
:10414000666209F0ADF809F0ABF82846BDE8F883DF
:104150002846BDE8F88300BF00FE062014130220A5
:10416000F8B5584C05F03CFC94F82830002B57D09B
:10417000D4F8BC30534A9BBBD2F8B43083BBD2F8DE
:10418000AC306BBBD2F8A43053BBD2F89C303BBBF5
:10419000D2F8943023BBD2F88C300BBBD2F88430E9
:1041A000F3B9D36FE3B9536FD3B9E36EC3B9536EA9
:1041B000B3B9D36DA3B9536D93B9D36C83B9536CB1
:1041C00073B96FF00B034049DA1781FB0313C2EB9D
:1041D0006313246A04FB03F409F062F82046F8BD77
:1041E0009B68002BF5D0002201E09B6843B1596821
:1041F0001046914201D90A4608469B68002BF4D12B
:104200000C38B0F5800F0346DDD8226A2E4B02FB36
:1042100000F0A3FB00235C0909F042F82046F8BD3A
:104220002A4B01219A6884F8281058680AB9820834
:104230009A605A2610222025402726628026226472
:104240004FF48072A5644FF40075196827654FF428
:104250008067A6654FF4006622664FF48052A5661B
:104260004FF40055A1F114032767A6674FF4804768
:10427000C4F880204FF40046C4F888504FF48032D0
:104280004FF400350344C4F890704FF48027C4F80D
:1042900098604FF40026C4F8A0200222C4F8A85069
:1042A0000125A16363632261E060C4F8B070C4F8C3
:1042B000B8605D606562656017F0E0F924F018FC95
:1042C000256355E700FE06201F85EB51E0F8062028
:1042D000102807D9054B5A685208904228BF10464B
:1042E000986070471020014B98607047E0F80620F6
:1042F000024A9369013B9361704700BF00FE0620AC
:1043000003680B4A30B4044653F8085C506B10F84D
:104310003530012B03D9D16909B10139D1610022AE
:10432000013B00F835301046226030BC704700BFBA
:1043300000FE0620034B5B6B03EBC00040680830B7
:10434000704700BF00FE062050F8080C704700BF01
:10435000A8B32DE9F041044682B0084682BB154659
:1043600002AE2046FFF768FE0346078846F8080DB0
:104370003046D3F80480FFF7C3FF791C404689001C
:10438000FFF76EFE804660B3FFF756FE034602A8B5
:1043900040F8043D43F82750FFF7B2FF2046FFF7EF
:1043A0004BFE034630461A88C3F80480013200935E
:1043B0001A80FFF7A5FF002002B0BDE8F08170472A
:1043C0001146FFF74DFB05460028C9D12046FFF7EF
:1043D00033FE02AB43F8080D1846FFF791FF0120AA
:1043E000EAE72846FFF7DCFB0120E5E70820FFF7B6
:1043F0008DBB00BF00B9704730B583B00546FFF7ED
:104400001BFE436800903BB96846FFF779FF2846DA
:10441000FFF7C6FB03B030BD1846FFF70DFE009B4B
:1044200001901B885BB1002400E0019800EB840040
:104430000134FFF7DFFB009B1B88A342F5DC01A8DA
:10444000FFF75EFF00980430FFF7D4FB009B0022CB
:104450001A80D9E730B583B00C46FFF7EDFD03882D
:104460000090A34201D9456825B96846FFF748FF87
:1044700003B030BD05F0B4FA2846A500FFF7DCFD17
:1044800001902844FFF7B6FB009B1A88013A92B2CC
:10449000A2421A8007DD019B121B291D92005819A8
:1044A0001944FBF75CFF01A8FFF72AFF08F0F8FEAC
:1044B0006846FFF725FF03B030BD00BF10B582B0DE
:1044C00018B90446204602B010BDFFF7B5FD02AB97
:1044D000048843F8040D1846FFF712FF204602B087
:1044E00010BD00BF10B582B018B90446204602B016
:1044F00010BD0C46FFF7A0FD038800909C4206D338
:1045000000246846FFF7FCFE204602B010BD40685C
:1045100008B90446F5E7FFF78FFD02AB50F82440D9
:1045200043F8040D1846FFF7EBFEEAE710B582B03A
:1045300008B30C46FFF780FD038800909C4206D329
:1045400000246846FFF7DCFE204602B010BD40683C
:104550000028F5D0FFF770FD02AB50F8244043F877
:10456000040D1846FFF7CCFE002CE9D02046FFF7DB
:1045700063FD0446E5E70446204602B010BD00BFD7
:1045800070B584B00446104615460E46FFF7BEFAD5
:10459000039068B3204604ACFFF74EFD314600900F
:1045A00000F02CF801900398FFF746FD124B54F8E9
:1045B0000C1D2A461B68029098472046FFF7A0FE74
:1045C00002A8FFF79DFE3146039A009800F034F8E8
:1045D00048B90398FFF730FD04466846FFF790FEA0
:1045E000204604B070BD03A80024FFF703FBF4E7E6
:1045F0000446204604B070BD14130220038899427B
:1046000001D30020704740680028FBD010B582B06D
:104610000C46FFF711FD02AB50F8244043F8040D9F
:104620001846FFF76DFE24B12046FFF705FD02B0E6
:1046300010BD0020FBE700BF03888B4201D9406812
:1046400008B901207047F0B583B00C461546FFF756
:10465000F3FC02AE074600EB840046F8047DFFF74A
:10466000C9FA47F824503046FFF74AFE002003B04D
:10467000F0BD00BF70B50D46044605F0FFF90022FD
:104680002B46C1B22046BDE8704000F001B800BF23
:10469000B0F1004F2DE9F04346D0002851DB002552
:1046A0004D1B4FF0000EEDB20AB1013DEDB275B3F6
:1046B0006C1EAA42274F4FF03108DFF89CC0E4B2CD
:1046C0001ED057F8246090FBF6F1C9B20A2901F117
:1046D000010906FB11001AD824B9BEF1000F01D060
:1046E0005FFA89F10A2901F1300115D01D686E1CAD
:1046F0001E6029705CB125466C1EAA42E4B2E0D16E
:1047000019684E1C1E609CF800600E70D9E71B688B
:1047100000221A70BDE8F08319682C464D1C1D60FC
:10472000254681F80080E7E71C684FF0010E4D1E1A
:104730002D2104EB0E066FF00040EDB21E602170DB
:10474000B2E71C6801252D26404267191F602670BC
:10475000A6E700BFDCF40708C4FE062010B584B04D
:104760000C46064B114601AA009020460193CDF855
:104770000CD01BF0C5FB04B010BD00BFA94E000853
:104780002DE9F04FBC4DA5B00E469A462D6824ACDD
:104790000DF1700C0DF16C0EE96B1546B74F1AAAAE
:1047A0000B6819A944F8300D21A806930DF15E039A
:1047B000CDF804C0CDF800E023942197DDF8B8B01F
:1047C00000F07AFB40B10120AB4B069A1B68DB6B13
:1047D0001A6025B0BDE8F08F05F002F903F068F823
:1047E000A54A199B116803FB0AF31A9ACC6C02FBC9
:1047F0000AF2096D34190A9069181FA807940891E4
:10480000ADF87E100139ADF87C40B3FBFBF3B2FB91
:10481000FBF223440A44013BADF88220ADF880301E
:1048200016F09AF800286FD0BBF1000F5B464FF0EE
:104830000004B8BF0BF101035B10099319E014DB0E
:10484000022B12DC1B9921A800F05EFC1C981A9C1C
:10485000019021A80094199B089ACDF80CB00799F3
:10486000CDF808A020F0E8F9044615F007FF00286D
:104870004BD01C9B002BE2D1BDF85E30013B1F2BBF
:10488000F3D801A252F823F06F4C00086B480008DF
:104890006B4800086F4C00086B4800086B48000824
:1048A0006B4800086F4C00086B4800086B48000814
:1048B0006B4800086B4800086B4800086B4800080C
:1048C0006B480008514B00086B4800086B48000813
:1048D0006B4800086B4800086B4800086B480008EC
:1048E0006B4800082F4A00086B4800086B48000816
:1048F0006B4800086B4800086B4800086B480008CC
:104900006B4800081949000804460A9807F04EFC55
:1049100008F0C6FC204657E71A9B0022199903FBB2
:104920000AF30C911E9293FBFBF39342109340F316
:104930003C82013B0B934FF0FF330E930B4643F346
:104940001A03DDF82480D9469E00D0440024C145D6
:104950000AD9D0440134C845FBD305E000F0BCFBC4
:10496000013C002840F0B081631C1EAA4FF00003F8
:10497000314621A8F2D1D9440123C14500F2418238
:10498000D9440133C845FBD20E9A119302FB03F2BE
:1049900012921E9A10460E9A013200F01B82089B5A
:1049A0000B9A134419460F93119B5D4613960646C6
:1049B000013B099C0C9A0B441593079B0D93002314
:1049C000511C02E00133994225D05444D71AAC421D
:1049D000F8D331780133B2785D44707806EB830602
:1049E000A54242EA014343EA002000F20E8201227E
:1049F0005D440132AC42FBD214920CF01DFC149ABF
:104A00000D98159B02440F990D92013A0BF012FF7D
:104A10007A1E002FD3D10B9B129A10991344139E28
:104A20008B420B9380F29481002B8EDA90E11A9BDB
:104A30000022199903FB0AF30C911E9293FBFBF3DE
:104A40009342109340F3A981013B0B934FF0FF3346
:104A50000E930B4603EB4303DDF82480D946DB00BD
:104A60001F335B119E00D0440024C8450ED2D044B1
:104A70000134C845FBD309E034100220A94E0008D8
:104A800000F02AFB013C002840F01E81002C4FF072
:104A900000031EAA314621A8F2DAD9440123C145F8
:104AA00000F2AB81D9440133C845FBD20E9A119371
:104AB00002FB03F212921E9A10460E9A013200F087
:104AC0008181089B0B9A134419460F93119B5D46F5
:104AD00013960646013B099C0C9A0B441593079BC1
:104AE0000D930023511C01E0994226D05444D71A5B
:104AF0000133AC42F8D332785D44B17803EB430321
:104B00007078AC4241EA02421E4442EA0020C0F002
:104B10009C8101225D440132AC42FBD214920CF024
:104B20008BFB149A0D98159B02440F990D92013A34
:104B30000BF080FE7A1E002FD3D10B9B129A139E8E
:104B40009B180B9300F10481109A93428BDBFFE0DA
:104B50001A9B0022199903FB0AF30C911E9293FBF6
:104B6000FBF39342109340F31081013B0B934FF002
:104B7000FF330E930B461B01DDF82480D9461F330B
:104B80005B119E00D0440024C1450AD9D0440134B1
:104B9000C845FBD305E000F09FFA013C002840F037
:104BA0009380621C4FF000031EAA314621A8F2D167
:104BB000D9440123C845C0F01C81D9440133C845FC
:104BC000FBD20E9A119302FB03F214920E9A013259
:104BD0001E9900F00781089B0B9A13440F9324AA97
:104BE000119B099C5D461046013B0F9A13440C9A99
:104BF0001593079B0D93034643F81C1D1293002346
:104C0000511C02E00133994228D05444D71AAC42D7
:104C1000F8D312985D44139309F0E4FF0CF0FEF80A
:104C20001D9A139BAC42014602EB43031D93C0F057
:104C3000F98001225D440132AC42FBD20846139256
:104C40000CF0FAFA139A0D98159B02440F990D92E5
:104C5000013A0BF0EFFD7A1E002FD0D10B9B149A76
:104C60009B180B9374D4109A93428BDB70E01B99C2
:104C700021A800F049FA1A9B0022199903FB0AF3B4
:104C80000C91BDF85E101E920B9193FBFBF89045C2
:104C900073DD4FF0FF3308F1FF390D930B46013BF5
:104CA0001F2B68D8DFE803F06167675B67676756AB
:104CB000676767676767671267676767676767122E
:104CC00067676767676767120124CEE50C9BDF00A3
:104CD0001F377F11BF00099D5E4655440024AE4238
:104CE00009D955440134B542FBD304E000F0F4F98E
:104CF000013C0028E8D1611C4FF000031EAA394690
:104D000021A8F3D15E44AE4200F2998001235E44B3
:104D10000133AE42FBD90D9A194602FB03FE013264
:104D20001E984AD0089B03EB09020B9B0124F14417
:104D300002910493CDF804B00C9BCDF800A0079924
:104D4000039423F0F7F9C14502DAB9F1000FC4DA90
:104D500000248AE50C9BDF1C27F00307BBE70C9BB4
:104D60009F001F377F11BF00B5E70C9B03F11F07A2
:104D70007F11BF00AFE70027ADE7A5D00123C8F141
:104D8000000891460D930B4689E79DD05B420B923C
:104D9000109301230E930B46EDE695D05B420B92E8
:104DA000109301230E930B4654E68DD05B420B9279
:104DB000109301230E930B46C1E5089A4A44D31A77
:104DC0005A1CB2E70B99089A0A44D31A01330F937D
:104DD00019467BE60B99089A0A44D31A01330F93BC
:104DE0001946E1E5089A0B980244D31A01330F9350
:104DF000F5E60E9A11931492E9E60E9A1193129227
:104E000059E60E9A11931292C3E50CF015FA119B14
:104E1000012B27D10F990D980BF0B2FC0D9B01339C
:104E20000D93F5E50CF008FA119B012B1CD10F999D
:104E30000D980BF0A5FC0D9B01330D930BE70121A1
:104E4000DDF834E00B46724669E70CF0F5F9119B8A
:104E5000012B0BD10F990D980BF092FC0D9B013398
:104E60000D9367E60122CBE50122ECE6012259E62B
:104E700000B583B000F1120302A840F8043D09F028
:104E8000B7FE03B05DF804FB00B583B000F1160374
:104E900002A840F8043D09F0ABFE0028B8BF40422C
:104EA00003B05DF804FB00BF10B40468104623444F
:104EB0005DF8044B0B6070472DE9F043044683B066
:104EC0000020894690461E46606003462568694674
:104ED000A0683622A847362803D0012003B0BDE8D9
:104EE000F083636868463633636009F07BFE009B9D
:104EF000054668460C33009309F07AFE074668467B
:104F000009F076FEC9F80000684609F071FE009BC2
:104F1000C8F8000068460233009309F063FE308051
:104F2000684609F065FE009B0B9A0C3310606846DA
:104F3000009309F05DFE3388013B1F2BCDD801A201
:104F400052F823F00F500008DB4E0008DB4E00083B
:104F500007500008DB4E0008DB4E0008DB4E00085F
:104F6000C54F0008DB4E0008DB4E0008DB4E000892
:104F7000DB4E0008DB4E0008DB4E0008DB4E00086D
:104F800017500008DB4E0008DB4E0008DB4E00081F
:104F9000DB4E0008DB4E0008DB4E0008DB4E00084D
:104FA00017500008DB4E0008DB4E0008DB4E0008FF
:104FB000DB4E0008DB4E0008DB4E0008DB4E00082D
:104FC000175000084FF480730A9A136008B10A9BC7
:104FD00018600B9B1B68032B21D06068283838446D
:104FE00060600A9B1B68B3F5807F3FF776AF44F69D
:104FF00042539D427FF471AF0B9B1868032894BF06
:10500000002001206AE710230A9A1360DEE70223DA
:105010000A9A1360DAE700230A9A1360D9E7266830
:105020001022636801A9A068B047102805D0636802
:10503000A3F1380038446060D3E7636801A8254EC7
:105040001033636009F0D4FD306001A809F0D0FD91
:10505000706001A809F0CCFD00223368F260DA0725
:10506000B06007D401225B081146013213F0010F32
:10507000F9D0F16001225B089646013213F001017C
:10508000F9D17368C6F818E0DA07316107D4012254
:105090005B081146013213F0010FF9D03161012292
:1050A0005B089646013213F00101F9D1C307C6F837
:1050B0001CE0716106D4012340081A460133C10780
:1050C000FAD57261012340081A460133C107FAD4A8
:1050D0003262ACE7ECF8062070B504460D464BB9D9
:1050E0004368114626682A46A068B047854205D025
:1050F000012070BD00210B464160F2E7636800208B
:105100001D44656070BD00BF00292DDD2DE9F04113
:105110000F4682B004460025DFF8508013E0636834
:10512000019A0433D8F800606360537811781B0249
:10513000907843EA014318430BF02CF946F8250018
:105140000135AF420CD00422266863680DEB0201E2
:10515000A068B0470428E2D0012002B0BDE8F08189
:10516000002002B0BDE8F08100207047081F072032
:1051700010B5044604F034FC044804EB840400EB4E
:105180008404247A08F08CF8204610BD3CFC0620EC
:105190002DE9F04F0E4683B0804604F021FCB400A8
:1051A000304602F091FBDFF81891A3198246D9F836
:1051B000002009EB83035F68002A32D0BAF1000FA8
:1051C0003BD1A519012309EB85056869C5F8048061
:1051D0002B72002864D1B8F1000F1CD034444FF07A
:1051E000010AD8F80820334609EB8404D8F80410E3
:1051F000D8F80000CDF800A02569AA1AE568691A58
:1052000006F08AFE6061304602F05EFB00284CD159
:10521000237A002B3BD108F043F8384603B0BDE8B1
:10522000F08F264A4846012340F82C2FC9F8003059
:1052300009F0F4FCBAF1000FC3D05046344406F034
:10524000FDFE83464FF07F4009EB840406F0A2FF89
:10525000012500F0A7F80022D8F80000114600F060
:105260004FFED8F8003050465A88198807F00CF8DD
:105270005846C4F80480257206F0E0FE304602F07D
:1052800023FB0028C4D0294607F00EF8C3E7606965
:1052900006F00EFE08F004F8384603B0BDE8F08FC3
:1052A00006F0A4FAC5F814A095E7514606F0FCFFF5
:1052B00007F0F6FF384603B0BDE8F08F09E20208B8
:1052C0003CFC06202DE9F04114460646884604F0D1
:1052D00087FB204602F0F8FAE8B9A7001B4D3B19FE
:1052E00005EB8303DA68B24206D11B69434503D15B
:1052F000BDE8F04107F0D4BF3B1905EB83035869C3
:10530000D0B93C4405EB8404E660C4F81080BDE8E5
:10531000F04107F0C5BF0D4B04EB840403EB84049C
:1053200063689A685968C2EB0802711A06F09CFF1C
:10533000BDE8F04107F0B4BF5B689A685968C2EBFA
:105340000802711A06F082FADBE700BF3CFC062077
:10535000C3B2CAB29A1A92B210B414B2002C1EDBB5
:10536000C1F30722C0F307239B1A9BB21AB2002A8B
:1053700012DB090C02FB02F2C1EB104104FB04201A
:1053800089B20CB2002C01DA49420CB2A1B25DF82C
:10539000044B01FB010070475B421AB2E9E752423D
:1053A00014B2DDE700212DE9F041084682B002F099
:1053B0003DFB184F04F014FB04200BF06FFF164B5D
:1053C00043F6FF763D46DB68804634466846DA6C35
:1053D0001B6D174416441D441C44ADF80070ADF815
:1053E0000460ADF80250ADF8064015F0B5FA48B1CA
:1053F00023463246294638460BF01CFA15F03EF992
:105400000028F5D140460BF049FF07F049FF02B0F4
:10541000BDE8F08101C0FFFF281002202DE9F04116
:1054200082B016461C4607460D4604F0D9FA042001
:105430000BF034FF134B80466846DB68DA6C1B6D5B
:10544000174416441D441C44ADF80070ADF80460C8
:10545000ADF80250ADF8064015F07EFA48B123468B
:105460003246294638460BF0E5F915F007F90028D1
:10547000F5D140460BF012FF07F012FF02B0BDE875
:10548000F08100BF281002202DE9F04182B0B0F970
:105490000070B0F90260B0F90450B0F9064004F0B1
:1054A0009FFA04200BF0FAFE134B80466846DB6837
:1054B000DA6C1B6D174415441E441C44ADF8007093
:1054C000ADF80450ADF80260ADF8064015F044FAAE
:1054D00048B123462A46314638460BF0ABF915F061
:1054E000CDF80028F5D140460BF0D8FE07F0D8FEE5
:1054F00002B0BDE8F08100BF281002202DE9F0477E
:10550000044682B00D461646002B37D09A460096C8
:1055100051460B9B204626680A9AB047074618B9A1
:10552000384602B0BDE8F08712F02AFE618A804654
:10553000384611F0CDFE013D384614F071FE40466C
:1055400014F06EFE002D1DDD4FF0000903E014F095
:1055500067FE013D16D054F81C6F0023CDF8009073
:10556000414620461A46B04706460028EFD1384645
:1055700012F042FB304602B0BDE8F08712F00EFE9A
:105580008246C4E740461D2114F022FBBAF1FF3FDA
:10559000C6D004F025FA12F087FE60B9BA4502D0F1
:1055A000384614F069FC07F07BFE384602B0BDE8CF
:1055B000F0870028F4D0FEF7BDFE80698742F8D15D
:1055C000F1E700BF80B582B000AF7860054B1B6883
:1055D000002B03D0034B1B687868984700BF08373F
:1055E000BD4680BDC0FE0620012B17DC2DE9F04131
:1055F00007461C2090460D461E46FEF753FB044608
:10560000D0B16DB1056100232046A661A4F81480D5
:10561000E76023606360A360BDE8F081002070470D
:10562000074B53F826200AB9EDE71A461368002BFA
:10563000FBD113692361E6E70020BDE8F08100BFDC
:10564000E4FE0620012B3BDC2DE9F84381461C20BB
:1056500090460F461E46FEF725FB054600287FD0E4
:10566000414A002F31D00023DFF804E152F82640F0
:1056700003609EF8001007618E428661A0F81480D6
:10568000C0F80C904360836002DB731C8EF800301E
:10569000002C5DD021464C68002CFBD1D9F80000CD
:1056A000CB681B6883422CDD09680029F8D148B912
:1056B0002E4B163628461A6842F82650BDE8F88365
:1056C000002070472846BDE8F88352F826100029CC
:1056D00030D0084600E018460368002BFBD1006973
:1056E000DFF88CE02B6028619EF80000AE618642F6
:1056F000A5F81480C5F80C906B60AB60CBDB0C4652
:10570000C3E70AD04B6843B31D606B608D4214BF82
:105710000B4600234D602B60C9E7B8F1010FF1D1B2
:1057200004E0DC68194623688342EBDB0B68002B3E
:10573000F7D1E7E7DFF838E001609EF800308661D6
:105740009E42A0F81480C0F80C9041608160D6DAC7
:1057500042F82650D9F80000A9E742F82650D5E7CC
:105760000020BDE8F88300BFE4FE062034100220CC
:10577000DCFE0620FEF734BA00283DD070B4846900
:10578000012C03DD0123184670BC70471F4B1A78AB
:10579000944221DA1E4D55F824300BB932E01346FD
:1057A0005A68002AFBD1C268116802E01B68002B0E
:1057B000E8D0DA6812689142F8DB10D05A68F2B18A
:1057C00010604260984214BF1A46002258600023BD
:1057D0000260184670BC7047621C1A70DAE7828A51
:1057E000012AEBD104E0D668134632689142E5DC29
:1057F0001A68002AF7D1E1E701231846704745F8F7
:105800002400DFE745F82400BDE700BFDCFE0620EA
:10581000E4FE062000284DD02DE9F041DFF89CE0A1
:10582000254F9EF80060BC4601E028463DB38469E0
:105830000568012CF9DCB44201DB661CF6B257F8AE
:1058400024300BB933E013465A68002AFBD1C268F2
:10585000116802E01B68002BE7D0DA6812688A4200
:10586000F8DC10D05A68A2B110604260984214BFB0
:105870001A460022586002602846002DD7D18EF8C3
:105880000060BDE8F081828A012A0CD05A68002AA3
:10589000EAD147F82400E9E7D2F80C801346D8F89B
:1058A00000208A42DEDB1A68002AF5D1DAE74CF8DC
:1058B0002400BAE7704700BFE4FE0620DCFE0620A5
:1058C0000F4A816952F8213098420AD042680AB1E1
:1058D00003681360036803B15A60002303604360E8
:1058E0007047036842F821302BB100225A604268A9
:1058F000002AEED1F0E74268002AEAD1EDE700BFC6
:10590000E4FE062000207047012810DC094B53F804
:10591000200068B1C3681B68994204D109E0C368DC
:105920001B688B4204D000680028F8D17047002023
:1059300070477047E4FE062001280EDC084B53F840
:10594000200058B1C3681B681BB908E0C3681B6816
:1059500023B100680028F9D17047002070477047D4
:10596000E4FE0620F0B583B0F8B104460C201646DC
:105970000F46FEF7CBF8054610B9284603B0F0BD38
:1059800004F02EF82846FEF757FB0A4A034602A801
:105990005C6040F8043D1F815E811A60FEF7B0FC38
:1059A00007F07EFC284603B0F0BD0546284603B04C
:1059B000F0BD00BF60630808F0B5074683B00C2057
:1059C0000E461546FEF7A2F8044688B104F008F822
:1059D0002046FEF731FB084A034602A85F6040F804
:1059E000043D1E815D811A60FEF78AFC07F058FCB9
:1059F000204603B0F0BD00BF146D080800B9704721
:105A00002DE9F04182B01E4615460C460746FEF7CA
:105A100013FB02AB026843F8040D1846D2F800806D
:105A2000FEF76EFC33462A4621463846C04702B090
:105A3000BDE8F08100B9704730B583B00446FEF789
:105A4000FBFA026802AB556843F8040D1846FEF7EE
:105A500057FC2046A84703B030BD00BF00B97047CF
:105A600030B583B00446FEF7E7FA026802AB9568EA
:105A700043F8040D1846FEF743FC2046A84703B040
:105A800030BD00BF2DE9F84307462DF02CFADFF8B2
:105A90006C9007442DF027FADFF864803E1A002E40
:105AA00022DD01F015F8D9F800309E42A8BF1E464D
:105AB00003F096FFD8F80040FEF7B6FAB4B12546D9
:105AC00007F0EEFB013DFBD130462DF007FA03F065
:105AD00087FF013CFBD1FEF70BFC07F0E1FB2DF04B
