:020000040800F2
:1000000048400720E1020008B9D7030889C1030866
:1000100095D70308DD6E0308AB120408000000004A
:100020000000000000000000000000001D020008A9
:10003000797A0308000000007902000871E80308DB
:10004000FB020008FB020008FB020008B1DC030809
:10005000FB020008FB020008FB020008FB0200088C
:10006000FB020008FB020008FB020008FB0200087C
:10007000FB020008FB020008FB020008FB0200086C
:10008000FB020008FB020008FB020008FB0200085C
:10009000FB020008FB020008FB020008FB0200084C
:1000A000FB020008FB020008FB020008FB0200083C
:1000B000FB020008B1E90308FB020008FB0200088C
:1000C000FB020008FB020008FB020008FB0200081C
:1000D000FB02000879F00308FB020008FB0200089D
:1000E000FB0200085DDB0308FB020008FB020008BE
:1000F000FB020008FB020008FB020008FB020008EC
:10010000FB020008FB020008FB020008FB020008DB
:10011000FB020008FB020008FB020008FB020008CB
:10012000FB020008FB02000879790308FB020008C3
:10013000FB020008FB020008FB020008FB020008AB
:10014000FB020008FB020008FB020008BDD7030801
:10015000FB020008FB02000885790308FB02000887
:10016000FB020008FB020008FB020008FB0200087B
:10017000FB020008FB020008FB0200080000000070
:10018000FB020008FB020008FB020008FB0200085B
:10019000FB020008FB020008FB020008FB0200084B
:1001A000DDCD0308FB020008FB020008FB0200088B
:1001B000FB020008FB020008FB020008FB0200082B
:1001C000FB020008FB02000800000000FB02000820
:1001D000FB020008FB020008FB020008FB0200080B
:1001E000FB020008FB020008FB020008FB020008FB
:1001F000FB020008FB020008DFF80CD000F0C0FA98
:10020000004800473D9604084840072030BF72B6BA
:10021000704762B6704780F3088870472D4B1968A5
:100220000868B0E8F04F80F30988BFF36F8F4FF094
:10023000000080F311887047000000000848006843
:10024000006880F308884FF0000080F3148862B6DD
:1002500061B6BFF34F8FBFF36F8F00DF00BF00BFEA
:1002600008ED00E0DFF80C00016841F47001016066
:10027000704700BF88ED00E0EFF30980BFF36F8F98
:10028000144B1A681EF0100F08BF20ED108A20E9E9
:10029000F04F106009B44FF0500072B680F311882F
:1002A000BFF34F8FBFF36F8F62B654F04DFF4FF027
:1002B000000080F3118809BC19680868B0E8F04FA5
:1002C0001EF0100F08BFB0EC108A80F30988BFF34E
:1002D0006F8F7047D4000220EFF305807047000055
:1002E0000648804706480047FEE7FEE7FEE7FEE7D0
:1002F000FEE7FEE7FEE7FEE7FEE7FEE75DE903084F
:10030000F90100082DE9F05F0546002092469B4662
:1003100088460646814640241BE02846414647461B
:10032000224600F0D6F853465A46C01A914110D3DF
:1003300011461846224600F0BDF82D1A67EB010859
:100340004F4622460120002100F0B4F817EB0009C7
:100350004E41201EA4F10104DFDC484631462A4606
:100360004346BDE8F09F10B5441A0346944209D2B3
:100370008418114403E011F8013D04F8013D521EB8
:10038000F9D210BD40EA0104A40703D009E010C966
:10039000121F10C3042AFAD203E011F8014B03F82C
:1003A000014B521EF9D210BDD2B201E000F8012B70
:1003B000491EFBD270470022F6E710B513460A46E5
:1003C00004461946FFF7F0FF204610BD421E12F802
:1003D000013F002BFBD111F8013B02F8013B002B40
:1003E000F9D1704730B505462A460B4612F8010B85
:1003F00013F8014B08B1A042F8D01CB1002802D07C
:100400006D1CF1E7284630BD10B5044604E00B78BA
:1004100000F8013B03B1491C521EF8D2204610BD22
:10042000421C10F8011B0029FBD1801A704710B53F
:10043000002200E0521C835C8C5CA34201D1002BA3
:10044000F8D1D8B2E1B2401A10BD30B50446002050
:10045000034600E05B1C934203D2E05CCD5C401B92
:10046000F8D030BD034611F8012B00F8012B002A0B
:10047000F9D118467047A0E8004FF0C040F804DBFF
:1004800001B5AFF30080BDE8024001C10020704714
:1004900000F12C080C4658F8040DAFF3008058F812
:1004A000040D8546200008BF012038E9F00018E956
:1004B000004F7047202A04DB203A00FA02F10020A6
:1004C00070479140C2F1200320FA03F31943904092
:1004D0007047202A04DB203A21FA02F000217047FD
:1004E00021FA02F3D040C2F120029140084319469C
:1004F000704700000FB4002300B589B00CA900912B
:100500000B996FF00042CB601E4B06931E4B079376
:100510000423CDE901321D4A089202466B460020B1
:1005200000F0DAF909B05DF814FB70B586B0064644
:100530004FF0FF300091CDE90101002015460C4637
:1005400004903246694604A8FFF7D4FF0246049897
:10055000211825B108B1084600E02046286004981B
:1005600000280DD0002A02DD0098884208D0081B20
:100570000094CDE901043246694604A8FFF7BAFFAA
:1005800006B070BD110B00082F0B0008A50700086E
:100590002DE9FE4F81EA030404F0004421F00041FC
:1005A00000944FF0000B23F0004350EA01045ED0AA
:1005B00052EA03045BD0C3F30A54C1F30A552C4436
:1005C000A4F2F3340194A0FB0254C1F3130141F4EB
:1005D0008011C3F3130343F4801301FB024400FBB7
:1005E000034E840A970A44EA815447EA8357A4FBDE
:1005F000076802958D0A05FB07854FEA932C04FBDB
:100600000C542705029D4FEA065847EA1637B5EB0A
:1006100008056EEB070C870E920E47EA811742EA37
:100620008312A7FB0201B6EB0B0164EB00042B0D58
:1006300043EA0C335E1844EB1C50DA465146E7FBA4
:100640000201C5F313044FEA0B3343EA14534FEA94
:100650000432019C43EA0603A4F10C040294009CBA
:10066000CDE900B400F083FA03B0BDE8F08F0020BC
:100670000146F9E72DE9F04D81EA030404F0004B4F
:1006800021F0004514464FF0000A23F0004150EAE3
:10069000050220D054EA01021DD0C5F30A570246D4
:1006A000C5F31303C1F31300C1F30A5640F48015D8
:1006B00043F48013A7EB0608101BD64608F2FD385A
:1006C00073EB050002D308F1010801E092185B41C9
:1006D000B8F1000F03DA00200146BDE8F08D0020DC
:1006E0004FF48011064684460EE0171B73EB050796
:1006F00005D3121B63EB050306434CEA010C4908C2
:100700004FEA300092185B4150EA0107EDD152EAFE
:10071000030012D082EA040083EA0501084305D0F1
:10072000101BAB4106D20122002306E000224FF04D
:10073000004302E06FF0010253101AEB06004CEB8D
:10074000085110EB0A0041EB0B01BDE8F04D00F041
:10075000FFB970B521F0004303430CD0C1F30A5533
:100760000024D5EB040564EB0403D617AD1AB3419E
:1007700002DB0020014670BD201841EB025170BD24
:10078000064C074D06E0E06840F0010394E80700DE
:1007900098471034AC42F6D3FFF732FD68690B0876
:1007A00088690B08C0B24FF4F05100F02FBA000076
:1007B0002DE9FF4F087883B09946FF2805D0491CE2
:1007C0002D2804D00024002008E000200BE00124A4
:1007D000F9E700EB800003EB4000491C0B78FF2B8E
:1007E000F7D104B1404200230293147819461D4604
:1007F0002D2C01D02B2C04D1521C2D2C13D00024D5
:100800000294AA461478FF2C0FD00A25A3FB057882
:1008100001FB05814FF0000C03FB0C11521CE31986
:100820004AEB0101EEE70124EAE7814453EA0100C3
:1008300002D019F5C87F06DA03980021C0E900113B
:1008400007B0BDE8F08F0025AE4E2F46DFF8B88226
:10085000184600F0EFF9CDE90001B9F1000002DA25
:10086000C9F1000400E004460023A74A1AEB030B79
:1008700042EB045A12E0E00707D02A4633463846D6
:100880004146FFF785FE074688462A46334610460E
:100890001946FFF77DFE05460E466410002CEAD18E
:1008A000DDE90001B9F1000F5A46534606DAFFF7B9
:1008B000E1FE3A464346FFF7DDFE05E0FFF768FE3E
:1008C0003A464346FFF764FE029A0AB181F00041BE
:1008D000039AC2E90001B3E72DE9FF4F1F468DB02F
:1008E000D7E901464FF0FF382E2045464FF000096A
:1008F0000B90B9696D1C0E988847396A8246884703
:100900000028F6D1BAF1FF3F0AD024F4D064002EBB
:1009100011DDBAF12B0F08D0BAF12D0F0BD102E087
:10092000404611B08DE744F48064B9696D1C0E989F
:1009300088478246761E6946600501D52D2000E075
:100940002B208DF8000001F1010B0DF1200809E0CA
:10095000B9696D1C0E98884782460F9844F400745C
:10096000761E0560002E02DDBAF1300FF0D00B9933
:100970008A453ED144F0800406E00F99681CA9F135
:10098000010944F400740860B9696D1C761E0E9864
:10099000884782463028F0D02BE00B998A4505D154
:1009A000200603D444F08004761E18E0504642F03E
:1009B00067FD08B30DF11301761E44F400748B45F6
:1009C00008D2AAF130000BF8010B200607D5A9F1D7
:1009D000010003E0200602D409F101008146A005D0
:1009E00002D50F99681C0860B9696D1C0E9888477C
:1009F0008246002ED1DC53E0002E51DDBAF1650FA6
:100A000002D0BAF1450F4BD1A00549D5B9696D1C8B
:100A100024F44074761E0E9888478246002E0CDD22
:100A20002B2804D0BAF12D0F07D144F48074B96992
:100A30006D1C0E9888478246761EE00501D52D2153
:100A400000E02B2108F8011BCDF82C8021E00DF1EE
:100A50002901761E44F4007488450CD2AAF13000B6
:100A600010F0FF0088F8000002D10B99884509D9E1
:100A700008F1010806E0E00501D5244801E042F252
:100A80000F708146B9696D1C0E98884782460F9891
:100A90000560002E04DD504642F0F2FC0028D6D15D
:100AA000F9690E988847FF208BF8000088F800004D
:100AB0000020069007904B466A4608A906A8FFF753
:100AC00077FEA00502D46FF001002AE714F0240F8E
:100AD0000AD0E00714D1DDE906123868031D3B6037
:100AE0000068C0E900120BE0DDE9060100F0AEF895
:100AF0000146E00704D13868021D3A6000680160D1
:100B000028460EE7000014400000F03FF1D8FFFF38
:100B1000426842B1016811F8013B23B1521EC0E99D
:100B20000012184670470121C160881E7047426854
:100B30005AB1C368016843B983688B4205D0491E26
:100B4000521CC0E90012002070474FF0FF30704780
:100B500010B5141E73F1000408DA401C41F10001C5
:100B600092185B411A4301D120F0010010BD2DE91C
:100B7000F04D92469B4611B1B1FA81F202E0B0FA13
:100B800080F220329046FFF795FC04460F4640EA7B
:100B90000A0041EA0B0153465A46084313D0114656
:100BA00053EA010019D0C8F140025046FFF791FC0A
:100BB00005460E46504659464246FFF77BFC084321
:100BC00005D0012004E020463946BDE8F08D002024
:100BD000054346EAE0762C4337430A986305E40A66
:100BE000A0EB08000022FD0A44EA47540A3002D56F
:100BF00000200146E9E7010510196941DDE90845D2
:100C000000196941BDE8F04DA2E700007F2801D935
:100C1000002208E0064A02EB5002C007127800D119
:100C2000120902F00F0201209040084070470000B6
:100C3000F8E00A080EB540F2334202920022CDE9F4
:100C400000221346FFF793FF03B000BD01F00043FD
:100C500030B421F0004150EA010206D00A0DA2F59D
:100C60006072C1F31301002A02DC30BC002070471F
:100C7000440F44EAC104C100E01830BC00EBC2508C
:100C8000AFF300800029A8BF7047401C490008BF8F
:100C900020F00100704710B4B0FA80FC00FA0CF0AC
:100CA00050EA010404BF10BC704749B1CCF12004E4
:100CB00021FA04F411FA0CF118BF01212143084371
:100CC000A3EB0C01CB1D4FEA00614FEA102042BF9D
:100CD000002010BC704700EBC35010440029A4BF93
:100CE00010BC7047401C490008BF20F0010010BC38
:100CF000704770B58D1810F8014B14F0030201D144
:100D000010F8012B231106D110F8013B03E010F875
:100D1000016B01F8016B521EF9D1ABB110F8012B38
:100D200004F00C048A1A0C2C03D0A2EB84129B1C36
:100D300008E010F8014BA2EB0422F8E712F8014B8F
:100D400001F8014B5B1EF9D5A942D4D3002070BD38
:100D500070B5456882B004460146284618F074FC18
:100D600068B123680F2B59D00BDD282B45D0B3F584
:100D7000107F3CD0112B49D0204619F09DF902B0CC
:100D800070BD0B2B20D00E2BF6D1E3681A68596882
:100D90000D2A53D0202A31D1002928464FF48071E2
:100DA0007DDD18F041FD284603F0A6FE02AB846A03
:100DB00043F8040D184604F003F8A207DFD52846CF
:100DC00001211BF02DF8DAE7284602AD03F094FE6E
:100DD00003466830019303F055FC55F8040D0321D8
:100DE0006C3003F075FC284603F0EAFFC4E7324B91
:100DF000214628461B689847C1E7E368002BBBD112
:100E000028464FF4807118F0FDFBB5E72B4B1B68AB
:100E1000002BB4D0214628469847B0E7284603F077
:100E20006BFE034602A840F8043D5B6E1C6803F0AD
:100E3000C7FF002CA3D02846A047A0E70029DDDD8E
:100E40004FF48071284618F0EFFC02AC284603F0FE
:100E500053FE866A44F8040D204603F0B1FFB10743
:100E600003D5012128461AF0DBFF4FF48071284694
:100E700018F0C8FB284603F03FFE034620461E8EAE
:100E80009C6A019303F09CFF30460DF0F3FDA3072D
:100E90007FF575AF284602211AF0C2FF6FE718F000
:100EA000B1FB284603F028FE034602A89C6A1E8E6A
:100EB00040F8043DE6E700BFA010022040FD0620F8
:100EC0002DE9F04F87B0804689469246129E9B4698
:100ED000109F4C251A4C09F051F801965B4600977B
:100EE0005246494640460395029418F0E9FF0646EB
:100EF00000B303F001FE10221199124F059018F073
:100F0000AFFD0DF1180E3D1D5EF804CD0FCD0CF1B7
:100F100034040FC40FCD0FC495E80F0084E80F0010
:100F20007B6B7046CCF8643003F04AFF7B6B304635
:100F30005B6898470EF0E2FB304607B0BDE8F08FE3
:100F4000510D0008A01002202DE9F04F87B0804617
:100F500089469246119E9B46109F4C251A4C09F0DB
:100F60000DF801965B460097524649464046039568
:100F7000029418F0A5FF064600B303F0BDFD102251
:100F80001399124F059018F06BFD0DF1180E3D1DD1
:100F90005EF804CD0FCD0CF134040FC40FCD0FC497
:100FA00095E80F0084E80F007B6B7046CCF8643046
:100FB00003F006FF7B6B30465B6898470EF09EFBA4
:100FC000304607B0BDE8F08F510D0008A010022098
:100FD0002DE9F04FB0F90A6087B0B0F90C708B467C
:100FE00085691644B0F90E801F44B0F910A004467C
:100FF000B0F908904C3508F0C1FFDFF8CCC04FF0D5
:10100000000E4246CDF800B03946304603955346AF
:10101000CDF808C0CDF804E018F052FF804628B99A
:101020000EF06CFB404607B0BDE8F08F03F064FDA6
:10103000244F49460DF11809102205903E1D18F065
:101040000FFD59F804ED0FCE0EF134050FC50FCE8C
:101050000FC596E80F0085E80F007B6B4846CEF879
:10106000643003F0ADFE7B6B40465B6898470EF042
:1010700045FB656808F082FF404603F03DFD0346EE
:1010800004A89C6E0493059403F09AFE29464846F2
:1010900010F00AF80028C3D0059B9C4209D04046B6
:1010A00003F02AFD059A034604A89A66049303F008
:1010B00087FE40461AF076FA0EF020FB404607B055
:1010C000BDE8F08FA0100220510D0008974A8168FA
:1010D00043682DE9F041044688B052F82160122B94
:1010E00040D8DFE803F0B03F3F3F3F0A973F3F3F24
:1010F0003F3F3F3F3F3F3F3F4300F569002D40F0FA
:10110000B580371F57F8040F0DF0B0FA04F1140141
:1011100020690EC928445B1B521B2944013505F088
:1011200039FF022DEED162693169E3690191911CA9
:10113000F76813442069A2695B1028440097521B8A
:1011400005F0F8FDE1696269B0698B1E1144A2697E
:101150000190491020697669521B0131284400969C
:1011600005F0E8FD002008B0BDE8F081006803F05C
:10117000C3FC876E0490002F00F0D080A368B0F904
:101180005C80002B00F0C880032B14BF00230223D7
:1011900000EB8303406D08AC1D6C0DF097FA2846F8
:1011A0000DF064FA06A806F04DFEB28BBDF81810DB
:1011B00006A8BDF81C301144BDF81A509A1ABDF8A3
:1011C0001E30ADF81810023554F8101D023BADF872
:1011D0001C20B1F96020B1F95E10ADF81E30ADF8F9
:1011E0001A500AF043FB204608AC03F0E9FD022048
:1011F0000DF028FC384603F07FFC06A9424644F86F
:101200000C0D05F0B1FA204603F0DAFD002008B01D
:10121000BDE8F081006803F06FFC049020681CF0CA
:101220002FFAB8B9049B5D6F05B9DD6E04A803F011
:10123000C7FD0023284621681A4605F03FF9002023
:1012400008B0BDE8F08100681BF018F9002008B074
:10125000BDE8F081A368002B64D1049A136F002BC2
:1012600014BF6C23682313445D68DFE7B268B0469F
:10127000C3690027039271688269029158F80409D2
:1012800000956169019020690FF088F958F8040F02
:101290000DF0ECF9F369A26921696069D21A194469
:1012A000384405F021FEF369A2692169E069D21A88
:1012B0001944C01B05F018FEF369E26961692069F1
:1012C000D21A1944384405F0ADFEA069F369E26909
:1012D000C01B61690137D21A194405F0A3FE022F21
:1012E000D4D1B0680DF0C2F9F16922696569901C2A
:1012F000E3690A445B1A2944013A05F007FFF169E2
:10130000A0696569E369821E401A5B1A29440130AD
:1013100005F0FCFEF56906E7012339E704A803F0B0
:101320004FFD1FE7049BDD6E80E700BF80390B088F
:1013300010B5044682B078B108F020FE204603F0D4
:10134000DBFB02AB448E43F8040D1846C4F30024C3
:1013500003F036FD0EF0D2F9204602B010BD00BFFA
:1013600070B5164604460D46049A3046194605F0F7
:1013700059F8294602462046BDE8704000F070B892
:10138000054B064A064910B45C6A11605862204653
:101390005DF8044B704700BFA4100220D410022057
:1013A000D810022000B9704730B5044683B00D460E
:1013B00008F0E4FD204603F09FFB02AB456543F8CF
:1013C000040D184603F0FCFC20461AF0EBF80EF072
:1013D00095F903B030BD00BF38B51346002204466E
:1013E0000D461846114605F047F8294602462046A4
:1013F000BDE8384000F034B870B582B018B90125A6
:10140000284602B070BD04460D4608F0B7FD2046E0
:1014100003F072FB0346866E68468DE8480003F0D1
:10142000CFFC294601A80FF03FFE00280CBF012584
:1014300000250FD0019B9E4209D0204603F05CFBA3
:10144000019A034668469A66009303F0B9FC204669
:101450001AF0A8F80EF052F9284602B070BD00BF8D
:1014600000B9704770B5054682B00C46164608F0C4
:1014700085FD284603F040FB022C019006D901A807
:1014800003F09EFC0EF03AF902B070BD1A34A400CD
:101490002044043003F0F6F8019B28461C446660A3
:1014A0001AF080F8EBE700BFF0B5274F83B0054690
:1014B0003A68538CD46C116D1C44938CA4B20B44C9
:1014C00021B29384013C5184ADF8001006F094FCE5
:1014D000064628460FF0E6FB3B683444B3F9246027
:1014E0002044ADF80260013EADF8040006F0DEFCD9
:1014F00006446846ADF806601BF0CCFC80B90A2DA6
:101500001DD0BDF804303A6801331BB25384918C6E
:10151000D46C106D1B1B091A5384918403B0F0BD69
:10152000284601F0FDFE1BF02BFB0028E7D02846E3
:1015300001F0F6FE1BF024FB0028F1D1DFE73A684A
:10154000B2F92230E3E700BF641002202DE9F04336
:101550000F4685B0064608F011FD112F49D0132F14
:1015600040D0304604AC03F0C7FA0346C06B44F8E1
:101570000C3D03F003FD8146204603F021FCA7F15A
:101580004103192B98BF2037B9F1000F2CDD00253E
:101590000DF10C08304603F0AFFA03462946C06B44
:1015A000039303F0FFFC0446404603F009FC204689
:1015B00084B103F0A1FA034602A8029353B11C7848
:1015C000A4F14103192B98BF203403F0F9FBE4B2D6
:1015D000BC4248D00135A945DCD10EF08FF805B0EA
:1015E000BDE8F083002E5AD10EF088F805B0BDE8B2
:1015F000F083002EF8D008F0C1FC0DF11008304641
:1016000003F07AFAB0F9344048F8040D404603F08C
:10161000D7FB0EF073F804B1013C08F0AFFC304684
:1016200003F06AFA0346C06B039303F0A7FC00B112
:1016300001388442039BA8BF0446B3F93420A24278
:1016400029D09C86404603F0BBFB304619F0AAFF28
:10165000304604211AF0E4FB0EF050F80EF04EF87C
:1016600005B0BDE8F083002EBED008F087FC304600
:1016700003F042FA0346C06B039303F07FFC00B112
:1016800001388542039BA8BF0546B3F93420AA421E
:1016900001D09D86D6E7404603F092FBDCE70DF1D2
:1016A000100808F06BFC304603F026FAB0F934401D
:1016B00048F8040D404603F083FB01340EF01EF899
:1016C00008F05CFC304603F017FA0346C06B039346
:1016D00003F054FC00B10138A042039BA8BF204690
:1016E000B3F934208242D6D09886ABE7F8B1F1B195
:1016F00070B5044682B00D4608F040FC204603F069
:10170000FBF902ABC66B43F8040D184603F058FB17
:101710002846FEF785FE2946421C304603F078FB3A
:10172000204619F03FFF0DF0E9FF02B070BD704791
:1017300070B5456882B00446284603F0DDF902AB77
:10174000D0F8886043F8080D184603F039FB2146AD
:10175000284617F079FF60B32368112B5ED01DDC9B
:101760000E2B28D00F2B65D00B2B1FD1284602AD96
:1017700003F0C2F90346C06B019303F09BFB019B8E
:10178000D3F8880018F0E4FC55F8043DD3F8940031
:1017900002F04EFF284603F013FB07E0262B24D06F
:1017A000B3F5107F00F09D80212B54D0204618F017
:1017B00083FC02B070BDE3685A68002AF6DD196840
:1017C000A1F10903192B00F29980012280489A4067
:1017D00010400028EAD1120226D4002B40F08E805F
:1017E00019F00EF88642E1D114E0E1680A2900F010
:1017F0008C800B2900F08D800129D7D1304612F062
:1018000039FF0028D2DB304612F034FF0646002DA7
:1018100040F09B8028461AF045FDC7E7002EC5D151
:10182000E3681B7A002BC1D0002DBFD0284600F002
:1018300095FABBE7284603F05FF9034602A840F893
:10184000043DD3F884301E6803F0BAFA002EADD000
:101850002846B047AAE7E3685A68002AA6DD1B6855
:101860000D2BA3D1304612F005FF002863DB304674
:1018700012F000FF0646002DCCD008F07FFB284672
:1018800003F03AF90346C06B019303F077FB00B114
:1018900001388642019A334601AEA8BF0346B2F929
:1018A0003410994200F08F809386304603F088FA16
:1018B000284619F077FE042128461AF0B1FA0DF0F7
:1018C0001DFF08F05BFB284603F016F9D0F88830BE
:1018D0000190002B6CD1304603F072FA0DF00EFF30
:1018E00098E7E36863B31B7A28461BB101211AF01D
:1018F00097FA5EE702211AF093FA5AE7002D3FF4B7
:1019000058AF2846FFF722FE53E728461AF088FA18
:101910004CE7002D3FF44AAF08F030FB284603F0B7
:10192000EBF8D0F8883001908BBB01A803F048FA9F
:101930000DF0E4FE3AE7002D3FF46CAF01AEC0E7D6
:10194000284603211AF06CFA33E708F017FB284603
:1019500003F0D2F80346C06B019303F00FFB08B30A
:101960000138B042019BA8BF3046B3F93420904201
:101970001AD0988601A803F023FA284619F012FE1F
:10198000042128461AF04CFA0DF0B8FE42E718463A
:1019900018F0DEFB019B00222846C3F8882019F0CE
:1019A00001FEC2E70020DCE701A803F009FAEBE73B
:1019B000184618F0CDFB019B00222846C3F888206A
:1019C00019F0F0FD87E7304603F0FAF977E700BF3A
:1019D000020004032DE9F04F8B46B0F90C1089B0DA
:1019E000B0F90A70856901EB0308B0F910301744AB
:1019F000B0F90EA0002605936C35B0F81290B0F93E
:101A0000084008F0BBFA384B5246CDF800B04146CA
:101A10000293384603954FF0FF33019618F050FAC1
:101A2000824628B90DF06AFE504609B0BDE8F08F35
:101A30002E4F03F061F82146102206903D4618F023
:101A40000FF8DDF818E00FCD0EF14C048EF88C90F5
:101A50000FC40FCD0FC40FCD0FC495E80300BB6BAF
:101A600084E80300CEF8843050468EF89060BDF8CC
:101A70001430AEF8363003F03FF8B0F93810079064
:101A800061B30346DA6A1846B3F98040136803EB82
:101A900044040C441BF0EEF9054607A803F090F946
:101AA0002246294650461AF0A3FD06A803F088F9FD
:101AB00003F0FCF90446504603F01EF8034606A85E
:101AC000DC63069303F07CF9BB6B50465B68984778
:101AD0000DF014FE504609B0BDE8F08FC06C06F062
:101AE0005BFA079B0146CDE731170008641102201D
:101AF0002DE9F04188B00446006802F0FDFF03467E
:101B000008A8D3F8886040F8103D5F8E03F058F9BC
:101B100020681BF0B5FD26B9FB0740F1A7808C4D6E
:101B200000E08C4D6368122B00F29C80DFE813F01C
:101B300009019A00E1009A009A0013009A009A00A5
:101B40009A009A009A009A009A009A009A009A00C5
:101B50009A009A00A500AA682F1FE3690026039245
:101B60006968A2690291286861690190D4F810E05F
:101B7000A86A009070460EF011FD57F8040F0CF0A3
:101B800075FDAB6AA26921696069D21A19443044B3
:101B900005F0AAF9AB6AA2692169E069D21A194471
:101BA000801B05F0A1F9AB6AE26961692069D21A6C
:101BB0001944304405F036FAA069AB6AE269801B2B
:101BC00061690136D21A194405F02CFA022ED4D1DB
:101BD000A86A022819DDA8680CF048FDA96A2269E4
:101BE0006669901CE3690A445B1A3144013A05F0C6
:101BF0008DFAA96AA069E369821E6669401A5B1AB8
:101C00003144013005F082FAA86A62692969E36902
:101C10000191911C27691344EE68A2695B1000963C
:101C2000121A384405F086F8E1696269AE698B1EC4
:101C30001144A86AA269491001962769121A6E69AF
:101C400001313844009605F075F8686A0CF00EFD15
:101C5000E3696169A0691A1F5B1A0431C01A013077
:101C600005F0E0F9002008B0BDE8F0813A4BA3F19F
:101C70002C05002808BF1D4654E7206802F03CFFF1
:101C8000034608A8B3F9806040F80C3DD3F84C80B7
:101C9000B3F9827003F094F8B4F814E0B2B2A36917
:101CA00020690EEB03010EF1020E10440339ADF86A
:101CB0001AE0B4F81CE0861C8B1A0220AEF1020276
:101CC000ADF81860CEEB0303ADF81E20ADF81C3064
:101CD0000CF0B8FE40460CF0F9FC286A0CF0C6FC8B
:101CE000206A3A4606A904F03FFD002008B0BDE88E
:101CF000F08104F11401E8690EC95C1AA4F1080628
:101D0000651C7610A2EB650506F1FF380CF0AEFC01
:101D1000C8EB0404B8F1000F4FEA6404A2DBAF1B68
:101D20004544264401373F1B3919204601342A46D1
:101D300005F0DAF8013DA642F6D1002008B0BDE872
:101D4000F08120681AF09AFB002008B0BDE8F0810D
:101D50003C13022010130220941302202DE9F04FAF
:101D600007469BB008F00AF938460FAC02F0C4FEF3
:101D70000D90384618F0E2FF0D9B0690DD6B93F84E
:101D80009020284693F88C80B3F936900B92B3F9E3
:101D900034A003F0F3F80D9B06461A6DB3F88EB02D
:101DA00011925A6E05925A6D12929A6D1392DA6DD3
:101DB00014921A6E1592059A16921A6F17925A6F0C
:101DC00018929A6F1992B3F9822093E80300079250
:101DD000DA6CD3F894300892059384E803000DA8D8
:101DE00002F0EEFF384618F097FE02F085FE1AABBF
:101DF000B0F90010B0F9022043F8380D18460A91E6
:101E0000099202F0DDFF099A20460A99524249429E
:101E100009F02CFD18F0020F77D0BDF83E30C9EB69
:101E200003031BB23846ADF83E30022418F074FEAE
:101E300001460698029400900020BDF93E30BDF99D
:101E40003C20CDF8049012F0A3FB18F0010F0446DB
:101E50005ED16EB14FF000084146284608F10108F6
:101E600003F0A0F80146204611F068FF4645F3D183
:101E7000002611AD55F8262031460136204612F0D5
:101E80003FFE032EF6D1002614AD55F8262031462C
:101E90000136204613F094F8032EF6D1002617AD34
:101EA00055F8262031460136204612F00DFF032E4C
:101EB000F6D1059BA3BB5946204612F0C9FE0899EE
:101EC000204612F041FE0799204613F05FF82046A5
:101ED0001AF0E8F93946204612F0D6FE514620465F
:101EE00012F06CFF0121384619F09AFF384602F0D3
:101EF00003FE03460DA8C3F888400D9302F060FF6F
:101F00000DF0FCFB1BB0BDE8F08FBDF9423089E756
:101F10000B9912F01DFF0121204612F0BBFD98E73E
:101F2000184602F0E9FD068805460E9096B14FF07E
:101F3000000805EBD80308F00702414608F1010844
:101F40009B78204643FA02F202F0010212F01AFED8
:101F5000B045EED10EA802F033FFACE700B97047F0
:101F600030B5044683B00D4608F008F8204602F06C
:101F7000C3FD90F88C200346019002F0FE046DB979
:101F800094420FD0D3F8885001A883F88C4002F017
:101F900017FF75B90DF0B2FB03B030BD44F001047A
:101FA0009442EFD101A802F00BFF0DF0A7FB03B0A4
:101FB00030BD04F00101284612F06CFDEAE700BFD5
:101FC00000B9704730B5044683B00D4607F0D6FF20
:101FD000204602F091FD0346C06B019302F0CEFF54
:101FE000B0B9A842019BA8BF2846B3F93420824269
:101FF00010D0988601A802F0E3FE204619F0D2FA2C
:102000002046042119F00CFF0DF078FB03B030BD21
:102010000138E6E701A802F0D3FE0DF06FFB03B034
:1020200030BD00BF00B9704770B5044682B00D46A0
:1020300007F0A4FF204602F05FFD02AB058743F8DE
:10204000080D184602F0BCFE204602F055FDB0F91E
:1020500038100190D1B10346DA6A1846B3F98050BE
:10206000136803EB45050D441AF004FF064601A86A
:1020700002F0A6FE2A46314620461AF0B9FA20465A
:1020800019F090FA0DF03AFB02B070BDC06C05F08B
:1020900083FF019B0146DFE730B583B00C4602F0B9
:1020A0002BFD02AD214645F8040DC06B02F07AFF0E
:1020B0000446284602F084FE20460CB102F01CFDC6
:1020C00003B030BD2DE9F04304468BB018B920466B
:1020D0000BB0BDE8F08316460D461F4600F0D6FC57
:1020E0008046204600F0B6FC814607F047FF05A970
:1020F000204600F0CBFEEA0719D4AB07BDF920005B
:102100004CBF40F202230223304442460293494628
:1021100043468DE89000FEF7D3FE0446002117F0F9
:10212000AFFB0DF0EBFA20460BB0BDE8F083BDF934
:10213000242008F1FF308223101A801BE5E700BF3E
:1021400010B50523FFF7BEFF0446054A0021FFF73F
:1021500043F9204603491AF007F8204610BD00BF96
:10216000E93A0208E96A030810B50723FFF7AAFF56
:102170000446054A0021FFF72FF92046034919F0CC
:10218000F3FF204610BD00BF413C0208016B03086D
:1021900010B50823FFF796FF0446054A0021FFF714
:1021A0001BF92046034919F0DFFF204610BD00BF90
:1021B000A93E0208416B03082DE9F047466886B046
:1021C0000546304602F098FCC36D0090D0F8884078
:1021D000D0F88070D0F86880B0F87C90002B64D084
:1021E000D3F800A0684602F0EBFD14B909E02468BA
:1021F0003CB16368284698470028F8D006B0BDE88F
:10220000F0872B68172B00F0A5801DDC0F2B00F04A
:102210008D807DDC0B2B00F0BF800D2B0AD119F0D7
:10222000080F07D1EB68DB6823B11B7A13B1304686
:102230001AF038F83046294617F006FA0028DDD0A3
:10224000284617F039FFD9E7262B75D02FDC1E2B37
:1022500000F0AE80202BEDD1EC68002CEAD03146A6
:1022600060681BF0F3F9002800F0C080304602F0EF
:1022700043FCB0F87C3002460190180740F12D81F4
:1022800001A802F09DFD314660681BF0CDF90028E1
:10229000D0D0304602F030FC6268034601A80193BA
:1022A000C3F8802002F08CFDC4E79A469AE72A2BF7
:1022B00065D0B3F5107FBDD106AC3046D5F80C80A3
:1022C00002F01AFCB0F87C7044F8140D204602F0BD
:1022D00077FDEB68002B91D098F80830002B00F0C8
:1022E000AB80380740F1B780304617F02DFD07F47A
:1022F0008873B3F5887F81D107F080039BB2002BF0
:102300007FF47CAF41463046052219F071FF75E736
:10231000112B22D0142B8DD1304601A900F0B6FD2F
:1023200002ABEA6803CB1060516067E7BAF1000FB7
:1023300080D03046D0477DE7EB68022B7FF45EAF5C
:10234000272206A9A86841F8142D039604931BF0D0
:1023500003FB53E7C5F80C8050E7EC68304602F009
:10236000CBFB01902389012B05D1B0F87C3043F4DD
:102370008073A0F87C3001A802F022FD5AE73046B5
:1023800002F0BAFBEB680090002B68D0C0F88430F4
:10239000684602F015FD31E7304602F0ADFB03461A
:1023A0007030009302F06EF9684602F009FD41E7D3
:1023B000EC68012C57D0002E3FF420AF07F0DEFD73
:1023C000304602F099FBB0F87C30024601901C07C1
:1023D00006D523F008033046A2F87C3019F0E2F865
:1023E00001A802F0EDFC0DF089F907E7304602F094
:1023F00083FBB0F87C3002460190190706D523F024
:1024000008033046A2F87C3019F0CCF801A802F09D
:10241000D7FC314620681BF007F900283FF40AAFCB
:10242000304602F069FB2268034601A80193C3F815
:10243000802002F0C5FCFDE6304602F05DFB03465D
:102440002046B3F87C20019322F48072A3F87C200C
:1024500002F0B6FCD2E6304619F024FF44E7D0F88B
:102460008430EB6094E7384619F0BCFB20B3384663
:1024700019F018FF384618F043FFB0B926B9002FFD
:102480007FF4BCAEEF60B9E607F078FD304602F0AD
:1024900033FBB0F87C3002460190190725D501A81E
:1024A00002F08EFC0DF02AF9E9E72146384617F0D4
:1024B000BBF9002EE3D0E7E7404619F05FFF07467F
:1024C000304602F019FB03466846C3F8807000935B
:1024D00002F076FC002ED2D0D6E743F00803304657
:1024E000A2F87C3019F05EF8CAE643F008033046E3
:1024F000A2F87C3019F056F8D1E700BF2DE9F04F73
:102500000F46B0F90C108FB0B0F90A6001EB030B65
:10251000B0F9083085691644049343686035B0F912
:102520000E80B0F91090B0F812A0059307F026FDC8
:102530004B4C4FF4805E03955946009730464B460E
:1025400042460294CDF804E017F0BAFC054628B9DB
:102550000DF0D4F828460FB0BDE8F08FDFF80891F1
:102560000EAE02F0C9FA04993022069017F078FAFC
:1025700056F8207DCE464FF0000807F13404BEE83F
:102580000F000FC4BEE80F000FC49EE80300189BA5
:1025900084E803007B663046D9F8283041F2827423
:1025A000A7F87CA0FB65C7F88080C7F86C80C7F8E7
:1025B000888002F005FC09A928462A4F00F066FC35
:1025C000BDF92AE0BDF92810BDF92C20BDF92E3047
:1025D0000846521A0194CEEB030371460132CDF83E
:1025E0000C8001330095029717F06AFCD9F8283067
:1025F000044628465B689847284602F07DFA034661
:1026000030469C66069302F0DBFB284617F0C6FEB8
:1026100007F0B4FC284602F06FFA034607A81A6FC9
:102620000793089202F0CCFB059908A80EF03CFD38
:1026300038B90DF063F80DF061F828460FB0BDE829
:10264000F08F284602F058FA089A034607A81A673E
:10265000079302F0B5FB284618F0A4FFE9E700BF96
:10266000B921000825320008A01102202DE9F0410F
:10267000044690B0006800F0D5F9B04B6668A3F14D
:102680002C05002808BF1D461C2E00F2F780DFE84D
:1026900016F02200F500F500F500F5003500F50014
:1026A000F500F500F500F5005100F500F500FA0021
:1026B000F500F500F5000E01F500F50048014A01AE
:1026C0004C014E01F500F500F5001D006E69304625
:1026D00010B0BDE8F081206802F00EFA034610A8A1
:1026E000B3F85A2040F82C3D42F00C02A3F85A20CF
:1026F00002F066FB206819F0C1FEE8E72A690026AF
:10270000B4F910300192B4F914701846EA68B4F9BB
:1027100018503946B4F91C40ADF81C3000922346DD
:102720002A46ADF81E70ADF82050ADF8224004F0F6
:1027300001FBCCE723681C2218460892079302F09D
:10274000DBF9034607A805931B6D9847064605A8C5
:1027500002F036FB012E40F32781A96833466269F7
:1027600002916868A16901902F68206900970DF0B7
:1027700011FE2769A3693744C6EB030828680BF0EC
:1027800075FF42463946606904F0AEFB68680BF09D
:102790006DFF606942463946013004F0A5FB6B6A63
:1027A000022B00F3F4802A6A964217DA6769012E39
:1027B000206907F1020840F32A810244374430447B
:1027C0004146013A3B4604F0A1FCA069821B3B460E
:1027D000EF694146C01B013004F098FC012E40F324
:1027E000138163691E44E7692868013F0BF03EFFCF
:1027F000314620693A4604F015FC3A463146A06954
:1028000004F010FCE76968680BF030FF023F2069B4
:1028100031463A46013004F005FCA0693A4631469B
:10282000013804F0FFFBEB69022B40F38280AB6AB6
:10283000E769022BA868CCBFFF1A023F0BF016FF16
:10284000EA69022A00F39A802B6A022B00F38C803B
:1028500028680BF00BFFA2692169E06904F044FBD2
:1028600068680BF003FFA2692169E069013A013150
:10287000013804F039FBAF6A022F61DC00263046D4
:1028800010B0BDE8F08104F114012769A8680026A2
:10289000ADF81C700EC9ADF81E10ADF82020ADF8D3
:1028A00022300BF0E3FE07A804F05CFC0FE7298B55
:1028B0002269A3690A4465695B1AE1692068ADF879
:1028C0002030ADF81C20ADF81E50ADF8221002F0FB
:1028D00013F9036F0590FBB102200CF0B3F8059AD1
:1028E000B2F87C30C3F3C0030E3302EB8303986865
:1028F0000BF0BCFE059B586B0BF0E8FE059B186FB8
:1029000002F0FAF8059B07A90690B3F95A2003F0E4
:102910002BFF06A802F054FA05A8002602F050FA90
:10292000D5E6AE6AD3E6EE69D1E62E6ACFE66E6AE8
:10293000CDE62B6A022B8BDD79E700BF0014022065
:10294000D4F81C800026A2692169A868951E8C1CF9
:102950000BF08CFEC7EB08012A462046A8F10203C3
:10296000013104F0D3FBB2E6A0693B46EF69314682
:10297000821EC01B013004F0C9FB69E720693B4699
:10298000314602440230013A04F0C0FB5CE7A8681B
:102990000BF06CFE636938466F6A991C42463B44F3
:1029A000013B04F0B3FB19E728680BF05FFE2269D6
:1029B000EB69114660691A44013A04F095FAA3697B
:1029C000E9691A466069591A013104F08DFA67699C
:1029D00020690137394604F0B3FA3946A06904F09A
:1029E000AFFA68680BF042FE20693946013004F006
:1029F000A7FAA0693946013804F0A2FA2769A36949
:102A00000237A3F10208B9E666690236EBE6024432
:102A1000434602304146013A474604F077FBA0693D
:102A2000821ED4E610B5044682B080B107F0A6FA43
:102A3000204602F061F802ABB0F87C4043F8040D88
:102A40001846C4F3C00402F0BBF90CF057FE204650
:102A500002B010BD30B5044683B0A0B107F08EFAC5
:102A6000204602F049F802ADC26D0346002120461F
:102A700045F8043D93681B6898470446284602F0D1
:102A80009FF90CF03BFE204603B030BD10B5044664
:102A900086B010B9204606B010BD07F06FFA204688
:102AA00001A900F0F3F9204602F026F806ABB0F9D0
:102AB000544043F8180D184602F082F90CB9BDF9DC
:102AC00004400CF01BFE204606B010BD00B9704754
:102AD0002DE9F043054685B007F050FA284602F08C
:102AE0000BF80190284631F0AFFE019BB3F87C2033
:102AF000120634D4986901F0FFFF83690290B0F99F
:102B00000060B0F90270002B4AD0B0F90480B0F92F
:102B1000069002A802F054F9019B03F17402DC69EB
:102B200093E8030082E80300B3F87C2042F08002BF
:102B3000A3F87C2034B91AE0039B03A81C6A02F0B6
:102B40003FF9A4B1204601F0D7FF0390204617F0CB
:102B500077FE0728F0D1204618F024FDECE701A805
:102B600002F02EF90CF0CAFD05B0BDE8F08301A813
:102B700002F026F93A463146284619F08DF8C7EB9F
:102B80000902C6EB080128460132013119F030FD77
:102B9000284600F009FB0CF0B1FD05B0BDE8F0835C
:102BA00010F0F4F90FFA80F810F036FA0FFA80F905
:102BB000AFE700BF00B97047F0B5054683B007F036
:102BC000DDF9284601F098FF0090284631F0F4FD29
:102BD000009BB3F87C20520606D5684602F0F0F858
:102BE0000CF08CFD03B0F0BDB3F906201846B3F924
:102BF0000260961B00F0D4F9009B0136D96A03F1FC
:102C000074020F6800EB470793E80300023782E87D
:102C10000300986E18F082FB009BD86E18F07EFBC4
:102C2000009BB3F87C20DC6942F04002A3F87C20D2
:102C300034B912E0019B01A81C6A02F0C1F864B12A
:102C4000204601F059FF0190204617F0F9FD0828B1
:102C5000F0D1204618F0A6FCECE7684602F0B0F888
:102C6000BA1B0021284619F04BF9284600F09CFABF
:102C70000CF044FD03B0F0BD00B9704710B5044638
:102C800007F07CF9204631F0DFFD204631F094FD5D
:102C9000BDE810400CF032BD2DE9F041044684B08F
:102CA0000E4607F06BF924B90CF028FD04B0BDE81E
:102CB000F081204601F020FF458EC36D05F0200510
:102CC00003909F68ADB245B1B0F954502DB9406B37
:102CD00005F064F9039B851C00E003465E6303A8CE
:102CE00002F06EF83B680121204698473B68064693
:102CF0000321204698473B6880460021204698479C
:102D00000746204600F050FA434632462946204600
:102D1000009700F0CBF9204618F044FC0CF0EEFCD4
:102D200004B0BDE8F08100BF00B9704730B504467B
:102D300083B00D4607F022F9204601F0DDFE034680
:102D4000026F68460093019202F03AF8294601A802
:102D50000EF0AAF918B90CF0D1FC03B030BD204632
:102D600001F0CAFE019A034668461A67009302F012
:102D700027F8204618F016FC0CF0C0FC03B030BD5C
:102D800000B9704730B5044683B00D4607F0F6F839
:102D9000204601F0B1FEB0F95A300190AB4204D0A8
:102DA000A0F85A50204618F0FDFB01A802F008F8E0
:102DB0000CF0A4FC03B030BD00B9704730B5044638
:102DC00083B00D4607F0DAF8204601F095FE02AB1D
:102DD000056443F8040D4564184601F0F1FF2046F0
:102DE00018F0E0FB0CF08AFC03B030BD2DE9F04395
:102DF00085B020B90546284605B0BDE8F0830446F5
:102E00000E4607F0BBF8204601F076FEB0F95450AC
:102E10000390B5422AD0418E01F0200189B219B148
:102E20006DB303462F4601E003460F46DA6D0121DC
:102E3000A3F8546020469668336898473368804604
:102E40000321204698473368002181462046984751
:102E50000646204600F0A8F9204600964B4642461A
:102E6000394600F023F9204618F09CFB03A801F036
:102E7000A7FF0CF043FC284605B0BDE8F083406B8B
:102E800005F08CF8039B871CD0E700BF2DE9F04FBD
:102E900089B007460D4601F02FFE03460121384652
:102EA000DA6D059394682368984723680321804668
:102EB0003846984723680221834638469847236856
:102EC00000218246384698478146059819F0D2FF7E
:102ED0000646059819F0D6FF03460598448E04F07F
:102EE0002004A4B2B4B1B0F95420B0F95840002A7B
:102EF0004AD091B2C06E0C44A4B280B10391029248
:102F0000019317F039FF019B0FFA80FC029A80B2FF
:102F1000039905E021462246C06E0028EED1844682
:102F20001FFA89FE013E013B0FFA88F8CBEB06063B
:102F300074440EF1FF3ECAEB030336B204447144FD
:102F40006B812A8005A8A5F802C0EC8069822E81D9
:102F50002E82A5F80480A5F80C80A5F80E9001F04B
:102F60002FFF08AAB5F910403846B5F90C3006A96C
:102F700042F8044D069300F04BF8069A079BAA818D
:102F80002B8209B0BDE8F08F406B019305F006F885
:102F9000821C019B059891B212B20C44A4B2BBE70B
:102FA00008B5438E03F020039BB24BB10246B0F943
:102FB000540000B108BD506B04F0F0FF023008BDB2
:102FC000184608BD70B58AB00C46064601F094FD5F
:102FD0000AABC26D43F8280D1846956801F0F0FE63
:102FE0000196032C05D8DFE804F00F0C0902172323
:102FF00002936B6801A898470AB070BD152302932D
:10300000F7E716230293F4E718230293F1E700BFD2
:103010002DE9F04383B088460446914601F06CFDEB
:10302000034602A8DA6D40F8083D9568B3F90070D0
:10303000B3F9026001F0C4FE2B68204600219847D6
:103040000546204617F0CEFB68B3044607E001A80A
:1030500001F0B6FE204617F051FD044618B3204695
:1030600001F04AFDB0F9023001909B1B9D42EED168
:10307000836A1B060BD5B0F90030D9F80020DB1BA2
:10308000934203F1FF33E2DCC9F80030DFE7B0F927
:103090000430D8F80020DB1B934203F10103A8BFE2
:1030A000C8F80030D3E703B0BDE8F0832DE9F04F56
:1030B00083B088469A460546914601F01DFDC26DD3
:1030C00002AED2F808B046F8080DFFF769FF0446D3
:1030D000304601F075FEDBF80030012128469847A4
:1030E000DBF800300321064628469847DBF800301D
:1030F00007460021284698474445834609D14E4556
:1031000007D1574505D10C9B984202D103B0BDE8C9
:10311000F08F2846C8EB040417F064FB054600282E
:10312000F4D04FF000080C9BC9EB0606C7EB0A076A
:10313000C3EB0B0BC1460BE0B3F5007F11D001A828
:1031400001F03EFE284617F0D9FC05460028DDD0E8
:10315000284601F0D1FC836A019003F42073802B90
:10316000EAD1CCB9836A1A060BD49B05E7D508F1DE
:10317000010308FB04615A462846984618F0F4FDFE
:10318000DDE709FB14715A46284609F1010918F0D8
:10319000EBFD019B9B6AE8E728462246214618F092
:1031A000AFFE0198DEE700BF70B586B0064601F0BD
:1031B000A3FC034606A89C6E40F8183DDD6E01F0A6
:1031C000FFFD14B90DB906B070BD304601A9FFF777
:1031D0005DFE6CB9002DF6D0BDF90A202846BDF978
:1031E0000630BDF90810D21A18F018FD06B070BDEF
:1031F000BDF90A202046BDF9081018F00FFDBDF9F1
:103200000E20BDF90A602046BDF90C30BDF908104A
:10321000921B591A0132013119F0EAF9002DD2D06E
:10322000DAE700BF2DE9F043456887B00446284639
:1032300017F072FC074601F05FFC034606A85E6EBD
:1032400040F8143DD3F84880D3F8809001F0B8FDE1
:1032500023680E3B232B3FD8DFE803F035463E3E84
:103260003E3E12123E123E3E3E3E3E3E18243E3E42
:103270002B3E3E3E3E3E3E3E3E3E3E3E3E3E3E308F
:10328000204616F019FF07B0BDE8F083E368002B75
:10329000F9D0B9F1000F3BD04D4539D0484619F06F
:1032A00001F8F0E72146384616F0CEF907B0BDE840
:1032B000F083C4F80C8007B0BDE8F0830023E3601E
:1032C00007B0BDE8F083E3685A68002A04DD1B6894
:1032D000092B1DD00A2B1FD0002ED1D020466760AD
:1032E000B04707B0BDE8F0836FF07043984504D055
:1032F000404610F0ABF902F0B5FD002EC3D002AF8E
:1033000094E80F0087E80F0038460395B047BAE706
:10331000284619F033F8B6E7284619F077F8B2E7EF
:103320000A2838B514D00D28044610D006F026FE21
:10333000114B20461B68DB691B6898470F4B1B68C5
:103340000BB120469847BDE838400CF0D7B938BDDE
:10335000094C06F013FE06F011FE2368DB695D7E62
:103360000CF0CCF923689A8C198C2A4459849A84DD
:10337000BDE838400CF0C2B9641002202C000720D0
:103380002DE9F04F074683B01646801A0191B9180F
:1033900000F0F6FF002E019A06FB06F5B4BF731C81
:1033A0003346DFF8D090C6EB020805EB6305B3188F
:1033B00019460093D9F800305B6953B1B3F9062080
:1033C000B3F902309142A8BF11469845B8BF98465C
:1033D0000091012E4BDD019B34464FF0010B03F1B0
:1033E000FF3AC24515DB009B9A4512DC0BFB0BF242
:1033F00004FB04239D4204DA013C04FB04239D42A8
:10340000FADBD9F800303A195146381B5B6E1B685D
:1034100098470BF1010B0AF1FF3A5E45E1D1DDF867
:1034200004A034464FF0000BD04515DC009B5345FB
:1034300012DB0BFB0BF204FB04239D4204DA013C7C
:1034400004FB04239D42FADBD9F800303A195146B7
:10345000381B5B6E1B6898470BF1010B0AF1010AE0
:103460005E45E1D103B0BDE8F04F00F095BD002E00
:10347000F8DDD4E76410022000292DE9F04F87B071
:1034800040F3E4821E4C054600EB810E274643F6CE
:10349000FF74B5F902600435B442A8BF3446B742A0
:1034A000B8BF3746AE45F4D10497164D2D686D6907
:1034B00075B1B5F90660049FF61AB5F90250B74226
:1034C000A5EB0305A8BF3746AC42B8BF2C4604970E
:1034D000049DAC4200F36982934606464D1EDFF818
:1034E00028908A4605930022074B92451A6040F3C4
:1034F0005782059BCDF80CB023440293EBE000BF4C
:1035000001C0FFFF64100220A0FD0620A64500F0C8
:10351000DE8001DBA04205DDA042C0F2D880A645D6
:1035200000F3D580704500F34382A645C0F2CF80FA
:10353000A04200F3CC8036F922B0BCF90030CBEBCE
:103540000302C8EB0403C8EB0E0E03FB02F3002BCF
:1035500040F3588203EB6E01DF4B1B680B2B00F32B
:10356000B680002B91FBFEF101EB0B02019240F3C0
:103570003682581E1146420009EB020EBEF904C005
:10358000614500F34F8209EB4308A8F804C0002806
:1035900000F02582981E4FEA400B09EB0B0CBCF99A
:1035A0000480414500F38C80AEF80480002800F0D0
:1035B0001682D81E420009EB0208B8F904E07145F2
:1035C00000F32E82ACF804E0002800F00882A3F19A
:1035D000040C4FEA4C0E09EB0E00B0F904008142D6
:1035E0006EDCA8F80400BCF1000F00F0F881581F51
:1035F000B949420001EB02080199B8F904B05945F4
:1036000000F31882CE44AEF804B0002800F0E78141
:10361000981F4FEA400B09EB0B0EBEF904C0614541
:103620004EDCA8F804C0002800F0D981D81F420061
:1036300009EB020CBCF90480414500F3F181AEF8BE
:103640000480002800F0CB81A3F108004FEA400875
:1036500009EB080EBEF904B0594531DCACF804B0F2
:10366000002800F0BC81A3F10900420009EB020C24
:10367000BCF904C0614500F3DB81AEF804C000284A
:1036800000F0AD81A3F10A0093494FEA400C01EB31
:103690000C0E0199BEF90480414511DC4A44A2F8A0
:1036A0000480002800F09B81A3F10B00420009EB8D
:1036B0000200B0F90400814200F3B881AEF80400C2
:1036C00085480133BDF80410024403609180BA4577
:1036D0003A4640F3EF80AA4202F1010706EB82016D
:1036E0001346ACBF4FF0000C4FEA870CB1F9020053
:1036F000B444A0428046BCF902E07FF407AFA6457F
:1037000000F06F81002DE2DD00215BB1013B013152
:1037100006EB8300B0F90200A0420BD1A942D6D03B
:10372000002BF3D12B46013106EB8300B0F90200E8
:10373000A042F3D0001BC4EB0E0E36F9222090EA13
:103740000E0F40F14281644B1B680B2BBFDC002B3A
:1037500040F35D81581E410009EB010CBCF904E007
:10376000724500F36A8109EB4308A8F804E00028D9
:1037700000F04D81981E4FEA400809EB080EBEF993
:1037800004B05A4500F38D80ACF804B0002800F076
:103790003E81D81E410009EB010CBCF904C0624512
:1037A00000F35281AEF804C0002800F03081A3F18C
:1037B000040849484FEA480B00EB0B0EBEF904C061
:1037C00062456EDC4944A1F804C0B8F1000F00F076
:1037D0001E81581F410009EB010CBCF904804245D1
:1037E00000F32281AEF80480002800F01081981FB9
:1037F0004FEA400B09EB0B0EBEF90480424550DC4A
:10380000ACF80480002800F00281D81F410009EBC9
:103810000108B8F904C0624500F30681AEF804C09F
:10382000002800F0F480A3F1080C4FEA4C0E09EBDD
:103830000E00B0F90400824233DCA8F80400BCF1A9
:10384000000F00F0E480A3F109004100019022483C
:1038500000EB0108B8F904B05A4500F3F080CE44FB
:103860000198AEF804B0002800F0D180A3F10A005E
:103870004FEA400C09EB0C0EBEF904B05A4510DCBF
:10388000A8F804B0002800F0C280A3F10B014900A1
:1038900009EB0100B0F90400824200F3D380AEF8D6
:1038A00004000D480133BA45014403608A803A465A
:1038B0003FF711AF084BDDF80CB01B68002B6FDD34
:1038C000012BB9F904006BD0044B5844B9F9062018
:1038D0001B68029F04E000BFA0FD062064100220C8
:1038E0005A445B6E39461B689847D9F80030022B62
:1038F00056DD032BB9F9080052D0574B5844B9F99B
:103900000A2039461B685A445B6E1B689847D9F8F1
:103910000030042B44DD052BB9F90C0040D04E4B90
:103920005844B9F90E2039461B685A445B6E1B682F
:103930009847D9F80030062B32DD072BB9F9100073
:103940002ED0454B5844B9F9122039461B685A44C9
:103950005B6E1B689847D9F80030082B20DD3F4A82
:10396000092BB2F914001BD03B4B5844B9F916206F
:1039700039461B685A445B6E1B689847D9F800307B
:103980000A2B0DDD0B2BB9F9180009D0324B394643
:10399000B9F91A2058441B685A445B6E1B68984753
:1039A0000134049BA342BFF69EAD07B0BDE8F08F83
:1039B000A042FFF68CAEA6453FF789AEF046BCF9B3
:1039C00000B036F922308646B9E5234B03991B68CF
:1039D0000A4402995B6E10461B68984777E60022FE
:1039E0006EE6BCF90030039836F92210014418182D
:1039F000194B81421B680CDB5B6E0A4602991B68FF
:103A0000984764E64FEA6E010139591AA4E500218E
:103A100047E75B6E0246084602991B68984756E6E0
:103A20005A464DE65A004BE659463AE7624647E6A3
:103A3000424645E64FEA4C0242E6590031E74FEA7A
:103A40004C012EE761462CE741462AE7044C0494DA
:103A500043F6FF7429E500BF64100220A0FD062094
:103A600001C0FFFF204B70B51E6806F087FA1F4C9F
:103A7000002530460FF0EAFD0BF040FE1C4B1E689F
:103A800006F07CFA30460FF01BFE0BF037FE06F016
:103A900075FA012223681A760BF030FE06F06EFAF2
:103AA00023689D850BF02AFE06F068FA23685D8581
:103AB0000BF024FE06F062FA28460FF033FE0BF0FE
:103AC0001DFE0C4B1D6806F059FA236805B1DD6137
:103AD0000BF014FE06F052FA236800229A76BDE835
:103AE00070400BF00BBE00BFB8F906206410022036
:103AF000601002205C100220014B83E80300704735
:103B000028F90620014B83E80300704730F90620AE
:103B1000014B83E80300704738F90620014B83E826
:103B20000300704748F906202DE9F04F5C4E8DB038
:103B30003368DA69B3F92250D469B4F80CB083451C
:103B400000F29780E1898142C0F093802168CBEB3D
:103B5000000B08914FF0FF310A91BBF1FF3F00F0DD
:103B6000828092F81880A27CB3F92A10B3F92490CD
:103B700018FB02F3084607911F4694F810A00FF0B7
:103B8000D1FDD6F800E008994346DEF838C0524629
:103B9000099007FB0B10DEF81CE00B97012704903F
:103BA0004946CDF814C0284694F812C00297CDF8C3
:103BB0000CC09EF81BC0DFF8E8B0CDF804C09EF83A
:103BC0001AE0CDF800E00EF05FFE0A9F7B1C25D0C6
:103BD000079941F002000FF0A5FDDBF800100B9AE9
:103BE00043460898D1F838C002FB0700D1F81CE022
:103BF0000127CDF814C00490524694F812C04946EB
:103C000002972846CDF80CC09EF81BC0CDF804C022
:103C10009EF81AE0CDF800E00EF036FE3368DFF8CB
:103C20008080DB695A7E1B7E9A4215D9079B022B46
:103C300012D083F004000FF075FDD8F8003028464C
:103C4000DB691F7ED97E9A7E5B7E07FB01910AFBB2
:103C500002524B440FF020F89DF824000FF062FD53
:103C60003368B3F92250627C15445D840DB0BDE821
:103C7000F08FA1680029F6D00F88B842F3D3B1F8CD
:103C800002E08645EFD3C01B4968676880B2089799
:103C900001EB800731F920B0B7F902100A915CE717
:103CA00064100220044B1B68DB69DB6909B11A7CD4
:103CB0000A60587C704700BF6410022002230B800A
:103CC000704700BFC3699A898A4202D8DA898A425A
:103CD00011D2986818B10388994201D20020704728
:103CE00042888A42FAD3C91A436833F82100C04394
:103CF000C0F3C03070470120704700BF2DE9F04F7E
:103D00003A4D89B02B68DA69B3F92A90D36943B187
:103D10001A88904202D35988814205D29B68002BB1
:103D2000F6D109B0BDE8F08F841AD3F80480484674
:103D300008EBC40696F802B00FF0F4FC824628683F
:103D400018F834204FF0010EC769D0F838C0B0F928
:103D50002410B0F922003B7E0790CDF814C07068A3
:103D6000CDF80CB00490CDF808E097F81BE0079868
:103D7000CDF804E0BF7E00970EF086FD2B68DA696F
:103D8000537E177EBB4223D9B9F1020F07931FD090
:103D900092F81BB004F05AF8814604F021F80AF0BA
:103DA00065FC124B18F834E01868079BC169B0F93C
:103DB0002240CA7EB0F9241020460EFB02420BFBC3
:103DC00003130BFB07110EF067FF48460AF04EFC89
:103DD00050460FF0A7FC2B687178D8695A8C807E0A
:103DE00000FB01225A8409B0BDE8F08F6410022064
:103DF000114B1B6870B4DD69EB6943B11A889042BE
:103E000002D35C88844205D29B68002BF6D1184609
:103E100070BC7047821A5E68AC7E06EBC2035B78AA
:103E200013FB04F00029F3D016F8323014FB03F32F
:103E300070BC0B60704700BF6410022001230B8030
:103E4000704700BFC06950B103888B4202D84388D5
:103E50008B4203D280680028F6D17047012070475A
:103E60002DE9F047244F3D68002D3FDD234EC5EB83
:103E70004515DFF88C804FF0000A3468D8F80090C0
:103E800004EB85050C340C35A4F108037422494673
:103E90001846FCF768FA221F2063A06344F80CACB4
:103EA0006263E4607C34A542EED10024254603E041
:103EB00082B13A68954213DA34F05CFB336801351D
:103EC0001A5919197C349042F2D10431C8F8001003
:103ED000BDE8F08708600431C8F80010BDE8F0873D
:103EE00019460431C8F80010BDE8F087034BDFF82D
:103EF00010801968E9E700BF84100220C8FC062082
:103F000064100220F8B5184F184B3846184E40F888
:103F10000C3F0DF07BF83468C4EB4414A400204639
:103F200000F008FC134B224600211B6838609847BC
:103F30004FF0FF33736034F023FB3368002B0FDD49
:103F40000024254603E062B133689D4208DA34F06C
:103F500011FB3B6801351A5923447C349042F2D15D
:103F6000F8BD1860F8BD00BFC8FC0620FD1F03089F
:103F700084100220D8120220024B00221B6883F812
:103F80006920704764100220024B01221B6883F8ED
:103F9000692070476410022008B529F0A1FD044B88
:103FA000044A1B68916903F1080259665A6108BD09
:103FB00064100220E8F806202DE9F043304F83B06A
:103FC00005460C46164605F0D9FF3B68DFF8B4906D
:103FD000DBB1D9F800300020DA6C1B6D15441C44AD
:103FE00018F058FF88B13B6832462146284698476A
:103FF000804618F0C5FD0028F5D1B8F1000F04D1B6
:104000000BF07CFB03B0BDE8F08318F0E3FE054441
:1040100018F0EEFED9F80030044493F8692032B36A
:10402000A81B00F00FF9ADF80000A81900F00AF97C
:10403000ADF80400A01B00F005F9ADF80200A019CE
:1040400000F000F9ADF80600684618F023FF0028DC
:10405000D6D0324621462846FFF792F918F090FD57
:104060000028F6D10BF04AFB03B0BDE8F08393F8CB
:10407000683003FB05F503FB04F403FB06F6CFE70A
:10408000E0F80620641002202DE9F04FDFF8AC9133
:1040900089B0984605460C46164605F06FFFD9F8DC
:1040A000003053B1634F00203B68DA6C1B6D16443F
:1040B000984418F0EFFE002851D118F08BFE82468C
:1040C00018F096FE8146002018F0E4FE002854D037
:1040D000584FA300564409EB080A0393BB46DFF888
:1040E00060810AE006983346CDF800A022462946B2
:1040F000C84718F045FD00283FD03B68122106A8AC
:104100005B7C58F82330DA680693536A98478146F7
:104110000028E7D1DBF800E09EF869C0BCF1000F91
:1041200030D0012CB5F9000034DD4FF00109014613
:10413000012335F9232001339042A8BF1046914254
:10414000B8BF11469C42F4DCBCF1000F25D13144CC
:10415000304400F085F860B3FFF71EFFC9E7D9F8D7
:1041600000704346324621462846B847074618F0B5
:1041700007FD0028F3D1002F9FD10BF0BFFA09B043
:10418000BDE8F08F012C9EF86890B5F90000CEDCF8
:104190000146DCE701464FF001099EF868303144E2
:1041A000304491FBF3F190FBF3F000F059F8002854
:1041B000D2D1039800F0E4F904900028CCD000F0AC
:1041C0009BFC1D4B039A29461B6807909847D7F81C
:1041D00000E0079A9EF86930E3B9002C1ADD039BD2
:1041E0001146901C059202EB030C30F8022C0431AE
:1041F0009EF86830043012FB03F320F8063C31F8D7
:10420000022C9EF8683012FB03F321F8023C8C4527
:10421000EBD1059A104609FB0AF309FB06F2214689
:10422000FFF72AF907A800F0CBFD049800F000FA88
:1042300092E700BF64100220D412022024F9062065
:1042400018000720054B1B6893F868300BB900B2C3
:10425000704790FBF3F000B2704700BF641002207B
:104260002DE9F8433D4C06460D46276A002F58D0ED
:104270004FF000083A4BA1681868B042B8BF30460A
:104280002B1A8B4201DB01444D1E854246DA4FF06A
:10429000010805464246DFF8E0903249D9F800E0CF
:1042A000314EDEF86430DFF8D4C02060E5610D687F
:1042B0002761A36193E80300CEF8646086E80300F9
:1042C000C4F82CC03846002143F6FF77A847D9F838
:1042D000005006F1080E254EB5F90C204046B5F900
:1042E0000E3095F8681001320133C5F814E0B5F8C6
:1042F00008C012FB01F2B5F80AE013FB01F31CFB46
:1043000001F5013A013B66611EFB01F166602287FF
:104310006387A586E186E760BDE8F8832A1A013243
:10432000B9E7134B1868A06098B100F003FADFF802
:104330002C90206250B10F4B48464FF0000840F8D7
:10434000243F0CF063FED9F8207093E74FF001088A
:1043500090E70EF0F1FDA060E7E700BFE8F8062067
:1043600030FF0620D812022014F9062001C0FFFFFA
:1043700004000720591F030864100220E5B002085A
:104380002DE9F047DFF818913E4CD9F80030276A44
:1043900093F8685090FBF5F691FBF5F5002F51D09E
:1043A0004FF00008384AA1681068B042B8BF3046E4
:1043B0002A1A8A4201DB01444D1EA8423FDD4FF01C
:1043C000010805464246596E20603048304EDFF8FD
:1043D000D4E0E561A1610568276103C95E6686E8EE
:1043E0000300C4F82CE0384600212A4FA847D9F82A
:1043F000005006F1080E43F6FF76B5F90C20404652
:10440000B5F90E3095F8681001320133C5F814E0A3
:10441000B5F808C012FB01F2B5F80AE013FB01F38E
:104420001CFB01F5013A013B67611EFB01F167606E
:1044300022876387A586E186E660BDE8F0872A1AB1
:104440000132C0E7144B1868A060B8B100F072F9EF
:10445000DFF830A0206260B1104B50464FF00008EA
:1044600040F8243F0CF0D2FDDAF82070D9F8003083
:1044700098E7D9F800304FF0010893E70EF05CFDA3
:10448000A060E3E7E8F8062030FF0620D8120220FB
:1044900014F9062001C0FFFF04000720591F03087C
:1044A00064100220E5B002080F4BF0B41C68C6B2DD
:1044B0000E4DB4F90C20B1B2B4F90E30013220899E
:1044C0000133678912FB01F284F8686013FB01F382
:1044D00010FB01F0013A17FB01F1013B2A87A88686
:1044E000E9866B87F0BC704764100220E8F806206C
:1044F00009B9084670472DE9F0410E46054605F01A
:104500003DFD05F03BFD30461AF038F904460BF04E
:10451000F5F824B3174FFA697B6B013203EBC40142
:10452000FA6113F83420013203F83420D1F8048002
:1045300008F10800C5B1104B324629461B68984760
:10454000D8F800107A6B0B4D12F83130012B03D9DB
:10455000E86908B10138E861013B02F831300BF03D
:10456000CDF82046BDE8F081044B324629461B6851
:104570009847E5E734FF0620D4120220D812022023
:1045800000B9704710B5044605F0F8FC20461AF053
:10459000F5F804460BF0B2F8204610BDF8B5054614
:1045A00005F0ECFC25B900240BF0A8F82046F8BD76
:1045B00005F0E4FC28461AF0E1F804460BF09EF8FA
:1045C000002CF0D0144E2A46144F0021F069736B72
:1045D000013003EBC405F06113F83400013003F837
:1045E00034006D683B6805F1080098472968726BD4
:1045F00012F83130012B01D9F06930B9013B02F8D2
:1046000031300BF07BF82046F8BD0138013BF061FA
:1046100002F83130F5E700BF34FF0620D81202203F
:1046200021F00301014B83E80300704750F9062095
:1046300000B9704770B50D4C054605F09FFCEE00C3
:10464000636B33445968486819F0B6FA6368626B63
:104650000021606A013316446360706002F835100F
:104660006562BDE870400BF049B800BF34FF06201A
:1046700028B1034AD36B036003B15860D06370471D
:1046800034FF0620F8B5054605F078FC2C68B4B177
:104690000E4E05F073FCE700736B3B4459684868A5
:1046A00019F08AFA7368726B0020716A013317443B
:1046B0007360796002F8340074620BF01FF8002315
:1046C0002B60BDE8F8400BF019B800BF34FF06209E
:1046D00000292BDD2DE9F04700258A46041F144FE1
:1046E000A94605F04BFC54F8046F0135B6B105F04E
:1046F00045FC7B6B4FEAC60843445968486819F08B
:104700005BFA7B68796B7A6A013388447B60C8F80E
:10471000042001F836907E620AF0F0FFC4F80090A1
:104720000AF0ECFFAA45DCD1BDE8F087704700BF76
:1047300034FF0620F8B58B4E044696F82830002B3F
:104740002FD00334356CF26B24F003040434A542FB
:1047500038BF254662B152F8043C14469D4204D14C
:1047600014E054F8043C9D4210D02468002CF8D189
:10477000F368B46B1C4454F8041C611A0B68002BDA
:1047800068D14B689D426FDD002408E023680BB1BF
:1047900061685960616801B10B60A24256D0204641
:1047A000F8BD714B01219A6886F8281058680AB93B
:1047B00082089A605A27102220254FF0400E376257
:1047C000802732644FF48072B5644FF40075196825
:1047D000C6F850E04FF4806EB7654FF4006732665C
:1047E0004FF48052B5664FF40055A1F11403C6F89A
:1047F00070E0B7674FF4804EC6F880204FF4004752
:10480000C6F888504FF480324FF400350344C6F8A0
:1048100090E04FF4802EC6F898704FF40027C6F849
:10482000A0200222C6F8A8500125B1637363C6F820
:10483000B0E03261F060C6F8B8705D6075627560B6
:1048400019F0BAF927F06AFF35637AE72368204642
:10485000F363F8BD00202FF0D7FE54F8041C611A52
:104860000B68002B90D18CE7581BD6F8B8703D4AE6
:10487000041DBB420C4472D2D2F8B070BB426CD261
:10488000D2F8A870BB4266D2D2F8A070BB4260D208
:10489000D2F898709F425AD9D2F89070BB4254D245
:1048A000D2F88870BB424ED2D2F88070BB4248D258
:1048B000926F934243D2376F2A4ABB423DD2976EE2
:1048C000BB4238D2176EBB4233D2976DBB422ED259
:1048D000176DBB4229D2976CBB4224D2126C934213
:1048E0000CD2F2687369521B2B44F260736110B9E9
:1048F00044F8045C53E719F05FF9F9E700223768E0
:10490000D1F808E0FF1ACB683760BEF1000F01D084
:10491000CEF8043013B1C3F800E0E2E706EBC202C0
:10492000C2F844E0DDE70122E9E70222E7E70322DB
:10493000E5E70422E3E70522E1E70622DFE70722B5
:10494000DDE70822DBE70922D9E70A22D7E70B22B5
:10495000D5E70C22D3E70D22D1E70E22CFE70F22B5
:10496000CDE700BF34FF062050F90620F8B54A4CC9
:1049700094F82830002B3DD0D4F8BC30464A3BBBDD
:10498000D2F8B43023BBD2F8AC300BBBD2F8A43091
:10499000F3B9D2F89C30DBB9D2F89430C3B9D2F86D
:1049A0008C30ABB9D2F8843093B9D36F83B9536FDD
:1049B00073B9E36E63B9536E53B9D36D43B9536D95
:1049C00033B9D36C23B9536C13B96FF00B00F8BD36
:1049D0009B68002BF9D0002201E09B6843B1596825
:1049E0001046914201D90A4608469B68002BF4D133
:1049F0000C38F8BD294B01219A6884F828105868B2
:104A00000AB982089A605A26102220254027266279
:104A1000802622644FF48072A5644FF400751968F3
:104A200027654FF48067A6654FF4006622664FF451
:104A30008052A5664FF40055A1F114032767A667BD
:104A40004FF48047C4F880204FF40046C4F88850E3
:104A50004FF480324FF400350344C4F890704FF4A3
:104A60008027C4F898604FF40026C4F8A0200222E2
:104A7000C4F8A8500125A16363632261E060C4F813
:104A8000B070C4F8B8605D606562656019F094F854
:104A900027F044FE25636FE734FF062050F9062017
:104AA00090B10A4A1368D16870B45569A3F10C0437
:104AB0009668CB1A24EAE4724C19056104604661D9
:104AC00083604260C16070BC704700BF34FF062045
:104AD00030B1044B5B6B03EBC000436858680C3883
:104AE000704700BF34FF0620024A93690133936187
:104AF000704700BF34FF0620084AD169536B01316B
:104B000010B4D16103EBC00413F83020013203F874
:104B1000302060685DF8044B0830704734FF062091
:104B200009B9084670472DE9F8438846064605F05E
:104B300025FA404619F022FE05460AF0DFFD002D59
:104B400066D0002E64D0344CF700636B3B445B6846
:104B50005B68A3F10C008045A8BF804605F00EFA03
:104B6000636BE169424613F8350003EBC508023177
:104B700003EB070C0130DFF8A4E003F83500D8F8A8
:104B80000480E16113F8361008F10800013103F8E0
:104B90003610DCF80490DEF8003009F1080198477F
:104BA000D8F80010636B13F83120012A03D9E069AB
:104BB00008B10138E061013A03F83120D9F800105A
:104BC00013F83120012A06D9E069DFF84CE010B172
:104BD0000138CEF81C00013A03F8312005F0CEF977
:104BE000636B3B445968486818F0E6FF6368626B82
:104BF0000020616A013317446360796002F836006F
:104C000066620AF07BFD0AF079FD2846BDE8F8836C
:104C10002846BDE8F88300BF34FF0620D4120220E6
:104C2000F8B5584C05F0AAF994F82830002B57D065
:104C3000D4F8BC30534A9BBBD2F8B43083BBD2F813
:104C4000AC306BBBD2F8A43053BBD2F89C303BBB2A
:104C5000D2F8943023BBD2F88C300BBBD2F884301E
:104C6000F3B9D36FE3B9536FD3B9E36EC3B9536EDE
:104C7000B3B9D36DA3B9536D93B9D36C83B9536CE6
:104C800073B96FF00B034049DA1781FB0313C2EBD2
:104C90006313246A04FB03F40AF030FD2046F8BDD8
:104CA0009B68002BF5D0002201E09B6843B1596856
:104CB0001046914201D90A4608469B68002BF4D160
:104CC0000C38B0F5800F0346DDD8226A2E4B02FB6C
:104CD00000F0A3FB00235C090AF010FD2046F8BD9C
:104CE0002A4B01219A6884F8281058680AB982086A
:104CF0009A605A26102220254027266280262264A8
:104D00004FF48072A5644FF40075196827654FF45D
:104D10008067A6654FF4006622664FF48052A56650
:104D20004FF40055A1F114032767A6674FF480479D
:104D3000C4F880204FF40046C4F888504FF4803205
:104D40004FF400350344C4F890704FF48027C4F842
:104D500098604FF40026C4F8A0200222C4F8A8509E
:104D60000125A16363632261E060C4F8B070C4F8F8
:104D7000B8605D606562656018F01EFF27F0CEFCCC
:104D8000256355E734FF06201F85EB5150F90620B7
:104D9000102807D9054B5A685208904228BF104680
:104DA000986070471020014B9860704750F90620BA
:104DB000024A9369013B9361704700BF34FF0620AC
:104DC00003680B4A30B4044653F8085C506B10F883
:104DD0003530012B03D9D16909B10139D1610022E4
:104DE000013B00F835301046226030BC704700BFF0
:104DF00034FF0620034B5B6B03EBC00040680830B8
:104E0000704700BF34FF062050F8080C704700BF01
:104E1000A8B32DE9F041044682B0084682BB15468E
:104E200002AE2046FFF768FE0346078846F8080DE5
:104E30003046D3F80480FFF7C3FF791C4046890051
:104E4000FFF76EFE804660B3FFF756FE034602A8EA
:104E500040F8043D43F82750FFF7B2FF2046FFF724
:104E60004BFE034630461A88C3F804800132009393
:104E70001A80FFF7A5FF002002B0BDE8F08170475F
:104E80001146FFF735FB05460028C9D12046FFF73C
:104E900033FE02AB43F8080D1846FFF791FF0120DF
:104EA000EAE72846FFF7C4FB0120E5E70820FFF703
:104EB00075BB00BF00B9704730B583B00546FFF73A
:104EC0001BFE436800903BB96846FFF779FF284610
:104ED000FFF7AEFB03B030BD1846FFF70DFE009B99
:104EE00001901B885BB1002400E0019800EB840076
:104EF0000134FFF7C7FB009B1B88A342F5DC01A828
:104F0000FFF75EFF00980430FFF7BCFB009B002218
:104F10001A80D9E730B583B00C46FFF7EDFD038862
:104F20000090A34201D9456825B96846FFF748FFBC
:104F300003B030BD05F022F82846A500FFF7DCFDE0
:104F400001902844FFF79EFB009B1A88013A92B219
:104F5000A2421A8007DD019B121B291D92005819DD
:104F60001944FBF700FA01A8FFF72AFF0AF0C6FB75
:104F70006846FFF725FF03B030BD00BF10B582B013
:104F800018B90446204602B010BDFFF7B5FD02ABCC
:104F9000048843F8040D1846FFF712FF204602B0BC
:104FA00010BD00BF10B582B018B90446204602B04B
:104FB00010BD0C46FFF7A0FD038800909C4206D36D
:104FC00000246846FFF7FCFE204602B010BD406892
:104FD00008B90446F5E7FFF78FFD02AB50F824400F
:104FE00043F8040D1846FFF7EBFEEAE710B582B070
:104FF00008B30C46FFF780FD038800909C4206D35F
:1050000000246846FFF7DCFE204602B010BD406871
:105010000028F5D0FFF770FD02AB50F8244043F8AC
:10502000040D1846FFF7CCFE002CE9D02046FFF710
:1050300063FD0446E5E70446204602B010BD00BF0C
:1050400070B584B00446104615460E46FFF7A6FA22
:10505000039068B3204604ACFFF74EFD3146009044
:1050600000F02CF801900398FFF746FD124B54F81E
:105070000C1D2A461B68029098472046FFF7A0FEA9
:1050800002A8FFF79DFE3146039A009800F034F81D
:1050900048B90398FFF730FD04466846FFF790FED5
:1050A000204604B070BD03A80024FFF7EBFAF4E734
:1050B0000446204604B070BDD412022003889942F1
:1050C00001D30020704740680028FBD010B582B0A3
:1050D0000C46FFF711FD02AB50F8244043F8040DD5
:1050E0001846FFF76DFE24B12046FFF705FD02B01C
:1050F00010BD0020FBE700BF03888B4201D9406848
:1051000008B901207047F0B583B00C461546FFF78B
:10511000F3FC02AE074600EB840046F8047DFFF77F
:10512000B1FA47F824503046FFF74AFE002003B09A
:10513000F0BD00BF70B50D46044604F06DFF0022BF
:105140002B46C1B22046BDE8704000F001B800BF58
:10515000B0F1004F2DE9F04346D0002851DB002587
:105160004D1B4FF0000EEDB20AB1013DEDB275B32B
:105170006C1EAA42274F4FF03108DFF89CC0E4B202
:105180001ED057F8246090FBF6F1C9B20A2901F14C
:10519000010906FB11001AD824B9BEF1000F01D095
:1051A0005FFA89F10A2901F1300115D01D686E1CE2
:1051B0001E6029705CB125466C1EAA42E4B2E0D1A3
:1051C00019684E1C1E609CF800600E70D9E71B68C1
:1051D00000221A70BDE8F08319682C464D1C1D6032
:1051E000254681F80080E7E71C684FF0010E4D1E50
:1051F0002D2104EB0E066FF00040EDB21E60217011
:10520000B2E71C6801252D26404267191F602670F1
:10521000A6E700BFDCF30A08F8FF062010B584B04B
:105220000C46064B114601AA009020460193CDF88A
:105230000CD01DF071FA04B010BD00BF6959000810
:105240002DE9F04FBC4DA5B00E469A462D6824AC12
:105250000DF1700C0DF16C0EE96B1546B74F1AAAE3
:105260000B6819A944F8300D21A806930DF15E03CF
:10527000CDF804C0CDF800E023942197DDF8B8B054
:1052800000F07AFB40B10120AB4B069A1B68DB6B48
:105290001A6025B0BDE8F08F04F070FE02F0D6FD74
:1052A000A54A199B116803FB0AF31A9ACC6C02FBFE
:1052B0000AF2096D34190A9069181FA80794089119
:1052C000ADF87E100139ADF87C40B3FBFBF3B2FBC7
:1052D000FBF223440A44013BADF88220ADF8803054
:1052E00017F0D8FD00286FD0BBF1000F5B464FF0E0
:1052F0000004B8BF0BF101035B10099319E014DB44
:10530000022B12DC1B9921A800F05EFC1C981A9C51
:10531000019021A80094199B089ACDF80CB0079928
:10532000CDF808A022F0CCFF044617F029FC002895
:105330004BD01C9B002BE2D1BDF85E30013B1F2BF4
:10534000F3D801A252F823F02F5700082B5300087E
:105350002B5300082F5700082B5300082B5300082D
:105360002B5300082F5700082B5300082B5300081D
:105370002B5300082B5300082B5300082B53000815
:105380002B530008115600082B5300082B5300081C
:105390002B5300082B5300082B5300082B530008F5
:1053A0002B530008EF5400082B5300082B53000820
:1053B0002B5300082B5300082B5300082B530008D5
:1053C0002B530008D953000804460A9809F04EF9F7
:1053D0000AF094F9204657E71A9B0022199903FB1B
:1053E0000AF30C911E9293FBFBF39342109340F34C
:1053F0003C82013B0B934FF0FF330E930B4643F37C
:105400001A03DDF82480D9469E00D0440024C1450B
:105410000AD9D0440134C845FBD305E000F0BCFBF9
:10542000013C002840F0B081631C1EAA4FF000032D
:10543000314621A8F2D1D9440123C14500F241826D
:10544000D9440133C845FBD20E9A119302FB03F2F3
:1054500012921E9A10460E9A013200F01B82089B8F
:105460000B9A134419460F93119B5D4613960646FB
:10547000013B099C0C9A0B441593079B0D93002349
:10548000511C02E00133994225D05444D71AAC4252
:10549000F8D331780133B2785D44707806EB830637
:1054A000A54242EA014343EA002000F20E820122B3
:1054B0005D440132AC42FBD214920EF001F9149A11
:1054C0000D98159B02440F990D92013A0DF0E4FBE3
:1054D0007A1E002FD3D10B9B129A10991344139E5E
:1054E0008B420B9380F29481002B8EDA90E11A9B11
:1054F0000022199903FB0AF30C911E9293FBFBF314
:105500009342109340F3A981013B0B934FF0FF337B
:105510000E930B4603EB4303DDF82480D946DB00F2
:105520001F335B119E00D0440024C8450ED2D044E6
:105530000134C845FBD309E0641002206959000812
:1055400000F02AFB013C002840F01E81002C4FF0A7
:1055500000031EAA314621A8F2DAD9440123C1452D
:1055600000F2AB81D9440133C845FBD20E9A1193A6
:1055700002FB03F212921E9A10460E9A013200F0BC
:105580008181089B0B9A134419460F93119B5D462A
:1055900013960646013B099C0C9A0B441593079BF6
:1055A0000D930023511C01E0994226D05444D71A90
:1055B0000133AC42F8D332785D44B17803EB430356
:1055C0007078AC4241EA02421E4442EA0020C0F038
:1055D0009C8101225D440132AC42FBD214920EF058
:1055E0006FF8149A0D98159B02440F990D92013A89
:1055F0000DF052FB7A1E002FD3D10B9B129A139EF3
:105600009B180B9300F10481109A93428BDBFFE00F
:105610001A9B0022199903FB0AF30C911E9293FB2B
:10562000FBF39342109340F31081013B0B934FF037
:10563000FF330E930B461B01DDF82480D9461F3340
:105640005B119E00D0440024C1450AD9D0440134E6
:10565000C845FBD305E000F09FFA013C002840F06C
:105660009380621C4FF000031EAA314621A8F2D19C
:10567000D9440123C845C0F01C81D9440133C84531
:10568000FBD20E9A119302FB03F214920E9A01328E
:105690001E9900F00781089B0B9A13440F9324AACC
:1056A000119B099C5D461046013B0F9A13440C9ACE
:1056B0001593079B0D93034643F81C1D129300237B
:1056C000511C02E00133994228D05444D71AAC420D
:1056D000F8D312985D4413930BF07CFC0DF0E2FDBF
:1056E0001D9A139BAC42014602EB43031D93C0F08D
:1056F000F98001225D440132AC42FBD2084613928C
:105700000DF0DEFF139A0D98159B02440F990D9230
:10571000013A0DF0C1FA7A1E002FD0D10B9B149ADA
:105720009B180B9374D4109A93428BDB70E01B99F7
:1057300021A800F049FA1A9B0022199903FB0AF3E9
:105740000C91BDF85E101E920B9193FBFBF89045F7
:1057500073DD4FF0FF3308F1FF390D930B46013B2A
:105760001F2B68D8DFE803F06167675B67676756E0
:105770006767676767676712676767676767671263
:1057800067676767676767120124CEE50C9BDF00D8
:105790001F377F11BF00099D5E4655440024AE426D
:1057A00009D955440134B542FBD304E000F0F4F9C3
:1057B000013C0028E8D1611C4FF000031EAA3946C5
:1057C00021A8F3D15E44AE4200F2998001235E44E9
:1057D0000133AE42FBD90D9A194602FB03FE01329A
:1057E0001E984AD0089B03EB09020B9B0124F1444D
:1057F00002910493CDF804B00C9BCDF800A007995A
:10580000039426F067F8C14502DAB9F1000FC4DA53
:1058100000248AE50C9BDF1C27F00307BBE70C9BE9
:105820009F001F377F11BF00B5E70C9B03F11F07D7
:105830007F11BF00AFE70027ADE7A5D00123C8F176
:10584000000891460D930B4689E79DD05B420B9271
:10585000109301230E930B46EDE695D05B420B921D
:10586000109301230E930B4654E68DD05B420B92AE
:10587000109301230E930B46C1E5089A4A44D31AAC
:105880005A1CB2E70B99089A0A44D31A01330F93B2
:1058900019467BE60B99089A0A44D31A01330F93F1
:1058A0001946E1E5089A0B980244D31A01330F9385
:1058B000F5E60E9A11931492E9E60E9A119312925C
:1058C00059E60E9A11931292C3E50DF0F9FE119B61
:1058D000012B27D10F990D980DF084F90D9B013301
:1058E0000D93F5E50DF0ECFE119B012B1CD10F99EA
:1058F0000D980DF077F90D9B01330D930BE7012106
:10590000DDF834E00B46724669E70DF0D9FE119BD5
:10591000012B0BD10F990D980DF064F90D9B0133FC
:105920000D9367E60122CBE50122ECE6012259E660
:1059300000B583B000F1120302A840F8043D0BF05B
:105940004FFB03B05DF804FB00B583B000F1160314
:1059500002A840F8043D0BF043FB0028B8BF4042CA
:1059600003B05DF804FB00BF10B404681046234484
:105970005DF8044B0B6070472DE9F043044683B09B
:105980000020894690461E466060034625686946A9
:10599000A0683622A847362803D0012003B0BDE80E
:1059A000F08363686846363363600BF013FB009B3B
:1059B000054668460C3300930BF012FB0746684619
:1059C0000BF00EFBC9F8000068460BF009FB009BCA
:1059D000C8F800006846023300930BF0FBFA3080F1
:1059E00068460BF0FDFA009B0B9A0C33106068467A
:1059F00000930BF0F5FA3388013B1F2BCDD801A2A1
:105A000052F823F0CF5A00089B5900089B59000810
:105A1000C75A00089B5900089B5900089B59000869
:105A2000855A00089B5900089B5900089B5900089B
:105A30009B5900089B5900089B5900089B59000876
:105A4000D75A00089B5900089B5900089B59000829
:105A50009B5900089B5900089B5900089B59000856
:105A6000D75A00089B5900089B5900089B59000809
:105A70009B5900089B5900089B5900089B59000836
:105A8000D75A00084FF480730A9A136008B10A9B32
:105A900018600B9B1B68032B21D0606828383844A2
:105AA00060600A9B1B68B3F5807F3FF776AF44F6D2
:105AB00042539D427FF471AF0B9B1868032894BF3B
:105AC000002001206AE710230A9A1360DEE7022310
:105AD0000A9A1360DAE700230A9A1360D9E7266866
