:020000040800F2
:10000000D03D0720D9020008AD490308093703088D
:1000100089490308B5E9020883830308000000004A
:1000200000000000000000000000000015020008B1
:10003000F5F20208000000007102000849590308A7
:10004000F3020008F3020008F3020008F3020008BC
:10005000F3020008F3020008F3020008F3020008AC
:10006000F3020008F3020008F3020008F30200089C
:10007000F3020008F3020008F3020008F30200088C
:10008000F3020008F3020008F3020008F30200087C
:10009000F3020008F3020008F3020008F30200086C
:1000A000F3020008F3020008F3020008F30200085C
:1000B000F3020008895A0308F3020008F30200085B
:1000C000F3020008F3020008F3020008F30200083C
:1000D000F302000851610308F3020008F30200086C
:1000E000F3020008F3020008F3020008F30200081C
:1000F000F3020008F3020008F3020008F30200080C
:10010000F3020008F3020008F3020008F3020008FB
:10011000F3020008F3020008F3020008F3020008EB
:10012000F3020008F3020008F5F10208F3020008E8
:10013000F3020008F3020008F3020008F3020008CB
:10014000F3020008F3020008F3020008B1490308B3
:10015000F3020008F302000801F20208F3020008AB
:10016000F3020008F3020008F3020008F30200089B
:10017000F3020008F3020008F30200080000000088
:10018000F3020008F3020008F3020008F30200087B
:10019000F3020008F3020008F3020008F30200086B
:1001A0007D400308F3020008F3020008F302000890
:1001B000F3020008F3020008F3020008F30200084B
:1001C000F3020008F302000800000000F302000838
:1001D000F3020008F3020008F3020008F30200082B
:1001E000F3020008F3020008F3020008F30200081B
:1001F000F3020008F3020008DFF80CD000F0BCFAAC
:100200000048004755070408D03D072072B67047E4
:1002100062B670472D4B19680868B0E8F04F80F35C
:100220000988BFF36F8F4FF0000080F3118870478B
:100230000000000008480068006880F308884FF05C
:10024000000080F3148862B661B6BFF34F8FBFF32E
:100250006F8F00DF00BF00BF08ED00E0DFF80C008B
:10026000016841F470010160704700BF88ED00E053
:10027000EFF30980BFF36F8F144B1A681EF0100F55
:1002800008BF20ED108A20E9F04F106009B44FF04C
:10029000500072B680F31188BFF34F8FBFF36F8F9A
:1002A00062B64BF0C9FF4FF0000080F3118809BC23
:1002B00019680868B0E8F04F1EF0100F08BFB0ECE6
:1002C000108A80F30988BFF36F8F7047D000022037
:1002D000EFF3058070470000064880470648004756
:1002E000FEE7FEE7FEE7FEE7FEE7FEE7FEE7FEE7E6
:1002F000FEE7FEE7355A0308F90100082DE9F05F33
:100300000546002092469B46884606468146402484
:100310001BE0284641464746224600F0D6F85346A1
:100320005A46C01A914110D311461846224600F091
:10033000BDF82D1A67EB01084F4622460120002127
:1003400000F0B4F817EB00094E41201EA4F101049F
:10035000DFDC484631462A464346BDE8F09F10B5EB
:10036000441A0346944209D28418114403E011F858
:10037000013D04F8013D521EF9D210BD40EA0104CE
:10038000A40703D009E010C9121F10C3042AFAD22F
:1003900003E011F8014B03F8014B521EF9D210BDD6
:1003A000D2B201E000F8012B491EFBD270470022B7
:1003B000F6E710B513460A4604461946FFF7F0FF64
:1003C000204610BD421E12F8013F002BFBD111F850
:1003D000013B02F8013B002BF9D1704730B50546CF
:1003E0002A460B4612F8010B13F8014B08B1A04244
:1003F000F8D01CB1002802D06D1CF1E7284630BDB2
:1004000010B5044604E00B7800F8013B03B1491C29
:10041000521EF8D2204610BD421C10F8011B0029C4
:10042000FBD1801A704710B5002200E0521C835C9B
:100430008C5CA34201D1002BF8D1D8B2E1B2401AB2
:1004400010BD30B504460020034600E05B1C93421B
:1004500003D2E05CCD5C401BF8D030BD034611F800
:10046000012B00F8012B002AF9D118467047A0E8AB
:10047000004FF0C040F804DB01B5AFF30080BDE8E9
:10048000024001C10020704700F12C080C4658F8CA
:10049000040DAFF3008058F8040D8546200008BF16
:1004A000012038E9F00018E9004F7047202A04DBEA
:1004B000203A00FA02F1002070479140C2F1200377
:1004C00020FA03F3194390407047202A04DB203AB6
:1004D00021FA02F00021704721FA02F3D040C2F164
:1004E0002002914008431946704700000FB40023D2
:1004F00000B589B00CA900910B996FF00042CB6058
:100500001E4B06931E4B07930423CDE901321D4A6F
:10051000089202466B46002000F0DAF909B05DF857
:1005200014FB70B586B006464FF0FF300091CDE960
:100530000101002015460C4604903246694604A885
:10054000FFF7D4FF02460498211825B108B10846E8
:1005500000E020462860049800280DD0002A02DD23
:100560000098884208D0081B0094CDE90104324667
:10057000694604A8FFF7BAFF06B070BD090B000872
:10058000270B00089D0700082DE9FE4F81EA0304B0
:1005900004F0004421F0004100944FF0000B23F0E0
:1005A000004350EA01045ED052EA03045BD0C3F377
:1005B0000A54C1F30A552C44A4F2F3340194A0FB6D
:1005C0000254C1F3130141F48011C3F3130343F444
:1005D000801301FB024400FB034E840A970A44EA9D
:1005E000815447EA8357A4FB076802958D0A05FBEF
:1005F00007854FEA932C04FB0C542705029D4FEA14
:10060000065847EA1637B5EB08056EEB070C870E60
:10061000920E47EA811742EA8312A7FB0201B6EB6A
:100620000B0164EB00042B0D43EA0C335E1844EB22
:100630001C50DA465146E7FB0201C5F313044FEAAA
:100640000B3343EA14534FEA0432019C43EA060396
:10065000A4F10C040294009CCDE900B400F083FAEC
:1006600003B0BDE8F08F00200146F9E72DE9F04D19
:1006700081EA030404F0004B21F0004514464FF0DA
:10068000000A23F0004150EA050220D054EA01029A
:100690001DD0C5F30A570246C5F31303C1F3130077
:1006A000C1F30A5640F4801543F48013A7EB060803
:1006B000101BD64608F2FD3873EB050002D308F193
:1006C000010801E092185B41B8F1000F03DA002045
:1006D0000146BDE8F08D00204FF4801106468446A7
:1006E0000EE0171B73EB050705D3121B63EB050325
:1006F00006434CEA010C49084FEA300092185B416E
:1007000050EA0107EDD152EA030012D082EA040058
:1007100083EA0501084305D0101BAB4106D2012234
:10072000002306E000224FF0004302E06FF00102D8
:1007300053101AEB06004CEB085110EB0A0041EB8A
:100740000B01BDE8F04D00F0FFB970B521F000439A
:1007500003430CD0C1F30A550024D5EB040564EB28
:100760000403D617AD1AB34102DB0020014670BD69
:10077000201841EB025170BD064C074D06E0E068C1
:1007800040F0010394E8070098471034AC42F6D3D8
:10079000FFF736FD7438080894380808C0B24FF4E3
:1007A000F05100F02FBA00002DE9FF4F087883B018
:1007B0009946FF2805D0491C2D2804D0002400208C
:1007C00008E000200BE00124F9E700EB800003EBD8
:1007D0004000491C0B78FF2BF7D104B140420023A5
:1007E0000293147819461D462D2C01D02B2C04D1D0
:1007F000521C2D2C13D000240294AA461478FF2CEE
:100800000FD00A25A3FB057801FB05814FF0000CF2
:1008100003FB0C11521CE3194AEB0101EEE7012422
:10082000EAE7814453EA010002D019F5C87F06DAED
:1008300003980021C0E9001107B0BDE8F08F002542
:10084000AE4E2F46DFF8B882184600F0EFF9CDE93A
:100850000001B9F1000002DAC9F1000400E0044629
:100860000023A74A1AEB030B42EB045A12E0E007FD
:1008700007D02A46334638464146FFF785FE0746ED
:1008800088462A46334610461946FFF77DFE054640
:100890000E466410002CEAD1DDE90001B9F1000F29
:1008A0005A46534606DAFFF7E1FE3A464346FFF75B
:1008B000DDFE05E0FFF768FE3A464346FFF764FEBB
:1008C000029A0AB181F00041039AC2E90001B3E73C
:1008D0002DE9FF4F1F468DB0D7E901464FF0FF3895
:1008E0002E2045464FF000090B90B9696D1C0E98FB
:1008F0008847396A824688470028F6D1BAF1FF3F17
:100900000AD024F4D064002E11DDBAF12B0F08D0E8
:10091000BAF12D0F0BD102E0404611B08DE744F43F
:100920008064B9696D1C0E9888478246761E6946B8
:10093000600501D52D2000E02B208DF8000001F18D
:10094000010B0DF1200809E0B9696D1C0E9888476C
:1009500082460F9844F40074761E0560002E02DD76
:10096000BAF1300FF0D00B998A453ED144F08004A3
:1009700006E00F99681CA9F1010944F400740860AD
:10098000B9696D1C761E0E98884782463028F0D0D3
:100990002BE00B998A4505D1200603D444F080044E
:1009A000761E18E0504639F047FE08B30DF11301EA
:1009B000761E44F400748B4508D2AAF130000BF87F
:1009C000010B200607D5A9F1010003E0200602D49F
:1009D00009F101008146A00502D50F99681C086045
:1009E000B9696D1C0E9888478246002ED1DC53E011
:1009F000002E51DDBAF1650F02D0BAF1450F4BD18F
:100A0000A00549D5B9696D1C24F44074761E0E9872
:100A100088478246002E0CDD2B2804D0BAF12D0F1A
:100A200007D144F48074B9696D1C0E9888478246DA
:100A3000761EE00501D52D2100E02B2108F8011BD1
:100A4000CDF82C8021E00DF12901761E44F40074CC
:100A500088450CD2AAF1300010F0FF0088F80000A1
:100A600002D10B99884509D908F1010806E0E00593
:100A700001D5244801E042F20F708146B9696D1C2E
:100A80000E98884782460F980560002E04DD504678
:100A900039F0D2FD0028D6D1F9690E988847FF2099
:100AA0008BF8000088F800000020069007904B4665
:100AB0006A4608A906A8FFF777FEA00502D46FF0E2
:100AC00001002AE714F0240F0AD0E00714D1DDE971
:100AD00006123868031D3B600068C0E900120BE095
:100AE000DDE9060100F0AEF80146E00704D1386800
:100AF000021D3A600068016028460EE700001440BD
:100B00000000F03FF1D8FFFF426842B1016811F8E0
:100B1000013B23B1521EC0E9001218467047012163
:100B2000C160881E704742685AB1C368016843B902
:100B300083688B4205D0491E521CC0E90012002078
:100B400070474FF0FF30704710B5141E73F100046A
:100B500008DA401C41F1000192185B411A4301D1AF
:100B600020F0010010BD2DE9F04D92469B4611B1D9
:100B7000B1FA81F202E0B0FA80F220329046FFF73B
:100B800095FC04460F4640EA0A0041EA0B01534631
:100B90005A46084313D0114653EA010019D0C8F150
:100BA00040025046FFF791FC05460E465046594616
:100BB0004246FFF77BFC084305D0012004E02046B5
:100BC0003946BDE8F08D0020054346EAE0762C4327
:100BD00037430A986305E40AA0EB08000022FD0AE7
:100BE00044EA47540A3002D500200146E9E70105EE
:100BF00010196941DDE9084500196941BDE8F04D6A
:100C0000A2E700007F2801D9002208E0064A02EB93
:100C10005002C007127800D1120902F00F02012021
:100C20009040084070470000B8AD07080EB540F28C
:100C3000334202920022CDE900221346FFF793FFD0
:100C400003B000BD01F0004330B421F0004150EA90
:100C5000010206D00A0DA2F56072C1F31301002A49
:100C600002DC30BC00207047440F44EAC104C100DC
:100C7000E01830BC00EBC250AFF300800029A8BFE1
:100C80007047401C490008BF20F00100704710B4B5
:100C9000B0FA80FC00FA0CF050EA010404BF10BC6A
:100CA000704749B1CCF1200421FA04F411FA0CF197
:100CB00018BF012121430843A3EB0C01CB1D4FEAD0
:100CC00000614FEA102042BF002010BC704700EBCB
:100CD000C35010440029A4BF10BC7047401C4900F9
:100CE00008BF20F0010010BC704770B58C1810F8D8
:100CF000015B15F0070301D110F8013B2A1106D161
:100D000010F8012B03E010F8016B01F8016B5B1E7A
:100D1000F9D12B0705D40023521E0DD401F8013B55
:100D2000FAE710F8013BCB1A921C03E013F8015BC1
:100D300001F8015B521EF9D5A142D8D3002070BD45
:100D400070B5456882B004460146284613F0BCFEE3
:100D500068B123680F2B59D00BDD282B45D0B3F594
:100D6000107F3CD0112B49D0204614F0C1FB02B0BB
:100D700070BD0B2B20D00E2BF6D1E3681A68596892
:100D80000D2A53D0202A31D1002928464FF48071F2
:100D90007DDD13F089FF284602F03EFB02AB846A3A
:100DA00043F8040D184602F09BFCA207DFD5284645
:100DB000012116F04DFADAE7284602AD02F02CFBCD
:100DC00003466830019302F005F955F8040D03213C
:100DD0006C3002F025F9284602F082FCC4E7324B61
:100DE000214628461B689847C1E7E368002BBBD122
:100DF00028464FF4807113F045FEB5E72B4B1B6876
:100E0000002BB4D0214628469847B0E7284602F088
:100E100003FB034602A840F8043D5B6E1C6802F029
:100E20005FFC002CA3D02846A047A0E70029DDDD09
:100E30004FF48071284613F037FF02AC284602F0C9
:100E4000EBFA866A44F8040D204602F049FCB1072B
:100E500003D50121284616F0FBF94FF4807128468E
:100E600013F010FE284602F0D7FA034620461E8EE5
:100E70009C6A019302F034FC30460AF0E9FCA307B7
:100E80007FF575AF2846022116F0E2F96FE713F0FF
:100E9000F9FD284602F0C0FA034602A89C6A1E8E9D
:100EA00040F8043DE6E700BF70100220E8FA062093
:100EB0002DE9F04F87B0804689469246129E9B46A8
:100EC000109F4C251A4C07F0D9FE01965B460097FF
:100ED0005246494640460395029414F00DFA0646E0
:100EE00000B302F099FA10221199124F059013F0F5
:100EF000D3FF0DF1180E3D1D5EF804CD0FCD0CF1A2
:100F000034040FC40FCD0FC495E80F0084E80F0020
:100F10007B6B7046CCF8643002F0E2FB7B6B3046B2
:100F20005B6898470BF0D8FA304607B0BDE8F08F01
:100F3000410D0008701002202DE9F04F87B0804667
:100F400089469246119E9B46109F4C251A4C07F0ED
:100F500095FE01965B4600975246494640460395EA
:100F6000029414F0C9F9064600B302F055FA1022B3
:100F70001399124F059013F08FFF0DF1180E3D1DC0
:100F80005EF804CD0FCD0CF134040FC40FCD0FC4A7
:100F900095E80F0084E80F007B6B7046CCF8643056
:100FA00002F09EFB7B6B30465B6898470BF094FA2F
:100FB000304607B0BDE8F08F410D000870100220E8
:100FC0002DE9F04FB0F90A6087B0B0F90C708B468C
:100FD00085691644B0F90E801F44B0F910A004468C
:100FE000B0F908904C3507F049FEDFF8CCC04FF05F
:100FF000000E4246CDF800B03946304603955346C0
:10100000CDF808C0CDF804E014F076F9804628B990
:101010000BF062FA404607B0BDE8F08F02F0FCF931
:10102000244F49460DF11809102205903E1D13F07A
:1010300033FF59F804ED0FCE0EF134050FC50FCE76
:101040000FC596E80F0085E80F007B6B4846CEF889
:10105000643002F045FB7B6B40465B6898470BF0C1
:101060003BFA656807F00AFE404602F0D5F90346F0
:1010700004A89C6E0493059402F032FB294648466E
:101080000CF0C6FE0028C3D0059B9C4209D0404608
:1010900002F0C2F9059A034604A89A66049302F086
:1010A0001FFB404615F096FC0BF016FA404607B0C1
:1010B000BDE8F08F70100220410D0008974A81684A
:1010C00043682DE9F041044688B052F82160122BA4
:1010D00040D8DFE803F0B03F3F3F3F0A973F3F3F34
:1010E0003F3F3F3F3F3F3F3F4300F569002D40F00A
:1010F000B580371F57F8040F0AF0A6F904F1140160
:1011000020690EC928445B1B521B2944013504F099
:101110001DFC022DEED162693169E3690191911CD8
:10112000F76813442069A2695B1028440097521B9A
:1011300004F0DCFAE1696269B0698B1E1144A269AE
:101140000190491020697669521B013128440096AC
:1011500004F0CCFA002008B0BDE8F081006802F08D
:101160005BF9876E0490002F00F0D080A368B0F97F
:101170005C80002B00F0C880032B14BF00230223E7
:1011800000EB8303406D08AC1D6C0AF08DF9284616
:101190000AF05AF906A805F0D5FCB28BBDF8181074
:1011A00006A8BDF81C301144BDF81A509A1ABDF8B3
:1011B0001E30ADF81810023554F8101D023BADF882
:1011C0001C20B1F96020B1F95E10ADF81E30ADF809
:1011D0001A5009F011FB204608AC02F081FA0220F7
:1011E0000AF01EFB384602F017F906A9424644F8F9
:1011F0000C0D03F025FF204602F072FA002008B023
:10120000BDE8F081006802F007F90490206817F04B
:10121000DBFBB8B9049B5D6F05B9DD6E04A802F075
:101220005FFA0023284621681A4603F0B3FD002028
:1012300008B0BDE8F081006816F038FB002008B067
:10124000BDE8F081A368002B64D1049A136F002BD2
:1012500014BF6C23682313445D68DFE7B268B046AF
:10126000C3690027039271688269029158F80409E2
:1012700000956169019020690CF07EF858F8040F20
:101280000AF0E2F8F369A26921696069D21A194487
:10129000384404F005FBF369A2692169E069D21AB8
:1012A0001944C01B04F0FCFAF369E2696169206922
:1012B000D21A1944384404F035FDA069F369E26993
:1012C000C01B61690137D21A194404F02BFD022FAB
:1012D000D4D1B0680AF0B8F8F16922696569901C48
:1012E000E3690A445B1A2944013A04F08FFDF1696D
:1012F000A0696569E369821E401A5B1A29440130BE
:1013000004F084FDF56906E7012339E704A802F03B
:10131000E7F91FE7049BDD6E80E700BF18090808A6
:1013200010B5044682B078B107F0A8FC204602F060
:1013300073F802AB448E43F8040D1846C4F300243E
:1013400002F0CEF90BF0C8F8204602B010BD00BF85
:1013500070B5164604460D46049A3046194603F009
:10136000CDFC294602462046BDE8704000F070B82A
:10137000054B064A064910B45C6A11605862204663
:101380005DF8044B704700BF74100220A4100220C7
:10139000A810022000B9704730B5044683B00D464E
:1013A00007F06CFC204602F037F802AB456543F8C5
:1013B000040D184602F094F9204615F00BFB0BF0D3
:1013C0008BF803B030BD00BF38B513460022044689
:1013D0000D461846114603F0BBFC2946024620463E
:1013E000BDE8384000F034B870B582B018B90125B6
:1013F000284602B070BD04460D4607F03FFC20466B
:1014000002F00AF80346866E68468DE8480002F04E
:1014100067F9294601A80CF0FBFC00280CBF012548
:1014200000250FD0019B9E4209D0204601F0F4FF19
:10143000019A034668469A66009302F051F92046E5
:1014400015F0C8FA0BF048F8284602B070BD00BF8E
:1014500000B9704770B5054682B00C46164607F0D5
:101460000DFC284601F0D8FF022C019006D901A8F6
:1014700002F036F90BF030F802B070BD1A34A40057
:101480002044043001F0A6FD019B28461C44666000
:1014900015F0A0FAEBE700BFF0B5274F83B0054683
:1014A0003A68538CD46C116D1C44938CA4B20B44D9
:1014B00021B29384013C5184ADF8001005F01CFB6F
:1014C000064628460CF0DCFA3B683444B3F9246045
:1014D0002044ADF80260013EADF8040005F066FB63
:1014E00006446846ADF8066016F078FE80B90A2D0D
:1014F0001DD0BDF804303A6801331BB25384918C7F
:10150000D46C106D1B1B091A5384918403B0F0BD79
:10151000284601F0DBF916F0F3FC0028E7D0284656
:1015200001F0D4F916F0ECFC0028F1D1DFE73A68BD
:10153000B2F92230E3E700BF341002202DE9F04376
:1015400004468BB018B920460BB0BDE8F0831646B0
:101550000D461F4600F086FD8046204600F066FDE1
:10156000814607F08BFB05A9204600F065FFEA07DE
:1015700019D4AB07BDF920004CBF40F2022302236F
:10158000304442460293494643468DE89000FFF7B7
:101590008FFC0446002113F0B3FB0AF09DFF2046A8
:1015A0000BB0BDE8F083BDF9242008F1FF308223A1
:1015B000101A801BE5E700BF10B50523FFF7BEFF3B
:1015C0000446054A0021FFF7FFFE2046034915F0B7
:1015D000E3FF204610BD00BFD1E90108E1E50208A4
:1015E00010B50723FFF7AAFF0446054A0021FFF7BD
:1015F000EBFE2046034915F0CFFF204610BD00BF8B
:1016000029EB0108F9E5020810B50823FFF796FF5A
:101610000446054A0021FFF7D7FE2046034915F08E
:10162000BBFF204610BD00BF91ED010839E602085E
:101630002DE9F047466886B00546304601F0ECFEDD
:10164000C36D0090D0F88840D0F88070D0F86880E2
:10165000B0F87C90002B64D0D3F800A0684602F06C
:101660003FF814B909E024683CB1636828469847FC
:101670000028F8D006B0BDE8F0872B68172B00F0E3
:10168000A5801DDC0F2B00F08D807DDC0B2B00F086
:10169000BF800D2B0AD119F0080F07D1EB68DB686A
:1016A00023B11B7A13B1304616F014F830462946A0
:1016B00013F00AFA0028DDD0284613F019FFD9E705
:1016C000262B75D02FDC1E2B00F0AE80202BEDD109
:1016D000EC68002CEAD03146606817F05BF900280E
:1016E00000F0C080304601F097FEB0F87C30024632
:1016F0000190180740F12D8101A801F0F1FF31465A
:10170000606817F035F90028D0D0304601F084FE2B
:101710006268034601A80193C3F8802001F0E0FF4E
:10172000C4E79A469AE72A2B65D0B3F5107FBDD15E
:1017300006AC3046D5F80C8001F06EFEB0F87C7037
:1017400044F8140D204601F0CBFFEB68002B91D03C
:1017500098F80830002B00F0AB80380740F1B780D4
:10176000304613F00DFD07F48873B3F5887F81D1FF
:1017700007F080039BB2002B7FF47CAF41463046DC
:10178000052215F04DFF75E7112B22D0142B8DD1BA
:10179000304601A900F050FE02ABEA6803CB1060AE
:1017A000516067E7BAF1000F80D03046D0477DE73F
:1017B000EB68022B7FF45EAF272206A9A86841F8E8
:1017C000142D0396049317F06BFA53E7C5F80C80B9
:1017D00050E7EC68304601F01FFE01902389012B91
:1017E00005D1B0F87C3043F48073A0F87C3001A8B8
:1017F00001F076FF5AE7304601F00EFEEB680090EC
:10180000002B68D0C0F88430684601F069FF31E7EA
:10181000304601F001FE03467030009301F0DAFB20
:10182000684601F05DFF41E7EC68012C57D0002EBF
:101830003FF420AF07F022FA304601F0EDFDB0F89A
:101840007C30024601901C0706D523F00803304681
:10185000A2F87C3015F0BEF801A801F041FF0AF0B3
:101860003BFE07E7304601F0D7FDB0F87C3002467A
:101870000190190706D523F008033046A2F87C3002
:1018800015F0A8F801A801F02BFF3146206817F0E9
:101890006FF800283FF40AAF304601F0BDFD226822
:1018A000034601A80193C3F8802001F019FFFDE66B
:1018B000304601F0B1FD03462046B3F87C20019389
:1018C00022F48072A3F87C2001F00AFFD2E63046B1
:1018D00015F000FF44E7D0F88430EB6094E7384619
:1018E00015F098FB20B3384615F0F4FE384614F096
:1018F0001FFFB0B926B9002F7FF4BCAEEF60B9E688
:1019000007F0BCF9304601F087FDB0F87C300246A4
:101910000190190725D501A801F0E2FE0AF0DCFDCF
:10192000E9E72146384613F0BFF9002EE3D0E7E798
:10193000404615F03BFF0746304601F06DFD03467B
:101940006846C3F88070009301F0CAFE002ED2D022
:10195000D6E743F008033046A2F87C3015F03AF899
:10196000CAE643F008033046A2F87C3015F032F89E
:10197000D1E700BF2DE9F04F8DB00746894692466A
:10198000169C9B46DDF85C80602507F077F9009493
:1019900048F480564C4C5B465246019649463846C0
:1019A0000395029413F0A8FC064628B90AF094FDAA
:1019B00030460DB0BDE8F08FDFF814B10DF13009FD
:1019C00001F02AFD302219995D46049013F064FA63
:1019D00059F8207D4FF0000A0FCD07F134040FC4F1
:1019E0000FCD0FC495E803001B9B384D84E803001E
:1019F0007B664846BDF8603041F28274C7F880A02B
:101A0000A7F87C30DBF82830C7F86CA0FB65C7F876
:101A100088A001F065FE07A9304600F00DFDBDF974
:101A20002010BDF92270BDF924200846BDF92630EA
:101A3000521A0194DB1B39460132CDF80CA0013358
:101A40000096029513F058FCDBF828300446304627
:101A50005B689847304601F0DFFC034648469C66C9
:101A6000049301F03DFE42F2040308EA0303C3B10C
:101A700007F004F9304601F0CFFC0346026F05A8D9
:101A80000593069201F02CFE1A9906A80CF0C0F9F5
:101A900058B90AF021FD0AF01FFD30460DB0BDE82F
:101AA000F08F304613F096FEE2E7304601F0B4FCCA
:101AB000069A034605A81A67059301F011FE304601
:101AC00014F088FFE5E700BF31160008D1270008B1
:101AD000341102202DE9F04F0F46B0F90C108FB0F1
:101AE000B0F90A6001EB030BB0F9083085691644C0
:101AF000049343686035B0F90E80B0F91090B0F8E7
:101B000012A0059307F0BAF84B4C4FF4805E039592
:101B10005946009730464B4642460294CDF804E0C1
:101B200013F0EAFB054628B90AF0D6FC28460FB0A8
:101B3000BDE8F08FDFF808910EAE01F06DFC04995E
:101B40003022069013F0A8F956F8207DCE464FF0CB
:101B5000000807F13404BEE80F000FC4BEE80F0010
:101B60000FC49EE80300189B84E803007B663046A0
:101B7000D9F8283041F28274A7F87CA0FB65C7F839
:101B80008080C7F86C80C7F8888001F0A9FD09A99A
:101B900028462A4F00F050FCBDF92AE0BDF9281074
:101BA000BDF92C20BDF92E300846521A0194CEEB17
:101BB000030371460132CDF80C8001330095029782
:101BC00013F09AFBD9F82830044628465B689847FA
:101BD000284601F021FC034630469C66069301F03E
:101BE0007FFD284613F0F6FD07F048F8284601F07F
:101BF00013FC034607A81A6F0793089201F070FDC3
:101C0000059908A80CF004F938B90AF065FC0AF047
:101C100063FC28460FB0BDE8F08F284601F0FCFBBE
:101C2000089A034607A81A67079301F059FD28464A
:101C300014F0D0FEE9E700BF31160008D1270008F4
:101C4000341102202DE9F041044690B0006800F004
:101C5000D5F9B04B6668A3F12C05002808BF1D46D6
:101C60001C2E00F2F780DFE816F02200F500F500E8
:101C7000F500F5003500F500F500F500F500F5007C
:101C80005100F500F500FA00F500F500F5000E0131
:101C9000F500F50048014A014C014E01F500F50040
:101CA000F5001D006E69304610B0BDE8F081206877
:101CB00001F0B2FB034610A8B3F85A2040F82C3DBF
:101CC00042F00C02A3F85A2001F00AFD206815F03A
:101CD000EDFDE8E72A690026B4F910300192B4F965
:101CE00014701846EA68B4F918503946B4F91C4023
:101CF000ADF81C30009223462A46ADF81E70ADF8B0
:101D00002050ADF8224003F0F1FCCCE723681C2200
:101D100018460892079301F07FFB034607A8059336
:101D20001B6D9847064605A801F0DAFC012E40F32A
:101D30002781A9683346626902916868A1690190A8
:101D40002F68206900970BF013FA2769A3693744BD
:101D5000C6EB0308286809F077FB424639466069FC
:101D600003F09EFD686809F06FFB606942463946E2
:101D7000013003F095FD6B6A022B00F3F4802A6AB0
:101D8000964217DA6769012E206907F1020840F3CD
:101D90002A810244374430444146013A3B4604F02C
:101DA00035F8A069821B3B46EF694146C01B0130F4
:101DB00004F02CF8012E40F3138163691E44E76997
:101DC0002868013F09F040FB314620693A4603F09C
:101DD000A9FF3A463146A06903F0A4FFE7696868A5
:101DE00009F032FB023F206931463A46013003F0E8
:101DF00099FFA0693A463146013803F093FFEB6939
:101E0000022B40F38280AB6AE769022BA868CCBF43
:101E1000FF1A023F09F018FBEA69022A00F39A80D0
:101E20002B6A022B00F38C80286809F00DFBA26955
:101E30002169E06903F034FD686809F005FBA269D7
:101E40002169E069013A0131013803F029FDAF6AE7
:101E5000022F61DC0026304610B0BDE8F08104F1AD
:101E600014012769A8680026ADF81C700EC9ADF8EA
:101E70001E10ADF82020ADF8223009F0E5FA07A8D1
:101E800003F0F0FF0FE7298B2269A3690A44656913
:101E90005B1AE1692068ADF82030ADF81C20ADF880
:101EA0001E50ADF8221001F0B7FA036F0590FBB198
:101EB000022009F0B5FC059AB2F87C30C3F3C003E8
:101EC0000E3302EB8303986809F0BEFA059B586B4A
:101ED00009F0EAFA059B186F01F09EFA059B07A925
:101EE0000690B3F95A2003F0ABF806A801F0F8FB0E
:101EF00005A8002601F0F4FBD5E6AE6AD3E6EE694C
:101F0000D1E62E6ACFE66E6ACDE62B6A022B8BDD18
:101F100079E700BFA0110220D4F81C800026A26936
:101F20002169A868951E8C1C09F08EFAC7EB080180
:101F30002A462046A8F10203013103F067FFB2E60A
:101F4000A0693B46EF693146821EC01B013003F099
:101F50005DFF69E720693B46314602440230013AA1
:101F600003F054FF5CE7A86809F06EFA636938462D
:101F70006F6A991C42463B44013B03F047FF19E757
:101F8000286809F061FA2269EB69114660691A4410
:101F9000013A03F085FCA369E9691A466069591A98
:101FA000013103F07DFC676920690137394603F090
:101FB000A3FC3946A06903F09FFC686809F044FA65
:101FC00020693946013003F097FCA0693946013891
:101FD00003F092FC2769A3690237A3F10208B9E66E
:101FE00066690236EBE60244434602304146013A56
:101FF000474603F00BFFA069821ED4E610B50446E5
:1020000082B080B106F03AFE204601F005FA02AB3C
:10201000B0F87C4043F8040D1846C4F3C00401F046
:102020005FFB0AF059FA204602B010BD30B50446F5
:1020300083B0A0B106F022FE204601F0EDF902AD1A
:10204000C26D03460021204645F8043D93681B6895
:1020500098470446284601F043FB0AF03DFA204623
:1020600003B030BD10B5044686B010B9204606B0A6
:1020700010BD06F003FE204601A900F0DDF9204660
:1020800001F0CAF906ABB0F9544043F8180D1846F0
:1020900001F026FB0CB9BDF904400AF01DFA2046F8
:1020A00006B010BD00B970472DE9F043054685B074
:1020B00006F0E4FD284601F0AFF9019028462AF029
:1020C0003FFA019BB3F87C20120634D4986901F0E2
:1020D000A3F983690290B0F90060B0F90270002B97
:1020E0004AD0B0F90480B0F9069002A801F0F8FADD
:1020F000019B03F17402DC6993E8030082E80300AA
:10210000B3F87C2042F08002A3F87C2034B91AE0B6
:10211000039B03A81C6A01F0E3FAA4B1204601F076
:102120007BF90390204613F0A7FD0728F0D1204645
:1021300014F050FCECE701A801F0D2FA0AF0CCF957
:1021400005B0BDE8F08301A801F0CAFA3A4631466D
:10215000284614F0B9FFC7EB0902C6EB0801284670
:102160000132013115F05CFC284600F0F3FA0AF068
:10217000B3F905B0BDE8F0830DF0BCFD0FFA80F8AF
:102180000DF0FEFD0FFA80F9AFE700BF00B9704710
:10219000F0B5054683B006F071FD284601F03CF924
:1021A000009028462AF084F9009BB3F87C20520660
:1021B00006D5684601F094FA0AF08EF903B0F0BD36
:1021C000B3F906201846B3F90260961B00F0BEF979
:1021D000009B0136D96A03F174020F6800EB4707D0
:1021E00093E80300023782E80300986E14F0AEFA19
:1021F000009BD86E14F0AAFA009BB3F87C20DC692F
:1022000042F04002A3F87C2034B912E0019B01A8FF
:102210001C6A01F065FA64B1204601F0FDF80190F6
:10222000204613F029FD0828F0D1204614F0D2FBF7
:10223000ECE7684601F054FABA1B0021284615F075
:1022400077F8284600F086FA0AF046F903B0F0BDA8
:1022500000B9704710B5044606F010FD20462AF07C
:102260006FF920462AF024F9BDE810400AF034B98D
:1022700000B9704730B5044683B00D4606F0FEFC49
:10228000204601F0C9F8836C0190AB4203D085640D
:10229000806E14F09FFB01A801F022FA0AF01CF9ED
:1022A00003B030BD084B10B403F10C01074C1861AA
:1022B000074804F11802E469036003C982E80300D7
:1022C00020465DF8044B7047601102203411022053
:1022D0005C110220024BB3F92620D88410467047C7
:1022E000341102202DE9F041044684B00E4606F078
:1022F000C5FC24B90AF0F0F804B0BDE8F08120462E
:1023000001F08AF8458EC36D05F0200503909F68A3
:10231000ADB245B1B0F954502DB9406B04F0BEFCDC
:10232000039B851C00E003465E6303A801F0D8F917
:102330003B680121204698473B680646032120461A
:1023400098473B688046002120469847074620462C
:1023500000F000FA4346324629462046009700F036
:102360007BF9204614F036FB0AF0B6F804B0BDE85D
:10237000F08100BF00B9704730B5044683B00D4608
:1023800006F07CFC204601F047F80346026F6846E1
:102390000093019201F0A4F9294601A80BF038FD41
:1023A00018B90AF099F803B030BD204601F034F8AE
:1023B000019A034668461A67009301F091F9204696
:1023C00014F008FB0AF088F803B030BD00B970477C
:1023D00030B5044683B00D4606F050FC204601F0AF
:1023E0001BF8B0F95A300190AB4204D0A0F85A5013
:1023F000204614F0EFFA01A801F072F90AF06CF827
:1024000003B030BD00B9704730B5044683B00D4607
:1024100006F034FC204600F0FFFF02AB056443F8F1
:10242000040D4564184601F05BF9204614F0D2FA19
:102430000AF052F803B030BD2DE9F04F89B00746DD
:102440000D4600F0E9FF034601213846DA6D059399
:102450009468236898472368032180463846984744
:102460002368022183463846984723680021824624
:10247000384698478146059815F0A0FE064605980F
:1024800015F0A4FE03460598448E04F02004A4B27F
:10249000B4B1B0F95420B0F95840002A4AD091B2F2
:1024A000C06E0C44A4B280B103910292019313F068
:1024B0007BFE019B0FFA80FC029A80B2039905E033
:1024C00021462246C06E0028EED184461FFA89FEBE
:1024D000013E013B0FFA88F8CBEB060674440EF17F
:1024E000FF3ECAEB030336B2044471446B812A8079
:1024F00005A8A5F802C0EC8069822E812E82A5F87D
:102500000480A5F80C80A5F80E9001F0E9F808AA5F
:10251000B5F910403846B5F90C3006A942F8044D1B
:10252000069300F04BF8069A079BAA812B8209B00C
:10253000BDE8F08F406B019304F0B0FB821C019B5F
:10254000059891B212B20C44A4B2BBE708B5438E11
:1025500003F020039BB24BB10246B0F9540000B126
:1025600008BD506B04F09AFB023008BD184608BD48
:1025700070B58AB00C46064600F04EFF0AABC26D3D
:1025800043F8280D1846956801F0AAF80196032C27
:1025900005D8DFE804F00F0C0902172302936B68DB
:1025A00001A898470AB070BD15230293F7E71623D8
:1025B0000293F4E718230293F1E700BF2DE9F043FB
:1025C00083B088460446914600F026FF034602A8E1
:1025D000DA6D40F8083D9568B3F90070B3F9026010
:1025E00001F07EF82B6820460021984705462046DA
:1025F00013F014FB68B3044607E001A801F070F87B
:10260000204613F085FC044618B3204600F004FF72
:10261000B0F9023001909B1B9D42EED1836A1B06EC
:102620000BD5B0F90030D9F80020DB1B934203F141
:10263000FF33E2DCC9F80030DFE7B0F90430D8F846
:102640000020DB1B934203F10103A8BFC8F8003050
:10265000D3E703B0BDE8F0832DE9F04F83B088469F
:102660009A460546914600F0D7FEC26D02AED2F8FA
:1026700008B046F8080DFFF769FF0446304601F040
:102680002FF8DBF80030012128469847DBF80030AE
:102690000321064628469847DBF80030074600210C
:1026A000284698474445834609D14E4507D15745AA
:1026B00005D10C9B984202D103B0BDE8F08F2846AB
:1026C000C8EB040413F0AAFA05460028F4D04FF032
:1026D00000080C9BC9EB0606C7EB0A07C3EB0B0B04
:1026E000C1460BE0B3F5007F11D001A800F0F8FF60
:1026F000284613F00DFC05460028DDD0284600F0E2
:102700008BFE836A019003F42073802BEAD1CCB94D
:10271000836A1A060BD49B05E7D508F1010308FB71
:1027200004615A462846984614F036FDDDE709FB59
:1027300014715A46284609F1010914F02DFD019B38
:102740009B6AE8E728462246214614F0F1FD0198ED
:10275000DEE700BF70B586B0064600F05DFE0346BA
:1027600006A89C6E40F8183DDD6E00F0B9FF14B964
:102770000DB906B070BD304601A9FFF75DFE6CB91A
:10278000002DF6D0BDF90A202846BDF90630BDF966
:102790000810D21A14F05AFC06B070BDBDF90A2018
:1027A0002046BDF9081014F051FCBDF90E20BDF90A
:1027B0000A602046BDF90C30BDF90810921B591A69
:1027C0000132013115F02CF9002DD2D0DAE700BF2B
:1027D0002DE9F043456887B00446284613F0A6FB70
:1027E000074600F019FE034606A85E6E40F8143D49
:1027F000D3F84880D3F8809000F072FF23680E3B36
:10280000232B3FD8DFE803F035463E3E3E3E121212
:102810003E123E3E3E3E3E3E18243E3E2B3E3E3E57
:102820003E3E3E3E3E3E3E3E3E3E3E30204612F066
:102830005FFE07B0BDE8F083E368002BF9D0B9F183
:10284000000F3BD04D4539D0484614F043FFF0E728
:102850002146384612F038F907B0BDE8F083C4F8D5
:102860000C8007B0BDE8F0830023E36007B0BDE84B
:10287000F083E3685A68002A04DD1B68092B1DD029
:102880000A2B1FD0002ED1D020466760B04707B07A
:10289000BDE8F0836FF07043984504D040460DF0DA
:1028A00077FD01F04BFF002EC3D002AF94E80F007C
:1028B00087E80F0038460395B047BAE7284614F07A
:1028C00075FFB6E7284614F0B9FFB2E70A2838B515
:1028D00014D00D28044610D006F0D0F9114B204634
:1028E0001B68DB691B6898470F4B1B680BB12046C0
:1028F0009847BDE8384009F0EFBD38BD094C06F0F7
:10290000BDF906F0BBF92368DB695D7E09F0E4FDE3
:1029100023689A8C198C2A4459849A84BDE83840DB
:1029200009F0DABD34100220B8FD0620204B70B546
:102930001E6806F0A3F91F4C002530460DF028FD57
:1029400009F0CAFD1C4B1E6806F098F930460DF0E0
:1029500059FD09F0C1FD06F091F9012223681A76AC
:1029600009F0BAFD06F08AF923689D8509F0B4FDE7
:1029700006F084F923685D8509F0AEFD06F07EF966
:1029800028460DF071FD09F0A7FD0C4B1D6806F0FF
:1029900075F9236805B1DD6109F09EFD06F06EF959
:1029A000236800229A76BDE8704009F095BD00BF0B
:1029B00008F8062034100220301002202C100220CB
:1029C000014B83E80300704778F70620014B83E84A
:1029D0000300704780F70620014B83E8030070472F
:1029E00088F70620014B83E80300704798F706201C
:1029F0002DE9F04F5C4E8DB03368DA69B3F922509F
:102A0000D469B4F80CB0834500F29780E189814223
:102A1000C0F093802168CBEB000B08914FF0FF31A1
:102A20000A91BBF1FF3F00F0828092F81880A27CEF
:102A3000B3F92A10B3F9249018FB02F30846079162
:102A40001F4694F810A00DF00FFDD6F800E008998D
:102A50004346DEF838C05246099007FB0B10DEF8FB
:102A60001CE00B97012704904946CDF814C0284676
:102A700094F812C00297CDF80CC09EF81BC0DFF886
:102A8000E8B0CDF804C09EF81AE0CDF800E00CF0F4
:102A9000AFFD0A9F7B1C25D0079941F002000DF085
:102AA000E3FCDBF800100B9A43460898D1F838C0D5
:102AB00002FB0700D1F81CE00127CDF814C00490F8
:102AC000524694F812C0494602972846CDF80CC0E9
:102AD0009EF81BC0CDF804C09EF81AE0CDF800E0C7
:102AE0000CF086FD3368DFF88080DB695A7E1B7E40
:102AF0009A4215D9079B022B12D083F004000DF0E7
:102B0000B3FCD8F800302846DB691F7ED97E9A7E58
:102B10005B7E07FB01910AFB02524B440CF070FFF5
:102B20009DF824000DF0A0FC3368B3F92250627CBC
:102B300015445D840DB0BDE8F08FA1680029F6D082
:102B40000F88B842F3D3B1F802E08645EFD3C01B3B
:102B50004968676880B2089701EB800731F920B0B7
:102B6000B7F902100A915CE734100220044B1B688D
:102B7000DB69DB6909B11A7C0A60587C704700BFC9
:102B80003410022002230B80704700BFC3699A896A
:102B90008A4202D8DA898A4211D2986818B1038829
:102BA000994201D20020704742888A42FAD3C91A5A
:102BB000436833F82100C043C0F3C03070470120A0
:102BC000704700BF2DE9F04F3A4D89B02B68DA69A4
:102BD000B3F92A90D36943B11A88904202D3598835
:102BE000814205D29B68002BF6D109B0BDE8F08F79
:102BF000841AD3F80480484608EBC40696F802B05D
:102C00000DF032FC8246286818F834204FF0010E8F
:102C1000C769D0F838C0B0F92410B0F922003B7E63
:102C20000790CDF814C07068CDF80CB00490CDF8C2
:102C300008E097F81BE00798CDF804E0BF7E009706
:102C40000CF0D6FC2B68DA69537E177EBB4223D981
:102C5000B9F1020F07931FD092F81BB003F076FF73
:102C6000814603F03DFF08F0EFFB124B18F834E00B
:102C70001868079BC169B0F92240CA7EB0F92410D8
:102C800020460EFB02420BFB03130BFB07110CF05B
:102C9000B7FE484608F0D8FB50460DF0E5FB2B6820
:102CA0007178D8695A8C807E00FB01225A8409B061
:102CB000BDE8F08F34100220114B1B6870B4DD6941
:102CC000EB6943B11A88904202D35C88844205D2F2
:102CD0009B68002BF6D1184670BC7047821A5E685C
:102CE000AC7E06EBC2035B7813FB04F00029F3D043
:102CF00016F8323014FB03F370BC0B60704700BF52
:102D00003410022001230B80704700BFC06950B10E
:102D100003888B4202D843888B4203D28068002804
:102D2000F6D17047012070472DE9F047244F3D68E8
:102D3000002D3FDD234EC5EB4515DFF88C804FF0AD
:102D4000000A3468D8F8009004EB85050C340C3583
:102D5000A4F10803742249461846FDF700FB221F20
:102D60002063A06344F80CAC6263E4607C34A54249
:102D7000EED10024254603E082B13A68954213DA89
:102D80002CF0DEFF336801351A5919197C34904252
:102D9000F2D10431C8F80010BDE8F08708600431B2
:102DA000C8F80010BDE8F08719460431C8F80010D3
:102DB000BDE8F087034BDFF810801968E9E700BF32
:102DC0005410022070FA062034100220F8B5184F73
:102DD000184B3846184E40F80C3F0BF005F8346895
:102DE000C4EB4414A400204600F04CF9134B2246D7
:102DF00000211B68386098474FF0FF3373602CF058
:102E0000A5FF3368002B0FDD0024254603E062B1E7
:102E100033689D4208DA2CF093FF3B6801351A595C
:102E200023447C349042F2D1F8BD1860F8BD00BF55
:102E300070FA0620E1B1020854100220D8120220D4
:102E400009B9084670472DE9F0410E46054605F0E0
:102E500015FF05F013FF304616F034FE044609F066
:102E60003BFB24B3174FFA697B6B013203EBC401C0
:102E7000FA6113F83420013203F83420D1F80480C9
:102E800008F10800C5B1104B324629461B68984727
:102E9000D8F800107A6B0B4D12F83130012B03D9A2
:102EA000E86908B10138E861013B02F8313009F006
:102EB00013FB2046BDE8F081044B324629461B68CF
:102EC0009847E5E7C0FC0620D4120220D812022061
:102ED00000B9704710B5044605F0D0FE204616F044
:102EE000F1FD044609F0F8FA204610BDF8B5054694
:102EF00005F0C4FE25B9002409F0EEFA2046F8BD1D
:102F000005F0BCFE284616F0DDFD044609F0E4FAA3
:102F1000002CF0D0144E2A46144F0021F069736B38
:102F2000013003EBC405F06113F83400013003F8FD
:102F300034006D683B6805F1080098472968726B9A
:102F400012F83130012B01D9F06930B9013B02F898
:102F5000313009F0C1FA2046F8BD0138013BF0617B
:102F600002F83130F5E700BFC0FC0620D81202207D
:102F700021F00301014B83E803007047A0F706200E
:102F800000B9704770B50D4C054605F077FEEE00B0
:102F9000636B33445968486815F0B2FF6368626B2D
:102FA0000021606A013316446360706002F83510D6
:102FB0006562BDE8704009F08FBA00BFC0FC062012
:102FC00028B1034AD36B036003B15860D0637047E4
:102FD000C0FC0620F8B5054605F050FE2C68B4B1DB
:102FE0000E4E05F04BFEE700736B3B445968486892
:102FF00015F086FF7368726B0020716A0133174405
:103000007360796002F83400746209F065FA002395
:103010002B60BDE8F84009F05FBA00BFC0FC062095
:1030200000292BDD2DE9F04700258A46041F144FA7
:10303000A94605F023FE54F8046F0135B6B105F03A
:103040001DFE7B6B4FEAC60843445968486815F07B
:1030500057FF7B68796B7A6A013388447B60C8F8D4
:10306000042001F836907E6209F036FAC4F8009028
:1030700009F032FAAA45DCD1BDE8F087704700BFFD
:10308000C0FC0620F8B58B4E044696F82830002B7D
:103090002FD00334356CF26B24F003040434A542C2
:1030A00038BF254662B152F8043C14469D4204D113
:1030B00014E054F8043C9D4210D02468002CF8D150
:1030C000F368B46B1C4454F8041C611A0B68002BA1
:1030D00068D14B689D426FDD002408E023680BB186
:1030E00061685960616801B10B60A24256D0204608
:1030F000F8BD714B01219A6886F8281058680AB902
:1031000082089A605A27102220254FF0400E37621D
:10311000802732644FF48072B5644FF400751968EB
:10312000C6F850E04FF4806EB7654FF40067326622
:103130004FF48052B5664FF40055A1F11403C6F860
:1031400070E0B7674FF4804EC6F880204FF4004718
:10315000C6F888504FF480324FF400350344C6F867
:1031600090E04FF4802EC6F898704FF40027C6F810
:10317000A0200222C6F8A8500125B1637363C6F8E7
:10318000B0E03261F060C6F8B8705D60756275607D
:1031900015F0B6FE23F02CF835637AE72368204655
:1031A000F363F8BD002029F0ABF854F8041C611A51
:1031B0000B68002B90D18CE7581BD6F8B8703D4AAD
:1031C000041DBB420C4472D2D2F8B070BB426CD228
:1031D000D2F8A870BB4266D2D2F8A070BB4260D2CF
:1031E000D2F898709F425AD9D2F89070BB4254D20C
:1031F000D2F88870BB424ED2D2F88070BB4248D21F
:10320000926F934243D2376F2A4ABB423DD2976EA8
:10321000BB4238D2176EBB4233D2976DBB422ED21F
:10322000176DBB4229D2976CBB4224D2126C9342D9
:103230000CD2F2687369521B2B44F260736110B9AF
:1032400044F8045C53E715F05BFEF9E700223768A9
:10325000D1F808E0FF1ACB683760BEF1000F01D04B
:10326000CEF8043013B1C3F800E0E2E706EBC20287
:10327000C2F844E0DDE70122E9E70222E7E70322A2
:10328000E5E70422E3E70522E1E70622DFE707227C
:10329000DDE70822DBE70922D9E70A22D7E70B227C
:1032A000D5E70C22D3E70D22D1E70E22CFE70F227C
:1032B000CDE700BFC0FC0620A0F70620F8B54A4CB9
:1032C00094F82830002B3DD0D4F8BC30464A3BBBA4
:1032D000D2F8B43023BBD2F8AC300BBBD2F8A43058
:1032E000F3B9D2F89C30DBB9D2F89430C3B9D2F834
:1032F0008C30ABB9D2F8843093B9D36F83B9536FA4
:1033000073B9E36E63B9536E53B9D36D43B9536D5B
:1033100033B9D36C23B9536C13B96FF00B00F8BDFC
:103320009B68002BF9D0002201E09B6843B15968EB
:103330001046914201D90A4608469B68002BF4D1F9
:103340000C38F8BD294B01219A6884F82810586878
:103350000AB982089A605A26102220254027266240
:10336000802622644FF48072A5644FF400751968BA
:1033700027654FF48067A6654FF4006622664FF418
:103380008052A5664FF40055A1F114032767A66784
:103390004FF48047C4F880204FF40046C4F88850AA
:1033A0004FF480324FF400350344C4F890704FF46A
:1033B0008027C4F898604FF40026C4F8A0200222A9
:1033C000C4F8A8500125A16363632261E060C4F8DA
:1033D000B070C4F8B8605D606562656015F090FD1E
:1033E00022F006FF25636FE7C0FC0620A0F7062049
:1033F00030B1044B5B6B03EBC000436858680C387A
:10340000704700BFC0FC0620024A936901339361F4
:10341000704700BFC0FC0620084AD169536B0131D8
:1034200010B4D16103EBC00413F83020013203F86B
:10343000302060685DF8044B08307047C0FC0620FF
:1034400009B9084670472DE9F8438846064605F055
:1034500015FC404616F036FB054609F03DF8002DF8
:1034600066D0002E64D0344CF700636B3B445B683D
:103470005B68A3F10C008045A8BF804605F0FEFB09
:10348000636BE169424613F8350003EBC50802316E
:1034900003EB070C0130DFF8A4E003F83500D8F89F
:1034A0000480E16113F8361008F10800013103F8D7
:1034B0003610DCF80490DEF8003009F10801984776
:1034C000D8F80010636B13F83120012A03D9E069A2
:1034D00008B10138E061013A03F83120D9F8001051
:1034E00013F83120012A06D9E069DFF84CE010B169
:1034F0000138CEF81C00013A03F8312005F0BEFB7C
:10350000636B3B445968486815F0FAFC6368626B6A
:103510000020616A013317446360796002F8360065
:10352000666208F0D9FF08F0D7FF2846BDE8F883A7
:103530002846BDE8F88300BFC0FC0620D412022054
:10354000F8B5584C05F09AFB94F82830002B57D06A
:10355000D4F8BC30534A9BBBD2F8B43083BBD2F80A
:10356000AC306BBBD2F8A43053BBD2F89C303BBB21
:10357000D2F8943023BBD2F88C300BBBD2F8843015
:10358000F3B9D36FE3B9536FD3B9E36EC3B9536ED5
:10359000B3B9D36DA3B9536D93B9D36C83B9536CDD
:1035A00073B96FF00B034049DA1781FB0313C2EBC9
:1035B0006313246A04FB03F408F08EFF2046F8BD71
:1035C0009B68002BF5D0002201E09B6843B159684D
:1035D0001046914201D90A4608469B68002BF4D157
:1035E0000C38B0F5800F0346DDD8226A2E4B02FB63
:1035F00000F0A3FB00235C0908F06EFF2046F8BD35
:103600002A4B01219A6884F8281058680AB9820860
:103610009A605A261022202540272662802622649E
:103620004FF48072A5644FF40075196827654FF454
:103630008067A6654FF4006622664FF48052A56647
:103640004FF40055A1F114032767A6674FF4804794
:10365000C4F880204FF40046C4F888504FF48032FC
:103660004FF400350344C4F890704FF48027C4F839
:1036700098604FF40026C4F8A0200222C4F8A85095
:103680000125A16363632261E060C4F8B070C4F8EF
:10369000B8605D606562656015F032FC22F0A8FDDF
:1036A000256355E7C0FC06201F85EB51A0F70620D7
:1036B000102807D9054B5A685208904228BF104677
:1036C000986070471020014B98607047A0F7062063
:1036D000024A9369013B9361704700BFC0FC06201A
:1036E00003680B4A30B4044653F8085C506B10F87A
:1036F0003530012B03D9D16909B10139D1610022DB
:10370000013B00F835301046226030BC704700BFE6
:10371000C0FC0620034B5B6B03EBC0004068083025
:10372000704700BFC0FC062050F8080C704700BF6F
:10373000A8B32DE9F041044682B0084682BB154685
:1037400002AE2046FFF768FE0346078846F8080DDC
:103750003046D3F80480FFF7C3FF791C4046890048
:10376000FFF76EFE804660B3FFF756FE034602A8E1
:1037700040F8043D43F82750FFF7B2FF2046FFF71B
:103780004BFE034630461A88C3F80480013200938A
:103790001A80FFF7A5FF002002B0BDE8F081704756
:1037A0001146FFF74DFB05460028C9D12046FFF71B
:1037B00033FE02AB43F8080D1846FFF791FF0120D6
:1037C000EAE72846FFF7DCFB0120E5E70820FFF7E2
:1037D0008DBB00BF00B9704730B583B00546FFF719
:1037E0001BFE436800903BB96846FFF779FF284607
:1037F000FFF7C6FB03B030BD1846FFF70DFE009B78
:1038000001901B885BB1002400E0019800EB84006C
:103810000134FFF7DFFB009B1B88A342F5DC01A806
:10382000FFF75EFF00980430FFF7D4FB009B0022F7
:103830001A80D9E730B583B00C46FFF7EDFD038859
:103840000090A34201D9456825B96846FFF748FFB3
:1038500003B030BD05F012FA2846A500FFF7DCFDE5
:1038600001902844FFF7B6FB009B1A88013A92B2F8
:10387000A2421A8007DD019B121B291D92005819D4
:103880001944FCF76CFD01A8FFF72AFF08F024FE9D
:103890006846FFF725FF03B030BD00BF10B582B00A
:1038A00018B90446204602B010BDFFF7B5FD02ABC3
:1038B000048843F8040D1846FFF712FF204602B0B3
:1038C00010BD00BF10B582B008B30C46FFF7A4FDD1
:1038D000038800909C4206D300246846FFF700FF4F
:1038E000204602B010BD40680028F5D0FFF794FDD7
:1038F00002AB50F8244043F8040D1846FFF7F0FEE1
:10390000002CE9D02046FFF787FD0446E5E7044692
:10391000204602B010BD00BF70B584B0044610460A
:1039200015460E46FFF7E2FA039068B3204604AC52
:10393000FFF772FD3146009000F02CF801900398DB
:10394000FFF76AFD124B54F80C1D2A461B680290C3
:1039500098472046FFF7C4FE02A8FFF7C1FE314694
:10396000039A009800F034F848B90398FFF754FD23
:1039700004466846FFF7B4FE204604B070BD03A8B5
:103980000024FFF727FBF4E70446204604B070BD8F
:10399000D41202200388994201D300207047406866
:1039A0000028FBD010B582B00C46FFF735FD02AB06
:1039B00050F8244043F8040D1846FFF791FE24B157
:1039C0002046FFF729FD02B010BD0020FBE700BF35
:1039D00003888B4201D9406808B901207047F0B5CF
:1039E00083B00C461546FFF717FD02AE074600EB05
:1039F000840046F8047DFFF7EDFA47F8245030467E
:103A0000FFF76EFE002003B0F0BD00BF70B50D469D
:103A1000044605F081F900222B46C1B22046BDE8DC
:103A2000704000F001B800BFB0F1004F2DE9F04345
:103A300046D0002851DB00254D1B4FF0000EEDB2A3
:103A40000AB1013DEDB275B36C1EAA42274F4FF08B
:103A50003108DFF89CC0E4B21ED057F8246090FB18
:103A6000F6F1C9B20A2901F1010906FB11001AD8C1
:103A700024B9BEF1000F01D05FFA89F10A2901F1E2
:103A8000300115D01D686E1C1E6029705CB1254682
:103A90006C1EAA42E4B2E0D119684E1C1E609CF86C
:103AA00000600E70D9E71B6800221A70BDE8F08331
:103AB00019682C464D1C1D60254681F80080E7E7FB
:103AC0001C684FF0010E4D1E2D2104EB0E066FF009
:103AD0000040EDB21E602170B2E71C6801252D2662
:103AE000404267191F602670A6E700BF2CC0070878
:103AF00084FD062010B584B00C46064B114601AA81
:103B0000009020460193CDF80CD019F079FD04B057
:103B100010BD00BF414200082DE9F04FBC4DA5B0DB
:103B20000E469A462D6824AC0DF1700C0DF16C0E0A
:103B3000E96B1546B74F1AAA0B6819A944F8300D5E
:103B400021A806930DF15E03CDF804C0CDF800E086
:103B500023942197DDF8B8B000F07AFB40B1012042
:103B6000AB4B069A1B68DB6B1A6025B0BDE8F08F83
:103B700005F084F802F0EAFFA54A199B116803FBDF
:103B80000AF31A9ACC6C02FB0AF2096D34190A90F6
:103B900069181FA807940891ADF87E100139ADF897
:103BA0007C40B3FBFBF3B2FBFBF223440A44013B32
:103BB000ADF88220ADF8803014F010FB00286FD0F3
:103BC000BBF1000F5B464FF00004B8BF0BF10103DF
:103BD0005B10099319E014DB022B12DC1B9921A85E
:103BE00000F05EFC1C981A9C019021A80094199B7F
:103BF000089ACDF80CB00799CDF808A01EF09CFBF0
:103C0000044614F07DF900284BD01C9B002BE2D118
:103C1000BDF85E30013B1F2BF3D801A252F823F010
:103C200007400008033C0008033C00080740000868
:103C3000033C0008033C0008033C00080740000860
:103C4000033C0008033C0008033C0008033C000858
:103C5000033C0008033C0008033C0008E93E000860
:103C6000033C0008033C0008033C0008033C000838
:103C7000033C0008033C0008033C0008C73D000863
:103C8000033C0008033C0008033C0008033C000818
:103C9000033C0008033C0008033C0008B13C00085A
:103CA00004460A9807F0D0FB08F016FC204657E7B8
:103CB0001A9B0022199903FB0AF30C911E9293FBA5
:103CC000FBF39342109340F33C82013B0B934FF084
:103CD000FF330E930B4643F31A03DDF82480D946D5
:103CE0009E00D0440024C1450AD9D0440134C845BF
:103CF000FBD305E000F0BCFB013C002840F0B081A4
:103D0000631C1EAA4FF00003314621A8F2D1D9440A
:103D10000123C14500F24182D9440133C845FBD299
:103D20000E9A119302FB03F212921E9A10460E9AFB
:103D3000013200F01B82089B0B9A134419460F9323
:103D4000119B5D4613960646013B099C0C9A0B4459
:103D50001593079B0D930023511C02E001339942F8
:103D600025D05444D71AAC42F8D331780133B27815
:103D70005D44707806EB8306A54242EA014343EABC
:103D8000002000F20E8201225D440132AC42FBD2DF
:103D900014920CF037FB149A0D98159B02440F995E
:103DA0000D92013A0BF02CFE7A1E002FD3D10B9B03
:103DB000129A10991344139E8B420B9380F29481B4
:103DC000002B8EDA90E11A9B0022199903FB0AF36B
:103DD0000C911E9293FBFBF39342109340F3A98145
:103DE000013B0B934FF0FF330E930B4603EB430362
:103DF000DDF82480D946DB001F335B119E00D044E0
:103E00000024C8450ED2D0440134C845FBD309E094
:103E1000341002204142000800F02AFB013C002837
:103E200040F01E81002C4FF000031EAA314621A84D
:103E3000F2DAD9440123C14500F2AB81D944013300
:103E4000C845FBD20E9A119302FB03F212921E9AFE
:103E500010460E9A013200F08181089B0B9A1344A0
:103E600019460F93119B5D4613960646013B099C2C
:103E70000C9A0B441593079B0D930023511C01E0F2
:103E8000994226D05444D71A0133AC42F8D3327841
:103E90005D44B17803EB43037078AC4241EA0242DF
:103EA0001E4442EA0020C0F09C8101225D440132A0
:103EB000AC42FBD214920CF0A5FA149A0D98159B03
:103EC00002440F990D92013A0BF09AFD7A1E002FD1
:103ED000D3D10B9B129A139E9B180B9300F1048174
:103EE000109A93428BDBFFE01A9B0022199903FB87
:103EF0000AF30C911E9293FBFBF39342109340F351
:103F00001081013B0B934FF0FF330E930B461B01C7
:103F1000DDF82480D9461F335B119E00D044002475
:103F2000C1450AD9D0440134C845FBD305E000F0AF
:103F30009FFA013C002840F09380621C4FF0000380
:103F40001EAA314621A8F2D1D9440123C845C0F0A8
:103F50001C81D9440133C845FBD20E9A119302FB50
:103F600003F214920E9A01321E9900F00781089B09
:103F70000B9A13440F9324AA119B099C5D4610468B
:103F8000013B0F9A13440C9A1593079B0D9303461C
:103F900043F81C1D12930023511C02E00133994287
:103FA00028D05444D71AAC42F8D312985D441393E6
:103FB00009F0FEFE0CF018F81D9A139BAC42014666
:103FC00002EB43031D93C0F0F98001225D440132EE
:103FD000AC42FBD2084613920CF014FA139A0D98D7
:103FE000159B02440F990D92013A0BF009FD7A1EC0
:103FF000002FD0D10B9B149A9B180B9374D4109A5A
:1040000093428BDB70E01B9921A800F049FA1A9BC0
:104010000022199903FB0AF30C91BDF85E101E9261
:104020000B9193FBFBF8904573DD4FF0FF3308F1E4
:10403000FF390D930B46013B1F2B68D8DFE803F0D7
:104040006167675B67676756676767676767671278
:10405000676767676767671267676767676767129A
:104060000124CEE50C9BDF001F377F11BF00099DA7
:104070005E4655440024AE4209D955440134B54248
:10408000FBD304E000F0F4F9013C0028E8D1611C06
:104090004FF000031EAA394621A8F3D15E44AE4278
:1040A00000F2998001235E440133AE42FBD90D9AA0
:1040B000194602FB03FE01321E984AD0089B03EB0F
:1040C00009020B9B0124F14402910493CDF804B042
:1040D0000C9BCDF800A00799039421F0ABFBC145E0
:1040E00002DAB9F1000FC4DA00248AE50C9BDF1C68
:1040F00027F00307BBE70C9B9F001F377F11BF0012
:10410000B5E70C9B03F11F077F11BF00AFE7002746
:10411000ADE7A5D00123C8F1000891460D930B46E9
:1041200089E79DD05B420B92109301230E930B46BF
:10413000EDE695D05B420B92109301230E930B4654
:1041400054E68DD05B420B92109301230E930B46E5
:10415000C1E5089A4A44D31A5A1CB2E70B99089A47
:104160000A44D31A01330F9319467BE60B99089A38
:104170000A44D31A01330F931946E1E5089A0B98C4
:104180000244D31A01330F93F5E60E9A1193149259
:10419000E9E60E9A1193129259E60E9A1193129231
:1041A000C3E50CF02FF9119B012B27D10F990D9826
:1041B0000BF0CCFB0D9B01330D93F5E50CF022F9D0
:1041C000119B012B1CD10F990D980BF0BFFB0D9B80
:1041D00001330D930BE70121DDF834E00B46724605
:1041E00069E70CF00FF9119B012B0BD10F990D987A
:1041F0000BF0ACFB0D9B01330D9367E60122CBE581
:104200000122ECE6012259E600B583B000F1120369
:1042100002A840F8043D09F0D1FD03B05DF804FBAD
:1042200000B583B000F1160302A840F8043D09F080
:10423000C5FD0028B8BF404203B05DF804FB00BFD5
:1042400010B40468104623445DF8044B0B607047BB
:104250002DE9F043044683B00020894690461E466F
:104260006060034625686946A0683622A84736285C
:1042700003D0012003B0BDE8F0836368684636339D
:10428000636009F095FD009B054668460C3300937A
:1042900009F094FD0746684609F090FDC9F8000052
:1042A000684609F08BFD009BC8F8000068460233A1
:1042B000009309F07DFD3080684609F07FFD009B8A
:1042C0000B9A0C3310606846009309F077FD338831
:1042D000013B1F2BCDD801A252F823F0A7430008C1
:1042E00073420008734200089F43000873420008AD
:1042F00073420008734200085D43000873420008DF
:1043000073420008734200087342000873420008B9
:104310007342000873420008AF430008734200086C
:104320007342000873420008734200087342000899
:104330007342000873420008AF430008734200084C
:104340007342000873420008734200087342000879
:104350007342000873420008AF4300084FF48073B3
:104360000A9A136008B10A9B18600B9B1B68032B09
:1043700021D060682838384460600A9B1B68B3F518
:10438000807F3FF776AF44F642539D427FF471AF92
:104390000B9B1868032894BF002001206AE71023B4
:1043A0000A9A1360DEE702230A9A1360DAE7002311
:1043B0000A9A1360D9E726681022636801A9A068E9
:1043C000B047102805D06368A3F138003844606016
:1043D000D3E7636801A8254E1033636009F0EEFC53
:1043E000306001A809F0EAFC706001A809F0E6FC61
:1043F00000223368F260DA07B06007D401225B085C
:104400001146013213F0010FF9D0F16001225B086F
:104410009646013213F00101F9D17368C6F818E02D
:10442000DA07316107D401225B081146013213F02B
:10443000010FF9D0316101225B089646013213F079
:104440000101F9D1C307C6F81CE0716106D401234C
:1044500040081A460133C107FAD5726101234008AA
:104460001A460133C107FAD43262ACE7ACF7062032
:1044700070B504460D464BB94368114626682A4676
:10448000A068B047854205D0012070BD00210B46D1
:104490004160F2E7636800201D44656070BD00BFA5
:1044A00000292DDD2DE9F0410F4682B0044600259C
:1044B000DFF8508013E06368019A0433D8F8006095
:1044C0006360537811781B02907843EA01431843E4
:1044D0000BF046F846F825000135AF420CD0042217
:1044E000266863680DEB0201A068B0470428E2D09B
:1044F000012002B0BDE8F081002002B0BDE8F081EB
:1045000000207047C81D072010B5044604F0B6FB14
:10451000044804EB840400EB8404247A07F0DCFFF5
:10452000204610BDFCFA06202DE9F04F0E4683B060
:10453000804604F0A3FBB400304602F013FBDFF822
:104540001891A3198246D9F8002009EB83035F680C
:10455000002A32D0BAF1000F3BD1A519012309EB93
:1045600085056869C5F804802B72002864D1B8F10C
:10457000000F1CD034444FF0010AD8F8082033460D
:1045800009EB8404D8F80410D8F80000CDF800A096
:104590002569AA1AE568691A06F00CFE60613046C2
:1045A00002F0E0FA00284CD1237A002B3BD107F02F
:1045B00093FF384603B0BDE8F08F264A48460123F2
:1045C00040F82C2FC9F8003009F00EFCBAF1000FAA
:1045D000C3D05046344406F07FFE83464FF07F4000
:1045E00009EB840406F024FF012500F0A7F800225F
:1045F000D8F80000114600F04FFED8F800305046C1
:104600005A88198806F08EFF5846C4F8048025722F
:1046100006F062FE304602F0A5FA0028C4D0294612
:1046200006F090FFC3E7606906F090FD07F054FFC5
:10463000384603B0BDE8F08F06F026FAC5F814A09E
:1046400095E7514606F07EFF07F046FF384603B077
:10465000BDE8F08FD9B20208FCFA06202DE9F0413E
:1046600014460646884604F009FB204602F07AFA12
:10467000E8B9A7001B4D3B1905EB8303DA68B2428A
:1046800006D11B69434503D1BDE8F04107F024BFC3
:104690003B1905EB83035869D0B93C4405EB84040E
:1046A000E660C4F81080BDE8F04107F015BF0D4B7F
:1046B00004EB840403EB840463689A685968C2EBD2
:1046C0000802711A06F01EFFBDE8F04107F004BFB2
:1046D0005B689A685968C2EB0802711A06F004FA1E
:1046E000DBE700BFFCFA0620C3B2CAB29A1A92B244
:1046F00010B414B2002C1EDBC1F30722C0F3072351
:104700009B1A9BB21AB2002A12DB090C02FB02F2BE
:10471000C1EB104104FB042089B20CB2002C01DA79
:1047200049420CB2A1B25DF8044B01FB0100704795
:104730005B421AB2E9E7524214B2DDE700212DE9EB
:10474000F041084682B002F0BFFA184F04F096FA22
:1047500004200BF089FE164B43F6FF763D46DB68DE
:10476000804634466846DA6C1B6D174416441D4477
:104770001C44ADF80070ADF80460ADF80250ADF81F
:10478000064013F02BFD48B12346324629463846F1
:104790000BF036F913F0B4FB0028F5D140460BF0CE
:1047A00063FE07F099FE02B0BDE8F08101C0FFFF93
:1047B000281002202DE9F04182B016461C4607461B
:1047C0000D4604F05BFA04200BF04EFE134B8046BE
:1047D0006846DB68DA6C1B6D174416441D441C44A4
:1047E000ADF80070ADF80460ADF80250ADF80640C9
:1047F00013F0F4FC48B123463246294638460BF004
:10480000FFF813F07DFB0028F5D140460BF02CFE9D
:1048100007F062FE02B0BDE8F08100BF2810022060
:104820002DE9F04182B0B0F90070B0F90260B0F942
:104830000450B0F9064004F021FA04200BF014FEF5
:10484000134B80466846DB68DA6C1B6D17441544D1
:104850001E441C44ADF80070ADF80450ADF8026081
:10486000ADF8064013F0BAFC48B123462A4631465B
:1048700038460BF0C5F813F043FB0028F5D140464D
:104880000BF0F2FD07F028FE02B0BDE8F08100BF9A
:10489000281002202DE9F047044682B00D46164646
:1048A000002B37D09A46009651460B9B204626682F
:1048B0000A9AB047074618B9384602B0BDE8F087F3
:1048C00011F026F9618A8046384610F0EDF9013D75
:1048D000384613F0E7F8404613F0E4F8002D1DDDEC
:1048E0004FF0000903E013F0DDF8013D16D054F855
:1048F0001C6F0023CDF80090414620461A46B04771
:1049000006460028EFD1384610F03EFE304602B091
:10491000BDE8F08711F00AF98246C4E740461D2140
:1049200012F00CFEBAF1FF3FC6D004F0A7F911F067
:1049300083F960B9BA4502D0384612F037FF07F064
:10494000CBFD384602B0BDE8F0870028F4D0FEF772
:10495000E1FE80698742F8D1F1E700BF80B582B0FF
:1049600000AF7860054B1B68002B03D0034B1B681E
:104970007868984700BF0837BD4680BD80FD062097
:10498000012B17DC2DE9F04107461C2090460D460F
:104990001E46FEF777FB0446D0B16DB105610023DA
:1049A0002046A661A4F81480E76023606360A360DA
:1049B000BDE8F08100207047074B53F826200AB964
:1049C000EDE71A461368002BFBD113692361E6E774
:1049D0000020BDE8F08100BFA4FD0620012B3BDCD8
:1049E0002DE9F84381461C2090460F461E46FEF7EF
:1049F00049FB054600287FD0414A002F31D00023D3
:104A0000DFF804E152F8264003609EF800100761C9
:104A10008E428661A0F81480C0F80C9043608360D9
:104A200002DB731C8EF80030002C5DD021464C68F0
:104A3000002CFBD1D9F80000CB681B6883422CDD29
:104A400009680029F8D148B92E4B163628461A684D
:104A500042F82650BDE8F883002070472846BDE89C
:104A6000F88352F82610002930D0084600E0184696
:104A70000368002BFBD10069DFF88CE02B60286114
:104A80009EF80000AE618642A5F81480C5F80C902F
:104A90006B60AB60CBDB0C46C3E70AD04B6843B31B
:104AA0001D606B608D4214BF0B4600234D602B6070
:104AB000C9E7B8F1010FF1D104E0DC6819462368B9
:104AC0008342EBDB0B68002BF7D1E7E7DFF838E038
:104AD00001609EF8003086619E42A0F81480C0F804
:104AE0000C9041608160D6DA42F82650D9F8000077
:104AF000A9E742F82650D5E70020BDE8F88300BFBB
:104B0000A4FD0620341002209CFD0620FEF758BAB2
:104B100000283DD070B48469012C03DD01231846C0
:104B200070BC70471F4B1A78944221DA1E4D55F81D
:104B300024300BB932E013465A68002AFBD1C26810
:104B4000116802E01B68002BE8D0DA681268914215
:104B5000F8DB10D05A68F2B110604260984214BF7E
:104B60001A460022586000230260184670BC704745
:104B7000621C1A70DAE7828A012AEBD104E0D66857
:104B8000134632689142E5DC1A68002AF7D1E1E762
:104B900001231846704745F82400DFE745F8240054
:104BA000BDE700BF9CFD0620A4FD062000284DD0D7
:104BB0002DE9F041DFF89CE0254F9EF80060BC46EF
:104BC00001E028463DB384690568012CF9DCB44254
:104BD00001DB661CF6B257F824300BB933E01346FC
:104BE0005A68002AFBD1C268116802E01B68002BDA
:104BF000E7D0DA6812688A42F8DC10D05A68A2B1AD
:104C000010604260984214BF1A4600225860026049
:104C10002846002DD7D18EF80060BDE8F081828A49
:104C2000012A0CD05A68002AEAD147F82400E9E7A3
:104C3000D2F80C801346D8F800208A42DEDB1A68CE
:104C4000002AF5D1DAE74CF82400BAE7704700BF34
:104C5000A4FD06209CFD06200F4A816952F82130F0
:104C600098420AD042680AB103681360036803B12E
:104C70005A600023036043607047036842F82130A4
:104C80002BB100225A604268002AEED1F0E7426858
:104C9000002AEAD1EDE700BFA4FD062000207047FE
:104CA000012810DC094B53F8200068B1C3681B6869
:104CB000994204D109E0C3681B688B4204D00068A4
:104CC0000028F8D17047002070477047A4FD0620E7
:104CD00001280EDC084B53F8200058B1C3681B684C
:104CE0001BB908E0C3681B6823B100680028F9D12C
:104CF0007047002070477047A4FD0620F0B583B0D0
:104D0000F8B104460C2016460F46FEF7EFF80546AC
:104D100010B9284603B0F0BD03F0B0FF2846FEF7F7
:104D20007BFB0A4A034602A85C6040F8043D1F81F1
:104D30005E811A60FEF7D4FC07F0CEFB284603B074
:104D4000F0BD0546284603B0F0BD00BFB02E0808F0
:104D5000F0B5074683B00C200E461546FEF7C6F8A0
:104D6000044688B103F08AFF2046FEF755FB084A47
:104D7000034602A85F6040F8043D1E815D811A6011
:104D8000FEF7AEFC07F0A8FB204603B0F0BD00BF65
:104D90006438080800B970472DE9F04182B01E461A
:104DA00015460C460746FEF737FB02AB026843F890
:104DB000040D1846D2F80080FEF792FC33462A46CE
:104DC00021463846C04702B0BDE8F08100B97047BF
:104DD00030B583B00446FEF71FFB026802AB55688E
:104DE00043F8040D1846FEF77BFC2046A84703B0A5
:104DF00030BD00BF00B9704730B583B00446FEF740
:104E00000BFB026802AB956843F8040D1846FEF7E9
:104E100067FC2046A84703B030BD00BF2DE9F8432A
:104E200007462AF08FFFDFF86C9007442AF08AFFCC
:104E3000DFF864803E1A002E22DD00F0B9FFD9F8B9
:104E400000309E42A8BF1E4603F018FFD8F800406D
:104E5000FEF7DAFAB4B1254607F03EFB013DFBD17F
:104E600030462AF06BFF03F009FF013CFBD1FEF74F
:104E70002FFC07F031FB2AF065FF3E1A002EDCDC28
:104E8000BDE8F88330462AF059FFFEF721FC07F011
:104E900023FBF0E75C10022074FA062070B50D4683
:104EA0001446064603F0EAFE054B30461B685D8457
:104EB0009C84FCF7F1FABDE8704007F00DBB00BF21
:104EC0003410022038B54C1E0AD40546013C03F0CC
:104ED000D5FE2846FCF7E0FA07F0FEFA631CF5D190
:104EE00038BD00BF2DE9F04F4A4D83B0044603F0B2
:104EF000C5FE01F04DFE2B680646B3F9228001F095
:104F0000A7FE2B681FFA80F99A8CC9EB020212B235
:104F10009A84217800294FD0B6B22F4647F6FF7108
:104F2000204608F06BFD01468346204608F026FD2A
:104F300029688B8D03F00303012B5AD0022B5CD020
:104F40001FFA80FA4FF0000E4B8C0AF1FF3CB1F9CA
:104F50002420CEEB0303ADF80220013A9BB2B01837
:104F60006A460FFA83FE6344ADF806002046A1F8B6
:104F700022E05946ADF800E0ADF8043007F04EFDF0
:104F80002B682046BDF8022059469A8407F07AF92A
:104F9000235C04440A2B1BD00D2B19D0BDF8000054
:104FA0003B688244A3F822A022781AB162780134C7
:104FB000002AB3D1B3F92420998D914421F0030242
:104FC000A3F824909A8507F087FA03B0BDE8F08F24
:104FD0002B689A8D02F00302013A012A16D8A3F831
:104FE000228022780A2AE0D19A8C32449A8422784C
:104FF000DBE71FFA80FEF246A6E7002803461FFA09
:1050000080FAB8BF431CC3F34F0E9DE71A8C5A8435
:10501000E7E700BF3410022070B50E46154604467F
:1050200003F02CFE054B1B685E849D8414B1204662
:10503000FFF758FFBDE8704007F04EBA3410022069
:1050400020B3F0B50C4683B00546164603F016FEB5
:10505000D4B1204612F016FD074638B1024621466B
:10506000684608F053FD684612F00CFD32462146B2
:1050700047F6FF73284607F033FD384612F002FD6D
:1050800007F02AFA03B0F0BD2746EFE7704700BFEC
:1050900030B32DE9F0410C4682B005461F46164656
:1050A00003F0ECFDD4B1204612F0ECFC804638B1A0
:1050B00002462146684608F029FD684612F0E2FCE7
:1050C0003B4632462146284607F00AFD404612F08C
:1050D000D9FC07F001FA02B0BDE8F081A046EFE785
:1050E000704700BF08B100F001B870472DE9F04FDC
:1050F00089468BB01546044603921F4603F0BEFD59
:10510000B9F90030B9F904100193CE1AB9F9063093
:105110000291B9F902B00136059301F039FD15F09D
:105120000C0A049076D11FFA80FA484612F0AAFCC5
:1051300002460490A8B10199002506A82B4661F308
:105140000F0502996BF31F4561F30F03059906954F
:1051500061F31F434946079308F0D8FC06A812F0F4
:1051600091FC039B1FFA8BF503F003080AF1FF3350
:1051700003934346B0461E4615E0022E34D01EB9B6
:10518000B9F80030ADF820302046594608AA5544F9
:1051900007F044FC20463A46414608F0FBFE044432
:1051A000ADB2237873B33A464146204608F054FF27
:1051B000BDF80420039B8346ADF820202046EB1861
:1051C000BDF808205946ADF82250ADF82420ADF8BE
:1051D000263008F0D3FB012ECFD1B9F804300133CB
:1051E000181AADF82000CFE7B9F90010B9F904306A
:1051F0005B1A181A013048BF013001EB6000ADF8AE
:105200002000C1E7049812F03DFC07F065F90BB0EF
:10521000BDE8F08F254603F031FD3A463146284679
:105220004FF0000808F0B6FE48B105443A46314652
:1052300008F10108284608F0ADFE0028F5D107F076
:105240004BF9BAF1080F08D0BAF10C0F10D0BAF12F
:10525000040F02D0BDF810A067E7BDF810A0059BB1
:1052600018FB0AF85D1CC8EB05050FFA85FB5CE727
:10527000059B049ACBEB0303BDF810A0013308FB98
:105280001238B8F1000FB8BF08F101080BEB680540
:105290000FFA85FB49E700BF2DE9F04FDFF8F890E2
:1052A00089B0044690460F4603F0E8FCD9F8003078
:1052B00006A82588DA6C1E6D013D63881744B0444A
:1052C000013B7A19ADF818704344ADF81A80ADF877
:1052D0001C20ADF81E3012F081FF002851D0CB46C3
:1052E000DFF8B8A01BE040F0020006F0D1F8266914
:1052F0002EB3E0680122D4F808E0414663880392A7
:105300000292228801903846CDF800E03668B04716
:10531000284606F0BDF812F0F3FD002831D0E6680B
:10532000002006F0B5F8054616B13379002BDAD126
:1053300025F0020006F0ACF82669002ED9D1D9F884
:1053400000202146DAF80030527CE0689847E18876
:10535000E0B16388012622880590A0680291414649
:1053600004903846B4F804E00196CDF80CE00096BD
:105370000AF03EF9284606F08BF812F0C1FD00282D
:10538000CDD107F0A9F809B0BDE8F08F0129E0D12F
:10539000DBF80030986BDCE7341002202810022084
:1053A0002DE9F04F91B080461E460F46914603F01E
:1053B00065FC674B0EA81C68E56C246D05EB0803C3
:1053C00005EB0902E1193444029301920791089414
:1053D000ADF83830ADF83C20ADF83A10ADF83E40AD
:1053E00012F0FCFE002800F09780019B029A1A99A7
:1053F000C2EB030B9DF86820C1F307241B99BBF196
:10540000000F5B46C1F307271A99B8BF0BF10103E0
:105410000BFB02FEC1F307401B995B109DF86CC0AB
:10542000C1F307461A9903EB0E05090E0A950BFB0B
:1054300004353C1B03940BFB0034301A0BFB013387
:105440005E460B950D931B9B0C94C1EB136304906C
:105450000593C2EB0C03069301F078FB1A9B1B9A91
:10546000099093426AD0002E52D0029D019A954233
:105470005CDC0AAF86464FF0010B97E8800706E038
:105480000BF1010B0135019BA646AB422FDB7046A9
:105490009AFBF6F499FBF6F197FBF6F398FBF6FC12
:1054A0002206059C43EA0C23A24442EA0144049AE2
:1054B0001C43029B9144069AAB421744039A9044C2
:1054C000E0DA7445DCD00AF09DFFBBF1010FCBEBB5
:1054D0000500089B05F1FF32079922D00AF090FAE7
:1054E0000135019B4FF0010BA646AB42CFDA2046B7
:1054F0000AF088FFBBF1010F1AD0019A089BCBEB91
:105500000200079901300AF07BFA09980AF07AFF45
:1055100012F0F6FC00289FD106F0DEFF11B0BDE8C6
:10552000F08F1A46681E0AF043FAABE70AF06AFFEA
:10553000089A079901980AF03BFAE6E718460AF03C
:1055400061FF089B019A079902980AF059FADCE773
:10555000341002202DE9F04F97B0824698468946D4
:105560009346219D229C03F089FB5F4B14A81B6886
:105570001E6DDF6C06EB0901464407EB0A0307EBDF
:105580000B020F9109930A920296ADF85030ADF8D4
:105590005420ADF85210ADF8566012F01FFE0028EE
:1055A00000F09C80EBB20F99C5F307201A460B93CD
:1055B000029B04905B1A19460C93E3B20CBF4FF0A8
:1055C000010B8B46C5F307419B1A03910D932B0EDC
:1055D0000593C4F307231193C4F307431293230ED7
:1055E0001393209B03FB03F30E9301F0AFFA0F9B81
:1055F000029A109093426BDC1D46209B00279E1A56
:10560000049A119BB9462E44B8469B1A039A3C460D
:1056100000970893129B9B1A059A0793139B9B1A5A
:1056200006933B4641E001930E9B00FB103008F0CF
:1056300099FD209BC0EB030A019B039F01340136B7
:1056400093FBFBF299FBFBF198FBFBF03A44049FC0
:1056500039440B9F12043844079F090202F47F0269
:105660003B44C0B2009F01F47F410193089B01437A
:1056700099440D9B97FBFBF09844059B1844069BAF
:1056800042EA00601F44084300970AF0BBFE0A9BF1
:1056900029460135CAEB0302099B03EB0A000AF015
:1056A0002DF9029BAB42019B11DB20990C9AA14280
:1056B000A1EB0400A2EB0402B5DC9142B2463046F5
:1056C00002DD002EB9D0AEE74FF0000AB5E7109822
:1056D0000AF098FE12F014FC002886D106F0FCFEB9
:1056E00017B0BDE8F08F00BF341002202DE9F04F55
:1056F00091B080461E460F46914603F0BFFA674BB5
:105700000EA81C68E56C246D05EB080305EB090287
:10571000E11934440793089202910194ADF83830AE
:10572000ADF83C20ADF83A10ADF83E4012F056FD11
:10573000002800F09780019B029A1A99C2EB030B94
:105740009DF86820C1F307241B99BBF1000F5B464D
:10575000C1F307271A99B8BF0BF101030BFB02FE37
:10576000C1F307401B995B109DF86CC0C1F307465D
:105770001A9903EB0E05090E0A950BFB04353C1B29
:1057800003940BFB0034301A0BFB01335E460B9580
:105790000D931B9B0C94C1EB136304900593C2EB18
:1057A0000C03069301F0D2F91A9B1B9A09909342BD
:1057B00069D0002E52D0029D019A95425BDC0AAF5F
:1057C00086464FF0010B97E8800706E00BF1010BCE
:1057D0000135019BA646AB422FDB70469AFBF6F4DF
:1057E00099FBF6F197FBF6F398FBF6FC2206059C75
:1057F00043EA0C23A24442EA0144049A1C43029B5C
:105800009144069AAB421744039A9044E0DA7445F7
:10581000DCD00AF0F7FDBBF1010FCBEB050105F180
:10582000FF33089A079822D00AF0EAF80135019B65
:105830004FF0010BA646AB42CFDA20460AF0E2FD5C
:10584000BBF1010F19D0019B089ACBEB030107981C
:1058500001310AF0D5F809980AF0D4FD12F050FB96
:1058600000289FD106F038FE11B0BDE8F08F691E08
:105870000AF044F8ACE70AF0C5FD089A01990798C8
:105880000AF03CF8E7E718460AF0BCFD019B089ACD
:10589000029907980AF0B4F8DDE700BF341002203F
:1058A000F0B5144F83B006460D46144603F0E6F9F2
:1058B0003B686846196DDA6C0E441544144433B2E3
:1058C000ADF80050ADF80440ADF80230ADF8063048
:1058D00012F084FC50B13B682246314628465B6E8C
:1058E0001B68984712F00CFB0028F4D106F0F4FD79
:1058F00003B0F0BD3410022070B5134E82B00546DF
:105900000C4603F0BBF933686846DA6C1B6D15442E
:105910001C442AB223B2ADF80420ADF80020ADF843
:105920000630ADF8023012F059FC48B13368214618
:1059300028465B6E5B68984712F0E2FA0028F5D1C2
:1059400006F0CAFD02B070BD341002202DE9F04708
:1059500082B0044689469246984603F08FF91E4B62
:1059600068461F683E7EFD6C013E3F6D2C445544E9
:10597000B2B2B944B844A61A5119C2EB0903424461
:10598000ADF80060ADF80410ADF80230ADF80620B7
:1059900012F024FCD8B109F1010708F1FF362A46BC
:1059A0004946204609F0AAFF2A464146204609F00A
:1059B000A5FF32463946204609F0FAFF32463946FD
:1059C000284609F0F5FF12F09BFA0028E7D106F00F
:1059D00083FD02B0BDE8F087341002202DE9F04FBE
:1059E00095B01F9C012C00F0CF8007460D4616464F
:1059F000984603F043F9684B12A81B68DA6C1B6DDC
:105A0000B918B2181D4443440C910D9208950E9399
:105A1000ADF84810ADF84C20ADF84A50ADF84E3016
:105A200012F0DCFB002800F0AA800C980D9B1F9D53
:105A30001B1A1E980899401B01330E9C05461F9E99
:105A40000F93621A2B4607900846711803FB05F363
:105A5000013209934B1E0A9210931E9B1E9A5B0003
:105A600000EB020A0B931E9B03FB03F30693A31B9D
:105A700011931F9B002B7DDD0A9B0B9A1946134641
:105A8000914277DB0F9A934274DC089B534546DAC8
:105A90000C9A1F461E9B13441E9A039316460D9B99
:105AA0009B1A04930E9B9B1A059325E0039B394692
:105AB000C5EB030B049B0BEB04091D44059B5846E7
:105AC00009F1FF392C1B03EB0608013E4A4601345D
:105AD00009F014FF4A465846414609F00FFF39467F
