:020000040800F2
:10000000B0E20620D10200089D5102086D3A0208B4
:1000100059510208F9D30108E79B020800000000CB
:100020000000000000000000000000000D020008B9
:100030009DDF010800000000690200084B6702080C
:10004000EB020008EB020008EB020008EB020008DC
:10005000EB020008EB020008EB020008EB020008CC
:10006000EB020008EB020008EB020008EB020008BC
:10007000EB020008EB020008EB020008EB020008AC
:10008000EB020008EB020008EB020008EB0200089C
:10009000EB020008EB020008EB020008EB0200088C
:1000A000EB020008EB020008EB020008EB0200087C
:1000B000EB020008B9680208EB020008EB02000836
:1000C000EB020008EB020008EB020008EB0200085C
:1000D000EB02000891700208EB020008EB02000836
:1000E000EB020008EB020008EB020008EB0200083C
:1000F000EB020008EB020008EB020008EB0200082C
:10010000EB02000881570208EB020008EB0200082E
:10011000EB020008EB020008EB020008EB0200080B
:10012000EB020008EB02000801DE010811DE010805
:10013000EB020008EB020008EB020008EB020008EB
:10014000EB020008EB020008EB020008A1510208D4
:10015000EB02000821DE010831DE0108EB02000895
:10016000EB020008EB020008EB020008EB020008BB
:10017000EB020008EB020008EB02000800000000A0
:10018000EB020008EB020008EB020008EB0200089B
:10019000EB020008EB020008EB020008EB0200088B
:1001A000A9450208EB020008EB020008EB02000878
:1001B000EB020008EB020008EB020008EB0200086B
:1001C000EB020008EB02000800000000EB02000850
:1001D000EB020008EB020008EB020008EB0200084B
:1001E000EB020008EB020008EB020008EB0200083B
:1001F000EB020008EB020008DFF80CD000F0B8FAC0
:100200000048004791200308B0E206202D4B1968F2
:100210000868B0E8F04F80F30988BFF36F8F4FF0A4
:10022000000080F311887047000000000848006853
:10023000006880F308884FF0000080F3148862B6ED
:1002400061B6BFF34F8FBFF36F8F00DF00BF00BFFA
:1002500008ED00E0DFF80C00016841F47001016076
:10026000704700BF88ED00E0EFF30980BFF36F8FA8
:10027000144B1A681EF0100F08BF20ED108A20E9F9
:10028000F04F106009B44FF0500072B680F311883F
:10029000BFF34F8FBFF36F8F62B63FF0D9FE4FF0C1
:1002A000000080F3118809BC19680868B0E8F04FB5
:1002B0001EF0100F08BFB0EC108A80F30988BFF35E
:1002C0006F8F7047B4000220EFF305807047000085
:1002D0000648804706480047FEE7FEE7FEE7FEE7E0
:1002E000FEE7FEE7FEE7FEE7FEE7FEE755680208E9
:1002F000F90100082DE9F05F0546002092469B4673
:1003000088460646814640241BE02846414647462B
:10031000224600F0D6F853465A46C01A914110D3EF
:1003200011461846224600F0BDF82D1A67EB010869
:100330004F4622460120002100F0B4F817EB0009D7
:100340004E41201EA4F10104DFDC484631462A4616
:100350004346BDE8F09F10B5441A0346944209D2C3
:100360008418114403E011F8013D04F8013D521EC8
:10037000F9D210BD40EA0104A40703D009E010C976
:10038000121F10C3042AFAD203E011F8014B03F83C
:10039000014B521EF9D210BDD2B201E000F8012B80
:1003A000491EFBD270470022F6E710B513460A46F5
:1003B00004461946FFF7F0FF204610BD421E12F812
:1003C000013F002BFBD111F8013B02F8013B002B50
:1003D000F9D1704730B505462A460B4612F8010B95
:1003E00013F8014B08B1A042F8D01CB1002802D08C
:1003F0006D1CF1E7284630BD10B5044604E00B78CB
:1004000000F8013B03B1491C521EF8D2204610BD32
:10041000421C10F8011B0029FBD1801A704710B54F
:10042000002200E0521C835C8C5CA34201D1002BB3
:10043000F8D1D8B2E1B2401A10BD30B50446002060
:10044000034600E05B1C934203D2E05CCD5C401BA2
:10045000F8D030BD034611F8012B00F8012B002A1B
:10046000F9D118467047A0E8004FF0C040F804DB0F
:1004700001B5AFF30080BDE8024001C10020704724
:1004800000F12C080C4658F8040DAFF3008058F822
:10049000040D8546200008BF012038E9F00018E966
:1004A000004F7047202A04DB203A00FA02F10020B6
:1004B00070479140C2F1200320FA03F319439040A2
:1004C0007047202A04DB203A21FA02F0002170470D
:1004D00021FA02F3D040C2F12002914008431946AC
:1004E000704700000FB4002300B589B00CA900913B
:1004F0000B996FF00042CB601E4B06931E4B079387
:100500000423CDE901321D4A089202466B460020C1
:1005100000F0DAF909B05DF814FB70B586B0064654
:100520004FF0FF300091CDE90101002015460C4647
:1005300004903246694604A8FFF7D4FF02460498A7
:10054000211825B108B1084600E02046286004982B
:1005500000280DD0002A02DD0098884208D0081B30
:100560000094CDE901043246694604A8FFF7BAFFBA
:1005700006B070BD010B00081F0B000895070008AE
:100580002DE9FE4F81EA030404F0004421F000410C
:1005900000944FF0000B23F0004350EA01045ED0BA
:1005A00052EA03045BD0C3F30A54C1F30A552C4446
:1005B000A4F2F3340194A0FB0254C1F3130141F4FB
:1005C0008011C3F3130343F4801301FB024400FBC7
:1005D000034E840A970A44EA815447EA8357A4FBEE
:1005E000076802958D0A05FB07854FEA932C04FBEB
:1005F0000C542705029D4FEA065847EA1637B5EB1B
:1006000008056EEB070C870E920E47EA811742EA47
:100610008312A7FB0201B6EB0B0164EB00042B0D68
:1006200043EA0C335E1844EB1C50DA465146E7FBB4
:100630000201C5F313044FEA0B3343EA14534FEAA4
:100640000432019C43EA0603A4F10C040294009CCA
:10065000CDE900B400F083FA03B0BDE8F08F0020CC
:100660000146F9E72DE9F04D81EA030404F0004B5F
:1006700021F0004514464FF0000A23F0004150EAF3
:10068000050220D054EA01021DD0C5F30A570246E4
:10069000C5F31303C1F31300C1F30A5640F48015E8
:1006A00043F48013A7EB0608101BD64608F2FD386A
:1006B00073EB050002D308F1010801E092185B41D9
:1006C000B8F1000F03DA00200146BDE8F08D0020EC
:1006D0004FF48011064684460EE0171B73EB0507A6
:1006E00005D3121B63EB050306434CEA010C4908D2
:1006F0004FEA300092185B4150EA0107EDD152EA0F
:10070000030012D082EA040083EA0501084305D001
:10071000101BAB4106D20122002306E000224FF05D
:10072000004302E06FF0010253101AEB06004CEB9D
:10073000085110EB0A0041EB0B01BDE8F04D00F051
:10074000FFB970B521F0004303430CD0C1F30A5543
:100750000024D5EB040564EB0403D617AD1AB341AE
:1007600002DB0020014670BD201841EB025170BD34
:10077000064C074D06E0E06840F0010394E80700EE
:1007800098471034AC42F6D3FFF73AFD04F106085F
:1007900024F10608C0B24FF4F05100F02FBA000067
:1007A0002DE9FF4F087883B09946FF2805D0491CF2
:1007B0002D2804D00024002008E000200BE00124B4
:1007C000F9E700EB800003EB4000491C0B78FF2B9E
:1007D000F7D104B1404200230293147819461D4614
:1007E0002D2C01D02B2C04D1521C2D2C13D00024E5
:1007F0000294AA461478FF2C0FD00A25A3FB057893
:1008000001FB05814FF0000C03FB0C11521CE31996
:100810004AEB0101EEE70124EAE7814453EA0100D3
:1008200002D019F5C87F06DA03980021C0E900114B
:1008300007B0BDE8F08F0025AE4E2F46DFF8B88236
:10084000184600F0EFF9CDE90001B9F1000002DA35
:10085000C9F1000400E004460023A74A1AEB030B89
:1008600042EB045A12E0E00707D02A4633463846E6
:100870004146FFF785FE074688462A46334610461E
:100880001946FFF77DFE05460E466410002CEAD19E
:10089000DDE90001B9F1000F5A46534606DAFFF7C9
:1008A000E1FE3A464346FFF7DDFE05E0FFF768FE4E
:1008B0003A464346FFF764FE029A0AB181F00041CE
:1008C000039AC2E90001B3E72DE9FF4F1F468DB03F
:1008D000D7E901464FF0FF382E2045464FF000097A
:1008E0000B90B9696D1C0E988847396A8246884713
:1008F0000028F6D1BAF1FF3F0AD024F4D064002ECC
:1009000011DDBAF12B0F08D0BAF12D0F0BD102E097
:10091000404611B08DE744F48064B9696D1C0E98AF
:1009200088478246761E6946600501D52D2000E085
:100930002B208DF8000001F1010B0DF1200809E0DA
:10094000B9696D1C0E98884782460F9844F400746C
:10095000761E0560002E02DDBAF1300FF0D00B9943
:100960008A453ED144F0800406E00F99681CA9F145
:10097000010944F400740860B9696D1C761E0E9874
:10098000884782463028F0D02BE00B998A4505D164
:10099000200603D444F08004761E18E050462AF066
:1009A000BCFF08B30DF11301761E44F400748B45AF
:1009B00008D2AAF130000BF8010B200607D5A9F1E7
:1009C000010003E0200602D409F101008146A005E0
:1009D00002D50F99681C0860B9696D1C0E9888478C
:1009E0008246002ED1DC53E0002E51DDBAF1650FB6
:1009F00002D0BAF1450F4BD1A00549D5B9696D1C9C
:100A000024F44074761E0E9888478246002E0CDD32
:100A10002B2804D0BAF12D0F07D144F48074B969A2
:100A20006D1C0E9888478246761EE00501D52D2163
:100A300000E02B2108F8011BCDF82C8021E00DF1FE
:100A40002901761E44F4007488450CD2AAF13000C6
:100A500010F0FF0088F8000002D10B99884509D9F1
:100A600008F1010806E0E00501D5244801E042F262
:100A70000F708146B9696D1C0E98884782460F98A1
:100A80000560002E04DD50462AF047FF0028D6D12D
:100A9000F9690E988847FF208BF8000088F800005D
:100AA0000020069007904B466A4608A906A8FFF763
:100AB00077FEA00502D46FF001002AE714F0240F9E
:100AC0000AD0E00714D1DDE906123868031D3B6047
:100AD0000068C0E900120BE0DDE9060100F0AEF8A5
:100AE0000146E00704D13868021D3A6000680160E1
:100AF00028460EE7000014400000F03FF1D8FFFF49
:100B0000426842B1016811F8013B23B1521EC0E9AD
:100B10000012184670470121C160881E7047426864
:100B20005AB1C368016843B983688B4205D0491E36
:100B3000521CC0E90012002070474FF0FF30704790
:100B400010B5141E73F1000408DA401C41F10001D5
:100B500092185B411A4301D120F0010010BD2DE92C
:100B6000F04D92469B4611B1B1FA81F202E0B0FA23
:100B700080F220329046FFF795FC04460F4640EA8B
:100B80000A0041EA0B0153465A46084313D0114666
:100B900053EA010019D0C8F140025046FFF791FC1A
:100BA00005460E46504659464246FFF77BFC084331
:100BB00005D0012004E020463946BDE8F08D002034
:100BC000054346EAE0762C4337430A986305E40A76
:100BD000A0EB08000022FD0A44EA47540A3002D57F
:100BE00000200146E9E7010510196941DDE90845E2
:100BF00000196941BDE8F04DA2E700007F2801D946
:100C0000002208E0064A02EB5002C007127800D129
:100C1000120902F00F0201209040084070470000C6
:100C2000F88806080EB540F2334202920022CDE960
:100C300000221346FFF793FF03B000BD01F000430D
:100C400030B421F0004150EA010206D00A0DA2F5AD
:100C50006072C1F31301002A02DC30BC002070472F
:100C6000440F44EAC104C100E01830BC00EBC2509C
:100C7000AFF300800029A8BF7047401C490008BF9F
:100C800020F00100704710B4B0FA80FC00FA0CF0BC
:100C900050EA010404BF10BC704749B1CCF12004F4
:100CA00021FA04F411FA0CF118BF01212143084381
:100CB000A3EB0C01CB1D4FEA00614FEA102042BFAD
:100CC000002010BC704700EBC35010440029A4BFA3
:100CD00010BC7047401C490008BF20F0010010BC48
:100CE000704770B58C1810F8015B15F0070301D13F
:100CF00010F8013B2A1106D110F8012B03E010F87F
:100D0000016B01F8016B5B1EF9D12B0705D40023A1
:100D1000521E0DD401F8013BFAE710F8013BCB1A43
:100D2000921C03E013F8015B01F8015B521EF9D538
:100D3000A142D8D3002070BD37B5446805460146AE
:100D400020460DF09DF800285CD02B680F2B16D0A4
:100D500004DC0B2B22D00E2B32D050E0282B47D0B6
:100D6000B3F5107F05D0112B49D1274B1B6813B960
:100D700048E0264B1B6829462046984742E020461B
:100D800001F0D4FC02AB43F8040D426E184615681E
:100D900001F032FDB5B32046A84733E0204602AC4F
:100DA00001F0C4FC0190683001F026FC54F8040DF9
:100DB00003216C3001F028FC204601F01DFD1EE0EF
:100DC000EA680CCA0D2A02D0202A06D010E0002BB7
:100DD0000EDD20461AF029F905E0002B03DD204640
:100DE0001AF023F90EE0022120461AF036F909E044
:100DF000EB6823B94FF4807120460DF025F82846A2
:100E00000DF01CFC03B030BD6C9F062020030220B7
:100E10001FB5079C039400240294089C0194069C2F
:100E2000009400F002F804B010BD10B5002486B0A4
:100E300004940B9C03940A9C0294099C0194089CC2
:100E4000009400F025F806B010BDF0B5B0F90C50D4
:100E5000044687B0B0F910701D44A369B0F90E6064
:100E6000B0F90A000493B4F90830104432460393F1
:100E7000638A029300238DE80A003B46294600F06E
:100E800007F80546616800F08FF9284607B0F0BD05
:100E90002DE9F04186B0109C4C340394164C02941A
:100EA0000D9C01940C9C00940DF00EFB8046F8B153
:100EB000124E06AF01F03AFC10220F99351D059035
:100EC0000DF01CF957F804ED0FCD0EF134040FC4EA
:100ED0000FCD0FC495E80F0084E80F00736B384600
:100EE000CEF8643001F088FC736B40465B6898472D
:100EF000404606B0BDE8F081390D0008200302200D
:100F00008C4B82682DE9F04153F8225088B0436839
:100F10000446052B0ED006DC002B40F0078100684C
:100F20000EF06CFB02E1062B00F08980122B00F022
:100F3000AA80FBE0EE69002E51D0AB68103003931D
:100F40006B6802932B680096002601930FC808F087
:100F50008BF855F8260006F06BFCEB69A269216955
:100F60006069D21A1944304402F07CFFEB69A2692F
:100F70002169E069D21A1944801B02F073FFEB6902
:100F8000E26961692069D21A1944304402F0F2FF23
:100F9000A069EB69E269801B61690136D21A1944C4
:100FA00002F0E8FF022ED4D1A86806F041FCE969FE
:100FB000206966694218E36902305B1A013A3144DC
:100FC00003F032F8E969A2696669501AE369023AE6
:100FD0005B1A0130314403F027F8EE690FE055F851
:100FE000260006F025FC04F110000FC89B1B921B85
:100FF00031443044013602F07BFF022EEFD16169AB
:10100000E3692F69A2690B44206902310197921BA1
:10101000EF6830445B10009702F0F2FE04F1140117
:101020002069AC6930440EC9194401946C69023BD3
:101030004910921B0094013102F0E2FE76E0006854
:1010400001F074FB049020680EF0E8FE049B30B1C0
:10105000A26852B91A6F003218BF012206E05A6F17
:10106000002A0CBF0022022200E0002203EB8203D0
:1010700004A8DD6E01F0C0FB0023216828461A4653
:1010800002F0B2FC52E0006808AE01F04FFBD0F86D
:10109000688046F8100DB8F1000F44D0A368B0F98D
:1010A0005C7023B1032B0CBF0223002300E001235B
:1010B00000EB8303406D1C6C06F0CEFB204608ACB1
:1010C00006F0B6FB06A803F0D5FBA98BBDF81C30D3
:1010D00006A8BDF818205B1A0A44ADF81C30BDF80C
:1010E0001A30ADF818200233ADF81A30BDF81E30B2
:1010F000023BADF81E30049BB3F96020B3F95E10DB
:1011000005F0D9FE304601F077FB022006F0D4FC52
:10111000404601F00BFB3A4606A944F80C0D02F0DC
:101120004DFD204600E0304601F066FB002008B08F
:10113000BDE8F08130E8060838B504460D46104693
:101140001946049A02F016FC294602462046BDE8DC
:10115000384000F052B837B50D46044658B101F09A
:10116000E5FA02AB456543F8040D184601F044FB6F
:1011700020460DF077FF03B030BD002307B5009384
:1011800000F003F803B05DF804FB38B504460D46E3
:1011900010461946049A02F00BFC294602462046E6
:1011A000BDE8384000F029B873B50C46054600B3D9
:1011B00001F0BCFA866E00906846019601F01CFBB7
:1011C000214601A808F0ACFB00280CBF0124002434
:1011D00010D0019B9E4208D0284601F0A7FA019B3F
:1011E00000908366684601F007FB28460DF03AFF41
:1011F00000E00124204602B070BD73B50C461646CF
:10120000054698B101F092FA022C01900BD81A34DD
:10121000A4002044043001F0EFF9019928460C4461
:1012200066600DF01FFF01A801F0E6FA02B070BD84
:101230002DE9F04389468BB015469846044650B3D5
:1012400000F027FC0646204600F00EFC05A90746E4
:10125000204600F060FD19F0010F06D0BDF92420F2
:10126000701E101A8222401B09E019F0020FBDF90E
:10127000200018BF40F20222284408BF0222029236
:101280003946334632468DE81001FFF7C1FD002193
:1012900004460CF0B6FE20460BB0BDE8F08300001B
:1012A00010B50523FFF7C4FF0446054A0021FFF7E8
:1012B00064FF044920460EF07DF8204610BD00BFB3
:1012C0009922010831D2010810B50723FFF7B0FFBA
:1012D0000446054A0021FFF750FF044920460EF05E
:1012E00069F8204610BD00BFC923010847D2010894
:1012F00010B50823FFF79CFF0446054A0021FFF7BD
:101300003CFF044920460EF055F8204610BD00BFB2
:101310001126010881D201082DE9F047446886B002
:101320000546204601F002FAC76D0090D0F888A06B
:10133000D0F88060D0F86880B0F87C9007B13F6842
:10134000684601F059FABAF1000F09D0DAF8043012
:1013500028469847002840F01A81DAF800A0F2E702
:101360002B68172B00F0898018DC0F2B43D006DC8C
:101370000B2B00F0FA800D2B00F0BD80FFE0112B4D
:101380001BD0142B40F0FB8001A9204600F0C3FCC9
:1013900002ABEA6803CB10605160F8E0262B6FD0F7
:1013A00005DC1E2B7AD0202B00F0B380E7E02A2B3F
:1013B00013D0B3F5107F24D0E1E0EE68204601F0B1
:1013C000B5F901903389012B02BFB0F87C3043F4AA
:1013D0008073A0F87C3001A8CFE0204601F0A6F988
:1013E000EB68009013B1C0F8843002E0D0F884308C
:1013F000EB6068463EE0002F00F0C1802046B84711
:10140000BDE006AF2046D5F80C8001F08FF947F813
:10141000140DB0F87C60384601F0EEF9EB68002B53
:1014200000F0B58098F80830CBB1330702D42046DD
:101430000EF050F820460CF0B7FF06F48873B3F5B1
:10144000887F40F0A48006F080039BB2002B40F020
:101450009E800522414620460DF0DCFF97E02046A5
:1014600001F064F9B0F87C30019023F48073A0F8A7
:101470007C30384601F0C0F989E0C5F80C8086E080
:10148000EB68022B40F08380049306A92723A86809
:10149000039441F8143D0EF0E7FE78E0EF68012F69
:1014A00024D130460DF03EFE58B130460EF012F811
:1014B00030460DF0FFFC88B1394630460CF07FFD18
:1014C0000CE040460EF054F80646204601F02EF996
:1014D0000090C0F88060684601F08EF90121204636
:1014E00000F09CFB002E52D1EE6050E051462046A9
:1014F00000F094FB4BE019F0080F40D1EB68DB687B
:10150000002B3CD01B7A002B39D020460DF0E2FF97
:1015100035E0EE689EB3214670680EF065FC80B140
:10152000012120461AF0DCFD214670680EF04BFCCC
:1015300028B3204601F0FAF806AB726843F8140DA0
:101540000FE0514620461AF0CBFD214630680EF0E0
:101550003AFCA0B1204601F0E9F806AB326843F846
:10156000140DC0F88020184607E0204601F0DEF890
:101570000090703001F040F8684601F03DF92946CE
:1015800020460CF07DFC10B128460DF057F806B04F
:10159000BDE8F087F0B5B0F90C50044689B0B0F959
:1015A00010701D44A369B0F90E60B0F90A000693EB
:1015B0000E9B10443246059363680493B4F90830D7
:1015C0000393638A029300238DE80A003B46294671
:1015D00000F002F809B0F0BD2DE9F0478AB0189C80
:1015E000DDF84C9060340394354C029449F48054F7
:1015F0000194129C00940CF067FF064600285BD013
:101600000DF12808DFF8C0A001F090F830221599FC
:10161000554604900CF072FD58F8187D0FCD07F177
:1016200034040FC40FCD0FC495E80300179B84E862
:1016300003007B660024149B4046C7F88040A7F84F
:101640007C30DAF82830FC66FB65C7F8884001F08A
:10165000D3F805A9304600F05EFBBDF91A10BDF9BC
:101660001800BDF91E30BDF91C2003945B1A154CFF
:10167000121A01330096029441F2827401320194ED
:101680000CF022FFDAF82830044630465B689847B1
:10169000304601F04BF804908466404601F0ACF807
:1016A00042F2040309EA030313B930460DF08AF845
:1016B0001699304600F0E8FA30460AB0BDE8F087E7
:1016C000191300084B200008580302202DE9F041AF
:1016D000044690B0006800F0B5F9A54B666803F1C8
:1016E0002C05002818BF1D461C2E00F2A281DFE841
:1016F00016F08D01A001A001A001A0012701A00109
:10170000A001A001A001A0012700A001A0017A0171
:10171000A001A001A0014101A001A00123001D0022
:101720001F002100A001A001A0012500EE6985E1B4
:101730002E6A83E16E6A81E1AE6A7FE16E697DE1C6
:101740001C2320680893079000F0F0FF036D0590BC
:1017500007A89847064605A801F04EF8012E11DDAE
:10176000AB6802936B6801932B6800933346626900
:10177000A169206907F0C4FB2769A3693744C6EB58
:1017800003082CE0286806F053F82169EA696069CB
:101790000A44013A02F066FBA269E9696069511ADC
:1017A000013102F05FFB676920690137394602F0B9
:1017B0007DFB3946A06902F079FB686806F038F8CD
:1017C00020693946013002F071FBA06939460138C1
:1017D00002F06CFB2769A3690237A3F102082868AD
:1017E00006F026F842463946606902F03BFB68681D
:1017F00006F01EF8606942463946013002F032FBBD
:101800006B6A022B0ADDA86806F012F861696B6A40
:10181000424638460B440231013B1CE02A6A96429C
:101820001BDA6769012E236907F1020840F303817F
:101830003744F0181A4441463B46013A02F0F4FBA3
:10184000A369E869012E4146A3EB0000CCBF9A1BB7
:101850009A1E3B46013002F0E7FB012E6369E769FF
:10186000CCBFF6189E1C013F286805F0E1FF314609
:101870003A46206902F07EFB3A463146A06902F002
:1018800079FBE769686805F0D3FF023F20693146BC
:101890003A46013002F06EFBA0693A463146013803
:1018A00002F068FBEB69022B02DC2B6A022B1FDDC6
:1018B000AB6AE769022BA868CCBFFF1A023F05F0AC
:1018C000B7FFEA69022A07DD20693B463146024438
:1018D0000230013A02F0A8FB2B6A022B08DDA26954
:1018E0003B46E8693146101A023A013002F09CFB8F
:1018F000286805F09DFFA2692169E06902F0B2FA4B
:10190000686805F095FFA2692169E069013A013133
:10191000013802F0A7FAAE6A022E40F38A80A2696B
:101920002769E469A2F10208A868023705F080FF80
:10193000A11BA31E42460131384602F075FB78E038
:10194000B4F91000B4F91410B4F91820B4F91C302B
:101950002C69ADF81C000194EC68ADF81E100094E1
:10196000ADF82020ADF8223002F04AFA61E000BF65
:101970003C0502206369298BADF81E30A3692269FA
:101980005B1A20680A44ADF82030E369ADF81C20EA
:10199000ADF8223000F0CAFE036F0590FBB10220C3
:1019A00006F08AF8059AB2F87C30C3F3C0030E3310
:1019B00002EB8303986805F03BFF059B586B05F02D
:1019C0004BFF059B186F00F0B1FE059B07A9069021
:1019D000B3F95A2002F0F2F806A800F00DFF05A8AE
:1019E00000F00AFF25E02369A868ADF81C306369A0
:1019F000ADF81E30A369ADF82030E369ADF82230B0
:101A000005F016FF07A802F031FB12E0206800F095
:101A10008DFEB0F85A2010AB42F00C0243F82C0DAA
:101A2000A0F85A20184600F0E7FE20680DF0E6FD09
:101A300004E0002602E0981C4746FBE6304610B062
:101A4000BDE8F08113B5044658B100F06FFE02AB5B
:101A5000B0F87C4043F8040D1846C4F3C00400F00D
:101A6000CBFE204602B010BD37B5044670B100F081
:101A70005DFEC36D02AD00219B6845F8040D204654
:101A80001B6898470446284600F0B6FE204603B07F
:101A900030BD10B5044686B080B101A900F03BF915
:101AA000204600F043FE06ABB0F9544043F8180D51
:101AB000184600F0A1FE0CB9BDF90440204606B05E
:101AC00010BD2DE9F743054600284DD002AC00F0CB
:101AD0002DFE009028461AF082FA54F8083DB3F81B
:101AE0007C2012063DD4986900F020FE83690190A5
:101AF000B0F90080B0F9029023B1B0F90460B0F9F8
:101B0000067005E009F054FB06B209F065FB07B268
:101B100001A800F071FE009B93E8030003F174023A
:101B200082E80300B3F87C200721D86942F08002E4
:101B3000A3F87C2018F094FD204600F05DFE4A4694
:101B4000414628460DF02BFBC9EB0702C8EB060106
:101B50002846013201310DF089FD284600F03EFA99
:101B600002E0204600F048FE03B0BDE8F0832DE916
:101B7000F3418046002843D002AF00F0D7FD01902A
:101B800040461AF0F9F957F8040DB0F87C4004F01B
:101B90004004A4B28CBBB0F90630B0F902505D1B12
:101BA00000F02FF9019B0135DA6A166803F174021F
:101BB00000EB4600861C93E8030082E80300986E61
:101BC0000DF086F9019BD86E0DF082F9019B08217A
:101BD000B3F87C20D86942F04002A3F87C2018F0CA
:101BE0003FFD384600F008FE4046721B21460DF0CE
:101BF0000BFB404600F0F2F902E0384600F0FCFD35
:101C000002B0BDE8F08110B5044630B11AF0E7F932
:101C10002046BDE810401AF0AFB910BD08B11AF067
:101C20005FBA70472DE9FF410F46044648B300F004
:101C30007DFDC36D03909D6800F0E3F8064604A89F
:101C400050F8043D5F6300F0D7FD2B68012120466A
:101C500098472B6807460321204698472B680021A8
:101C60008046204698470546204600F0B7F92046B2
:101C7000009543463A46314600F03BF920460DF0C8
:101C8000F1F904B0BDE8F08137B50D460446C0B1A6
:101C900000F04CFD036F00906846019300F0ACFD2E
:101CA000294601A807F03CFE58B1204600F03EFD51
:101CB000019B00900367684600F09EFD20460DF0F2
:101CC000D1F903B030BD37B50C46054670B100F010
:101CD0002DFDB0F95A300190A34204D0A0F85A402B
:101CE00028460DF0BFF901A800F086FD03B030BD15
:101CF00037B50C46054660B100F018FD02AB046430
:101D000043F8040D4464184600F076FD28460DF0B3
:101D1000A9F903B030BD2DE9F04F87B006468946DA
:101D200000F004FDC26D01210390304694682268E2
:101D3000904722680321804630469047226802215E
:101D400083463046904722680021824630469047BD
:101D5000009003980DF0D4FE054603980DF0D7FED1
:101D600007460398448E04F02004A4B20CB1B0F9E5
:101D7000584000F046F803990246C86E18B1019227
:101D80000CF0B9FE019AA9F8002092B2BDF800103B
:101D9000013D1444013FA9F80E10CBEB050B0C4498
:101DA0000139A9F802000FFA88F811440FFA8BFBE9
:101DB0002044CAEB070AA9F81210A9F8060003A8E4
:101DC000A9F80480A9F808B0A9F80AA0A9F80C801D
:101DD000A9F810B000F010FDB9F90C20B9F91010F5
:101DE0003046049206AA42F8041D04A900F03CF80B
:101DF000049AA9F80C20059AA9F8102007B0BDE8AC
:101E0000F08F08B5438E024603F020039BB23BB12E
:101E1000B0F9540028B9506B02F0ACFD023008BD97
:101E2000184608BD70B58AB006460C4600F07EFC28
:101E30000AABC26D43F8280D1846956800F0DCFC2B
:101E40000196032C0BD8DFE804F0020406081823DF
:101E500004E0162302E0152300E0172302936B68C9
:101E600001A898470AB070BD2DE9F74381460D4699
:101E7000164600F05BFC034602A8DA6D40F8083D08
:101E80009768B3F90040B3F9028000F0B5FC3B68F5
:101E9000002148469847074648460CF038FD8146E1
:101EA00020B3484600F042FCB0F902300190C8EB84
:101EB00003039F4213D1836A1B0608D5B0F9003093
:101EC00032681B1B93420ADC013B336007E0B0F928
:101ED00004302A681B1B9342A4BF01332B6001A866
:101EE00000F08AFC48460CF0A5FDD8E703B0BDE839
:101EF000F0832DE9F04F85B093460C4605469A468F
:101F000000F014FCC36D04AF9E6847F8080DFFF79E
:101F100078FF8146384600F06FFC3368012128467F
:101F20009847336803210746284698473368804618
:101F3000002128469847A145034606D15F4504D1B4
:101F4000D04502D10E9A904245D0284601930026F2
:101F50000CF0DDFC019BC4EB09040E9A0546B1466A
:101F6000CBEB07079B1AC8EB0A0801939DB32846E1
:101F700000F0DCFB836A039003F42073802B02D013
:101F8000B3F5007F1FD124B12246214628460DF02B
:101F90003BF9039B9B6A1A0608D509F1010A04FB69
:101FA0001981019A2846D1460DF0FBF8039B9B6AE4
:101FB0009B0508D506F1010A04FB0671019A284623
:101FC00056460DF0EEF803A800F016FC28460CF07B
:101FD00031FD0546CAE705B0BDE8F08F70B586B0A3
:101FE000064600F0A3FB846E06ABC56E43F8180DE1
:101FF000184600F001FC04B92DB301A93046FFF7E3
:102000008AFEACB1BDF90A202046BDF908100DF0DA
:102010009BF8BDF90E30BDF90A202046BDF9081025
:102020009A1ABDF90C30591A013201310DF01EFB1C
:102030004DB1BDF90A202846BDF90630BDF908109A
:10204000D21A0DF081F806B070BD2DE9F043456855
:1020500087B0044628460CF0F5FC814600F066FB8C
:10206000034606A85F6E40F8143D9E6CD3F880804E
:1020700000F0C2FB2368172B52D009DC0F2B14D0C1
:1020800002DC0E2B33D045E0143B012B48D941E054
:102090001F2B27D002DC1E2B19D03BE0222B37D080
:1020A000312B37D10023E3603DE06FF070439E4257
:1020B00004D0304609F0C6FA01F0EEFA9FB302AE42
:1020C00094E80F0086E80F000395304626E0E368A9
:1020D0004BB3B8F1000F17D0454515D040460DF071
:1020E000F9F920E0214648460BF0CAFE1BE0E36800
:1020F0005A68002A0EDD1B68092B05D00A2B09D16E
:1021000028460DF05FFA0EE028460DF031FA0AE09D
:10211000E66008E027B12046C4F80490B84702E022
:1021200020460CF08BFA07B0BDE8F0832DE9F041B2
:10213000D0F80C8086B0044600200E46174605F005
:1021400089FB0546B8F1000F05D098F8043013B1AB
:1021500040F0020001E025F0020005F07BFB216960
:1021600069B101206388228803900290E0680190A1
:10217000A068009030460C683946A0471FE0DFF8A1
:1021800050802146114BD8F800201B68527CE06833
:102190009847E18820B9012904BFD8F80030986B2E
:1021A000638822880590A0680490A088029101218C
:1021B0000390304601910091394608F071FD2846A0
:1021C00006B0BDE8F04105F045BB00BFE8020220C3
:1021D000F402022008B50E4B186809F033FA0D4BD3
:1021E000186809F067FA012005F054FC002005F09A
:1021F00059FC002005F060FC002005F02BFB064B8D
:10220000186805F029FB0020BDE8084005F052BB26
:10221000009D0620F0020220EC020220014B83E820
:1022200003007047709C0620014B83E80300704751
:10223000789C0620014B83E803007047809C0620B1
:10224000014B83E803007047909C06204D4B1A68B1
:10225000D1692DE9F04FCC698BB0A389834208D8AE
:10226000E589854205D32568C31A4FF0FF360695E8
:1022700013E0A368002B7CD01D88A84279D35E8828
:10228000864276D3401B5B68666880B2069603EB95
:10229000800533F92030B5F90260581C099368D0E5
:1022A00091F818B0A17CB2F92A901BFB01F3354DCF
:1022B0004846B2F92270B2F92480079394F810A02E
:1022C00009F028FA2968079BCA69896B08901846A3
:1022D0000591099B069900FB03104146049038467E
:1022E000A37C039301230293D37E0193937E5246F2
:1022F00000935B4608F0D4FC731C1AD049F002002E
:1023000009F008FA2A6806993846D369926B059253
:10231000079A02FB061641460496A27C039201220C
:102320000292DA7E019252469B7E00935B4608F051
:10233000B7FC2B68DB695A7E1B7E9A4215D9B9F12E
:10234000020F12D089F0040009F0E4F90D4B1B686C
:10235000DB69187ED97E9A7E5B7E00FB01810AFBD9
:1023600002723846434408F02FFE9DF8200009F021
:10237000D1F9044B617C1A68538C0B4453840BB025
:10238000BDE8F08FF4020220044B1B68DB69DB69B7
:1023900009B11A7C0A60587C704700BFF402022021
:1023A00002230B807047C3699A898A4202D8DA896E
:1023B0008A420FD2986880B1038899420CD3428830
:1023C0008A4209D3C91A436833F82100C043C0F3D5
:1023D000C030704701207047002070472DE9F04F52
:1023E000384C89B0064601462368B3F92A80DB6978
:1023F000D86900F092F8002860D005884768404608
:10240000751B07EBC50696F802A009F083F9D4F80E
:1024100000C0814617F83520DCF81CE0DCF83830C5
:102420009EF818B0BCF92410BCF922004FF0010C42
:1024300005937368CDF80CA004935B46CDF808C0F3
:102440009EF81BC0CDF804C09EF81AE0CDF800E05D
:1024500008F026FC2368DB69597E93F818A00791E1
:10246000514520D9B8F1020F1DD093F81BB002F0EE
:1024700005FA804602F0E6F905F0DAF923680799D3
:10248000B3F924E0B3F92200DB6917F83550DA7E9E
:102490000BFB01E30BFB0AE105FB020208F094FDD4
:1024A000404605F0C5F9484609F034F923687178CB
:1024B000DA69907E5A8C00FB01225A8409B0BDE88B
:1024C000F08F00BFF402022038B50D4B02460C46D7
:1024D00001461B68DD69E86900F01FF870B10388E8
:1024E000D21A436803EBC2014878A97E10FB01F0C1
:1024F00024B113F8323011FB03F3236038BD00BF61
:10250000F402022001230B80704708B5C06900F077
:1025100004F8003018BF012008BD38B103888B4291
:1025200002D843888B4201D28068F6E770470000EA
:1025300073B506460D4609B9002014E0084600F0C0
:1025400019F804460028F7D000F0F0F801900EB119
:10255000064B00E0064B1B682A463146984701A807
:1025600000F04AF9204602B070BD00BF840402208A
:102570008804022008B10DF0CFBF704773B506463E
:10258000FFF7F8FF054660B100F0D0F802AC064B4B
:10259000324644F8040D00211B689847204600F09D
:1025A0002BF9284602B070BD88040220024B21F0AE
:1025B0000301186059607047989C062010B50446C6
:1025C00060B1074B5B6B03EBC003596848680DF0C3
:1025D00051FF2046BDE8104019F01CBA10BD00BFE5
:1025E000A4A1062028B1034BDA6B026002B150604F
:1025F000D8637047A4A1062010B504460068FFF711
:10260000DDFF0023236010BD70B506460D46002493
:10261000AC4205DA06EB84000134FFF7EDFFF7E783
:1026200070BD00002DE9F0410746264E17F022FE4E
:102630000337306CF26B27F00307144604378742E8
:1026400038BF074634B154F8043C9F4223682CD06D
:102650001C46F7E7F368B26B02EB030858F8045C1A
:10266000C5EB08052B6833B1204619F039FC58F842
:10267000045CC5EB08052B680BBB6B689F421EDC36
:1026800028461C1D19F00CFCF3686868E41BDB1B72
:10269000C01B2C44F36073693B44736102D029462C
:1026A0000DF0E8FE44F8047C09E00BB16168596064
:1026B000616801B10B60A24201D12368F363204637
:1026C000BDE8F081A4A1062008B517F0D3FD0023D2
:1026D0000B4A9918D1F8BC0010B1836800200BE0B8
:1026E000083B13F1800FF4D108E05A689B689042D0
:1026F00038BF104613B19B68002BF6D10C3808BDCB
:10270000A4A1062030B1044B5B6B03EBC00043680F
:1027100058680C38704700BFA4A10620024A93698C
:1027200001339361704700BFA4A10620054BDA690D
:102730000132DA615A6B12F83030013302F830306E
:1027400000F072B8A4A1062073B5044608460D46F1
:10275000FFF710FF0646F8B1F4B12046FFF7D2FFAD
:102760008542A8BF05463046FFF7E0FF00902046AF
:10277000FFF7DCFF2A4602AD094B0146019055F8F0
:10278000080D1B689847284600F036F801A800F0AD
:1027900033F82046FFF712FF304602B070BD00BF8D
:1027A0008404022008B5FFF78FFF6422B0F5800F84
:1027B000054B85BF90FBF2F01B6A1B6A58439CBF18
:1027C0005843B0FBF2F008BDA4A106201028054A2A
:1027D00005D953685B08984228BF184600E01020CE
:1027E00090607047989C0620024A9369013B936170
:1027F000704700BFA4A1062003680A4930B553F80A
:10280000085C4C6B14F83530012B03D9CA690AB146
:10281000013ACA61013B04F83530002303601846D1
:1028200030BD00BFA4A10620034B5B6B03EBC000CF
:1028300040680830704700BFA4A1062050F8080C7B
:1028400070472DE9F7430B46074600283CD042B1BC
:1028500011461846FFF76CFEB0FA80F4054664098D
:1028600001E01446154602AE3846FFF75FFFB0F8A8
:10287000008046F8080DD0F804903046FFF7BCFF02
:1028800024BB08F1010148468900FFF75DFF81463E
:1028900018B92846FFF792FE18E0FFF747FF02AB92
:1028A00043F8040D40F828501846FFF7A5FF3846B6
:1028B000FFF73CFF038800900133C0F804900380C9
:1028C0003046FFF799FF02E0044600E0012420466D
:1028D00003B0BDE8F0830820FFF750BE37B50546CA
:1028E00018B3FFF723FF00904068C0B10024FFF742
:1028F0001DFF0190009B1B889C4206DA019800EBAB
:1029000084000134FFF778FEF4E701A8FFF774FFB5
:1029100000980430FFF770FE0022009B1A80684682
:10292000FFF76AFF2846FFF749FE03B030BD37B511
:102930000C46FFF7FBFE03880090A3421AD94068BB
:10294000C0B1A500FFF7F2FE01902844FFF754FE46
:10295000009A1388013B9BB21380019A2A449C423F
:1029600005DA52F8041F013442F8041CF7E701A805
:10297000FFF742FF6846FFF73FFF03B030BD13B5D6
:10298000044640B1FFF7D2FE02AB048843F8040DC1
:102990001846FFF731FF204602B010BD73B50E4652
:1029A000044658B102ADFFF7C1FE314645F8040DAB
:1029B00000F05CF804462846FFF71EFF204602B0F0
:1029C00070BD00007FB5064610460D461446FFF761
:1029D000D5FD039058B33046FFF7A8FE2946009076
:1029E00000F044F801900398FFF7A0FE224604ACE3
:1029F000114B029054F80C1D1B6898472046FFF7B6
:102A0000FBFE02A8FFF7F8FE039A2946009800F0A3
:102A100036F820B103A80024FFF7EEFD03E0039889
:102A2000FFF784FE04466846FFF7E6FE00E0044632
:102A3000204604B070BD00BF8404022003888B428E
:102A400013B50C460ED9406850B1FFF76FFE02ABCC
:102A500050F8244043F8040D1846FFF7CDFE02E07D
:102A6000044600E00024204602B010BD08B5FFF780
:102A7000E5FF18B1BDE80840FFF758BE08BD038860
:102A80008B42F7B50E46174612D9406880B102ACAA
:102A9000FFF74CFE054644F8040D00EB8600FFF7F7
:102AA000ABFD45F826702046FFF7A6FE002000E0AB
:102AB000012003B0F0BD70B50D46044603F050F997
:102AC00000222B46C1B22046BDE87040AFF3008023
:102AD000B0F1004FF0B51C6809D1601C0139012626
:102AE00018602D20C9B220706FF000400DE0002862
:102AF0004FF00006B7BF651C002440421D60BEBFFA
:102B00002D2525700124091BC9B20AB10139C9B2AA
:102B1000DFF854E0DFF854C081B14D1E9142EDB2B0
:102B200005D11C68671C1F609EF8007027705CF858
:102B3000257090FBF7F4E4B20A2C03D91B6800223D
:102B40001A70F0BD07FB140015B90EB10134E4B2E0
:102B50000A2C04BF0D460124196830344F1C1F6035
:102B60000C702946D8E700BF68A206208C8C0608A6
:102B700013B502AC13460A4644F8040D2146024838
:102B800000F004F802B010BD553300082DE9F04FF5
:102B9000A7B01E46174613AB1D901F9111AA0193B3
:102BA00012AB10A91DA800930DF13E0300F0D8FB55
:102BB0000546002840F01F829F4C1BA82368DA6C52
:102BC0001B6DBA1806EB030B0692BDF81830ADF872
:102BD0006EB0ADF86C30109B013B1344ADF8703013
:102BE000119B013B5B44ADF872300CF097FF00285D
:102BF00000F00B82A04608950795089B5BB113ABCC
:102C000011AA10A91DA8019312AB00930DF13E0368
:102C100000F0A6FB0790079B002B40F0E281139B7E
:102C20000993032B00F2DD81DFE813F004009E001E
:102C30009E00BD01BDF83E50082D10D005D8012DD5
:102C40000DD0042D40F0CB8109E0182D71D0202D3E
:102C500000F08480102D40F0C281784BAFE1069BDC
:102C600020AE129C002114931822109B304615931D
:102C7000119B1693FDF799FB21461DA800F020FC3F
:102C8000002840F0AC81042D05D0082D09D0012D7D
:102C90000CD1159C01E0159CA4001F346411A40004
:102CA00005E0159C033424F0030400E00446169B61
:102CB0005946159A149802960194009515F0E0FD76
:102CC0001AAB049415AA039319AB31461EA80293BC
:102CD00018AB019314AB009316AB16F00CFA002856
:102CE00040F07F81564C002317AA21991DA800F0BF
:102CF000D1FB002840F07381236818990593179B36
:102D00005944159A04930123029503930193009368
:102D1000149807F0C5FF1E9A1A9B1344189A1E9325
:102D2000199B13441893169B013B1693002BDAD181
:102D300057E1109B434A5D43049200221F350392E2
:102D400003226D110292AD000195119A1DA80699FA
:102D500000925A4613F002FC079042E13A4A109B57
:102D600012690492002234E1109B1DA812990A9363
:102D7000D8F80030119DDB6B1B680C9300F0A0FBB2
:102D8000002840F02C815D44069EDFF8B490013DA0
:102D9000002320AA02211DA800F07CFB002840F09F
:102DA0001E81209B5A1C209293F800A05F78BAF1F4
:102DB000000F40F0BD80012F1AD002D3022F45D062
:102DC00063E0069B0A9A9A18013AB2420ADDD9F8E2
:102DD000003030461968D8F80030DB6B196029469E
:102DE00008F070F8013DAB4500F3F980069C04E162
:102DF0000A9B069A13445C1EA6420BDA104B294626
:102E000030461B681A68D8F80030DB6B1A6022461F
:102E100008F058F8AB4580F2F280094B5946069805
:102E20001B681A68D8F80030DB6B1A606B1E2246EC
:102E300008F0CAF8E3E000BFF402022021B3000862
:102E4000A8C2062081740108CC020220534620AAA1
:102E500039461DA800F01EFB002840F0C080209AD3
:102E60003046531C2093D9F80030147857781A68EC
:102E70003444D8F80030EF1BDB6B39461A602B4620
:102E800022463D4608F0A0F8B7E0099B022B25D169
:102E90007B1C20AA1DA85C100D935346214600F010
:102EA000F9FA0B90002840F09A80D9F800304FF0E2
:102EB000010A03943A4605932946209B3046CDF8F3
:102EC00004A0F41904930423CDF800A00293534600
:102ED00007F0E6FE0D9B13F0020F1FE0534620AAF9
:102EE00039461DA800F0D6FA0B90002877D1D9F802
:102EF00000304FF0010A03973A4605932946209B7C
:102F00003046CDF804A0F41904930823CDF800A0AE
:102F10000293534607F0C4FE17F0010F6DD00B9BD0
:102F200020AA51461DA800F0B5FA002865D056E049
:102F3000099B022B27D107F00F033F09BB421BB2AD
:102F400004D0BA0004469F000B9204E0D9F8002098
:102F500052F823201BE0544504EB060010DAE20788
:102F6000D9F80030294604F1010456BF0B9ADA590A
:102F70009A58D8F80030DB6B1A6007F0CBFFEAE70D
:102F800006EB0A0439E0D9F8003053F82720D8F8C6
:102F900000300AEB060429463046DB6B1A60621EDD
:102FA00007F090FF29E0BDF83E30102B06D0202B13
:102FB00015D1174A109B0492164A0AE0154B01934B
:102FC0005A46119B1DA806990093109B11F0AAFE6A
:102FD000C2E60392042202929A000192B5E601230E
:102FE00007930CF0A3FC089B0133089300287FF49F
:102FF00004AE079809E0012007E02646C8E6D8F8A5
:1030000000300C9ADB6B1A60EBE727B0BDE8F08F5D
:1030100081740108519D01081FB504AC44F8040DEA
:103020000698009313460A4621460190024800F094
:1030300005F804B010BD00BF553300082DE9F04F6E
:103040009D4E9846A7B09146336817AA309DDB6B1A
:10305000319C1B681E9116A90F9319AB1C901CA8DC
:10306000019318AB00930DF1560300F079F9074670
:10307000002840F0178101F001FC336810901AA875
:10308000DA6C1B6D09EB020A08EB030B169BADF81B
:1030900068A06B430BF1FF32ADF86AB0B3FBF4F3F9
:1030A0005344013BADF86C30179B6B43B3FBF4F317
:1030B0001344ADF86E300CF031FD002800F0EC80C8
:1030C0000223139694FBF3F30E93199B002B04D069
:1030D000C0F2DC80022B38DDD8E0BDF85630082B7A
:1030E00012D005D8012B0FD0042B40F0CF800BE07D
:1030F000182B14D0202B23D0102B40F0C7806F4A00
:103100000493022305920EE018991CA800F0D8F948
:103110006B4B0593BDF856300493012303E0694AD5
:1031200004930323059203935A46179B5146029436
:103130001CA800930195169B11F04CFD0746A5E0D5
:10314000604A049304230592EDE718991CA800F047
:10315000B7F9169B179E1C2200211FA80D93199FDB
:103160006E43FDF722F90D9B2497229396FBF4F30F
:10317000002B069304DD03F1FF384FF0FF3307E027
:1031800000F08380069B4FF000085B42069301230A
:103190000C930E9B089407930026079B089A2B44D8
:1031A0009342079301D20136F7E716F1FF360AD3AF
:1031B0000027229B9F42F8DA1FAA00211CA8013792
:1031C00015F0DAFCF5E70127089B23440893089AD9
:1031D000079B934201D30137F6E70C9B0BEB0806E4
:1031E0007A1E0B9401330ABFF61B0996731C5646D0
:1031F00008BF09930E9B09990A930A440D9B1292EA
:1032000000215A1C581A11900A98284486460A90A0
:103210000B98864509D201319142F3D10C9B03FBF7
:103220000788069B98452BDB2DE01FAA1CA815F0EC
:10323000A3FC139B4FF001091B68DB6B18600B9B11
:1032400023440B930B9A0A9B934202D309F1010981
:10325000F5E7B9F1010F06D1012F04D109993046E4
:1032600007F058FE07E009EB0602129B0999304669
:10327000013A07F0A9FE119B4E44013BC0D1CDE7B6
:10328000B8F1000F88DA002700E001270CF04EFBB0
:1032900000287FF41AAF00E00746109804F0C8FA3F
:1032A000384600E00120044B0F9A1B68DB6B1A6064
:1032B00027B0BDE8F08F00BFF40202205B72010866
:1032C000F1720108ED73010807B502A941F8040D78
:1032D000024800F005F803B05DF804FB5533000820
:1032E0001FB50123019003916A461A2101A800F03D
:1032F000D1F830B9009B68461233009306F0E8FA23
:1033000000E0002005B05DF804FB000007B502A94D
:1033100041F8040D024800F005F803B05DF804FB25
:10332000553300081FB50123019003916A461A2105
:1033300001A800F0AFF848B9009B68461633009327
:1033400006F0C6FA0028B8BF404200E0002005B0F1
:103350005DF804FB0068034410460B6070470000F2
:103360002DE9F74F8B4692461C466A4601233621CB
:1033700006460C9D0D9F00F08DF8002840F08380DC
:10338000684606F09FFA009B804668460C3300931F
:1033900006F09EFA8146684606F09AFACBF80000DD
:1033A000684606F095FA009BCAF8000068460233AA
:1033B000009306F087FA2080684606F089FA009BA1
:1033C000386068460C33009306F082FA2388082B95
:1033D0000FD005D8012B0AD0042B54D110230CE0B8
:1033E000182B09D0202B07D0102B4CD104E002233E
:1033F00003E04FF4807300E000232B602B680BB1D7
:1034000000B128603B68032B2BD1002301AA1021B7
:10341000304600F03FF808BB1D4C01A806F058FAF2
:10342000206001A806F054FA606001A806F050FA86
:1034300004F11802A06004F10C01206815F01EF9D7
:1034400004F11C0204F11001606815F017F904F191
:10345000200204F11401A06815F010F970683838E2
:1034600001E0706828382B684844B3F5807F7060AD
:1034700009DC44F64253984505D13868032894BFC7
:103480000020012000E0012003B0BDE8F08F00BF64
:10349000A49C062070B50D46044611460BB10023CE
:1034A000436063682A462668A068B047854205BF26
:1034B000636800200120ED1808BF656070BD000042
:1034C0002DE9F34106460D460024104FAC4216DAB2
:1034D000002301AA04213046FFF7DCFF88B9019AD6
:1034E000D7F80080537810781B0243EA00439078A5
:1034F000184307F09BFB48F824000134E6E700205E
:1035000000E0012002B0BDE8F08100BFA8C20620A3
:103510001423024A03FB0020007A7047809F062094
:103520002DE9F743064608460D462C4C01F0AEF94E
:103530001423814603FB0543D3F8048023683BB979
:10354000012320462360264B40F82C3F06F0D4F997
:10355000B9F1000F1ED0484604F0CEF807464FF0F0
:103560007F4004F063F900F097F8002230681146BC
:1035700000F0EEFB336848465A88198804F096F943
:103580001423384603FB054401236660237204F0CC
:10359000B3F81CE01427012307FB054778697E6018
:1035A0003B7218B103F094FDC7F8149096B1142340
:1035B000B268716803FB05440123E0682769411A7A
:1035C0000093BA1A2B46306804F022F8606128464E
:1035D00019F0FCF9404603B0BDE8F083809F062057
:1035E00015B20108F8B5064610460D461446154FAB
:1035F00001F04CF9142350B103FB047463689A681A
:103600005968AA1A711ABDE8F84004F04DB903FBD5
:103610000473DA68B24202D11B69AB4210D01423A2
:1036200003FB0473586930B15B689A685968AA1A39
:10363000711A03F06FFD142303FB0474E660256127
:10364000F8BD00BF809F0620C3B2CAB29A1AC0F369
:10365000072392B210B514B2002CBCBF524214B270
:10366000C1F30722090C9B1AC1EB10419BB289B22E
:103670001AB208B2002ABCBF5B421AB20028B8BF17
:10368000494202FB02F2B8BF08B204FB042280B236
:1036900000FB002010BD0000002110B5084601F01D
:1036A0007DF943F6FF7303491A460846BDE810400A
:1036B00000F002B801C0FFFF2DE9F34104460420E9
:1036C00016461F460D4608F025F8134B80466846FF
:1036D000DB68DA6C1B6D144416441D441F44ADF8BE
:1036E0000040ADF80460ADF80250ADF806700CF083
:1036F00015FA28B9404608F00DF802B0BDE8F0818F
:103700003B4632462946204607F05EFC0CF00EF997
:103710000028F5D1EEE700BFE8020220B0F906303C
:10372000B0F90420B0F90210B0F90000FFF7C4BFEF
:103730002DE9F3470646884614461D4613B90BF09B
:10374000AFF8054600942946346830460B9B0A9A28
:10375000A047044600283ED00BF094F8718A074633
:1037600020460AF02CFC4FF0000920460BF0B0FF79
:1037700038460BF0ADFF08F1FF38B8F1000F12DD4D
:1037800056F81CAF0023CDF8009039461A46304653
:10379000D047824620B920460AF088FF50461BE0F9
:1037A0000BF096FFE7E71D2138460BF0F3FD6B1C8D
:1037B00011D00BF0BBF850B1FFF736F880698442A6
:1037C00009D00028F8D120460BF0D2FE03E0A54234
:1037D000F9D1284600E0204602B0BDE8F08700009D
:1037E00080B582B000AF7860054B1B68002B03D01A
:1037F000034B1B687868984700BF0837BD4680BDFB
:1038000064A20620012BF8B506460D4617461C4655
:1038100001DD0020F8BD1C20FEF704FF0028F8D0D1
:103820000DB1056109E0094B53F8241029B10B686B
:103830000BB11946FBE70B690361002384618782A2
:10384000C660036043608360F8BD00BF80A20620AD
:1038500038B51D46FFF7D6FF044648B100F00EF814
:10386000E3681B6823B9034B16351B6843F82540F2
:10387000204638BDF4020220FEF7B4BE30B508B9C8
:10388000012030BD8469012CFADC1B4B1A7894426C
:10389000A4BF621C1A70194A52F8243015461BB98D
:1038A00042F82400184630BD5A680AB11346FBE7B7
:1038B000C2681268D9680968914203DD1B68002B51
:1038C000F8D1DDE709D1818A012906D1196821B132
:1038D0000B46C96809688A42F8DD5A6812B110605F
:1038E000426001E045F824005860984208BF002378
:1038F0000360002030BD00BF7CA2062080A206200D
:1039000081690A4A52F821309842036804D142F88A
:1039100021300BB100225A60426802B11360036883
:1039200003B15A60002303604360704780A2062001
:1039300001280ADC064B53F8200028B1C3681B6835
:103940008B4203D00068F8E770470020704700BF43
:1039500080A20620012809DC054B53F8200020B185
:10396000C3681B681BB10068F9E770470020704707
:1039700080A20620F7B50F461646044690B10C20EB
:10398000FEF7FCFD054670B1FEF7D0FE074A034680
:1039900002A81F8140F8043D5E8183E81400FEF711
:1039A0002BFF00E00546284603B0F0BD40E80608BE
:1039B000F7B507460C200E461546FEF7DFFD044618
:1039C00060B1FEF7B3FE074A034602A81E8140F825
:1039D000043D5D8183E88400FEF70EFF204603B0BE
:1039E000F0BD00BFD8F006082DE9F3410E4617469A
:1039F0009846054670B1FEF799FE044602A8236872
:103A000040F8044D1C68FEF7F7FE43463A4631463F
:103A10002846A04702B0BDE8F08137B5044660B142
:103A2000FEF784FE02AB026843F8040D18465568A1
:103A3000FEF7E2FE2046A847FFE703B030BD37B5EA
:103A4000044660B1FEF772FE02AB026843F8040D53
:103A500018469568FEF7D0FE2046A847FFE703B05A
:103A600030BD000070B50446094E1BF0F9F804445F
:103A70001BF0F6F8251A002D08DD00F0ABFA3068CF
:103A8000A842A8BF28461BF0E5F8F1E770BD00BFCB
:103A90000C0302202DE9F04F054685B000287FD0A9
:103AA000414C00F013FF07462368A146B3F922807A
:103AB00000F046FF226886B2938C9B1B93842B7880
:103AC000002B61D047F6FF71284605F07FFD0146C7
:103AD0008246284605F04AFD2268938D03F00303D1
:103AE000012B04D0022B04D190FBF3F302E0034638
:103AF00000E00023518C1FFA80FB2846CB1A9BB2B2
:103B000019B25184ADF808100BF1FF31B2F924203D
:103B10000B445146ADF80A20013AADF80C30BBB267
:103B20001A440193ADF80E2002AA04F0E7FE2268C1
:103B3000BDF80A1028469184514604F0CFFB2A5C58
:103B400005EB000E019B0A2A01D00D2A12D1226832
:103B5000918D01F00301013901298ABF118CA2F86E
:103B6000228051849EF800100A290AD1918C0B44BE
:103B7000938406E0BDF80800D9F800308344A3F828
:103B800022B09EF8003043B923689A8C16449A8D6F
:103B900022F003029E849A8502E00EF101058EE771
:103BA00005B0BDE8F08F00BFF4020220024B1B6895
:103BB00059849A84FFF76EBFF402022047F6FF7320
:103BC000AFF300802DE9F3410C46174698460646B0
:103BD000C0B169B108460BF06FFD054648B1024619
:103BE0002146684605F05AFD68460BF065FD00E089
:103BF0000D46304643463A46214604F0D3FE284659
:103C00000BF05AFD02B0BDE8F0812DE9F04F8BB00A
:103C10000D46174606460393002800F09680B1F93A
:103C20000030B1F904900193C3EB0903B1F90240EC
:103C3000B1F906B00133029300F048FE17F00C080A
:103C400082461ED0039A3046029904F052FCB8F125
:103C5000080F05D0B8F10C0F09D0B8F1040F10D13E
:103C600010FB0AF00BF10104201A04B209E0C4EBC6
:103C70000B03013300FB1A30022390FBF3F00444E2
:103C800024B228460BF018FD804688B1BDF80430F8
:103C90000246294606A8ADF81830ADF81A40ADF82E
:103CA0001C90ADF81EB005F0F9FC06A80BF004FD61
:103CB0001FFA8AF307F003070493013B0593039A65
:103CC000304602991FFA84FB05F072FEBDF80430FD
:103CD00001468246ADF820303046059BADF82240C3
:103CE0005B44ADF82490ADF8263005F03FFC012F81
:103CF00011D0022F04D09FB92B88ADF820300FE0EF
:103D0000B5F90020B5F904309B1A181A013090FB60
:103D1000F7F0104402E0AB880133181AADF8200028
:103D2000304608AA514604F0E9FD3046039A02994C
:103D300005F034FE049B064403EB0B04337824B2F5
:103D4000002BBCD140460BF0B7FC0BB0BDE8F08FA8
:103D5000114B1B6873B5DC6C06461D6D03880C4463
:103D60001544013BADF80040ADF802502344ADF8D6
:103D7000043043886846013B2B44ADF806300BF015
:103D8000CDFE38B12A4621463046FEF7CFF90BF07A
:103D9000CDFDF6E702B070BDF40202202DE9F0433C
:103DA000154C87B02468E76C246D07EB00091744B5
:103DB00004EB01081C4404A8ADF81090ADF8147091
:103DC000ADF81280ADF816400BF0A8FE88B10026C1
:103DD0000A4D0F9B22464946404601930E9B03968F
:103DE00000933B46029512F0D9FE0BF09FFD002890
:103DF000EFD107B0BDE8F083F402022075AF0008F0
:103E00002DE9F043154C87B02568EC6C2D6D04EB63
:103E10000008144405EB01091D4404A8ADF8108006
:103E2000ADF81440ADF81290ADF816500BF076FED8
:103E300088B101270A4E0F9B22464946404601930E
:103E40000E9B039700932B46029612F0A7FE0BF0F1
:103E50006DFD0028EFD107B0BDE8F083F402022029
:103E6000C5AE0008F7B5104D2B681E6DDC6C06441E
:103E700068466718144433B2ADF80070ADF80440DA
:103E8000ADF80230ADF806300BF048FE48B12B68B3
:103E90002246314638465B6E1B6898470BF046FD5C
:103EA000F4E703B0F0BD00BFF402022073B50F4E7B
:103EB0003368DC6C1D6D044468460D4423B2ADF8D4
:103EC0000430ADF800302BB2ADF80630ADF802305A
:103ED0000BF024FE40B13368294620465B6E5B68D8
:103EE00098470BF023FDF5E702B070BDF402022005
:103EF0002DE9F7431E4CD4F800E0DEF85050DEF810
:103F00004C406F181D449EF818302618144468461B
:103F1000013B9BB2F21AADF800201A19ADF804204B
:103F2000FA1A2B44ADF80220ADF806300BF0F6FD7E
:103F3000D8B107F1010805F1FF392246394630466C
:103F400006F0C0FF22462946304606F0BBFF4A462F
:103F50004146304607F00EF84A464146204607F0F3
:103F600009F80BF0E3FC0028E7D103B0BDE8F083CB
:103F7000F40202200F4B1B6873B5DD6C1C6D054409
:103F80006846661814442BB2ADF80260ADF80030F4
:103F9000ADF80430ADF806400BF0C0FD38B1224654
:103FA0003146284606F0E6FF0BF0C0FCF6E702B00B
:103FB00070BD00BFF402022038B504460D4600F083
:103FC0006FFC10B10123456003602046BDE8384016
:103FD0000BF030BC10B5002400F006F808B1012445
:103FE000FAE7204610BD00000C4B10B51C681CB150
:103FF000A047041C18BF01240AF0F0FB084B00285E
:104000001B6818BF01241BB19847002818BF012462
:10401000044B1B6803B19847204610BD9CA20620A4
:10402000A0A2062098A20620F7B50F4C2568EC6CDC
:104030002D6D261814446F181D446846ADF80060B5
:10404000ADF80440ADF80270ADF806500BF066FD17
:1040500040B12B4622463946304606F0B5FF0BF0FC
:1040600065FCF5E703B0F0BDF4020220B0F90630BC
:10407000B0F90420B0F90210B0F90000FFF7D4BF86
:104080002DE9F04F81468BB044F208108846144663
:104090001D46FEF773FA0746002852D0FEF746FB8E
:1040A000C0F80890C0F80C800646059016F0C0F8DD
:1040B00010B14FF0010B3DE0304607AA06A915F0FC
:1040C0006FF806460028F4D106F0B6FF204B804674
:1040D00008A81B68DA6C1B6D14441D44069BADF8E0
:1040E0002040013BADF822502344ADF82430079B1B
:1040F000013B2B44ADF826300BF010FDA8B1DFF8E2
:1041000054A0DFF85490CDF80CA02A46CDF80890C2
:10411000214601960096149B059800F050F98346BD
:104120000BF004FC0028EED101E04FF0010B4046FB
:1041300007F0C6FA05A8FEF75FFB3846FEF73EFA21
:1041400001E04FF0010B58460BB0BDE8F08F00BF07
:10415000F4020220B1080108B56701082DE9F04F0B
:1041600089B0824644F208100E4614461D46139F3D
:10417000FEF704FA8146002858D0FEF7D7FA06AABF
:104180000A21C0F808A0C6600123059000F0EAFAF1
:10419000069B06A80633069305F094FB834606A803
:1041A00005F090FB064606F047FF234B07FB0BFB91
:1041B00082461B687E4306A8DA6C1B6D14441D44BE
:1041C000149BADF81840ADF81A50BBFBF3FB631E0F
:1041D0009B44149BB6FBF3F66B1EADF81CB01E445B
:1041E000ADF81E600BF09AFCA0B1DFF854B0134E8E
:1041F000149B2A46CDF80CB02146019302960097F5
:10420000129B059800F0DBF880460BF08FFB00282E
:10421000EED101E04FF00108504607F051FA05A831
:10422000FEF7EAFA4846FEF7C9F901E04FF0010847
:10423000404609B0BDE8F08FF40202208D69010804
:104240006D0901082DE9F043814685B044F208105C
:104250000D4616469846FEF791F9074600285AD0B3
:10426000FEF764FA0022C0F8089002ABC560114660
:104270000446019015F0D2FA002844D105460023E7
:1042800003AA0121204600F06DFA034600283AD126
:10429000039A12782C2A04D03B2A32D0212A32D118
:1042A00024E0A84517D1204603AA082100F05AFAB5
:1042B000044640BB03A805F005FB306003A805F0E9
:1042C00001FB306003A805F0FDFAB06003A805F01B
:1042D000F9FAF06018E0204618F0BAFB00212046F9
:1042E00014F044FD0028F9DC0135C8E70146A84573
:1042F0000CBF32460022204617F0BCFB0028BED07F
:1043000001E0044600E0012401A8FEF775FA3846F2
:10431000FEF754F900E00124204605B0BDE8F08323
:104320002DE9FF41804644F208100F461546FEF77E
:1043300025F9064600283DD0FEF7F8F902ABC0F893
:1043400008802A1DC76029460446019015F066FAC8
:1043500040BBA860002303AA0121204600F002FA16
:104360000346F8B9039A12782C2A04D03B2A17D0B6
:10437000212A17D10CE0204618F06AFB00212046C4
:1043800014F0F4FC0028F9DCAB680133AB60E1E722
:1043900002460146204617F06DFB0028DAD001E006
:1043A000044600E0012401A8FEF726FA3046FEF795
:1043B00005F900E00124204604B0BDE8F0812DE9B4
:1043C000F047002594B004460E46174629461822A9
:1043D0000EA89A46DDF87080DDF874908DF81350C1
:1043E000FBF7E3FF1422294609A8FBF7DEFF4FF095
:1043F000FF3306AA05A90793204613AB15F00EFA62
:10440000002840F08F800546002308AA012120469D
:1044100000F0A8F9002840F08580089B1B782C2B21
:1044200004D03B2B7FD0212B7CD16CE0034608AA23
:104430000921204600F096F9002873D108A805F05C
:1044400041FA0E9008A805F03DFA0F9008A805F073
:1044500039FA109008A805F035FA089B11901978E0
:104460000B0612910CD40AF1FF339D4214D10E9B1E
:1044700009930F9B0A93109B0B93119B0C930BE0DA
:1044800001F007010223204603FA01F1139117F00E
:10449000D3FA0028E7D045E0554525D19DF81330E3
:1044A000022B07D109AB0EAA394630461F9D8DE875
:1044B0000003A8479DF813303246CDF80C900EA9A2
:1044C00001932046079BCDF8088000933B461E9D34
:1044D000A847034630BB08AA0121204600F042F954
:1044E000003018BF01201EE0002308AA0121204649
:1044F00000F038F9B0B90021204614F037FC00284C
:10450000F9DC013580E7554507A912BF024609AA23
:104510000DF11303204618BF134617F0ABFA00281D
:104520003FF472AF012014B0BDE8F0872DE9F843E5
:1045300000F5735500F573560446243538362B685C
:10454000002B4ED000232B6043F6F843E0580028A0
:10455000C0F2DC80B0F5805F80F2D2806C4B4FF40B
:104560000052002104F58B701B68984743F6F8430E
:1045700004F504510022E35815319A4203DA01F898
:10458000012F0132F9E743F6EC4243F6E84104F526
:1045900073564FF00008A25804F5745738360132AC
:1045A0006250590043F6F4420233A15043F6F04200
:1045B000A35004F5445343F6D0421633A3502B685E
:1045C0001BB1C5F80080306802E0204614F028FFD7
:1045D000336838608342F2D043F60453E050BDE8BC
:1045E000F883204614F01CFF011EC0F2868030685C
:1045F0008842AFD004F573533C331B688B4200F004
:10460000838004F5735730373B688B4204F573534E
:1046100003F110030ADC1A68501C186004F574508A
:104620000068107004F57452506800E0084604F504
:10463000445E40F6B73C0EF1160E3268904204EB31
:10464000000218DBD3F8008002F5045208F10109DA
:104650001632C3F80090127888F8002004EB40026C
:10466000B2F91681404551D01A68CEEB020262457C
:104670004CD84046E1E7186802F5045204F5745C32
:1046800000F1010E1632C3F800E00CF1040E1278AE
:10469000CCF8002002703A68B2F5805F1EDADEF8CE
:1046A000000004EB4208DCF800C0A8F81601A018CE
:1046B000013200F5045080F816C03A6004F57357D3
:1046C000786B3437824209DBB0F5805F06D040005A
:1046D00004F573523860906A01309062CEF8001091
:1046E00004F544511A6816318A427FF628AF511EEC
:1046F000196012F8010CBDE8F8830846BDE8F8839C
:104700004FF0FF30BDE8F8836FF00100BDE8F8839B
:104710008804022043F6EC434A1CC15043F6E843A8
:10472000C250012343F6F84203FA01F110B581505B
:10473000CC1843F6FC4284508C1C43F6F04299405E
:10474000845043F6F442815043F6E44283500222FF
:1047500043F6E043C25000F5445343F6D0421633CB
:10476000835010BD70B50D46044611460BB10023B1
:10477000036123692A46A668E068B047854205BF01
:10478000236900200120ED1808BF256170BD13B515
:104790000B4630B1C488818800928268204600F0C0
:1047A00002F802B010BD042830B5039D27D010DCFC
:1047B000012818D0022838D1694302EB93026FEA2E
:1047C0004300525C00F0060022FA00F000F0030003
:1047D00030BD10281DD0202821D0082825D105FB68
:1047E0000121C85C30BD694302EBD302D843525C5F
:1047F00000F0070022FA00F000F0010030BD02EBEB
:1048000053026943DB07505C4CBF00F00F00000906
:1048100030BD4C1005FB043332F8130030BD8C1052
:1048200005FB043352F8230030BD002030BD0000EA
:10483000034B082153F82000C3689B6A184700BF48
:1048400080A2062008B506F0EFFBBDE8084006F0A0
:1048500019BD0000024B00211B68DB695B6818472B
:10486000F4020220024B1B68DB695B68184700BF3B
:10487000F402022008B109F0F5BF704708B506F050
:10488000DBFBBDE8084006F0FDBC000001289ABF34
:10489000024B53F820000020704700BFD09E062036
:1048A0001FB50446102200216846FBF77EFD2A232F
:1048B0002046694600930AF069FD039804B010BDD4
:1048C000014B1B68187C7047F4020220024B1B68E6
:1048D000DB69587E704700BFF402022004F03CBE42
:1048E00038B50D46144606F03DFC10B100232B6090
:1048F000236038BD044BB3F900300360034BB3F9B8
:1049000000300B60704700BF6AA206206CA2062030
:1049100010B5044604F076FE01462046BDE810407E
:1049200004F024BE1AF09CB90448352303703423E4
:104930008370C37061230371704700BFE0020220DF
:104940000A4B1A68938D03F00C03082B07D00C2B2D
:1049500005D0042B07D1D369187E01387047D3697D
:10496000187E400870470020704700BFF402022004
:10497000407E7047027EC07E50437047024B53F822
:1049800020301B691868704780A20620024B53F83C
:1049900020301B695868704780A20620024B1B68B4
:1049A0005884002099847047F402022090B583B0A7
:1049B00000AF534A524B1B6823F001031360514B65
:1049C0001B68C3F30A0340F2494293420CBF012320
:1049D0000023DAB24B4B1B68C3F30A0340F2514188
:1049E0008B420CBF01230023DBB21343DBB2194619
:1049F000444B1B68C3F30A0340F2524293420CBF7C
:104A000001230023DBB20B43002B10D03E4B0122CD
:104A10001A6000BF3C4B1B68002BFBD13B4B3C4A50
:104A20001A603A4B1B683B4A934218D0FEE73A4B58
:104A30001B68C3F30A03B3F58A6F10D1374B012209
:104A40001A6000BF354B1B68002BFBD1344B304A3A
:104A50001A60334B1B682F4A934200D0FEE703F0E5
:104A600035FE304B2E221A701AF0FEF82E4815F043
:104A70009DFB18F06FFC786006F0A2FB0346002B4C
:104A80000CBF01230023DCB206F0AEFB0346002B73
:104A90000CBF01230023DBB22343DBB2002B09D080
:104AA00006F097FB044606F0A8FB0346194620468D
:104AB00006F02AFE0021002002F004FF0AF01EFA90
:104AC0001A4B1B68002B12D00DE0184B1B681B689B
:104AD000002B03D0154B1B681B689847134B1B68B2
:104AE0005B68124A1360114B1B68002BEDD1104B11
:104AF00001221A707B6818460C37BD4690BD00BF76
:104B0000002000E0002004E00830024000300240B5
:104B1000C2A507F4CDB5E8B50010005C084C0258FA
:104B2000004C025868A20620049D06207C9D0620A9
:104B300074A2062007B5019102A941F8080D0348A7
:104B400000F006F803B05DF804FB00BF85560008CE
:104B50002DE9F743194C05460E461746246898463A
:104B600014B1A047044618E048F29840FDF706FD4E
:104B7000814638B948F29840FDF700FD814670B98A
:104B8000012417E0CDF800803B46324629460DF05F
:104B900045F904464846FDF711FD5CB1EAE7CDF85A
:104BA00000803B46324629460DF038F90446484617
:104BB000FDF704FD204603B0BDE8F083A09E06206B
:104BC0001FB5039104A941F8080D079801900698B4
:104BD000009003480DF030FA05B05DF804FB00BF0B
:104BE0008556000807B5019102A941F8080D034850
:104BF00000F006F803B05DF804FB00BF855600081E
:104C0000F7B5064648F298400F461446FDF7B6FC45
:104C1000054690B1FDF78AFD02AB876043F8040DAD
:104C200046601846FDF7E8FD2146284600F039FDAC
:104C300004462846FDF7C2FC00E00124204603B0EC
:104C4000F0BD000047F28843C3582DE9F04F0446F9
:104C5000ABB043BB47F20943C35C1BB115F06EFD1B
:104C6000B8B113E00CF0D0FE80B947F28443E258AB
:104C700047F22043E3589A420BDC0AA9204616F07B
:104C800047FF18B99DF82830D92B02D0012000F039
:104C90009CBC012247F20843E25447F22043E25809
:104CA00047F28843E25047F20843E35C002B00F0F0
:104CB000028204F5E9452B682BB947F27C43E058A2
:104CC000FDF734FD28602B68069347F27443E058E3
:104CD000FDF72CFD0990002800F0E98100230093E6
:104CE00004F5E84318330193019B009A1B689A422C
:104CF00080F2DA810098802209997B4B01EBC01188
:104D00000AA81B6898470EAB33F90EEC33F90C6C0C
:104D100033F90A8C4EEA060133F908BC33F906ACC4
:104D200048EA010133F9042C33F9027C4BEA010112
:104D30004AEA01011143394314D133F9102C92008E
:104D400012B223F8102C23F80E2C23F80C2C23F885
:104D50000A2C23F8082C23F8062C23F8042C23F81B
:104D6000022C86E0B11841F2511007EB0E0C0AEB51
:104D7000080941434CF2DF4012FB00F241F67E008D
:104D80000A4406FB001133F9100C00EB0B06CBEBC9
:104D9000000B4FEA4B3B760302EB0B00C2EB0B021E
:104DA0008D190AEB0E0B711A039207EB080242F2FF
:104DB000A156029102EB0B014E434C4901FB0CFC46
:104DC0004B4901FB09F94B4901FB02624A4901FBCE
:104DD0000B610CEB020640F68E1B4A4417FB0B6678
:104DE00009EB010746F25429614443F20B0C44F2EB
:104DF000B31B18FB09221EFB0C111AFB0B77C2EB2D
:104E0000000905EB0108C1EB050C8118039A08F5B0
:104E100080680CF5806C3A4401F5806109F5806981
:104E20004FEAE82802F580624FEAEC2CC91223F819
:104E3000108CD21223F802CC4FEAE92923F80E1C79
:104E400023F80C2C039A23F8049CD71B029A3244B3
:104E500007F5806702F58062FF12D21223F8067C04
:104E600023F80A2C029A961B06F58066F61223F8A0
:104E7000086C10332EAA93427FF446AF009A0AAE14
:104E8000069B03EB821308220592B6F910E0B6F9EF
:104E90002050B6F930804EEA0502B6F94070B6F9F6
:104EA00050A048EA0202B6F96000B6F970B03A4381
:104EB0004AEA020202435BEA02021FD1B6F900206D
:104EC00010325211803282F30802D2B21A701A7272
:104ED0001A741A7683F8202083F8282083F830206B
:104EE00083F83820D5E000BF8404022033E3FFFFBD
:104EF000FDADFFFF3BC1FFFF84F3FFFF2A1841F226
:104F000051110BEB0E0C0AEB08094A434CF2DF413E
:104F100010FB01F041F67E01104405FB0122B6F9B9
:104F20000010CD19CF1B6D037F035119AA1A0292ED
:104F3000C219381A0BEB0807039242F2A1520490EF
:104F40000AEB0E003D185543624A02FB0CFC624A14
:104F500002FB09F9614A02FB0757614A02FB005054
:104F60000CEB070540F68E124F441BFB025B09EB6E
:104F70000005604443F20B0C46F2542944F2B3128C
:104F80001EFB0C0018FB09771AFB025501EB000809
:104F900008F500384FEAA84808F180080FFA88F8A9
:104FA00018F47F4F06D0B8F1000FB4BF4FF00008DF
:104FB0004FF0FF08091A83F8008001F500318914C9
:104FC000803109B211F47F4F03D00029B4BF002112
:104FD000FF21039A83F83810D11901F500318914A3
:104FE000803109B211F47F4F03D00029B4BF0021F2
:104FF000FF21039A1972D21B02F5003292148032FB
:1050000012B212F47F4F03D0002AB4BF0022FF2255
:1050100083F83020049A2A4402F500329214803238
:1050200012B212F47F4F03D0002AB4BF0022FF2235
:105030001A74049A521B02F500329214803212B292
:1050400012F47F4F03D0002AB4BF0022FF2283F85E
:105050002820029A5A4402F500329214803212B289
:1050600012F47F4F03D0002AB4BF0022FF221A7629
:10507000029ACBEB020202F500329214803212B295
:1050800012F47F4F03D0002AB4BF0022FF2283F81E
:105090002020059A02360133013A05927FF4F5AEDD
:1050A000009B013300931FE609A8FDF7A5FB002232
:1050B00047F20843E25447F20A4347F28842E35C6E
:1050C000042B00F27782DFE813F04C020502E900BE
:1050D00067010D0033E3FFFFFDADFFFF3BC1FFFFA5
:1050E00084F3FFFFA358D90700F1D68047F220428E
:1050F000A558ED1A47F28C43E058FDF717FB47F22D
:10510000904306460990E058FDF710FB072D04F583
:10511000E9410A90CBBF05F007020A68D20002EB12
:10512000C502C4BF02F180030A684FEA6505C8BF23
:10513000D2180B6847F20C41ED00615805F58075F7
:10514000039106F108012B44049100F10801019339
:10515000039B0591002B40F3B581019B9046DDF840
:10516000049008330793059B0293049B0693C6465D
:10517000029D06984FF0000ACDF800900099083083
:10518000009F083591F840100EF1020E3F78CF4E87
:10519000CE4B06EB810118F80AC003EB87070AF132
:1051A000020AD1F8D060D7F8D038BAF1080FD1F898
:1051B000D014D7F8D07C1944C54B1E4403EB2141D1
:1051C0001F4406EB0C0B9BF8D8B000F810BC01EBA9
:1051D0000C0BBC449BF8D8B09CF8D8C000F80FBCAE
:1051E00000F80ECC1EF801CC06EB0C0B9BF8D8B0E7
:1051F00000F80CBC01EB0C0BBC449BF8D8B09CF83D
:10520000D8C000F80BBC00F80ACC9EF806C006EB2C
:105210000C0B9BF8D8B005F810BC01EB0C0BBC4490
:105220009BF8D8B09CF8D8C005F80FBC05F80ECC98
:105230009EF807C066446144674496F8D86005F854
:105240000C6C91F8D810009B05F80B1C03F10103BE
:1052500097F8D810009305F80A1C8FD1069909F128
:105260000409079B08F1400820314B45069102993B
:1052700001F1200102917FF47AAF019B02F5C07227
:10528000049903F5C07340310193039B0491013BE2
:105290000599039340315BE7012288E147F22043FF
:1052A000A258E3589D1A47F28C43E058FDF73EFAA6
:1052B00004F5E943EA0047F20C411B6800F10808D5
:1052C000615803EB020E7F320A901344019102935E
:1052D000019B002B40F367810EF18003C4467546A5
:1052E0000393029B0093DDF800906246002619F8B4
:1052F000017F0832754899F84010744B00EB81012A
:1053000003EB8707D1F8D000D7F8D038D1F8D01404
:10531000D7F8D0AC19446E4B15F81670184403EB4F
:1053200021419A4400EB070B9BF8D8B002F810BC5F
:1053300001EB070B57449BF8D8B097F8D87002F8E8
:105340000FBC02F80E7C05EB460701367F78042E71
:1053500039443844BA4491F8D81090F8D80002F88B
:105360000B1C9AF8D81002F80C0C02F80A1CBED1DB
:10537000009A4035039B0CF1200C04329D420092B0
:10538000B1D1019B0EF5807E08F14008013B0193ED
:10539000029B03F580739AE7A358DA073FF57CAFC9
:1053A00047F22042DFF82881A558ED1A47F28C43D6
:1053B000E058FDF7BBF947F2904306460990E058E4
:1053C000FDF7B4F9072D04F5E9420A90C8BF05F0CE
:1053D000070300F10400D3BF1368DB00116803EB7F
:1053E000C5030090C8BF40334FEA6505C8BF5B18CE
:1053F000116847F20C4201EBC505013B54F802C0AD
:10540000321D05F17F01BCF1000F5BDD01F14000B1
:105410008946009F039003F108000293019002F176
:1054200020000490039E043219F801EF043716F8A7
:10543000015F26480396254E00EB8E0E06EB850590
:10544000DEF8D008DEF8D0ACD5F8D060D5F8D0546E
:10545000C24446440544029810F801EF08EB254584
:1054600006EB0E0B029001989BF8D8B002F808BC2E
:1054700005EB0E0BD6449BF8D8B09EF8D8E002F8A6
:1054800007BC02F806EC10F801EF75440190764471
:10549000F24495F8D850049807F8075C96F8D8605D
:1054A00082429AF8D85007F8086C07F8065CB9D120
:1054B00000980CF1FF3C01F5807103F580732030FA
:1054C0000090A0E709A8FDF797F96CE07C8D06082D
:1054D000749E060847F22043A258DFF8F480E35890
:1054E0009D1A47F28C43E058FDF720F904F5E94393
:1054F0000A9004301A6847F20C43DFF8D8E002EB58
:10550000C502E758002F4EDD134600F1200C93F83A
:1055100080900430197801330EEB890993F83F60CD
:105520004144D9F8D0500EEB86060D4495F8D8507A
:1055300000F8085CD9F8D094D6F8D0584D4401EB67
:10554000254595F8D85000F8075CD6F8D05C29447A
:1055500091F8D81000F8061C6045D8D1C032013F40
:10556000D0E747F22043A558DFF86C80E3585D1B75
:1055700047F28C43E058FDF7D9F804F5E9430646B5
:105580000A901B6803EBC50547F20C43E758002F50
:1055900009DD294630460822D8F8003098474035C2
:1055A0000836013FF3E70AA8FDF726F9002247F283
:1055B0009443E25447F288420020A358013BA35091
:1055C00047F28442A358013BA3502BB0BDE8F08FB3
:1055D000749E06087C8D060884040220F8B50446F3
:1055E00000F5E94003680BB1FDF706F947F28C437B
:1055F000E05808B1FCF7E2FF47F29043E05808B1E9
:10560000FCF7DCFF47F27443E05808B1FCF7D6FF23
:1056100047F27C43E05808B1FCF7D0FF04F5E745BA
:1056200004F5E647002604351C373B789E420ADA2B
:10563000286C08B1FCF7C2FF286808B1FCF7BEFF70
:1056400001361035F1E747F27843E05818B1BDE86C
:10565000F840FCF7B3BFF8BD03681A78194401603D
:1056600002EB022002EB00207047036830B59A7805
:1056700003EB81015D7812041C78016042EA052089
:10568000204330BD10B54468E41A002C06DD0068E4
:10569000A2420344A8BF22460B6000E0002210464D
:1056A00010BD73B50C46064600F082FA054664B19B
:1056B0003046FDF73BF8028A02AB2260428A43F88B
:1056C000040D18466260FDF797F8284602B070BDD9
:1056D0002DE9F04F91B0054600F06AFA0446002823
:1056E00040F09D812846FDF721F847F21C330890D1
:1056F000C35C012B03D147F20A42845424E0032BFC
:1057000001D0012461E047F21E32825C012AF8D107
:1057100047F22232825C012AF3D147F21F32825CC7
:10572000012AEED147F22332825C012AE9D147F205
:105730001D32825C012A0CD147F22132825C012A9F
:105740001BD147F20A41425447F2144283500823C6
:1057500031E0022AD5D147F22133C35C012B1FD19E
:1057600047F20A43C254042247F21443C2501022A3
:1057700047F21C43C25008220EE0022AC1D1032284
:1057800047F20A43C254042247F21443C25008228B
:1057900047F21C43C250102247F22043C25042E15C
:1057A000022BAED1042247F20A43C25447F21443FB
:1057B0000622C250102347F21C42835047F2204277
:1057C000835030E10CA8FDF717F8089B13B108A827
:1057D000FDF712F8002C40F02481284610AEFCF7AB
:1057E000A5FF47F2094246F8280D835C002B00F024
:1057F00010813046FDF700F82846FCF797FF47F286
:105800001C3210AB865C43F8240D1846FCF7F4FFFD
:10581000042E00F00681B44213DA01232246284602
:1058200019460BF039F9002840F0FB800823224686
:10583000022128460BF030F9002840F0F2800134B4
:10584000E9E72846FCF772FF0790079814F058FD27
:10585000079C002840F07E8104F5E64104F5E6430C
:10586000753193F8742004F5E643097877338A425A
:105870001B7800F26C811AB9002900F0868166E17C
:1058800004F5E6412D310978012940F0608143B1EA
:1058900004F5E641013B76310978994200F06F81C9
:1058A00055E1BE4B009304F5E84ABD4B10220021A0
:1058B0000CA81B680AF1480A98470023049304F5D2
:1058C000E843049A44331B689A42BEDAB44B04F5A9
:1058D000E84B102200211B6808A898470BF1400BE9
:1058E00000230393DBF80030039A9A4261DA04F54F
:1058F000E84334331B683BB104F5E84338331B6895
:1059000013B9204616F034F8002704F5E84904F5E9
:10591000E64309F148093E462D3301970593DAF82D
:105920000030019A9A423BDA59F8043F2046009D24
:10593000029310AB029A029903EB820858F8103CCC
:1059400058F8202C3B443244A847002840F0FF8000
:10595000059B1B78012B05D158F8203C013348F8F2
:10596000203C19E0029B013623441D4603F5E64323
:105970001D331B789E420FD105F5E645013795F89A
:1059800021309F4209BF58F8203C0646F61848F8D7
:10599000206C04BF06463746019B01330193BEE7E6
:1059A00004F5E8439A6B013A9A63039B013303932E
:1059B00098E704F5E64292F82D302D32012B05D000
:1059C00003F5E64311462D33E2180CE004F5E643F7
:1059D00010AA2E331B7802EB830353F8102C0132EC
:1059E00043F8102C11E08A420FD011F8013F10A8A3
:1059F00000EB8300234403F5E64393F8215050F86D
:105A0000103C2B4440F8103CEDE7049B0133049319
:105A100055E714F075FC04463046FCF7EDFE2046D1
:105A2000B8E00120B6E047F21C43018A468AC2581A
:105A3000531E0B4493FBF2F347F20C42835047F2A0
:105A4000204287587A1E324492FBF7F247F2104701
:105A5000C25147F28442865047F28842002686505F
:105A600047F20A42875C47F224420FB9012600E060
:105A7000042686500F314FF6F0720A4047F2244157
:105A8000415801FB02FB47F2284240F802B047F2BE
:105A9000144286585E4347F21843C65008A8FCF7E4
:105AA000ABFEF001FCF76AFD8146B001FCF766FD34
:105AB00080463046FCF762FD06465846FCF75EFD20
:105AC000FB1E8246012B06D858460093FCF756FD74
:105AD000009B074600E00027B9F1000F3FF411AE2C
