:020000040800F2
:1000000078390720E10200088D4201080BF0000852
:10001000694201089D130008BB940108000000001C
:100020000000000000000000000000001D020008A9
:10003000832F000800000000790200080D67010806
:10004000FB020008FB020008FB020008154D010836
:10005000FB020008FB020008FB020008FB0200088C
:10006000FB020008FB020008FB020008FB0200087C
:10007000FB020008FB020008FB020008FB0200086C
:10008000FB020008FB020008FB020008FB0200085C
:10009000FB020008FB020008FB020008FB0200084C
:1000A000FB020008FB020008FB020008FB0200083C
:1000B000FB0200083D6B0108FB020008FB02000880
:1000C000FB020008FB020008FB020008FB0200081C
:1000D000FB02000865720108FB020008FB02000831
:1000E000FB0200083D4B0108FB020008FB02000870
:1000F000FB020008FB020008FB020008FB020008EC
:10010000FB020008FB020008FB020008FB020008DB
:10011000FB020008FB020008FB020008FB020008CB
:10012000FB020008FB020008D1260008FB020008C1
:10013000FB020008FB020008FB020008FB020008AB
:10014000FB020008FB020008FB02000891420108C4
:10015000FB020008FB020008DD260008FB02000885
:10016000FB020008FB020008FB020008FB0200087B
:10017000FB020008FB020008FB0200080000000070
:10018000FB020008FB020008FB020008FB0200085B
:10019000FB020008FB020008FB020008FB0200084B
:1001A00095320108FB020008FB020008FB02000870
:1001B000FB020008FB020008FB020008FB0200082B
:1001C000FB020008FB02000800000000FB02000820
:1001D000FB020008FB020008FB020008FB0200080B
:1001E000FB020008FB020008FB020008FB020008FB
:1001F000FB020008FB020008DFF80CD000F0C0FA98
:1002000000480047E19F03087839072030BF72B6E5
:10021000704762B6704780F3088870472D4B1968A5
:100220000868B0E8F04F80F30988BFF36F8F4FF094
:10023000000080F311887047000000000848006843
:10024000006880F308884FF0000080F3148862B6DD
:1002500061B6BFF34F8FBFF36F8F00DF00BF00BFEA
:1002600008ED00E0DFF80C00016841F47001016066
:10027000704700BF88ED00E0EFF30980BFF36F8F98
:10028000144B1A681EF0100F08BF20ED108A20E9E9
:10029000F04F106009B44FF0500072B680F311882F
:1002A000BFF34F8FBFF36F8F62B645F013FE4FF071
:1002B000000080F3118809BC19680868B0E8F04FA5
:1002C0001EF0100F08BFB0EC108A80F30988BFF34E
:1002D0006F8F7047D8000220EFF305807047000051
:1002E0000648804706480047FEE7FEE7FEE7FEE7D0
:1002F000FEE7FEE7FEE7FEE7FEE7FEE76D680108C2
:10030000F90100082DE9F05F0546002092469B4662
:1003100088460646814640241BE02846414647461B
:10032000224600F0D6F853465A46C01A914110D3DF
:1003300011461846224600F0BDF82D1A67EB010859
:100340004F4622460120002100F0B4F817EB0009C7
:100350004E41201EA4F10104DFDC484631462A4606
:100360004346BDE8F09F10B5441A0346944209D2B3
:100370008418114403E011F8013D04F8013D521EB8
:10038000F9D210BD40EA0104A40703D009E010C966
:10039000121F10C3042AFAD203E011F8014B03F82C
:1003A000014B521EF9D210BDD2B201E000F8012B70
:1003B000491EFBD270470022F6E710B513460A46E5
:1003C00004461946FFF7F0FF204610BD421E12F802
:1003D000013F002BFBD111F8013B02F8013B002B40
:1003E000F9D1704730B505462A460B4612F8010B85
:1003F00013F8014B08B1A042F8D01CB1002802D07C
:100400006D1CF1E7284630BD10B5044604E00B78BA
:1004100000F8013B03B1491C521EF8D2204610BD22
:10042000421C10F8011B0029FBD1801A704710B53F
:10043000002200E0521C835C8C5CA34201D1002BA3
:10044000F8D1D8B2E1B2401A10BD30B50446002050
:10045000034600E05B1C934203D2E05CCD5C401B92
:10046000F8D030BD034611F8012B00F8012B002A0B
:10047000F9D118467047A0E8004FF0C040F804DBFF
:1004800001B5AFF30080BDE8024001C10020704714
:1004900000F12C080C4658F8040DAFF3008058F812
:1004A000040D8546200008BF012038E9F00018E956
:1004B000004F7047202A04DB203A00FA02F10020A6
:1004C00070479140C2F1200320FA03F31943904092
:1004D0007047202A04DB203A21FA02F000217047FD
:1004E00021FA02F3D040C2F120029140084319469C
:1004F000704700000FB4002300B589B00CA900912B
:100500000B996FF00042CB601E4B06931E4B079376
:100510000423CDE901321D4A089202466B460020B1
:1005200000F0DAF909B05DF814FB70B586B0064644
:100530004FF0FF300091CDE90101002015460C4637
:1005400004903246694604A8FFF7D4FF0246049897
:10055000211825B108B1084600E02046286004981B
:1005600000280DD0002A02DD0098884208D0081B20
:100570000094CDE901043246694604A8FFF7BAFFAA
:1005800006B070BD110B00082F0B0008A50700086E
:100590002DE9FE4F81EA030404F0004421F00041FC
:1005A00000944FF0000B23F0004350EA01045ED0AA
:1005B00052EA03045BD0C3F30A54C1F30A552C4436
:1005C000A4F2F3340194A0FB0254C1F3130141F4EB
:1005D0008011C3F3130343F4801301FB024400FBB7
:1005E000034E840A970A44EA815447EA8357A4FBDE
:1005F000076802958D0A05FB07854FEA932C04FBDB
:100600000C542705029D4FEA065847EA1637B5EB0A
:1006100008056EEB070C870E920E47EA811742EA37
:100620008312A7FB0201B6EB0B0164EB00042B0D58
:1006300043EA0C335E1844EB1C50DA465146E7FBA4
:100640000201C5F313044FEA0B3343EA14534FEA94
:100650000432019C43EA0603A4F10C040294009CBA
:10066000CDE900B400F083FA03B0BDE8F08F0020BC
:100670000146F9E72DE9F04D81EA030404F0004B4F
:1006800021F0004514464FF0000A23F0004150EAE3
:10069000050220D054EA01021DD0C5F30A570246D4
:1006A000C5F31303C1F31300C1F30A5640F48015D8
:1006B00043F48013A7EB0608101BD64608F2FD385A
:1006C00073EB050002D308F1010801E092185B41C9
:1006D000B8F1000F03DA00200146BDE8F08D0020DC
:1006E0004FF48011064684460EE0171B73EB050796
:1006F00005D3121B63EB050306434CEA010C4908C2
:100700004FEA300092185B4150EA0107EDD152EAFE
:10071000030012D082EA040083EA0501084305D0F1
:10072000101BAB4106D20122002306E000224FF04D
:10073000004302E06FF0010253101AEB06004CEB8D
:10074000085110EB0A0041EB0B01BDE8F04D00F041
:10075000FFB970B521F0004303430CD0C1F30A5533
:100760000024D5EB040564EB0403D617AD1AB3419E
:1007700002DB0020014670BD201841EB025170BD24
:10078000064C074D06E0E06840F0010394E80700DE
:1007900098471034AC42F6D3FFF732FDA8FF0B08A0
:1007A000C8FF0B08C0B24FF4F05100F02FBA0000A0
:1007B0002DE9FF4F087883B09946FF2805D0491CE2
:1007C0002D2804D00024002008E000200BE00124A4
:1007D000F9E700EB800003EB4000491C0B78FF2B8E
:1007E000F7D104B1404200230293147819461D4604
:1007F0002D2C01D02B2C04D1521C2D2C13D00024D5
:100800000294AA461478FF2C0FD00A25A3FB057882
:1008100001FB05814FF0000C03FB0C11521CE31986
:100820004AEB0101EEE70124EAE7814453EA0100C3
:1008300002D019F5C87F06DA03980021C0E900113B
:1008400007B0BDE8F08F0025AE4E2F46DFF8B88226
:10085000184600F0EFF9CDE90001B9F1000002DA25
:10086000C9F1000400E004460023A74A1AEB030B79
:1008700042EB045A12E0E00707D02A4633463846D6
:100880004146FFF785FE074688462A46334610460E
:100890001946FFF77DFE05460E466410002CEAD18E
:1008A000DDE90001B9F1000F5A46534606DAFFF7B9
:1008B000E1FE3A464346FFF7DDFE05E0FFF768FE3E
:1008C0003A464346FFF764FE029A0AB181F00041BE
:1008D000039AC2E90001B3E72DE9FF4F1F468DB02F
:1008E000D7E901464FF0FF382E2045464FF000096A
:1008F0000B90B9696D1C0E988847396A8246884703
:100900000028F6D1BAF1FF3F0AD024F4D064002EBB
:1009100011DDBAF12B0F08D0BAF12D0F0BD102E087
:10092000404611B08DE744F48064B9696D1C0E989F
:1009300088478246761E6946600501D52D2000E075
:100940002B208DF8000001F1010B0DF1200809E0CA
:10095000B9696D1C0E98884782460F9844F400745C
:10096000761E0560002E02DDBAF1300FF0D00B9933
:100970008A453ED144F0800406E00F99681CA9F135
:10098000010944F400740860B9696D1C761E0E9864
:10099000884782463028F0D02BE00B998A4505D154
:1009A000200603D444F08004761E18E0504633F04D
:1009B00029FA08B30DF11301761E44F400748B4537
:1009C00008D2AAF130000BF8010B200607D5A9F1D7
:1009D000010003E0200602D409F101008146A005D0
:1009E00002D50F99681C0860B9696D1C0E9888477C
:1009F0008246002ED1DC53E0002E51DDBAF1650FA6
:100A000002D0BAF1450F4BD1A00549D5B9696D1C8B
:100A100024F44074761E0E9888478246002E0CDD22
:100A20002B2804D0BAF12D0F07D144F48074B96992
:100A30006D1C0E9888478246761EE00501D52D2153
:100A400000E02B2108F8011BCDF82C8021E00DF1EE
:100A50002901761E44F4007488450CD2AAF13000B6
:100A600010F0FF0088F8000002D10B99884509D9E1
:100A700008F1010806E0E00501D5244801E042F252
:100A80000F708146B9696D1C0E98884782460F9891
:100A90000560002E04DD504633F0B4F90028D6D1AD
:100AA000F9690E988847FF208BF8000088F800004D
:100AB0000020069007904B466A4608A906A8FFF753
:100AC00077FEA00502D46FF001002AE714F0240F8E
:100AD0000AD0E00714D1DDE906123868031D3B6037
:100AE0000068C0E900120BE0DDE9060100F0AEF895
:100AF0000146E00704D13868021D3A6000680160D1
:100B000028460EE7000014400000F03FF1D8FFFF38
:100B1000426842B1016811F8013B23B1521EC0E99D
:100B20000012184670470121C160881E7047426854
:100B30005AB1C368016843B983688B4205D0491E26
:100B4000521CC0E90012002070474FF0FF30704780
:100B500010B5141E73F1000408DA401C41F10001C5
:100B600092185B411A4301D120F0010010BD2DE91C
:100B7000F04D92469B4611B1B1FA81F202E0B0FA13
:100B800080F220329046FFF795FC04460F4640EA7B
:100B90000A0041EA0B0153465A46084313D0114656
:100BA00053EA010019D0C8F140025046FFF791FC0A
:100BB00005460E46504659464246FFF77BFC084321
:100BC00005D0012004E020463946BDE8F08D002024
:100BD000054346EAE0762C4337430A986305E40A66
:100BE000A0EB08000022FD0A44EA47540A3002D56F
:100BF00000200146E9E7010510196941DDE90845D2
:100C000000196941BDE8F04DA2E700007F2801D935
:100C1000002208E0064A02EB5002C007127800D119
:100C2000120902F00F0201209040084070470000B6
:100C3000D8EB0B080EB540F2334202920022CDE908
:100C400000221346FFF793FF03B000BD01F00043FD
:100C500030B421F0004150EA010206D00A0DA2F59D
:100C60006072C1F31301002A02DC30BC002070471F
:100C7000440F44EAC104C100E01830BC00EBC2508C
:100C8000AFF300800029A8BF7047401C490008BF8F
:100C900020F00100704710B4B0FA80FC00FA0CF0AC
:100CA00050EA010404BF10BC704749B1CCF12004E4
:100CB00021FA04F411FA0CF118BF01212143084371
:100CC000A3EB0C01CB1D4FEA00614FEA102042BF9D
:100CD000002010BC704700EBC35010440029A4BF93
:100CE00010BC7047401C490008BF20F0010010BC38
:100CF000704770B58C1810F8015B15F0070301D12F
:100D000010F8013B2A1106D110F8012B03E010F86E
:100D1000016B01F8016B5B1EF9D12B0705D4002391
:100D2000521E0DD401F8013BFAE710F8013BCB1A33
:100D3000921C03E013F8015B01F8015B521EF9D528
:100D4000A142D8D3002070BD1CB519F01DFB03468D
:100D5000044A0020009001900721034805F064F93F
:100D60001CBD0000092F030814890B081CB50021C5
:100D7000054A0346054800910191112105F054F9F7
:100D8000BDE81C4019F0C8BFAD2F0308D8890B0877
:100D900038B5456804460146284618F027FD002866
:100DA0002BD02068304A11280DD006DC0B2825D026
:100DB0000E2833D00F2852D112E0282849D0B0F5A0
:100DC000107F4CD108E09268002A16D021462846B0
:100DD00001B0BDE830401047214628465268F7E789
:100DE000284604F0D7FC0090406E0468684604F082
:100DF00041FD002C01D02846A04738BD284604F00C
:100E0000C9FC0090683004F0F1FB009803216C30BD
:100E100004F0FAFB684604F02DFD20E0E168486824
:100E200009680D2902D0202913D105E0002810DD22
:100E300028462BF004FA06E0002804DD2846BDE829
:100E400038402BF0FCB92846BDE8384002212BF091
:100E50000CBAE06818B90021284600F0F3F92046E2
:100E6000BDE8384019F04AB9E4120220F0B585B067
:100E70000AAC94E8E0000024CDE90246CDE9005731
:100E8000049400F033F805B0F0BDF0B585B00DF175
:100E9000280C9CE8F0004FF0000C8DE8F01000F0FA
:100EA00025F805B0F0BDF0B5044685B08069B4F909
:100EB0000850668A0027CDE90265CDE90017049045
:100EC000B4F90C00B4F91060C118B4F90A00B4F90F
:100ED0000E50104433462A4600F008F80546616873
:100EE00000F0E8F905B02846F0BD00002DE9F04F0C
:100EF00085B01F46DDE911B4DDE90E5690468946FE
:100F0000824606F05BFB16484C34CDE90204CDE97D
:100F100000563B4642464946504619F037F8040011
:100F200018D004F037FC10225946049018F044FE03
:100F3000049830220B493430FFF715FA094D049913
:100F40000C3D2868486604A804F094FC28684168B1
:100F50002046884708F0AAFB05B02046BDE8F08F80
:100F6000910D0008F0120220F0B5044680688B490C
:100F700089B051F82050606800287DD0052804D041
:100F800006287AD0122879D1AEE0E86900284FD03F
:100F900095E80E008DE80F0004F110010FC909F06B
:100FA00025FB002655F8260007F055FBA169E869E6
:100FB0000A1A216901446069304405F0F1FCA16915
:100FC000E8690A1A21690144E069801B05F0E8FC20
:100FD000E169E8690A1A616901442069304405F051
:100FE0007BFDE169E8690A1A61690144A069801B17
:100FF00005F072FD761C022ED4DBA86807F02BFBEF
:10100000E069E9696669431A206942183144801C25
:10101000521E05F0D5FDE169E869A2690B1A616904
:101020000144101A401C921E05F0CAFDEE6913E03F
:101030005FF0000655F8260007F00DFBE069831B02
:10104000A069821B606981192069304405F0FAFCAF
:10105000761C022EEEDB0226D5E90301CDE9000164
:101060006169E06908444310A069891C821B2069FA
:10107000304405F059FC02E089E012E08AE0D5E94D
:101080000501CDE90001E36960690121184401EB24
:101090006001A0699B1E821B2069304405F044FC5E
:1010A00078E0206804F076FB049020681AF06EFD6A
:1010B00040B1A06808B1002008E00498006F28B192
:1010C000012003E00498406F00B10220049901EB75
:1010D0008000C56E04A804F0CDFB00231A46284604
:1010E000216805F013F955E0206804F053FB0490E3
:1010F000866EEEB3B0F95C70A168D1B3032942D01B
:101100005FF0000100EB8101406D0C6C07F0E0FA2C
:10111000204607F0A0FA05A805F014FEBDF814104B
:10112000A88B0144ADF81410BDF81810081AADF8DA
:101130001800BDF81600801CADF81600BDF81A00A6
:10114000801EADF81A000498B0F96020B0F95E1066
:1011500005A806F00DFF04A804F08CFB022007F0A0
:1011600021FC304604F016FB3A4605A9079001E041
:101170000BE006E005F00EFA0DF11C0004F07AFB1E
:1011800008E00121BEE70221BCE704A8F6E72068D9
:101190001AF0E6F809B00020F0BD0000CCD10B0831
:1011A00038B504F0F7FA04460090684604F062FB94
:1011B000204638BD38B505004FF000040DD006F0CC
:1011C000FDF9284604F0E6FA0090408EC0F30024B2
:1011D000684604F04FFB08F069FA204638BD70B548
:1011E00016460C46054619463046049A05F050F856
:1011F000024621462846BDE8704000F088B800004D
:10120000044A0349116004494A6A4862104670471B
:1012100020130220E4120220F012022038B50D46FD
:1012200004000ED006F0CAF9204604F0B3FA00908C
:101230004565684604F01EFB204619F0E9FC08F0FD
:1012400035FA38BD4FF480720029114601D018F0EC
:1012500062BB18F0A3BA08B50023009300F001F8B0
:1012600008BD70B516460C46054619463046049A28
:1012700005F02EF8024621462846BDE8704000F0F1
:1012800046B8000038B50C46054606F097F92846E2
:1012900004F080FA0090064984654166684604F0CF
:1012A000E9FA284619F0B4FC08F000FA38BD00004D
:1012B000201302202DE9FF410E4605004FF00104E6
:1012C00021D006F07BF9284604F064FA0190876E7D
:1012D00001A8009704F0CEFA3146684609F064FD93
:1012E00078B100980024B84208D0284604F052FA99
:1012F00001900099816601A804F0BCFA284619F013
:1013000087FC08F0D3F904B02046BDE8F081F8B5B9
:1013100015460C46060018D006F050F9304604F089
:1013200039FA0090032C0BD200EB84006C3004F0EF
:101330005DF9009800EB8400C566304619F068FC42
:10134000684604F097FA08F0B1F9F8BDF8B506461A
:101350000F4614464FF40060844200D904460D4DF8
:10136000012B13D02B6044F065F92A683046D3175F
:1013700035F02BFC08496B462246304635F09EFF7F
:1013800044F082F9044838600098F8BD00202860D5
:10139000E9E700006401022090DD0620FEE730B599
:1013A0004568044601469BB0284618F01FFA0028FD
:1013B0000CD020680E280BD00F2817D0262819D063
:1013C000B0F5107F0DD0204618F098FE1BB030BD50
:1013D000E16828464A68002AF8DD09681AF066FFC5
:1013E000F4E7214628462BF070FEEFE728462BF065
:1013F00035F9EBE7A06819F044F84FF4B873E168E9
:10140000984203D0A0F58072713ADFD10229DDD174
:10141000984201D1CC1E00E001246C226946284686
:1014200018F0D0FC04980019049002D00D2805D0C3
:1014300009E00398401E03900C2003E00398401C31
:101440000390012004904FF4B071284618F0B2FFC9
:10145000049A6FF00303189903EB82028958039AE8
:101460002FF0B6FA6C226946284618F0C1FC2846CF
:1014700019F0CEFB0A21284619F0CBFCA6E70000A4
:101480002DE9FF4FB9B00F46DDE9465BDDE949982C
:101490001C461646702102A8DDF820A1FEF78BFF3E
:1014A0006C211EA8FEF787FF681E0C287ED2A4F2CE
:1014B0002E6042F2E2018842F8D244225B4927A81A
:1014C000FEF751FF1EA823A980E83008CDE9214589
:1014D0000120CDF8E0A081E831085548029033980A
:1014E000359AC0EBC00134984FF4B874C0EBC0001B
:1014F0001044ADF818006C200890ADF81A80ADF8D3
:101500002C400320ADF82E0035984A4B0A38ADF830
:101510001270ADF81090ADF814600993ADF8340076
:10152000651C1093ADF81610ADF84850359B052298
:10153000C91AC91DADF84A103F4B1793C31CADF82B
:101540003020ADF85000ADF83200ADF84C204FF42B
:10155000B076ADF86820C91AADF86C00ADF84E0051
:10156000ADF86460ADF86630ADF86A100020009008
:101570000190324A042102A8399B04F055FD07006E
:1015800052D02F4918F021FC2E49384619F073FD2E
:101590002146384618F00EFF0446002118F0DFF906
:1015A00029492046FFF76EFE294600E03CE0384618
:1015B00018F000FF0446002118F0D1F92249204616
:1015C000FFF760FE3146384618F0F4FE04461F4926
:1015D00019F051FD0E21204615F083FA20462E9970
:1015E00015F094FA2046329915F03AFA204618F090
:1015F00081FC20462D9915F013FA22996FF0030211
:10160000369802EB8101219A415820462FF0E0F9EB
:10161000384619F0F9FD6C221EA9384618F0E8FB8F
:1016200038463DB0BDE8F08F0020FAE738140220BC
:101630001D9D0108A70E0008436901089F130008BB
:10164000785634FF413803089D5702089F1003085D
:1016500010B58CB0044630220B496846FEF783FE75
:1016600060680C22411E91FBF2F302FB1311022869
:101670005DF8211002D12078800703D000200CB043
:10168000084410BD0120FAE7E4D10B0830B59BB047
:101690000C46054605F092FF6C226946284618F074
:1016A00091FB06AB93E8070084E8070007F0FEFF14
:1016B0001BB030BD30B5D0E900218368032901DAC1
:1016C0000C31521E642492FBF4F092FBF4F504FBFF
:1016D00015221A24491C61430A2491FBF4F1194490
:1016E0001144D31702EB937201EBA201C21700EB76
:1016F000927201EBA20100EB80000844072190FBED
:10170000F1F201FB120030BD044A032802D242F874
:1017100020107047FDD191617047000038140220FD
:10172000014908647047000038140220022803D2DF
:10173000024A02EB800081627047000038140220E8
:101740000149C8637047000038140220054A28B1D7
:10175000012805D0022800D151637047916370477A
:101760001163704738140220F8B5446805460146F5
:10177000204618F03BF8002836D028680B2839D0CE
:101780000E2805D00F2821D0B0F5107F3CD12CE0D9
:10179000204603F0FFFF009010F8746F477868460A
:1017A00004F068F820461AF0F1F910B3E8684168CF
:1017B000002929DD0068202826D17F1CB7FBF6F020
:1017C00006FB1071204600F05DF91DE0254620461D
:1017D00003F0E0FF0090006F0468684604F04AF8E8
:1017E000002C01D02846A047F8BD294620462BF002
:1017F000A2FC09E0204603F0CDFF0090783003F012
:10180000F5FE684604F036F82846BDE8F84018F0C2
:1018100075BCF0B585B0B0F90850468A8469029667
:10182000CDE903540027CDE90017B0F90C10B0F949
:101830001050B0F90E40B0F90A00194410442B467C
:10184000224600F003F805B0F0BD00002DE9F04F8E
:1018500085B01D46DDE90E9716468A468346DDF8BB
:10186000488005F0ABFE244C0EB135B10AE020688B
:101870008068006880470646F7E72068806800684F
:10188000804705461C481D49001DC068884201D19B
:1018900047F0010708F15400194ACDE90220CDE9CB
:1018A00000972B4632465146584618F06FFB05000C
:1018B0001CD003F06FFF10220490119918F07CF9EE
:1018C0000D4904983C22091D3430FEF74CFD049864
:1018D00021680167022180F874100F21C16704A8F4
:1018E00003F0C8FF206841682846884707F0DEFEFD
:1018F00005B02846BDE8F08F7C140220785634FFEE
:10190000691700082DE9FF470446006810B11AF076
:101910003DF968B10022314850F8221060680A2869
:1019200041D007DCF0B306280DD0072854D106E0DB
:101930000122F0E712280AD019284DD137E02046BD
:101940001EF03EFB48E0204621F03CFB44E02068CE
:1019500003F020FF0290B0F9548090F85650476C85
:10196000466B02A803F086FF206800F050F881461D
:10197000684618F0DBFCBDF8001009EB05000844D0
:10198000ADF80000246A304606F0A2FE022007F0FF
:1019900009F8384606F05FFE42466946204604F0E4
:1019A000F9FD19E007E0204622F0E7FE14E088691F
:1019B00004B0BDE8F087206819F0D2FC206803F07D
:1019C000E9FE0390B0F90610B0F90220891A491C0B
:1019D000C16703A803F04EFF0020E9E758E20B08B7
:1019E00038B505004FF000040FD005F0E7FD28469C
:1019F00003F0D0FE009018B1046C284619F008F9E5
:101A0000684603F037FF07F051FE204638BD38B571
:101A1000044605F0D3FD204603F0BCFE0090C46FE1
:101A2000684603F027FF07F041FE204638BD38B571
:101A300005004FF000040CD005F0C0FD284603F06F
:101A4000A9FE009090F87540684603F013FF07F078
:101A50002DFE204638BD38B50C46050011D005F0E6
:101A6000ADFD284603F096FE0090416BA14203D0E5
:101A70004463284619F0CCF8684603F0FBFE07F0F3
:101A800015FE38BD38B50C4605001BD005F096FD97
:101A9000284603F07FFE009090F87410A1420CD904
:101AA00080F87540684603F0E5FE284619F0B0F866
:101AB0000521284619F0ADF902E0684603F0DAFE88
:101AC00007F0F4FD38BDFEB50D46040022D0002D10
:101AD00020D005F073FD204603F05CFE0190866F78
:101AE00001A8009603F0C6FE2946684609F05CF995
:101AF00070B10098B04208D0204603F04BFE019030
:101B00000099816701A803F0B5FE204619F080F81E
:101B100007F0CCFDFEBD000000B589B02421684669
:101B2000FEF749FC1920019003480068806841686D
:101B30006846884709B000BD7C1402207CB5214C62
:101B40000546216831F8220F4A8D104408804888E4
:101B5000CA8D10444880284605F0CEF82168498C8B
:101B6000ADF800104618284608F054FF3044401ED7
:101B7000ADF8040005F00EFA2168898CADF802106A
:101B80000844401EADF80600684619F08BFE04E0DC
:101B9000284602F059FD19F0FDFD0028F8D10A2D64
:101BA00004D0BDF804002168401C4884206830F847
:101BB000221F428D891A01804188C28D891A418075
:101BC0007CBD000078110220022033F00FBD000020
:101BD00070B5134D00224021284609F0D3FC114C6A
:101BE000206820F0C0002060206840F040002060A5
:101BF000FFF7EAFF00222046082109F0C3FCFFF7A7
:101C0000E3FF01222846402109F0BCFCFFF7DCFF7E
:101C10002846BDE870400022402109F0B3BC000016
:101C2000001C02400020024000B587B01148016846
:101C300041F080010160016801F0800101910168BB
:101C400041F480710160006800F4807001904020D0
:101C500002900120039004900320059002A90648F9
:101C600009F090FB08200290044802A909F08AFBC1
:101C700007B000BD30380240001C02400020024086
:101C800070B5134D00224021284609F07BFC114C11
:101C9000206820F0C0002060206840F040002060F4
:101CA000FFF792FF01222046082109F06BFCFFF7A5
:101CB0008BFF01222846402109F064FCFFF784FFD6
:101CC0002846BDE870400022402109F05BBC0000BE
:101CD000001C0240002002402DE9F041074600248C
:101CE000DFF86480D8F8000020F0C000C8F80000D9
:101CF000D8F80000C8F800001E2033F077FC00255B
:101D0000124E00224021304609F03CFCFFF75CFFF8
:101D100001223046402109F035FC6006040E4046A1
:101D2000082109F01FFC08B1641CE4B26D1CEDB27F
:101D3000082DE6D327B1FFF74BFF2046BDE8F08121
:101D4000FFF79EFFF9E7000000200240001C024060
:101D50002DE9F04105461A4F386820F0C000386080
:101D6000386840F040003860164E0022402130466E
:101D700009F008FCFFF728FF0024280605D50122FA
:101D80003846082109F0FEFB04E00022384608210D
:101D900009F0F8FB6806050E30460122402109F0E3
:101DA000F1FBFFF711FF00223046402109F0EAFB6A
:101DB000FFF70AFF641CE4B2082CDED3BDE8F08113
:101DC00000200240001C024070B5124C206820F038
:101DD000C0002060206840F04000206001222046C2
:101DE000082109F0CFFB0C4D01224021284609F0C3
:101DF000C9FB1E2033F0FAFB00222046082109F01F
:101E0000C1FBFFF7E1FE2846BDE8704000224021FB
:101E100009F0B8BB00200240001C024010B50F4C76
:101E2000206820F0C0002060206840F04000206062
:101E30000B480122402109F0A5FB1E2033F0D6FB00
:101E400000222046082109F09DFBFFF7BDFE01227C
:101E50002046BDE81040082109F094BB0020024054
:101E6000001C024070B50024174D2846296821F057
:101E7000C0012960016801600122082109F082FB8C
:101E8000022033F0B3FB114E01224021304609F00D
:101E900079FBFFF799FE09E0641CE4B2FA2C03D940
:101EA000FFF7BCFF012070BDFFF78EFE082128461A
:101EB00009F058FB0028EFD100223046402109F0FC
:101EC00061FB002070BD000000200240001C0240A9
:101ED000FEB505460F461646284609F095F8DFF888
:101EE0002CC0C5EBC5045CF8243000FB073100FBB7
:101EF00006320CEB840400202369CDE90030029007
:101F00002846E36800F0E4FAA660FEBD10780620DB
:101F10002DE9FE4F05460F4690469946DDE90D6BCB
:101F2000DDF830A0284609F06FF8114BC5EBC5016C
:101F300003EB810453F821206168E36800FB012171
:101F400008FB037C67690CFB0711646800FB042035
:101F50000AFB039202FB0702981B334600240294FB
:101F6000CDE900B0284600F0B3FABDE8FE8F0000CE
:101F7000107806202DE9FC4780460D4616461C4683
:101F8000DDE90A7904F0ECFF012821D0641B641C10
:101F9000BF1B7F1C404609F037F802461649C8EBC4
:101FA000C80051F8203001EB8001886802FB003244
:101FB000C868496906FB005303FB0121001B3B462F
:101FC000CDE900092246404600F0D4FABDE8FC877E
:101FD0000022404619210FF005F93B4622463146C2
:101FE00028460EF033FC02B04046044A1921BDE8F1
:101FF000F0470FF0F7B8000010780620751F0008B2
:10200000F0B52DED028B99B03649002236480BF021
:102010001BF83649002234480AF0F4FF31494FF4E6
:10202000B4728878A0EB800002EB40034878A0EB04
:10203000800002EB40040878A0EB001002EB4005A2
:1020400000EE103AB8EEC00A9FED298A20EE080A89
:102050008DED080A2749052201A806F081F900EE56
:10206000104AB8EEC00A20EE080A8DED100A214988
:1020700009A805220646143106F072F900EE105A3E
:10208000B8EEC00A20EE080A8DED180A194911A809
:1020900005220746283106F063F9174848229621A1
:1020A00004F084FB03F0E8F8FF2006F0D4FA4FF4C4
:1020B00034754FF4F3740521234601A82A4603F032
:1020C0004FF9052123462A46304603F049F90521F8
:1020D00023462A46384603F043F919B0BDEC028B7B
:1020E000F0BD000000DD0420E0DC042060000220E0
:1020F00035FA8E3CD8880B087881070830B589B04E
:1021000045682B4900222B480AF09EFF2A490022ED
:1021100028480AF077FF2949002326484FF48072A7
:102120000AF02EFF22498878009001A84B780A789F
:1021300023A130F0ADF840F26111284618F03AF9C9
:1021400001A914F0A4FC1C4C24A1A078009001A8C3
:102150006378E27830F09CF84FF4B071284618F0BC
:1021600029F901A914F093FC20782349401E51F865
:10217000202022A101A830F08BF84FF4B17128463D
:1021800018F018F901A914F082FC0C498878009025
:1021900001A84B780A781CA130F07AF840F263115C
:1021A000284618F007F901A914F071FC09B030BDF8
:1021B00000DD0420E0DC04206000022018DD0420A3
:1021C000CAB1BCE43A2025302E32643A25302E3292
:1021D000643A25302E32642000000000C8D5C6DAEB
:1021E0003A20323025302E32642F25302E32642FA3
:1021F00025302E32640000004C100220D0C7C6DA11
:102200003A20257300000000C4D6D6D33A202530EA
:102210002E32643A25302E32643A25302E32642034
:102220000000000038B50324009400F01DF938BD0B
:1022300038B50424009400F017F938BD38B50024EF
:10224000009400F011F938BD38B50024009400F076
:102250000BF938BD10B5054800220260426011F04C
:10226000B1FFBDE8104002480BF0CCBD4800022091
:1022700034DA04201CB543F0DDF9074805210023BA
:102280004FF40072CDE90010074804A144F0AAFB06
:10229000BDE81C4043F0F8B9341002206370755F4C
:1022A0007461736B00000000D54A03081CB5002060
:1022B000054A0621034600900190044803F0B4FE4D
:1022C000034908601CBD0000FD30030818850B0899
:1022D000EC0E02201CB50D4914220D48FEF743F800
:1022E0000B4814220B491430FEF73DF818F04CF857
:1022F0000346094A0020009001900721074803F097
:1023000093FE0A2004F03AF8FBE70000F0840B0883
:1023100048F5062004850B0869AF0208C0850B0844
:102320007CB502460E460020164D2A700024012A74
:102330000FD0AC800121698070B1012815D002282E
:1023400019D0032810D13146BDE87C400EA043F0DF
:1023500083BE35F0E7FFEFE70F4A05210F4833460C
:102360000094019403F060FE7CBD3146BDE87C40E2
:102370000BA043F071BE3146BDE87C400BA043F09A
:102380006BBE000020100220C4DAB4E6C9EAC7EB35
:10239000CAA7B0DC000000005138030884860B088F
:1023A000BCECB2E95344BFA800000000CEDECDBCB7
:1023B000C6ACCEC4BCFE00001CB517F0E5FF03465A
:1023C000044A0020009001900221034803F02CFEF3
:1023D0001CBD0000B93A030810870B0870B50C4605
:1023E00015461E460A4932460DF09AFF0949324603
:1023F00020460DF095FF084A33460649044800F090
:102400000DF832462946BDE8704003480DF088BFFC
:102410002C9606202CB406202C78062070B50024BB
:10242000104D0F4E2E60E8606961EA63002028615C
:10243000A8612864E86168626863012000EB0340DA
:102440006864286840F0010028604FF4001102E041
:10245000641C8C4202D22868C007F9D170BD00000C
:102460000002020000B00240F8B50D461446069E78
:10247000224605490DF05BFF0348002233462946FA
:10248000009400F003F8F8BD2C780620F0B5059E06
:1024900000240E4D4FF481372F60E860E96300207F
:1024A00028612864EA616B63012000EB06406864E0
:1024B000286840F0010028604FF4001102E0641C1D
:1024C0008C4202D22868C007F9D1F0BD00B00240AA
:1024D0002DE9F05F0E4617469846DDE90BABDDF8B7
:1024E000289000240EF044FC0E4D4FF4007129603A
:1024F000EE60EF63C5F810A0C5F840B0E86168F37E
:102500001F49C5F84490286840F00100286009037D
:1025100002E0641C8C4202D22868C007F9D1BDE8F1
:10252000F09F000000B002402DE9F041DDE9077C9A
:10253000069E00240E4D4FF48138C5F80080E860F7
:10254000E9632A612B640520E8616E634CEA074069
:102550006864286840F0010028604FF4001102E030
:10256000641C8C4202D22868C007F9D1BDE8F08112
:1025700000B002402DE9F0470F4690461E46DDE9C7
:10258000089A00240EF0F4FB0E4D0D492960C5F8A1
:1025900038A0EF63C5F84090686368F31F466E6427
:1025A000286840F0010028604FF4001102E0641C2C
:1025B0008C4202D22868C007F9D1BDE8F08700003C
:1025C0000002030000B0024038B514460D46049ADC
:1025D000002305490094FFF759FF22462946BDE82C
:1025E000384001480DF0A3BE2C780620064AD06280
:1025F000491EC8B2012101EB0020D061D06940F032
:102600002000D0617047000000B002401EB50023DA
:10261000FF24B4EB116F2CD080F07F40029081F04A
:102620007F40019014481349016002A9C16001A9CB
:102630004161C0F83CD04FF4803141EA0261C16190
:10264000C2F1FF0109064162002141634FF001110F
:102650004164016841F0010101604FF4001202E0A1
:102660005B1C934202D20168C907F9D1009880F03F
:102670007F401EBD0002020000B00240F0B5059E82
:102680000024124D104F2F60E8606961EA634FF437
:10269000803040EA0360E861C3F1FF000006686231
:1026A00000206863012000EB06406864286840F061
:1026B000010028604FF4001102E0641C8C4202D239
:1026C0002868C007F9D1F0BD0002020000B0024046
:1026D000014808F0F3BC000020DC0420014808F0A9
:1026E000EDBC000080DC04200168CAB2103A182357
:1026F000B2FBF3F2064B9B5CC365032A6FF309013F
:1027000002D9091D816500E08165806D7047000078
:10271000F4B70408014610B500208A6A4FF0C0746F
:102720008B69002B0ED0B3F5005F1AD062B3012A7B
:102730002AD0022A28D0032A03D1C96AC90100D5A8
:10274000012010BD1AB1012A06D0022AF9D1C96AA6
:10275000C901F6D5012010BDC96AA142FBD10120F3
:1027600010BD52B1012A0AD0022A06D0032AF7D19D
:10277000C96AA142F4D1012010BD012010BDC96A6F
:10278000C901FBD5012010BD012010BD2DE9FC4180
:102790000C46050038D004F011FF112C14D0132C76
:1027A00028460ED002F0F6FF009000F0B0FB06467F
:1027B000684603F05FF820462EF0B9FC0746002477
:1027C0001CE000F013FB1BE0284600F087F917E03F
:1027D0002146284600F09EFB019070B100782EF053
:1027E000A6FC00F0FF0801A803F044F8B84504D1A6
:1027F0002146284600F02BFB02E0641CB442E7DBD4
:10280000BDE8FC4106F052BFBDE8FC81F8B50C46BE
:10281000050018D0002C16D004F0D0FE284602F097
:10282000B9FF0090C66B684603F024F82046FDF718
:10283000F7FD421C2146304603F041F8284618F0C7
:10284000E7F906F033FFF8BD2DE9FF41456804467E
:10285000284602F09FFF0190D0F8886001A803F09D
:1028600009F80EB1012700E000272146284616F09E
:10287000BDFF002856D02068112844D006DC0B2864
:1028800063D00E2878D00F282BD14FE0212805D017
:1028900026281AD0B0F5107F23D139E0E0684168CE
:1028A00000291EDD00680D281BD130460FF04FFABD
:1028B000002806DB30460FF04AFA0146284600F0B1
:1028C000C6FA284600F07EF875E0E068012809D0D5
:1028D0000A2802D00B2871D111E00A21284618F0ED
:1028E00098FA6BE030460FF032FA002866DB30468B
:1028F0000FF02DFA0146284600F0A9FA5BE02846C1
:1029000000F060F85AE0FFB9E068007A98BB55E043
:10291000E06848B1007A08B1012100E002212846B0
:1029200018F077FABDE8FF810321F8E72E46284624
:1029300002F030FF0290D0F88400056802A802F08F
:1029400099FF0DB13046A84738E0284602F022FF33
:102950000090C06B02F0F3FF0098D0F8880017F0E9
:1029600007FC0098D0F8940002F01CFE684602F0C4
:1029700081FF23E000E016E0E068416800291DDDEA
:10298000016820290FD006DC092910D00A2915D0AA
:102990001B2904D112E0212910D022290ED028466B
:1029A000FFF7F4FEBEE7284600F0FAF806E017F05D
:1029B00047FDB04202D1284618F026FC204617F009
:1029C0009DFBAFE738B5040016D004F0F7FD2046B4
:1029D00002F0E0FE0090D0F8880040B117F0C8FB8C
:1029E00000990020C1F88800204618F011F96846C7
:1029F00002F040FF06F05AFE38BDF0B585B0B0F9E0
:102A00000850468A84690296CDE903540027CDE92F
:102A10000017B0F90C10B0F91050B0F90E40B0F931
:102A20000A00194410442B46224600F003F805B072
:102A3000F0BD00002DE9FF5F1D46DDE90F869146E0
:102A40008A4683460E9F129C04F0B8FD21496C34DF
:102A5000CDE90214CDE900784FF0FF334A465146E4
:102A6000584617F093FA04002DD002F093FE10227E
:102A70000090119917F0A0F800983822164980F8B4
:102A80008C604C30FDF76FFC134E0098361F316898
:102A9000C0F88410002180F89010C586204600F010
:102AA00015FA684602F0E6FE02F046FF05462046AB
:102AB00002F070FE0090C563684602F0DBFE3068ED
:102AC00041682046884706F0F1FD04B02046BDE885
:102AD000F09F000049280008C014022010B50446E9
:102AE00000F070F9010000D0411E2046BDE8104002
:102AF00000F0ADB9F8B50546006802F04BFE009055
:102B0000448ED0F88860684602F0B4FE06B1012613
:102B100004F00104286819F039F80EB1002006E02D
:102B20000CB1012003E008B1022000E003201B49A2
:102B300051F82010686858B302280CD0052802D03C
:102B4000122828D103E028461DF070FA23E0284619
:102B500022F0CDFE1FE06A69E8694FF0FF33801A6A
:102B6000A0F1080203EB6204421CAB69001B451094
:102B7000A3EB6206C86905F06EFD06E03219311B51
:102B8000284603F00DFF641E6D1C002CF6DA02E0EF
:102B9000286818F0E5FB0020F8BD000060E20B0893
:102BA0002DE9F14F9EB01E9800287DD004F006FD5F
:102BB0001E9802F0EFFD0B901E9817F04CFD03904D
:102BC0000B98B0F9367090F890101891C16B0A917B
:102BD00090F88C90B0F93410159100F098F9824675
:102BE0000B9804ACB0F88E101491B0F982101391C8
:102BF000C16C1291D0E90012CDE90C12D0F894B05A
:102C0000002100BF00EB8102126D44F82120491C15
:102C10000329F7D3002107AD00EB8102D26D45F8FF
:102C20002120491C0329F7D300210EAE00EB8102BD
:102C3000126F46F82120491C0329F7D30BA802F094
:102C400019FE1E9817F099FC02F0A4FD1190D0F81F
:102C5000008011A802F00EFE4FEA284042420FFA0F
:102C600088F041420CA805F083F95FEA897003D52A
:102C7000BDF83200C01B01E0BDF83600ADF83200EF
:102C80001E9817F07AFC014603980222CDE900074E
:102C90000292BDF93230BDF9302000200EF0E8FF7D
:102CA00080465FEAC97000E086E007D04046189988
:102CB0000FF0A9FA012140460FF0CAF9002708E0F9
:102CC00039460A9802F09CFE014640460EF08BFE03
:102CD0007F1C5745F4D3DFF8E890002754F82710FD
:102CE000494502D1404618F03BFB54F827203946AD
:102CF00040460FF0D7F97F1C032FEFD35FF000049D
:102D0000214655F8242040460FF016FB641C032C86
:102D1000F6D30024214656F8242040460FF053FAFB
:102D2000641C032CF6D3BBF100001FD002F032FD6F
:102D3000169030F8025B00240646012711E000BF20
:102D400006EBD40004F00701007807FA01F108420D
:102D500001D0012200E00022214640460FF0D4F9C4
:102D6000641CAC42ECDB16A802F084FD40461499CA
:102D70000FF0FDF9404612990FF0ADF94046139956
:102D80000FF0C5FA404618F03FFA40461E990FF082
:102D900005FA404615990FF053FA01211E9818F0D4
:102DA00038F81E9802F0F6FC0B90C0F888800BA84B
:102DB00002F060FD06F07AFC1FB0BDE8F08F000065
:102DC000785634FF38B505004FF000040CD004F0FD
:102DD000F5FB284602F0DEFC0090B0F9344068466E
:102DE00002F048FD06F062FC204638BD10B50446EE
:102DF000FFF7E8FF411C2046BDE8104000F027B86F
:102E0000F8B50E46040021D004F0D8FB204602F0AD
:102E1000C1FC009090F88C10D0F8885021F001048B
:102E20000EB144F00104A1420BD080F88C406846FA
:102E300002F020FD45B104F0010128460FF008F929
:102E400002E0684602F016FD06F030FCF8BD38B529
:102E50000C46050022D004F0B1FB284602F09AFC93
:102E6000009000F054F800B1401E844200DD04469A
:102E70000098B0F93410A1420BD08486684602F065
:102E8000F9FC284617F0C4FE0421284617F0C1FFBC
:102E900002E0684602F0EEFC06F008FC38BD38B5EA
:102EA0000C46050011D004F089FB284602F072FCA4
:102EB00000900487684602F0DDFC284600F006F822
:102EC000284617F0A5FE06F0F1FB38BDF8B504461C
:102ED00002F060FC01460090B0F9380010B9C86CEF
:102EE00004F0AEF80099CA6AB1F98030126800EBBC
:102EF00043001618084618F0C7FC0546684602F05D
:102F0000B9FC32462946204618F07FFAF8BDC06B5E
:102F100002F06ABD38B50D46002402F03BFC00907B
:102F2000C06B294602F06CFD0546684602F0A2FC23
:102F30001DB1284602F02EFC0446204638BD10B5CF
:102F40000021002200EB8103C3F88022491C0F29D5
:102F5000F8D300214FF4007443181A77491CA1429A
:102F6000FAD30270427001218170C0F8BC22017650
:102F700040238371427680F81C2280F81D120020C5
:102F800010BD70472DE9FC470E465FEA00097FD06F
:102F900004F014FB484602F0FDFB009090F85470DA
:102FA000D0F85880456BC46C684602F063FCB8F1F9
:102FB000000F04D0314648464246904761E0122E49
:102FC00018D006DC082E43D0102E3CD0112E06D18E
:102FD00012E0132E21D01D2E43D01E2E3DD0202EC8
:102FE0004FDB17B148461CF04CF8B1B2484627F009
:102FF000F5FC60B3611C27E04DB3284602F0CAFB24
:1030000005462146019006F03FFA4419204606F095
:10301000E9F901462346012210E0C5B1284602F035
:10302000B9FB05462146019006F02EFA44192046C8
:1030300006F0D8F9014623464FF0FF3248461AF011
:1030400066FB01A81BE0611E484600F0A9FA18E0E3
:10305000BCB1611E484600F0A3FA48461CF011F8C6
:103060000FE0484602F096FB0090012F12D001219C
:1030700080F854102146484600F092FA684602F063
:10308000F9FB484617F0C4FD00E001E006F00EFB36
:10309000BDE8FC87002180F85410EFE77CB5456857
:1030A0000446284618F072FD06462146284616F0CA
:1030B0009DFB002844D020680F283DD004DC0B285D
:1030C0003FD00E2860D147E0A0F58070133804D0BF
:1030D000A0F580702D3857D11DE0284617F07AFFF3
:1030E000284602F057FB009010F8561F81F00401AB
:1030F0000170684602F0BEFB002128462AF038FA2B
:10310000284602F047FB0090D0F88400002117F019
:1031100038FF68461DE0E06860B1017A29B10168B6
:10312000284600F0EEF8012100E00221284617F0C1
:1031300070FE29E00321F9E7012128462AF018FA58
:103140007CBD284602F026FB0190343002F04EFA96
:1031500001A802F08FFB17E0B6B1E06841680029D2
:1031600012DD01681B290FD006DC09290CD00A29C1
:103170000AD00D2904D107E0212905D0222903D046
:103180002846FFF7FFFE7CBD204616F0B7FF7CBD4A
:10319000F0B587B00DF1300E9EE8F0104FF0000E44
:1031A0008DE8F05000F002F807B0F0BD2DE9F04FC7
:1031B00085B01F46DDE91254DDE90E6A9046894666
:1031C000834604F0FBF90DF1040C4AF480501F49CA
:1031D000603400968CE813003B4642464946584608
:1031E00016F0D4FE04002AD002F0D4FA1022049083
:1031F000119916F0E1FC0498242215496030FDF77E
:10320000B2F8049A012082F85500681C00D0012011
:1032100082F88800002D00DC08252DB215870020DB
:103220005087506304A86D1C02F024FB29462046F9
:1032300026F026FE18B9204616F09AFF002406F064
:1032400035FA05B02046BDE8F08F00009D3000083B
:10325000F81402200148806870470000F81402202A
:1032600038B504000DD004F0A9F9204602F092FA16
:103270000090846E684602F0FDFA06F017FA2046C8
:1032800038BD002038BD38B505004FF000040BD024
:1032900004F094F9284602F07DFA0090846C6846A8
:1032A00002F0E8FA06F002FA204638BDF8B51546F5
:1032B0000C46060013D004F081F9304602F06AFA99
:1032C000009038B1032C05D200EB840085673046AE
:1032D00017F09EFC684602F0CDFA06F0E7F9F8BD5B
:1032E00070B50D46044604F069F934B1294620460C
:1032F00000F056F9204617F08BFCBDE8704006F050
:10330000D5B92DE9F04186B00C46060055D004F041
:1033100055F9304602F03EFA0090406B98B302F047
:1033200039FA03900098806E05F0D2F98046304655
:1033300017F091F90746039803F057FE05460098E9
:1033400090F8601001F00301012916D002290DD078
:10335000416EC06A00680844241A641E039807F08E
:103360003DFB0146002C0FDA002115E0781B401CC4
:1033700000EBD070A4EB6004F0E7406E791B081AF4
:10338000241A641CEAE713E0AC4205DC024621463D
:10339000039807F0C3FA0146304600F001F903A88C
:1033A00002F068FA404605F093F9304617F030FC19
:1033B000684602F05FFA06F079F906B0BDE8F081E0
:1033C0002DE9F8431C46DDE9085690460F46814634
:1033D00004F0F4F8B9F1000044D002F0DBF923491D
:1033E000009081652249C1650021C0E91271E0E9C0
:1033F0000F84012105728676017690F84C7068463C
:1034000002F038FAAFB12946204624F0E2FF044624
:103410002946404624F0DDFF0DB1401C641CF10735
:1034200000D0641C844200DD20460146484600F07E
:1034300037F848462DF032FF484602F0ABF90090CD
:1034400000F099F80B490978884205D10098C16CC1
:103450004846491C00F0A4F8684602F00BFA4846BA
:1034600017F0D6FB06F022F9BDE8F8830DCB010872
:103470009D1203086411022038B50D4604000ED0D9
:1034800004F09CF8204602F085F9009085662046FD
:1034900017F0BEFB684602F0EDF906F007F938BDFB
:1034A0007CB50C46060033D004F088F8304602F0B4
:1034B00071F90090B0F93810458FA14223D012DD88
:1034C000406B80B102F066F9019007F087FAA042E4
:1034D00006DD2146019805F0D7FF019A002111541D
:1034E00001A802F0C7F9684602F0C4F9611B304632
:1034F000491C26F0C5FC304602F04CF900900487C8
:10350000304617F085FB684602F0B4F906F0CEF8B5
:103510007CBD38B50C4605000FD004F04FF82846A6
:1035200002F038F9009018B10466284617F070FBD5
:10353000684602F09FF906F0B9F838BDF8B51546AF
:103540000C46060013D004F039F8304602F022F998
:10355000009038B1032C05D200EB8400C5663046DC
:1035600017F056FB684602F085F906F09FF8F8BDA3
:1035700000222DF0F7BA38B50546406B002468B13B
:1035800002F008F900900446E96C05F07DFF204444
:1035900005F028FF0446684602F06CF9204638BD65
:1035A0001CB50C4602F0F6F80090406BF0B102F04A
:1035B000F1F8019007F012FA009991F8542002B145
:1035C0000122002C00DA0024844200DD0446B1F917
:1035D0003800801AA04200DA0446C86CA04200D02D
:1035E000CC640020086501A802F044F9684602F0A6
:1035F00041F91CBD70B5044620680F2806D01D286F
:103600000CD02046BDE8704016F078BD6FF07F40CA
:1036100005F021F8BDE8704002F0BABC606840F6E1
:10362000011116F0C7FE05461649284613F018FA90
:1036300015A1284613F02BFA606840F6021116F027
:10364000B9FE05461849284613F00AFA17A128467C
:1036500013F01DFAFF21284613F058FA606840F66F
:10366000031116F0A7FE04460F49204613F0F8F99F
:1036700013A1204613F00BFA2046BDE87040FF214D
:1036800013F044BAA8D10B08466F6E7420557064CD
:10369000617461696E672C506C6561736520576158
:1036A00069742E2E2E000000A8BE0B08657261738F
:1036B0006520636869702E2E2E2E2E2E00000000CD
:1036C00030250000704730B5D1E901230D681A4359
:1036D000D1E9033423431A434B691A438B691A43D4
:1036E000D1E90734496A012D08D005686FF30E054A
:1036F0001A4322430A432A4302600BE0056825F47B
:10370000F845234329430B4341686FF30E010A43F5
:1037100003604260002030BD426942EA41014161DC
:103720000020704708B5D1E900231A438B68C968A7
:103730005B1E5B0143EA41210A430092009901614B
:10374000002008BDF0B54B680C685B1E4D69641E17
:1037500044EA03148B686D1E5B1E44EA0326CB68A3
:103760000C6989695B1E641E491E012A0DD082689E
:1037700002F0704246EA033343EA044343EA055346
:1037800043EA01611143816010E08268084F3A40CA
:103790001B0343EA05531343C26802F0704246EA32
:1037A000044444EA016111438360C1600020F0BD1C
:1037B000FF0F0FFF2DE9F04389B0984615460F46DD
:1037C00006004FF000042CD000F0D0FB0446304639
:1037D00000F0B3FB814603F0F1FE03A9304600F090
:1037E000E6FCF80706D0BDF91C008221001B401B37
:1037F000401C08E0B807BDF91800284402D540F283
:10380000022100E002210096CDE9018123461A46FB
:103810004946FDF72BFB0446002116F0A0F805F001
:1038200045FF09B02046BDE8F083000010B5052330
:10383000FFF7C0FF0446054A0021FDF70CFD0449CF
:10384000204617F018FC204610BD0000E5FC0108DA
:10385000E930030810B50723FFF7ACFF0446054A1B
:103860000021FDF7F8FC0449204617F004FC20462F
:1038700010BD000031FE01086537030810B50823AC
:10388000FFF798FF0446054A0021FDF7E4FC0449D0
:10389000204617F0F0FB204610BD000061FE010835
:1038A0009B3703082DE9F047044640688EB0002797
:1038B000804601F06FFF0090B0F87CA0D0F86890CF
:1038C000D0F88060D0F88850C06D00B107686846B5
:1038D00001F0D0FF05E0696820468847002843D101
:1038E0002D68002DF7D12068172853D00CDC0F2845
:1038F0003DD004DC0B2877D00D2825D18BE0112892
:1039000010D0142820D13BE0262846D004DC1E2805
:1039100051D0202818D18AE02A2816D0B0F5107F7F
:1039200012D128E04046E56801F034FF0290697A40
:1039300039B9297A012904D130F87C1F41F480710A
:10394000018002A801F096FF75E0404601F022FFD9
:103950000090E16811B1C0F8841002E0D0F8840052
:10396000E060684601F086FF0EB0BDE8F087D7B38F
:103970004046B8475FE02146404629F013FCF3E794
:1039800005A9404600F013FCE0680699016007991C
:103990004160E9E7C4F80C90E6E7E0680228E3D16B
:1039A000CDF83080E0680D9027200A900AA9A06821
:1039B00018F0FCFAD8E7E068012804D0002140465E
:1039C00000F01BFBD0E7304617F08BF968B13046AA
:1039D00017F01AFC304617F043F898B10121304631
:1039E00015F099FF0EE026E02FE0484617F060FC46
:1039F0000646404601F0CEFE0090C0F88060684662
:103A000001F038FF0121404600F0F7FA002EABD15B
:103A10000020E060A8E75FEA0A700CD4E068C068A4
:103A200048B1007A38B1404617F0EEFB03E021467A
:103A3000404628F061FC2146404615F0D7FE00289C
:103A400092D0204616F05AFB8EE7404601F0A2FEC7
:103A50000090703001F0CAFD684673E7F0B587B09A
:103A6000B0F908400DF10C0C0C9E876945688CE894
:103A7000F000448A0025CDE900150294B0F90C103D
:103A8000B0F91050B0F90E40B0F90A0019441044D2
:103A90002B46224600F002F807B0F0BD2DE9F04FAA
:103AA0008BB09846DDE9155691468A468346149FA9
:103AB0001A9C03F083FD3348603445F48055CDE90A
:103AC0000204CDE9007543464A465146584616F071
:103AD0005DFA04004FD001F05DFE3022049017998A
:103AE00016F06AF80498282227493430FCF73BFC8A
:103AF00004981999244F4166A0F87C600026C0F80C
:103B00008060C666083FC0F888607968C16504A80F
:103B100001F0B0FE05A9204600F049FB1B4841F228
:103B2000827103960094CDE90110BDF91E00BDF924
:103B30001A10BDF91C20431ABDF918005B1C121A9B
:103B4000521C16F023FA06467868416820468847DA
:103B5000204601F01FFE0490866604A801F08AFE4C
:103B600042F20400054202D1204616F079FB2046BD
:103B7000189900F087FA05F099FD0BB02046BDE8D2
:103B8000F08F0000A538000824150220B544000875
:103B90002DE9F041044694B0006800F0B7F908B18F
:103BA000D94D01E0D84D2C35606815281ED00CDCAD
:103BB0000B281FD004DC00287ED005287DD12FE102
:103BC0000E287BD01228F9D141E1162806D01728FB
:103BD00008D0182808D01C28F0D109E0E86914B0F2
:103BE000BDE8F081286AFAE7686AF8E7A86AF6E7AC
:103BF0006869F4E720680B901C200C90206801F0A5
:103C0000C9FD0390016D0BA88847064603A801F083
:103C100031FE022E0FDB95E807008DE80700D4E99E
:103C200004023346A16906F0A7FC20698719A06940
:103C3000A0EB06082CE0286804F00DFD2169E86976
:103C40000A18521E606902F0ABFEA269E869111AF7
:103C5000491C606902F0A4FED4E904077F1C3946C0
:103C600002F0CAFE3946A06902F0C6FE686804F098
:103C7000F2FC20693946401C02F0BEFEA0693946BC
:103C8000401E02F0B9FEA0692769A0F10208BF1C1E
:103C9000286804F0E0FC42463946606902F080FE84
:103CA000686804F0D8FC606942463946401C02F05E
:103CB00077FE686A022802E015E1B0E000E10BDD62
:103CC000A86804F0C8FC61696A6A881C8B18014600
:103CD000424638465B1E27E0296AB14226DD60690C
:103CE000022E074600F1020801DB374401E007F12C
:103CF0000207206901DB304401E000F10200226983
:103D00003B460A444146A2F1010202F059FF022E4D
:103D100002DBA069821B01E0A269921EA069E96929
:103D20003B46401A4146401C02F04AFF022E02DB8D
:103D30006069064401E06669B61CE76928687F1E71
:103D400004F089FC3A463146206902F0C5FE3A4645
:103D50003146A06902F0C0FEE7696868BF1E04F042
:103D60007AFC20693A463146401C02F0B5FEA06953
:103D70003A463146401E02F0AFFEE869022802DCF6
:103D8000286A022823DDA86A022802DDE1690F1AE9
:103D900001E0E769BF1EA86804F05DFCE96902293B
:103DA00009DD20693B46421800F1020C31466046AD
:103DB000521E02F005FF286A022808DDA269E869A0
:103DC0003B46101A3146401C921E02F0F9FE28684C
:103DD00004F041FCD4E90620216902F0E1FD6868A5
:103DE00004F039FCD4E906202169401E491C521E0A
:103DF00002F0D6FDA86A022811DDA1692669E469EE
:103E0000A1F10208271AA41EB61C7F1CA86804F0A2
:103E100022FC234642463946304602F0D1FE71E08C
:103E2000208A00B2ADF81400A18A09B2ADF81610CC
:103E3000228B12B2ADF81820A38B1BB2ADF81A304A
:103E40002C69ED68CDE9005402F06EFD5AE0208A3D
:103E5000298B0844ADF81400A08AADF81600208B19
:103E6000298B401AADF81800A08BADF81A00206815
:103E700001F090FC0390006FF0B1022004F092FD7D
:103E8000039890F87C10C1F3C00100EB8100006C36
:103E900004F0E1FB0398406B04F01AFC0398006FF8
:103EA00001F078FC03990990B1F95A2005A902F0B4
:103EB00071FB09A801F0DEFC03A801F0DBFC21E0A6
:103EC000208AADF81400A08AADF81600208BADF85A
:103ED0001800A08BADF81A00A86804F0BCFB05A878
:103EE00002F09AFE0EE0206801F054FC039030F8D6
:103EF0005A1F41F00C01018003A801F0BBFC2068AF
:103F000017F02EFA00206AE6F018022038B50500F6
:103F10004FF000040FD003F051FB284601F03AFCAB
:103F2000009090F87C00000700D50124684601F05D
:103F3000A1FC05F0BBFB204638BD38B505004FF0AD
:103F4000000411D003F03AFB284601F023FC009056
:103F5000C06D002180680268284690470446684684
:103F600001F088FC05F0A2FB204638BD30B587B0D3
:103F700005004FF0000413D003F020FB01A92846F0
:103F800000F015F9284601F005FC0090B0F9544006
:103F9000684601F06FFC0CB9BDF9044005F086FBE2
:103FA00007B0204630BD10B5040008D003F006FB72
:103FB000204627F007FDBDE8104005F077BB10BD97
:103FC00010B5040008D003F0F9FA204627F049FDA7
:103FD000BDE8104005F06ABB10BD10B504000BD061
:103FE00003F0ECFA20462BF0BBFC20462BF08CFCB7
:103FF000BDE8104005F05ABB10BD70B50D46040079
:1040000009D003F0DBFA294620462BF039FDBDE844
:10401000704005F04BBB70BD2DE9FC410D4680465C
:1040200003F0CCFAB8F1000028D001F0B3FB019006
:10403000C16D8C6800F022F907460198456301A81C
:1040400001F018FC2268012140469047064622688C
:10405000032140469047054622680021404690478C
:104060000446404600F0EFF92B46324639464046BA
:10407000009400F078F9404616F0CAFD05F016FBF2
:10408000BDE8FC817CB50D4604001DD003F096FA16
:10409000204601F07FFB0090006F0190684601F020
:1040A000E9FB294601A806F07FFE58B1204601F041
:1040B00071FB009001990167684601F0DBFB204627
:1040C00016F0A6FD05F0F2FA7CBD38B50C460500E9
:1040D00013D003F073FA284601F05CFB0090B0F9AE
:1040E0005A10A14204D0A0F85A40284616F090FD7C
:1040F000684601F0BFFB05F0D9FA38BD38B50C466B
:10410000050015D003F05AFA284601F043FB0022BF
:10411000CDF8000000EB8201521C0C64022AF9D396
:10412000684601F0A7FB284616F072FD05F0BEFABE
:1041300038BD2DE9FC470D465FEA00094FF0000449
:1041400032D003F03BFA484601F024FB0190B0F96D
:104150005440A54223D000F091F8804601980121F7
:10416000A0F85450C06D856848462A6890470746B5
:104170002A6803214846904706462A680021484697
:1041800090470546484600F05EF933463A464146B8
:104190004846009500F0E7F8484616F039FD01A8BA
:1041A00001F068FB05F082FA2046BDE8FC872DE9A6
:1041B000F34F85B000270C46B846059801F0EAFA9F
:1041C0000090C06D0121856805982A689047824655
:1041D0002A6803210598904704902A6802210598CF
:1041E000904703902A68002105989047064600985A
:1041F00017F04AFB8346009817F04DFB8146009864
:1042000090F83210890601D5B0F9588000F036F8E0
:1042100005460098C06E10B116F034FA07462580A6
:104220006780A4F804A0049AABEB020006EB080236
:10423000401E2A4420813A44E280039BA9EB0302FA
:10424000521E6281A4F80CA020827019E681401EE3
:104250006082684601F00EFBB4F90C000190B4F9DD
:104260001000029002AA01A9059800F039F80198FF
:10427000A0810298208207B0BDE8F08F10B50146FA
:10428000002091F83220920607D5B1F95400002899
:1042900003D1486B02F0D6FE801C10BD70B58AB009
:1042A0000C46054601F076FA0990C06D866809A8AB
:1042B00001F0E0FA009534B1012C06D0022C0BD0AD
:1042C000032C04D10AE0182000E016200190716848
:1042D000684688470AB070BD1520F7E71720F5E754
:1042E0002DE9FC4117468846044601F053FA009038
:1042F000C16D056868468E6801F0BCFA326800211D
:10430000204690470646204616F07CF827E000BF7E
:1043100001F040FA0190B0F900102AB2B0F904306F
:10432000891A9A1AB0F90230A3EB2543B34210D18F
:1043300090F82800000605D53868884209DB491E38
:10434000396006E0D8F80000904202DC521CC8F840
:10435000002001A801F08EFA204616F001F90400B1
:10436000D6D1BDE8FC812DE9FF4F83B00E4607464C
:10437000DDF8409001F00EFA0190C16D8D68FFF7F5
:104380007DFF044601A801F075FA2A68012138462C
:10439000904783462A6803213846904782462A6818
:1043A0000021384690470546B44207D105998B4510
:1043B00004D106998A4501D14D4541D0A41B002660
:1043C000B046384616F01EF838E001F0E3F90090E8
:1043D000806A010601D5800502E0810528D5000626
:1043E000002825DB24B122461146384616F04FFD41
:1043F000009890F8280000060AD50698A5EB090257
:10440000A0EB0A0004FB16013846761C16F0F2FCFD
:104410000098008D80050BD50599A5EB0902ABEB43
:10442000010004FB080108F10108384616F0E2FC1F
:10443000684601F01FFA384616F092F80700C4D11A
:1044400007B0BDE8F08F70B586B0064601F0A2F95E
:104450000590D0E91A4505A801F00CFA54EA0500C8
:1044600026D069463046FFF7A2FEACB1BDF9062062
:10447000BDF90410204616F081FCBDF90A00BDF913
:104480000610421ABDF90800BDF90410521C411A69
:104490002046491C16F0B9FF002D09D0BDF90600D1
:1044A000BDF90210421ABDF90410284616F066FC48
:1044B00006B070BD2DE9F0430446406889B005465A
:1044C00016F05BF8814601F065F90290D0F848805B
:1044D000D0F88070466E02A801F0CCF92068172849
:1044E00052D008DC0E2839D00F2811D014284BD018
:1044F00015283CD148E01E281DD01F2829D022288D
:104500003FD0312833D10020E06009B0BDE8F0830E
:104510001F494046884503D00CF01AFE01F038FDD3
:10452000002EF2D0D4E902122068CDE90405CDE9CD
:10453000061204A81FE0E0680028E6D02FB1AF42C1
:1045400003D0384616F060FEDFE7284616F0B0FECE
:10455000DBE72146484615F049F9D6E7E0684168AF
:10456000002904DD00680928EFD00A2805D05EB1D3
:104570002046C4F80490B047C7E7284616F0CCFEA2
:10458000C3E7C4F80C80C0E7204615F0B7FDBCE7D0
:10459000785634FF10B5044620460EF0DEFA1F4967
:1045A0000AF0A3FC1D4920460EF00DFC0121204617
:1045B0000EF003FC012120460EF002FC14212046DF
:1045C0000EF03AFC142120460EF0B1FC0C232046DC
:1045D0001E2113A20DF0DCFF0C232046962111A210
:1045E0000DF0D6FF0C232046462110A20DF0D0FF7F
:1045F0000C23204646210FA20DF0CAFF0C232046B3
:1046000096210EA20DF0C4FF012120460EF0F5FB0D
:104610002146BDE810400BA040F09AB820090508DB
:10462000D0F20000C3FBB3C600000000C0E0D0CD54
:1046300000000000B4F3D0A100000000C8D5C6DA25
:1046400000000000303A000010B504460A2812D0DD
:104650000D2C14D002F0B2FF09480068C06901684F
:10466000204688470748016809B120468847BDE8C9
:10467000104005F01BB8BDE8104001F0E1BE10BDD0
:1046800078110220C01102202DE9F0430446C568CC
:1046900087B090468946002004F00DF8064625B103
:1046A000287910B146F0020001E026F0020004F083
:1046B00002F82069012558B1D4E902128DE82600DC
:1046C000039563882288046841464846A0471EE057
:1046D000124F134B214638681B68427CE0689847AC
:1046E00030B9E088012801D0002001E03868806BF3
:1046F000A288E388A1680095CDE90410CDE90232D3
:10470000019563882288414648460BF0B5FE07B004
:104710003046BDE8F04303F0CEBF00007811022020
:104720006811022070B514460E4605460119001B9B
:1047300000F0CEFE22463146284621F0F9FFBDE8C2
:10474000704000F0A1BD00002DE9FF4F43F6FF745B
:104750000F46664283B09B46814600210BE000BFB6
:1047600009EB8100B0F90200A04200DA0446B04231
:1047700000DD0646491CB942F2DB67480068406923
:1047800000280DD0B0F906101A46A1EB0B01B1427A
:1047900000DA0E46B0F90200801AA04200DD04469D
:1047A000B4E0DFF878A100200546CAF8000088E0F0
:1047B000781E854201DA6B1C00E0002309EB850CB2
:1047C00009EB8302BCF90200B2F90210A04244D105
:1047D000A14215D139F92330059A39F9251003EB97
:1047E000020C4D4A05981268084404EB0B01526E06
:1047F0006045136801DA62462AE00246604627E017
:104800002846A4464FF000087A1E0BE008B1401E6F
:1048100000E0781E09EB8003B3F90230634504D150
:1048200008F101089045F1DB2346A34248D01A1B4A
:1048300039F92500A1EB040C059B92EA0C0F09D471
:10484000354A184404EB0B011268526E1368024695
:10485000984735E017F0C4FC32E0A14230D001DBCC
:10486000A04203DDA0422BDBA14229DCE0468842C6
:104870000ADC0346A04223DC0846A14220DBB8F94B
:1048800000C0B2F9001008E00B46A14218DCA042BB
:1048900016DBB2F900C0B8F90010E21AA1EB0C0166
:1048A00051430029A0EB030202DD01EB620102E0AB
:1048B000A1EB6201491CC01A91FBF0F06044C9E70A
:1048C0006D1CBD42FFF674AF0598009004EB0B0021
:1048D000019000208046054613E01149B8F1000F11
:1048E00031F915A009D0009901EB0A0208440A49E0
:1048F0000968496E0B680199984788F0010850468D
:104900006D1C064909688D42E7DB641CB4427FF7E1
:1049100048AF07B0BDE8F08F78110220541702208D
:1049200058F806200E4810B5006803F089FE0D48BF
:10493000006803F090FE012004F016F8002004F057
:1049400021F8002004F02EF8002003F0B4FE064801
:10495000006803F0BDFEBDE81040002003F014BF66
:1049600074110220701102206C11022010B5CB08C6
:1049700000EB8300036A49070F24C90E8C40A34350
:104980000362036A8A401343036210BD2DE9F04FAE
:10499000DDE9098900244FF0010A4FF0030B0AFA00
:1049A00004F701EA0705BD4236D1D0F800C0650022
:1049B0000BFA05F62CEA060CC0F800C0D0F800C0CF
:1049C00002FA05FE4CEA0E0CC0F800C0012A01D024
:1049D000022A19D1D0F808C02CEA060CC0F808C089
:1049E000D0F808C008FA05FE4CEA0E0CC0F808C062
:1049F000D0F804C02CEA070CC0F804C0476803FADA
:104A000004FC47EA0C074760C768B743C760C6683D
:104A100009FA05F52E43C660641C102CBFD3BDE80F
:104A2000F08F00002DE9F04389B04448016841F05F
:104A300080010160016801F080010191016841F489
:104A400080710160006800F4807001904FF0800870
:104A5000CDF80880002403940127049703250595C9
:104A6000DFF8DC9002A9484606F08CFC3E02029674
:104A7000039702A9334F384606F084FCFDF7D4F8BB
:104A800000223146384606F07DFD0A2006F068FC1B
:104A900001223146384606F075FD0A2006F060FC1A
:104AA000CDF8088003940494059502A9484606F0C1
:104AB00069FC642006F054FC042248F2401007A967
:104AC00000F05AF88DF8204007A91FA02DF0D0FB68
:104AD0002049087840F080001F4A527D02F0010210
:104AE000104308701DA107A8FBF7A1FC18B1012015
:104AF00009B0BDE8F08302208DF81C0048F24005A3
:104B00000122284607A900F029F90122E81D07A97A
:104B100000F032F89DF81C10602902D211A02DF08F
:104B2000A7FB0A2006F01CFC8DF81C40012207A9F7
:104B3000284600F013F90020DAE700003038024080
:104B4000001C0240002002404354502049443A25B2
:104B5000730D0A00C0E00420C8D80420393134376E
:104B60000000000044656661756C74205665723AF9
:104B700025640D0A000000002DE9F04104460D46B1
:104B80001646FDF721F92820FDF7E2F8FDF76AF94E
:104B9000200AFDF7DDF8FDF765F9E0B2FDF7D8F87A
:104BA000FDF760F9FDF710F92920FDF7D1F8FDF7C1
:104BB00059F90024771E09E0BC4201D0012000E031
:104BC0000020FDF789F82855641CE4B2B442F3D301
:104BD000BDE8F041FDF722B92DE9F14783B000248B
:104BE000A2465A4D2878401CC0B228704FF00A09DE
:104BF000574EB0FBF9F109FB1101002901D00A2839
:104C00007CD248F24E180122404603A9FFF7B4FFB8
:104C10009DF80C004FF00007010609D500F00F00C9
:104C2000062805D20197012201A9404600F096F816
:104C30009DF80C0001076CD000F00F00062868D228
:104C4000FF218140C8B2019096F83480C04340F003
:104C5000C000B086B089B082308C30854FF0010A38
:104C6000B08E0AFA04F108422DD03A48042202A973
:104C700030F81400FFF780FF96F84400C00710D00A
:104C80009DF809109DF8080000EB012106EB440097
:104C900081819DF80B209DF80A1001EB022101840F
:104CA00011E09DF809109DF8080000EB012106EBCA
:104CB000440001849DF80B209DF80A1001EB0221AD
:104CC000C1F588718181641CE4B2052CC8D34FF012
:104CD000010A2149B2893046CB8A9A4203D8028C14
:104CE000098B8A4214D99DF80C1001F00F0101299B
:104CF00005D9C1898181418C01842F7009E0818AA5
:104D00008181018D018480210391A0F8348000E02D
:104D10002F709DF80C0000F08F0080280DD1B08E10
:104D2000010603D520F08000B08606E04FF6FF7143
:104D3000B181318400F0E000B0862878F02801D9F4
:104D400085F8009004B05046BDE8F087A800022026
:104D50007CE004206CBC0408C8D804202DE9F04194
:104D600004460E4615460027FDF72EF82820FCF7CE
:104D7000EFFFFDF777F8200AFCF7EAFFFDF772F87E
:104D8000E0B2FCF7E5FFFDF76DF8002409E0305DC7
:104D9000FCF7DEFFFDF766F80746380003D1641C18
:104DA000E4B2AC42F3D3FDF739F83846BDE8F08100
:104DB000014AC2E90001704704110220014AC2E918
:104DC000000170470C110220014AC2E9000170473E
:104DD00014110220014AC2E900017047BC120220EE
:104DE0002DE9F04FDFF828B191B04FF0FF35DBF837
:104DF0000030B3F922100691DE69B3F92490F4690A
:104E0000A189814206D8E289824203D3471AD4F8A5
:104E1000008012E0D4E9018100296FD00A88824223
:104E20006CD84D88854269D3801A82B2486800EBFD
:104E30008200B0F90070B0F90250781C5ED0307E6C
:104E4000A17C10FB01FA217CCDE90701B3F92A60AE
:104E500030460CF0E3F9C0B20E90DBF8000007FB1F
:104E60000A81A37C826B0127CDE90412CDE902738C
:104E7000C069089AC17E807ECDE90001DDE90603A4
:104E800049460BF0F9FA681C18D046F002000CF005
:104E9000C5F9DBF80000A37C05FB0A81826BCDE934
:104EA0000273CDE90412C069089AC17E807ECDE903
:104EB0000001DDE9060349460BF0DEFADBF80000ED
:104EC0005D46C069417E007E814214D9022E12D017
:104ED00086F004000CF0A2F92868C069027EC37E47
:104EE00012FB0391437E857E089A06984B4412FB81
:104EF00005020BF0ABFC0E980CF090F9DBF800000B
:104F0000627C418C1144418411B0BDE8F08F0000F7
:104F10007811022004480068C069C06909B1027CA8
:104F20000A60407C7047000078110220022008804F
:104F30007047C06982898A4202D8C2898A4210D2E7
:104F4000806880B102888A420DD843888B420AD398
:104F5000406800EB8100A0EB8200B0F9000000285F
:104F600001DB012070470020704700002DE9F0436D
:104F7000304C034687B020681946B0F92A60C069F2
:104F8000C06900F00DF9002850D041680088181A57
:104F900001EBC0053046AF780CF040F9814620683F
:104FA0006A680123816BCDE90237CDE90421C1692B
:104FB000CB7E8A7ECDE900230B7EB0F924102A78BF
:104FC000B0F922000BF058FA2068C069417E027ED9
:104FD00091421FD9C07E11FB00F812FB00F7022E90
:104FE00018D001F0B4FE064601F07AFE03F033FB60
:104FF00021682A78CB69B1F92200DB7E12FB03021B
:10500000B1F9241001EB080339440BF01FFC3046C2
:1050100003F021FB48460CF001F920686A78C36967
:10502000B0F922109B7E12FB0311418407B0BDE84A
:10503000F08300007811022030B50F4C05460B4676
:1050400020682946C069C06900F0AAF8002812D07B
:105050004168008824682A1A0120E46900EBC20034
:10506000085CA47E10FB04F0002B04D011F8321071
:1050700011FB04F1196030BD781102200120088075
:10508000704700B5C06900F08BF8002800D00120FF
:1050900000BD00002DE9F04387B00146314E306875
:1050A000B0F92A50C069C06906E002888A4202D875
:1050B00042888A4202D280680028F6D100284ED069
:1050C000446801F05BFE94F8028028460CF0A6F8D4
:1050D00007463068244A0123816BCDE90238CDE9C7
:1050E0000421C169CB7E8A7ECDE900230B7EB0F915
:1050F00024102278B0F922000BF0BEF93068C069A4
:1051000090F8198090F81890C8451CD9C07E08FB0B
:1051100000F809FB00F9022D15D001F018FE054634
:1051200001F0DEFD03F097FA31682278B1F9220030
:10513000B1F92410024401EB080349440BF086FB4B
:10514000284603F088FA38460CF068F83068627830
:10515000C369B0F922109B7E12FB0311418407B092
:10516000BDE8F0837811022084D206200B4909683B
:10517000CB69D96906E00A88824202D84A8882420D
:1051800002D289680029F6D129B14868997E007851
:1051900010FB01F0704700207047000078110220DA
:1051A00006E002888A4202D842888A4202D2806897
:1051B0000028F6D1704700002DE9F0410025154E7A
:1051C000154C18E02069C5EB451700EB87007422E9
:1051D000001D3168FBF7C7F82069002140F827104F
:1051E00000EB870000F10C018161011D0A1DC0E97F
:1051F0000F126D1C4164A0688542E3DB24F0D6F9F0
:105200002169C0EB401001EB8000001D3060BDE85B
:10521000F0810000781102205C12022070B5104964
:105220000E480860084605F07DFD0D4C143CA06852
:10523000C0EB40108500284600F0F4F9094B2061CE
:105240002A461B68002198474FF0FF30206004F089
:1052500099FABDE8704024F0A9B9000015C402080D
:10526000701202202C17022002490020096881F8E0
:10527000690070477811022002490120096881F80D
:10528000690070477811022010B522F0F3F8044845
:10529000016A04480068416600F10801416110BDDF
:1052A000C4100220781102202DE9FC4714460D4657
:1052B000064602F083F9284FDFF8A0803868B0B1C5
:1052C000D8F80000C16C006D0E440544002016F0B3
:1052D000E9FA60B13B682246294630469847814644
:1052E00016F058FA0028F5D1B9F1000F30D016F0B9
:1052F00071FA064416F07CFA0544D8F8000090F8DC
:10530000691021B990F868104E434D434C43301B4F
:1053100000F07EF8ADF80000301900F079F8ADF833
:105320000400281B00F074F8ADF80200281900F002
:105330006FF8ADF80600684616F0B4FA06E02246AB
:1053400029463046FFF7EEF916F024FA0028F6D188
:1053500004F0ACF9BDE8FC87BC10022078110220F3
:105360002DE9FC471D4616468946824602F026F97D
:10537000244F254C3868B8B12068C16C006D0E44CC
:105380000544002016F08EFA70B1D7F800C02B4605
:10539000324649465046E047804616F0FBF9002861
:1053A000F3D1B8F1000F28D016F014FA064416F025
:1053B0001FFA0544002016F075FAF0B1134F20686B
:1053C0001221407C57F820000190C068426A01A871
:1053D00090475FEA000C06D033464A465146009596
:1053E0000198E04705E02B4632464946504621F0F9
:1053F00013FA16F0CFF90028E1D104F057F9BDE80F
:10540000FC8700000011022078110220AC1102205C
:105410000449096891F8681009B190FBF1F000B2F5
:1054200070470000781102202DE9F041224C05461A
:105430000E462068002788B920480068E06110B94E
:105440000BF0EEFAE06100F0EDF8206080B31A494D
:105450001B4824310860084605F064FC19480068C0
:10546000854200DA0546E169731B4A1E20469342D5
:1054700001DD6E18761EAE4201DA2E460127124C6F
:105480002268516E4B68836301620B490F4B3431C4
:105490000B60516602C880E8620018F0C5F917F089
:1054A00033FE054821682C3048613846BDE8F0815C
:1054B000FFE70127D2E70000C4100220C811022034
:1054C00059C30208CC11022078110220E14B0208D6
:1054D000044A126892F8682090FBF2F091FBF2F116
:1054E000FFF7A2BF781102200249096881F868001D
:1054F00017F00ABE78110220F8B50C0005460ED050
:1055000002F05CF8204600F01BF8060010D000F016
:1055100041F92246009025B12946074B03E00020BF
:10552000F8BD064B00211B689847684600F0A2F9B9
:1055300004F0BCF83046F8BD301702202C170220CA
:1055400010B5040009D002F039F8204617F03CFCF1
:10555000044604F0ABF8204610BD002010BD00004A
:1055600038B5054602F02AF82846FFF7E9FF04009F
:105570000AD000F00FF9064B00902A461B68002164
:105580009847684600F076F904F090F8204638BD58
:105590002C170220024A106021F00300506070476F
:1055A00030F6062010B5040011D002F007F80848C4
:1055B000042101EBC401406B4158486816F02EFEEF
:1055C000204628F001FDBDE8104004F06FB810BD82
:1055D00070F50620002805D0034AD16B016001B1A7
:1055E0004860D0637047000070F5062010B504468F
:1055F00001F0E4FF2068FFF7D5FF00202060BDE840
:10560000104004F053B8000070B50D460646002463
:1056100005E000BF06EB8400FFF7E8FF641CAC4226
:10562000F8DB70BD2DE9F041044625F041F828482B
:10563000E41C24F00305016C2D1DA94200D90D4680
:10564000C46B13E054F8042CAA420ED184B1216833
:1056500009B162684A60616809B122680A60C26B78
:10566000A24231D12168C1632EE02468002CE9D127
:105670008046816BC0680F1857F8040C3E1A3068DA
:1056800038B100202AF0F0F857F8040C3E1A3068C0
:10569000D0B97068A84217DB3044441B3046241D43
:1056A0002AF09AF8D8F80C10491BC8F80C10D8F852
:1056B00014102944C8F814107068401B02D03146F9
:1056C00016F0ACFD44F8045C2046BDE8F081000013
:1056D00070F5062010B5002424F0EAFF0C490F20D5
:1056E00001EBC002526C1AB101EBC000406C08E043
:1056F000401EF5D508E04168A14200D90C468068FB
:1057000010B180680028F6D1A4F10C0010BD000093
:1057100070F5062000B5020010D0094B5969D86811
:105720000844106000F018F8906000F00BF850602A
:10573000D868D060586910619868506100BD000059
:1057400070F50620034800680C38002800DC0020B3
:105750007047000070F506200248C1680068081A0A
:105760007047000070F50620002138B1044904227A
:1057700002EBC000496B085841680C390846704775
:1057800070F5062002488169491C8161704700005C
:1057900070F506200549CA69521CCA61496B01EBC4
:1057A000C0010A78521C0A7000F07CB870F506201F
:1057B0007CB506460C460846FFF7C2FE050021D020
:1057C00006B33046FFF7D0FFA04200DA044601F0EE
:1057D000F5FE2846FFF7DEFF00903046FFF7DAFFC0
:1057E000094B019001461B6822460098984768467D
:1057F00000F040F801A800F03DF83046FFF7D2FE77
:1058000003F054FF28467CBD3017022010B501F08C
:10581000D5FEFFF75FFF64220849B0F5800F04D979
:1058200090FBF2F4086A444303E0096A4143B1FB88
:10583000F2F403F03BFF204610BD000070F5062097
:1058400006490A680649904205D94A68B0EB520FEA
:1058500002D3500800E01046886070474C110220C7
:1058600030F6062002488169491E816170470000B8
:1058700070F506200A4902684B6B52F8082C03EBBE
:10588000C2021378022B03D3CB690BB15B1ECB6131
:105890001178491E11700021016008467047000010
:1058A00070F506200349042202EBC000496B08583A
:1058B0000830704770F5062050F8080C70472DE945
:1058C000FC414FF000060B465FEA000834462BD03F
:1058D00032B111461846FFF70FFE060000D1012431
:1058E0004046FFF757FF0090078845686846FFF776
:1058F000C1FFCCB9B9002846091DFFF759FF0500C3
:1059000015D0FFF747FF019040F8276001A8FFF787
:10591000B1FF4046FFF73EFF009045600188491CFB
:1059200001806846FFF7A6FF2046BDE8FC813046AF
:10593000FFF738FE0124F7E70820FFF711BE7CB51A
:10594000050023D0FFF726FF00904068C0B1FFF7A5
:1059500021FF0024019005E0019800EB8400FFF78F
:1059600045FE641C00980088A042F5DC01A8FFF702
:1059700081FF0098001DFFF739FE00990020088084
:105980006846FFF777FF2846FFF70CFE7CBD7CB525
:105990000C46FFF7FFFE00900188A14220D9456820
:1059A000F5B101F00BFE2846FFF7F4FE019000EB85
:1059B0008400FFF71BFE00990888401E80B2088013
:1059C000401E019905E001EB8402526841F8242051
:1059D000641C8442F7DD01A8FFF74CFF03F066FE6C
:1059E0006846FFF747FF7CBD38B5002430B1FFF7AC
:1059F000D1FE009004886846FFF73CFF204638BD82
:105A000038B50D46002448B1FFF7C4FE2946009082
:105A100000F050F804466846FFF72CFF204638BDDA
:105A200038B50D46002448B1FFF7B4FE2946009072
:105A300000F052F804466846FFF71CFF204638BDC8
:105A40002DE9FF4107460E46154600241046FFF794
:105A500087FD009038B33846FFF79CFE3146019031
:105A600000F03AF802900098FFF794FE104B039074
:105A70002A461B680299984702A8FFF7FBFE03A875
:105A8000FFF7F8FEDDE90020314600F02FF818B1ED
:105A90006846FFF7ABFD03E00098FFF77BFE044686
:105AA00001A8FFF7E7FE04B02046BDE8F081000042
:105AB0003017022038B50D4601880024A94209D9C3
:105AC000406838B1FFF766FE009050F82540684600
:105AD000FFF7D0FE204638BD10B50024FFF7EAFFDF
