:020000040800F2
:1000000060060720E1020008FD3201085BE40008F9
:10001000D9320108350B0008F78301080000000001
:100020000000000000000000000000001D020008A9
:1000300083260008000000007902000843570108E9
:10004000FB020008FB020008FB0200084D3D01080E
:10005000FB020008FB020008FB020008FB0200088C
:10006000FB020008FB020008FB020008FB0200087C
:10007000FB020008FB020008FB020008FB0200086C
:10008000FB020008FB020008FB020008FB0200085C
:10009000FB020008FB020008FB020008FB0200084C
:1000A000FB020008FB020008FB020008FB0200083C
:1000B000FB020008FD5A0108FB020008FB020008D1
:1000C000FB020008FB020008FB020008FB0200081C
:1000D000FB020008C5610108FB020008FB020008E2
:1000E000FB020008753B0108FB020008FB02000848
:1000F000FB020008FB020008FB020008FB020008EC
:10010000FB020008FB020008FB020008FB020008DB
:10011000FB020008FB020008FB020008FB020008CB
:10012000FB020008FB020008D11D0008FB020008CA
:10013000FB020008FB020008FB020008FB020008AB
:10014000FB020008FB020008FB0200080133010863
:10015000FB020008FB020008DD1D0008FB0200088E
:10016000FB020008FB020008FB020008FB0200087B
:10017000FB020008FB020008FB0200080000000070
:10018000FB020008FB020008FB020008FB0200085B
:10019000FB020008FB020008FB020008FB0200084B
:1001A00005230108FB020008FB020008FB0200080F
:1001B000FB020008FB020008FB020008FB0200082B
:1001C000FB020008FB02000800000000FB02000820
:1001D000FB020008FB020008FB020008FB0200080B
:1001E000FB020008FB020008FB020008FB020008FB
:1001F000FB020008FB020008DFF80CD000F05AF9FF
:1002000000480047C54303086006072030BF72B6A8
:10021000704762B6704780F3088870472D4B1968A5
:100220000868B0E8F04F80F30988BFF36F8F4FF094
:10023000000080F311887047000000000848006843
:10024000006880F308884FF0000080F3148862B6DD
:1002500061B6BFF34F8FBFF36F8F00DF00BF00BFEA
:1002600008ED00E0DFF80C00016841F47001016066
:10027000704700BF88ED00E0EFF30980BFF36F8F98
:10028000144B1A681EF0100F08BF20ED108A20E9E9
:10029000F04F106009B44FF0500072B680F311882F
:1002A000BFF34F8FBFF36F8F62B636F09FFB4FF0F7
:1002B000000080F3118809BC19680868B0E8F04FA5
:1002C0001EF0100F08BFB0EC108A80F30988BFF34E
:1002D0006F8F7047D4000220EFF305807047000055
:1002E0000648804706480047FEE7FEE7FEE7FEE7D0
:1002F000FEE7FEE7FEE7FEE7FEE7FEE72D58010812
:10030000F90100082DE9F05F0546002092469B4662
:1003100088460646814640241BE02846414647461B
:10032000224600F0B7F853465A46C01A914110D3FE
:1003300011461846224600F09EF82D1A67EB010878
:100340004F4622460120002100F095F817EB0009E6
:100350004E41201EA4F10104DFDC484631462A4606
:100360004346BDE8F09F10B5441A0346944209D2B3
:100370008418114403E011F8013D04F8013D521EB8
:10038000F9D210BD40EA0104A40703D009E010C966
:10039000121F10C3042AFAD203E011F8014B03F82C
:1003A000014B521EF9D210BDD2B201E000F8012B70
:1003B000491EFBD270470022F6E710B513460A46E5
:1003C00004461946FFF7F0FF204610BD421E12F802
:1003D000013F002BFBD111F8013B02F8013B002B40
:1003E000F9D1704730B505462A460B4612F8010B85
:1003F00013F8014B08B1A042F8D01CB1002802D07C
:100400006D1CF1E7284630BD10B5044604E00B78BA
:1004100000F8013B03B1491C521EF8D2204610BD22
:10042000421C10F8011B0029FBD1801A704710B53F
:10043000002200E0521C835C8C5CA34201D1002BA3
:10044000F8D1D8B2E1B2401A10BD30B50446002050
:10045000034600E05B1C934203D2E05CCD5C401B92
:10046000F8D030BD034611F8012B00F8012B002A0B
:10047000F9D118467047202A04DB203A00FA02F12D
:10048000002070479140C2F1200320FA03F3194382
:1004900090407047202A04DB203A21FA02F0002124
:1004A000704721FA02F3D040C2F120029140084384
:1004B00019467047064C074D06E0E06840F001031E
:1004C00094E8070098471034AC42F6D3FFF798FE43
:1004D0001C3F09083C3F090870B58C1810F8015BF7
:1004E00015F0070301D110F8013B2A1106D110F8CD
:1004F000012B03E010F8016B01F8016B5B1EF9D1D1
:100500002B0705D40023521E0DD401F8013BFAE756
:1005100010F8013BCB1A921C03E013F8015B01F8C1
:10052000015B521EF9D5A142D8D3002070BD000056
:100530001CB518F0C7FE0346044A00200090019045
:100540000721034804F0F0FF1CBD000055FB020822
:10055000789106081CB50021054A0346054800911C
:100560000191112104F0E0FFBDE81C4019F072BBBD
:10057000F9FB0208B8CB080838B5456804460146BF
:10058000284618F0D1F800282BD02068304A1128CE
:100590000DD006DC0B2825D00E2833D00F2852D1E1
:1005A00012E0282849D0B0F5107F4CD108E09268BD
:1005B000002A16D02146284601B0BDE83040104739
:1005C000214628465268F7E7284604F063FC00906D
:1005D000406E0468684604F0CDFC002C01D028462B
:1005E000A04738BD284604F055FC0090683004F060
:1005F0007DFB009803216C3004F086FB684604F014
:10060000B9FC20E0E168486809680D2902D020297A
:1006100013D105E0002810DD284629F090F906E006
:10062000002804DD2846BDE8384029F088B928466E
:10063000BDE83840022129F098B9E06818B90021D6
:10064000284600F0F3F92046BDE8384018F0F4BC25
:1006500058120220F0B585B00AAC94E8E0000024FE
:10066000CDE90246CDE90057049400F033F805B017
:10067000F0BDF0B585B00DF1280C9CE8F0004FF00E
:10068000000C8DE8F01000F025F805B0F0BDF0B5D5
:10069000044685B08069B4F90850668A0027CDE920
:1006A0000265CDE900170490B4F90C00B4F91060AC
:1006B000C118B4F90A00B4F90E50104433462A4662
:1006C00000F008F80546616800F0E8F905B0284632
:1006D000F0BD00002DE9F04F85B01F46DDE911B4F3
:1006E000DDE90E5690468946824606F0E7F916483F
:1006F0004C34CDE90204CDE900563B46424649461A
:10070000504618F0E1FB040018D004F0C3FB10229F
:100710005946049018F0EEF9049830220B49343011
:10072000FFF721FE094D04990C3D2868486604A88E
:1007300004F020FC286841682046884708F0ECF95E
:1007400005B02046BDE8F08F79050008641202204C
:10075000F0B5044680688B4989B051F82050606834
:1007600000287DD0052804D006287AD0122879D117
:10077000AEE0E86900284FD095E80E008DE80F0044
:1007800004F110010FC909F067F9002655F8260099
:1007900007F097F9A169E8690A1A216901446069BB
:1007A000304405F07DFBA169E8690A1A216901441A
:1007B000E069801B05F074FBE169E8690A1A616968
:1007C00001442069304405F007FCE169E8690A1A30
:1007D00061690144A069801B05F0FEFB761C022EB6
:1007E000D4DBA86807F06DF9E069E9696669431A26
:1007F000206942183144801C521E05F061FCE169F9
:10080000E869A2690B1A61690144101A401C921E22
:1008100005F056FCEE6913E05FF0000655F826007F
:1008200007F04FF9E069831BA069821B6069811999
:100830002069304405F086FB761C022EEEDB022692
:10084000D5E90301CDE900016169E069084443107D
:10085000A069891C821B2069304405F0E5FA02E09A
:1008600089E012E08AE0D5E90501CDE90001E369FC
:1008700060690121184401EB6001A0699B1E821B85
:100880002069304405F0D0FA78E0206804F002FBDB
:10089000049020681AF018F940B1A06808B100204F
:1008A00008E00498006F28B1012003E00498406F2D
:1008B00000B10220049901EB8000C56E04A804F089
:1008C00059FB00231A462846216804F09FFF55E093
:1008D000206804F0DFFA0490866EEEB3B0F95C7025
:1008E000A168D1B3032942D05FF0000100EB810180
:1008F000406D0C6C07F022F9204607F0E2F805A8DD
:1009000005F0A0FCBDF81410A88B0144ADF814103C
:10091000BDF81810081AADF81800BDF81600801CB4
:10092000ADF81600BDF81A00801EADF81A00049844
:10093000B0F96020B0F95E1005A806F099FD04A892
:1009400004F018FB022007F063FA304604F0A2FA24
:100950003A4605A9079001E00BE006E005F09AF899
:100960000DF11C0004F006FB08E00121BEE70221A6
:10097000BCE704A8F6E7206819F090FC09B0002055
:10098000F0BD00001813090838B504F083FA0446D6
:100990000090684604F0EEFA204638BD38B50500F0
:1009A0004FF000040DD006F089F8284604F072FAE2
:1009B0000090408EC0F30024684604F0DBFA08F093
:1009C000ABF8204638BD70B516460C4605461946AC
:1009D0003046049A04F0DCFE024621462846BDE873
:1009E000704000F088B80000044A034911600449CF
:1009F0004A6A486210467047941202205812022038
:100A00006412022038B50D4604000ED006F056F8E8
:100A1000204604F03FFA00904565684604F0AAFAC3
:100A2000204619F093F808F077F838BD4FF480723B
:100A30000029114601D017F00CBF17F04DBE08B5C4
:100A40000023009300F001F808BD70B516460C466F
:100A5000054619463046049A04F0BAFE024621467D
:100A60002846BDE8704000F046B8000038B50C4696
:100A7000054606F023F8284604F00CFA00900649D3
:100A800084654166684604F075FA284619F05EF8F8
:100A900008F042F838BD0000941202202DE9FF4111
:100AA0000E4605004FF0010421D006F007F8284655
:100AB00004F0F0F90190876E01A8009704F05AFA4B
:100AC0003146684609F08AFB78B100980024B842A4
:100AD00008D0284604F0DEF901900099816601A84B
:100AE00004F048FA284619F031F808F015F804B077
:100AF0002046BDE8F081F8B515460C46060018D032
:100B000005F0DCFF304604F0C5F90090032C0BD251
:100B100000EB84006C3004F0E9F8009800EB8400EE
:100B2000C566304619F012F8684604F023FA07F05B
:100B3000F3FFF8BDFEE730B54568044601469BB0BB
:100B4000284617F0F1FD00280CD020680E280BD0A5
:100B50000F2817D0262819D0B0F5107F0DD02046C9
:100B600018F06AFA1BB030BDE16828464A68002ACE
:100B7000F8DD09681AF038FBF4E72146284629F029
:100B800024FEEFE7284629F0E9F8EBE7A06818F023
:100B900016FC4FF4B873E168984203D0A0F5807258
:100BA000713ADFD10229DDD1984201D1CC1E00E09B
:100BB00001246C226946284618F0A2F8049800190E
:100BC000049002D00D2805D009E00398401E039040
:100BD0000C2003E00398401C0390012004904FF484
:100BE000B071284618F084FB049A6FF0030318993B
:100BF00003EB82028958039A2DF06AFA6C22694647
:100C0000284618F093F8284618F0A0FF0A21284635
:100C100019F09DF8A6E700002DE9FF4FB9B00F4687
:100C2000DDE9465BDDE949981C461646702102A8BD
:100C3000DDF820A1FFF7BFFB6C211EA8FFF7BBFB6F
:100C4000681E0C287ED2A4F22E6042F2E201884295
:100C5000F8D244225B4927A8FFF785FB1EA823A9E9
:100C600080E83008CDE921450120CDF8E0A081E8F9
:100C70003108554802903398359AC0EBC00134983A
:100C80004FF4B874C0EBC0001044ADF818006C20ED
:100C90000890ADF81A80ADF82C400320ADF82E0076
:100CA00035984A4B0A38ADF81270ADF81090ADF88F
:100CB00014600993ADF83400651C1093ADF816105C
:100CC000ADF84850359B0522C91AC91DADF84A1028
:100CD0003F4B1793C31CADF83020ADF85000ADF872
:100CE0003200ADF84C204FF4B076ADF86820C91A48
:100CF000ADF86C00ADF84E00ADF86460ADF866304C
:100D0000ADF86A10002000900190324A042102A838
:100D1000399B04F009FC070052D02F4917F0F3FF6C
:100D20002E49384619F045F92146384618F0E0FAC0
:100D30000446002117F0B1FD29492046FFF796FE31
:100D4000294600E03CE0384618F0D2FA044600217B
:100D500017F0A3FD22492046FFF788FE31463846AA
:100D600018F0C6FA04461F4919F023F90E2120464F
:100D700014F097FE20462E9914F0A8FE20463299D2
:100D800014F04EFE204618F053F820462D9914F02A
:100D900027FE22996FF00302369802EB8101219A17
:100DA000415820462DF094F9384619F0CBF96C22C1
:100DB0001EA9384617F0BAFF38463DB0BDE8F08F9F
:100DC0000020FAE7AC130220598C01088F060008B6
:100DD00003590108370B0008785634FF81040308D3
:100DE000A93602089FE7020810B58CB004463022ED
:100DF0000B496846FFF7B7FA60680C22411E91FB69
:100E0000F2F302FB131102285DF8211002D12078C1
:100E1000800703D000200CB0084410BD0120FAE781
:100E20003013090830B59BB00C46054605F046FE68
:100E30006C226946284617F063FF06AB93E807006B
:100E400084E8070007F068FE1BB030BD30B5D0E97C
:100E500000218368032901DA0C31521E642492FBBD
:100E6000F4F092FBF4F504FB15221A24491C6143AB
:100E70000A2491FBF4F119441144D31702EB937245
:100E800001EBA201C21700EB927201EBA20100EB91
:100E900080000844072190FBF1F201FB120030BDF5
:100EA000044A032802D242F820107047FDD1916114
:100EB00070470000AC13022001490864704700002D
:100EC000AC130220022803D2024A02EB80008162A6
:100ED00070470000AC1302200149C863704700004E
:100EE000AC130220054A28B1012805D0022800D100
:100EF000516370479163704711637047AC130220D0
:100F0000F8B5446805460146204617F00DFC002858
:100F100036D028680B2839D00E2805D00F2821D0CC
:100F2000B0F5107F3CD12CE0204603F0B3FF0090D9
:100F300010F8746F4778684604F01CF8204619F0E2
:100F4000C3FD10B3E8684168002929DD0068202846
:100F500026D17F1CB7FBF6F006FB1071204600F08F
:100F60005DF91DE02546204603F094FF0090006FD8
:100F70000468684603F0FEFF002C01D02846A04715
:100F8000F8BD2946204629F056FC09E0204603F02A
:100F900081FF0090783003F0A9FE684603F0EAFF75
:100FA0002846BDE8F84018F047B8F0B585B0B0F96C
:100FB0000850468A84690296CDE903540027CDE99A
:100FC0000017B0F90C10B0F91050B0F90E40B0F99C
:100FD0000A00194410442B46224600F003F805B0DD
:100FE000F0BD00002DE9F04F85B01D46DDE90E97FC
:100FF00016468A468346DDF8488005F05FFD244C9E
:101000000EB135B10AE02068806800688047064666
:10101000F7E7206880680068804705461C481D493E
:10102000001DC068884201D147F0010708F1540053
:10103000194ACDE90220CDE900972B4632465146A8
:10104000584617F041FF05001CD003F023FF102283
:101050000490119917F04EFD0D4904983C22091D8A
:101060003430FFF780F9049821680167022180F885
:1010700074100F21C16704A803F07CFF2068416849
:101080002846884707F048FD05B02846BDE8F08FA0
:10109000F0130220785634FF010F00082DE9FF47B6
:1010A0000446006810B119F00FFD68B10022314804
:1010B00050F8221060680A2841D007DCF0B30628F7
:1010C0000DD0072854D106E00122F0E712280AD0FB
:1010D00019284DD137E020461DF0B8FB48E02046E6
:1010E00020F0B6FB44E0206803F0D4FE0290B0F993
:1010F000548090F85650476C466B02A803F03AFFB4
:10110000206800F050F88146684618F0ADF8BDF848
:10111000001009EB05000844ADF80000246A3046D1
:1011200006F00CFD022006F073FE384606F0C9FCFE
:1011300042466946204604F0ADFC19E007E020462F
:1011400021F0EDFB14E0886904B0BDE8F087206869
:1011500019F0A4F8206803F09DFE0390B0F9061082
:10116000B0F90220891A491CC16703A803F002FFE5
:101170000020E9E7A423090838B505004FF0000472
:101180000FD005F09BFC284603F084FE009018B1B8
:10119000046C284618F0DAFC684603F0EBFE07F012
:1011A000BBFC204638BD38B5044605F087FC204618
:1011B00003F070FE0090C46F684603F0DBFE07F09A
:1011C000ABFC204638BD38B505004FF000040CD00C
:1011D00005F074FC284603F05DFE009090F8754021
:1011E000684603F0C7FE07F097FC204638BD38B5C7
:1011F0000C46050011D005F061FC284603F04AFEBC
:101200000090416BA14203D04463284618F09EFC35
:10121000684603F0AFFE07F07FFC38BD38B50C46DA
:1012200005001BD005F04AFC284603F033FE009071
:1012300090F87410A1420CD980F87540684603F00C
:1012400099FE284618F082FC0521284618F07FFDFB
:1012500002E0684603F08EFE07F05EFC38BDFEB586
:101260000D46040022D0002D20D005F027FC20469A
:1012700003F010FE0190866F01A8009603F07AFE3D
:101280002946684608F0AAFF70B10098B04208D01D
:10129000204603F0FFFD01900099816701A803F04B
:1012A00069FE204618F052FC07F036FCFEBD000037
:1012B00000B589B024216846FFF77DF81920019018
:1012C00003480068806841686846884709B000BDE7
:1012D000F01302207CB5214C0546216831F8220F1D
:1012E0004A8D104408804888CA8D1044488028469A
:1012F00004F082FF2168498CADF80010461828469A
:1013000008F0BEFD3044401EADF8040005F0C2F800
:101310002168898CADF802100844401EADF8060023
:10132000684619F05DFA04E0284602F00DFD19F058
:10133000CFF90028F8D10A2D04D0BDF804002168A7
:10134000401C4884206830F8221F428D891A018091
:101350004188C28D891A41807CBD0000EC100220BA
:10136000022030F063BA000070B5134D0022402116
:10137000284609F021FB114C206820F0C0002060B5
:10138000206840F040002060FFF7EAFF002220467E
:10139000082109F011FBFFF7E3FF01222846402155
:1013A00009F00AFBFFF7DCFF2846BDE87040002289
:1013B000402109F001BB0000001C02400020024057
:1013C00000B587B01148016841F0800101600168F3
:1013D00001F080010191016841F4807101600068B1
:1013E00000F480700190402002900120039004904E
:1013F0000320059002A9064809F0DEF908200290B2
:10140000044802A909F0D8F907B000BD30380240FD
:10141000001C02400020024070B5134D0022402104
:10142000284609F0C9FA114C206820F0C00020605D
:10143000206840F040002060FFF792FF0122204624
:10144000082109F0B9FAFFF78BFF01222846402155
:1014500009F0B2FAFFF784FF2846BDE87040002289
:10146000402109F0A9BA0000001C024000200240FF
:101470002DE9F04107460024DFF86480D8F8000029
:1014800020F0C000C8F80000D8F80000C8F800003C
:101490001E2030F0CBF90025124E002240213046AC
:1014A00009F08AFAFFF75CFF01223046402109F07B
:1014B00083FA6006040E4046082109F06DFA08B16F
:1014C000641CE4B26D1CEDB2082DE6D327B1FFF722
:1014D0004BFF2046BDE8F081FFF79EFFF9E70000D3
:1014E00000200240001C02402DE9F04105461A4F41
:1014F000386820F0C0003860386840F0400038603C
:10150000164E00224021304609F056FAFFF728FF18
:101510000024280605D501223846082109F04CFA96
:1015200004E000223846082109F046FA6806050E54
:1015300030460122402109F03FFAFFF711FF002257
:101540003046402109F038FAFFF70AFF641CE4B284
:10155000082CDED3BDE8F08100200240001C0240D0
:1015600070B5124C206820F0C0002060206840F068
:101570004000206001222046082109F01DFA0C4D90
:1015800001224021284609F017FA1E2030F04EF9BA
:1015900000222046082109F00FFAFFF7E1FE284655
:1015A000BDE870400022402109F006BA0020024048
:1015B000001C024010B50F4C206820F0C0002060D5
:1015C000206840F0400020600B480122402109F0D3
:1015D000F3F91E2030F02AF900222046082109F0F4
:1015E000EBF9FFF7BDFE01222046BDE810400821BF
:1015F00009F0E2B900200240001C024070B500244E
:10160000174D2846296821F0C00129600168016052
:101610000122082109F0D0F9022030F007F9114E1B
:1016200001224021304609F0C7F9FFF799FE09E091
:10163000641CE4B2FA2C03D9FFF7BCFF012070BD93
:10164000FFF78EFE0821284609F0A6F90028EFD101
:1016500000223046402109F0AFF9002070BD0000A3
:1016600000200240001C0240FEB505460F4616460B
:10167000284608F0E3FEDFF82CC0C5EBC5045CF893
:10168000243000FB073100FB06320CEB8404002001
:101690002369CDE9003002902846E36800F098FA0B
:1016A000A660FEBDA87606202DE9FE4F05460F4632
:1016B00090469946DDE90D6BDDF830A0284608F02C
:1016C000BDFE114BC5EBC50103EB810453F821208E
:1016D0006168E36800FB012108FB037C67690CFB80
:1016E0000711646800FB04200AFB039202FB070257
:1016F000981B334600240294CDE900B0284600F040
:1017000067FABDE8FE8F0000A87606202DE9FC47A9
:1017100080460D4616461C46DDE90A7904F0A0FE17
:10172000012821D0641B641CBF1B7F1C404608F0AD
:1017300085FE02461649C8EBC80051F8203001EB7F
:101740008001886802FB0032C868496906FB0053C3
:1017500003FB0121001B3B46CDE900092246404620
:1017600000F088FABDE8FC870022404619210EF0FF
:1017700071FD3B462246314628460EF0B9F802B0CC
:101780004046044A1921BDE8F0470EF063BD000051
:10179000A87606200D170008F0B52DED028B99B044
:1017A0003649002236480AF069FE3649002234489C
:1017B0000AF042FE31494FF4B4728878A0EB800001
:1017C00002EB40034878A0EB800002EB400408786D
:1017D000A0EB001002EB400500EE103AB8EEC00A94
:1017E0009FED298A20EE080A8DED080A2749052277
:1017F00001A805F0EBFF00EE104AB8EEC00A20EE9B
:10180000080A8DED100A214909A80522064614315F
:1018100005F0DCFF00EE105AB8EEC00A20EE080A10
:101820008DED180A194911A805220746283105F03F
:10183000CDFF17484822962104F038FA03F09CF8AF
:10184000FF2006F03EF94FF434754FF4F374052190
:10185000234601A82A4603F003F9052123462A4618
:10186000304603F0FDF8052123462A46384603F0AA
:10187000F7F819B0BDEC028BF0BD000098DB042036
:1018800078DB04205C00022035FA8E3C3C9106088F
:1018900090A7080830B589B045682B4900222B482D
:1018A0000AF0ECFD2A49002228480AF0C5FD294922
:1018B000002326484FF480720AF07CFD2249887884
:1018C000009001A84B780A7823A12EF061F840F22D
:1018D0006111284617F00CFD01A914F0B8F81C4C52
:1018E00024A1A078009001A86378E2782EF050F847
:1018F0004FF4B071284617F0FBFC01A914F0A7F8CB
:1019000020782349401E51F8202022A101A82EF062
:101910003FF84FF4B171284617F0EAFC01A914F022
:1019200096F80C498878009001A84B780A781CA199
:101930002EF02EF840F26311284617F0D9FC01A9C9
:1019400014F085F809B030BD98DB042078DB042062
:101950005C000220B0DB0420CAB1BCE43A20253090
:101960002E32643A25302E32643A25302E326420ED
:1019700000000000C8D5C6DA3A20323025302E32B9
:10198000642F25302E32642F25302E326400000063
:10199000D40F0220D0C7C6DA3A2025730000000019
:1019A000C4D6D6D33A2025302E32643A25302E3292
:1019B000643A25302E3264200000000038B503243C
:1019C000009400F0D1F838BD38B50424009400F03C
:1019D000CBF838BD38B50024009400F0C5F838BD08
:1019E00038B50024009400F0BFF838BD10B50548A4
:1019F00000220260426011F01DFCBDE81040024868
:101A00000BF01ABC4800022094D904201CB534F015
:101A1000E5FB0748052100234FF40072CDE90010D3
:101A2000074804A135F06CFDBDE81C4034F000BC53
:101A3000CC0F02206370755F7461736B000000004F
:101A4000451203081CB50020054A062103460090F4
:101A50000190044803F068FD034908601CBD0000C4
:101A600049FD0208948E0608980E02201CB50D4907
:101A700014220D48FEF777FC0B4814220B49143052
:101A8000FEF771FC17F01EFC0346094A0020009087
:101A900001900721074803F047FD0A2003F0EEFEFE
:101AA000FBE700006C8E060880E20620808E0608A8
:101AB000A58802083C8F06081CB517F003FC0346F6
:101AC000044A0020009001900221034803F02CFDFD
:101AD0001CBD0000910403080090060870B50C4678
:101AE00015461E460A4932460DF094FC0949324615
:101AF00020460DF08FFC084A33460649044800F0A2
:101B00000DF832462946BDE8704003480DF082BC0E
:101B1000C4940620C4B20620C476062070B5002402
:101B2000104D0F4E2E60E8606961EA630020286165
:101B3000A8612864E86168626863012000EB0340E3
:101B40006864286840F0010028604FF4001102E04A
:101B5000641C8C4202D22868C007F9D170BD000015
:101B60000002020000B00240F8B50D461446069E81
:101B7000224605490DF055FC03480022334629460C
:101B8000009400F003F8F8BDC4760620F0B5059E79
:101B900000240E4D4FF481372F60E860E963002088
:101BA00028612864EA616B63012000EB06406864E9
:101BB000286840F0010028604FF4001102E0641C26
:101BC0008C4202D22868C007F9D1F0BD00B00240B3
:101BD0002DE9F05F0E4617469846DDE90BABDDF8C0
:101BE000289000240EF0FCF80E4D4FF4007129608F
:101BF000EE60EF63C5F810A0C5F840B0E86168F387
:101C00001F49C5F84490286840F001002860090386
:101C100002E0641C8C4202D22868C007F9D1BDE8FA
:101C2000F09F000000B002402DE9F041DDE9077CA3
:101C3000069E00240E4D4FF48138C5F80080E86000
:101C4000E9632A612B640520E8616E634CEA074072
:101C50006864286840F0010028604FF4001102E039
:101C6000641C8C4202D22868C007F9D1BDE8F0811B
:101C700000B002402DE9F0470F4690461E46DDE9D0
:101C8000089A00240EF0ACF80E4D0D492960C5F8F5
:101C900038A0EF63C5F84090686368F31F466E6430
:101CA000286840F0010028604FF4001102E0641C35
:101CB0008C4202D22868C007F9D1BDE8F087000045
:101CC0000002030000B0024038B514460D46049AE5
:101CD000002305490094FFF759FF22462946BDE835
:101CE000384001480DF09DBBC4760620064AD062FC
:101CF000491EC8B2012101EB0020D061D06940F03B
:101D00002000D0617047000000B002401EB50023E3
:101D1000FF24B4EB116F2CD080F07F40029081F053
:101D20007F40019014481349016002A9C16001A9D4
:101D30004161C0F83CD04FF4803141EA0261C16199
:101D4000C2F1FF0109064162002141634FF0011118
:101D50004164016841F0010101604FF4001202E0AA
:101D60005B1C934202D20168C907F9D1009880F048
:101D70007F401EBD0002020000B00240F0B5059E8B
:101D80000024124D104F2F60E8606961EA634FF440
:101D9000803040EA0360E861C3F1FF00000668623A
:101DA00000206863012000EB06406864286840F06A
:101DB000010028604FF4001102E0641C8C4202D242
:101DC0002868C007F9D1F0BD0002020000B002404F
:101DD000014808F08DBB0000B8DA0420014808F083
:101DE00087BB000018DB04200168CAB2103A182330
:101DF000B2FBF3F2064B9B5CC365032A6FF3090148
:101E000002D9091D816500E08165806D7047000081
:101E100000C30308014610B500208A6A4FF0C07461
:101E20008B69002B0ED0B3F5005F1AD062B3012A84
:101E30002AD0022A28D0032A03D1C96AC90100D5B1
:101E4000012010BD1AB1012A06D0022AF9D1C96AAF
:101E5000C901F6D5012010BDC96AA142FBD10120FC
:101E600010BD52B1012A0AD0022A06D0032AF7D1A6
:101E7000C96AA142F4D1012010BD012010BDC96A78
:101E8000C901FBD5012010BD012010BD2DE9FC4189
:101E90000C46050038D004F011FE112C14D0132C80
:101EA00028460ED002F0F6FF009000F0B0FB064688
:101EB000684603F05FF820462CF0B9FC0746002482
:101EC0001CE000F013FB1BE0284600F087F917E048
:101ED0002146284600F09EFB019070B100782CF05E
:101EE000A6FC00F0FF0801A803F044F8B84504D1AF
:101EF0002146284600F02BFB02E0641CB442E7DBDD
:101F0000BDE8FC4106F008BEBDE8FC81F8B50C4612
:101F1000050018D0002C16D004F0D0FD284602F0A1
:101F2000B9FF0090C66B684603F024F82046FEF720
:101F300077FA421C2146304603F041F8284617F054
:101F400005FE06F0E9FDF8BD2DE9FF4145680446B0
:101F5000284602F09FFF0190D0F8886001A803F0A6
:101F600009F80EB1012700E000272146284616F0A7
:101F7000DBFB002856D02068112844D006DC0B2853
:101F800063D00E2878D00F282BD14FE0212805D020
:101F900026281AD0B0F5107F23D139E0E0684168D7
:101FA00000291EDD00680D281BD130460EF007FF0A
:101FB000002806DB30460EF002FF0146284600F0FE
:101FC000C6FA284600F07EF875E0E068012809D0DE
:101FD0000A2802D00B2871D111E00A21284617F0F7
:101FE000B6FE6BE030460EF0EAFE002866DB3046B7
:101FF0000EF0E5FE0146284600F0A9FA5BE028460F
:1020000000F060F85AE0FFB9E068007A98BB55E04C
:10201000E06848B1007A08B1012100E002212846B9
:1020200017F095FEBDE8FF810321F8E72E4628460C
:1020300002F030FF0290D0F88400056802A802F098
:1020400099FF0DB13046A84738E0284602F022FF3C
:102050000090C06B02F0F3FF0098D0F8880017F0F2
:1020600025F80098D0F8940002F01CFE684602F0B3
:1020700081FF23E000E016E0E068416800291DDDF3
:10208000016820290FD006DC092910D00A2915D0B3
:102090001B2904D112E0212910D022290ED0284674
:1020A000FFF7F4FEBEE7284600F0FAF806E017F066
:1020B00065F9B04202D1284618F044F8204616F0DF
:1020C000BBFFAFE738B5040016D004F0F7FC20469C
:1020D00002F0E0FE0090D0F8880040B116F0E6FF74
:1020E00000990020C1F88800204617F02FFD6846AF
:1020F00002F040FF06F010FD38BDF0B585B0B0F934
:102100000850468A84690296CDE903540027CDE938
:102110000017B0F90C10B0F91050B0F90E40B0F93A
:102120000A00194410442B46224600F003F805B07B
:10213000F0BD00002DE9FF5F1D46DDE90F869146E9
:102140008A4683460E9F129C04F0B8FC21496C34E9
:10215000CDE90214CDE900784FF0FF334A465146ED
:10216000584616F0B1FE04002DD002F093FE102266
:102170000090119916F0BEFC00983822164980F89C
:102180008C604C30FEF7EFF8134E0098361F316824
:10219000C0F88410002180F89010C586204600F019
:1021A00015FA684602F0E6FE02F046FF05462046B4
:1021B00002F070FE0090C563684602F0DBFE3068F6
:1021C00041682046884706F0A7FC04B02046BDE8D9
:1021D000F09F0000491F00083414022010B5044687
:1021E00000F070F9010000D0411E2046BDE810400B
:1021F00000F0ADB9F8B50546006802F04BFE00905E
:10220000448ED0F88860684602F0B4FE06B101261C
:1022100004F00104286818F057FC0EB1002006E015
:102220000CB1012003E008B1022000E003201B49AB
:1022300051F82010686858B302280CD0052802D045
:10224000122828D103E028461CF036FB23E028465C
:1022500021F0D3FA1FE06A69E8694FF0FF33801A72
:10226000A0F1080203EB6204421CAB69001B45109D
:10227000A3EB6206C86905F024FC06E03219311BA5
:10228000284603F00DFE641E6D1C002CF6DA02E0F9
:10229000286818F003F80020F8BD0000AC230908F6
:1022A0002DE9F14F9EB01E9800287DD004F006FC69
:1022B0001E9802F0EFFD0B901E9817F06AF903903C
:1022C0000B98B0F9367090F890101891C16B0A9184
:1022D00090F88C90B0F93410159100F098F982467E
:1022E0000B9804ACB0F88E101491B0F982101391D1
:1022F000C16C1291D0E90012CDE90C12D0F894B063
:10230000002100BF00EB8102126D44F82120491C1E
:102310000329F7D3002107AD00EB8102D26D45F808
:102320002120491C0329F7D300210EAE00EB8102C6
:10233000126F46F82120491C0329F7D30BA802F09D
:1023400019FE1E9817F0B7F802F0A4FD1190D0F80E
:10235000008011A802F00EFE4FEA284042420FFA18
:1023600088F041420CA805F083F85FEA897003D534
:10237000BDF83200C01B01E0BDF83600ADF83200F8
:102380001E9817F098F8014603980222CDE900073D
:102390000292BDF93230BDF9302000200EF0A0FCD1
:1023A00080465FEAC97000E086E007D04046189991
:1023B0000EF061FF012140460EF082FE002708E08A
:1023C00039460A9802F09CFE014640460EF043FB57
:1023D0007F1C5745F4D3DFF8E890002754F8271006
:1023E000494502D1404617F059FF54F82720394695
:1023F00040460EF08FFE7F1C032FEFD35FF00004EA
:10240000214655F8242040460EF0CEFF641C032CD4
:10241000F6D30024214656F8242040460EF00BFF48
:10242000641C032CF6D3BBF100001FD002F032FD78
:10243000169030F8025B00240646012711E000BF29
:1024400006EBD40004F00701007807FA01F1084216
:1024500001D0012200E00022214640460EF08CFE11
:10246000641CAC42ECDB16A802F084FD40461499D3
:102470000EF0B5FE404612990EF065FE40461399E7
:102480000EF07DFF404617F05DFE40461E990EF0AF
:10249000BDFE404615990EF00BFF01211E9817F066
:1024A00056FC1E9802F0F6FC0B90C0F888800BA832
:1024B00002F060FD06F030FB1FB0BDE8F08F0000B9
:1024C000785634FF38B505004FF000040CD004F006
:1024D000F5FA284602F0DEFC0090B0F93440684678
:1024E00002F048FD06F018FB204638BD10B5044642
:1024F000FFF7E8FF411C2046BDE8104000F027B878
:10250000F8B50E46040021D004F0D8FA204602F0B7
:10251000C1FC009090F88C10D0F8885021F0010494
:102520000EB144F00104A1420BD080F88C40684603
:1025300002F020FD45B104F0010128460EF0C0FD77
:1025400002E0684602F016FD06F0E6FAF8BD38B57E
:102550000C46050022D004F0B1FA284602F09AFC9D
:10256000009000F054F800B1401E844200DD0446A3
:102570000098B0F93410A1420BD08486684602F06E
:10258000F9FC284617F0E2FA0421284617F0DFFB91
:1025900002E0684602F0EEFC06F0BEFA38BD38B53F
:1025A0000C46050011D004F089FA284602F072FCAE
:1025B00000900487684602F0DDFC284600F006F82B
:1025C000284617F0C3FA06F0A7FA38BDF8B5044656
:1025D00002F060FC01460090B0F9380010B9C86CF8
:1025E00003F0AEFF0099CA6AB1F98030126800EBBF
:1025F00043001618084618F0E5F80546684602F04C
:10260000B9FC32462946204617F09DFEF8BDC06B46
:1026100002F06ABD38B50D46002402F03BFC009084
:10262000C06B294602F06CFD0546684602F0A2FC2C
:102630001DB1284602F02EFC0446204638BD10B5D8
:102640000021002200EB8103C3F88022491C0F29DE
:10265000F8D300214FF4007443181A77491CA142A3
:10266000FAD30270427001218170C0F8BC22017659
:1026700040238371427680F81C2280F81D120020CE
:1026800010BD70472DE9FC470E465FEA00097FD078
:1026900004F014FA484602F0FDFB009090F85470E4
:1026A000D0F85880456BC46C684602F063FCB8F102
:1026B000000F04D0314648464246904761E0122E52
:1026C00018D006DC082E43D0102E3CD0112E06D197
:1026D00012E0132E21D01D2E43D01E2E3DD0202ED1
:1026E0004FDB17B148461BF06AFCB1B2484625F0F3
:1026F00013FE60B3611C27E04DB3284602F0CAFB0D
:1027000005462146019006F0F5F84419204606F0EA
:102710009FF801462346012210E0C5B1284602F089
:10272000B9FB05462146019006F0E4F8441920461D
:1027300006F08EF8014623464FF0FF32484619F066
:1027400084FF01A81BE0611E484600F0A9FA18E0CA
:10275000BCB1611E484600F0A3FA48461BF02FFCAE
:102760000FE0484602F096FB0090012F12D00121A5
:1027700080F854102146484600F092FA684602F06C
:10278000F9FB484617F0E2F900E001E006F0C4F971
:10279000BDE8FC87002180F85410EFE77CB5456860
:1027A0000446284618F090F906462146284615F0BA
:1027B000BBFF002844D020680F283DD004DC0B2844
:1027C0003FD00E2860D147E0A0F58070133804D0C8
:1027D000A0F580702D3857D11DE0284617F098FBE2
:1027E000284602F057FB009010F8561F81F00401B4
:1027F0000170684602F0BEFB0021284628F038FA36
:10280000284602F047FB0090D0F88400002117F022
:1028100056FB68461DE0E06860B1017A29B10168A5
:10282000284600F0EEF8012100E00221284617F0CA
:102830008EFA29E00321F9E70121284628F018FA49
:102840007CBD284602F026FB0190343002F04EFA9F
:1028500001A802F08FFB17E0B6B1E06841680029DB
:1028600012DD01681B290FD006DC09290CD00A29CA
:102870000AD00D2904D107E0212905D0222903D04F
:102880002846FFF7FFFE7CBD204616F0D5FB7CBD39
:10289000F0B587B00DF1300E9EE8F0104FF0000E4D
:1028A0008DE8F05000F002F807B0F0BD2DE9F04FD0
:1028B00085B01F46DDE91254DDE90E6A904689466F
:1028C000834604F0FBF80DF1040C4AF480501F49D4
:1028D000603400968CE813003B4642464946584611
:1028E00016F0F2FA04002AD002F0D4FA1022049072
:1028F000119916F0FFF80498242215496030FDF76D
:1029000032FD049A012082F85500681C00D0012095
:1029100082F88800002D00DC08252DB215870020E4
:102920005087506304A86D1C02F024FB2946204602
:1029300024F076FF18B9204616F0B8FB002406F004
:10294000EBF805B02046BDE8F08F00009D27000899
:102950006C14022001488068704700006C1402204B
:1029600038B504000DD004F0A9F8204602F092FA20
:102970000090846E684602F0FDFA06F0CDF820461D
:1029800038BD002038BD38B505004FF000040BD02D
:1029900004F094F8284602F07DFA0090846C6846B2
:1029A00002F0E8FA06F0B8F8204638BDF8B515464A
:1029B0000C46060013D004F081F8304602F06AFAA3
:1029C000009038B1032C05D200EB840085673046B7
:1029D00017F0BCF8684602F0CDFA06F09DF8F8BD95
:1029E00070B50D46044604F069F834B12946204616
:1029F00000F056F9204617F0A9F8BDE8704006F03F
:102A00008BB82DE9F04186B00C46060055D004F095
:102A100055F8304602F03EFA0090406B98B302F051
:102A200039FA03900098806E05F088F880463046A9
:102A300016F0AFFD0746039803F057FD05460098D2
:102A400090F8601001F00301012916D002290DD081
:102A5000416EC06A00680844241A641E039807F097
:102A6000F3F90146002C0FDA002115E0781B401C19
:102A700000EBD070A4EB6004F0E7406E791B081AFD
:102A8000241A641CEAE713E0AC4205DC0246214646
:102A9000039807F079F90146304600F001F903A8E0
:102AA00002F068FA404605F049F8304617F04EF853
:102AB000684602F05FFA06F02FF806B0BDE8F08134
:102AC0002DE9F8431C46DDE9085690460F4681463D
:102AD00003F0F4FFB9F1000044D002F0DBF9234920
:102AE000009081652249C1650021C0E91271E0E9C9
:102AF0000F84012105728676017690F84C70684645
:102B000002F038FAAFB12946204623F02CFA0446E9
:102B10002946404623F027FA0DB1401C641CF107FA
:102B200000D0641C844200DD20460146484600F087
:102B300037F848462BF032FF484602F0ABF90090D8
:102B400000F099F80B490978884205D10098C16CCA
:102B50004846491C00F0A4F8684602F00BFA4846C3
:102B600016F0F4FF05F0D8FFBDE8F88349BA010874
:102B70009DE90208D810022038B50D4604000ED099
:102B800003F09CFF204602F085F900908566204600
:102B900016F0DCFF684602F0EDF905F0BDFF38BD28
:102BA0007CB50C46060033D003F088FF304602F0B7
:102BB00071F90090B0F93810458FA14223D012DD91
:102BC000406B80B102F066F9019007F03DF9A04238
:102BD00006DD2146019805F08DFE019A0021115471
:102BE00001A802F0C7F9684602F0C4F9611B30463B
:102BF000491C24F015FE304602F04CF90090048781
:102C0000304616F0A3FF684602F0B4F905F084FFE1
:102C10007CBD38B50C4605000FD003F04FFF2846A9
:102C200002F038F9009018B10466284616F08EFFBD
:102C3000684602F09FF905F06FFF38BDF8B51546FC
:102C40000C46060013D003F039FF304602F022F99B
:102C5000009038B1032C05D200EB8400C5663046E5
:102C600016F074FF684602F085F905F055FFF8BDCF
:102C700000222BF0F7BA38B50546406B002468B146
:102C800002F008F900900446E96C05F033FE204498
:102C900005F0DEFD0446684602F06CF9204638BDBA
:102CA0001CB50C4602F0F6F80090406BF0B102F053
:102CB000F1F8019007F0C8F8009991F8542002B19A
:102CC0000122002C00DA0024844200DD0446B1F920
:102CD0003800801AA04200DA0446C86CA04200D036
:102CE000CC640020086501A802F044F9684602F0AF
:102CF00041F91CBD70B5044620680F2806D01D2878
:102D00000CD02046BDE8704016F096B96FF07F40B9
:102D100004F0D7FEBDE8704002F0BABB606840F630
:102D2000011116F0E5FA05461649284612F078FE1C
:102D300015A1284612F08BFE606840F6021116F0CD
:102D4000D7FA05461849284612F06AFE17A1284608
:102D500012F07DFEFF21284612F0B8FE606840F6B2
:102D6000031116F0C5FA04460F49204612F058FE2A
:102D700013A1204612F06BFE2046BDE87040FF21F3
:102D800012F0A4BEF4120908466F6E7420557064E8
:102D9000617461696E672C506C6561736520576161
:102DA00069742E2E2E000000F4FF0808657261730E
:102DB0006520636869702E2E2E2E2E2E00000000D6
:102DC00030250000704730B5D1E901230D681A4362
:102DD000D1E9033423431A434B691A438B691A43DD
:102DE000D1E90734496A012D08D005686FF30E0553
:102DF0001A4322430A432A4302600BE0056825F484
:102E0000F845234329430B4341686FF30E010A43FE
:102E100003604260002030BD426942EA41014161E5
:102E20000020704708B5D1E900231A438B68C968B0
:102E30005B1E5B0143EA41210A4300920099016154
:102E4000002008BDF0B54B680C685B1E4D69641E20
:102E500044EA03148B686D1E5B1E44EA0326CB68AC
:102E60000C6989695B1E641E491E012A0DD08268A7
:102E700002F0704246EA033343EA044343EA05534F
:102E800043EA01611143816010E08268084F3A40D3
:102E90001B0343EA05531343C26802F0704246EA3B
:102EA000044444EA016111438360C1600020F0BD25
:102EB000FF0F0FFF2DE9F04389B0984615460F46E6
:102EC00006004FF000042CD000F0D0FB0446304642
:102ED00000F0B3FB814603F0F1FD03A9304600F09A
:102EE000E6FCF80706D0BDF91C008221001B401B40
:102EF000401C08E0B807BDF91800284402D540F28C
:102F0000022100E002210096CDE9018123461A4604
:102F10004946FDF79FFB0446002115F0BEFC05F075
:102F2000FBFD09B02046BDE8F083000010B5052385
:102F3000FFF7C0FF0446054A0021FDF780FD044964
:102F4000204617F036F8204610BD000071E5010854
:102F500035FD020810B50723FFF7ACFF0446054A0C
:102F60000021FDF76CFD0449204617F022F82046A9
:102F700010BD0000BDE60108A503030810B5082335
:102F8000FFF798FF0446054A0021FDF758FD044964
:102F9000204617F00EF8204610BD0000EDE60108AF
:102FA000DB0303082DE9F047044640688EB0002794
:102FB000804601F06FFF0090B0F87CA0D0F86890D8
:102FC000D0F88060D0F88850C06D00B107686846BE
:102FD00001F0D0FF05E0696820468847002843D10A
:102FE0002D68002DF7D12068172853D00CDC0F284E
:102FF0003DD004DC0B2877D00D2825D18BE011289B
:1030000010D0142820D13BE0262846D004DC1E280E
:1030100051D0202818D18AE02A2816D0B0F5107F88
:1030200012D128E04046E56801F034FF0290697A49
:1030300039B9297A012904D130F87C1F41F4807113
:10304000018002A801F096FF75E0404601F022FFE2
:103050000090E16811B1C0F8841002E0D0F884005B
:10306000E060684601F086FF0EB0BDE8F087D7B398
:103070004046B8475FE02146404627F013FCF3E79F
:1030800005A9404600F013FCE06806990160079925
:103090004160E9E7C4F80C90E6E7E0680228E3D174
:1030A000CDF83080E0680D9027200A900AA9A0682A
:1030B00017F01AFFD8E7E068012804D00021404645
:1030C00000F01BFBD0E7304616F0A9FD68B1304692
:1030D00017F038F8304616F061FC98B101213046FF
:1030E00015F0B7FB0EE026E02FE0484617F07EF81B
:1030F0000646404601F0CEFE0090C0F8806068466B
:1031000001F038FF0121404600F0F7FA002EABD164
:103110000020E060A8E75FEA0A700CD4E068C068AD
:1031200048B1007A38B1404617F00CF803E0214668
:10313000404626F061FC2146404615F0F5FA00288D
:1031400092D0204615F078FF8EE7404601F0A2FEAF
:103150000090703001F0CAFD684673E7F0B587B0A3
:10316000B0F908400DF10C0C0C9E876945688CE89D
:10317000F000448A0025CDE900150294B0F90C1046
:10318000B0F91050B0F90E40B0F90A0019441044DB
:103190002B46224600F002F807B0F0BD2DE9F04FB3
:1031A0008BB09846DDE9155691468A468346149FB2
:1031B0001A9C03F083FC3348603445F48055CDE914
:1031C0000204CDE9007543464A465146584615F07B
:1031D0007BFE04004FD001F05DFE30220490179971
:1031E00015F088FC0498282227493430FDF7BBF8F5
:1031F00004981999244F4166A0F87C600026C0F815
:103200008060C666083FC0F888607968C16504A818
:1032100001F0B0FE05A9204600F049FB1B4841F231
:10322000827103960094CDE90110BDF91E00BDF92D
:103230001A10BDF91C20431ABDF918005B1C121AA4
:10324000521C15F041FE06467868416820468847C2
:10325000204601F01FFE0490866604A801F08AFE55
:1032600042F20400054202D1204615F097FF2046A5
:10327000189900F087FA05F04FFC0BB02046BDE826
:10328000F08F0000A52F000898140220B53B00081D
:103290002DE9F041044694B0006800F0B7F908B198
:1032A000D94D01E0D84D2C35606815281ED00CDCB6
:1032B0000B281FD004DC00287ED005287DD12FE10B
:1032C0000E287BD01228F9D141E1162806D0172804
:1032D00008D0182808D01C28F0D109E0E86914B0FB
:1032E000BDE8F081286AFAE7686AF8E7A86AF6E7B5
:1032F0006869F4E720680B901C200C90206801F0AE
:10330000C9FD0390016D0BA88847064603A801F08C
:1033100031FE022E0FDB95E807008DE80700D4E9A7
:1033200004023346A16906F05DFB20698719A06994
:10333000A0EB06082CE0286804F0C3FB2169E869CB
:103340000A18521E606902F0ABFDA269E869111A01
:10335000491C606902F0A4FDD4E904077F1C3946CA
:1033600002F0CAFD3946A06902F0C6FD686804F0A3
:10337000A8FB20693946401C02F0BEFDA069394611
:10338000401E02F0B9FDA0692769A0F10208BF1C28
:10339000286804F096FB42463946606902F080FDD9
:1033A000686804F08EFB606942463946401C02F0B2
:1033B00077FD686A022802E015E1B0E000E10BDD6C
:1033C000A86804F07EFB61696A6A881C8B18014654
:1033D000424638465B1E27E0296AB14226DD606915
:1033E000022E074600F1020801DB374401E007F135
:1033F0000207206901DB304401E000F1020022698C
:103400003B460A444146A2F1010202F059FE022E57
:1034100002DBA069821B01E0A269921EA069E96932
:103420003B46401A4146401C02F04AFE022E02DB97
:103430006069064401E06669B61CE76928687F1E7A
:1034400004F03FFB3A463146206902F0C5FD3A469A
:103450003146A06902F0C0FDE7696868BF1E04F04C
:1034600030FB20693A463146401C02F0B5FDA069A8
:103470003A463146401E02F0AFFDE869022802DC00
:10348000286A022823DDA86A022802DDE1690F1AF2
:1034900001E0E769BF1EA86804F013FBE96902298F
:1034A00009DD20693B46421800F1020C31466046B6
:1034B000521E02F005FE286A022808DDA269E869AA
:1034C0003B46101A3146401C921E02F0F9FD286856
:1034D00004F0F7FAD4E90620216902F0E1FC6868FB
:1034E00004F0EFFAD4E906202169401E491C521E5F
:1034F00002F0D6FCA86A022811DDA1692669E469F8
:10350000A1F10208271AA41EB61C7F1CA86804F0AB
:10351000D8FA234642463946304602F0D1FD71E0E2
:10352000208A00B2ADF81400A18A09B2ADF81610D5
:10353000228B12B2ADF81820A38B1BB2ADF81A3053
:103540002C69ED68CDE9005402F06EFC5AE0208A47
:10355000298B0844ADF81400A08AADF81600208B22
:10356000298B401AADF81800A08BADF81A0020681E
:1035700001F090FC0390006FF0B1022004F048FCD1
:10358000039890F87C10C1F3C00100EB8100006C3F
:1035900004F097FA0398406B04F0D0FA0398006F98
:1035A00001F078FC03990990B1F95A2005A902F0BD
:1035B00071FA09A801F0DEFC03A801F0DBFC21E0B0
:1035C000208AADF81400A08AADF81600208BADF863
:1035D0001800A08BADF81A00A86804F072FA05A8CC
:1035E00002F09AFD0EE0206801F054FC039030F8E0
:1035F0005A1F41F00C01018003A801F0BBFC2068B8
:1036000016F04CFE00206AE66418022038B505006A
:103610004FF000040FD003F051FA284601F03AFCB5
:10362000009090F87C00000700D50124684601F066
:10363000A1FC05F071FA204638BD38B505004FF001
:10364000000411D003F03AFA284601F023FC009060
:10365000C06D00218068026828469047044668468D
:1036600001F088FC05F058FA204638BD30B587B027
:1036700005004FF0000413D003F020FA01A92846FA
:1036800000F015F9284601F005FC0090B0F954400F
:10369000684601F06FFC0CB9BDF9044005F03CFA36
:1036A00007B0204630BD10B5040008D003F006FA7C
:1036B000204625F0F1FDBDE8104005F02DBA10BD03
:1036C00010B5040008D003F0F9F9204625F033FEC8
:1036D000BDE8104005F020BA10BD10B504000BD0B5
:1036E00003F0ECF9204629F0BBFC204629F08CFCC5
:1036F000BDE8104005F010BA10BD70B50D460400CD
:1037000009D003F0DBF92946204629F039FDBDE850
:10371000704005F001BA70BD2DE9FC410D468046B0
:1037200003F0CCF9B8F1000028D001F0B3FB019010
:10373000C16D8C6800F022F907460198456301A825
:1037400001F018FC22680121404690470646226895
:103750000321404690470546226800214046904795
:103760000446404600F0EFF92B46324639464046C3
:10377000009400F078F9404616F0E8F905F0CCF92D
:10378000BDE8FC817CB50D4604001DD003F096F920
:10379000204601F07FFB0090006F0190684601F029
:1037A000E9FB294601A806F019FD58B1204601F0B1
:1037B00071FB009001990167684601F0DBFB204630
:1037C00016F0C4F905F0A8F97CBD38B50C46050023
:1037D00013D003F073F9284601F05CFB0090B0F9B8
:1037E0005A10A14204D0A0F85A40284616F0AEF96B
:1037F000684601F0BFFB05F08FF938BD38B50C46BF
:10380000050015D003F05AF9284601F043FB0022C9
:10381000CDF8000000EB8201521C0C64022AF9D39F
:10382000684601F0A7FB284616F090F905F074F9F8
:1038300038BD2DE9FC470D465FEA00094FF0000452
:1038400032D003F03BF9484601F024FB0190B0F977
:103850005440A54223D000F091F880460198012100
:10386000A0F85450C06D856848462A6890470746BE
:103870002A6803214846904706462A6800214846A0
:1038800090470546484600F05EF933463A464146C1
:103890004846009500F0E7F8484616F057F901A8A9
:1038A00001F068FB05F038F92046BDE8FC872DE9FA
:1038B000F34F85B000270C46B846059801F0EAFAA8
:1038C0000090C06D0121856805982A68904782465E
:1038D0002A6803210598904704902A6802210598D8
:1038E000904703902A680021059890470646009863
:1038F00016F068FF8346009816F06BFF814600982B
:1039000090F83210890601D5B0F9588000F036F8E9
:1039100005460098C06E10B115F052FE074625808E
:103920006780A4F804A0049AABEB020006EB08023F
:10393000401E2A4420813A44E280039BA9EB030203
:10394000521E6281A4F80CA020827019E681401EEC
:103950006082684601F00EFBB4F90C000190B4F9E6
:103960001000029002AA01A9059800F039F8019808
:10397000A0810298208207B0BDE8F08F10B5014603
:10398000002091F83220920607D5B1F954000028A2
:1039900003D1486B02F0D6FD801C10BD70B58AB013
:1039A0000C46054601F076FA0990C06D866809A8B4
:1039B00001F0E0FA009534B1012C06D0022C0BD0B6
:1039C000032C04D10AE0182000E016200190716851
:1039D000684688470AB070BD1520F7E71720F5E75D
:1039E0002DE9FC4117468846044601F053FA009041
:1039F000C16D056868468E6801F0BCFA3268002126
:103A0000204690470646204615F09AFC27E000BF66
:103A100001F040FA0190B0F900102AB2B0F9043078
:103A2000891A9A1AB0F90230A3EB2543B34210D198
:103A300090F82800000605D53868884209DB491E41
:103A4000396006E0D8F80000904202DC521CC8F849
:103A5000002001A801F08EFA204615F01FFD040099
:103A6000D6D1BDE8FC812DE9FF4F83B00E46074655
:103A7000DDF8409001F00EFA0190C16D8D68FFF7FE
:103A80007DFF044601A801F075FA2A680121384635
:103A9000904783462A6803213846904782462A6821
:103AA0000021384690470546B44207D105998B4519
:103AB00004D106998A4501D14D4541D0A41B002669
:103AC000B046384615F03CFC38E001F0E3F90090D0
:103AD000806A010601D5800502E0810528D500062F
:103AE000002825DB24B122461146384616F06DF930
:103AF000009890F8280000060AD50698A5EB090260
:103B0000A0EB0A0004FB16013846761C16F010F9EB
:103B10000098008D80050BD50599A5EB0902ABEB4C
:103B2000010004FB080108F10108384616F000F90D
:103B3000684601F01FFA384615F0B0FC0700C4D102
:103B400007B0BDE8F08F70B586B0064601F0A2F967
:103B50000590D0E91A4505A801F00CFA54EA0500D1
:103B600026D069463046FFF7A2FEACB1BDF906206B
:103B7000BDF90410204616F09FF8BDF90A00BDF902
:103B80000610421ABDF90800BDF90410521C411A72
:103B90002046491C16F0D7FB002D09D0BDF90600C0
:103BA000BDF90210421ABDF90410284616F084F837
:103BB00006B070BD2DE9F0430446406889B0054663
:103BC00015F079FC814601F065F90290D0F8488043
:103BD000D0F88070466E02A801F0CCF92068172852
:103BE00052D008DC0E2839D00F2811D014284BD021
:103BF00015283CD148E01E281DD01F2829D0222896
:103C00003FD0312833D10020E06009B0BDE8F08317
:103C10001F494046884503D00CF0D2FA01F038FC29
:103C2000002EF2D0D4E902122068CDE90405CDE9D6
:103C3000061204A81FE0E0680028E6D02FB1AF42CA
:103C400003D0384616F07EFADFE7284616F0CEFAA3
:103C5000DBE72146484614F067FDD6E7E068416897
:103C6000002904DD00680928EFD00A2805D05EB1DC
:103C70002046C4F80490B047C7E7284616F0EAFA91
:103C8000C3E7C4F80C80C0E7204615F0D5F9BCE7BF
:103C9000785634FF10B5044620460DF096FF1F49B4
:103CA0000AF04BFB1D4920460EF0C5F801212046C5
:103CB0000EF0BBF8012120460EF0BAF81421204680
:103CC0000EF0F2F8142120460EF069F90C2320467C
:103CD0001E2113A20DF094FC0C232046962111A264
:103CE0000DF08EFC0C232046462110A20DF088FC1E
:103CF0000C23204646210FA20DF082FC0C23204607
:103D000096210EA20DF07CFC012120460EF0ADF8AC
:103D10002146BDE810400BA031F0F8BC9C1304080C
:103D2000D0F20000C3FBB3C600000000C0E0D0CD5D
:103D300000000000B4F3D0A100000000C8D5C6DA2E
:103D400000000000303A000010B504460A2812D0E6
:103D50000D2C14D002F0B2FE09480068C069016859
:103D6000204688470748016809B120468847BDE8D2
:103D7000104004F0D1BEBDE8104001F0E1BD10BD1F
:103D8000EC100220341102202DE9F0430446C568EE
:103D900087B090468946002003F0C3FE064625B151
:103DA000287910B146F0020001E026F0020003F08D
:103DB000B8FE2069012558B1D4E902128DE8260029
:103DC000039563882288046841464846A0471EE060
:103DD000124F134B214638681B68427CE0689847B5
:103DE00030B9E088012801D0002001E03868806BFC
:103DF000A288E388A1680095CDE90410CDE90232DC
:103E0000019563882288414648460BF087FB07B03E
:103E10003046BDE8F04303F084BE0000EC10022001
:103E2000DC10022070B514460E4605460119001B31
:103E300000F0CEFE22463146284620F0FFFBBDE8CA
:103E4000704000F0A1BD00002DE9FF4F43F6FF7464
:103E50000F46664283B09B46814600210BE000BFBF
:103E600009EB8100B0F90200A04200DA0446B0423A
:103E700000DD0646491CB942F2DB6748006840692C
:103E800000280DD0B0F906101A46A1EB0B01B14283
:103E900000DA0E46B0F90200801AA04200DD0446A6
:103EA000B4E0DFF878A100200546CAF8000088E0F9
:103EB000781E854201DA6B1C00E0002309EB850CBB
:103EC00009EB8302BCF90200B2F90210A04244D10E
:103ED000A14215D139F92330059A39F9251003EBA0
:103EE000020C4D4A05981268084404EB0B01526E0F
:103EF0006045136801DA62462AE00246604627E020
:103F00002846A4464FF000087A1E0BE008B1401E78
:103F100000E0781E09EB8003B3F90230634504D159
:103F200008F101089045F1DB2346A34248D01A1B53
:103F300039F92500A1EB040C059B92EA0C0F09D47A
:103F4000354A184404EB0B011268526E136802469E
:103F5000984735E017F0E2F832E0A14230D001DBBB
:103F6000A04203DDA0422BDBA14229DCE0468842CF
:103F70000ADC0346A04223DC0846A14220DBB8F954
:103F800000C0B2F9001008E00B46A14218DCA042C4
:103F900016DBB2F900C0B8F90010E21AA1EB0C016F
:103FA00051430029A0EB030202DD01EB620102E0B4
:103FB000A1EB6201491CC01A91FBF0F06044C9E713
:103FC0006D1CBD42FFF674AF0598009004EB0B002A
:103FD000019000208046054613E01149B8F1000F1A
:103FE00031F915A009D0009901EB0A0208440A49E9
:103FF0000968496E0B680199984788F00108504696
:104000006D1C064909688D42E7DB641CB4427FF7EA
:1040100048AF07B0BDE8F08FEC100220C8160220B0
:104020003CE506200E4810B5006803F03FFD0D4842
:10403000006803F046FD012003F0CCFE002003F0F1
:10404000D7FE002003F0E4FE002003F06AFD0648DE
:10405000006803F073FDBDE81040002003F0CABD06
:10406000E8100220E4100220E010022010B5CB0876
:1040700000EB8300036A49070F24C90E8C40A34359
:104080000362036A8A401343036210BD2DE9F04FB7
:10409000DDE9098900244FF0010A4FF0030B0AFA09
:1040A00004F701EA0705BD4236D1D0F800C065002B
:1040B0000BFA05F62CEA060CC0F800C0D0F800C0D8
:1040C00002FA05FE4CEA0E0CC0F800C0012A01D02D
:1040D000022A19D1D0F808C02CEA060CC0F808C092
:1040E000D0F808C008FA05FE4CEA0E0CC0F808C06B
:1040F000D0F804C02CEA070CC0F804C0476803FAE3
:1041000004FC47EA0C074760C768B743C760C66846
:1041100009FA05F52E43C660641C102CBFD3BDE818
:10412000F08F00002DE9F04389B04448016841F068
:1041300080010160016801F080010191016841F492
:1041400080710160006800F4807001904FF0800879
:10415000CDF80880002403940127049703250595D2
:10416000DFF8DC9002A9484606F026FB3E020296E4
:10417000039702A9334F384606F01EFBFDF720F9DE
:1041800000223146384606F017FC0A2006F002FBF2
:1041900001223146384606F00FFC0A2006F0FAFAF2
:1041A000CDF8088003940494059502A9484606F0CA
:1041B00003FB642006F0EEFA042248F2401007A93F
:1041C00000F05AF88DF8204007A91FA02BF0D0FB73
:1041D0002049087840F080001F4A527D02F0010219
:1041E000104308701DA107A8FCF721F918B10120A0
:1041F00009B0BDE8F08302208DF81C0048F24005AC
:104200000122284607A900F029F90122E81D07A983
:1042100000F032F89DF81C10602902D211A02BF09A
:10422000A7FB0A2006F0B6FA8DF81C40012207A968
:10423000284600F013F90020DAE700003038024089
:10424000001C0240002002404354502049443A25BB
:10425000730D0A0058DF042028D804203931343780
:104260000000000044656661756C74205665723A02
:1042700025640D0A000000002DE9F04104460D46BA
:104280001646FDF76DF92820FDF72EF9FDF7B6F972
:10429000200AFDF729F9FDF7B1F9E0B2FDF724F99D
:1042A000FDF7ACF9FDF75CF92920FDF71DF9FDF7E5
:1042B000A5F90024771E09E0BC4201D0012000E0EE
:1042C0000020FDF7D5F82855641CE4B2B442F3D3BE
:1042D000BDE8F041FDF76EB92DE9F14783B0002448
:1042E000A2465A4D2878401CC0B228704FF00A09E7
:1042F000574EB0FBF9F109FB1101002901D00A2842
:104300007CD248F24E180122404603A9FFF7B4FFC1
:104310009DF80C004FF00007010609D500F00F00D2
:10432000062805D20197012201A9404600F096F81F
:104330009DF80C0001076CD000F00F00062868D231
:10434000FF218140C8B2019096F83480C04340F00C
:10435000C000B086B089B082308C30854FF0010A41
:10436000B08E0AFA04F108422DD03A48042202A97C
:1043700030F81400FFF780FF96F84400C00710D013
:104380009DF809109DF8080000EB012106EB4400A0
:1043900081819DF80B209DF80A1001EB0221018418
:1043A00011E09DF809109DF8080000EB012106EBD3
:1043B000440001849DF80B209DF80A1001EB0221B6
:1043C000C1F588718181641CE4B2052CC8D34FF01B
:1043D000010A2149B2893046CB8A9A4203D8028C1D
:1043E000098B8A4214D99DF80C1001F00F010129A4
:1043F00005D9C1898181418C01842F7009E0818AAE
:104400008181018D018480210391A0F8348000E036
:104410002F709DF80C0000F08F0080280DD1B08E19
:10442000010603D520F08000B08606E04FF6FF714C
:10443000B181318400F0E000B0862878F02801D9FD
:1044400085F8009004B05046BDE8F087A400022033
:1044500014DF0420EAC6030828D804202DE9F0411F
:1044600004460E4615460027FDF77AF82820FDF78A
:104470003BF8FDF7C3F8200AFDF736F8FDF7BEF864
:10448000E0B2FDF731F8FDF7B9F8002409E0305D3E
:10449000FDF72AF8FDF7B2F80746380003D1641C8F
:1044A000E4B2AC42F3D3FDF785F83846BDE8F081BD
:1044B000014AC2E9000170478C100220014AC2E99A
:1044C0000001704794100220014AC2E900017047C0
:1044D0009C100220014AC2E90001704730120220FC
:1044E0002DE9F04FDFF828B191B04FF0FF35DBF840
:1044F0000030B3F922100691DE69B3F92490F46913
:10450000A189814206D8E289824203D3471AD4F8AE
:10451000008012E0D4E9018100296FD00A8882422C
:104520006CD84D88854269D3801A82B2486800EB06
:104530008200B0F90070B0F90250781C5ED0307E75
:10454000A17C10FB01FA217CCDE90701B3F92A60B7
:1045500030460BF09BFEC0B20E90DBF8000007FB6C
:104560000A81A37C826B0127CDE90412CDE9027395
:10457000C069089AC17E807ECDE90001DDE90603AD
:1045800049460AF0CBFF681C18D046F002000BF039
:104590007DFEDBF80000A37C05FB0A81826BCDE980
:1045A0000273CDE90412C069089AC17E807ECDE90C
:1045B0000001DDE9060349460AF0B0FFDBF8000020
:1045C0005D46C069417E007E814214D9022E12D020
:1045D00086F004000BF05AFE2868C069027EC37E94
:1045E00012FB0391437E857E089A06984B4412FB8A
:1045F00005020BF07DF90E980BF048FEDBF8000089
:10460000627C418C1144418411B0BDE8F08F000000
:10461000EC10022004480068C069C06909B1027C3E
:104620000A60407C70470000EC10022002200880E5
:104630007047C06982898A4202D8C2898A4210D2F0
:10464000806880B102888A420DD843888B420AD3A1
:10465000406800EB8100A0EB8200B0F90000002868
:1046600001DB012070470020704700002DE9F04376
:10467000304C034687B020681946B0F92A60C069FB
:10468000C06900F00DF9002850D041680088181A60
:1046900001EBC0053046AF780BF0F8FD814620688D
:1046A0006A680123816BCDE90237CDE90421C16934
:1046B000CB7E8A7ECDE900230B7EB0F924102A78C8
:1046C000B0F922000AF02AFF2068C069417E027E0C
:1046D00091421FD9C07E11FB00F812FB00F7022E99
:1046E00018D001F0B4FD064601F07AFD03F0E9F9B7
:1046F00021682A78CB69B1F92200DB7E12FB030224
:10470000B1F9241001EB080339440BF0F1F83046FD
:1047100003F0D7F948460BF0B9FD20686A78C36901
:10472000B0F922109B7E12FB0311418407B0BDE853
:10473000F0830000EC10022030B50F4C05460B460C
:1047400020682946C069C06900F0AAF8002812D084
:104750004168008824682A1A0120E46900EBC2003D
:10476000085CA47E10FB04F0002B04D011F832107A
:1047700011FB04F1196030BDEC100220012008800B
:10478000704700B5C06900F08BF8002800D0012008
:1047900000BD00002DE9F04387B00146314E30687E
:1047A000B0F92A50C069C06906E002888A4202D87E
:1047B00042888A4202D280680028F6D100284ED072
:1047C000446801F05BFD94F8028028460BF05EFD22
:1047D00007463068244A0123816BCDE90238CDE9D0
:1047E0000421C169CB7E8A7ECDE900230B7EB0F91E
:1047F00024102278B0F922000AF090FE3068C069D7
:1048000090F8198090F81890C8451CD9C07E08FB14
:1048100000F809FB00F9022D15D001F018FD05463E
:1048200001F0DEFC03F04DF931682278B1F9220085
:10483000B1F92410024401EB080349440BF058F885
:10484000284603F03EF938460BF020FD30686278C8
:10485000C369B0F922109B7E12FB0311418407B09B
:10486000BDE8F083EC1002201CD106200B4909683A
:10487000CB69D96906E00A88824202D84A88824216
:1048800002D289680029F6D129B14868997E00785A
:1048900010FB01F07047002070470000EC10022070
:1048A00006E002888A4202D842888A4202D28068A0
:1048B0000028F6D1704700002DE9F0410025154E83
:1048C000154C18E02069C5EB451700EB87007422F2
:1048D000001D3168FBF747FD2069002140F82710D3
:1048E00000EB870000F10C018161011D0A1DC0E988
:1048F0000F126D1C4164A0688542E3DB22F026FBA9
:104900002169C0EB401001EB8000001D3060BDE864
:10491000F0810000EC100220D011022070B5104987
:104920000E480860084605F017FC0D4C143CA068C2
:10493000C0EB40108500284600F0F4F9094B2061D7
:104940002A461B68002198474FF0FF30206004F092
:104950004FF9BDE8704022F0F9BA0000159B02083B
:10496000E4110220A016022002490020096881F803
:1049700069007047EC10022002490120096881F8A3
:1049800069007047EC10022010B520F0F9FC0448D3
:10499000016A04480068416600F10801416110BDE8
:1049A0004C100220EC1002202DE9FC4714460D4665
:1049B000064602F083F8284FDFF8A0803868B0B1CF
:1049C000D8F80000C16C006D0E440544002015F0BD
:1049D00007FF60B13B68224629463046984781462A
:1049E00015F076FE0028F5D1B9F1000F30D015F0A2
:1049F0008FFE064415F09AFE0544D8F8000090F8A2
:104A0000691021B990F868104E434D434C43301B58
:104A100000F07EF8ADF80000301900F079F8ADF83C
:104A20000400281B00F074F8ADF80200281900F00B
:104A30006FF8ADF80600684615F0D2FE06E0224693
:104A400029463046FFF7EEF915F042FE0028F6D170
:104A500004F062F8BDE8FC8744100220EC1002204C
:104A60002DE9FC471D4616468946824602F026F887
:104A7000244F254C3868B8B12068C16C006D0E44D5
:104A80000544002015F0ACFE70B1D7F800C02B46ED
:104A9000324649465046E047804615F019FE002848
:104AA000F3D1B8F1000F28D015F032FE064415F00E
:104AB0003DFE0544002015F093FEF0B1134F206831
:104AC0001221407C57F820000190C068426A01A87A
:104AD00090475FEA000C06D033464A46514600959F
:104AE0000198E04705E02B463246494650461FF004
:104AF00019FE15F0EDFD0028E1D104F00DF8BDE838
:104B0000FC87000088100220EC10022020110220F7
:104B10000449096891F8681009B190FBF1F000B2FE
:104B200070470000EC1002202DE9F041224C0546B0
:104B30000E462068002788B920480068E06110B957
:104B40000AF0C0FFE06100F0EDF8206080B31A4980
:104B50001B4824310860084605F0FEFA1948006831
:104B6000854200DA0546E169731B4A1E20469342DE
:104B700001DD6E18761EAE4201DA2E460127124C78
:104B80002268516E4B68836301620B490F4B3431CD
:104B90000B60516602C880E8620017F0E3FD17F071
:104BA00051FA054821682C3048613846BDE8F0814B
:104BB000FFE70127D2E700004C1002203C11022041
:104BC000599A020840110220EC100220852D02089B
:104BD000044A126892F8682090FBF2F091FBF2F11F
:104BE000FFF7A2BFEC1002200249096881F86800B3
:104BF00017F028BAEC100220F8B50C0005460ED0CC
:104C000001F05CFF204600F01BF8060010D000F019
:104C100041F92246009025B12946074B03E00020C8
:104C2000F8BD064B00211B689847684600F0A2F9C2
:104C300003F072FF3046F8BDA4160220A016022031
:104C400010B5040009D001F039FF204617F05AF8DA
:104C5000044603F061FF204610BD002010BD000097
:104C600038B5054601F02AFF2846FFF7E9FF0400A2
:104C70000AD000F00FF9064B00902A461B6800216D
:104C80009847684600F076F903F046FF204638BDA5
:104C9000A0160220024A106021F003005060704705
:104CA00068E3062010B5040011D001F007FF0848A2
:104CB000042101EBC401406B4158486816F04CFADE
:104CC000204626F001FDBDE8104003F025BF10BDD1
:104CD000A8E20620002805D0034AD16B016001B18B
:104CE0004860D06370470000A8E2062010B5044673
:104CF00001F0E4FE2068FFF7D5FF00202060BDE84A
:104D0000104003F009BF000070B50D4606460024B0
:104D100005E000BF06EB8400FFF7E8FF641CAC422F
:104D2000F8DB70BD2DE9F041044623F05FF9284817
:104D3000E41C24F00305016C2D1DA94200D90D4689
:104D4000C46B13E054F8042CAA420ED184B121683C
:104D500009B162684A60616809B122680A60C26B81
:104D6000A24231D12168C1632EE02468002CE9D130
:104D70008046816BC0680F1857F8040C3E1A3068E3
:104D800038B1002028F0F0F857F8040C3E1A3068CB
:104D9000D0B97068A84217DB3044441B3046241D4C
:104DA00028F09AF8D8F80C10491BC8F80C10D8F85D
:104DB00014102944C8F814107068401B02D0314602
:104DC00016F0CAF944F8045C2046BDE8F081000002
:104DD000A8E2062010B5002423F008F90C490F20A2
:104DE00001EBC002526C1AB101EBC000406C08E04C
:104DF000401EF5D508E04168A14200D90C46806804
:104E000010B180680028F6D1A4F10C0010BD00009C
:104E1000A8E2062000B5020010D0094B5969D868F5
:104E20000844106000F018F8906000F00BF8506033
:104E3000D868D060586910619868506100BD000062
:104E4000A8E20620034800680C38002800DC002097
:104E500070470000A8E206200248C1680068081AEE
:104E600070470000A8E20620002138B1044904225E
:104E700002EBC000496B085841680C39084670477E
:104E8000A8E2062002488169491C81617047000040
:104E9000A8E206200549CA69521CCA61496B01EBA8
:104EA000C0010A78521C0A7000F07CB8A8E2062003
:104EB0007CB506460C460846FFF7C2FE050021D029
:104EC00006B33046FFF7D0FFA04200DA044601F0F7
:104ED000F5FD2846FFF7DEFF00903046FFF7DAFFCA
:104EE000094B019001461B68224600989847684686
:104EF00000F040F801A800F03DF83046FFF7D2FE80
:104F000003F00AFE28467CBDA416022010B501F06D
:104F1000D5FDFFF75FFF64220849B0F5800F04D983
:104F200090FBF2F4086A444303E0096A4143B1FB91
:104F3000F2F403F0F1FD204610BD0000A8E20620C7
:104F400006490A680649904205D94A68B0EB520FF3
:104F500002D3500800E0104688607047D410022049
:104F600068E3062002488169491E8161704700009C
:104F7000A8E206200A4902684B6B52F8082C03EBA2
:104F8000C2021378022B03D3CB690BB15B1ECB613A
:104F90001178491E11700021016008467047000019
:104FA000A8E206200349042202EBC000496B08581E
:104FB00008307047A8E2062050F8080C70472DE929
:104FC000FC414FF000060B465FEA000834462BD048
:104FD00032B111461846FFF70FFE060000D101243A
:104FE0004046FFF757FF0090078845686846FFF77F
:104FF000C1FFCCB9B9002846091DFFF759FF0500CC
:1050000015D0FFF747FF019040F8276001A8FFF790
:10501000B1FF4046FFF73EFF009045600188491C04
:1050200001806846FFF7A6FF2046BDE8FC813046B8
:10503000FFF738FE0124F7E70820FFF711BE7CB523
:10504000050023D0FFF726FF00904068C0B1FFF7AE
:1050500021FF0024019005E0019800EB8400FFF798
:1050600045FE641C00980088A042F5DC01A8FFF70B
:1050700081FF0098001DFFF739FE0099002008808D
:105080006846FFF777FF2846FFF70CFE7CBD7CB52E
:105090000C46FFF7FFFE00900188A14220D9456829
:1050A000F5B101F00BFD2846FFF7F4FE019000EB8F
:1050B0008400FFF71BFE00990888401E80B208801C
:1050C000401E019905E001EB8402526841F824205A
:1050D000641C8442F7DD01A8FFF74CFF03F01CFDC0
:1050E0006846FFF747FF7CBD38B5002430B1FFF7B5
:1050F000D1FE009004886846FFF73CFF204638BD8B
:1051000038B50D46002448B1FFF7C4FE294600908B
:1051100000F050F804466846FFF72CFF204638BDE3
:1051200038B50D46002448B1FFF7B4FE294600907B
:1051300000F052F804466846FFF71CFF204638BDD1
:105140002DE9FF4107460E46154600241046FFF79D
:1051500087FD009038B33846FFF79CFE314601903A
:1051600000F03AF802900098FFF794FE104B03907D
:105170002A461B680299984702A8FFF7FBFE03A87E
:10518000FFF7F8FEDDE90020314600F02FF818B1F6
:105190006846FFF7ABFD03E00098FFF77BFE04468F
:1051A00001A8FFF7E7FE04B02046BDE8F08100004B
:1051B000A416022038B50D4601880024A94209D959
:1051C000406838B1FFF766FE009050F82540684609
:1051D000FFF7D0FE204638BD10B50024FFF7EAFFE8
:1051E00010B1FFF757FE0446204610BD38B50C46F7
:1051F000014615460A880120A24210D949680029B3
:105200000DD00846FFF746FE00EB840400902046D0
:10521000FFF76CFD68462560FFF7ACFE002038BD47
:1052200070B50C46054601F07FFCC1B22346284606
:10523000BDE87040002200F001B80000F0B52D2755
:105240001C68B0F1004F08D0002600280DDA651C5C
:105250001D6027704042012408E0651C01261D6086
:105260006FF000402770491E01E00024091BC9B2FD
:105270002AB3491EC9B222E00C46491EC9B2944263
:1052800005D1124C27781C68651C1D602770104CD6
:1052900054F8215090FBF5F4E4B20A2C11D804FB29
:1052A000150011B90EB1641CE4B20A2C02D101241C
:1052B000491CC9B21D686F1C30341F602C70002956
:1052C000DAD1196800200870F0BD0000D810022063
:1052D00070CE080810B5002807DD0A682B24531C7F
:1052E0000B601470096800220A7010BD10B50446E6
:1052F00001F0E4FB044904EB840001EB8000047935
:1053000003F00AFC204610BDFCE406202DE9FC5FFA
:105310008946044601F0D2FB484600F0A5FF2C4E1A
:1053200009EB8907824656F82700019029484FF07B
:105330000108016841B92749C0F80080091D2648C5
:105340000860084604F008FF214A09EB8901BAF118
:10535000000002EB81051BD002F042FB83464FF0B8
:105360007F4002F0A3FB00F093F800221146206872
:1053700000F09CFC206842880188504602F01CFC2A
:1053800046F8274085F80480584602F029FB17E0CC
:1053900046F8274085F804802869464618B102F08F
:1053A0004FFA0020286174B10096E868A1684B4666
:1053B000421AA8686168411A206802F09BFA2861C5
:1053C000484628F0ADFF03F0A7FB0198BDE8FC9F1D
:1053D000FCE40620BC160220C99B020870B51446E6
:1053E0000D46064601F06AFB204600F03DFF030033
:1053F000174804EB840109D050F821004168806807
:10540000711A2A1A184602F0C7FB1CE000EB81044F
:10541000A268B24201D0012200E00022E368AB4260
:1054200001D0012300E000231A430CD0236943B1CB
:1054300050F82100816840686A1A311A184602F053
:1054400024FAC4E90265BDE8704003F065BB0000C2
:10545000FCE4062010B5C2B2CBB2D21A00D552423B
:1054600093B25B43C0F30722C1F30724121B00D59C
:105470005242000C92B2A0EB114002FB023200B289
:10548000002801DA404200B280B200FB002010BDCB
:1054900010B50021084601F06BF843F6FF72504248
:1054A000BDE8104013460146AFF300802DE9FC41F2
:1054B0001C4615460E46074601F000FB04200AF084
:1054C000E5FE804612484069C16C006D0F440644F9
:1054D0000D440444ADF80070ADF80450ADF802601E
:1054E000ADF80640684615F07BF907E023462A46EA
:1054F000314638460AF0FCF915F0EAF80028F5D1F3
:1055000040460AF0C3FE03F007FBBDE8FC81000043
:10551000D8100220B0F90630B0F90420B0F902101A
:10552000B0F90000FFF7C2BF2DE9F8431C00DDE928
:10553000089816460F46054602D113F0C3FE0446EE
:1055400000962E6843464A4621462846B047061E26
:1055500039D013F0ACFE8146698A304613F079F9F0
:10556000304614F07EFF484614F07BFF4FF00008F1
:105570000CE000BFCDF8008055F81CCF00231A4680
:1055800049462846E04700B314F06BFF7F1E002F0A
:10559000F0DC1D21484614F0ECFC601C12D001F038
:1055A0008DFA13F0EBFE30B1FFF7FCFC8469B442D6
:1055B00001D02000F8D1B44202D0304614F016FEDB
:1055C00003F0AAFA3046BDE8F883304613F06EFDCA
:1055D0000020F8E70249096A002900D0084770470F
:1055E000D81002202DE9F0411C4616460D4607460C
:1055F000022B02DB0020BDE8F0811C20FFF792FBAC
:105600000028F8D00DB105610AE0094A52F82410CB
:1056100009B905E011460A68002AFBD10969016150
:1056200084618682002101604160C0E90217E2E7DF
:105630002011022070B51D46FFF7D4FF040009D0E9
:1056400000F00EF8E068006820B90348006800EB3D
:1056500085008465204670BDEC100220FFF73ABB40
:1056600070B5C0B38269022A36DA2149531C0C781E
:105670009C4200DA0B701F4C54F8221019B944F800
:10568000220032E019464B68002BFBD106E0CB68C4
:10569000C5681B682D68AB4203DD09680029F6D197
:1056A0001AE0C1B1CB68C6681B683668B3420CD13A
:1056B000838A012B05D008E01946DB681B68AB42E2
:1056C00003DB0B68002BF7D129B14B6833B11860AD
:1056D0004A68426004E0FFE7012070BD44F8220000
:1056E0004860884200D100210160002070BD0000A8
:1056F000461102202011022010B503E00468FFF7D4
:10570000AFFF20460028F9D110BD000010B50C4BAA
:105710008269002153F82240844205D1046843F88D
:105720002240026802B1516042680AB10368136006
:1057300002680AB1436853600160416010BD000017
:105740002011022000207047022801DB0020704752
:10575000054A52F8200004E0C26812688A42F6D076
:1057600000680028F8D1704720110220022801DBD0
:1057700000207047054951F8200004E0C16809681D
:105780000029F6D000680028F8D1704720110220C7
:10579000F8B516460F4605004FF0000414D00C2053
:1057A000FFF75EFA04000FD001F088F92046FFF7FA
:1057B00071FB06490090C0E90015078146816846E3
:1057C000FFF7D8FB03F0A8F92046F8BDBC23090871
:1057D000F8B5074615460E460C20FFF741FA0400BF
:1057E0000FD001F06BF92046FFF754FB06490090FB
:1057F000C0E90017068145816846FFF7BBFB03F04F
:105800008BF92046F8BD00006C2C09082DE9F843FF
:105810001D461646884604000CD0FFF73BFB00905F
:10582000006807686846FFF7A5FB2B4632464146ED
:105830002046B847BDE8F88338B504004FF00000B3
:105840000AD02046FFF726FB0090006845686846AE
:10585000FFF790FB2046A84738BD38B504004FF04D
:1058600000000AD02046FFF715FB0090006885680D
:105870006846FFF77FFB2046A84738BD2DE9F04179
:10588000044603F0B2F90619164F1FE000F0DEFBE4
:105890003868844200DD0446A04601F00FF9124842
:1058A0000568FFF7EFFA2C0017D000BF03F034F9BA
:1058B000641EFBD1404603F093F91DB101F0FEF8E0
:1058C0006D1EFBD1FFF74EFB03F026F903F08DF9B7
:1058D000341A002CDADCBDE8F081404603F080F990
:1058E000F0E70000EC110220DC11022010B50446A4
:1058F00001F0E4F82046FBF7EDFCBDE8104003F0B2
:105900000BB9000070B514460D46064601F0D6F8F6
:105910000548016830464D848C84FBF7DBFCBDE80C
:10592000704003F0F9B80000EC10022070B50C468E
:10593000054602E02846FFF7D9FF641EFAD570BD80
:1059400010B501F0BBF800F097FD054909688A8C95
:1059500010448884088C4884BDE8104003F0DCB80B
:10596000EC1002202DE9FC4706005FD001F0A6F8FC
:1059700000F082FD3C4C81462068B0F9228000F0A6
:10598000C1FD216807468A8CD01B888441E000BF96
:1059900047F6FF71304604F03BFA82460146304636
:1059A00004F00CFA2168054691F82C0000F0030081
:1059B000012841D002283BD000204A8C101A48848C
:1059C000ADF800006A1E1044ADF80400888CADF8F4
:1059D0000200A9F101010844ADF806006A465146EB
:1059E000304603F03DFB2168BDF802008884514633
:1059F000304602F07FFF064430780A281ED00D287A
:105A00001CD0BDF80000216828444884307818B1C3
:105A1000761C30780028BBD12068818C3944818481
:105A2000818D21F00301818503F076F8BDE8FC87C4
:105A300005EBD5704010C0E72846BEE7206890F817
:105A40002C1001F0030101290BD0022909D0018C8F
:105A5000418431780A29D9D1828C02EB09018184F1
:105A6000D4E7A0F82280F4E7EC10022070B51446C9
:105A70000D46064601F022F80548006845848484F6
:105A80003046FFF76FFFBDE8704003F045B80000F7
:105A9000EC10022047F6FF73AFF300802DE9FC41C4
:105AA0001F4690460D4606004FF000041AD001F044
:105AB00005F865B1284614F06BFC040007D00246D7
:105AC0002946684604F016FA684614F061FC3B4625
:105AD00042462946304603F01BFB204614F058FC92
