:020000040800F2
:1000000030420720E1020008C51504084DFC030832
:10001000A1150408A1A903083B5104080000000031
:100020000000000000000000000000001D020008A9
:100030003DB503080000000079020008012704080C
:10004000FB020008FB020008FB020008411B040839
:10005000FB020008FB020008FB020008FB0200088C
:10006000FB020008FB020008FB020008FB0200087C
:10007000FB020008FB020008FB020008FB0200086C
:10008000FB020008FB020008FB020008FB0200085C
:10009000FB020008FB020008FB020008FB0200084C
:1000A000FB020008FB020008FB020008FB0200083C
:1000B000FB02000841280408FB020008FB020008BC
:1000C000FB020008FB020008FB020008FB0200081C
:1000D000FB020008092F0408FB020008FB020008CD
:1000E000FB02000869190408FB020008FB02000873
:1000F000FB020008FB020008FB020008FB020008EC
:10010000FB020008FB020008FB020008FB020008DB
:10011000FB020008FB020008FB020008FB020008CB
:10012000FB020008FB0200083DB40308FB020008C4
:10013000FB020008FB020008FB020008FB020008AB
:10014000FB020008FB020008FB020008C9150408B6
:10015000FB020008FB02000849B40308FB02000888
:10016000FB020008FB020008FB020008FB0200087B
:10017000FB020008FB020008FB0200080000000070
:10018000FB020008FB020008FB020008FB0200085B
:10019000FB020008FB020008FB020008FB0200084B
:1001A000E90B0408FB020008FB020008FB02000840
:1001B000FB020008FB020008FB020008FB0200082B
:1001C000FB020008FB02000800000000FB02000820
:1001D000FB020008FB020008FB020008FB0200080B
:1001E000FB020008FB020008FB020008FB020008FB
:1001F000FB020008FB020008DFF80CD000F0C0FA98
:100200000048004715D604083042072030BF72B6B8
:10021000704762B6704780F3088870472D4B1968A5
:100220000868B0E8F04F80F30988BFF36F8F4FF094
:10023000000080F311887047000000000848006843
:10024000006880F308884FF0000080F3148862B6DD
:1002500061B6BFF34F8FBFF36F8F00DF00BF00BFEA
:1002600008ED00E0DFF80C00016841F47001016066
:10027000704700BF88ED00E0EFF30980BFF36F8F98
:10028000144B1A681EF0100F08BF20ED108A20E9E9
:10029000F04F106009B44FF0500072B680F311882F
:1002A000BFF34F8FBFF36F8F62B658F039FF4FF037
:1002B000000080F3118809BC19680868B0E8F04FA5
:1002C0001EF0100F08BFB0EC108A80F30988BFF34E
:1002D0006F8F7047D4000220EFF305807047000055
:1002E0000648804706480047FEE7FEE7FEE7FEE7D0
:1002F000FEE7FEE7FEE7FEE7FEE7FEE7ED27040880
:10030000F90100082DE9F05F0546002092469B4662
:1003100088460646814640241BE02846414647461B
:10032000224600F0D6F853465A46C01A914110D3DF
:1003300011461846224600F0BDF82D1A67EB010859
:100340004F4622460120002100F0B4F817EB0009C7
:100350004E41201EA4F10104DFDC484631462A4606
:100360004346BDE8F09F10B5441A0346944209D2B3
:100370008418114403E011F8013D04F8013D521EB8
:10038000F9D210BD40EA0104A40703D009E010C966
:10039000121F10C3042AFAD203E011F8014B03F82C
:1003A000014B521EF9D210BDD2B201E000F8012B70
:1003B000491EFBD270470022F6E710B513460A46E5
:1003C00004461946FFF7F0FF204610BD421E12F802
:1003D000013F002BFBD111F8013B02F8013B002B40
:1003E000F9D1704730B505462A460B4612F8010B85
:1003F00013F8014B08B1A042F8D01CB1002802D07C
:100400006D1CF1E7284630BD10B5044604E00B78BA
:1004100000F8013B03B1491C521EF8D2204610BD22
:10042000421C10F8011B0029FBD1801A704710B53F
:10043000002200E0521C835C8C5CA34201D1002BA3
:10044000F8D1D8B2E1B2401A10BD30B50446002050
:10045000034600E05B1C934203D2E05CCD5C401B92
:10046000F8D030BD034611F8012B00F8012B002A0B
:10047000F9D118467047A0E8004FF0C040F804DBFF
:1004800001B5AFF30080BDE8024001C10020704714
:1004900000F12C080C4658F8040DAFF3008058F812
:1004A000040D8546200008BF012038E9F00018E956
:1004B000004F7047202A04DB203A00FA02F10020A6
:1004C00070479140C2F1200320FA03F31943904092
:1004D0007047202A04DB203A21FA02F000217047FD
:1004E00021FA02F3D040C2F120029140084319469C
:1004F000704700000FB4002300B589B00CA900912B
:100500000B996FF00042CB601E4B06931E4B079376
:100510000423CDE901321D4A089202466B460020B1
:1005200000F0DAF909B05DF814FB70B586B0064644
:100530004FF0FF300091CDE90101002015460C4637
:1005400004903246694604A8FFF7D4FF0246049897
:10055000211825B108B1084600E02046286004981B
:1005600000280DD0002A02DD0098884208D0081B20
:100570000094CDE901043246694604A8FFF7BAFFAA
:1005800006B070BD110B00082F0B0008A50700086E
:100590002DE9FE4F81EA030404F0004421F00041FC
:1005A00000944FF0000B23F0004350EA01045ED0AA
:1005B00052EA03045BD0C3F30A54C1F30A552C4436
:1005C000A4F2F3340194A0FB0254C1F3130141F4EB
:1005D0008011C3F3130343F4801301FB024400FBB7
:1005E000034E840A970A44EA815447EA8357A4FBDE
:1005F000076802958D0A05FB07854FEA932C04FBDB
:100600000C542705029D4FEA065847EA1637B5EB0A
:1006100008056EEB070C870E920E47EA811742EA37
:100620008312A7FB0201B6EB0B0164EB00042B0D58
:1006300043EA0C335E1844EB1C50DA465146E7FBA4
:100640000201C5F313044FEA0B3343EA14534FEA94
:100650000432019C43EA0603A4F10C040294009CBA
:10066000CDE900B400F083FA03B0BDE8F08F0020BC
:100670000146F9E72DE9F04D81EA030404F0004B4F
:1006800021F0004514464FF0000A23F0004150EAE3
:10069000050220D054EA01021DD0C5F30A570246D4
:1006A000C5F31303C1F31300C1F30A5640F48015D8
:1006B00043F48013A7EB0608101BD64608F2FD385A
:1006C00073EB050002D308F1010801E092185B41C9
:1006D000B8F1000F03DA00200146BDE8F08D0020DC
:1006E0004FF48011064684460EE0171B73EB050796
:1006F00005D3121B63EB050306434CEA010C4908C2
:100700004FEA300092185B4150EA0107EDD152EAFE
:10071000030012D082EA040083EA0501084305D0F1
:10072000101BAB4106D20122002306E000224FF04D
:10073000004302E06FF0010253101AEB06004CEB8D
:10074000085110EB0A0041EB0B01BDE8F04D00F041
:10075000FFB970B521F0004303430CD0C1F30A5533
:100760000024D5EB040564EB0403D617AD1AB3419E
:1007700002DB0020014670BD201841EB025170BD24
:10078000064C074D06E0E06840F0010394E80700DE
:1007900098471034AC42F6D3FFF732FD18AC0B0883
:1007A00038AC0B08C0B24FF4F05100F02FBA000083
:1007B0002DE9FF4F087883B09946FF2805D0491CE2
:1007C0002D2804D00024002008E000200BE00124A4
:1007D000F9E700EB800003EB4000491C0B78FF2B8E
:1007E000F7D104B1404200230293147819461D4604
:1007F0002D2C01D02B2C04D1521C2D2C13D00024D5
:100800000294AA461478FF2C0FD00A25A3FB057882
:1008100001FB05814FF0000C03FB0C11521CE31986
:100820004AEB0101EEE70124EAE7814453EA0100C3
:1008300002D019F5C87F06DA03980021C0E900113B
:1008400007B0BDE8F08F0025AE4E2F46DFF8B88226
:10085000184600F0EFF9CDE90001B9F1000002DA25
:10086000C9F1000400E004460023A74A1AEB030B79
:1008700042EB045A12E0E00707D02A4633463846D6
:100880004146FFF785FE074688462A46334610460E
:100890001946FFF77DFE05460E466410002CEAD18E
:1008A000DDE90001B9F1000F5A46534606DAFFF7B9
:1008B000E1FE3A464346FFF7DDFE05E0FFF768FE3E
:1008C0003A464346FFF764FE029A0AB181F00041BE
:1008D000039AC2E90001B3E72DE9FF4F1F468DB02F
:1008E000D7E901464FF0FF382E2045464FF000096A
:1008F0000B90B9696D1C0E988847396A8246884703
:100900000028F6D1BAF1FF3F0AD024F4D064002EBB
:1009100011DDBAF12B0F08D0BAF12D0F0BD102E087
:10092000404611B08DE744F48064B9696D1C0E989F
:1009300088478246761E6946600501D52D2000E075
:100940002B208DF8000001F1010B0DF1200809E0CA
:10095000B9696D1C0E98884782460F9844F400745C
:10096000761E0560002E02DDBAF1300FF0D00B9933
:100970008A453ED144F0800406E00F99681CA9F135
:10098000010944F400740860B9696D1C761E0E9864
:10099000884782463028F0D02BE00B998A4505D154
:1009A000200603D444F08004761E18E0504646F03A
:1009B00055FD08B30DF11301761E44F400748B4508
:1009C00008D2AAF130000BF8010B200607D5A9F1D7
:1009D000010003E0200602D409F101008146A005D0
:1009E00002D50F99681C0860B9696D1C0E9888477C
:1009F0008246002ED1DC53E0002E51DDBAF1650FA6
:100A000002D0BAF1450F4BD1A00549D5B9696D1C8B
:100A100024F44074761E0E9888478246002E0CDD22
:100A20002B2804D0BAF12D0F07D144F48074B96992
:100A30006D1C0E9888478246761EE00501D52D2153
:100A400000E02B2108F8011BCDF82C8021E00DF1EE
:100A50002901761E44F4007488450CD2AAF13000B6
:100A600010F0FF0088F8000002D10B99884509D9E1
:100A700008F1010806E0E00501D5244801E042F252
:100A80000F708146B9696D1C0E98884782460F9891
:100A90000560002E04DD504646F0E0FC0028D6D16B
:100AA000F9690E988847FF208BF8000088F800004D
:100AB0000020069007904B466A4608A906A8FFF753
:100AC00077FEA00502D46FF001002AE714F0240F8E
:100AD0000AD0E00714D1DDE906123868031D3B6037
:100AE0000068C0E900120BE0DDE9060100F0AEF895
:100AF0000146E00704D13868021D3A6000680160D1
:100B000028460EE7000014400000F03FF1D8FFFF38
:100B1000426842B1016811F8013B23B1521EC0E99D
:100B20000012184670470121C160881E7047426854
:100B30005AB1C368016843B983688B4205D0491E26
:100B4000521CC0E90012002070474FF0FF30704780
:100B500010B5141E73F1000408DA401C41F10001C5
:100B600092185B411A4301D120F0010010BD2DE91C
:100B7000F04D92469B4611B1B1FA81F202E0B0FA13
:100B800080F220329046FFF795FC04460F4640EA7B
:100B90000A0041EA0B0153465A46084313D0114656
:100BA00053EA010019D0C8F140025046FFF791FC0A
:100BB00005460E46504659464246FFF77BFC084321
:100BC00005D0012004E020463946BDE8F08D002024
:100BD000054346EAE0762C4337430A986305E40A66
:100BE000A0EB08000022FD0A44EA47540A3002D56F
:100BF00000200146E9E7010510196941DDE90845D2
:100C000000196941BDE8F04DA2E700007F2801D935
:100C1000002208E0064A02EB5002C007127800D119
:100C2000120902F00F0201209040084070470000B6
:100C3000B0220B080EB540F2334202920022CDE9F9
:100C400000221346FFF793FF03B000BD01F00043FD
:100C500030B421F0004150EA010206D00A0DA2F59D
:100C60006072C1F31301002A02DC30BC002070471F
:100C7000440F44EAC104C100E01830BC00EBC2508C
:100C8000AFF300800029A8BF7047401C490008BF8F
:100C900020F00100704710B4B0FA80FC00FA0CF0AC
:100CA00050EA010404BF10BC704749B1CCF12004E4
:100CB00021FA04F411FA0CF118BF01212143084371
:100CC000A3EB0C01CB1D4FEA00614FEA102042BF9D
:100CD000002010BC704700EBC35010440029A4BF93
:100CE00010BC7047401C490008BF20F0010010BC38
:100CF000704770B58D1810F8014B14F0030201D144
:100D000010F8012B231106D110F8013B03E010F875
:100D1000016B01F8016B521EF9D1ABB110F8012B38
:100D200004F00C048A1A0C2C03D0A2EB84129B1C36
:100D300008E010F8014BA2EB0422F8E712F8014B8F
:100D400001F8014B5B1EF9D5A942D4D3002070BD38
:100D500070B5456882B00446014628461BF060F92C
:100D600068B123680F2B59D00BDD282B45D0B3F584
:100D7000107F3CD0112B49D020461BF021FF02B040
:100D800070BD0B2B20D00E2BF6D1E3681A68596882
:100D90000D2A53D0202A31D1002928464FF48071E2
:100DA0007DDD1BF02DFA284605F04CFA02AB846A73
:100DB00043F8040D184605F0A9FBA207DFD5284625
:100DC00001211DF0E7FDDAE7284602AD05F03AFA09
:100DD00003466830019304F0FBFF55F8040D03212E
:100DE0006C3005F01BF8284605F090FBC4E7324B49
:100DF000214628461B689847C1E7E368002BBBD112
:100E000028464FF480711BF0A9F8B5E72B4B1B68FF
:100E1000002BB4D0214628469847B0E7284605F075
:100E200011FA034602A840F8043D5B6E1C6805F009
:100E30006DFB002CA3D02846A047A0E70029DDDDEC
:100E40004FF4807128461BF0DBF902AC284605F010
:100E5000F9F9866A44F8040D204605F057FBB107FE
:100E600003D5012128461DF095FD4FF480712846D9
:100E70001BF074F8284605F0E5F9034620461E8E5F
:100E80009C6A019305F042FB30460FF0A7F9A307D7
:100E90007FF575AF284602211DF07CFD6FE71BF042
:100EA0005DF8284605F0CEF9034602A89C6A1E8E1E
:100EB00040F8043DE6E700BFA010022020FF062016
:100EC0002DE9F04F87B0804689469246129E9B4698
:100ED000109F4C251A4C0AF005FC01965B460097C2
:100EE000524649464046039502941BF06DFD064666
:100EF00000B305F0A7F910221199124F05901BF0CD
:100F00002FFB0DF1180E3D1D5EF804CD0FCD0CF139
:100F100034040FC40FCD0FC495E80F0084E80F0010
:100F20007B6B7046CCF8643005F0F0FA7B6B304692
:100F30005B6898470FF096FF304607B0BDE8F08F2A
:100F4000510D0008A01002202DE9F04F87B0804617
:100F500089469246119E9B46109F4C251A4C0AF0DA
:100F6000C1FB01965B4600975246494640460395B1
:100F700002941BF029FD064600B305F063F9102228
:100F80001399124F05901BF0EBFA0DF1180E3D1D51
:100F90005EF804CD0FCD0CF134040FC40FCD0FC497
:100FA00095E80F0084E80F007B6B7046CCF8643046
:100FB00005F0ACFA7B6B30465B6898470FF052FF48
:100FC000304607B0BDE8F08F510D0008A010022098
:100FD0002DE9F04FB0F90A6087B0B0F90C708B467C
:100FE00085691644B0F90E801F44B0F910A004467C
:100FF000B0F908904C350AF075FBDFF8CCC04FF023
:10100000000E4246CDF800B03946304603955346AF
:10101000CDF808C0CDF804E01BF0D6FC804628B916
:101020000FF020FF404607B0BDE8F08F05F00AF949
:10103000244F49460DF11809102205903E1D1BF062
:101040008FFA59F804ED0FCE0EF134050FC50FCE0F
:101050000FC596E80F0085E80F007B6B4846CEF879
:10106000643005F053FA7B6B40465B6898470FF09D
:10107000F9FE65680AF036FB404605F0E3F80346E2
:1010800004A89C6E0493059405F040FA294648464E
:1010900011F01CFC0028C3D0059B9C4209D040469F
:1010A00005F0D0F8059A034604A89A66049305F063
:1010B0002DFA40461CF0FAFF0FF0D4FE404607B070
:1010C000BDE8F08FA0100220510D0008974A8168FA
:1010D00043682DE9F041044688B052F82160122B94
:1010E00040D8DFE803F0B03F3F3F3F0A973F3F3F24
:1010F0003F3F3F3F3F3F3F3F4300F569002D40F0FA
:10110000B580371F57F8040F0EF064FE04F1140188
:1011100020690EC928445B1B521B2944013507F086
:10112000EDFA022DEED162693169E3690191911CFA
:10113000F76813442069A2695B1028440097521B8A
:1011400007F0ACF9E1696269B0698B1E1144A269CC
:101150000190491020697669521B0131284400969C
:1011600007F09CF9002008B0BDE8F081006805F0A8
:1011700069F8876E0490002F00F0D080A368B0F962
:101180005C80002B00F0C880032B14BF00230223D7
:1011900000EB8303406D08AC1D6C0EF04BFE28463F
:1011A0000EF018FE06A808F001FAB28BBDF8181070
:1011B00006A8BDF81C301144BDF81A509A1ABDF8A3
:1011C0001E30ADF81810023554F8101D023BADF872
:1011D0001C20B1F96020B1F95E10ADF81E30ADF8F9
:1011E0001A500BF0F7FE204608AC05F08FF90220EC
:1011F0000EF0DCFF384605F025F806A9424644F813
:101200000C0D06F065FE204605F080F9002008B0C0
:10121000BDE8F081006805F015F8049020681FF023
:1012200075F8B8B9049B5D6F05B9DD6E04A805F0CB
:101230006DF90023284621681A4606F0F3FC0020C9
:1012400008B0BDE8F08100681DF0FEFE002008B087
:10125000BDE8F081A368002B64D1049A136F002BC2
:1012600014BF6C23682313445D68DFE7B268B0469F
:10127000C3690027039271688269029158F80409D2
:10128000009561690190206910F090FD58F8040FF5
:101290000EF0A0FDF369A26921696069D21A1944B0
:1012A000384407F0D5F9F369A2692169E069D21AD7
:1012B0001944C01B07F0CCF9F369E2696169206940
:1012C000D21A1944384407F061FAA069F369E26957
:1012D000C01B61690137D21A194407F057FA022F6F
:1012E000D4D1B0680EF076FDF16922696569901C71
:1012F000E3690A445B1A2944013A07F0BBFAF16931
:10130000A0696569E369821E401A5B1A29440130AD
:1013100007F0B0FAF56906E7012339E704A805F0FC
:10132000F5F81FE7049BDD6E80E700BF947B0B0898
:1013300010B5044682B078B10AF0D4F9204604F022
:1013400081FF02AB448E43F8040D1846C4F3002419
:1013500005F0DCF80FF086FD204602B010BD00BF9E
:1013600070B5164604460D46049A3046194606F0F6
:101370000DFC294602462046BDE8704000F070B8DA
:10138000054B064A064910B45C6A11605862204653
:101390005DF8044B704700BFA4100220D410022057
:1013A000D810022000B9704730B5044683B00D460E
:1013B0000AF098F9204604F045FF02AB456543F872
:1013C000040D184605F0A2F820461CF06FFE0FF041
:1013D00049FD03B030BD00BF38B5134600220446B6
:1013E0000D461846114606F0FBFB294602462046EC
:1013F000BDE8384000F034B870B582B018B90125A6
:10140000284602B070BD04460D460AF06BF920462E
:1014100004F018FF0346866E68468DE8480005F024
:1014200075F8294601A811F051FA00280CBF0125D2
:1014300000250FD0019B9E4209D0204604F002FFF8
:10144000019A034668469A66009305F05FF82046C5
:101450001CF02CFE0FF006FD284602B070BD00BF48
:1014600000B9704770B5054682B00C4616460AF0C2
:1014700039F9284604F0E6FE022C019006D901A8AD
:1014800005F044F80FF0EEFC02B070BD1A34A40071
:101490002044043004F09CFC019B28461C446660F8
:1014A0001CF004FEEBE700BF30B505469DB00C46CE
:1014B0000AF018F901A96C2228461BF069F907AB5C
:1014C00093E8070084E807000FF0CCFC1DB030BDA6
:1014D0002DE9F043456883B00446014628461AF0DA
:1014E0009FFD60B323680E2B3CD074DD0F2B29D0F9
:1014F000B3F5107F20D1284604F0A4FE034602A8CD
:10150000B3F9307040F8083D93F8749093F8758003
:1015100004F0FCFFE668002E75D028461CF066FC3F
:1015200000286BD1337A002B6FD1284602211DF0A1
:1015300031FA38460EF052FE20461BF041FB03B054
:10154000BDE8F083284604F07DFE034602A840F87B
:10155000043D1B6F1C6804F0D9FF002CEFD0284617
:10156000A047ECE7284604F06DFE034602A840F8C9
:10157000083D93F8747093F8756004F0C7FF28462F
:101580001EF0C4FE0028D7D0E3685A68002AD3DDD5
:101590001B68202BD0D1002DCED0013696FBF7F35F
:1015A00007FB13660AF09EF8284604F04BFE0190F4
:1015B00090F874309E422FD280F8756001A804F034
:1015C000A5FF28461CF072FD284605211DF0E2F912
:1015D0000FF048FCB0E70B2BAED1284602AD04F06B
:1015E00031FE0346783045F8043D04F0F1FB28460F
:1015F00004F08CFF20461BF0E3FAA0E70021284608
:101600001DF0C8F998E70321F9E7012128461DF0EC
:1016100083FB2DB90121F2E701A804F077FFD7E79A
:1016200008F1010898FBF9F309FB13880AF05AF84E
:10163000284604F007FE019090F8743098450FD2C8
:1016400080F8758001A804F061FF28461CF02EFD8B
:10165000052128461DF09EF90FF004FC0121CEE77C
:1016600001A804F053FFF7E72DE9F04FB0F90A5055
:1016700087B0B0F90C600C46B0F90E8015441E44DA
:10168000B0F910A0B0F9089087690AF02BF8DFF8DC
:10169000CCB0B8F1000F4AD0BAF1000F47D0DBF858
:1016A00010206FF0704300945437D41ADFF8B0E084
:1016B00003973146B4FA84F45346424628466409F7
:1016C000CDF808E0254F01941BF07EF9064640B3A3
:1016D00004F0B8FD4946102205901AF041FF0DF1C3
:1016E000180C3D1D4FF002095CF804ED0FCD0EF112
:1016F00034040FC40FCD0FC40FCD0FC495E80700FD
:101700000F2384E807003A686046CEF87020CEF8D0
:101710007C308EF8749004F0F9FE3B6830465B68CC
:1017200098470FF09FFB304607B0BDE8F08FB8F147
:10173000000F09D0BAF1000FB1D1DBF800309B687F
:101740001B6898478246AAE7DBF800309B681B6855
:1017500098478046BAF1000FA1D1EEE7641102204C
:10176000D11400082DE9F04F0446006893B008BB7F
:101770008146AB4E6568192D00F25081DFE815F007
:1017800029004E014E014E014E014E0140007A00EB
:101790004E014E01B5004E014E014E014E014E016B
:1017A0004E014E0110014E014E014E014E014E01FF
:1017B0004E0124001EF0AAFDB0FA80F9994B4FEAC1
:1017C000591953F82960D5E7B569284613B0BDE823
:1017D000F08F20681DF038FC206804F033FD0246CD
:1017E00012A8B2F90630B2F9021040F8082D5B1ABF
:1017F0000133D36704F08AFE284613B0BDE8F08FAA
:10180000A368256804931C4609F06CFF284604F081
:1018100019FD034612A8621EDFF80C8240F8083D4D
:1018200017460292DD6F04F071FE0FF01BFB58F8B3
:101830002940002C00F0FA80B900CA19920003E098
:10184000E46C002C00F0F280B4F84830AB42F7D1E1
:10185000A31808469B68002BF2D0029B1844032271
:10186000002504EB8000114606F05EFC284613B00C
:10187000BDE8F08F256809F035FF284604F0E2FC4A
:1018800012ABC76F43F8080D184604F03FFE0FF087
:10189000E9FA20681BF048FD002800F0FB81A6F162
:1018A0000408002558F8040F0EF094FA20696169C5
:1018B000C31928442944013B5B1B01351A4606F035
:1018C0001DFF032DEED1206900253269C31961691E
:1018D00001920330043BF46803311A46009406F089
:1018E000DDFD284613B0BDE8F08F206804F0AAFCA7
:1018F000034612A8B3F9547040F80C3D9D6CD3F820
:10190000349093F8568004F001FE266809F0EAFE50
:10191000304612AE04F096FCD0F87CA046F8080DD4
:10192000304604F0F3FD0FF09DFA30461BF030FC1A
:10193000BDF84030206A53449844ADF8408007F029
:10194000A3FE0446484607F0DDFE27F00303042B00
:1019500000F098810C2B00F06F8180B2BDF942300D
:1019600027F00C02012A00F08581022A00F0738121
:10197000A4B2BDF94020411E013C284600250B447D
:101980002244ADF84630ADF844200EF023FA30463C
:101990004FF0FF3106F04CFC284613B0BDE8F08F45
:1019A0002068002504F04EFC034612A8B3F95480C9
:1019B00040F80C3DD3F84490D3F834B093F8567007
:1019C00004F0A4FD266809F08DFE304612AE04F046
:1019D00039FCD0F87CA046F8080D304604F096FD9E
:1019E0000FF040FA30461BF0D3FBBDF840305846AC
:1019F000246A53441F44ADF840700EF01BFA0220D5
:101A00000EF0D4FB48460EF0E5F92046424631463A
:101A100006F05EFA284613B0BDE8F08F0025D4E644
:101A2000D813022008A20B086C000720502004F0F5
:101A300027FA0446002800F03581029B502200213D
:101A4000A5F1060A5B001F460A93AE4B1B68984738
:101A5000029AAD4BBAF1000F07EB0200716983FBEC
:101A60000A2358F829205646B8BF6E1FE264BAF11F
:101A7000000F04F140024FEAEA7E4FEA660648F89A
:101A8000294008925246B8BF0AF10302CEEB630325
:101A900004EB80006164A6EBA202F61A00F12801B3
:101AA000A4F84850D7186B1C099148BF05F10803EA
:101AB000DB1003FB0AF80793404604F0E1F9834684
:101AC000002800F0C5808F4B424600211B689847D4
:101AD000012E40F31481079907F1020E029AB146D4
:101AE0004B0001FB0EFE12F1FF320E46C3F1000364
:101AF0000B9418BF01220C9705930123069207EB64
:101B0000030C0D95059A03F00705BA450EEBE308A3
:101B100002EB0E01C6EB0E026746B64402EBE3028F
:101B200001EBE30103F1010303924FF0800242FA5B
:101B300005F52C46284604DD1BF8012015430BF85B
:101B40000150E2450CF1010C07DD069929B1039A19
:101B50001BF802100C430BF80240E24504DD1BF8B1
:101B6000082010430BF808009945CBD10C9F09F1D0
:101B7000FF330B9C4E460D9D1F44A5F1070CB44549
:101B800040F393800799BB1C4FF0800E05941D46CF
:101B90004FEA4109029BC9F1000913F1FF3801FB2B
:101BA00005F3CDF80C90894618BF4FF001082AE0E4
:101BB000B8F1000F3DD0002E3246C9EB030106F00C
:101BC0000704B8BFF21D4EFA04F401EBE2021BF861
:101BD000020020430BF80200AA450EDD002E32461B
:101BE000B8BFF21D03EBE20306F007021BF8030087
:101BF0004EFA02F202430BF803200136013F0B4676
:101C0000B44551D0BD1CBA4510DD002E039A3146B3
:101C100006F00700B8BFF11D1A444EFA00F002EBBF
:101C2000E1021BF8021001430BF802107A1C9245E6
:101C3000BEDCC9EB0301CFE7BDF946301B1A80B209
:101C4000013348BF013343F34F03ADF8423087E619
:101C5000029B980002E6BDF94020BDF94410891AA4
:101C6000091BA4B248BF013102EB610212B2ADF808
:101C7000402080E6A4B2BDF84410091B0AB2ADF8BA
:101C8000402078E680B2BDF846301B1A1BB2ADF892
:101C9000423065E6206800F039F80EF08FF805F064
:101CA00095FCFCE5254690E5059C0A9A0226029DD6
:101CB0001146049BA800089F294403EB83034219A3
:101CC0001FFA8AF504EB810104EB83038E6201267F
:101CD0000F6304EB820281F82C600027BDF81C1012
:101CE00023F80E6C23F8101C0999C2F808B0D160D3
:101CF000176123F8145C23F8125C029BAEE5012601
:101D00003BE700BFA01302206766666630B583B06C
:101D100018B90446204603B030BD054609F0E2FC80
:101D2000284604F08FFA0446019018B12846246C26
:101D30001CF0BCF901A804F0E9FB0FF093F8204671
:101D400003B030BD10B5044682B070B109F0CAFCD2
:101D5000204604F077FA02AB90F8754043F8040D82
:101D6000184604F0D3FB0FF07DF8204602B010BDFA
:101D700000B9704730B5044683B00D4609F0B2FC97
:101D8000204604F05FFA436B0190AB4203D04563F9
:101D900020461CF08BF901A804F0B8FB0FF062F8A4
:101DA00003B030BD48B341B370B5044682B00D46B0
:101DB00009F098FC204604F045FA0346866F684611
:101DC0008DE8480004F0A2FB294601A810F07EFD32
:101DD00078B1019B9E4209D0204604F033FA019A63
:101DE000034668469A67009304F090FB20461CF077
:101DF0005DF90FF037F802B070BD704700B58BB0D9
:101E00000021242201A8FEF7D8FA054B192201A8C7
:101E10001B6802929B685B6898470BB05DF804FBF7
:101E200064110220F0B5274F83B005463A68538C01
:101E3000D46C116D1C44938CA4B20B4421B29384D6
:101E4000013C5184ADF8001007F08AFB0646284695
:101E500010F03AFB3B683444B3F924602044ADF8F9
:101E60000260013EADF8040007F0D4FB064468466A
:101E7000ADF806601DF054FE80B90A2D1DD0BDF8E6
:101E800004303A6801331BB25384918CD46C106DCA
:101E90001B1B091A5384918403B0F0BD284602F03D
:101EA000E5FD1DF08BFC0028E7D0284602F0DEFDA2
:101EB0001DF084FC0028F1D1DFE73A68B2F9223046
:101EC000E3E700BF641002202DE9F0430F4685B020
:101ED000064609F007FC112F49D0132F40D0304699
:101EE00004AC04F0AFF90346C06B44F80C3D04F0B9
:101EF000EBFB8146204604F009FBA7F14103192BB7
:101F000098BF2037B9F1000F2CDD00250DF10C082A
:101F1000304604F097F903462946C06B039304F05A
:101F2000E7FB0446404604F0F1FA204684B104F091
:101F300089F9034602A8029353B11C78A4F1410326
:101F4000192B98BF203404F0E1FAE4B2BC4248D027
:101F50000135A945DCD10EF085FF05B0BDE8F08361
:101F6000002E5AD10EF07EFF05B0BDE8F083002EA2
:101F7000F8D009F0B7FB0DF11008304604F062F913
:101F8000B0F9344048F8040D404604F0BFFA0EF0B2
:101F900069FF04B1013C09F0A5FB304604F052F999
:101FA0000346C06B039304F08FFB00B101388442F9
:101FB000039BA8BF0446B3F93420A24229D09C86D3
:101FC000404604F0A3FA30461CF070F83046042175
:101FD0001CF0E0FC0EF046FF0EF044FF05B0BDE83B
:101FE000F083002EBED009F07DFB304604F02AF9C4
:101FF0000346C06B039304F067FB00B101388542D0
:10200000039BA8BF0546B3F93420AA4201D09D86A0
:10201000D6E7404604F07AFADCE70DF1100809F043
:1020200061FB304604F00EF9B0F9344048F8040D75
:10203000404604F06BFA01340EF014FF09F052FB35
:10204000304604F0FFF80346C06B039304F03CFBFA
:1020500000B10138A042039BA8BF2046B3F9342049
:102060008242D6D09886ABE7F8B1F1B170B504469C
:1020700082B00D4609F036FB204604F0E3F802ABCF
:10208000C66B43F8040D184604F040FA2846FEF7E4
:10209000C7F92946421C304604F060FA20461CF07D
:1020A00005F80EF0DFFE02B070BD704770B54568F0
:1020B00082B00446284604F0C5F802ABD0F8886028
:1020C00043F8080D184604F021FA2146284619F075
:1020D000A7FF60B32368112B5ED01DDC0E2B28D028
:1020E0000F2B65D00B2B1FD1284602AD04F0AAF8A8
:1020F0000346C06B019304F083FA019BD3F8880078
:102100001AF0AAFD55F8043DD3F8940003F036FE0A
:10211000284604F0FBF907E0262B24D0B3F5107F06
:1021200000F09D80212B54D020461AF049FD02B0CA
:1021300070BDE3685A68002AF6DD1968A1F1090349
:10214000192B00F29980012280489A401040002803
:10215000EAD1120226D4002B40F08E801BF0D4F876
:102160008642E1D114E0E1680A2900F08C800B2955
:1021700000F08D800129D7D1304613F08DFE002864
:10218000D2DB304613F088FE0646002D40F09B80DF
:1021900028461CF06DFEC7E7002EC5D1E3681B7A08
:1021A000002BC1D0002DBFD0284600F095FABBE728
:1021B000284604F047F8034602A840F8043DD3F847
:1021C00084301E6804F0A2F9002EADD02846B04736
:1021D000AAE7E3685A68002AA6DD1B680D2BA3D185
:1021E000304613F059FE002863DB304613F054FEEE
:1021F0000646002DCCD009F075FA284604F022F8E6
:102200000346C06B019304F05FFA00B101388642C7
:10221000019A334601AEA8BF0346B2F93410994281
:1022200000F08F809386304604F070F928461BF04A
:102230003DFF042128461CF0ADFB0EF013FE09F013
:1022400051FA284603F0FEFFD0F888300190002BA9
:102250006CD1304604F05AF90EF004FE98E7E368BA
:1022600063B31B7A28461BB101211CF093FB5EE788
:1022700002211CF08FFB5AE7002D3FF458AF28468F
:10228000FFF722FE53E728461CF084FB4CE7002DA5
:102290003FF44AAF09F026FA284603F0D3FFD0F8FE
:1022A000883001908BBB01A804F030F90EF0DAFD04
:1022B0003AE7002D3FF46CAF01AEC0E7284603219A
:1022C0001CF068FB33E709F00DFA284603F0BAFF6B
:1022D0000346C06B019304F0F7F908B30138B0422C
:1022E000019BA8BF3046B3F9342090421AD098869B
:1022F00001A804F00BF928461BF0D8FE042128465B
:102300001CF048FB0EF0AEFD42E718461AF0A4FCA4
:10231000019B00222846C3F888201BF0C7FEC2E7B5
:102320000020DCE701A804F0F1F8EBE718461AF00A
:1023300093FC019B00222846C3F888201BF0B6FEC0
:1023400087E7304604F0E2F877E700BF02000403B5
:102350002DE9F04F8B46B0F90C1089B0B0F90A7036
:10236000856901EB0308B0F910301744B0F90EA0ED
:10237000002605936C35B0F81290B0F9084009F0CA
:10238000B1F9384B5246CDF800B041460293384679
:1023900003954FF0FF3301961AF016FB824628B9D9
:1023A0000EF060FD504609B0BDE8F08F2E4F03F0EF
:1023B00049FF2146102206903D461AF0D1F8DDF87B
:1023C00018E00FCD0EF14C048EF88C900FC40FCD99
:1023D0000FC40FCD0FC495E80300BB6B84E8030066
:1023E000CEF8843050468EF89060BDF81430AEF8C8
:1023F000363003F027FFB0F93810079061B3034679
:10240000DA6A1846B3F98040136803EB44040C44BD
:102410001DF076FB054607A804F078F82246294609
:1024200050461CF0CBFE06A804F070F804F0E4F867
:102430000446504603F006FF034606A8DC630693F5
:1024400004F064F8BB6B50465B6898470EF00AFDD9
:10245000504609B0BDE8F08FC06C07F051F9079BFA
:102460000146CDE7AD200008A41102202DE9F0417E
:1024700088B00446006803F0E5FE034608A8D3F8D8
:10248000886040F8103D5F8E04F040F820681DF031
:102490003DFF26B9FB0740F1A7808C4D00E08C4D35
:1024A0006368122B00F29C80DFE813F009019A00A8
:1024B000E1009A009A0013009A009A009A009A008C
:1024C0009A009A009A009A009A009A009A009A003C
:1024D000A500AA682F1FE369002603926968A26914
:1024E0000291286861690190D4F810E0A86A009010
:1024F00070460FF05BFC57F8040F0DF06BFCAB6AF5
:10250000A26921696069D21A1944304406F0A0F822
:10251000AB6AA2692169E069D21A1944801B06F0EE
:1025200097F8AB6AE26961692069D21A19443044AC
:1025300006F02CF9A069AB6AE269801B616901367B
:10254000D21A194406F022F9022ED4D1A86A022820
:1025500019DDA8680DF03EFCA96A22696669901C25
:10256000E3690A445B1A3144013A06F083F9A96A27
:10257000A069E369821E6669401A5B1A3144013022
:1025800006F078F9A86A62692969E3690191911CEA
:1025900027691344EE68A2695B100096121A38444A
:1025A00005F07CFFE1696269AE698B1E1144A86A7F
:1025B000A269491001962769121A6E6901313844DF
:1025C000009605F06BFF686A0DF004FCE369616931
:1025D000A0691A1F5B1A0431C01A013006F0D6F840
:1025E000002008B0BDE8F0813A4BA3F12C0500288B
:1025F00008BF1D4654E7206803F024FE034608A8E0
:10260000B3F9806040F80C3DD3F84C80B3F9827088
:1026100003F07CFFB4F814E0B2B2A36920690EEBBA
:1026200003010EF1020E10440339ADF81AE0B4F8BC
:102630001CE0861C8B1A0220AEF10202ADF8186075
:10264000CEEB0303ADF81E20ADF81C300DF0AEFD4F
:1026500040460DF0EFFB286A0DF0BCFB206A3A46BD
:1026600006A905F035FC002008B0BDE8F08104F1B2
:102670001401E8690EC95C1AA4F10806651C7610FD
:10268000A2EB650506F1FF380DF0A4FBC8EB0404CE
:10269000B8F1000F4FEA6404A2DBAF1B45442644A7
:1026A00001373F1B3919204601342A4605F0D0FF77
:1026B000013DA642F6D1002008B0BDE8F0812068B7
:1026C0001CF0C2FC002008B0BDE8F08148140220D4
:1026D0001C140220A01402202DE9F04F07469BB0E5
:1026E00009F000F838460FAC03F0ACFD0D90384609
:1026F0001BF0A8F80D9B0690DD6B93F89020284600
:1027000093F88C80B3F936900B92B3F934A003F0B0
:10271000DBFF0D9B06461A6DB3F88EB011925A6E10
:1027200005925A6D12929A6D1392DA6D14921A6E86
:102730001592059A16921A6F17925A6F18929A6FFD
:102740001992B3F9822093E803000792DA6CD3F868
:1027500094300892059384E803000DA803F0D6FE98
:1027600038461AF05DFF03F06DFD1AABB0F90010AA
:10277000B0F9022043F8380D18460A91099203F087
:10278000C5FE099A20460A99524249420AF022FCA3
:1027900018F0020F77D0BDF83E30C9EB03031BB22F
:1027A0003846ADF83E3002241AF03AFF014606984A
:1027B000029400900020BDF93E30BDF93C20CDF8D8
:1027C000049013F0F7FA18F0010F04465ED16EB1D1
:1027D0004FF000084146284608F1010803F088FF41
:1027E0000146204612F0BCFE4645F3D1002611AD4D
:1027F00055F8262031460136204613F093FD032E6E
:10280000F6D1002614AD55F8262031460136204673
:1028100013F0E8FF032EF6D1002617AD55F8262059
:1028200031460136204613F061FE032EF6D1059B9A
:10283000A3BB5946204613F01DFE0899204613F00D
:1028400095FD0799204613F0B3FF20461CF010FBBE
:102850003946204613F02AFE5146204613F0C0FEAA
:10286000012138461CF096F8384603F0EBFC03468D
:102870000DA8C3F888400D9303F048FE0EF0F2FA5D
:102880001BB0BDE8F08FBDF9423089E70B9913F01A
:1028900071FE0121204613F00FFD98E7184603F062
:1028A000D1FC068805460E9096B14FF0000805EB66
:1028B000D80308F00702414608F101089B7820463A
:1028C00043FA02F202F0010213F06EFDB045EED1C0
:1028D0000EA803F01BFEACE700B9704730B5044604
:1028E00083B00D4608F0FEFE204603F0ABFC90F8E6
:1028F0008C200346019002F0FE046DB994420FD083
:10290000D3F8885001A883F88C4003F0FFFD75B917
:102910000EF0A8FA03B030BD44F001049442EFD1A8
:1029200001A803F0F3FD0EF09DFA03B030BD04F0F2
:102930000101284613F0C0FCEAE700BF00B9704768
:1029400030B5044683B00D4608F0CCFE204603F0B7
:1029500079FC0346C06B019303F0B6FEB0B9A84200
:10296000019BA8BF2846B3F93420824210D0988634
:1029700001A803F0CBFD20461BF098FB2046042164
:102980001CF008F80EF06EFA03B030BD0138E6E72F
:1029900001A803F0BBFD0EF065FA03B030BD00BF27
:1029A00000B9704770B5044682B00D4608F09AFE33
:1029B000204603F047FC02AB058743F8080D184694
:1029C00003F0A4FD204603F03DFCB0F9381001905F
:1029D000D1B10346DA6A1846B3F98050136803EBA5
:1029E00045050D441DF08CF8064601A803F08EFD48
:1029F0002A46314620461CF0E1FB20461BF056FBE0
:102A00000EF030FA02B070BDC06C06F079FE019B8A
:102A10000146DFE730B583B00C4603F013FC02AD8E
:102A2000214645F8040DC06B03F062FE04462846BB
:102A300003F06CFD20460CB103F004FC03B030BD84
:102A40002DE9F04F446805468BB020461DF05EFC32
:102A500029460646204619F0E3FA002838D02B68AC
:102A60000F2B60D037DC0B2B4AD00E2B55D1002E0C
:102A700053D0EB685A68002A4FDDD3F80080A8F1E4
:102A80000903192B06D80121C34A01FA03F31A409E
:102A9000002A42D1E4B108F025FE0AAE204603F038
:102AA000D1FB0346876D46F8180D304693F854A0C5
:102AB000D3F83490DD6C03F029FD002F00F0E280A4
:102AC00041462046B84720461BF0F0FA0EF0CAF9FE
:102AD0000BB0BDE8F08F40F21312934228D0B3F54B
:102AE000107F1AD1EB68002B00F09A801A7A002A26
:102AF00052D0002C41D1204601211BF04BFF0CE0AD
:102B000020460AAC03F09EFB0346343044F8043DF3
:102B100003F05EF9204603F0F9FC28461AF050F85D
:102B20000BB0BDE8F08F2046012132F023FECFE745
:102B300020460AAE1CF05EF8204603F083FB0346F5
:102B400046F8040D304693F8562082F0040283F8CC
:102B5000562003F0DBFC0021204632F00BFE20461D
:102B600003F070FB03460021D0F8840009931CF0A9
:102B70000DF8304603F0CAFCCFE71E6808F0B2FD3E
:102B8000204603F05FFB436B079053B907A803F09F
:102B9000BDFC0EF067F9AEE7204602211BF0FAFEFD
:102BA000BBE7184603F04EFB079B0690986E0DF0AE
:102BB00041F9804620461AF045FE0746069806F081
:102BC00063FD079A8146136E03F00303012B00F0A7
:102BD000E781022B40F0DD813B1A013348BF01330E
:102BE000A6EB630606980FF055FC002E0746C0F2D0
:102BF000F881B14519DA204603F024FB436B0890B5
:102C0000002B40F0D38108A803F080FC06A803F055
:102C10007DFC40460DF00EF920461BF047FAB5E763
:102C2000204603211BF0B6FE77E7024631460698A0
:102C30000FF0B0FB0646204603F004FB436B089000
:102C4000002BE0D0184626EAE67603F0FBFA09905E
:102C50000FF020FC0899B1F9383091F85470CA6C23
:102C6000002F18BF013BB342A8BF33469842A8BF0C
:102C70001846824200D0C864002309A80B6503F0FF
:102C800045FCC0E7A8F10803162B00F2E680DFE858
:102C900013F0A000E400E400E400E400E400E40039
:102CA000E400BC00850076004800E400E400E40095
:102CB000E400E400E400E400E400E400380017006D
:102CC000204603F0BFFA03460AA85D6B40F8083DB2
:102CD000DF6C03F01BFC002D3FF4F5AE284603F03B
:102CE000B1FA3946064609900DF092FF0546304686
:102CF000FDF796FB8542C0F0E28109A803F006FCCF
:102D0000E1E6204603F09EFABAF1010F0346049073
:102D100040F08781002280F85420304603F0F6FB13
:102D2000D1E6B9F1000F3FF4CEAE484603F08AFA7F
:102D30000646294609900DF06BFF064430460DF01B
:102D400013FF002305468DF82230ADF82030013DF9
:102D50000DF02AFF0746ADB228460DF025FF874249
:102D6000CBD1294608A80DF0EDFE08A93A46304619
:102D7000FDF7F9FA052120461BF00CFEBDE72046C1
:102D800003F060FA436B0890002B40F0A88108A87C
:102D900003F0BCFB97E600BF13000403B9F1000F7A
:102DA0003FF491AE484603F04DFA06462946099095
:102DB0000DF02EFF064430460DF0D6FE00230546EA
:102DC0008DF82230ADF8203001350DF0EDFE0746CC
:102DD000C1E7002D3FF477AE204603F033FA436B92
:102DE0000890002B40F0948108A803F08FFB204648
:102DF00003F028FA034608A85D6BDF6C089303F024
:102E000085FB002D3FF45FAE68E7204603F01AFA19
:102E1000436B0890002BBAD0184603F013FA0990C0
:102E20000FF038FB089A6B1EB2F9381023EAE373EF
:102E300092F85460D56C002E18BF01398B42A8BFA0
:102E40000B469842A8BF184600238542136518BF59
:102E5000D06409A803F05AFB99E7B8F11F0F7FF778
:102E600032AEBAF1000F40F00881204603F0EAF9D3
:102E7000B0F9383081460590002B07DD406B002803
:102E800040F06B8107469F4280F263811FFA88F30E
:102E90000DF128091E46019359F8143DDB6C484694
:102EA000039303F033FB30460DF07EFE834620464D
:102EB00003F0C8F9436B0690002B40F08F811E464B
:102EC0000AA80BEB060350F8102D0133568F9E1BFA
:102ED00003F01CFB002E40F37E812046103603F0E9
:102EE000B1F90346B0F83A800AAFD3F834A0B04441
:102EF00047F8080D384603F009FB4146504603F0F9
:102F0000B5F9029000283FF4DEADBAF1000F00F0F1
:102F1000548109AE204603F095F9029A03463846DB
:102F20000893A3F83A805A6303F0F0FA204603F0BE
:102F300089F903464846D3F83480059303F0E6FA4E
:102F4000404603F07FF98046039909900DF060FE3A
:102F500080444046FDF764FA4146421C08EB0B00F2
:102F6000FDF701FA019940460DF0ECFD304603F003
:102F7000CDFA052120461BF00DFD204603F062F935
:102F8000436B0890002B40F0F680384603F0BEFA01
:102F900099E5536ED16A5A1C0B681344F61A21E660
:102FA000536E3F1A0133FB1AF61A1BE6184627EA3E
:102FB000E77703F047F909900FF06CFA0899B1F937
:102FC000383091F85460CA6C002E18BF013BBB42E8
:102FD000A8BF3B469842A8BF184682427FF44BAE3A
:102FE0004AE6204603F02EF9436B0890002B3FF48D
:102FF0000AAE184603F026F909900FF04BFA08992B
:10300000B1F9383091F85460CA6C002E18BF013BFA
:1030100003EAE3739842A8BF184682427FF42BAEBE
:103020002AE60122204683F8542003F00BF9436B73
:103030000890F3B1184625EAE57503F003F9099005
:103040000FF028FA089AB2F9383092F85470D16C1F
:10305000002F18BF013BAB42A8BF2B469842A8BF28
:10306000184600238142136518BFD06409A803F0F5
:103070004DFA08A803F04AFA4FE60AAF204603F0DB
:10308000E1F8466B034647F8080D3846D3F84C90F4
:1030900003F03CFA002E3FF4E8AE304603F0D2F8DD
:1030A0004946074609900DF0B3FD06463846FDF740
:1030B000B7F986421CD309A803F028FAD5E63544AF
:1030C00028460DF061FD29182846FDF7CBF909A81F
:1030D00003F01CFA052120461BF05CFCF3E41846C3
:1030E00003F0B0F809900FF0D5F9089A6B1C9BE635
:1030F0003E4430460DF048FD31183046FDF7B2F938
:1031000009A803F003FA052120461BF043FCACE6B6
:10311000184603F097F809900FF0BCF9089A6B1E57
:10312000B2F9381092F8546023EAE373D56C002E9C
:1031300018BF01398B42A8BF0B469842A8BF18465A
:1031400000238542136518BFD06409A803F0DEF997
:103150004AE605A803F0DAF9B5E40AAE03F072F81E
:1031600046F8040D0FF096F90746304603F0CEF905
:10317000B9F9383087E6184603F064F809900FF083
:1031800089F908996B1C91F854E0B1F9385023EA99
:10319000E373CA6CBEF1000F18BF013DAB42A8BF7C
:1031A0002B469842A8BF1846002390420B6518BFD3
:1031B000C864304603F0AAF9E7E603F043F80AAE24
:1031C0000D4B514646F8040D42461B689847304661
:1031D00003F09CF99EE609AE08AFA7E618460AAFD1
:1031E00003F030F847F80C0DFDF71AF9064638469B
:1031F00003F08CF964E600BFA01302202DE9F04F24
:1032000089B0804689469246139C9B46129E602751
:1032100044F48054404D08F065FA00965B460194F2
:103220005246494640460397029519F0CDFB0646A3
:1032300028B90DF017FE304609B0BDE8F08F03F055
:1032400001F810221599059019F08AF9334D4FF0C5
:10325000010E059F0FCD07F160040FC40FCDD5F807
:1032600000C0169D0FC40135169BC4F800C018BFDE
:103270000125002B87F855E087F8885048DDBDF917
:10328000583003EB0E0400223B8705A80DF12008FF
:103290007A877A6303F03AF9304602F0D3FF0346A7
:1032A000428F5D6B144448F8080D404603F02EF938
:1032B0002146284602F0DAFF0746F8B17DB13046D4
:1032C00002F0C0FF034640465C875F63069303F04D
:1032D0001DF90DF0C7FD304609B0BDE8F08F02F0D2
:1032E000B1FF0DF120090E4B294649F8040D224685
:1032F0001B689847484603F009F9E0E730463E4628
:1033000019F0AAFC0DF0AEFD304609B0BDE8F08F13
:1033100009240823B7E700BF412A0008E011022072
:10332000A0130220014B9868704700BFE0110220F3
:1033300098B110B5044682B008F0D4F9204602F0E6
:1033400081FF02AB846E43F8040D184603F0DEF8EB
:103350000DF088FD204602B010BD704710B5044640
:1033600082B068B108F0BEF9204602F06BFF02ABF4
:10337000846C43F8040D184603F0C8F80DF072FD94
:10338000204602B010BD00BF00B9704770B50446BA
:1033900082B016460D4608F0A5F9204602F052FF0D
:1033A0000346019008B1022D06D901A803F0AEF83A
:1033B0000DF058FD02B070BD05F11E01204643F826
:1033C00021601AF073FEF0E770B5044682B00D4636
:1033D00008F088F91CB90DF045FD02B070BD20461B
:1033E00002F030FF436B0090F3B1184602F02AFF61
:1033F00001900FF04FF8009A25EAE57392F85460B7
:10340000B2F93850D16C002E18BF013D9D42A8BFC3
:103410001D460023A8421365A8BF2846814218BF55
:10342000D06401A803F072F8684603F06FF82046F4
:103430001AF03CFE0DF016FD02B070BD2DE9F0470C
:10344000064682B08A4614461D469DF82C8008F038
:1034500049F926B90DF006FD02B0BDE8F087304607
:1034600002AF02F0EFFE03464FF00109444800228C
:1034700044499DF828E0C3F848A093F888A09865CF
:1034800047F8043D3846DC631D6483F844E083F864
:103490005680D965DA6483F8549003F037F8BAF1AE
:1034A000000F2DD0002D61DB092D48460BDD364A7B
:1034B00082FB0513ED170130C5EBA305092DF7DCE1
:1034C000B9F1FF3F3ED0002C49DB092C55DD012529
:1034D00029462D4A82FB04E3E4170131C4EBA3041F
:1034E000092CF7DC013524D00A9B3BBB18F0010FF7
:1034F00018BF01308142B8BF0146304600F062F883
:10350000304636F04DFC304602F09CFE019000F053
:1035100033F91E4B1B7883421AD0384602F0F6FF6F
:1035200030461AF0C3FD0DF09DFC02B0BDE8F087F7
:1035300002214B1E0A9A9A42D6D101310131013043
:10354000D4E70220431E0A9A9A4208BF0130BAE724
:10355000019B3046D96C013100F02CF9DDE7644263
:10356000092CE5DD4FF0FF350221B2E76D42092D50
:10357000E7DD4FF0FF39022099E70121B4E700BFF2
:10358000C1140208A19D030867666666E001072072
:1035900000B9704770B5044682B00D4608F0A2F835
:1035A000204602AE02F04EFE03468566204646F8EF
:1035B000043D1AF07BFD304602F0A8FF0DF052FCEE
:1035C00002B070BD00B970472DE9F04F054685B0D7
:1035D0000C4608F087F8284602F034FEB0F938307F
:1035E0000090A3423DD0468F02DD406B00283AD1C7
:1035F0006846A61B02F08AFF284602F023FE013629
:103600000346428F04AFE846D3F83490164447F897
:10361000080D384602F07AFF3146484602F026FE91
:10362000824668B1B9F1000F28D0284602F00AFEA0
:10363000034638465E87C3F834A0029302F066FF63
:10364000284602F0FFFD034628461C8700931AF027
:103650002DFD404602F05AFF0DF004FC05B0BDE818
:10366000F08FE846F5E702F0EDFD01900EF012FF55
:10367000844212DB01A802F049FFB9E702F0E2FD43
:103680000DF1100B094B49464BF8040D32461B68EF
:103690009847584602F03AFFC7E7214601980DF0D7
:1036A000B7FA019B00221A54E4E700BFA0130220DE
:1036B00000B9704730B5044683B00D4608F012F8E3
:1036C000204602F0BFFD019018B1056620461AF0B1
:1036D000EDFC01A802F01AFF0DF0C4FB03B030BDF1
:1036E00000B9704770B5044682B016460D4607F023
:1036F000F9FF204602F0A6FD019008B1022D06D97F
:1037000001A802F003FF0DF0ADFB02B070BD00EBAD
:1037100085012046CE661AF0C9FCF1E700B9704772
:1037200030B5044683B00D4607F0DCFF204602F0BA
:1037300089FDC36B016CAB42826C0190B8BF2B4614
:103740009942A8BF19468A4212D0C36D81640BB159
:103750002046984720461AF0A9FC01A802F0D6FEA0
:10376000204605211BF016F90DF07CFB03B030BD9F
:1037700001A802F0CBFEF7E7436B70B582B01BB92E
:103780001C46204602B070BD0446184602F05AFDA1
:1037900002AD0646E16C45F8040D0DF039FA3044EF
:1037A0000DF0E2F90446284602F0B0FE204602B0D1
:1037B00070BD00BF30B583B00C4602F043FD436BD3
:1037C0000090FBB1184602F03DFD01900EF062FE44
:1037D000009A24EAE473B2F9381092F85440D56C98
:1037E000002C0CBF0C464C1E9C42A8BF1C4600235C
:1037F000A0421365A8BF2046854218BFD06401A827
:1038000002F084FE684602F081FE03B030BD00BFC6
:103810002DE9F04304468BB018B920460BB0BDE843
:10382000F08316460D461F4600F0D6FC8046204623
:1038300000F0B6FC814607F055FF05A9204600F0D0
:10384000CBFEEA0719D4AB07BDF920004CBF40F20C
:1038500002230223304442460293494643468DE800
:103860009000FDF72DFB0446002118F0F5FC0DF04B
:10387000F9FA20460BB0BDE8F083BDF9242008F129
:10388000FF308223101A801BE5E700BF10B5052327
:10389000FFF7BEFF0446054A0021FDF79DFD2046C7
:1038A00003491BF01BFA204610BD00BFE96A02085D
:1038B00089A5030810B50723FFF7AAFF0446054AA8
:1038C0000021FDF789FD204603491BF007FA204639
:1038D00010BD00BF416C0208A1A5030810B5082364
:1038E000FFF796FF0446054A0021FDF775FD2046C7
:1038F00003491BF0F3F9204610BD00BFA96E020872
:10390000E1A503082DE9F047466886B00546304634
:1039100002F098FCC36D0090D0F88840D0F8807019
:10392000D0F86880B0F87C90002B64D0D3F800A069
:10393000684602F0EBFD14B909E024683CB1636805
:10394000284698470028F8D006B0BDE8F0872B68D5
:10395000172B00F0A5801DDC0F2B00F08D807DDC87
:103960000B2B00F0BF800D2B0AD119F0080F07D1E7
:10397000EB68DB6823B11B7A13B130461BF078FA91
:103980003046294618F04CFB0028DDD0284619F0B7
:1039900017F9D9E7262B75D02FDC1E2B00F0AE804F
:1039A000202BEDD1EC68002CEAD0314660681CF089
:1039B00093FC002800F0C080304602F043FCB0F8D1
:1039C0007C3002460190180740F12D8101A802F0D9
:1039D0009DFD314660681CF06DFC0028D0D030465B
:1039E00002F030FC6268034601A80193C3F880200E
:1039F00002F08CFDC4E79A469AE72A2B65D0B3F50E
:103A0000107FBDD106AC3046D5F80C8002F01AFC10
:103A1000B0F87C7044F8140D204602F077FDEB6896
:103A2000002B91D098F80830002B00F0AB803807BD
:103A300040F1B780304618F00BFF07F48873B3F5F8
:103A4000887F81D107F080039BB2002B7FF47CAF8D
:103A50004146304605221BF085F975E7112B22D02F
:103A6000142B8DD1304601A900F0B6FD02ABEA68F7
:103A700003CB1060516067E7BAF1000F80D0304689
:103A8000D0477DE7EB68022B7FF45EAF272206A9C3
:103A9000A86841F8142D039604931CF0D7FD53E752
:103AA000C5F80C8050E7EC68304602F0CBFB019083
:103AB0002389012B05D1B0F87C3043F48073A0F842
:103AC0007C3001A802F022FD5AE7304602F0BAFB32
:103AD000EB680090002B68D0C0F88430684602F094
:103AE00015FD31E7304602F0ADFB03467030009320
:103AF00002F06EF9684602F009FD41E7EC68012C1E
:103B000057D0002E3FF420AF07F0ECFD304602F016
:103B100099FBB0F87C30024601901C0706D523F0D3
:103B200008033046A2F87C301AF0C0FA01A802F06F
:103B3000EDFC0DF097F907E7304602F083FBB0F893
:103B40007C3002460190190706D523F00803304661
:103B5000A2F87C301AF0AAFA01A802F0D7FC31468C
:103B600020681CF0A7FB00283FF40AAF304602F0A3
:103B700069FB2268034601A80193C3F8802002F084
:103B8000C5FCFDE6304602F05DFB03462046B3F877
:103B90007C20019322F48072A3F87C2002F0B6FC12
:103BA000D2E630461BF064F944E7D0F88430EB608D
:103BB00094E738461AF09AFD20B338461BF058F9BE
:103BC00038461AF021F9B0B926B9002F7FF4BCAEFF
:103BD000EF60B9E607F086FD304602F033FBB0F83F
:103BE0007C3002460190190725D501A802F08EFC11
:103BF0000DF038F9E9E72146384618F001FB002EB0
:103C0000E3D0E7E740461BF09FF90746304602F055
:103C100019FB03466846C3F88070009302F076FCF7
:103C2000002ED2D0D6E743F008033046A2F87C300D
:103C30001AF03CFACAE643F008033046A2F87C309A
:103C40001AF034FAD1E700BF2DE9F04F0F46B0F972
:103C50000C108FB0B0F90A6001EB030BB0F908301B
:103C600085691644049343686035B0F90E80B0F955
:103C70001090B0F812A0059307F034FD4B4C4FF4B0
:103C8000805E03955946009730464B464246029463
:103C9000CDF804E018F098FE054628B90DF0E2F8DA
:103CA00028460FB0BDE8F08FDFF808910EAE02F0A5
:103CB000C9FA04993022069018F052FC56F8207D7B
:103CC000CE464FF0000807F13404BEE80F000FC4E1
:103CD000BEE80F000FC49EE80300189B84E80300B1
:103CE0007B663046D9F8283041F28274A7F87CA070
:103CF000FB65C7F88080C7F86C80C7F8888002F041
:103D000005FC09A928462A4F00F066FCBDF92AE007
:103D1000BDF92810BDF92C20BDF92E300846521AE5
:103D20000194CEEB030371460132CDF80C800133D0
:103D30000095029718F048FED9F828300446284626
:103D40005B689847284602F07DFA034630469C6639
:103D5000069302F0DBFB284619F0A4F807F0C2FC3A
:103D6000284602F06FFA034607A81A6F07930892D5
:103D700002F0CCFB059908A80EF0A8FD38B90DF0AB
:103D800071F80DF06FF828460FB0BDE8F08F2846A7
:103D900002F058FA089A034607A81A67079302F038
:103DA000B5FB28461AF082F9E9E700BF053900089B
:103DB00071490008041202202DE9F041044690B038
:103DC000006800F0D5F9B04B6668A3F12C05002817
:103DD00008BF1D461C2E00F2F780DFE816F0220017
:103DE000F500F500F500F5003500F500F500F500EB
:103DF000F500F5005100F500F500FA00F500F500BA
:103E0000F5000E01F500F50048014A014C014E0194
:103E1000F500F500F5001D006E69304610B0BDE8F4
:103E2000F081206802F00EFA034610A8B3F85A2079
:103E300040F82C3D42F00C02A3F85A2002F066FB39
:103E400020681BF001F9E8E72A690026B4F9103070
:103E50000192B4F914701846EA68B4F9185039465A
:103E6000B4F91C40ADF81C30009223462A46ADF848
:103E70001E70ADF82050ADF8224004F00FFBCCE7E7
:103E800023681C2218460892079302F0DBF90346C8
:103E900007A805931B6D9847064605A802F036FB58
:103EA000012E40F32781A968334662690291686850
:103EB000A16901902F68206900970DF073FE2769B2
:103EC000A3693744C6EB030828680BF083FF42461A
:103ED0003946606904F0BCFB68680BF07BFF6069E1
:103EE00042463946013004F0B3FB6B6A022B00F303
:103EF000F4802A6A964217DA6769012E206907F171
:103F0000020840F32A810244374430444146013AD2
:103F10003B4604F0AFFCA069821B3B46EF6941467B
:103F2000C01B013004F0A6FC012E40F3138163692D
:103F30001E44E7692868013F0BF04CFF31462069B9
:103F40003A4604F023FC3A463146A06904F01EFCD0
:103F5000E76968680BF03EFF023F206931463A4648
:103F6000013004F013FCA0693A463146013804F0F0
:103F70000DFCEB69022B40F38280AB6AE769022BF0
:103F8000A868CCBFFF1A023F0BF024FFEA69022A9F
:103F900000F39A802B6A022B00F38C8028680BF0C8
:103FA00019FFA2692169E06904F052FB68680BF00F
:103FB00011FFA2692169E069013A0131013804F079
:103FC00047FBAF6A022F61DC0026304610B0BDE827
:103FD000F08104F114012769A8680026ADF81C706F
:103FE0000EC9ADF81E10ADF82020ADF822300BF050
:103FF000F1FE07A804F06AFC0FE7298B2269A36988
:104000000A4465695B1AE1692068ADF82030ADF8B3
:104010001C20ADF81E50ADF8221002F013F9036F0A
:104020000590FBB102200CF0C1F8059AB2F87C3083
:10403000C3F3C0030E3302EB830398680BF0CAFE90
:10404000059B586B0BF0F6FE059B186F02F0FAF813
:10405000059B07A90690B3F95A2003F039FF06A87B
:1040600002F054FA05A8002602F050FAD5E6AE6A2E
:10407000D3E6EE69D1E62E6ACFE66E6ACDE62B6A0C
:10408000022B8BDD79E700BF0C150220D4F81C80D1
:104090000026A2692169A868951E8C1C0BF09AFE67
:1040A000C7EB08012A462046A8F10203013104F0BB
:1040B000E1FBB2E6A0693B46EF693146821EC01BB8
:1040C000013004F0D7FB69E720693B4631460244E2
:1040D0000230013A04F0CEFB5CE7A8680BF07AFEF0
:1040E000636938466F6A991C42463B44013B04F0C1
:1040F000C1FB19E728680BF06DFE2269EB691146D8
:1041000060691A44013A04F0A3FAA369E9691A46FE
:104110006069591A013104F09BFA67692069013717
:10412000394604F0C1FA3946A06904F0BDFA68685E
:104130000BF050FE20693946013004F0B5FAA06951
:104140003946013804F0B0FA2769A3690237A3F1B0
:104150000208B9E666690236EBE6024443460230DD
:104160004146013A474604F085FBA069821ED4E629
:1041700010B5044682B080B107F0B4FA204602F0D0
:1041800061F802ABB0F87C4043F8040D1846C4F364
:10419000C00402F0BBF90CF065FE204602B010BD71
:1041A00030B5044683B0A0B107F09CFA204602F077
:1041B00049F802ADC26D03460021204645F8043D92
:1041C00093681B6898470446284602F09FF90CF054
:1041D00049FE204603B030BD10B5044686B010B984
:1041E000204606B010BD07F07DFA204601A900F078
:1041F000F3F9204602F026F806ABB0F9544043F834
:10420000180D184602F082F90CB9BDF904400CF003
:1042100029FE204606B010BD00B970472DE9F043D5
:10422000054685B007F05EFA284602F00BF80190CB
:10423000284633F0D3FF019BB3F87C20120634D418
:10424000986901F0FFFF83690290B0F90060B0F94E
:104250000270002B4AD0B0F90480B0F9069002A891
:1042600002F054F9019B03F17402DC6993E8030046
:1042700082E80300B3F87C2042F08002A3F87C209F
:1042800034B91AE0039B03A81C6A02F03FF9A4B1F9
:10429000204601F0D7FF0390204619F055F8072873
:1042A000F0D1204619F002FFECE701A802F02EF948
:1042B0000CF0D8FD05B0BDE8F08301A802F026F9A6
:1042C0003A46314628461AF0A1FAC7EB0902C6EB76
:1042D00008012846013201311AF070FF284600F02B
:1042E00009FB0CF0BFFD05B0BDE8F08310F060FAEB
:1042F0000FFA80F810F0A2FA0FFA80F9AFE700BFCA
:1043000000B97047F0B5054683B007F0EBF92846D1
:1043100001F098FF0090284633F018FF009BB3F897
:104320007C20520606D5684602F0F0F80CF09AFDA3
:1043300003B0F0BDB3F906201846B3F90260961B2E
:1043400000F0D4F9009B0136D96A03F174020F68BA
:1043500000EB470793E80300023782E80300986EFA
:1043600019F060FD009BD86E19F05CFD009BB3F85E
:104370007C20DC6942F04002A3F87C2034B912E0D2
:10438000019B01A81C6A02F0C1F864B1204601F04B
:1043900059FF0190204618F0D7FF0828F0D1204699
:1043A00019F084FEECE7684602F0B0F8BA1B002171
:1043B00028461AF05FFB284600F09CFA0CF052FDEC
:1043C00003B0F0BD00B9704710B5044607F08AF994
:1043D000204633F003FF204633F0B8FEBDE810401E
:1043E0000CF040BD2DE9F041044684B00E4607F0C4
:1043F00079F924B90CF036FD04B0BDE8F08120460F
:1044000001F020FF458EC36D05F0200503909F68E5
:10441000ADB245B1B0F954502DB9406B05F072F909
:10442000039B851C00E003465E6303A802F06EF860
:104430003B680121204698473B68064603212046F9
:1044400098473B688046002120469847074620460B
:1044500000F050FA4346324629462046009700F0C5
:10446000CBF9204619F022FE0CF0FCFC04B0BDE8AC
:10447000F08100BF00B9704730B5044683B00D46E7
:1044800007F030F9204601F0DDFE0346026F684672
:104490000093019202F03AF8294601A80EF016FAAC
:1044A00018B90CF0DFFC03B030BD204601F0CAFEA5
:1044B000019A034668461A67009302F027F82046DF
:1044C00019F0F4FD0CF0CEFC03B030BD00B970471C
:1044D00030B5044683B00D4607F004F9204601F0DC
:1044E000B1FEB0F95A300190AB4204D0A0F85A5056
:1044F000204619F0DBFD01A802F008F80CF0B2FC30
:1045000003B030BD00B9704730B5044683B00D46E6
:1045100007F0E8F8204601F095FE02AB056443F889
:10452000040D4564184601F0F1FF204619F0BEFD68
:104530000CF098FC03B030BD2DE9F04385B020B9F4
:104540000546284605B0BDE8F08304460E4607F050
:10455000C9F8204601F076FEB0F954500390B542F8
:104560002AD0418E01F0200189B219B16DB3034602
:104570002F4601E003460F46DA6D0121A3F854608F
:104580002046966833689847336880460321204662
:1045900098473368002181462046984706462046C2
:1045A00000F0A8F9204600964B464246394600F0F6
:1045B00023F9204619F07AFD03A801F0A7FF0CF0BB
:1045C00051FC284605B0BDE8F083406B05F09AF831
:1045D000039B871CD0E700BF2DE9F04F89B0074649
:1045E0000D4601F02FFE034601213846DA6D059392
:1045F0009468236898472368032180463846984783
:104600002368022183463846984723680021824662
:1046100038469847814605981BF072FA0646059879
:104620001BF076FA03460598448E04F02004A4B2E9
:10463000B4B1B0F95420B0F95840002A4AD091B230
:10464000C06E0C44A4B280B103910292019319F0A0
:1046500017F9019B0FFA80FC029A80B2039905E0DA
:1046600021462246C06E0028EED184461FFA89FEFC
:10467000013E013B0FFA88F8CBEB060674440EF1BD
:10468000FF3ECAEB030336B2044471446B812A80B7
:1046900005A8A5F802C0EC8069822E812E82A5F8BB
:1046A0000480A5F80C80A5F80E9001F02FFF08AA51
:1046B000B5F910403846B5F90C3006A942F8044D5A
:1046C000069300F04BF8069A079BAA812B8209B04B
:1046D000BDE8F08F406B019305F014F8821C019B3C
:1046E000059891B212B20C44A4B2BBE708B5438E50
:1046F00003F020039BB24BB10246B0F9540000B165
:1047000008BD506B04F0FEFF023008BD184608BD1E
:1047100070B58AB00C46064601F094FD0AABC26D36
:1047200043F8280D1846956801F0F0FE0196032C19
:1047300005D8DFE804F00F0C0902172302936B6819
:1047400001A898470AB070BD15230293F7E7162316
:104750000293F4E718230293F1E700BF2DE9F04339
:1047600083B088460446914601F06CFD034602A8DA
:10477000DA6D40F8083D9568B3F90070B3F902604E
:1047800001F0C4FE2B6820460021984705462046CC
:1047900018F0ACFD68B3044607E001A801F0B6FECE
:1047A000204618F02FFF044618B3204601F04AFDBA
:1047B000B0F9023001909B1B9D42EED1836A1B062B
:1047C0000BD5B0F90030D9F80020DB1B934203F180
:1047D000FF33E2DCC9F80030DFE7B0F90430D8F885
:1047E0000020DB1B934203F10103A8BFC8F800308F
:1047F000D3E703B0BDE8F0832DE9F04F83B08846DE
:104800009A460546914601F01DFDC26D02AED2F8F2
:1048100008B046F8080DFFF769FF0446304601F07E
:1048200075FEDBF80030012128469847DBF80030A0
:104830000321064628469847DBF80030074600214A
:10484000284698474445834609D14E4507D15745E8
:1048500005D10C9B984202D103B0BDE8F08F2846E9
:10486000C8EB040418F042FD05460028F4D04FF0D0
:1048700000080C9BC9EB0606C7EB0A07C3EB0B0B42
:10488000C1460BE0B3F5007F11D001A801F03EFE58
:10489000284618F0B7FE05460028DDD0284601F06E
:1048A000D1FC836A019003F42073802BEAD1CCB948
:1048B000836A1A060BD49B05E7D508F1010308FBB0
:1048C00004615A46284698461AF008F8DDE709FBC5
:1048D00014715A46284609F1010919F0FFFF019B9E
:1048E0009B6AE8E72846224621461AF0C3F8019859
:1048F000DEE700BF70B586B0064601F0A3FC0346B4
:1049000006A89C6E40F8183DDD6E01F0FFFD14B95D
:104910000DB906B070BD304601A9FFF75DFE6CB958
:10492000002DF6D0BDF90A202846BDF90630BDF9A4
:104930000810D21A19F02CFF06B070BDBDF90A207C
:104940002046BDF9081019F023FFBDF90E20BDF96E
:104950000A602046BDF90C30BDF90810921B591AA7
:10496000013201311AF02AFC002DD2D0DAE700BF63
:104970002DE9F043456887B00446284618F050FEFC
:10498000074601F05FFC034606A85E6E40F8143D42
:10499000D3F84880D3F8809001F0B8FD23680E3B2F
:1049A000232B3FD8DFE803F035463E3E3E3E121251
:1049B0003E123E3E3E3E3E3E18243E3E2B3E3E3E96
:1049C0003E3E3E3E3E3E3E3E3E3E3E30204618F09F
:1049D000F7F807B0BDE8F083E368002BF9D0B9F130
:1049E000000F3BD04D4539D048461AF041FAF0E768
:1049F0002146384617F014FB07B0BDE8F083C4F831
:104A00000C8007B0BDE8F0830023E36007B0BDE889
:104A1000F083E3685A68002A04DD1B68092B1DD067
:104A20000A2B1FD0002ED1D020466760B04707B0B8
:104A3000BDE8F0836FF07043984504D0404610F015
:104A400017FA02F0C3FD002EC3D002AF94E80F00A6
:104A500087E80F0038460395B047BAE728461AF0B2
:104A600073FAB6E728461AF0B7FAB2E70A2838B55B
:104A700014D00D28044610D006F034FE114B204609
:104A80001B68DB691B6898470F4B1B680BB12046FE
:104A90009847BDE838400CF0E5B938BD094C06F040
:104AA00021FE06F01FFE2368DB695D7E0CF0DAF95B
:104AB00023689A8C198C2A4459849A84BDE838401A
:104AC0000CF0D0B964100220140207202DE9F04F39
:104AD000074683B01646801A0191B91800F0F6FF18
:104AE000002E019A06FB06F5B4BF731C3346DFF8AF
:104AF000D090C6EB020805EB6305B3181946009386
:104B0000D9F800305B6953B1B3F90620B3F902302C
:104B10009142A8BF11469845B8BF98460091012E12
:104B20004BDD019B34464FF0010B03F1FF3AC245C8
:104B300015DB009B9A4512DC0BFB0BF204FB0423F4
:104B40009D4204DA013C04FB04239D42FADBD9F8C0
:104B500000303A195146381B5B6E1B6898470BF1C1
:104B6000010B0AF1FF3A5E45E1D1DDF804A03446BD
:104B70004FF0000BD04515DC009B534512DB0BFBBF
:104B80000BF204FB04239D4204DA013C04FB0423E2
:104B90009D42FADBD9F800303A195146381B5B6E5A
:104BA0001B6898470BF1010B0AF1010A5E45E1D140
:104BB00003B0BDE8F04F00F095BD002EF8DDD4E75E
:104BC0006410022000292DE9F04F87B040F3E48201
:104BD0001E4C054600EB810E274643F6FF74B5F9DF
:104BE00002600435B442A8BF3446B742B8BF374666
:104BF000AE45F4D10497164D2D686D6975B1B5F9C0
:104C00000660049FF61AB5F90250B742A5EB0305FA
:104C1000A8BF3746AC42B8BF2C460497049DAC42AF
:104C200000F36982934606464D1EDFF828908A46B7
:104C300005930022074B92451A6040F35782059B6B
:104C4000CDF80CB023440293EBE000BF01C0FFFF9E
:104C50006410022080FF0620A64500F0DE8001DB04
:104C6000A04205DDA042C0F2D880A64500F3D58061
:104C7000704500F34382A645C0F2CF80A04200F306
:104C8000CC8036F922B0BCF90030CBEB0302C8EB84
:104C90000403C8EB0E0E03FB02F3002B40F3588213
:104CA00003EB6E01DF4B1B680B2B00F3B680002B70
:104CB00091FBFEF101EB0B02019240F33682581E8C
:104CC0001146420009EB020EBEF904C0614500F333
:104CD0004F8209EB4308A8F804C0002800F02582A1
:104CE000981E4FEA400B09EB0B0CBCF904804145C0
:104CF00000F38C80AEF80480002800F01682D81EE5
:104D0000420009EB0208B8F904E0714500F32E8275
:104D1000ACF804E0002800F00882A3F1040C4FEA8C
:104D20004C0E09EB0E00B0F9040081426EDCA8F8CD
:104D30000400BCF1000F00F0F881581FB94942008F
:104D400001EB02080199B8F904B0594500F3188243
:104D5000CE44AEF804B0002800F0E781981F4FEA77
:104D6000400B09EB0B0EBEF904C061454EDCA8F800
:104D700004C0002800F0D981D81F420009EB020CC2
:104D8000BCF90480414500F3F181AEF804800028AD
:104D900000F0CB81A3F108004FEA400809EB080EB0
:104DA000BEF904B0594531DCACF804B0002800F07D
:104DB000BC81A3F10900420009EB020CBCF904C05C
:104DC000614500F3DB81AEF804C0002800F0AD813E
:104DD000A3F10A0093494FEA400C01EB0C0E019934
:104DE000BEF90480414511DC4A44A2F80480002841
:104DF00000F09B81A3F10B00420009EB0200B0F927
:104E00000400814200F3B881AEF804008548013304
:104E1000BDF80410024403609180BA453A4640F35D
:104E2000EF80AA4202F1010706EB82011346ACBFF4
:104E30004FF0000C4FEA870CB1F90200B444A042D5
:104E40008046BCF902E07FF407AFA64500F06F8111
:104E5000002DE2DD00215BB1013B013106EB830057
:104E6000B0F90200A0420BD1A942D6D0002BF3D159
:104E70002B46013106EB8300B0F90200A042F3D0CB
:104E8000001BC4EB0E0E36F9222090EA0E0F40F103
:104E90004281644B1B680B2BBFDC002B40F35D8110
:104EA000581E410009EB010CBCF904E0724500F307
:104EB0006A8109EB4308A8F804E0002800F04D815E
:104EC000981E4FEA400809EB080EBEF904B05A4597
:104ED00000F38D80ACF804B0002800F03E81D81EAD
:104EE000410009EB010CBCF904C0624500F352819A
:104EF000AEF804C0002800F03081A3F1040849484E
:104F00004FEA480B00EB0B0EBEF904C062456EDCA5
:104F10004944A1F804C0B8F1000F00F01E81581FE9
:104F2000410009EB010CBCF90480424500F32281E9
:104F3000AEF80480002800F01081981F4FEA400B63
:104F400009EB0B0EBEF90480424550DCACF804803E
:104F5000002800F00281D81F410009EB0108B8F9D0
:104F600004C0624500F30681AEF804C0002800F0DA
:104F7000F480A3F1080C4FEA4C0E09EB0E00B0F9D7
:104F80000400824233DCA8F80400BCF1000F00F0FA
:104F9000E480A3F1090041000190224800EB0108E0
:104FA000B8F904B05A4500F3F080CE440198AEF849
:104FB00004B0002800F0D180A3F10A004FEA400CB1
:104FC00009EB0C0EBEF904B05A4510DCA8F804B089
:104FD000002800F0C280A3F10B01490009EB010099
:104FE000B0F90400824200F3D380AEF804000D480B
:104FF0000133BA45014403608A803A463FF711AF56
:10500000084BDDF80CB01B68002B6FDD012BB9F9E4
:1050100004006BD0044B5844B9F906201B68029F6A
:1050200004E000BF80FF0620641002205A445B6E3B
:1050300039461B689847D9F80030022B56DD032B00
:10504000B9F9080052D0574B5844B9F90A203946EB
:105050001B685A445B6E1B689847D9F80030042BD4
:1050600044DD052BB9F90C0040D04E4B5844B9F93A
:105070000E2039461B685A445B6E1B689847D9F866
:105080000030062B32DD072BB9F910002ED0454B2E
:105090005844B9F9122039461B685A445B6E1B68A4
:1050A0009847D9F80030082B20DD3F4A092BB2F988
:1050B00014001BD03B4B5844B9F9162039461B68E5
:1050C0005A445B6E1B689847D9F800300A2B0DDDF7
:1050D0000B2BB9F9180009D0324B3946B9F91A200F
:1050E00058441B685A445B6E1B6898470134049B04
:1050F000A342BFF69EAD07B0BDE8F08FA042FFF619
:105100008CAEA6453FF789AEF046BCF900B036F943
:1051100022308646B9E5234B03991B680A4402995D
:105120005B6E10461B68984777E600226EE6BCF976
:105130000030039836F9221001441818194B8142A7
:105140001B680CDB5B6E0A4602991B68984764E695
:105150004FEA6E010139591AA4E5002147E75B6E59
:105160000246084602991B68984756E65A464DE69D
:105170005A004BE659463AE7624647E6424645E65C
:105180004FEA4C0242E6590031E74FEA4C012EE764
:1051900061462CE741462AE7044C049443F6FF7429
:1051A00029E500BF6410022080FF062001C0FFFF38
:1051B000204B70B51E6806F095FA1F4C002530464E
:1051C0000FF056FE0BF04EFE1C4B1E6806F08AFADE
:1051D00030460FF087FE0BF045FE06F083FA012201
:1051E00023681A760BF03EFE06F07CFA23689D8554
:1051F0000BF038FE06F076FA23685D850BF032FE80
:1052000006F070FA28460FF09FFE0BF02BFE0C4BB9
:105210001D6806F067FA236805B1DD610BF022FE18
:1052200006F060FA236800229A76BDE870400BF021
:1052300019BE00BF98FB06206410022060100220F7
:105240005C100220014B83E80300704708FB062036
:10525000014B83E80300704710FB0620014B83E8F5
:105260000300704718FB0620014B83E803007047DA
:1052700028FB06202DE9F04F5C4E8DB03368DA69CB
:10528000B3F92250D469B4F80CB0834500F297808A
:10529000E1898142C0F093802168CBEB000B08913B
:1052A0004FF0FF310A91BBF1FF3F00F0828092F88E
:1052B0001880A27CB3F92A10B3F9249018FB02F3EA
:1052C000084607911F4694F810A00FF03DFED6F84F
:1052D00000E008994346DEF838C05246099007FBC3
:1052E0000B10DEF81CE00B97012704904946CDF81F
:1052F00014C0284694F812C00297CDF80CC09EF84E
:105300001BC0DFF8E8B0CDF804C09EF81AE0CDF875
:1053100000E00EF0CBFE0A9F7B1C25D0079941F0E0
:1053200002000FF011FEDBF800100B9A43460898BC
:10533000D1F838C002FB0700D1F81CE00127CDF8F6
:1053400014C00490524694F812C049460297284669
:10535000CDF80CC09EF81BC0CDF804C09EF81AE032
:10536000CDF800E00EF0A2FE3368DFF88080DB6944
:105370005A7E1B7E9A4215D9079B022B12D083F0CE
:1053800004000FF0E1FDD8F800302846DB691F7EED
:10539000D97E9A7E5B7E07FB01910AFB02524B4449
:1053A0000FF08CF89DF824000FF0CEFD3368B3F9B0
:1053B0002250627C15445D840DB0BDE8F08FA16879
:1053C0000029F6D00F88B842F3D3B1F802E0864541
:1053D000EFD3C01B4968676880B2089701EB80076C
:1053E00031F920B0B7F902100A915CE7641002208D
:1053F000044B1B68DB69DB6909B11A7C0A60587CC5
:10540000704700BF6410022002230B80704700BF6A
:10541000C3699A898A4202D8DA898A4211D2986885
:1054200018B10388994201D20020704742888A420D
:10543000FAD3C91A436833F82100C043C0F3C0301F
:1054400070470120704700BF2DE9F04F3A4D89B0F9
:105450002B68DA69B3F92A90D36943B11A8890426C
:1054600002D35988814205D29B68002BF6D109B03E
:10547000BDE8F08F841AD3F80480484608EBC406D0
:1054800096F802B00FF060FD8246286818F83420C4
:105490004FF0010EC769D0F838C0B0F92410B0F948
:1054A00022003B7E0790CDF814C07068CDF80CB098
:1054B0000490CDF808E097F81BE00798CDF804E0D9
:1054C000BF7E00970EF0F2FD2B68DA69537E177EDF
:1054D000BB4223D9B9F1020F07931FD092F81BB03A
:1054E00004F068F8814604F02FF80AF073FC124BC0
:1054F00018F834E01868079BC169B0F92240CA7EE9
:10550000B0F9241020460EFB02420BFB03130BFBE9
:1055100007110EF0D3FF48460AF05CFC50460FF02E
:1055200013FD2B687178D8695A8C807E00FB0122AC
:105530005A8409B0BDE8F08F64100220114B1B683B
:1055400070B4DD69EB6943B11A88904202D35C887C
:10555000844205D29B68002BF6D1184670BC704778
:10556000821A5E68AC7E06EBC2035B7813FB04F024
:105570000029F3D016F8323014FB03F370BC0B6033
:10558000704700BF6410022001230B80704700BFEA
:10559000C06950B103888B4202D843888B4203D242
:1055A00080680028F6D17047012070472DE9F04748
:1055B000244F3D68002D3FDD234EC5EB4515DFF838
:1055C0008C804FF0000A3468D8F8009004EB850511
:1055D0000C340C35A4F10803742249461846FAF736
:1055E000C2FE221F2063A06344F80CAC6263E46037
:1055F0007C34A542EED10024254603E082B13A680E
:10560000954213DA36F018FD336801351A59191925
:105610007C349042F2D10431C8F80010BDE8F08724
:1056200008600431C8F80010BDE8F087194604315D
:10563000C8F80010BDE8F087034BDFF81080196848
:10564000E9E700BF84100220A8FE062064100220B3
:10565000F8B5184F184B3846184E40F80C3F0DF06F
:10566000E7F83468C4EB4414A400204600F008FCBA
:10567000134B224600211B68386098474FF0FF33D8
:10568000736036F0DFFC3368002B0FDD0024254605
:1056900003E062B133689D4208DA36F0CDFC3B6826
:1056A00001351A5923447C349042F2D1F8BD186078
:1056B000F8BD00BFA8FE0620C554030884100220D0
:1056C000A0130220024B00221B6883F86920704758
:1056D00064100220024B01221B6883F86920704786
:1056E0006410022008B52BF071FB044B044A1B68C0
:1056F000916903F1080259665A6108BD64100220DD
:10570000C8FA06202DE9F043304F83B005460C4619
:10571000164605F0E7FF3B68DFF8B490DBB1D9F837
:1057200000300020DA6C1B6D15441C441AF0F8F9A7
:1057300088B13B68324621462846984780461AF091
:105740003DF80028F5D1B8F1000F04D10BF08AFB29
:1057500003B0BDE8F0831AF05BF905441AF066F96E
:10576000D9F80030044493F8692032B3A81B00F044
:105770000FF9ADF80000A81900F00AF9ADF804001F
:10578000A01B00F005F9ADF80200A01900F000F927
:10579000ADF8060068461AF0C3F90028D6D03246A4
:1057A00021462846FFF792F91AF008F80028F6D1AA
:1057B0000BF058FB03B0BDE8F08393F8683003FBAF
:1057C00005F503FB04F403FB06F6CFE7C0FA062059
:1057D000641002202DE9F04FDFF8AC9189B09846B3
:1057E00005460C46164605F07DFFD9F8003053B14A
:1057F000634F00203B68DA6C1B6D164498441AF026
:105800008FF9002851D11AF003F982461AF00EF9E7
:10581000814600201AF084F9002854D0584FA30084
:10582000564409EB080A0393BB46DFF860810AE09F
:1058300006983346CDF800A022462946C84719F0FD
:10584000BDFF00283FD03B68122106A85B7C58F8BA
:105850002330DA680693536A984781460028E7D1D7
:10586000DBF800E09EF869C0BCF1000F30D0012CDD
:10587000B5F9000034DD4FF001090146012335F987
:10588000232001339042A8BF10469142B8BF114671
:105890009C42F4DCBCF1000F25D13144304400F0CF
:1058A00085F860B3FFF71EFFC9E7D9F800704346DB
:1058B000324621462846B847074619F07FFF0028A0
:1058C000F3D1002F9FD10BF0CDFA09B0BDE8F08FD6
:1058D000012C9EF86890B5F90000CEDC0146DCE7AB
:1058E00001464FF001099EF868303144304491FB85
:1058F000F3F190FBF3F000F059F80028D2D10398AF
:1059000000F0E4F904900028CCD000F09BFC1D4B83
:10591000039A29461B6807909847D7F800E0079A32
:105920009EF86930E3B9002C1ADD039B1146901CE8
:10593000059202EB030C30F8022C04319EF868301B
:10594000043012FB03F320F8063C31F8022C9EF8D9
:10595000683012FB03F321F8023C8C45EBD1059A29
:10596000104609FB0AF309FB06F22146FFF72AF964
:1059700007A800F0CBFD049800F000FA92E700BF02
:10598000641002209C13022004FB06200002072062
:10599000054B1B6893F868300BB900B2704790FB59
:1059A000F3F000B2704700BF641002202DE9F84305
:1059B0003D4C06460D46276A002F58D04FF0000890
:1059C0003A4BA1681868B042B8BF30462B1A8B42D8
:1059D00001DB01444D1E854246DA4FF001080546C1
:1059E0004246DFF8E0903249D9F800E0314EDEF867
:1059F0006430DFF8D4C02060E5610D682761A361E1
:105A000093E80300CEF8646086E80300C4F82CC075
:105A10003846002143F6FF77A847D9F8005006F131
:105A2000080E254EB5F90C204046B5F90E3095F814
:105A3000681001320133C5F814E0B5F808C012FB54
:105A400001F2B5F80AE013FB01F31CFB01F5013A82
:105A5000013B66611EFB01F1666022876387A586B4
:105A6000E186E760BDE8F8832A1A0132B9E7134BF3
:105A70001868A06098B100F003FADFF82C9020625B
:105A800050B10F4B48464FF0000840F8243F0CF04F
:105A9000CFFED9F8207093E74FF0010890E70EF0A1
:105AA0005DFEA060E7E700BFC8FA062018010720E6
:105AB000A0130220F4FA062001C0FFFFEC0107202A
:105AC000215403086410022059E302082DE9F0472D
:105AD000DFF818913E4CD9F80030276A93F86850E7
